{"abi":[{"type":"function","name":"UPGRADE_INTERFACE_VERSION","inputs":[],"outputs":[{"name":"","type":"string","internalType":"string"}],"stateMutability":"view"},{"type":"function","name":"batchMigrateReferral","inputs":[{"name":"users","type":"address[]","internalType":"address[]"}],"outputs":[],"stateMutability":"nonpayable"},{"type":"function","name":"calcLevelAward","inputs":[{"name":"user","type":"address","internalType":"address"},{"name":"amount","type":"uint256","internalType":"uint256"}],"outputs":[{"name":"","type":"tuple[]","internalType":"struct Models.Revenue[]","components":[{"name":"user","type":"address","internalType":"address"},{"name":"amount","type":"uint256","internalType":"uint256"}]}],"stateMutability":"view"},{"type":"function","name":"getDirectReferralInfo","inputs":[{"name":"user","type":"address","internalType":"address"}],"outputs":[{"name":"","type":"tuple[]","internalType":"struct Models.DirectReferral[]","components":[{"name":"user","type":"address","internalType":"address"},{"name":"staked","type":"uint256","internalType":"uint256"},{"name":"performance","type":"uint256","internalType":"uint256"}]}],"stateMutability":"view"},{"type":"function","name":"getEffectivePerformance","inputs":[{"name":"users","type":"address[]","internalType":"address[]"}],"outputs":[{"name":"","type":"tuple[]","internalType":"struct Models.Effective[]","components":[{"name":"level","type":"uint8","internalType":"enum Models.LevelType"},{"name":"user","type":"address","internalType":"address"},{"name":"amount","type":"uint256","internalType":"uint256"}]}],"stateMutability":"view"},{"type":"function","name":"getLevelUserCount","inputs":[],"outputs":[{"name":"","type":"uint256","internalType":"uint256"}],"stateMutability":"view"},{"type":"function","name":"getLevelUsers","inputs":[],"outputs":[{"name":"","type":"address[]","internalType":"address[]"}],"stateMutability":"view"},{"type":"function","name":"initialize","inputs":[{"name":"_rootAddr","type":"address","internalType":"address"},{"name":"_lexv1","type":"address","internalType":"address"}],"outputs":[],"stateMutability":"nonpayable"},{"type":"function","name":"lexv1","inputs":[],"outputs":[{"name":"","type":"address","internalType":"address"}],"stateMutability":"view"},{"type":"function","name":"owner","inputs":[],"outputs":[{"name":"","type":"address","internalType":"address"}],"stateMutability":"view"},{"type":"function","name":"processStakeInfo","inputs":[{"name":"user","type":"address","internalType":"address"},{"name":"amount","type":"uint256","internalType":"uint256"}],"outputs":[],"stateMutability":"nonpayable"},{"type":"function","name":"processUnstakeInfo","inputs":[{"name":"user","type":"address","internalType":"address"},{"name":"amount","type":"uint256","internalType":"uint256"}],"outputs":[],"stateMutability":"nonpayable"},{"type":"function","name":"proxiableUUID","inputs":[],"outputs":[{"name":"","type":"bytes32","internalType":"bytes32"}],"stateMutability":"view"},{"type":"function","name":"queue","inputs":[],"outputs":[{"name":"","type":"address","internalType":"address"}],"stateMutability":"view"},{"type":"function","name":"referral","inputs":[{"name":"parent","type":"address","internalType":"address"},{"name":"user","type":"address","internalType":"address"}],"outputs":[],"stateMutability":"nonpayable"},{"type":"function","name":"referralInfo","inputs":[{"name":"","type":"address","internalType":"address"}],"outputs":[{"name":"parent","type":"address","internalType":"address"},{"name":"level","type":"uint8","internalType":"enum Models.LevelType"},{"name":"referralNum","type":"uint16","internalType":"uint16"},{"name":"totalStaked","type":"uint256","internalType":"uint256"},{"name":"performance","type":"uint256","internalType":"uint256"}],"stateMutability":"view"},{"type":"function","name":"renounceOwnership","inputs":[],"outputs":[],"stateMutability":"nonpayable"},{"type":"function","name":"rootAddr","inputs":[],"outputs":[{"name":"","type":"address","internalType":"address"}],"stateMutability":"view"},{"type":"function","name":"router","inputs":[],"outputs":[{"name":"","type":"address","internalType":"address"}],"stateMutability":"view"},{"type":"function","name":"setAddrConfig","inputs":[{"name":"_queue","type":"address","internalType":"address"},{"name":"_router","type":"address","internalType":"address"}],"outputs":[],"stateMutability":"nonpayable"},{"type":"function","name":"transferOwnership","inputs":[{"name":"newOwner","type":"address","internalType":"address"}],"outputs":[],"stateMutability":"nonpayable"},{"type":"function","name":"upgradeToAndCall","inputs":[{"name":"newImplementation","type":"address","internalType":"address"},{"name":"data","type":"bytes","internalType":"bytes"}],"outputs":[],"stateMutability":"payable"},{"type":"event","name":"Initialized","inputs":[{"name":"version","type":"uint64","indexed":false,"internalType":"uint64"}],"anonymous":false},{"type":"event","name":"OwnershipTransferred","inputs":[{"name":"previousOwner","type":"address","indexed":true,"internalType":"address"},{"name":"newOwner","type":"address","indexed":true,"internalType":"address"}],"anonymous":false},{"type":"event","name":"Upgraded","inputs":[{"name":"implementation","type":"address","indexed":true,"internalType":"address"}],"anonymous":false},{"type":"error","name":"AddressEmptyCode","inputs":[{"name":"target","type":"address","internalType":"address"}]},{"type":"error","name":"ERC1967InvalidImplementation","inputs":[{"name":"implementation","type":"address","internalType":"address"}]},{"type":"error","name":"ERC1967NonPayable","inputs":[]},{"type":"error","name":"FailedCall","inputs":[]},{"type":"error","name":"InvalidInitialization","inputs":[]},{"type":"error","name":"NotInitializing","inputs":[]},{"type":"error","name":"OwnableInvalidOwner","inputs":[{"name":"owner","type":"address","internalType":"address"}]},{"type":"error","name":"OwnableUnauthorizedAccount","inputs":[{"name":"account","type":"address","internalType":"address"}]},{"type":"error","name":"UUPSUnauthorizedCallContext","inputs":[]},{"type":"error","name":"UUPSUnsupportedProxiableUUID","inputs":[{"name":"slot","type":"bytes32","internalType":"bytes32"}]}],"bytecode":{"object":"0x60a0604052306080523480156012575f5ffd5b506080516121b96100395f395f818161125c0152818161128501526113c901526121b95ff3fe608060405260043610610131575f3560e01c80637ab04373116100a8578063ddae84cc1161006d578063ddae84cc146103e3578063e10d29ee14610402578063e25c3fc614610421578063f2fde38b14610440578063f86680ab1461045f578063f887ea4014610473575f5ffd5b80637ab04373146102f35780638da5cb5b1461031f578063ad3cb1cc1461035b578063ca65a3d114610398578063dcdcd08c146103b7575f5ffd5b8063485cc955116100f9578063485cc955146102405780634f1ef2861461025f57806352d1902d14610272578063543b35c7146102945780636ad0c5fe146102b3578063715018a6146102df575f5ffd5b8063033d1aa014610135578063187ed5b11461015f5780631c505d1d14610196578063203e7793146101b757806339540b0a146101d6575b5f5ffd5b348015610140575f5ffd5b50610149610492565b6040516101569190611be7565b60405180910390f35b34801561016a575f5ffd5b50600c5461017e906001600160a01b031681565b6040516001600160a01b039091168152602001610156565b3480156101a1575f5ffd5b506101b56101b0366004611c46565b6104a3565b005b3480156101c2575f5ffd5b50600f5461017e906001600160a01b031681565b3480156101e1575f5ffd5b5061022f6101f0366004611c7d565b60106020525f90815260409020805460018201546002909201546001600160a01b03821692600160a01b830460ff1692600160a81b900461ffff169185565b604051610156959493929190611ccc565b34801561024b575f5ffd5b506101b561025a366004611c46565b61060c565b6101b561026d366004611d4e565b610811565b34801561027d575f5ffd5b50610286610830565b604051908152602001610156565b34801561029f575f5ffd5b506101b56102ae366004611df5565b61084b565b3480156102be575f5ffd5b506102d26102cd366004611e1f565b6109b9565b6040516101569190611ed3565b3480156102ea575f5ffd5b506101b5610adb565b3480156102fe575f5ffd5b5061031261030d366004611df5565b610aee565b6040516101569190611f34565b34801561032a575f5ffd5b507f9016d09d72d40fdae2fd8ceac6b6234c7706214fd39c1cd1e609a0528c199300546001600160a01b031661017e565b348015610366575f5ffd5b5061038b604051806040016040528060058152602001640352e302e360dc1b81525081565b6040516101569190611f80565b3480156103a3575f5ffd5b506101b56103b2366004611e1f565b610e1f565b3480156103c2575f5ffd5b506103d66103d1366004611c7d565b610f29565b6040516101569190611fb5565b3480156103ee575f5ffd5b506101b56103fd366004611c46565b61105d565b34801561040d575f5ffd5b50600d5461017e906001600160a01b031681565b34801561042c575f5ffd5b506101b561043b366004611df5565b611093565b34801561044b575f5ffd5b506101b561045a366004611c7d565b6111a9565b34801561046a575f5ffd5b506102866111e6565b34801561047e575f5ffd5b50600e5461017e906001600160a01b031681565b606061049e60026111f1565b905090565b600e546001600160a01b031633146104d65760405162461bcd60e51b81526004016104cd9061200e565b60405180910390fd5b600c546001600160a01b03838116911614610578576001600160a01b0382165f908152601060205260409020600101541580159061052c57506001600160a01b038281165f908152601060205260409020541615155b6105785760405162461bcd60e51b815260206004820152601b60248201527f4e6f7420656c696769626c6520746f20626520696e76697465642e000000000060448201526064016104cd565b6001600160a01b038082165f9081526010602052604090208054909116156105d45760405162461bcd60e51b815260206004820152600f60248201526e20b63932b0b23c9032bc34b9ba399760891b60448201526064016104cd565b80546001600160a01b0319166001600160a01b03841690811782555f9081526020819052604090206106069083611204565b50505050565b5f610615611218565b805490915060ff600160401b820416159067ffffffffffffffff165f8115801561063c5750825b90505f8267ffffffffffffffff1660011480156106585750303b155b905081158015610666575080155b156106845760405163f92ee8a960e01b815260040160405180910390fd5b845467ffffffffffffffff1916600117855583156106ae57845460ff60401b1916600160401b1785555b6106b733611240565b600c80546001600160a01b03808a166001600160a01b031992831617909255600f805492891692909116919091178155604080516101008101825260058082526020820152600a91810191909152606081019190915260146080820152601960a0820152601c60c0820152601e60e0820152610737906004906008611b02565b506040805160e08101825269021e19e0c9bab24000008152690a968163f0a57b4000006020820152691fc3842bd1f071c00000918101919091526969e10de76676d0800000606082015269d3c21bcecceda100000060808201526a027b46536c66c8e300000060a08201526a084595161401484a00000060c08201526107c1906005906007611b96565b50831561080857845460ff60401b19168555604051600181527fc7f505b2f371ae2175ee4913f4499e1f2633a7b5936321eed1cdaeb6115181d29060200160405180910390a15b50505050505050565b610819611251565b610822826112f5565b61082c82826112fd565b5050565b5f6108396113be565b505f5160206121645f395f51905f5290565b600d546001600160a01b031633146108755760405162461bcd60e51b81526004016104cd9061200e565b6001600160a01b038083165f90815260106020526040902080549091166108de5760405162461bcd60e51b815260206004820152601c60248201527f496e7669746174696f6e20636f64652069732072657175697265642e0000000060448201526064016104cd565b81816001015f8282546108f19190612047565b90915550506001600160a01b038084165f908152601060205260409020546001830154911690680ad78ebc5ac620000011610949576001600160a01b0381165f9081526001602052604090206109479085611204565b505b6001600160a01b038116156109b0576001600160a01b0381165f9081526010602052604081206002018054859290610982908490612047565b90915550610991905081611407565b6001600160a01b039081165f9081526010602052604090205416610949565b61060684611407565b80516060905f8167ffffffffffffffff8111156109d8576109d8611d09565b604051908082528060200260200182016040528015610a2157816020015b604080516060810182525f80825260208083018290529282015282525f199092019101816109f65790505b5090505f5b82811015610ad3575f858281518110610a4157610a4161205a565b602090810291909101810151604080516060810182526001600160a01b0383165f90815260109094529220549092508190600160a01b900460ff166007811115610a8d57610a8d611c98565b8152602001826001600160a01b03168152602001610aaa83611592565b815250838381518110610abf57610abf61205a565b602090810291909101015250600101610a26565b509392505050565b610ae361166d565b610aec5f6116c8565b565b60408051600880825261012082019092526060915f9190816020015b604080518082019091525f8082526020820152815260200190600190039081610b0a5750506001600160a01b038581165f908152601060205260408120549293509116818115610be9576001600160a01b0382165f90815260106020526040902060010154680ad78ebc5ac620000011610be9576004545f90602390610b949061ffff168961206e565b610b9e9190612085565b90506040518060400160405280846001600160a01b0316815260200182815250858580610bca906120a4565b965081518110610bdc57610bdc61205a565b6020026020010181905250505b6001600160a01b03821615610d67576001600160a01b0382165f90815260106020526040812054600160a01b900460ff1690816007811115610c2d57610c2d611c98565b14610d44575f6004826007811115610c4757610c47611c98565b60ff1660088110610c5a57610c5a61205a565b601091828204019190066002029054906101000a900461ffff1690508261ffff168161ffff161115610d42575f610c9184836120bc565b90505f6023610ca461ffff84168c61206e565b610cae9190612085565b90506040518060400160405280876001600160a01b0316815260200182815250888880610cda906120a4565b995081518110610cec57610cec61205a565b60200260200101819052508294506004600760088110610d0e57610d0e61205a565b601091828204019190066002029054906101000a900461ffff1661ffff168561ffff1603610d3f5750505050610d67565b50505b505b506001600160a01b039182165f9081526010602052604090205490911690610be9565b5f8367ffffffffffffffff811115610d8157610d81611d09565b604051908082528060200260200182016040528015610dc557816020015b604080518082019091525f8082526020820152815260200190600190039081610d9f5790505b5090505f5b84811015610e1157858181518110610de457610de461205a565b6020026020010151828281518110610dfe57610dfe61205a565b6020908102919091010152600101610dca565b509450505050505b92915050565b610e2761166d565b5f5b815181101561082c57600f5482515f916001600160a01b03169063a940592390859085908110610e5b57610e5b61205a565b60200260200101516040518263ffffffff1660e01b8152600401610e8e91906001600160a01b0391909116815260200190565b602060405180830381865afa158015610ea9573d5f5f3e3d5ffd5b505050506040513d601f19601f82011682018060405250810190610ecd91906120d6565b90508060105f858581518110610ee557610ee561205a565b6020908102919091018101516001600160a01b039081168352908201929092526040015f2080546001600160a01b0319169290911691909117905550600101610e29565b6001600160a01b0381165f90815260208190526040812060609190610f4d90611738565b90505f8167ffffffffffffffff811115610f6957610f69611d09565b604051908082528060200260200182016040528015610fc457816020015b610fb160405180606001604052805f6001600160a01b031681526020015f81526020015f81525090565b815260200190600190039081610f875790505b5090505f5b82811015610ad3576001600160a01b0385165f908152602081905260408120610ff29083611741565b604080516060810182526001600160a01b0383168082525f8181526010602081815285832060018101548287015293909252905260020154918101919091528451919250908490849081106110495761104961205a565b602090810291909101015250600101610fc9565b61106561166d565b600d80546001600160a01b039384166001600160a01b031991821617909155600e8054929093169116179055565b600d546001600160a01b031633146110bd5760405162461bcd60e51b81526004016104cd9061200e565b6001600160a01b0382165f908152601060205260408120600181018054919284926110e99084906120f1565b90915550506001600160a01b038084165f908152601060205260409020546001830154911690680ad78ebc5ac62000001115611142576001600160a01b0381165f908152600160205260409020611140908561174c565b505b6001600160a01b038116156109b0576001600160a01b0381165f908152601060205260408120600201805485929061117b9084906120f1565b9091555061118a905081611407565b6001600160a01b039081165f9081526010602052604090205416611142565b6111b161166d565b6001600160a01b0381166111da57604051631e4fbdf760e01b81525f60048201526024016104cd565b6111e3816116c8565b50565b5f61049e6002611738565b60605f6111fd83611760565b9392505050565b5f6111fd836001600160a01b0384166117b9565b5f807ff0c57e16840df040f15088dc2f81fe391c3923bec73e23a9662efc9c229c6a00610e19565b611248611805565b6111e38161182a565b306001600160a01b037f00000000000000000000000000000000000000000000000000000000000000001614806112d757507f00000000000000000000000000000000000000000000000000000000000000006001600160a01b03166112cb5f5160206121645f395f51905f52546001600160a01b031690565b6001600160a01b031614155b15610aec5760405163703e46dd60e11b815260040160405180910390fd5b6111e361166d565b816001600160a01b03166352d1902d6040518163ffffffff1660e01b8152600401602060405180830381865afa925050508015611357575060408051601f3d908101601f1916820190925261135491810190612104565b60015b61137f57604051634c9c8ce360e01b81526001600160a01b03831660048201526024016104cd565b5f5160206121645f395f51905f5281146113af57604051632a87526960e21b8152600481018290526024016104cd565b6113b98383611832565b505050565b306001600160a01b037f00000000000000000000000000000000000000000000000000000000000000001614610aec5760405163703e46dd60e11b815260040160405180910390fd5b6001600160a01b0381165f9081526010602090815260408083206002810154600180830154945291842090939192919061144090611738565b90505f60075b60ff8116156114f5575f8160ff1660011461146a57683635c9adc5dea00000611475565b681b1ae4d6e2ef5000005b68ffffffffffffffffff169050600561148f60018461211b565b60ff16600781106114a2576114a261205a565b015486101580156114b35750808510155b80156114c0575060038410155b156114e2578160ff1660078111156114da576114da611c98565b9250506114f5565b50806114ed81612134565b915050611446565b5080600781111561150857611508611c98565b8554600160a01b900460ff16600781111561152557611525611c98565b1461158a575f81600781111561153d5761153d611c98565b036115535761154d60028761174c565b50611560565b61155e600287611204565b505b84548190869060ff60a01b1916600160a01b83600781111561158457611584611c98565b02179055505b505050505050565b6001600160a01b0381165f90815260208190526040812081906115b490611738565b9050805f036115c557505f92915050565b5f80805b83811015611647576001600160a01b0386165f9081526020819052604081206115f29083611741565b6001600160a01b0381165f908152601060205260408120600181015460029091015492935090916116239190612047565b905061162f8186612047565b94508381111561163d578093505b50506001016115c9565b508260010361165a57505f949350505050565b61166481836120f1565b95945050505050565b3361169f7f9016d09d72d40fdae2fd8ceac6b6234c7706214fd39c1cd1e609a0528c199300546001600160a01b031690565b6001600160a01b031614610aec5760405163118cdaa760e01b81523360048201526024016104cd565b7f9016d09d72d40fdae2fd8ceac6b6234c7706214fd39c1cd1e609a0528c19930080546001600160a01b031981166001600160a01b03848116918217845560405192169182907f8be0079c531659141344cd1fd0a4f28419497f9722a3daafe3b4186f6b6457e0905f90a3505050565b5f610e19825490565b5f6111fd8383611887565b5f6111fd836001600160a01b0384166118ad565b6060815f018054806020026020016040519081016040528092919081815260200182805480156117ad57602002820191905f5260205f20905b815481526020019060010190808311611799575b50505050509050919050565b5f8181526001830160205260408120546117fe57508154600181810184555f848152602080822090930184905584548482528286019093526040902091909155610e19565b505f610e19565b61180d611997565b610aec57604051631afcd79f60e31b815260040160405180910390fd5b6111b1611805565b61183b826119b0565b6040516001600160a01b038316907fbc7cd75a20ee27fd9adebab32041f755214dbc6bffa90cc0225b39da2e5c2d3b905f90a280511561187f576113b98282611a13565b61082c611aac565b5f825f01828154811061189c5761189c61205a565b905f5260205f200154905092915050565b5f8181526001830160205260408120548015611987575f6118cf6001836120f1565b85549091505f906118e2906001906120f1565b9050808214611941575f865f0182815481106119005761190061205a565b905f5260205f200154905080875f0184815481106119205761192061205a565b5f918252602080832090910192909255918252600188019052604090208390555b85548690806119525761195261214f565b600190038181905f5260205f20015f90559055856001015f8681526020019081526020015f205f905560019350505050610e19565b5f915050610e19565b5092915050565b5f6119a0611218565b54600160401b900460ff16919050565b806001600160a01b03163b5f036119e557604051634c9c8ce360e01b81526001600160a01b03821660048201526024016104cd565b5f5160206121645f395f51905f5280546001600160a01b0319166001600160a01b0392909216919091179055565b60605f611a208484611acb565b9050808015611a4157505f3d1180611a4157505f846001600160a01b03163b115b15611a5657611a4e611ade565b915050610e19565b8015611a8057604051639996b31560e01b81526001600160a01b03851660048201526024016104cd565b3d15611a9357611a8e611af7565b611990565b60405163d6bda27560e01b815260040160405180910390fd5b3415610aec5760405163b398979f60e01b815260040160405180910390fd5b5f5f5f835160208501865af49392505050565b6040513d81523d5f602083013e3d602001810160405290565b6040513d5f823e3d81fd5b600183019183908215611b86579160200282015f5b83821115611b5657835183826101000a81548161ffff021916908360ff1602179055509260200192600201602081600101049283019260010302611b17565b8015611b845782816101000a81549061ffff0219169055600201602081600101049283019260010302611b56565b505b50611b92929150611bd3565b5090565b8260078101928215611b86579160200282015b82811115611b8657825182906affffffffffffffffffffff16905591602001919060010190611ba9565b5b80821115611b92575f8155600101611bd4565b602080825282518282018190525f918401906040840190835b81811015611c275783516001600160a01b0316835260209384019390920191600101611c00565b509095945050505050565b6001600160a01b03811681146111e3575f5ffd5b5f5f60408385031215611c57575f5ffd5b8235611c6281611c32565b91506020830135611c7281611c32565b809150509250929050565b5f60208284031215611c8d575f5ffd5b81356111fd81611c32565b634e487b7160e01b5f52602160045260245ffd5b60088110611cc857634e487b7160e01b5f52602160045260245ffd5b9052565b6001600160a01b038616815260a08101611ce96020830187611cac565b61ffff851660408301528360608301528260808301529695505050505050565b634e487b7160e01b5f52604160045260245ffd5b604051601f8201601f1916810167ffffffffffffffff81118282101715611d4657611d46611d09565b604052919050565b5f5f60408385031215611d5f575f5ffd5b8235611d6a81611c32565b9150602083013567ffffffffffffffff811115611d85575f5ffd5b8301601f81018513611d95575f5ffd5b803567ffffffffffffffff811115611daf57611daf611d09565b611dc2601f8201601f1916602001611d1d565b818152866020838501011115611dd6575f5ffd5b816020840160208301375f602083830101528093505050509250929050565b5f5f60408385031215611e06575f5ffd5b8235611e1181611c32565b946020939093013593505050565b5f60208284031215611e2f575f5ffd5b813567ffffffffffffffff811115611e45575f5ffd5b8201601f81018413611e55575f5ffd5b803567ffffffffffffffff811115611e6f57611e6f611d09565b8060051b611e7f60208201611d1d565b91825260208184018101929081019087841115611e9a575f5ffd5b6020850194505b83851015611ec85784359250611eb683611c32565b82825260209485019490910190611ea1565b979650505050505050565b602080825282518282018190525f918401906040840190835b81811015611c27578351611f01848251611cac565b6020818101516001600160a01b031685820152604091820151918501919091529390930192606090920191600101611eec565b602080825282518282018190525f918401906040840190835b81811015611c2757835180516001600160a01b031684526020908101518185015290930192604090920191600101611f4d565b602081525f82518060208401528060208501604085015e5f604082850101526040601f19601f83011684010191505092915050565b602080825282518282018190525f918401906040840190835b81811015611c2757835180516001600160a01b03168452602080820151818601526040918201519185019190915290930192606090920191600101611fce565b6020808252600b908201526a2737ba103832b936b4ba1760a91b604082015260600190565b634e487b7160e01b5f52601160045260245ffd5b80820180821115610e1957610e19612033565b634e487b7160e01b5f52603260045260245ffd5b8082028115828204841417610e1957610e19612033565b5f8261209f57634e487b7160e01b5f52601260045260245ffd5b500490565b5f600182016120b5576120b5612033565b5060010190565b61ffff8281168282160390811115610e1957610e19612033565b5f602082840312156120e6575f5ffd5b81516111fd81611c32565b81810381811115610e1957610e19612033565b5f60208284031215612114575f5ffd5b5051919050565b60ff8281168282160390811115610e1957610e19612033565b5f60ff82168061214657612146612033565b5f190192915050565b634e487b7160e01b5f52603160045260245ffdfe360894a13ba1a3210667c828492db98dca3e2076cc3735a920a3ca505d382bbca264697066735822122033e306eaf208ef5815927533d0ca85cf06a7e9836ecc131bcdd9e5f40559e14b64736f6c634300081e0033","linkReferences":{}},"methodIdentifiers":{"UPGRADE_INTERFACE_VERSION()":"ad3cb1cc","batchMigrateReferral(address[])":"ca65a3d1","calcLevelAward(address,uint256)":"7ab04373","getDirectReferralInfo(address)":"dcdcd08c","getEffectivePerformance(address[])":"6ad0c5fe","getLevelUserCount()":"f86680ab","getLevelUsers()":"033d1aa0","initialize(address,address)":"485cc955","lexv1()":"203e7793","owner()":"8da5cb5b","processStakeInfo(address,uint256)":"543b35c7","processUnstakeInfo(address,uint256)":"e25c3fc6","proxiableUUID()":"52d1902d","queue()":"e10d29ee","referral(address,address)":"1c505d1d","referralInfo(address)":"39540b0a","renounceOwnership()":"715018a6","rootAddr()":"187ed5b1","router()":"f887ea40","setAddrConfig(address,address)":"ddae84cc","transferOwnership(address)":"f2fde38b","upgradeToAndCall(address,bytes)":"4f1ef286"},"id":49}