{"abi":[{"type":"function","name":"UPGRADE_INTERFACE_VERSION","inputs":[],"outputs":[{"name":"","type":"string","internalType":"string"}],"stateMutability":"view"},{"type":"function","name":"batchMigrateReferral","inputs":[{"name":"users","type":"address[]","internalType":"address[]"}],"outputs":[],"stateMutability":"nonpayable"},{"type":"function","name":"calcLevelAward","inputs":[{"name":"user","type":"address","internalType":"address"},{"name":"amount","type":"uint256","internalType":"uint256"}],"outputs":[{"name":"","type":"tuple[]","internalType":"struct Models.Revenue[]","components":[{"name":"user","type":"address","internalType":"address"},{"name":"amount","type":"uint256","internalType":"uint256"}]}],"stateMutability":"view"},{"type":"function","name":"getDirectReferralInfo","inputs":[{"name":"user","type":"address","internalType":"address"}],"outputs":[{"name":"","type":"tuple[]","internalType":"struct Models.DirectReferral[]","components":[{"name":"user","type":"address","internalType":"address"},{"name":"staked","type":"uint256","internalType":"uint256"},{"name":"performance","type":"uint256","internalType":"uint256"}]}],"stateMutability":"view"},{"type":"function","name":"getEffectivePerformance","inputs":[{"name":"users","type":"address[]","internalType":"address[]"}],"outputs":[{"name":"","type":"tuple[]","internalType":"struct Models.Effective[]","components":[{"name":"level","type":"uint8","internalType":"enum Models.LevelType"},{"name":"user","type":"address","internalType":"address"},{"name":"amount","type":"uint256","internalType":"uint256"}]}],"stateMutability":"view"},{"type":"function","name":"getLevelUserCount","inputs":[],"outputs":[{"name":"","type":"uint256","internalType":"uint256"}],"stateMutability":"view"},{"type":"function","name":"getLevelUsers","inputs":[],"outputs":[{"name":"","type":"address[]","internalType":"address[]"}],"stateMutability":"view"},{"type":"function","name":"initialize","inputs":[{"name":"_rootAddr","type":"address","internalType":"address"},{"name":"_lexv1","type":"address","internalType":"address"}],"outputs":[],"stateMutability":"nonpayable"},{"type":"function","name":"lexv1","inputs":[],"outputs":[{"name":"","type":"address","internalType":"address"}],"stateMutability":"view"},{"type":"function","name":"owner","inputs":[],"outputs":[{"name":"","type":"address","internalType":"address"}],"stateMutability":"view"},{"type":"function","name":"processStakeInfo","inputs":[{"name":"user","type":"address","internalType":"address"},{"name":"amount","type":"uint256","internalType":"uint256"}],"outputs":[],"stateMutability":"nonpayable"},{"type":"function","name":"processUnstakeInfo","inputs":[{"name":"user","type":"address","internalType":"address"},{"name":"amount","type":"uint256","internalType":"uint256"}],"outputs":[],"stateMutability":"nonpayable"},{"type":"function","name":"proxiableUUID","inputs":[],"outputs":[{"name":"","type":"bytes32","internalType":"bytes32"}],"stateMutability":"view"},{"type":"function","name":"queue","inputs":[],"outputs":[{"name":"","type":"address","internalType":"address"}],"stateMutability":"view"},{"type":"function","name":"referral","inputs":[{"name":"parent","type":"address","internalType":"address"},{"name":"user","type":"address","internalType":"address"}],"outputs":[],"stateMutability":"nonpayable"},{"type":"function","name":"referralInfo","inputs":[{"name":"","type":"address","internalType":"address"}],"outputs":[{"name":"parent","type":"address","internalType":"address"},{"name":"level","type":"uint8","internalType":"enum Models.LevelType"},{"name":"referralNum","type":"uint16","internalType":"uint16"},{"name":"totalStaked","type":"uint256","internalType":"uint256"},{"name":"performance","type":"uint256","internalType":"uint256"}],"stateMutability":"view"},{"type":"function","name":"renounceOwnership","inputs":[],"outputs":[],"stateMutability":"nonpayable"},{"type":"function","name":"rootAddr","inputs":[],"outputs":[{"name":"","type":"address","internalType":"address"}],"stateMutability":"view"},{"type":"function","name":"router","inputs":[],"outputs":[{"name":"","type":"address","internalType":"address"}],"stateMutability":"view"},{"type":"function","name":"setAddrConfig","inputs":[{"name":"_queue","type":"address","internalType":"address"},{"name":"_router","type":"address","internalType":"address"}],"outputs":[],"stateMutability":"nonpayable"},{"type":"function","name":"transferOwnership","inputs":[{"name":"newOwner","type":"address","internalType":"address"}],"outputs":[],"stateMutability":"nonpayable"},{"type":"function","name":"upgradeToAndCall","inputs":[{"name":"newImplementation","type":"address","internalType":"address"},{"name":"data","type":"bytes","internalType":"bytes"}],"outputs":[],"stateMutability":"payable"},{"type":"event","name":"Initialized","inputs":[{"name":"version","type":"uint64","indexed":false,"internalType":"uint64"}],"anonymous":false},{"type":"event","name":"OwnershipTransferred","inputs":[{"name":"previousOwner","type":"address","indexed":true,"internalType":"address"},{"name":"newOwner","type":"address","indexed":true,"internalType":"address"}],"anonymous":false},{"type":"event","name":"Upgraded","inputs":[{"name":"implementation","type":"address","indexed":true,"internalType":"address"}],"anonymous":false},{"type":"error","name":"AddressEmptyCode","inputs":[{"name":"target","type":"address","internalType":"address"}]},{"type":"error","name":"ERC1967InvalidImplementation","inputs":[{"name":"implementation","type":"address","internalType":"address"}]},{"type":"error","name":"ERC1967NonPayable","inputs":[]},{"type":"error","name":"FailedCall","inputs":[]},{"type":"error","name":"InvalidInitialization","inputs":[]},{"type":"error","name":"NotInitializing","inputs":[]},{"type":"error","name":"OwnableInvalidOwner","inputs":[{"name":"owner","type":"address","internalType":"address"}]},{"type":"error","name":"OwnableUnauthorizedAccount","inputs":[{"name":"account","type":"address","internalType":"address"}]},{"type":"error","name":"UUPSUnauthorizedCallContext","inputs":[]},{"type":"error","name":"UUPSUnsupportedProxiableUUID","inputs":[{"name":"slot","type":"bytes32","internalType":"bytes32"}]}],"bytecode":{"object":"0x60a0604052306080523480156012575f5ffd5b506080516121af6100395f395f81816112500152818161127901526113bd01526121af5ff3fe608060405260043610610131575f3560e01c80637ab04373116100a8578063ddae84cc1161006d578063ddae84cc146103e3578063e10d29ee14610402578063e25c3fc614610421578063f2fde38b14610440578063f86680ab1461045f578063f887ea4014610473575f5ffd5b80637ab04373146102f35780638da5cb5b1461031f578063ad3cb1cc1461035b578063ca65a3d114610398578063dcdcd08c146103b7575f5ffd5b8063485cc955116100f9578063485cc955146102405780634f1ef2861461025f57806352d1902d14610272578063543b35c7146102945780636ad0c5fe146102b3578063715018a6146102df575f5ffd5b8063033d1aa014610135578063187ed5b11461015f5780631c505d1d14610196578063203e7793146101b757806339540b0a146101d6575b5f5ffd5b348015610140575f5ffd5b50610149610492565b6040516101569190611c11565b60405180910390f35b34801561016a575f5ffd5b50600c5461017e906001600160a01b031681565b6040516001600160a01b039091168152602001610156565b3480156101a1575f5ffd5b506101b56101b0366004611c70565b6104a3565b005b3480156101c2575f5ffd5b50600f5461017e906001600160a01b031681565b3480156101e1575f5ffd5b5061022f6101f0366004611ca7565b60106020525f90815260409020805460018201546002909201546001600160a01b03821692600160a01b830460ff1692600160a81b900461ffff169185565b604051610156959493929190611cf6565b34801561024b575f5ffd5b506101b561025a366004611c70565b6105f6565b6101b561026d366004611d78565b6107fb565b34801561027d575f5ffd5b5061028661081a565b604051908152602001610156565b34801561029f575f5ffd5b506101b56102ae366004611e1f565b610835565b3480156102be575f5ffd5b506102d26102cd366004611e49565b6109c1565b6040516101569190611efd565b3480156102ea575f5ffd5b506101b5610ae3565b3480156102fe575f5ffd5b5061031261030d366004611e1f565b610af6565b6040516101569190611f5e565b34801561032a575f5ffd5b507f9016d09d72d40fdae2fd8ceac6b6234c7706214fd39c1cd1e609a0528c199300546001600160a01b031661017e565b348015610366575f5ffd5b5061038b604051806040016040528060058152602001640352e302e360dc1b81525081565b6040516101569190611faa565b3480156103a3575f5ffd5b506101b56103b2366004611e49565b610e27565b3480156103c2575f5ffd5b506103d66103d1366004611ca7565b610f31565b6040516101569190611fdf565b3480156103ee575f5ffd5b506101b56103fd366004611c70565b611065565b34801561040d575f5ffd5b50600d5461017e906001600160a01b031681565b34801561042c575f5ffd5b506101b561043b366004611e1f565b61109b565b34801561044b575f5ffd5b506101b561045a366004611ca7565b6111b1565b34801561046a575f5ffd5b506102866111ee565b34801561047e575f5ffd5b50600e5461017e906001600160a01b031681565b606061049e60026111f9565b905090565b600e546001600160a01b031633146104d65760405162461bcd60e51b81526004016104cd90612038565b60405180910390fd5b600c546001600160a01b03838116911614610578576001600160a01b0382165f908152601060205260409020600101541580159061052c57506001600160a01b038281165f908152601060205260409020541615155b6105785760405162461bcd60e51b815260206004820152601b60248201527f4e6f7420656c696769626c6520746f20626520696e76697465642e000000000060448201526064016104cd565b6001600160a01b038082165f9081526010602052604090208054909116156105d45760405162461bcd60e51b815260206004820152600f60248201526e20b63932b0b23c9032bc34b9ba399760891b60448201526064016104cd565b80546001600160a01b0319166001600160a01b03939093169290921790915550565b5f6105ff61120c565b805490915060ff600160401b820416159067ffffffffffffffff165f811580156106265750825b90505f8267ffffffffffffffff1660011480156106425750303b155b905081158015610650575080155b1561066e5760405163f92ee8a960e01b815260040160405180910390fd5b845467ffffffffffffffff19166001178555831561069857845460ff60401b1916600160401b1785555b6106a133611234565b600c80546001600160a01b03808a166001600160a01b031992831617909255600f805492891692909116919091178155604080516101008101825260058082526020820152600a91810191909152606081019190915260146080820152601960a0820152601c60c0820152601e60e0820152610721906004906008611b2c565b506040805160e08101825269021e19e0c9bab24000008152690a968163f0a57b4000006020820152691fc3842bd1f071c00000918101919091526969e10de76676d0800000606082015269d3c21bcecceda100000060808201526a027b46536c66c8e300000060a08201526a084595161401484a00000060c08201526107ab906005906007611bc0565b5083156107f257845460ff60401b19168555604051600181527fc7f505b2f371ae2175ee4913f4499e1f2633a7b5936321eed1cdaeb6115181d29060200160405180910390a15b50505050505050565b610803611245565b61080c826112e9565b61081682826112f1565b5050565b5f6108236113b2565b505f51602061215a5f395f51905f5290565b600d546001600160a01b0316331461085f5760405162461bcd60e51b81526004016104cd90612038565b6001600160a01b038083165f90815260106020526040902080549091166108c85760405162461bcd60e51b815260206004820152601c60248201527f496e7669746174696f6e20636f64652069732072657175697265642e0000000060448201526064016104cd565b81816001015f8282546108db9190612071565b90915550506001600160a01b038084165f908152601060209081526040808320549093168083529082905291902061091390856113fb565b50680ad78ebc5ac620000082600101541061094b576001600160a01b0381165f90815260016020526040902061094990856113fb565b505b6001600160a01b038116156109b2576001600160a01b0381165f9081526010602052604081206002018054859290610984908490612071565b9091555061099390508161140f565b6001600160a01b039081165f908152601060205260409020541661094b565b6109bb8461140f565b50505050565b80516060905f8167ffffffffffffffff8111156109e0576109e0611d33565b604051908082528060200260200182016040528015610a2957816020015b604080516060810182525f80825260208083018290529282015282525f199092019101816109fe5790505b5090505f5b82811015610adb575f858281518110610a4957610a49612084565b602090810291909101810151604080516060810182526001600160a01b0383165f90815260109094529220549092508190600160a01b900460ff166007811115610a9557610a95611cc2565b8152602001826001600160a01b03168152602001610ab2836115bc565b815250838381518110610ac757610ac7612084565b602090810291909101015250600101610a2e565b509392505050565b610aeb611697565b610af45f6116f2565b565b60408051600880825261012082019092526060915f9190816020015b604080518082019091525f8082526020820152815260200190600190039081610b125750506001600160a01b038581165f908152601060205260408120549293509116818115610bf1576001600160a01b0382165f90815260106020526040902060010154680ad78ebc5ac620000011610bf1576004545f90602390610b9c9061ffff1689612098565b610ba691906120af565b90506040518060400160405280846001600160a01b0316815260200182815250858580610bd2906120ce565b965081518110610be457610be4612084565b6020026020010181905250505b6001600160a01b03821615610d6f576001600160a01b0382165f90815260106020526040812054600160a01b900460ff1690816007811115610c3557610c35611cc2565b14610d4c575f6004826007811115610c4f57610c4f611cc2565b60ff1660088110610c6257610c62612084565b601091828204019190066002029054906101000a900461ffff1690508261ffff168161ffff161115610d4a575f610c9984836120e6565b90505f6023610cac61ffff84168c612098565b610cb691906120af565b90506040518060400160405280876001600160a01b0316815260200182815250888880610ce2906120ce565b995081518110610cf457610cf4612084565b60200260200101819052508294506004600760088110610d1657610d16612084565b601091828204019190066002029054906101000a900461ffff1661ffff168561ffff1603610d475750505050610d6f565b50505b505b506001600160a01b039182165f9081526010602052604090205490911690610bf1565b5f8367ffffffffffffffff811115610d8957610d89611d33565b604051908082528060200260200182016040528015610dcd57816020015b604080518082019091525f8082526020820152815260200190600190039081610da75790505b5090505f5b84811015610e1957858181518110610dec57610dec612084565b6020026020010151828281518110610e0657610e06612084565b6020908102919091010152600101610dd2565b509450505050505b92915050565b610e2f611697565b5f5b815181101561081657600f5482515f916001600160a01b03169063a940592390859085908110610e6357610e63612084565b60200260200101516040518263ffffffff1660e01b8152600401610e9691906001600160a01b0391909116815260200190565b602060405180830381865afa158015610eb1573d5f5f3e3d5ffd5b505050506040513d601f19601f82011682018060405250810190610ed59190612100565b90508060105f858581518110610eed57610eed612084565b6020908102919091018101516001600160a01b039081168352908201929092526040015f2080546001600160a01b0319169290911691909117905550600101610e31565b6001600160a01b0381165f90815260208190526040812060609190610f5590611762565b90505f8167ffffffffffffffff811115610f7157610f71611d33565b604051908082528060200260200182016040528015610fcc57816020015b610fb960405180606001604052805f6001600160a01b031681526020015f81526020015f81525090565b815260200190600190039081610f8f5790505b5090505f5b82811015610adb576001600160a01b0385165f908152602081905260408120610ffa908361176b565b604080516060810182526001600160a01b0383168082525f81815260106020818152858320600181015482870152939092529052600201549181019190915284519192509084908490811061105157611051612084565b602090810291909101015250600101610fd1565b61106d611697565b600d80546001600160a01b039384166001600160a01b031991821617909155600e8054929093169116179055565b600d546001600160a01b031633146110c55760405162461bcd60e51b81526004016104cd90612038565b6001600160a01b0382165f908152601060205260408120600181018054919284926110f190849061211b565b90915550506001600160a01b038084165f908152601060205260409020546001830154911690680ad78ebc5ac6200000111561114a576001600160a01b0381165f9081526001602052604090206111489085611776565b505b6001600160a01b038116156109b2576001600160a01b0381165f908152601060205260408120600201805485929061118390849061211b565b9091555061119290508161140f565b6001600160a01b039081165f908152601060205260409020541661114a565b6111b9611697565b6001600160a01b0381166111e257604051631e4fbdf760e01b81525f60048201526024016104cd565b6111eb816116f2565b50565b5f61049e6002611762565b60605f6112058361178a565b9392505050565b5f807ff0c57e16840df040f15088dc2f81fe391c3923bec73e23a9662efc9c229c6a00610e21565b61123c6117e3565b6111eb81611808565b306001600160a01b037f00000000000000000000000000000000000000000000000000000000000000001614806112cb57507f00000000000000000000000000000000000000000000000000000000000000006001600160a01b03166112bf5f51602061215a5f395f51905f52546001600160a01b031690565b6001600160a01b031614155b15610af45760405163703e46dd60e11b815260040160405180910390fd5b6111eb611697565b816001600160a01b03166352d1902d6040518163ffffffff1660e01b8152600401602060405180830381865afa92505050801561134b575060408051601f3d908101601f191682019092526113489181019061212e565b60015b61137357604051634c9c8ce360e01b81526001600160a01b03831660048201526024016104cd565b5f51602061215a5f395f51905f5281146113a357604051632a87526960e21b8152600481018290526024016104cd565b6113ad8383611810565b505050565b306001600160a01b037f00000000000000000000000000000000000000000000000000000000000000001614610af45760405163703e46dd60e11b815260040160405180910390fd5b5f611205836001600160a01b038416611865565b6001600160a01b0381165f9081526010602052604081206001810154909190683635c9adc5dea00000118061146457506001600160a01b0383165f90815260016020526040902060039061146290611762565b105b9050801561149e575f8254600160a01b900460ff16600781111561148a5761148a611cc2565b146113ad5750805460ff60a01b1916905550565b6002820154600b545f9082106114b65750600761151f565b600a5482106114c75750600661151f565b60095482106114d85750600561151f565b60085482106114e95750600461151f565b60075482106114fa5750600361151f565b600654821061150b5750600261151f565b600554821061151c5750600161151f565b505f5b8354600160a01b900460ff1681600781111561153d5761153d611cc2565b81600781111561154f5761154f611cc2565b146115b4575f82600781111561156757611567611cc2565b0361157d57611577600287611776565b5061158a565b6115886002876113fb565b505b84548290869060ff60a01b1916600160a01b8360078111156115ae576115ae611cc2565b02179055505b505050505050565b6001600160a01b0381165f90815260208190526040812081906115de90611762565b9050805f036115ef57505f92915050565b5f80805b83811015611671576001600160a01b0386165f90815260208190526040812061161c908361176b565b6001600160a01b0381165f9081526010602052604081206001810154600290910154929350909161164d9190612071565b90506116598186612071565b945083811115611667578093505b50506001016115f3565b508260010361168457505f949350505050565b61168e818361211b565b95945050505050565b336116c97f9016d09d72d40fdae2fd8ceac6b6234c7706214fd39c1cd1e609a0528c199300546001600160a01b031690565b6001600160a01b031614610af45760405163118cdaa760e01b81523360048201526024016104cd565b7f9016d09d72d40fdae2fd8ceac6b6234c7706214fd39c1cd1e609a0528c19930080546001600160a01b031981166001600160a01b03848116918217845560405192169182907f8be0079c531659141344cd1fd0a4f28419497f9722a3daafe3b4186f6b6457e0905f90a3505050565b5f610e21825490565b5f61120583836118b1565b5f611205836001600160a01b0384166118d7565b6060815f018054806020026020016040519081016040528092919081815260200182805480156117d757602002820191905f5260205f20905b8154815260200190600101908083116117c3575b50505050509050919050565b6117eb6119c1565b610af457604051631afcd79f60e31b815260040160405180910390fd5b6111b96117e3565b611819826119da565b6040516001600160a01b038316907fbc7cd75a20ee27fd9adebab32041f755214dbc6bffa90cc0225b39da2e5c2d3b905f90a280511561185d576113ad8282611a3d565b610816611ad6565b5f8181526001830160205260408120546118aa57508154600181810184555f848152602080822090930184905584548482528286019093526040902091909155610e21565b505f610e21565b5f825f0182815481106118c6576118c6612084565b905f5260205f200154905092915050565b5f81815260018301602052604081205480156119b1575f6118f960018361211b565b85549091505f9061190c9060019061211b565b905080821461196b575f865f01828154811061192a5761192a612084565b905f5260205f200154905080875f01848154811061194a5761194a612084565b5f918252602080832090910192909255918252600188019052604090208390555b855486908061197c5761197c612145565b600190038181905f5260205f20015f90559055856001015f8681526020019081526020015f205f905560019350505050610e21565b5f915050610e21565b5092915050565b5f6119ca61120c565b54600160401b900460ff16919050565b806001600160a01b03163b5f03611a0f57604051634c9c8ce360e01b81526001600160a01b03821660048201526024016104cd565b5f51602061215a5f395f51905f5280546001600160a01b0319166001600160a01b0392909216919091179055565b60605f611a4a8484611af5565b9050808015611a6b57505f3d1180611a6b57505f846001600160a01b03163b115b15611a8057611a78611b08565b915050610e21565b8015611aaa57604051639996b31560e01b81526001600160a01b03851660048201526024016104cd565b3d15611abd57611ab8611b21565b6119ba565b60405163d6bda27560e01b815260040160405180910390fd5b3415610af45760405163b398979f60e01b815260040160405180910390fd5b5f5f5f835160208501865af49392505050565b6040513d81523d5f602083013e3d602001810160405290565b6040513d5f823e3d81fd5b600183019183908215611bb0579160200282015f5b83821115611b8057835183826101000a81548161ffff021916908360ff1602179055509260200192600201602081600101049283019260010302611b41565b8015611bae5782816101000a81549061ffff0219169055600201602081600101049283019260010302611b80565b505b50611bbc929150611bfd565b5090565b8260078101928215611bb0579160200282015b82811115611bb057825182906affffffffffffffffffffff16905591602001919060010190611bd3565b5b80821115611bbc575f8155600101611bfe565b602080825282518282018190525f918401906040840190835b81811015611c515783516001600160a01b0316835260209384019390920191600101611c2a565b509095945050505050565b6001600160a01b03811681146111eb575f5ffd5b5f5f60408385031215611c81575f5ffd5b8235611c8c81611c5c565b91506020830135611c9c81611c5c565b809150509250929050565b5f60208284031215611cb7575f5ffd5b813561120581611c5c565b634e487b7160e01b5f52602160045260245ffd5b60088110611cf257634e487b7160e01b5f52602160045260245ffd5b9052565b6001600160a01b038616815260a08101611d136020830187611cd6565b61ffff851660408301528360608301528260808301529695505050505050565b634e487b7160e01b5f52604160045260245ffd5b604051601f8201601f1916810167ffffffffffffffff81118282101715611d7057611d70611d33565b604052919050565b5f5f60408385031215611d89575f5ffd5b8235611d9481611c5c565b9150602083013567ffffffffffffffff811115611daf575f5ffd5b8301601f81018513611dbf575f5ffd5b803567ffffffffffffffff811115611dd957611dd9611d33565b611dec601f8201601f1916602001611d47565b818152866020838501011115611e00575f5ffd5b816020840160208301375f602083830101528093505050509250929050565b5f5f60408385031215611e30575f5ffd5b8235611e3b81611c5c565b946020939093013593505050565b5f60208284031215611e59575f5ffd5b813567ffffffffffffffff811115611e6f575f5ffd5b8201601f81018413611e7f575f5ffd5b803567ffffffffffffffff811115611e9957611e99611d33565b8060051b611ea960208201611d47565b91825260208184018101929081019087841115611ec4575f5ffd5b6020850194505b83851015611ef25784359250611ee083611c5c565b82825260209485019490910190611ecb565b979650505050505050565b602080825282518282018190525f918401906040840190835b81811015611c51578351611f2b848251611cd6565b6020818101516001600160a01b031685820152604091820151918501919091529390930192606090920191600101611f16565b602080825282518282018190525f918401906040840190835b81811015611c5157835180516001600160a01b031684526020908101518185015290930192604090920191600101611f77565b602081525f82518060208401528060208501604085015e5f604082850101526040601f19601f83011684010191505092915050565b602080825282518282018190525f918401906040840190835b81811015611c5157835180516001600160a01b03168452602080820151818601526040918201519185019190915290930192606090920191600101611ff8565b6020808252600b908201526a2737ba103832b936b4ba1760a91b604082015260600190565b634e487b7160e01b5f52601160045260245ffd5b80820180821115610e2157610e2161205d565b634e487b7160e01b5f52603260045260245ffd5b8082028115828204841417610e2157610e2161205d565b5f826120c957634e487b7160e01b5f52601260045260245ffd5b500490565b5f600182016120df576120df61205d565b5060010190565b61ffff8281168282160390811115610e2157610e2161205d565b5f60208284031215612110575f5ffd5b815161120581611c5c565b81810381811115610e2157610e2161205d565b5f6020828403121561213e575f5ffd5b5051919050565b634e487b7160e01b5f52603160045260245ffdfe360894a13ba1a3210667c828492db98dca3e2076cc3735a920a3ca505d382bbca26469706673582212206578b1ae28f4f77fa247a64cd5376b0e6e4d8daa83b35115d37e85a50974ecd164736f6c634300081e0033","linkReferences":{}},"methodIdentifiers":{"UPGRADE_INTERFACE_VERSION()":"ad3cb1cc","batchMigrateReferral(address[])":"ca65a3d1","calcLevelAward(address,uint256)":"7ab04373","getDirectReferralInfo(address)":"dcdcd08c","getEffectivePerformance(address[])":"6ad0c5fe","getLevelUserCount()":"f86680ab","getLevelUsers()":"033d1aa0","initialize(address,address)":"485cc955","lexv1()":"203e7793","owner()":"8da5cb5b","processStakeInfo(address,uint256)":"543b35c7","processUnstakeInfo(address,uint256)":"e25c3fc6","proxiableUUID()":"52d1902d","queue()":"e10d29ee","referral(address,address)":"1c505d1d","referralInfo(address)":"39540b0a","renounceOwnership()":"715018a6","rootAddr()":"187ed5b1","router()":"f887ea40","setAddrConfig(address,address)":"ddae84cc","transferOwnership(address)":"f2fde38b","upgradeToAndCall(address,bytes)":"4f1ef286"},"id":48}