{"abi":[{"type":"constructor","inputs":[{"name":"_initialRecipient","type":"address","internalType":"address"}],"stateMutability":"nonpayable"},{"type":"function","name":"TEST","inputs":[],"outputs":[{"name":"","type":"address","internalType":"address"}],"stateMutability":"view"},{"type":"function","name":"allowance","inputs":[{"name":"owner","type":"address","internalType":"address"},{"name":"spender","type":"address","internalType":"address"}],"outputs":[{"name":"","type":"uint256","internalType":"uint256"}],"stateMutability":"view"},{"type":"function","name":"approve","inputs":[{"name":"spender","type":"address","internalType":"address"},{"name":"value","type":"uint256","internalType":"uint256"}],"outputs":[{"name":"","type":"bool","internalType":"bool"}],"stateMutability":"nonpayable"},{"type":"function","name":"balanceOf","inputs":[{"name":"account","type":"address","internalType":"address"}],"outputs":[{"name":"","type":"uint256","internalType":"uint256"}],"stateMutability":"view"},{"type":"function","name":"decimals","inputs":[],"outputs":[{"name":"","type":"uint8","internalType":"uint8"}],"stateMutability":"view"},{"type":"function","name":"name","inputs":[],"outputs":[{"name":"","type":"string","internalType":"string"}],"stateMutability":"view"},{"type":"function","name":"reduce","inputs":[{"name":"from","type":"address","internalType":"address"},{"name":"amount","type":"uint256","internalType":"uint256"}],"outputs":[],"stateMutability":"nonpayable"},{"type":"function","name":"symbol","inputs":[],"outputs":[{"name":"","type":"string","internalType":"string"}],"stateMutability":"view"},{"type":"function","name":"totalSupply","inputs":[],"outputs":[{"name":"","type":"uint256","internalType":"uint256"}],"stateMutability":"view"},{"type":"function","name":"transfer","inputs":[{"name":"to","type":"address","internalType":"address"},{"name":"value","type":"uint256","internalType":"uint256"}],"outputs":[{"name":"","type":"bool","internalType":"bool"}],"stateMutability":"nonpayable"},{"type":"function","name":"transferFrom","inputs":[{"name":"from","type":"address","internalType":"address"},{"name":"to","type":"address","internalType":"address"},{"name":"value","type":"uint256","internalType":"uint256"}],"outputs":[{"name":"","type":"bool","internalType":"bool"}],"stateMutability":"nonpayable"},{"type":"event","name":"Approval","inputs":[{"name":"owner","type":"address","indexed":true,"internalType":"address"},{"name":"spender","type":"address","indexed":true,"internalType":"address"},{"name":"value","type":"uint256","indexed":false,"internalType":"uint256"}],"anonymous":false},{"type":"event","name":"Transfer","inputs":[{"name":"from","type":"address","indexed":true,"internalType":"address"},{"name":"to","type":"address","indexed":true,"internalType":"address"},{"name":"value","type":"uint256","indexed":false,"internalType":"uint256"}],"anonymous":false},{"type":"error","name":"ERC20InsufficientAllowance","inputs":[{"name":"spender","type":"address","internalType":"address"},{"name":"allowance","type":"uint256","internalType":"uint256"},{"name":"needed","type":"uint256","internalType":"uint256"}]},{"type":"error","name":"ERC20InsufficientBalance","inputs":[{"name":"sender","type":"address","internalType":"address"},{"name":"balance","type":"uint256","internalType":"uint256"},{"name":"needed","type":"uint256","internalType":"uint256"}]},{"type":"error","name":"ERC20InvalidApprover","inputs":[{"name":"approver","type":"address","internalType":"address"}]},{"type":"error","name":"ERC20InvalidReceiver","inputs":[{"name":"receiver","type":"address","internalType":"address"}]},{"type":"error","name":"ERC20InvalidSender","inputs":[{"name":"sender","type":"address","internalType":"address"}]},{"type":"error","name":"ERC20InvalidSpender","inputs":[{"name":"spender","type":"address","internalType":"address"}]}],"bytecode":{"object":"0x60806040523461043557610c436020813803918261001c81610439565b93849283398101031261043557516001600160a01b03811690819003610435576100466040610439565b906008825267151154d50b5554d160c21b60208301526100666040610439565b6004815263151554d160e21b602082015282519091906001600160401b03811161034657600354600181811c9116801561042b575b602082101461032857601f81116103c8575b506020601f821160011461036557819293945f9261035a575b50508160011b915f199060031b1c1916176003555b81516001600160401b03811161034657600454600181811c9116801561033c575b602082101461032857601f81116102c5575b50602092601f821160011461026457928192935f92610259575b50508160011b915f199060031b1c1916176004555b8015610246576002546c0c9f2c9cd04674edea40000000810180911161023257600255805f525f60205260405f206c0c9f2c9cd04674edea4000000081540190555f5f516020610c235f395f51905f5260206040516c0c9f2c9cd04674edea400000008152a360025469021e19e0c9bab240000081018091116102325760025573300b1b817f2431e345cde7b80229016f86ed59845f525f60205260405f2069021e19e0c9bab2400000815401905573300b1b817f2431e345cde7b80229016f86ed59845f5f516020610c235f395f51905f52602060405169021e19e0c9bab24000008152a36040516107c4908161045f8239f35b634e487b7160e01b5f52601160045260245ffd5b63ec442f0560e01b5f525f60045260245ffd5b015190505f80610128565b601f1982169360045f52805f20915f5b8681106102ad5750836001959610610295575b505050811b0160045561013d565b01515f1960f88460031b161c191690555f8080610287565b91926020600181928685015181550194019201610274565b60045f527f8a35acfbc15ff81a39ae7d344fd709f28e8600b4aa8c65c6b64bfe7fe36bd19b601f830160051c8101916020841061031e575b601f0160051c01905b818110610313575061010e565b5f8155600101610306565b90915081906102fd565b634e487b7160e01b5f52602260045260245ffd5b90607f16906100fc565b634e487b7160e01b5f52604160045260245ffd5b015190505f806100c6565b601f1982169060035f52805f20915f5b8181106103b057509583600195969710610398575b505050811b016003556100db565b01515f1960f88460031b161c191690555f808061038a565b9192602060018192868b015181550194019201610375565b60035f527fc2575a0e9e593c00f959f8c92f12db2869c3395a3b0502d05e2516446f71f85b601f830160051c81019160208410610421575b601f0160051c01905b81811061041657506100ad565b5f8155600101610409565b9091508190610400565b90607f169061009b565b5f80fd5b6040519190601f01601f191682016001600160401b038111838210176103465760405256fe6080806040526004361015610012575f80fd5b5f905f3560e01c90816306fdde03146104cc57508063095ea7b3146104245780631395e640146103aa57806318160ddd1461038c57806323b872dd146102aa578063313ce5671461028e57806351d977a61461025f57806370a082311461022757806395d89b411461011e578063a9059cbb146100ec5763dd62ed3e14610097575f80fd5b346100e95760403660031901126100e95760406100b26105e7565b916100bb6105fd565b9260018060a01b031681526001602052209060018060a01b03165f52602052602060405f2054604051908152f35b80fd5b50346100e95760403660031901126100e9576101136101096105e7565b602435903361073d565b602060405160018152f35b50346100e957806003193601126100e9576040519080600454908160011c9160018116801561021d575b602084108114610209578386529081156101e25750600114610185575b6101818461017581860382610613565b604051918291826105bd565b0390f35b600481527f8a35acfbc15ff81a39ae7d344fd709f28e8600b4aa8c65c6b64bfe7fe36bd19b939250905b8082106101c85750909150810160200161017582610165565b9192600181602092548385880101520191019092916101af565b60ff191660208087019190915292151560051b850190920192506101759150839050610165565b634e487b7160e01b83526022600452602483fd5b92607f1692610148565b50346100e95760203660031901126100e9576020906040906001600160a01b0361024f6105e7565b1681528083522054604051908152f35b50346100e957806003193601126100e957602060405173300b1b817f2431e345cde7b80229016f86ed59848152f35b50346100e957806003193601126100e957602060405160128152f35b50346100e95760603660031901126100e9576102c46105e7565b6102cc6105fd565b6001600160a01b038216808452600160209081526040808620335f908152925290205460443593915f198210610309575b5050610113935061073d565b84821061037157801561035d5733156103495785604091610113975260016020522060018060a01b0333165f526020528360405f20910390555f806102fd565b634a1406b160e11b86526004869052602486fd5b63e602df0560e01b86526004869052602486fd5b6064868684637dc7a0d960e11b835233600452602452604452fd5b50346100e957806003193601126100e9576020600254604051908152f35b5034610420576040366003190112610420576103c46105e7565b6103d16024353083610649565b6001600160a01b0316803b15610420575f809160046040518094819363fff6cae960e01b83525af1801561041557610407575080f35b61041391505f90610613565b005b6040513d5f823e3d90fd5b5f80fd5b346104205760403660031901126104205761043d6105e7565b6024359033156104b9576001600160a01b03169081156104a657335f52600160205260405f20825f526020528060405f20556040519081527f8c5be1e5ebec7d5bd14f71427d1e84f3dd0314c0f7b2291e5b200ac8c7c3b92560203392a3602060405160018152f35b634a1406b160e11b5f525f60045260245ffd5b63e602df0560e01b5f525f60045260245ffd5b34610420575f366003190112610420575f6003548060011c906001811680156105b3575b60208310811461059f5782855290811561057b575060011461051d575b6101818361017581850382610613565b91905060035f527fc2575a0e9e593c00f959f8c92f12db2869c3395a3b0502d05e2516446f71f85b915f905b8082106105615750909150810160200161017561050d565b919260018160209254838588010152019101909291610549565b60ff191660208086019190915291151560051b84019091019150610175905061050d565b634e487b7160e01b5f52602260045260245ffd5b91607f16916104f0565b602060409281835280519182918282860152018484015e5f828201840152601f01601f1916010190565b600435906001600160a01b038216820361042057565b602435906001600160a01b038216820361042057565b90601f8019910116810190811067ffffffffffffffff82111761063557604052565b634e487b7160e01b5f52604160045260245ffd5b6001600160a01b031690816106d8576002548381018091116106c4577fddf252ad1be2c89b69c2b068fc378daa952ba7f163c4a11628f55a4df523b3ef916020916002555b6001600160a01b031693846106af5780600254036002555b604051908152a3565b845f525f825260405f208181540190556106a6565b634e487b7160e01b5f52601160045260245ffd5b815f525f60205260405f2054838110610722577fddf252ad1be2c89b69c2b068fc378daa952ba7f163c4a11628f55a4df523b3ef9184602092855f525f84520360405f205561068e565b91905063391434e360e21b5f5260045260245260445260645ffd5b91906001600160a01b0383161561077b576001600160a01b038116156107685761076692610649565b565b63ec442f0560e01b5f525f60045260245ffd5b634b637e8f60e11b5f525f60045260245ffdfea2646970667358221220187ae21fe0022d4ddc7294393c454eba3ba09df3107bc27b7e6b5325408ac56964736f6c634300081e0033ddf252ad1be2c89b69c2b068fc378daa952ba7f163c4a11628f55a4df523b3ef","linkReferences":{}},"methodIdentifiers":{"TEST()":"51d977a6","allowance(address,address)":"dd62ed3e","approve(address,uint256)":"095ea7b3","balanceOf(address)":"70a08231","decimals()":"313ce567","name()":"06fdde03","reduce(address,uint256)":"1395e640","symbol()":"95d89b41","totalSupply()":"18160ddd","transfer(address,uint256)":"a9059cbb","transferFrom(address,address,uint256)":"23b872dd"},"id":75}