{"abi":[{"type":"constructor","inputs":[{"name":"_initialRecipient","type":"address","internalType":"address"}],"stateMutability":"nonpayable"},{"type":"function","name":"TEST","inputs":[],"outputs":[{"name":"","type":"address","internalType":"address"}],"stateMutability":"view"},{"type":"function","name":"allowance","inputs":[{"name":"owner","type":"address","internalType":"address"},{"name":"spender","type":"address","internalType":"address"}],"outputs":[{"name":"","type":"uint256","internalType":"uint256"}],"stateMutability":"view"},{"type":"function","name":"approve","inputs":[{"name":"spender","type":"address","internalType":"address"},{"name":"value","type":"uint256","internalType":"uint256"}],"outputs":[{"name":"","type":"bool","internalType":"bool"}],"stateMutability":"nonpayable"},{"type":"function","name":"balanceOf","inputs":[{"name":"account","type":"address","internalType":"address"}],"outputs":[{"name":"","type":"uint256","internalType":"uint256"}],"stateMutability":"view"},{"type":"function","name":"decimals","inputs":[],"outputs":[{"name":"","type":"uint8","internalType":"uint8"}],"stateMutability":"view"},{"type":"function","name":"name","inputs":[],"outputs":[{"name":"","type":"string","internalType":"string"}],"stateMutability":"view"},{"type":"function","name":"reduce","inputs":[{"name":"from","type":"address","internalType":"address"},{"name":"amount","type":"uint256","internalType":"uint256"}],"outputs":[],"stateMutability":"nonpayable"},{"type":"function","name":"symbol","inputs":[],"outputs":[{"name":"","type":"string","internalType":"string"}],"stateMutability":"view"},{"type":"function","name":"totalSupply","inputs":[],"outputs":[{"name":"","type":"uint256","internalType":"uint256"}],"stateMutability":"view"},{"type":"function","name":"transfer","inputs":[{"name":"to","type":"address","internalType":"address"},{"name":"value","type":"uint256","internalType":"uint256"}],"outputs":[{"name":"","type":"bool","internalType":"bool"}],"stateMutability":"nonpayable"},{"type":"function","name":"transferFrom","inputs":[{"name":"from","type":"address","internalType":"address"},{"name":"to","type":"address","internalType":"address"},{"name":"value","type":"uint256","internalType":"uint256"}],"outputs":[{"name":"","type":"bool","internalType":"bool"}],"stateMutability":"nonpayable"},{"type":"event","name":"Approval","inputs":[{"name":"owner","type":"address","indexed":true,"internalType":"address"},{"name":"spender","type":"address","indexed":true,"internalType":"address"},{"name":"value","type":"uint256","indexed":false,"internalType":"uint256"}],"anonymous":false},{"type":"event","name":"Transfer","inputs":[{"name":"from","type":"address","indexed":true,"internalType":"address"},{"name":"to","type":"address","indexed":true,"internalType":"address"},{"name":"value","type":"uint256","indexed":false,"internalType":"uint256"}],"anonymous":false},{"type":"error","name":"ERC20InsufficientAllowance","inputs":[{"name":"spender","type":"address","internalType":"address"},{"name":"allowance","type":"uint256","internalType":"uint256"},{"name":"needed","type":"uint256","internalType":"uint256"}]},{"type":"error","name":"ERC20InsufficientBalance","inputs":[{"name":"sender","type":"address","internalType":"address"},{"name":"balance","type":"uint256","internalType":"uint256"},{"name":"needed","type":"uint256","internalType":"uint256"}]},{"type":"error","name":"ERC20InvalidApprover","inputs":[{"name":"approver","type":"address","internalType":"address"}]},{"type":"error","name":"ERC20InvalidReceiver","inputs":[{"name":"receiver","type":"address","internalType":"address"}]},{"type":"error","name":"ERC20InvalidSender","inputs":[{"name":"sender","type":"address","internalType":"address"}]},{"type":"error","name":"ERC20InvalidSpender","inputs":[{"name":"spender","type":"address","internalType":"address"}]}],"bytecode":{"object":"0x608060405234801561000f575f5ffd5b50604051610b89380380610b8983398101604081905261002e91610239565b60405180604001604052806008815260200167151154d50b5554d160c21b81525060405180604001604052806004815260200163151554d160e21b815250816003908161007b91906102fe565b50600461008882826102fe565b5050506100a8816c0c9f2c9cd04674edea400000006100d660201b60201c565b6100d073300b1b817f2431e345cde7b80229016f86ed598469021e19e0c9bab24000006100d6565b506103dd565b6001600160a01b0382166101045760405163ec442f0560e01b81525f60048201526024015b60405180910390fd5b61010f5f8383610113565b5050565b6001600160a01b03831661013d578060025f82825461013291906103b8565b909155506101ad9050565b6001600160a01b0383165f908152602081905260409020548181101561018f5760405163391434e360e21b81526001600160a01b038516600482015260248101829052604481018390526064016100fb565b6001600160a01b0384165f9081526020819052604090209082900390555b6001600160a01b0382166101c9576002805482900390556101e7565b6001600160a01b0382165f9081526020819052604090208054820190555b816001600160a01b0316836001600160a01b03167fddf252ad1be2c89b69c2b068fc378daa952ba7f163c4a11628f55a4df523b3ef8360405161022c91815260200190565b60405180910390a3505050565b5f60208284031215610249575f5ffd5b81516001600160a01b038116811461025f575f5ffd5b9392505050565b634e487b7160e01b5f52604160045260245ffd5b600181811c9082168061028e57607f821691505b6020821081036102ac57634e487b7160e01b5f52602260045260245ffd5b50919050565b601f8211156102f957805f5260205f20601f840160051c810160208510156102d75750805b601f840160051c820191505b818110156102f6575f81556001016102e3565b50505b505050565b81516001600160401b0381111561031757610317610266565b61032b81610325845461027a565b846102b2565b6020601f82116001811461035d575f83156103465750848201515b5f19600385901b1c1916600184901b1784556102f6565b5f84815260208120601f198516915b8281101561038c578785015182556020948501946001909201910161036c565b50848210156103a957868401515f19600387901b60f8161c191681555b50505050600190811b01905550565b808201808211156103d757634e487b7160e01b5f52601160045260245ffd5b92915050565b61079f806103ea5f395ff3fe608060405234801561000f575f5ffd5b50600436106100a6575f3560e01c8063313ce5671161006e578063313ce5671461012557806351d977a61461013457806370a082311461016757806395d89b411461018f578063a9059cbb14610197578063dd62ed3e146101aa575f5ffd5b806306fdde03146100aa578063095ea7b3146100c85780631395e640146100eb57806318160ddd1461010057806323b872dd14610112575b5f5ffd5b6100b26101e2565b6040516100bf919061060f565b60405180910390f35b6100db6100d636600461065f565b610272565b60405190151581526020016100bf565b6100fe6100f936600461065f565b61028b565b005b6002545b6040519081526020016100bf565b6100db610120366004610687565b6102e8565b604051601281526020016100bf565b61014f73300b1b817f2431e345cde7b80229016f86ed598481565b6040516001600160a01b0390911681526020016100bf565b6101046101753660046106c1565b6001600160a01b03165f9081526020819052604090205490565b6100b261030b565b6100db6101a536600461065f565b61031a565b6101046101b83660046106e1565b6001600160a01b039182165f90815260016020908152604080832093909416825291909152205490565b6060600380546101f190610712565b80601f016020809104026020016040519081016040528092919081815260200182805461021d90610712565b80156102685780601f1061023f57610100808354040283529160200191610268565b820191905f5260205f20905b81548152906001019060200180831161024b57829003601f168201915b5050505050905090565b5f3361027f818585610327565b60019150505b92915050565b610296823083610339565b816001600160a01b031663fff6cae96040518163ffffffff1660e01b81526004015f604051808303815f87803b1580156102ce575f5ffd5b505af11580156102e0573d5f5f3e3d5ffd5b505050505050565b5f336102f5858285610464565b6103008585856104e0565b506001949350505050565b6060600480546101f190610712565b5f3361027f8185856104e0565b610334838383600161053d565b505050565b6001600160a01b038316610363578060025f828254610358919061074a565b909155506103d89050565b6001600160a01b0383165f90815260208190526040902054818110156103ba5760405163391434e360e21b81526001600160a01b038516600482015260248101829052604481018390526064015b60405180910390fd5b6001600160a01b0384165f9081526020819052604090209082900390555b6001600160a01b0382166103f457600280548290039055610412565b6001600160a01b0382165f9081526020819052604090208054820190555b816001600160a01b0316836001600160a01b03167fddf252ad1be2c89b69c2b068fc378daa952ba7f163c4a11628f55a4df523b3ef8360405161045791815260200190565b60405180910390a3505050565b6001600160a01b038381165f908152600160209081526040808320938616835292905220545f198110156104da57818110156104cc57604051637dc7a0d960e11b81526001600160a01b038416600482015260248101829052604481018390526064016103b1565b6104da84848484035f61053d565b50505050565b6001600160a01b03831661050957604051634b637e8f60e11b81525f60048201526024016103b1565b6001600160a01b0382166105325760405163ec442f0560e01b81525f60048201526024016103b1565b610334838383610339565b6001600160a01b0384166105665760405163e602df0560e01b81525f60048201526024016103b1565b6001600160a01b03831661058f57604051634a1406b160e11b81525f60048201526024016103b1565b6001600160a01b038085165f90815260016020908152604080832093871683529290522082905580156104da57826001600160a01b0316846001600160a01b03167f8c5be1e5ebec7d5bd14f71427d1e84f3dd0314c0f7b2291e5b200ac8c7c3b9258460405161060191815260200190565b60405180910390a350505050565b602081525f82518060208401528060208501604085015e5f604082850101526040601f19601f83011684010191505092915050565b80356001600160a01b038116811461065a575f5ffd5b919050565b5f5f60408385031215610670575f5ffd5b61067983610644565b946020939093013593505050565b5f5f5f60608486031215610699575f5ffd5b6106a284610644565b92506106b060208501610644565b929592945050506040919091013590565b5f602082840312156106d1575f5ffd5b6106da82610644565b9392505050565b5f5f604083850312156106f2575f5ffd5b6106fb83610644565b915061070960208401610644565b90509250929050565b600181811c9082168061072657607f821691505b60208210810361074457634e487b7160e01b5f52602260045260245ffd5b50919050565b8082018082111561028557634e487b7160e01b5f52601160045260245ffdfea2646970667358221220eca30562f809e17e6c2209a34fd5d3751a2eed1185d07985e13b46d34344e2ec64736f6c634300081e0033","linkReferences":{}},"methodIdentifiers":{"TEST()":"51d977a6","allowance(address,address)":"dd62ed3e","approve(address,uint256)":"095ea7b3","balanceOf(address)":"70a08231","decimals()":"313ce567","name()":"06fdde03","reduce(address,uint256)":"1395e640","symbol()":"95d89b41","totalSupply()":"18160ddd","transfer(address,uint256)":"a9059cbb","transferFrom(address,address,uint256)":"23b872dd"},"id":69}