{"abi":[{"type":"function","name":"DECIMALS","inputs":[],"outputs":[{"name":"","type":"uint256","internalType":"uint256"}],"stateMutability":"view"},{"type":"function","name":"UPGRADE_INTERFACE_VERSION","inputs":[],"outputs":[{"name":"","type":"string","internalType":"string"}],"stateMutability":"view"},{"type":"function","name":"USDT","inputs":[],"outputs":[{"name":"","type":"address","internalType":"address"}],"stateMutability":"view"},{"type":"function","name":"admin","inputs":[],"outputs":[{"name":"","type":"address","internalType":"address"}],"stateMutability":"view"},{"type":"function","name":"batchAdd","inputs":[{"name":"users","type":"address[]","internalType":"address[]"}],"outputs":[],"stateMutability":"nonpayable"},{"type":"function","name":"claim","inputs":[],"outputs":[],"stateMutability":"nonpayable"},{"type":"function","name":"emergencyWithdraw","inputs":[{"name":"token","type":"address","internalType":"address"},{"name":"amount","type":"uint256","internalType":"uint256"},{"name":"to","type":"address","internalType":"address"}],"outputs":[],"stateMutability":"nonpayable"},{"type":"function","name":"getProfitFeeAward","inputs":[{"name":"user","type":"address","internalType":"address"}],"outputs":[{"name":"","type":"uint256","internalType":"uint256"}],"stateMutability":"view"},{"type":"function","name":"getStakeFeeAward","inputs":[{"name":"user","type":"address","internalType":"address"}],"outputs":[{"name":"","type":"uint256","internalType":"uint256"}],"stateMutability":"view"},{"type":"function","name":"getTaxFeeAward","inputs":[{"name":"user","type":"address","internalType":"address"}],"outputs":[{"name":"","type":"uint256","internalType":"uint256"}],"stateMutability":"view"},{"type":"function","name":"getUserAward","inputs":[{"name":"user","type":"address","internalType":"address"}],"outputs":[{"name":"","type":"uint256","internalType":"uint256"}],"stateMutability":"view"},{"type":"function","name":"getUserStaking","inputs":[{"name":"user","type":"address","internalType":"address"}],"outputs":[{"name":"","type":"uint256","internalType":"uint256"}],"stateMutability":"view"},{"type":"function","name":"initialize","inputs":[{"name":"_lex","type":"address","internalType":"address"},{"name":"_leo","type":"address","internalType":"address"},{"name":"_nodeDividendsV1","type":"address","internalType":"address"},{"name":"_admin","type":"address","internalType":"address"},{"name":"_USDT","type":"address","internalType":"address"}],"outputs":[],"stateMutability":"nonpayable"},{"type":"function","name":"leo","inputs":[],"outputs":[{"name":"","type":"address","internalType":"address"}],"stateMutability":"view"},{"type":"function","name":"lex","inputs":[],"outputs":[{"name":"","type":"address","internalType":"address"}],"stateMutability":"view"},{"type":"function","name":"nodeDividendsV1","inputs":[],"outputs":[{"name":"","type":"address","internalType":"address"}],"stateMutability":"view"},{"type":"function","name":"owner","inputs":[],"outputs":[{"name":"","type":"address","internalType":"address"}],"stateMutability":"view"},{"type":"function","name":"perStakingAward","inputs":[{"name":"","type":"uint8","internalType":"enum Models.Source"}],"outputs":[{"name":"","type":"uint256","internalType":"uint256"}],"stateMutability":"view"},{"type":"function","name":"proxiableUUID","inputs":[],"outputs":[{"name":"","type":"bytes32","internalType":"bytes32"}],"stateMutability":"view"},{"type":"function","name":"renounceOwnership","inputs":[],"outputs":[],"stateMutability":"nonpayable"},{"type":"function","name":"setAddrConfig","inputs":[{"name":"_treasuryLiquidity","type":"address","internalType":"address"}],"outputs":[],"stateMutability":"nonpayable"},{"type":"function","name":"totalStaking","inputs":[],"outputs":[{"name":"","type":"uint256","internalType":"uint256"}],"stateMutability":"view"},{"type":"function","name":"transferOwnership","inputs":[{"name":"newOwner","type":"address","internalType":"address"}],"outputs":[],"stateMutability":"nonpayable"},{"type":"function","name":"treasuryLiquidity","inputs":[],"outputs":[{"name":"","type":"address","internalType":"address"}],"stateMutability":"view"},{"type":"function","name":"updateFarm","inputs":[{"name":"source","type":"uint8","internalType":"enum Models.Source"},{"name":"amount","type":"uint256","internalType":"uint256"}],"outputs":[],"stateMutability":"nonpayable"},{"type":"function","name":"upgradeToAndCall","inputs":[{"name":"newImplementation","type":"address","internalType":"address"},{"name":"data","type":"bytes","internalType":"bytes"}],"outputs":[],"stateMutability":"payable"},{"type":"function","name":"userInfo","inputs":[{"name":"","type":"address","internalType":"address"}],"outputs":[{"name":"nodeType","type":"uint8","internalType":"enum Models.NodeType"},{"name":"stakingAmount","type":"uint256","internalType":"uint256"},{"name":"taxExtracted","type":"uint128","internalType":"uint128"},{"name":"profitExtracted","type":"uint128","internalType":"uint128"},{"name":"stakeExtracted","type":"uint128","internalType":"uint128"},{"name":"extracted","type":"uint128","internalType":"uint128"},{"name":"debtTax","type":"uint128","internalType":"uint128"},{"name":"debtProfit","type":"uint128","internalType":"uint128"},{"name":"debtStake","type":"uint128","internalType":"uint128"},{"name":"isOut","type":"bool","internalType":"bool"}],"stateMutability":"view"},{"type":"event","name":"Initialized","inputs":[{"name":"version","type":"uint64","indexed":false,"internalType":"uint64"}],"anonymous":false},{"type":"event","name":"OwnershipTransferred","inputs":[{"name":"previousOwner","type":"address","indexed":true,"internalType":"address"},{"name":"newOwner","type":"address","indexed":true,"internalType":"address"}],"anonymous":false},{"type":"event","name":"Upgraded","inputs":[{"name":"implementation","type":"address","indexed":true,"internalType":"address"}],"anonymous":false},{"type":"error","name":"AddressEmptyCode","inputs":[{"name":"target","type":"address","internalType":"address"}]},{"type":"error","name":"ERC1967InvalidImplementation","inputs":[{"name":"implementation","type":"address","internalType":"address"}]},{"type":"error","name":"ERC1967NonPayable","inputs":[]},{"type":"error","name":"FailedCall","inputs":[]},{"type":"error","name":"InvalidInitialization","inputs":[]},{"type":"error","name":"NotInitializing","inputs":[]},{"type":"error","name":"OwnableInvalidOwner","inputs":[{"name":"owner","type":"address","internalType":"address"}]},{"type":"error","name":"OwnableUnauthorizedAccount","inputs":[{"name":"account","type":"address","internalType":"address"}]},{"type":"error","name":"UUPSUnauthorizedCallContext","inputs":[]},{"type":"error","name":"UUPSUnsupportedProxiableUUID","inputs":[{"name":"slot","type":"bytes32","internalType":"bytes32"}]}],"bytecode":{"object":"0x60a0806040523460295730608052611769908161002e823960805181818161073e015261080a0152f35b5f80fdfe60806040526004361015610011575f80fd5b5f3560e01c806235192514610f3657806309fb669814610f0e5780630c0fd54914610ed45780631459457a14610cce578063165defa414610cb15780631959a00214610be85780632e0f262514610bc85780633e4ff6f214610ba557806342728ffd14610b7d5780634e71d92d146109865780634f1ef2861461079257806352d1902d1461072c578063551512de146106ea57806355618c311461044c5780635812555714610410578063715018a6146103a95780637d0a151814610381578063810401501461033e5780638da5cb5b1461030a5780639f45a7ea146102e2578063ad3cb1cc14610284578063afaf46b81461020e578063b4fa8278146101eb578063bde9c318146101c0578063c54e44eb14610198578063f2fde38b1461016d5763f851a44014610141575f80fd5b34610169575f366003190112610169576004546040516001600160a01b039091168152602090f35b5f80fd5b3461016957602036600319011261016957610196610189610f59565b6101916115af565b6112fa565b005b34610169575f366003190112610169576005546040516001600160a01b039091168152602090f35b346101695760203660031901126101695760206101e36101de610f59565b611288565b604051908152f35b346101695760203660031901126101695760206101e3610209610f59565b61121c565b34610169576040366003190112610169576004356004811015610169576101969060018060a01b036001541633148015610270575b801561025c575b61025390611156565b602435906111ca565b506002546001600160a01b0316331461024a565b506003546001600160a01b03163314610243565b34610169575f3660031901126101695760408051906102a38183610fa3565b600582526020820191640352e302e360dc1b83528151928391602083525180918160208501528484015e5f828201840152601f01601f19168101030190f35b34610169575f366003190112610169576006546040516001600160a01b039091168152602090f35b34610169575f366003190112610169575f5160206116d45f395f51905f52546040516001600160a01b039091168152602090f35b3461016957602036600319011261016957610357610f59565b61035f6115af565b600380546001600160a01b0319166001600160a01b0392909216919091179055005b34610169575f366003190112610169576001546040516001600160a01b039091168152602090f35b34610169575f366003190112610169576103c16115af565b5f5160206116d45f395f51905f5280546001600160a01b031981169091555f906001600160a01b03167f8be0079c531659141344cd1fd0a4f28419497f9722a3daafe3b4186f6b6457e08280a3005b346101695760203660031901126101695760043560048110156101695761043681610f85565b5f526007602052602060405f2054604051908152f35b346101695760203660031901126101695760043567ffffffffffffffff811161016957366023820112156101695780600401359067ffffffffffffffff82116106d6578160051b90604051926104a56020840185610fa3565b8352602460208401928201019036821161016957602401915b8183106106b657836104ce6115af565b5f5b8151811015610196576001600160a01b036104eb828461118f565b51165f525f60205260405f20906001820180541561050f575b5060019150016104d0565b6006546001600160a01b03908116919060609061052c858861118f565b51166024604051809581936359d241b360e11b835260048301525afa9182156106ab575f905f93610650575b50938261064793928661056c600198610f85565b60ff8019855416911617835555845f5260076020526106016001600160801b036509184e72a0006105a160405f2054866111b7565b04166001600160801b036004840191166001600160801b031982541617815560025f5260076020526001600160801b036509184e72a0006105e660405f2054876111b7565b04166001600160801b0382549181199060801b169116179055565b60035f5260076020526001600160801b036005816509184e72a00061062a60405f2054876111b7565b0416920191166001600160801b0319825416179055600854610fe1565b60085583610504565b9250506060823d82116106a3575b8161066b60609383610fa3565b810103126101695781516001600160a01b03811603610169576020820151936004851015610169576040929092015191936001610558565b3d915061065e565b6040513d5f823e3d90fd5b82356001600160a01b0381168103610169578152602092830192016104be565b634e487b7160e01b5f52604160045260245ffd5b3461016957606036600319011261016957610196610706610f59565b61070e610f6f565b61072360018060a01b03600454163314611156565b602435916114b7565b34610169575f366003190112610169577f00000000000000000000000000000000000000000000000000000000000000006001600160a01b031630036107835760206040515f5160206116f45f395f51905f528152f35b63703e46dd60e11b5f5260045ffd5b6040366003190112610169576107a6610f59565b6024359067ffffffffffffffff821161016957366023830112156101695781600401356107d281610fc5565b926107e06040519485610fa3565b818452366024838301011161016957815f9260246020930183870137840101526001600160a01b037f000000000000000000000000000000000000000000000000000000000000000016308114908115610964575b50610783576108426115af565b6040516352d1902d60e01b81526001600160a01b0382169290602081600481875afa5f9181610930575b506108845783634c9c8ce360e01b5f5260045260245ffd5b805f5160206116f45f395f51905f5285920361091e5750823b1561090c575f5160206116f45f395f51905f5280546001600160a01b031916821790557fbc7cd75a20ee27fd9adebab32041f755214dbc6bffa90cc0225b39da2e5c2d3b5f80a28051156108f45761019691611647565b5050346108fd57005b63b398979f60e01b5f5260045ffd5b634c9c8ce360e01b5f5260045260245ffd5b632a87526960e21b5f5260045260245ffd5b9091506020813d60201161095c575b8161094c60209383610fa3565b810103126101695751908561086c565b3d915061093f565b5f5160206116f45f395f51905f52546001600160a01b03161415905083610835565b34610169575f36600319011261016957335f525f60205260405f20600181015415610b4e576005810160ff815460801c16610b23576109c43361100f565b906109ce3361121c565b926109d833611288565b926109ec846109e78784610fe1565b610fe1565b938415610af257610a51610ac092610a316001600160801b036101969981610a1d8160028b01961682875416611136565b16821985541617845516825460801c611136565b81546001600160801b031660809190911b6001600160801b031916179055565b6001600160801b03610a6c8160038601931682845416611136565b166001600160801b0319825416178155610ab6610a966001600160801b038716835460801c611136565b82546001600160801b031660809190911b6001600160801b031916178255565b5460801c9161148e565b1115610adb575b5060055433906001600160a01b03166114b7565b805460ff60801b1916600160801b17905582610ac7565b60405162461bcd60e51b81526020600482015260096024820152681393d7d49155d0549160ba1b6044820152606490fd5b60405162461bcd60e51b815260206004820152600360248201526213d55560ea1b6044820152606490fd5b60405162461bcd60e51b81526020600482015260076024820152664e4f5f4e4f444560c81b6044820152606490fd5b34610169575f366003190112610169576002546040516001600160a01b039091168152602090f35b346101695760203660031901126101695760206101e3610bc3610f59565b6110ba565b34610169575f3660031901126101695760206040516509184e72a0008152f35b34610169576020366003190112610169576001600160a01b03610c09610f59565b165f525f60205261014060405f2060ff80825416916001810154906002810154600382015490600560048401549301549360405196610c4781610f85565b875260208701526001600160801b038116604087015260801c60608601526001600160801b038116608086015260801c60a08501526001600160801b03811660c085015260801c60e08401526001600160801b03811661010084015260801c161515610120820152f35b34610169575f366003190112610169576020600854604051908152f35b346101695760a036600319011261016957610ce7610f59565b6024356001600160a01b0381169081900361016957610d04610f6f565b6064356001600160a01b0381169190829003610169576084356001600160a01b0381169390849003610169575f5160206117145f395f51905f52549460ff8660401c16159567ffffffffffffffff811680159081610ecc575b6001149081610ec2575b159081610eb9575b50610eaa5767ffffffffffffffff1981166001175f5160206117145f395f51905f525586610e7e575b50610da16115e2565b610da96115e2565b610db2336112fa565b60018060a01b03166001600160601b0360a01b60015416176001556001600160601b0360a01b600254161760025560018060a01b03166001600160601b0360a01b60065416176006556001600160601b0360a01b60045416176004556001600160601b0360a01b6005541617600555610e2757005b68ff0000000000000000195f5160206117145f395f51905f5254165f5160206117145f395f51905f52557fc7f505b2f371ae2175ee4913f4499e1f2633a7b5936321eed1cdaeb6115181d2602060405160018152a1005b68ffffffffffffffffff191668010000000000000001175f5160206117145f395f51905f525586610d98565b63f92ee8a960e01b5f5260045ffd5b90501588610d6f565b303b159150610d67565b889150610d5d565b34610169576020366003190112610169576001600160a01b03610ef5610f59565b165f525f6020526020600160405f200154604051908152f35b34610169575f366003190112610169576003546040516001600160a01b039091168152602090f35b346101695760203660031901126101695760206101e3610f54610f59565b61100f565b600435906001600160a01b038216820361016957565b604435906001600160a01b038216820361016957565b60041115610f8f57565b634e487b7160e01b5f52602160045260245ffd5b90601f8019910116810190811067ffffffffffffffff8211176106d657604052565b67ffffffffffffffff81116106d657601f01601f191660200190565b91908201809211610fee57565b634e487b7160e01b5f52601160045260245ffd5b91908203918211610fee57565b6001600160a01b03165f9081526020819052604090206001810154801580156110a9575b6110a35760015f52600760205261107661107060405f2054926001600160801b036004860154166001600160801b0360028701541694859261136b565b926113a8565b90816110828483610fe1565b1161108c57505090565b909150808211156110a3576110a091611002565b90565b50505f90565b5060ff600583015460801c16611033565b60018060a01b0381165f525f60205260405f20906001820154158015611125575b6110a357806109e76110ef6111089361100f565b916111026110fc8261121c565b91611288565b92610fe1565b9060036111148261148e565b91015460801c816110828483610fe1565b5060ff600583015460801c166110db565b906001600160801b03809116911601906001600160801b038211610fee57565b1561115d57565b60405162461bcd60e51b815260206004820152600a6024820152691393d517d4115493525560b21b6044820152606490fd5b80518210156111a35760209160051b010190565b634e487b7160e01b5f52603260045260245ffd5b81810292918115918404141715610fee57565b90600854908115611217576509184e72a0008102908082046509184e72a0001490151715610fee5704906111fd81610f85565b5f52600760205261121360405f20918254610fe1565b9055565b505050565b6001600160a01b03165f908152602081905260409020600181015480158015611277575b6110a35760025f52600760205261107661127160405f205492600485015460801c600286015460801c94859261136b565b92611426565b5060ff600583015460801c16611240565b6001600160a01b03165f9081526020819052604090206001810154801580156112e9575b6110a35760035f52600760205261107661107060405f2054926001600160801b036005860154166001600160801b0360038701541694859261136b565b5060ff600583015460801c166112ac565b6001600160a01b03168015611358575f5160206116d45f395f51905f5280546001600160a01b0319811683179091556001600160a01b03167f8be0079c531659141344cd1fd0a4f28419497f9722a3daafe3b4186f6b6457e05f80a3565b631e4fbdf760e01b5f525f60045260245ffd5b6509184e72a0009161137c916111b7565b0490808211156113a15761138f91611002565b90808211156110a3576110a091611002565b5050505f90565b60ff8154166113b681610f85565b6001811461141e576113c781610f85565b600281146113ff576003906113db81610f85565b146113e557505f90565b600101548060011b9080820460021490151715610fee5790565b5060010154600f810290808204600f1490151715610fee57600a900490565b506001015490565b60ff8154169061143582610f85565b600182146114855761144682610f85565b60028214611469575060039061145b81610f85565b14611464575f90565b5f1990565b6001915001548060011b9080820460021490151715610fee5790565b60019150015490565b61149b60ff82541661160d565b5f1981146114b05760016110a09201546111b7565b50505f1990565b5f929183809360405190602082019363a9059cbb60e01b855260018060a01b031660248301526044820152604481526114f1606482610fa3565b51925af13d156115a8573d61150581610fc5565b906115136040519283610fa3565b81523d5f602083013e5b81611570575b501561152b57565b60405162461bcd60e51b815260206004820152601f60248201527f5472616e7366657248656c7065723a205452414e534645525f4641494c4544006044820152606490fd5b8051801592508215611585575b50505f611523565b819250906020918101031261016957602001518015158103610169575f8061157d565b606061151d565b5f5160206116d45f395f51905f52546001600160a01b031633036115cf57565b63118cdaa760e01b5f523360045260245ffd5b60ff5f5160206117145f395f51905f525460401c16156115fe57565b631afcd79f60e31b5f5260045ffd5b61161681610f85565b600181146116415761162781610f85565b6002811461163b5760039061145b81610f85565b50600590565b50600390565b905f8091602081519101845af480806116c0575b1561167b5750506040513d81523d5f602083013e60203d82010160405290565b156116a057639996b31560e01b5f9081526001600160a01b0391909116600452602490fd5b3d156116b1576040513d5f823e3d90fd5b63d6bda27560e01b5f5260045ffd5b503d15158061165b5750813b151561165b56fe9016d09d72d40fdae2fd8ceac6b6234c7706214fd39c1cd1e609a0528c199300360894a13ba1a3210667c828492db98dca3e2076cc3735a920a3ca505d382bbcf0c57e16840df040f15088dc2f81fe391c3923bec73e23a9662efc9c229c6a00a2646970667358221220eb6e9a541aed435e122cfb09ff169757cffa264f04d2098675570cb6006b0a5164736f6c634300081e0033","linkReferences":{}},"methodIdentifiers":{"DECIMALS()":"2e0f2625","UPGRADE_INTERFACE_VERSION()":"ad3cb1cc","USDT()":"c54e44eb","admin()":"f851a440","batchAdd(address[])":"55618c31","claim()":"4e71d92d","emergencyWithdraw(address,uint256,address)":"551512de","getProfitFeeAward(address)":"b4fa8278","getStakeFeeAward(address)":"bde9c318","getTaxFeeAward(address)":"00351925","getUserAward(address)":"3e4ff6f2","getUserStaking(address)":"0c0fd549","initialize(address,address,address,address,address)":"1459457a","leo()":"42728ffd","lex()":"7d0a1518","nodeDividendsV1()":"9f45a7ea","owner()":"8da5cb5b","perStakingAward(uint8)":"58125557","proxiableUUID()":"52d1902d","renounceOwnership()":"715018a6","setAddrConfig(address)":"81040150","totalStaking()":"165defa4","transferOwnership(address)":"f2fde38b","treasuryLiquidity()":"09fb6698","updateFarm(uint8,uint256)":"afaf46b8","upgradeToAndCall(address,bytes)":"4f1ef286","userInfo(address)":"1959a002"},"id":41}