{"abi":[{"type":"function","name":"UPGRADE_INTERFACE_VERSION","inputs":[],"outputs":[{"name":"","type":"string","internalType":"string"}],"stateMutability":"view"},{"type":"function","name":"USDT","inputs":[],"outputs":[{"name":"","type":"address","internalType":"address"}],"stateMutability":"view"},{"type":"function","name":"admin","inputs":[],"outputs":[{"name":"","type":"address","internalType":"address"}],"stateMutability":"view"},{"type":"function","name":"batchAdd","inputs":[{"name":"users","type":"address[]","internalType":"address[]"}],"outputs":[],"stateMutability":"nonpayable"},{"type":"function","name":"claim","inputs":[],"outputs":[],"stateMutability":"nonpayable"},{"type":"function","name":"decimals","inputs":[],"outputs":[{"name":"","type":"uint256","internalType":"uint256"}],"stateMutability":"view"},{"type":"function","name":"emergencyWithdraw","inputs":[{"name":"token","type":"address","internalType":"address"},{"name":"amount","type":"uint256","internalType":"uint256"},{"name":"to","type":"address","internalType":"address"}],"outputs":[],"stateMutability":"nonpayable"},{"type":"function","name":"getProfitFeeAward","inputs":[{"name":"user","type":"address","internalType":"address"}],"outputs":[{"name":"","type":"uint256","internalType":"uint256"}],"stateMutability":"view"},{"type":"function","name":"getStakeFeeAward","inputs":[{"name":"user","type":"address","internalType":"address"}],"outputs":[{"name":"","type":"uint256","internalType":"uint256"}],"stateMutability":"view"},{"type":"function","name":"getTaxFeeAward","inputs":[{"name":"user","type":"address","internalType":"address"}],"outputs":[{"name":"","type":"uint256","internalType":"uint256"}],"stateMutability":"view"},{"type":"function","name":"getUserAward","inputs":[{"name":"user","type":"address","internalType":"address"}],"outputs":[{"name":"","type":"uint256","internalType":"uint256"}],"stateMutability":"view"},{"type":"function","name":"initialize","inputs":[{"name":"_lex","type":"address","internalType":"address"},{"name":"_nodeDividendsV1","type":"address","internalType":"address"},{"name":"_admin","type":"address","internalType":"address"},{"name":"_USDT","type":"address","internalType":"address"}],"outputs":[],"stateMutability":"nonpayable"},{"type":"function","name":"lex","inputs":[],"outputs":[{"name":"","type":"address","internalType":"address"}],"stateMutability":"view"},{"type":"function","name":"nodeDividendsV1","inputs":[],"outputs":[{"name":"","type":"address","internalType":"address"}],"stateMutability":"view"},{"type":"function","name":"owner","inputs":[],"outputs":[{"name":"","type":"address","internalType":"address"}],"stateMutability":"view"},{"type":"function","name":"perStakingAward","inputs":[{"name":"","type":"uint8","internalType":"enum Models.Source"}],"outputs":[{"name":"","type":"uint256","internalType":"uint256"}],"stateMutability":"view"},{"type":"function","name":"proxiableUUID","inputs":[],"outputs":[{"name":"","type":"bytes32","internalType":"bytes32"}],"stateMutability":"view"},{"type":"function","name":"renounceOwnership","inputs":[],"outputs":[],"stateMutability":"nonpayable"},{"type":"function","name":"setTreasuryAddr","inputs":[{"name":"_treasury","type":"address","internalType":"address"}],"outputs":[],"stateMutability":"nonpayable"},{"type":"function","name":"totalStaking","inputs":[],"outputs":[{"name":"","type":"uint256","internalType":"uint256"}],"stateMutability":"view"},{"type":"function","name":"transferOwnership","inputs":[{"name":"newOwner","type":"address","internalType":"address"}],"outputs":[],"stateMutability":"nonpayable"},{"type":"function","name":"treasury","inputs":[],"outputs":[{"name":"","type":"address","internalType":"address"}],"stateMutability":"view"},{"type":"function","name":"updateFarm","inputs":[{"name":"source","type":"uint8","internalType":"enum Models.Source"},{"name":"amount","type":"uint256","internalType":"uint256"}],"outputs":[],"stateMutability":"nonpayable"},{"type":"function","name":"upgradeToAndCall","inputs":[{"name":"newImplementation","type":"address","internalType":"address"},{"name":"data","type":"bytes","internalType":"bytes"}],"outputs":[],"stateMutability":"payable"},{"type":"function","name":"userInfo","inputs":[{"name":"","type":"address","internalType":"address"}],"outputs":[{"name":"nodeType","type":"uint8","internalType":"enum Models.NodeType"},{"name":"stakingAmount","type":"uint256","internalType":"uint256"},{"name":"extracted","type":"uint256","internalType":"uint256"},{"name":"debt","type":"uint256","internalType":"uint256"},{"name":"isOut","type":"bool","internalType":"bool"}],"stateMutability":"view"},{"type":"event","name":"Initialized","inputs":[{"name":"version","type":"uint64","indexed":false,"internalType":"uint64"}],"anonymous":false},{"type":"event","name":"OwnershipTransferred","inputs":[{"name":"previousOwner","type":"address","indexed":true,"internalType":"address"},{"name":"newOwner","type":"address","indexed":true,"internalType":"address"}],"anonymous":false},{"type":"event","name":"Upgraded","inputs":[{"name":"implementation","type":"address","indexed":true,"internalType":"address"}],"anonymous":false},{"type":"error","name":"AddressEmptyCode","inputs":[{"name":"target","type":"address","internalType":"address"}]},{"type":"error","name":"ERC1967InvalidImplementation","inputs":[{"name":"implementation","type":"address","internalType":"address"}]},{"type":"error","name":"ERC1967NonPayable","inputs":[]},{"type":"error","name":"FailedCall","inputs":[]},{"type":"error","name":"InvalidInitialization","inputs":[]},{"type":"error","name":"NotInitializing","inputs":[]},{"type":"error","name":"OwnableInvalidOwner","inputs":[{"name":"owner","type":"address","internalType":"address"}]},{"type":"error","name":"OwnableUnauthorizedAccount","inputs":[{"name":"account","type":"address","internalType":"address"}]},{"type":"error","name":"UUPSUnauthorizedCallContext","inputs":[]},{"type":"error","name":"UUPSUnsupportedProxiableUUID","inputs":[{"name":"slot","type":"bytes32","internalType":"bytes32"}]}],"bytecode":{"object":"0x60a0604052306080526509184e72a000600755348015601c575f5ffd5b506080516119766100435f395f8181610fc301528181610fec015261112b01526119765ff3fe608060405260043610610160575f3560e01c8063715018a6116100cd578063afaf46b811610087578063c54e44eb11610062578063c54e44eb14610461578063f2fde38b14610480578063f851a4401461049f578063f8c8765e146104be575f5ffd5b8063afaf46b814610404578063b4fa827814610423578063bde9c31814610442575f5ffd5b8063715018a61461031a5780637d0a15181461032e5780638da5cb5b1461034d5780639f45a7ea14610389578063a7e05b9c146103a8578063ad3cb1cc146103c7575f5ffd5b80634f1ef2861161011e5780634f1ef2861461025357806352d1902d14610266578063551512de1461027a57806355618c311461029957806358125557146102b857806361d027b3146102e3575f5ffd5b806235192514610164578063165defa4146101965780631959a002146101ab578063313ce567146102095780633e4ff6f21461021e5780634e71d92d1461023d575b5f5ffd5b34801561016f575f5ffd5b5061018361017e3660046114e0565b6104dd565b6040519081526020015b60405180910390f35b3480156101a1575f5ffd5b5061018360085481565b3480156101b6575f5ffd5b506101f86101c53660046114e0565b5f602081905290815260409020805460018201546002830154600384015460049094015460ff9384169492939192911685565b60405161018d95949392919061150f565b348015610214575f5ffd5b5061018360075481565b348015610229575f5ffd5b506101836102383660046114e0565b6105fa565b348015610248575f5ffd5b5061025161070a565b005b610251610261366004611597565b61083e565b348015610271575f5ffd5b5061018361085d565b348015610285575f5ffd5b5061025161029436600461163e565b610878565b3480156102a4575f5ffd5b506102516102b336600461167d565b6108cb565b3480156102c3575f5ffd5b506101836102d236600461173d565b60066020525f908152604090205481565b3480156102ee575f5ffd5b50600354610302906001600160a01b031681565b6040516001600160a01b03909116815260200161018d565b348015610325575f5ffd5b50610251610abf565b348015610339575f5ffd5b50600254610302906001600160a01b031681565b348015610358575f5ffd5b507f9016d09d72d40fdae2fd8ceac6b6234c7706214fd39c1cd1e609a0528c199300546001600160a01b0316610302565b348015610394575f5ffd5b50600154610302906001600160a01b031681565b3480156103b3575f5ffd5b506102516103c23660046114e0565b610ad2565b3480156103d2575f5ffd5b506103f7604051806040016040528060058152602001640352e302e360dc1b81525081565b60405161018d9190611758565b34801561040f575f5ffd5b5061025161041e36600461178d565b610afc565b34801561042e575f5ffd5b5061018361043d3660046114e0565b610bc5565b34801561044d575f5ffd5b5061018361045c3660046114e0565b610c91565b34801561046c575f5ffd5b50600554610302906001600160a01b031681565b34801561048b575f5ffd5b5061025161049a3660046114e0565b610cca565b3480156104aa575f5ffd5b50600454610302906001600160a01b031681565b3480156104c9575f5ffd5b506102516104d83660046117b7565b610d07565b6001600160a01b0381165f9081526020819052604081206001810154820361050757505f92915050565b6007545f9060068260015b6003811115610523576105236114fb565b81526020019081526020015f205483600101546105409190611824565b61054a919061183b565b90505f6001835460ff166003811115610565576105656114fb565b03610575575060018201546105e7565b6002835460ff16600381111561058d5761058d6114fb565b036105b657600a8360010154600f6105a59190611824565b6105af919061183b565b90506105e7565b60035b835460ff1660038111156105cf576105cf6114fb565b036105e75760018301546105e4906002611824565b90505b6105f18282610e4d565b95945050505050565b6001600160a01b0381165f908152602081905260408120600181015415806106265750600481015460ff165b1561063357505f92915050565b5f61063d84610c91565b61064685610bc5565b61064f866104dd565b610659919061185a565b610663919061185a565b90508160030154811161067957505f9392505050565b5f82600301548261068a919061186d565b9050826002015481116106a157505f949350505050565b5f8360020154826106b2919061186d565b90505f6106be85610e66565b90505f19811461070057808560020154106106df57505f9695505050505050565b5f8560020154826106f0919061186d565b9050808311156106fe578092505b505b5095945050505050565b335f90815260208190526040902060018101546107585760405162461bcd60e51b81526020600482015260076024820152664e4f5f4e4f444560c81b60448201526064015b60405180910390fd5b600481015460ff16156107935760405162461bcd60e51b815260206004820152600360248201526213d55560ea1b604482015260640161074f565b5f61079d336105fa565b90505f81116107da5760405162461bcd60e51b81526020600482015260096024820152681393d7d49155d0549160ba1b604482015260640161074f565b80826002015f8282546107ed919061185a565b909155505f90506107fd83610e66565b90505f19811461082257808360020154106108225760048301805460ff191660011790555b600554610839906001600160a01b03163384610ea2565b505050565b610846610fb8565b61084f8261105c565b6108598282611064565b5050565b5f610866611120565b505f5160206119215f395f51905f5290565b6004546001600160a01b031633146108c05760405162461bcd60e51b815260206004820152600b60248201526a2727aa2fa822a926a4aa1760a91b604482015260640161074f565b610839838284610ea2565b6108d3611169565b5f5b8151811015610859575f5f5f8484815181106108f3576108f3611880565b60200260200101516001600160a01b03166001600160a01b031681526020019081526020015f20905080600101545f03610ab65760015483515f9182916001600160a01b039091169063b3a483669087908790811061095457610954611880565b60200260200101516040518263ffffffff1660e01b815260040161098791906001600160a01b0391909116815260200190565b606060405180830381865afa1580156109a2573d5f5f3e3d5ffd5b505050506040513d601f19601f820116820180604052508101906109c69190611894565b85549194509250839150849060ff191660018360038111156109ea576109ea6114fb565b0217905550600183810182905560066020527f75f96ab15d697e93042dc45b5c896c4b27e89bb6eaf39475c5c371cb2513f7d2547f8819ef417987f8ae7a81f42cdfb18815282fe989326fbff903d13cf0e03ace29545f9283527f3e5fec24aa4dc4e5aee2e025e51e1392c72a2500577559fae9665c6d52bd6a3154610a70919061185a565b610a7a919061185a565b600754909150610a8a8284611824565b610a94919061183b565b84600301819055508160085f828254610aad919061185a565b90915550505050505b506001016108d5565b610ac7611169565b610ad05f6111c4565b565b610ada611169565b600380546001600160a01b0319166001600160a01b0392909216919091179055565b6002546001600160a01b0316331480610b1f57506003546001600160a01b031633145b610b595760405162461bcd60e51b815260206004820152600b60248201526a2727aa2fa822a926a4aa1760a91b604482015260640161074f565b6008541561085957600854600754610b719083611824565b610b7b919061183b565b60065f846003811115610b9057610b906114fb565b6003811115610ba157610ba16114fb565b81526020019081526020015f205f828254610bbc919061185a565b90915550505050565b6001600160a01b0381165f90815260208190526040812060018101548203610bef57505f92915050565b60075460025f90815260066020527f8819ef417987f8ae7a81f42cdfb18815282fe989326fbff903d13cf0e03ace29546001840154919291610c319190611824565b610c3b919061183b565b90506003825460ff166003811115610c5557610c556114fb565b03610c61579392505050565b5f6001835460ff166003811115610c7a57610c7a6114fb565b03610c8a575060018201546105e7565b60026105b9565b6001600160a01b0381165f90815260208190526040812060018101548203610cbb57505f92915050565b6007545f906006826003610512565b610cd2611169565b6001600160a01b038116610cfb57604051631e4fbdf760e01b81525f600482015260240161074f565b610d04816111c4565b50565b5f610d10611234565b805490915060ff600160401b820416159067ffffffffffffffff165f81158015610d375750825b90505f8267ffffffffffffffff166001148015610d535750303b155b905081158015610d61575080155b15610d7f5760405163f92ee8a960e01b815260040160405180910390fd5b845467ffffffffffffffff191660011785558315610da957845460ff60401b1916600160401b1785555b610db23361125c565b600280546001600160a01b03808c166001600160a01b031992831617909255600180548b8416908316179055600480548a841690831617905560058054928916929091169190911790558315610e4257845460ff60401b19168555604051600181527fc7f505b2f371ae2175ee4913f4499e1f2633a7b5936321eed1cdaeb6115181d29060200160405180910390a15b505050505050505050565b5f81831115610e5d575080610e60565b50815b92915050565b80545f908190610e789060ff1661126d565b90505f198103610e8b57505f1992915050565b808360010154610e9b9190611824565b9392505050565b604080516001600160a01b038481166024830152604480830185905283518084039091018152606490920183526020820180516001600160e01b031663a9059cbb60e01b17905291515f92839290871691610efd91906118d4565b5f604051808303815f865af19150503d805f8114610f36576040519150601f19603f3d011682016040523d82523d5f602084013e610f3b565b606091505b5091509150818015610f65575080511580610f65575080806020019051810190610f6591906118ea565b610fb15760405162461bcd60e51b815260206004820152601f60248201527f5472616e7366657248656c7065723a205452414e534645525f4641494c454400604482015260640161074f565b5050505050565b306001600160a01b037f000000000000000000000000000000000000000000000000000000000000000016148061103e57507f00000000000000000000000000000000000000000000000000000000000000006001600160a01b03166110325f5160206119215f395f51905f52546001600160a01b031690565b6001600160a01b031614155b15610ad05760405163703e46dd60e11b815260040160405180910390fd5b610d04611169565b816001600160a01b03166352d1902d6040518163ffffffff1660e01b8152600401602060405180830381865afa9250505080156110be575060408051601f3d908101601f191682019092526110bb91810190611909565b60015b6110e657604051634c9c8ce360e01b81526001600160a01b038316600482015260240161074f565b5f5160206119215f395f51905f52811461111657604051632a87526960e21b81526004810182905260240161074f565b61083983836112d8565b306001600160a01b037f00000000000000000000000000000000000000000000000000000000000000001614610ad05760405163703e46dd60e11b815260040160405180910390fd5b3361119b7f9016d09d72d40fdae2fd8ceac6b6234c7706214fd39c1cd1e609a0528c199300546001600160a01b031690565b6001600160a01b031614610ad05760405163118cdaa760e01b815233600482015260240161074f565b7f9016d09d72d40fdae2fd8ceac6b6234c7706214fd39c1cd1e609a0528c19930080546001600160a01b031981166001600160a01b03848116918217845560405192169182907f8be0079c531659141344cd1fd0a4f28419497f9722a3daafe3b4186f6b6457e0905f90a3505050565b5f807ff0c57e16840df040f15088dc2f81fe391c3923bec73e23a9662efc9c229c6a00610e60565b61126461132d565b610d0481611352565b5f6001826003811115611282576112826114fb565b0361128f57506003919050565b60028260038111156112a3576112a36114fb565b036112b057506005919050565b60038260038111156112c4576112c46114fb565b036112d157505f19919050565b505f919050565b6112e18261135a565b6040516001600160a01b038316907fbc7cd75a20ee27fd9adebab32041f755214dbc6bffa90cc0225b39da2e5c2d3b905f90a28051156113255761083982826113bd565b61085961145d565b61133561147c565b610ad057604051631afcd79f60e31b815260040160405180910390fd5b610cd261132d565b806001600160a01b03163b5f0361138f57604051634c9c8ce360e01b81526001600160a01b038216600482015260240161074f565b5f5160206119215f395f51905f5280546001600160a01b0319166001600160a01b0392909216919091179055565b60605f6113ca8484611495565b90508080156113eb57505f3d11806113eb57505f846001600160a01b03163b115b15611400576113f86114a8565b915050610e60565b801561142a57604051639996b31560e01b81526001600160a01b038516600482015260240161074f565b3d1561143d576114386114c1565b611456565b60405163d6bda27560e01b815260040160405180910390fd5b5092915050565b3415610ad05760405163b398979f60e01b815260040160405180910390fd5b5f611485611234565b54600160401b900460ff16919050565b5f5f5f835160208501865af49392505050565b6040513d81523d5f602083013e3d602001810160405290565b6040513d5f823e3d81fd5b6001600160a01b0381168114610d04575f5ffd5b5f602082840312156114f0575f5ffd5b8135610e9b816114cc565b634e487b7160e01b5f52602160045260245ffd5b60a081016004871061152f57634e487b7160e01b5f52602160045260245ffd5b958152602081019490945260408401929092526060830152151560809091015290565b634e487b7160e01b5f52604160045260245ffd5b604051601f8201601f1916810167ffffffffffffffff8111828210171561158f5761158f611552565b604052919050565b5f5f604083850312156115a8575f5ffd5b82356115b3816114cc565b9150602083013567ffffffffffffffff8111156115ce575f5ffd5b8301601f810185136115de575f5ffd5b803567ffffffffffffffff8111156115f8576115f8611552565b61160b601f8201601f1916602001611566565b81815286602083850101111561161f575f5ffd5b816020840160208301375f602083830101528093505050509250929050565b5f5f5f60608486031215611650575f5ffd5b833561165b816114cc565b9250602084013591506040840135611672816114cc565b809150509250925092565b5f6020828403121561168d575f5ffd5b813567ffffffffffffffff8111156116a3575f5ffd5b8201601f810184136116b3575f5ffd5b803567ffffffffffffffff8111156116cd576116cd611552565b8060051b6116dd60208201611566565b918252602081840181019290810190878411156116f8575f5ffd5b6020850194505b838510156117265784359250611714836114cc565b828252602094850194909101906116ff565b979650505050505050565b60048110610d04575f5ffd5b5f6020828403121561174d575f5ffd5b8135610e9b81611731565b602081525f82518060208401528060208501604085015e5f604082850101526040601f19601f83011684010191505092915050565b5f5f6040838503121561179e575f5ffd5b82356117a981611731565b946020939093013593505050565b5f5f5f5f608085870312156117ca575f5ffd5b84356117d5816114cc565b935060208501356117e5816114cc565b925060408501356117f5816114cc565b91506060850135611805816114cc565b939692955090935050565b634e487b7160e01b5f52601160045260245ffd5b8082028115828204841417610e6057610e60611810565b5f8261185557634e487b7160e01b5f52601260045260245ffd5b500490565b80820180821115610e6057610e60611810565b81810381811115610e6057610e60611810565b634e487b7160e01b5f52603260045260245ffd5b5f5f5f606084860312156118a6575f5ffd5b83516118b1816114cc565b60208501519093506118c281611731565b80925050604084015190509250925092565b5f82518060208501845e5f920191825250919050565b5f602082840312156118fa575f5ffd5b81518015158114610e9b575f5ffd5b5f60208284031215611919575f5ffd5b505191905056fe360894a13ba1a3210667c828492db98dca3e2076cc3735a920a3ca505d382bbca26469706673582212201ff3d334158436a7d0d3c26065625060b38c52659193b6a522bfc219aad983e064736f6c634300081e0033","linkReferences":{}},"methodIdentifiers":{"UPGRADE_INTERFACE_VERSION()":"ad3cb1cc","USDT()":"c54e44eb","admin()":"f851a440","batchAdd(address[])":"55618c31","claim()":"4e71d92d","decimals()":"313ce567","emergencyWithdraw(address,uint256,address)":"551512de","getProfitFeeAward(address)":"b4fa8278","getStakeFeeAward(address)":"bde9c318","getTaxFeeAward(address)":"00351925","getUserAward(address)":"3e4ff6f2","initialize(address,address,address,address)":"f8c8765e","lex()":"7d0a1518","nodeDividendsV1()":"9f45a7ea","owner()":"8da5cb5b","perStakingAward(uint8)":"58125557","proxiableUUID()":"52d1902d","renounceOwnership()":"715018a6","setTreasuryAddr(address)":"a7e05b9c","totalStaking()":"165defa4","transferOwnership(address)":"f2fde38b","treasury()":"61d027b3","updateFarm(uint8,uint256)":"afaf46b8","upgradeToAndCall(address,bytes)":"4f1ef286","userInfo(address)":"1959a002"},"id":42}