{"abi":[{"type":"function","name":"DECIMALS","inputs":[],"outputs":[{"name":"","type":"uint256","internalType":"uint256"}],"stateMutability":"view"},{"type":"function","name":"UPGRADE_INTERFACE_VERSION","inputs":[],"outputs":[{"name":"","type":"string","internalType":"string"}],"stateMutability":"view"},{"type":"function","name":"USDT","inputs":[],"outputs":[{"name":"","type":"address","internalType":"address"}],"stateMutability":"view"},{"type":"function","name":"admin","inputs":[],"outputs":[{"name":"","type":"address","internalType":"address"}],"stateMutability":"view"},{"type":"function","name":"batchAdd","inputs":[{"name":"users","type":"address[]","internalType":"address[]"}],"outputs":[],"stateMutability":"nonpayable"},{"type":"function","name":"claim","inputs":[],"outputs":[],"stateMutability":"nonpayable"},{"type":"function","name":"emergencyWithdraw","inputs":[{"name":"token","type":"address","internalType":"address"},{"name":"amount","type":"uint256","internalType":"uint256"},{"name":"to","type":"address","internalType":"address"}],"outputs":[],"stateMutability":"nonpayable"},{"type":"function","name":"getProfitFeeAward","inputs":[{"name":"user","type":"address","internalType":"address"}],"outputs":[{"name":"","type":"uint256","internalType":"uint256"}],"stateMutability":"view"},{"type":"function","name":"getStakeFeeAward","inputs":[{"name":"user","type":"address","internalType":"address"}],"outputs":[{"name":"","type":"uint256","internalType":"uint256"}],"stateMutability":"view"},{"type":"function","name":"getTaxFeeAward","inputs":[{"name":"user","type":"address","internalType":"address"}],"outputs":[{"name":"","type":"uint256","internalType":"uint256"}],"stateMutability":"view"},{"type":"function","name":"getUserAward","inputs":[{"name":"user","type":"address","internalType":"address"}],"outputs":[{"name":"","type":"uint256","internalType":"uint256"}],"stateMutability":"view"},{"type":"function","name":"initialize","inputs":[{"name":"_lex","type":"address","internalType":"address"},{"name":"_nodeDividendsV1","type":"address","internalType":"address"},{"name":"_admin","type":"address","internalType":"address"},{"name":"_USDT","type":"address","internalType":"address"}],"outputs":[],"stateMutability":"nonpayable"},{"type":"function","name":"lex","inputs":[],"outputs":[{"name":"","type":"address","internalType":"address"}],"stateMutability":"view"},{"type":"function","name":"nodeDividendsV1","inputs":[],"outputs":[{"name":"","type":"address","internalType":"address"}],"stateMutability":"view"},{"type":"function","name":"owner","inputs":[],"outputs":[{"name":"","type":"address","internalType":"address"}],"stateMutability":"view"},{"type":"function","name":"perStakingAward","inputs":[{"name":"","type":"uint8","internalType":"enum Models.Source"}],"outputs":[{"name":"","type":"uint256","internalType":"uint256"}],"stateMutability":"view"},{"type":"function","name":"proxiableUUID","inputs":[],"outputs":[{"name":"","type":"bytes32","internalType":"bytes32"}],"stateMutability":"view"},{"type":"function","name":"renounceOwnership","inputs":[],"outputs":[],"stateMutability":"nonpayable"},{"type":"function","name":"setAddrConfig","inputs":[{"name":"_treasuryLiquidity","type":"address","internalType":"address"}],"outputs":[],"stateMutability":"nonpayable"},{"type":"function","name":"totalStaking","inputs":[],"outputs":[{"name":"","type":"uint256","internalType":"uint256"}],"stateMutability":"view"},{"type":"function","name":"transferOwnership","inputs":[{"name":"newOwner","type":"address","internalType":"address"}],"outputs":[],"stateMutability":"nonpayable"},{"type":"function","name":"treasuryLiquidity","inputs":[],"outputs":[{"name":"","type":"address","internalType":"address"}],"stateMutability":"view"},{"type":"function","name":"updateFarm","inputs":[{"name":"source","type":"uint8","internalType":"enum Models.Source"},{"name":"amount","type":"uint256","internalType":"uint256"}],"outputs":[],"stateMutability":"nonpayable"},{"type":"function","name":"upgradeToAndCall","inputs":[{"name":"newImplementation","type":"address","internalType":"address"},{"name":"data","type":"bytes","internalType":"bytes"}],"outputs":[],"stateMutability":"payable"},{"type":"function","name":"userInfo","inputs":[{"name":"","type":"address","internalType":"address"}],"outputs":[{"name":"nodeType","type":"uint8","internalType":"enum Models.NodeType"},{"name":"stakingAmount","type":"uint256","internalType":"uint256"},{"name":"taxExtracted","type":"uint128","internalType":"uint128"},{"name":"profitExtracted","type":"uint128","internalType":"uint128"},{"name":"stakeExtracted","type":"uint128","internalType":"uint128"},{"name":"extracted","type":"uint128","internalType":"uint128"},{"name":"debtTax","type":"uint128","internalType":"uint128"},{"name":"debtProfit","type":"uint128","internalType":"uint128"},{"name":"debtStake","type":"uint128","internalType":"uint128"},{"name":"isOut","type":"bool","internalType":"bool"}],"stateMutability":"view"},{"type":"event","name":"Initialized","inputs":[{"name":"version","type":"uint64","indexed":false,"internalType":"uint64"}],"anonymous":false},{"type":"event","name":"OwnershipTransferred","inputs":[{"name":"previousOwner","type":"address","indexed":true,"internalType":"address"},{"name":"newOwner","type":"address","indexed":true,"internalType":"address"}],"anonymous":false},{"type":"event","name":"Upgraded","inputs":[{"name":"implementation","type":"address","indexed":true,"internalType":"address"}],"anonymous":false},{"type":"error","name":"AddressEmptyCode","inputs":[{"name":"target","type":"address","internalType":"address"}]},{"type":"error","name":"ERC1967InvalidImplementation","inputs":[{"name":"implementation","type":"address","internalType":"address"}]},{"type":"error","name":"ERC1967NonPayable","inputs":[]},{"type":"error","name":"FailedCall","inputs":[]},{"type":"error","name":"InvalidInitialization","inputs":[]},{"type":"error","name":"NotInitializing","inputs":[]},{"type":"error","name":"OwnableInvalidOwner","inputs":[{"name":"owner","type":"address","internalType":"address"}]},{"type":"error","name":"OwnableUnauthorizedAccount","inputs":[{"name":"account","type":"address","internalType":"address"}]},{"type":"error","name":"UUPSUnauthorizedCallContext","inputs":[]},{"type":"error","name":"UUPSUnsupportedProxiableUUID","inputs":[{"name":"slot","type":"bytes32","internalType":"bytes32"}]}],"bytecode":{"object":"0x60a0604052306080523480156012575f5ffd5b50608051611e786100395f395f81816114570152818161148001526115bf0152611e785ff3fe608060405260043610610160575f3560e01c8063715018a6116100cd578063afaf46b811610087578063c54e44eb11610062578063c54e44eb1461049f578063f2fde38b146104be578063f851a440146104dd578063f8c8765e146104fc575f5ffd5b8063afaf46b814610442578063b4fa827814610461578063bde9c31814610480575f5ffd5b8063715018a6146103585780637d0a15181461036c578063810401501461038b5780638da5cb5b146103aa5780639f45a7ea146103e6578063ad3cb1cc14610405575f5ffd5b80634e71d92d1161011e5780634e71d92d146102b25780634f1ef286146102c857806352d1902d146102db578063551512de146102ef57806355618c311461030e578063581255571461032d575f5ffd5b80623519251461016457806309fb669814610196578063165defa4146101cd5780631959a002146101e25780632e0f26251461027a5780633e4ff6f214610293575b5f5ffd5b34801561016f575f5ffd5b5061018361017e366004611976565b61051b565b6040519081526020015b60405180910390f35b3480156101a1575f5ffd5b506002546101b5906001600160a01b031681565b6040516001600160a01b03909116815260200161018d565b3480156101d8575f5ffd5b5061018360075481565b3480156101ed575f5ffd5b506102646101fc366004611976565b5f6020819052908152604090208054600182015460028301546003840154600485015460059095015460ff9485169593946001600160801b0380851695600160801b95869004821695858316958190048316948284169492829004841693811692919004168a565b60405161018d9a999897969594939291906119a5565b348015610285575f5ffd5b506101836509184e72a00081565b34801561029e575f5ffd5b506101836102ad366004611976565b610675565b3480156102bd575f5ffd5b506102c6610725565b005b6102c66102d6366004611a85565b610a1a565b3480156102e6575f5ffd5b50610183610a39565b3480156102fa575f5ffd5b506102c6610309366004611b2c565b610a54565b348015610319575f5ffd5b506102c6610328366004611b6b565b610aab565b348015610338575f5ffd5b50610183610347366004611c20565b60066020525f908152604090205481565b348015610363575f5ffd5b506102c6610d35565b348015610377575f5ffd5b506001546101b5906001600160a01b031681565b348015610396575f5ffd5b506102c66103a5366004611976565b610d48565b3480156103b5575f5ffd5b507f9016d09d72d40fdae2fd8ceac6b6234c7706214fd39c1cd1e609a0528c199300546001600160a01b03166101b5565b3480156103f1575f5ffd5b506005546101b5906001600160a01b031681565b348015610410575f5ffd5b50610435604051806040016040528060058152602001640352e302e360dc1b81525081565b60405161018d9190611c3b565b34801561044d575f5ffd5b506102c661045c366004611c70565b610d72565b34801561046c575f5ffd5b5061018361047b366004611976565b610e3d565b34801561048b575f5ffd5b5061018361049a366004611976565b610f7c565b3480156104aa575f5ffd5b506004546101b5906001600160a01b031681565b3480156104c9575f5ffd5b506102c66104d8366004611976565b6110c6565b3480156104e8575f5ffd5b506003546101b5906001600160a01b031681565b348015610507575f5ffd5b506102c6610516366004611c9a565b611103565b6001600160a01b0381165f9081526020819052604081206001810154158061054e57506005810154600160801b900460ff165b1561055b57505f92915050565b5f6105b7826001015460065f6001600381111561057a5761057a611991565b600381111561058b5761058b611991565b815260208101919091526040015f2054600485015460028601546001600160801b039182169116611249565b90505f6001835460ff1660038111156105d2576105d2611991565b036105e257506001820154610653565b6002835460ff1660038111156105fa576105fa611991565b0361062357600a8360010154600f6106129190611d07565b61061c9190611d1e565b9050610653565b6003835460ff16600381111561063b5761063b611991565b03610653576001830154610650906002611d07565b90505b600283015461066c906001600160801b031683836112ad565b95945050505050565b6001600160a01b0381165f908152602081905260408120600181015415806106a857506005810154600160801b900460ff165b156106b557505f92915050565b5f6106bf8461051b565b90505f6106cb85610e3d565b90505f6106d786610f7c565b90505f816106e58486611d3d565b6106ef9190611d3d565b600386015490915061071a90600160801b90046001600160801b031682610715886112e3565b611318565b979650505050505050565b335f90815260208190526040902060018101546107735760405162461bcd60e51b81526020600482015260076024820152664e4f5f4e4f444560c81b60448201526064015b60405180910390fd5b6005810154600160801b900460ff16156107b55760405162461bcd60e51b815260206004820152600360248201526213d55560ea1b604482015260640161076a565b5f6107bf3361051b565b90505f6107cb33610e3d565b90505f6107d733610f7c565b90505f816107e58486611d3d565b6107ef9190611d3d565b60038601549091505f9061081790600160801b90046001600160801b031683610715896112e3565b90505f81116108545760405162461bcd60e51b81526020600482015260096024820152681393d7d49155d0549160ba1b604482015260640161076a565b818110156108a257816108678287611d07565b6108719190611d1e565b94508161087e8286611d07565b6108889190611d1e565b9350816108958285611d07565b61089f9190611d1e565b92505b6002860180548691905f906108c19084906001600160801b0316611d50565b92506101000a8154816001600160801b0302191690836001600160801b03160217905550838660020160108282829054906101000a90046001600160801b031661090b9190611d50565b92506101000a8154816001600160801b0302191690836001600160801b0316021790555082866003015f8282829054906101000a90046001600160801b03166109549190611d50565b92506101000a8154816001600160801b0302191690836001600160801b03160217905550808660030160108282829054906101000a90046001600160801b031661099e9190611d50565b92506101000a8154816001600160801b0302191690836001600160801b031602179055506109cb866112e3565b6003870154600160801b90046001600160801b0316106109fb5760058601805460ff60801b1916600160801b1790555b600454610a12906001600160a01b03163383611336565b505050505050565b610a2261144c565b610a2b826114f0565b610a3582826114f8565b5050565b5f610a426115b4565b505f516020611e235f395f51905f5290565b6003546001600160a01b03163314610a9b5760405162461bcd60e51b815260206004820152600a6024820152691393d517d4115493525560b21b604482015260640161076a565b610aa6838284611336565b505050565b610ab36115fd565b5f5b8151811015610a35575f5f5f848481518110610ad357610ad3611d6f565b60200260200101516001600160a01b03166001600160a01b031681526020019081526020015f20905080600101545f03610d2c5760055483515f9182916001600160a01b039091169063b3a4836690879087908110610b3457610b34611d6f565b60200260200101516040518263ffffffff1660e01b8152600401610b6791906001600160a01b0391909116815260200190565b606060405180830381865afa158015610b82573d5f5f3e3d5ffd5b505050506040513d601f19601f82011682018060405250810190610ba69190611d83565b85549194509250839150849060ff19166001836003811115610bca57610bca611991565b021790555060018381018290555f5260066020527f3e5fec24aa4dc4e5aee2e025e51e1392c72a2500577559fae9665c6d52bd6a31546509184e72a00090610c129083611d07565b610c1c9190611d1e565b6004840180546fffffffffffffffffffffffffffffffff19166001600160801b039290921691909117905560025f5260066020527f8819ef417987f8ae7a81f42cdfb18815282fe989326fbff903d13cf0e03ace29546509184e72a00090610c849083611d07565b610c8e9190611d1e565b6004840180546001600160801b03928316600160801b0292169190911790556509184e72a00060065f600380811115610cc957610cc9611991565b81526020019081526020015f205482610ce29190611d07565b610cec9190611d1e565b836005015f6101000a8154816001600160801b0302191690836001600160801b031602179055508060075f828254610d249190611d3d565b909155505050505b50600101610ab5565b610d3d6115fd565b610d465f611658565b565b610d506115fd565b600280546001600160a01b0319166001600160a01b0392909216919091179055565b6001546001600160a01b0316331480610d9557506002546001600160a01b031633145b610dce5760405162461bcd60e51b815260206004820152600a6024820152691393d517d4115493525560b21b604482015260640161076a565b60075415610a3557600754610de96509184e72a00083611d07565b610df39190611d1e565b60065f846003811115610e0857610e08611991565b6003811115610e1957610e19611991565b81526020019081526020015f205f828254610e349190611d3d565b90915550505050565b6001600160a01b0381165f90815260208190526040812060018101541580610e7057506005810154600160801b900460ff165b15610e7d57505f92915050565b600181015460025f81815260066020527f8819ef417987f8ae7a81f42cdfb18815282fe989326fbff903d13cf0e03ace29546004850154928501549193610edd9390926001600160801b03600160801b9283900481169290910416611249565b90506003825460ff166003811115610ef757610ef7611991565b03610f03579392505050565b5f6001835460ff166003811115610f1c57610f1c611991565b03610f2c57506001820154610f5c565b6002835460ff166003811115610f4457610f44611991565b03610f5c576001830154610f59906002611d07565b90505b600283015461066c90600160801b90046001600160801b031683836112ad565b6001600160a01b0381165f90815260208190526040812060018101541580610faf57506005810154600160801b900460ff165b15610fbc57505f92915050565b600181015460035f81815260066020527f75f96ab15d697e93042dc45b5c896c4b27e89bb6eaf39475c5c371cb2513f7d25460058501549285015491936110119390926001600160801b039182169116611249565b90505f6001835460ff16600381111561102c5761102c611991565b0361103c575060018201546110ad565b6002835460ff16600381111561105457611054611991565b0361107d57600a8360010154600f61106c9190611d07565b6110769190611d1e565b90506110ad565b6003835460ff16600381111561109557611095611991565b036110ad5760018301546110aa906002611d07565b90505b600383015461066c906001600160801b031683836112ad565b6110ce6115fd565b6001600160a01b0381166110f757604051631e4fbdf760e01b81525f600482015260240161076a565b61110081611658565b50565b5f61110c6116c8565b805490915060ff600160401b820416159067ffffffffffffffff165f811580156111335750825b90505f8267ffffffffffffffff16600114801561114f5750303b155b90508115801561115d575080155b1561117b5760405163f92ee8a960e01b815260040160405180910390fd5b845467ffffffffffffffff1916600117855583156111a557845460ff60401b1916600160401b1785555b6111ae336116f2565b600180546001600160a01b03808c166001600160a01b031992831617909255600580548b8416908316179055600380548a84169083161790556004805492891692909116919091179055831561123e57845460ff60401b19168555604051600181527fc7f505b2f371ae2175ee4913f4499e1f2633a7b5936321eed1cdaeb6115181d29060200160405180910390a15b505050505050505050565b5f806509184e72a00061125c8688611d07565b6112669190611d1e565b9050838111611278575f9150506112a5565b5f6112838583611dc3565b9050838111611296575f925050506112a5565b6112a08482611dc3565b925050505b949350505050565b5f8184106112bc57505f6112dc565b5f6112c78584611dc3565b90508084116112d657836112d8565b805b9150505b9392505050565b80545f9081906112f59060ff16611703565b90505f19810361130857505f1992915050565b8083600101546112dc9190611d07565b5f5f1982036113285750816112dc565b8184106112bc57505f6112dc565b604080516001600160a01b038481166024830152604480830185905283518084039091018152606490920183526020820180516001600160e01b031663a9059cbb60e01b17905291515f928392908716916113919190611dd6565b5f604051808303815f865af19150503d805f81146113ca576040519150601f19603f3d011682016040523d82523d5f602084013e6113cf565b606091505b50915091508180156113f95750805115806113f95750808060200190518101906113f99190611dec565b6114455760405162461bcd60e51b815260206004820152601f60248201527f5472616e7366657248656c7065723a205452414e534645525f4641494c454400604482015260640161076a565b5050505050565b306001600160a01b037f00000000000000000000000000000000000000000000000000000000000000001614806114d257507f00000000000000000000000000000000000000000000000000000000000000006001600160a01b03166114c65f516020611e235f395f51905f52546001600160a01b031690565b6001600160a01b031614155b15610d465760405163703e46dd60e11b815260040160405180910390fd5b6111006115fd565b816001600160a01b03166352d1902d6040518163ffffffff1660e01b8152600401602060405180830381865afa925050508015611552575060408051601f3d908101601f1916820190925261154f91810190611e0b565b60015b61157a57604051634c9c8ce360e01b81526001600160a01b038316600482015260240161076a565b5f516020611e235f395f51905f5281146115aa57604051632a87526960e21b81526004810182905260240161076a565b610aa6838361176e565b306001600160a01b037f00000000000000000000000000000000000000000000000000000000000000001614610d465760405163703e46dd60e11b815260040160405180910390fd5b3361162f7f9016d09d72d40fdae2fd8ceac6b6234c7706214fd39c1cd1e609a0528c199300546001600160a01b031690565b6001600160a01b031614610d465760405163118cdaa760e01b815233600482015260240161076a565b7f9016d09d72d40fdae2fd8ceac6b6234c7706214fd39c1cd1e609a0528c19930080546001600160a01b031981166001600160a01b03848116918217845560405192169182907f8be0079c531659141344cd1fd0a4f28419497f9722a3daafe3b4186f6b6457e0905f90a3505050565b5f807ff0c57e16840df040f15088dc2f81fe391c3923bec73e23a9662efc9c229c6a005b92915050565b6116fa6117c3565b611100816117e8565b5f600182600381111561171857611718611991565b0361172557506003919050565b600282600381111561173957611739611991565b0361174657506005919050565b600382600381111561175a5761175a611991565b0361176757505f19919050565b505f919050565b611777826117f0565b6040516001600160a01b038316907fbc7cd75a20ee27fd9adebab32041f755214dbc6bffa90cc0225b39da2e5c2d3b905f90a28051156117bb57610aa68282611853565b610a356118f3565b6117cb611912565b610d4657604051631afcd79f60e31b815260040160405180910390fd5b6110ce6117c3565b806001600160a01b03163b5f0361182557604051634c9c8ce360e01b81526001600160a01b038216600482015260240161076a565b5f516020611e235f395f51905f5280546001600160a01b0319166001600160a01b0392909216919091179055565b60605f611860848461192b565b905080801561188157505f3d118061188157505f846001600160a01b03163b115b156118965761188e61193e565b9150506116ec565b80156118c057604051639996b31560e01b81526001600160a01b038516600482015260240161076a565b3d156118d3576118ce611957565b6118ec565b60405163d6bda27560e01b815260040160405180910390fd5b5092915050565b3415610d465760405163b398979f60e01b815260040160405180910390fd5b5f61191b6116c8565b54600160401b900460ff16919050565b5f5f5f835160208501865af49392505050565b6040513d81523d5f602083013e3d602001810160405290565b6040513d5f823e3d81fd5b6001600160a01b0381168114611100575f5ffd5b5f60208284031215611986575f5ffd5b81356112dc81611962565b634e487b7160e01b5f52602160045260245ffd5b610140810160048c106119c657634e487b7160e01b5f52602160045260245ffd5b8b82528a60208301526001600160801b038a1660408301526001600160801b0389166060830152611a0260808301896001600160801b03169052565b6001600160801b0396871660a083015294861660c082015292851660e084015293166101008201529115156101209092019190915295945050505050565b634e487b7160e01b5f52604160045260245ffd5b604051601f8201601f1916810167ffffffffffffffff81118282101715611a7d57611a7d611a40565b604052919050565b5f5f60408385031215611a96575f5ffd5b8235611aa181611962565b9150602083013567ffffffffffffffff811115611abc575f5ffd5b8301601f81018513611acc575f5ffd5b803567ffffffffffffffff811115611ae657611ae6611a40565b611af9601f8201601f1916602001611a54565b818152866020838501011115611b0d575f5ffd5b816020840160208301375f602083830101528093505050509250929050565b5f5f5f60608486031215611b3e575f5ffd5b8335611b4981611962565b9250602084013591506040840135611b6081611962565b809150509250925092565b5f60208284031215611b7b575f5ffd5b813567ffffffffffffffff811115611b91575f5ffd5b8201601f81018413611ba1575f5ffd5b803567ffffffffffffffff811115611bbb57611bbb611a40565b8060051b611bcb60208201611a54565b91825260208184018101929081019087841115611be6575f5ffd5b6020850194505b8385101561071a5784359250611c0283611962565b82825260209485019490910190611bed565b60048110611100575f5ffd5b5f60208284031215611c30575f5ffd5b81356112dc81611c14565b602081525f82518060208401528060208501604085015e5f604082850101526040601f19601f83011684010191505092915050565b5f5f60408385031215611c81575f5ffd5b8235611c8c81611c14565b946020939093013593505050565b5f5f5f5f60808587031215611cad575f5ffd5b8435611cb881611962565b93506020850135611cc881611962565b92506040850135611cd881611962565b91506060850135611ce881611962565b939692955090935050565b634e487b7160e01b5f52601160045260245ffd5b80820281158282048414176116ec576116ec611cf3565b5f82611d3857634e487b7160e01b5f52601260045260245ffd5b500490565b808201808211156116ec576116ec611cf3565b6001600160801b0381811683821601908111156116ec576116ec611cf3565b634e487b7160e01b5f52603260045260245ffd5b5f5f5f60608486031215611d95575f5ffd5b8351611da081611962565b6020850151909350611db181611c14565b80925050604084015190509250925092565b818103818111156116ec576116ec611cf3565b5f82518060208501845e5f920191825250919050565b5f60208284031215611dfc575f5ffd5b815180151581146112dc575f5ffd5b5f60208284031215611e1b575f5ffd5b505191905056fe360894a13ba1a3210667c828492db98dca3e2076cc3735a920a3ca505d382bbca264697066735822122093612efabee97bd738f51709686e86319eb341ff1e15b90b34e67a1ad51f12cc64736f6c634300081e0033","linkReferences":{}},"methodIdentifiers":{"DECIMALS()":"2e0f2625","UPGRADE_INTERFACE_VERSION()":"ad3cb1cc","USDT()":"c54e44eb","admin()":"f851a440","batchAdd(address[])":"55618c31","claim()":"4e71d92d","emergencyWithdraw(address,uint256,address)":"551512de","getProfitFeeAward(address)":"b4fa8278","getStakeFeeAward(address)":"bde9c318","getTaxFeeAward(address)":"00351925","getUserAward(address)":"3e4ff6f2","initialize(address,address,address,address)":"f8c8765e","lex()":"7d0a1518","nodeDividendsV1()":"9f45a7ea","owner()":"8da5cb5b","perStakingAward(uint8)":"58125557","proxiableUUID()":"52d1902d","renounceOwnership()":"715018a6","setAddrConfig(address)":"81040150","totalStaking()":"165defa4","transferOwnership(address)":"f2fde38b","treasuryLiquidity()":"09fb6698","updateFarm(uint8,uint256)":"afaf46b8","upgradeToAndCall(address,bytes)":"4f1ef286","userInfo(address)":"1959a002"},"id":51}