{"abi":[{"type":"function","name":"DECIMALS","inputs":[],"outputs":[{"name":"","type":"uint256","internalType":"uint256"}],"stateMutability":"view"},{"type":"function","name":"UPGRADE_INTERFACE_VERSION","inputs":[],"outputs":[{"name":"","type":"string","internalType":"string"}],"stateMutability":"view"},{"type":"function","name":"USDT","inputs":[],"outputs":[{"name":"","type":"address","internalType":"address"}],"stateMutability":"view"},{"type":"function","name":"admin","inputs":[],"outputs":[{"name":"","type":"address","internalType":"address"}],"stateMutability":"view"},{"type":"function","name":"batchAdd","inputs":[{"name":"users","type":"address[]","internalType":"address[]"}],"outputs":[],"stateMutability":"nonpayable"},{"type":"function","name":"claim","inputs":[],"outputs":[],"stateMutability":"nonpayable"},{"type":"function","name":"emergencyWithdraw","inputs":[{"name":"token","type":"address","internalType":"address"},{"name":"amount","type":"uint256","internalType":"uint256"},{"name":"to","type":"address","internalType":"address"}],"outputs":[],"stateMutability":"nonpayable"},{"type":"function","name":"getProfitFeeAward","inputs":[{"name":"user","type":"address","internalType":"address"}],"outputs":[{"name":"","type":"uint256","internalType":"uint256"}],"stateMutability":"view"},{"type":"function","name":"getStakeFeeAward","inputs":[{"name":"user","type":"address","internalType":"address"}],"outputs":[{"name":"","type":"uint256","internalType":"uint256"}],"stateMutability":"view"},{"type":"function","name":"getTaxFeeAward","inputs":[{"name":"user","type":"address","internalType":"address"}],"outputs":[{"name":"","type":"uint256","internalType":"uint256"}],"stateMutability":"view"},{"type":"function","name":"getUserAward","inputs":[{"name":"user","type":"address","internalType":"address"}],"outputs":[{"name":"","type":"uint256","internalType":"uint256"}],"stateMutability":"view"},{"type":"function","name":"initialize","inputs":[{"name":"_lex","type":"address","internalType":"address"},{"name":"_nodeDividendsV1","type":"address","internalType":"address"},{"name":"_admin","type":"address","internalType":"address"},{"name":"_USDT","type":"address","internalType":"address"}],"outputs":[],"stateMutability":"nonpayable"},{"type":"function","name":"lex","inputs":[],"outputs":[{"name":"","type":"address","internalType":"address"}],"stateMutability":"view"},{"type":"function","name":"nodeDividendsV1","inputs":[],"outputs":[{"name":"","type":"address","internalType":"address"}],"stateMutability":"view"},{"type":"function","name":"owner","inputs":[],"outputs":[{"name":"","type":"address","internalType":"address"}],"stateMutability":"view"},{"type":"function","name":"perStakingAward","inputs":[{"name":"","type":"uint8","internalType":"enum Models.Source"}],"outputs":[{"name":"","type":"uint256","internalType":"uint256"}],"stateMutability":"view"},{"type":"function","name":"proxiableUUID","inputs":[],"outputs":[{"name":"","type":"bytes32","internalType":"bytes32"}],"stateMutability":"view"},{"type":"function","name":"renounceOwnership","inputs":[],"outputs":[],"stateMutability":"nonpayable"},{"type":"function","name":"setAddrConfig","inputs":[{"name":"_treasuryLiquidity","type":"address","internalType":"address"}],"outputs":[],"stateMutability":"nonpayable"},{"type":"function","name":"totalStaking","inputs":[],"outputs":[{"name":"","type":"uint256","internalType":"uint256"}],"stateMutability":"view"},{"type":"function","name":"transferOwnership","inputs":[{"name":"newOwner","type":"address","internalType":"address"}],"outputs":[],"stateMutability":"nonpayable"},{"type":"function","name":"treasuryLiquidity","inputs":[],"outputs":[{"name":"","type":"address","internalType":"address"}],"stateMutability":"view"},{"type":"function","name":"updateFarm","inputs":[{"name":"source","type":"uint8","internalType":"enum Models.Source"},{"name":"amount","type":"uint256","internalType":"uint256"}],"outputs":[],"stateMutability":"nonpayable"},{"type":"function","name":"upgradeToAndCall","inputs":[{"name":"newImplementation","type":"address","internalType":"address"},{"name":"data","type":"bytes","internalType":"bytes"}],"outputs":[],"stateMutability":"payable"},{"type":"function","name":"userInfo","inputs":[{"name":"","type":"address","internalType":"address"}],"outputs":[{"name":"nodeType","type":"uint8","internalType":"enum Models.NodeType"},{"name":"stakingAmount","type":"uint256","internalType":"uint256"},{"name":"taxExtracted","type":"uint128","internalType":"uint128"},{"name":"profitExtracted","type":"uint128","internalType":"uint128"},{"name":"stakeExtracted","type":"uint128","internalType":"uint128"},{"name":"extracted","type":"uint128","internalType":"uint128"},{"name":"debtTax","type":"uint128","internalType":"uint128"},{"name":"debtProfit","type":"uint128","internalType":"uint128"},{"name":"debtStake","type":"uint128","internalType":"uint128"},{"name":"isOut","type":"bool","internalType":"bool"}],"stateMutability":"view"},{"type":"event","name":"Initialized","inputs":[{"name":"version","type":"uint64","indexed":false,"internalType":"uint64"}],"anonymous":false},{"type":"event","name":"OwnershipTransferred","inputs":[{"name":"previousOwner","type":"address","indexed":true,"internalType":"address"},{"name":"newOwner","type":"address","indexed":true,"internalType":"address"}],"anonymous":false},{"type":"event","name":"Upgraded","inputs":[{"name":"implementation","type":"address","indexed":true,"internalType":"address"}],"anonymous":false},{"type":"error","name":"AddressEmptyCode","inputs":[{"name":"target","type":"address","internalType":"address"}]},{"type":"error","name":"ERC1967InvalidImplementation","inputs":[{"name":"implementation","type":"address","internalType":"address"}]},{"type":"error","name":"ERC1967NonPayable","inputs":[]},{"type":"error","name":"FailedCall","inputs":[]},{"type":"error","name":"InvalidInitialization","inputs":[]},{"type":"error","name":"NotInitializing","inputs":[]},{"type":"error","name":"OwnableInvalidOwner","inputs":[{"name":"owner","type":"address","internalType":"address"}]},{"type":"error","name":"OwnableUnauthorizedAccount","inputs":[{"name":"account","type":"address","internalType":"address"}]},{"type":"error","name":"UUPSUnauthorizedCallContext","inputs":[]},{"type":"error","name":"UUPSUnsupportedProxiableUUID","inputs":[{"name":"slot","type":"bytes32","internalType":"bytes32"}]}],"bytecode":{"object":"0x60a0604052306080523480156012575f5ffd5b50608051611df56100395f395f81816113d4015281816113fd015261153c0152611df55ff3fe608060405260043610610160575f3560e01c8063715018a6116100cd578063afaf46b811610087578063c54e44eb11610062578063c54e44eb1461049f578063f2fde38b146104be578063f851a440146104dd578063f8c8765e146104fc575f5ffd5b8063afaf46b814610442578063b4fa827814610461578063bde9c31814610480575f5ffd5b8063715018a6146103585780637d0a15181461036c578063810401501461038b5780638da5cb5b146103aa5780639f45a7ea146103e6578063ad3cb1cc14610405575f5ffd5b80634e71d92d1161011e5780634e71d92d146102b25780634f1ef286146102c857806352d1902d146102db578063551512de146102ef57806355618c311461030e578063581255571461032d575f5ffd5b80623519251461016457806309fb669814610196578063165defa4146101cd5780631959a002146101e25780632e0f26251461027a5780633e4ff6f214610293575b5f5ffd5b34801561016f575f5ffd5b5061018361017e3660046118f3565b61051b565b6040519081526020015b60405180910390f35b3480156101a1575f5ffd5b506002546101b5906001600160a01b031681565b6040516001600160a01b03909116815260200161018d565b3480156101d8575f5ffd5b5061018360075481565b3480156101ed575f5ffd5b506102646101fc3660046118f3565b5f6020819052908152604090208054600182015460028301546003840154600485015460059095015460ff9485169593946001600160801b0380851695600160801b95869004821695858316958190048316948284169492829004841693811692919004168a565b60405161018d9a99989796959493929190611922565b348015610285575f5ffd5b506101836509184e72a00081565b34801561029e575f5ffd5b506101836102ad3660046118f3565b610652565b3480156102bd575f5ffd5b506102c6610702565b005b6102c66102d6366004611a02565b6109a6565b3480156102e6575f5ffd5b506101836109c5565b3480156102fa575f5ffd5b506102c6610309366004611aa9565b6109e0565b348015610319575f5ffd5b506102c6610328366004611ae8565b610a38565b348015610338575f5ffd5b50610183610347366004611b9d565b60066020525f908152604090205481565b348015610363575f5ffd5b506102c6610d62565b348015610377575f5ffd5b506001546101b5906001600160a01b031681565b348015610396575f5ffd5b506102c66103a53660046118f3565b610d75565b3480156103b5575f5ffd5b507f9016d09d72d40fdae2fd8ceac6b6234c7706214fd39c1cd1e609a0528c199300546001600160a01b03166101b5565b3480156103f1575f5ffd5b506005546101b5906001600160a01b031681565b348015610410575f5ffd5b50610435604051806040016040528060058152602001640352e302e360dc1b81525081565b60405161018d9190611bb8565b34801561044d575f5ffd5b506102c661045c366004611bed565b610d9f565b34801561046c575f5ffd5b5061018361047b3660046118f3565b610e6b565b34801561048b575f5ffd5b5061018361049a3660046118f3565b610f81565b3480156104aa575f5ffd5b506004546101b5906001600160a01b031681565b3480156104c9575f5ffd5b506102c66104d83660046118f3565b6110ad565b3480156104e8575f5ffd5b506003546101b5906001600160a01b031681565b348015610507575f5ffd5b506102c6610516366004611c17565b6110ea565b6001600160a01b0381165f9081526020819052604081206001810154820361054557505f92915050565b60015f81815260066020527f3e5fec24aa4dc4e5aee2e025e51e1392c72a2500577559fae9665c6d52bd6a31549183015490916509184e72a0009161058a9190611c84565b6105949190611c9b565b90505f6001835460ff1660038111156105af576105af61190e565b036105bf57506001820154610630565b6002835460ff1660038111156105d7576105d761190e565b0361060057600a8360010154600f6105ef9190611c84565b6105f99190611c9b565b9050610630565b6003835460ff1660038111156106185761061861190e565b0361063057600183015461062d906002611c84565b90505b6002830154610649906001600160801b03168383611230565b95945050505050565b6001600160a01b0381165f9081526020819052604081206001810154158061068557506005810154600160801b900460ff165b1561069257505f92915050565b5f61069c8461051b565b90505f6106a885610e6b565b90505f6106b486610f81565b90505f816106c28486611cba565b6106cc9190611cba565b60038601549091506106f790600160801b90046001600160801b0316826106f288611267565b61129c565b979650505050505050565b335f90815260208190526040902060018101546107505760405162461bcd60e51b81526020600482015260076024820152664e4f5f4e4f444560c81b60448201526064015b60405180910390fd5b6005810154600160801b900460ff16156107925760405162461bcd60e51b815260206004820152600360248201526213d55560ea1b6044820152606401610747565b5f61079c3361051b565b90505f6107a833610e6b565b90505f6107b433610f81565b90505f816107c28486611cba565b6107cc9190611cba565b60038601549091506107f290600160801b90046001600160801b0316826106f288611267565b90505f811161082f5760405162461bcd60e51b81526020600482015260096024820152681393d7d49155d0549160ba1b6044820152606401610747565b6002850180548591905f9061084e9084906001600160801b0316611ccd565b92506101000a8154816001600160801b0302191690836001600160801b03160217905550828560020160108282829054906101000a90046001600160801b03166108989190611ccd565b92506101000a8154816001600160801b0302191690836001600160801b0316021790555081856003015f8282829054906101000a90046001600160801b03166108e19190611ccd565b92506101000a8154816001600160801b0302191690836001600160801b03160217905550808560030160108282829054906101000a90046001600160801b031661092b9190611ccd565b92506101000a8154816001600160801b0302191690836001600160801b0316021790555061095885611267565b6003860154600160801b90046001600160801b0316106109885760058501805460ff60801b1916600160801b1790555b60045461099f906001600160a01b031633836112ba565b5050505050565b6109ae6113c9565b6109b78261146d565b6109c18282611475565b5050565b5f6109ce611531565b505f516020611da05f395f51905f5290565b6003546001600160a01b03163314610a285760405162461bcd60e51b815260206004820152600b60248201526a2727aa2fa822a926a4aa1760a91b6044820152606401610747565b610a338382846112ba565b505050565b610a4061157a565b5f5b81518110156109c1575f5f5f848481518110610a6057610a60611cec565b60200260200101516001600160a01b03166001600160a01b031681526020019081526020015f20905080600101545f03610d595760055483515f9182916001600160a01b039091169063b3a4836690879087908110610ac157610ac1611cec565b60200260200101516040518263ffffffff1660e01b8152600401610af491906001600160a01b0391909116815260200190565b606060405180830381865afa158015610b0f573d5f5f3e3d5ffd5b505050506040513d601f19601f82011682018060405250810190610b339190611d00565b85549194509250839150849060ff19166001836003811115610b5757610b5761190e565b0217905550600183810182905560066020527f75f96ab15d697e93042dc45b5c896c4b27e89bb6eaf39475c5c371cb2513f7d2547f8819ef417987f8ae7a81f42cdfb18815282fe989326fbff903d13cf0e03ace29545f9283527f3e5fec24aa4dc4e5aee2e025e51e1392c72a2500577559fae9665c6d52bd6a3154610bdd9190611cba565b610be79190611cba565b90505f8111610bfc576509184e72a000610bfe565b805b60015f5260066020527f3e5fec24aa4dc4e5aee2e025e51e1392c72a2500577559fae9665c6d52bd6a31549091506509184e72a00090610c3e9084611c84565b610c489190611c9b565b6004850180546fffffffffffffffffffffffffffffffff19166001600160801b039290921691909117905560025f5260066020527f8819ef417987f8ae7a81f42cdfb18815282fe989326fbff903d13cf0e03ace29546509184e72a00090610cb09084611c84565b610cba9190611c9b565b6004850180546001600160801b03928316600160801b0292169190911790556509184e72a00060065f600380811115610cf557610cf561190e565b81526020019081526020015f205483610d0e9190611c84565b610d189190611c9b565b846005015f6101000a8154816001600160801b0302191690836001600160801b031602179055508160075f828254610d509190611cba565b90915550505050505b50600101610a42565b610d6a61157a565b610d735f6115d5565b565b610d7d61157a565b600280546001600160a01b0319166001600160a01b0392909216919091179055565b6001546001600160a01b0316331480610dc257506002546001600160a01b031633145b610dfc5760405162461bcd60e51b815260206004820152600b60248201526a2727aa2fa822a926a4aa1760a91b6044820152606401610747565b600754156109c157600754610e176509184e72a00083611c84565b610e219190611c9b565b60065f846003811115610e3657610e3661190e565b6003811115610e4757610e4761190e565b81526020019081526020015f205f828254610e629190611cba565b90915550505050565b6001600160a01b0381165f90815260208190526040812060018101548203610e9557505f92915050565b60025f90815260066020527f8819ef417987f8ae7a81f42cdfb18815282fe989326fbff903d13cf0e03ace295460018301546509184e72a00091610ed891611c84565b610ee29190611c9b565b90506003825460ff166003811115610efc57610efc61190e565b03610f08579392505050565b5f6001835460ff166003811115610f2157610f2161190e565b03610f3157506001820154610f61565b6002835460ff166003811115610f4957610f4961190e565b03610f61576001830154610f5e906002611c84565b90505b600283015461064990600160801b90046001600160801b03168383611230565b6001600160a01b0381165f90815260208190526040812060018101548203610fab57505f92915050565b60035f90815260066020527f75f96ab15d697e93042dc45b5c896c4b27e89bb6eaf39475c5c371cb2513f7d25460018301546509184e72a00091610fee91611c84565b610ff89190611c9b565b90505f6001835460ff1660038111156110135761101361190e565b0361102357506001820154611094565b6002835460ff16600381111561103b5761103b61190e565b0361106457600a8360010154600f6110539190611c84565b61105d9190611c9b565b9050611094565b6003835460ff16600381111561107c5761107c61190e565b03611094576001830154611091906002611c84565b90505b6003830154610649906001600160801b03168383611230565b6110b561157a565b6001600160a01b0381166110de57604051631e4fbdf760e01b81525f6004820152602401610747565b6110e7816115d5565b50565b5f6110f3611645565b805490915060ff600160401b820416159067ffffffffffffffff165f8115801561111a5750825b90505f8267ffffffffffffffff1660011480156111365750303b155b905081158015611144575080155b156111625760405163f92ee8a960e01b815260040160405180910390fd5b845467ffffffffffffffff19166001178555831561118c57845460ff60401b1916600160401b1785555b6111953361166f565b600180546001600160a01b03808c166001600160a01b031992831617909255600580548b8416908316179055600380548a84169083161790556004805492891692909116919091179055831561122557845460ff60401b19168555604051600181527fc7f505b2f371ae2175ee4913f4499e1f2633a7b5936321eed1cdaeb6115181d29060200160405180910390a15b505050505050505050565b5f81841061123f57505f611260565b5f61124a8584611d40565b90508084111561125b579050611260565b839150505b9392505050565b80545f9081906112799060ff16611680565b90505f19810361128c57505f1992915050565b8083600101546112609190611c84565b5f5f1982036112ac575081611260565b81841061123f57505f611260565b604080516001600160a01b038481166024830152604480830185905283518084039091018152606490920183526020820180516001600160e01b031663a9059cbb60e01b17905291515f928392908716916113159190611d53565b5f604051808303815f865af19150503d805f811461134e576040519150601f19603f3d011682016040523d82523d5f602084013e611353565b606091505b509150915081801561137d57508051158061137d57508080602001905181019061137d9190611d69565b61099f5760405162461bcd60e51b815260206004820152601f60248201527f5472616e7366657248656c7065723a205452414e534645525f4641494c4544006044820152606401610747565b306001600160a01b037f000000000000000000000000000000000000000000000000000000000000000016148061144f57507f00000000000000000000000000000000000000000000000000000000000000006001600160a01b03166114435f516020611da05f395f51905f52546001600160a01b031690565b6001600160a01b031614155b15610d735760405163703e46dd60e11b815260040160405180910390fd5b6110e761157a565b816001600160a01b03166352d1902d6040518163ffffffff1660e01b8152600401602060405180830381865afa9250505080156114cf575060408051601f3d908101601f191682019092526114cc91810190611d88565b60015b6114f757604051634c9c8ce360e01b81526001600160a01b0383166004820152602401610747565b5f516020611da05f395f51905f52811461152757604051632a87526960e21b815260048101829052602401610747565b610a3383836116eb565b306001600160a01b037f00000000000000000000000000000000000000000000000000000000000000001614610d735760405163703e46dd60e11b815260040160405180910390fd5b336115ac7f9016d09d72d40fdae2fd8ceac6b6234c7706214fd39c1cd1e609a0528c199300546001600160a01b031690565b6001600160a01b031614610d735760405163118cdaa760e01b8152336004820152602401610747565b7f9016d09d72d40fdae2fd8ceac6b6234c7706214fd39c1cd1e609a0528c19930080546001600160a01b031981166001600160a01b03848116918217845560405192169182907f8be0079c531659141344cd1fd0a4f28419497f9722a3daafe3b4186f6b6457e0905f90a3505050565b5f807ff0c57e16840df040f15088dc2f81fe391c3923bec73e23a9662efc9c229c6a005b92915050565b611677611740565b6110e781611765565b5f60018260038111156116955761169561190e565b036116a257506003919050565b60028260038111156116b6576116b661190e565b036116c357506005919050565b60038260038111156116d7576116d761190e565b036116e457505f19919050565b505f919050565b6116f48261176d565b6040516001600160a01b038316907fbc7cd75a20ee27fd9adebab32041f755214dbc6bffa90cc0225b39da2e5c2d3b905f90a280511561173857610a3382826117d0565b6109c1611870565b61174861188f565b610d7357604051631afcd79f60e31b815260040160405180910390fd5b6110b5611740565b806001600160a01b03163b5f036117a257604051634c9c8ce360e01b81526001600160a01b0382166004820152602401610747565b5f516020611da05f395f51905f5280546001600160a01b0319166001600160a01b0392909216919091179055565b60605f6117dd84846118a8565b90508080156117fe57505f3d11806117fe57505f846001600160a01b03163b115b156118135761180b6118bb565b915050611669565b801561183d57604051639996b31560e01b81526001600160a01b0385166004820152602401610747565b3d156118505761184b6118d4565b611869565b60405163d6bda27560e01b815260040160405180910390fd5b5092915050565b3415610d735760405163b398979f60e01b815260040160405180910390fd5b5f611898611645565b54600160401b900460ff16919050565b5f5f5f835160208501865af49392505050565b6040513d81523d5f602083013e3d602001810160405290565b6040513d5f823e3d81fd5b6001600160a01b03811681146110e7575f5ffd5b5f60208284031215611903575f5ffd5b8135611260816118df565b634e487b7160e01b5f52602160045260245ffd5b610140810160048c1061194357634e487b7160e01b5f52602160045260245ffd5b8b82528a60208301526001600160801b038a1660408301526001600160801b038916606083015261197f60808301896001600160801b03169052565b6001600160801b0396871660a083015294861660c082015292851660e084015293166101008201529115156101209092019190915295945050505050565b634e487b7160e01b5f52604160045260245ffd5b604051601f8201601f1916810167ffffffffffffffff811182821017156119fa576119fa6119bd565b604052919050565b5f5f60408385031215611a13575f5ffd5b8235611a1e816118df565b9150602083013567ffffffffffffffff811115611a39575f5ffd5b8301601f81018513611a49575f5ffd5b803567ffffffffffffffff811115611a6357611a636119bd565b611a76601f8201601f19166020016119d1565b818152866020838501011115611a8a575f5ffd5b816020840160208301375f602083830101528093505050509250929050565b5f5f5f60608486031215611abb575f5ffd5b8335611ac6816118df565b9250602084013591506040840135611add816118df565b809150509250925092565b5f60208284031215611af8575f5ffd5b813567ffffffffffffffff811115611b0e575f5ffd5b8201601f81018413611b1e575f5ffd5b803567ffffffffffffffff811115611b3857611b386119bd565b8060051b611b48602082016119d1565b91825260208184018101929081019087841115611b63575f5ffd5b6020850194505b838510156106f75784359250611b7f836118df565b82825260209485019490910190611b6a565b600481106110e7575f5ffd5b5f60208284031215611bad575f5ffd5b813561126081611b91565b602081525f82518060208401528060208501604085015e5f604082850101526040601f19601f83011684010191505092915050565b5f5f60408385031215611bfe575f5ffd5b8235611c0981611b91565b946020939093013593505050565b5f5f5f5f60808587031215611c2a575f5ffd5b8435611c35816118df565b93506020850135611c45816118df565b92506040850135611c55816118df565b91506060850135611c65816118df565b939692955090935050565b634e487b7160e01b5f52601160045260245ffd5b808202811582820484141761166957611669611c70565b5f82611cb557634e487b7160e01b5f52601260045260245ffd5b500490565b8082018082111561166957611669611c70565b6001600160801b03818116838216019081111561166957611669611c70565b634e487b7160e01b5f52603260045260245ffd5b5f5f5f60608486031215611d12575f5ffd5b8351611d1d816118df565b6020850151909350611d2e81611b91565b80925050604084015190509250925092565b8181038181111561166957611669611c70565b5f82518060208501845e5f920191825250919050565b5f60208284031215611d79575f5ffd5b81518015158114611260575f5ffd5b5f60208284031215611d98575f5ffd5b505191905056fe360894a13ba1a3210667c828492db98dca3e2076cc3735a920a3ca505d382bbca264697066735822122001242bf1614b4ee57198e9b7971bd4f531612337a41429ee15eadd0c64bf3ba264736f6c634300081e0033","linkReferences":{}},"methodIdentifiers":{"DECIMALS()":"2e0f2625","UPGRADE_INTERFACE_VERSION()":"ad3cb1cc","USDT()":"c54e44eb","admin()":"f851a440","batchAdd(address[])":"55618c31","claim()":"4e71d92d","emergencyWithdraw(address,uint256,address)":"551512de","getProfitFeeAward(address)":"b4fa8278","getStakeFeeAward(address)":"bde9c318","getTaxFeeAward(address)":"00351925","getUserAward(address)":"3e4ff6f2","initialize(address,address,address,address)":"f8c8765e","lex()":"7d0a1518","nodeDividendsV1()":"9f45a7ea","owner()":"8da5cb5b","perStakingAward(uint8)":"58125557","proxiableUUID()":"52d1902d","renounceOwnership()":"715018a6","setAddrConfig(address)":"81040150","totalStaking()":"165defa4","transferOwnership(address)":"f2fde38b","treasuryLiquidity()":"09fb6698","updateFarm(uint8,uint256)":"afaf46b8","upgradeToAndCall(address,bytes)":"4f1ef286","userInfo(address)":"1959a002"},"id":46}