{"abi":[{"type":"function","name":"DECIMALS","inputs":[],"outputs":[{"name":"","type":"uint256","internalType":"uint256"}],"stateMutability":"view"},{"type":"function","name":"UPGRADE_INTERFACE_VERSION","inputs":[],"outputs":[{"name":"","type":"string","internalType":"string"}],"stateMutability":"view"},{"type":"function","name":"USDT","inputs":[],"outputs":[{"name":"","type":"address","internalType":"address"}],"stateMutability":"view"},{"type":"function","name":"admin","inputs":[],"outputs":[{"name":"","type":"address","internalType":"address"}],"stateMutability":"view"},{"type":"function","name":"batchAdd","inputs":[{"name":"users","type":"address[]","internalType":"address[]"}],"outputs":[],"stateMutability":"nonpayable"},{"type":"function","name":"claim","inputs":[],"outputs":[],"stateMutability":"nonpayable"},{"type":"function","name":"emergencyWithdraw","inputs":[{"name":"token","type":"address","internalType":"address"},{"name":"amount","type":"uint256","internalType":"uint256"},{"name":"to","type":"address","internalType":"address"}],"outputs":[],"stateMutability":"nonpayable"},{"type":"function","name":"getProfitFeeAward","inputs":[{"name":"user","type":"address","internalType":"address"}],"outputs":[{"name":"","type":"uint256","internalType":"uint256"}],"stateMutability":"view"},{"type":"function","name":"getStakeFeeAward","inputs":[{"name":"user","type":"address","internalType":"address"}],"outputs":[{"name":"","type":"uint256","internalType":"uint256"}],"stateMutability":"view"},{"type":"function","name":"getTaxFeeAward","inputs":[{"name":"user","type":"address","internalType":"address"}],"outputs":[{"name":"","type":"uint256","internalType":"uint256"}],"stateMutability":"view"},{"type":"function","name":"getUserAward","inputs":[{"name":"user","type":"address","internalType":"address"}],"outputs":[{"name":"","type":"uint256","internalType":"uint256"}],"stateMutability":"view"},{"type":"function","name":"getUserStaking","inputs":[{"name":"user","type":"address","internalType":"address"}],"outputs":[{"name":"","type":"uint256","internalType":"uint256"}],"stateMutability":"view"},{"type":"function","name":"initialize","inputs":[{"name":"_lex","type":"address","internalType":"address"},{"name":"_nodeDividendsV1","type":"address","internalType":"address"},{"name":"_admin","type":"address","internalType":"address"},{"name":"_USDT","type":"address","internalType":"address"}],"outputs":[],"stateMutability":"nonpayable"},{"type":"function","name":"lex","inputs":[],"outputs":[{"name":"","type":"address","internalType":"address"}],"stateMutability":"view"},{"type":"function","name":"nodeDividendsV1","inputs":[],"outputs":[{"name":"","type":"address","internalType":"address"}],"stateMutability":"view"},{"type":"function","name":"owner","inputs":[],"outputs":[{"name":"","type":"address","internalType":"address"}],"stateMutability":"view"},{"type":"function","name":"perStakingAward","inputs":[{"name":"","type":"uint8","internalType":"enum Models.Source"}],"outputs":[{"name":"","type":"uint256","internalType":"uint256"}],"stateMutability":"view"},{"type":"function","name":"proxiableUUID","inputs":[],"outputs":[{"name":"","type":"bytes32","internalType":"bytes32"}],"stateMutability":"view"},{"type":"function","name":"renounceOwnership","inputs":[],"outputs":[],"stateMutability":"nonpayable"},{"type":"function","name":"setAddrConfig","inputs":[{"name":"_treasuryLiquidity","type":"address","internalType":"address"}],"outputs":[],"stateMutability":"nonpayable"},{"type":"function","name":"totalStaking","inputs":[],"outputs":[{"name":"","type":"uint256","internalType":"uint256"}],"stateMutability":"view"},{"type":"function","name":"transferOwnership","inputs":[{"name":"newOwner","type":"address","internalType":"address"}],"outputs":[],"stateMutability":"nonpayable"},{"type":"function","name":"treasuryLiquidity","inputs":[],"outputs":[{"name":"","type":"address","internalType":"address"}],"stateMutability":"view"},{"type":"function","name":"updateFarm","inputs":[{"name":"source","type":"uint8","internalType":"enum Models.Source"},{"name":"amount","type":"uint256","internalType":"uint256"}],"outputs":[],"stateMutability":"nonpayable"},{"type":"function","name":"upgradeToAndCall","inputs":[{"name":"newImplementation","type":"address","internalType":"address"},{"name":"data","type":"bytes","internalType":"bytes"}],"outputs":[],"stateMutability":"payable"},{"type":"function","name":"userInfo","inputs":[{"name":"","type":"address","internalType":"address"}],"outputs":[{"name":"nodeType","type":"uint8","internalType":"enum Models.NodeType"},{"name":"stakingAmount","type":"uint256","internalType":"uint256"},{"name":"taxExtracted","type":"uint128","internalType":"uint128"},{"name":"profitExtracted","type":"uint128","internalType":"uint128"},{"name":"stakeExtracted","type":"uint128","internalType":"uint128"},{"name":"extracted","type":"uint128","internalType":"uint128"},{"name":"debtTax","type":"uint128","internalType":"uint128"},{"name":"debtProfit","type":"uint128","internalType":"uint128"},{"name":"debtStake","type":"uint128","internalType":"uint128"},{"name":"isOut","type":"bool","internalType":"bool"}],"stateMutability":"view"},{"type":"event","name":"Initialized","inputs":[{"name":"version","type":"uint64","indexed":false,"internalType":"uint64"}],"anonymous":false},{"type":"event","name":"OwnershipTransferred","inputs":[{"name":"previousOwner","type":"address","indexed":true,"internalType":"address"},{"name":"newOwner","type":"address","indexed":true,"internalType":"address"}],"anonymous":false},{"type":"event","name":"Upgraded","inputs":[{"name":"implementation","type":"address","indexed":true,"internalType":"address"}],"anonymous":false},{"type":"error","name":"AddressEmptyCode","inputs":[{"name":"target","type":"address","internalType":"address"}]},{"type":"error","name":"ERC1967InvalidImplementation","inputs":[{"name":"implementation","type":"address","internalType":"address"}]},{"type":"error","name":"ERC1967NonPayable","inputs":[]},{"type":"error","name":"FailedCall","inputs":[]},{"type":"error","name":"InvalidInitialization","inputs":[]},{"type":"error","name":"NotInitializing","inputs":[]},{"type":"error","name":"OwnableInvalidOwner","inputs":[{"name":"owner","type":"address","internalType":"address"}]},{"type":"error","name":"OwnableUnauthorizedAccount","inputs":[{"name":"account","type":"address","internalType":"address"}]},{"type":"error","name":"UUPSUnauthorizedCallContext","inputs":[]},{"type":"error","name":"UUPSUnsupportedProxiableUUID","inputs":[{"name":"slot","type":"bytes32","internalType":"bytes32"}]}],"bytecode":{"object":"0x60a0604052306080523480156012575f5ffd5b50608051611ec86100395f395f818161149e015281816114c701526116060152611ec85ff3fe60806040526004361061017a575f3560e01c8063715018a6116100cd578063afaf46b811610087578063c54e44eb11610062578063c54e44eb146104f0578063f2fde38b1461050f578063f851a4401461052e578063f8c8765e1461054d575f5ffd5b8063afaf46b814610493578063b4fa8278146104b2578063bde9c318146104d1575f5ffd5b8063715018a6146103a95780637d0a1518146103bd57806381040150146103dc5780638da5cb5b146103fb5780639f45a7ea14610437578063ad3cb1cc14610456575f5ffd5b80633e4ff6f21161013857806352d1902d1161011357806352d1902d1461032c578063551512de1461034057806355618c311461035f578063581255571461037e575f5ffd5b80633e4ff6f2146102e45780634e71d92d146103035780634f1ef28614610319575f5ffd5b80623519251461017e57806309fb6698146101b05780630c0fd549146101e7578063165defa41461021e5780631959a002146102335780632e0f2625146102cb575b5f5ffd5b348015610189575f5ffd5b5061019d6101983660046119bb565b61056c565b6040519081526020015b60405180910390f35b3480156101bb575f5ffd5b506002546101cf906001600160a01b031681565b6040516001600160a01b0390911681526020016101a7565b3480156101f2575f5ffd5b5061019d6102013660046119bb565b6001600160a01b03165f9081526020819052604090206001015490565b348015610229575f5ffd5b5061019d60075481565b34801561023e575f5ffd5b506102b561024d3660046119bb565b5f6020819052908152604090208054600182015460028301546003840154600485015460059095015460ff9485169593946001600160801b0380851695600160801b95869004821695858316958190048316948284169492829004841693811692919004168a565b6040516101a79a999897969594939291906119ea565b3480156102d6575f5ffd5b5061019d6509184e72a00081565b3480156102ef575f5ffd5b5061019d6102fe3660046119bb565b610677565b34801561030e575f5ffd5b50610317610776565b005b610317610327366004611aca565b6109f4565b348015610337575f5ffd5b5061019d610a13565b34801561034b575f5ffd5b5061031761035a366004611b71565b610a2e565b34801561036a575f5ffd5b50610317610379366004611bb0565b610a85565b348015610389575f5ffd5b5061019d610398366004611c70565b60066020525f908152604090205481565b3480156103b4575f5ffd5b50610317610d0f565b3480156103c8575f5ffd5b506001546101cf906001600160a01b031681565b3480156103e7575f5ffd5b506103176103f63660046119bb565b610d22565b348015610406575f5ffd5b507f9016d09d72d40fdae2fd8ceac6b6234c7706214fd39c1cd1e609a0528c199300546001600160a01b03166101cf565b348015610442575f5ffd5b506005546101cf906001600160a01b031681565b348015610461575f5ffd5b50610486604051806040016040528060058152602001640352e302e360dc1b81525081565b6040516101a79190611c8b565b34801561049e575f5ffd5b506103176104ad366004611cc0565b610d4c565b3480156104bd575f5ffd5b5061019d6104cc3660046119bb565b610e17565b3480156104dc575f5ffd5b5061019d6104eb3660046119bb565b610f30565b3480156104fb575f5ffd5b506004546101cf906001600160a01b031681565b34801561051a575f5ffd5b506103176105293660046119bb565b611029565b348015610539575f5ffd5b506003546101cf906001600160a01b031681565b348015610558575f5ffd5b50610317610567366004611cea565b611066565b6001600160a01b0381165f9081526020819052604081206001810154158061059f57506005810154600160801b900460ff165b156105ac57505f92915050565b5f610608826001015460065f600160038111156105cb576105cb6119d6565b60038111156105dc576105dc6119d6565b815260208101919091526040015f2054600485015460028601546001600160801b0391821691166111ac565b90505f610616836001611210565b600284015490915081906106349084906001600160801b0316611d57565b111561066f5760028301546001600160801b03168111610654575f61066c565b600283015461066c906001600160801b031682611d6a565b91505b509392505050565b6001600160a01b0381165f908152602081905260408120600181015415806106aa57506005810154600160801b900460ff165b156106b757505f92915050565b5f6106c18461056c565b90505f6106cd85610e17565b90505f6106d986610f30565b90505f816106e78486611d57565b6106f19190611d57565b90505f6106fd86611348565b60038701549091508190610722908490600160801b90046001600160801b0316611d57565b111561076b576003860154600160801b90046001600160801b03168111610749575f610768565b600386015461076890600160801b90046001600160801b031682611d6a565b91505b509695505050505050565b335f90815260208190526040902060018101546107c45760405162461bcd60e51b81526020600482015260076024820152664e4f5f4e4f444560c81b60448201526064015b60405180910390fd5b6005810154600160801b900460ff16156108065760405162461bcd60e51b815260206004820152600360248201526213d55560ea1b60448201526064016107bb565b5f6108103361056c565b90505f61081c33610e17565b90505f61082833610f30565b90505f816108368486611d57565b6108409190611d57565b90505f811161087d5760405162461bcd60e51b81526020600482015260096024820152681393d7d49155d0549160ba1b60448201526064016107bb565b6002850180548591905f9061089c9084906001600160801b0316611d7d565b92506101000a8154816001600160801b0302191690836001600160801b03160217905550828560020160108282829054906101000a90046001600160801b03166108e69190611d7d565b92506101000a8154816001600160801b0302191690836001600160801b0316021790555081856003015f8282829054906101000a90046001600160801b031661092f9190611d7d565b92506101000a8154816001600160801b0302191690836001600160801b03160217905550808560030160108282829054906101000a90046001600160801b03166109799190611d7d565b92506101000a8154816001600160801b0302191690836001600160801b031602179055506109a685611348565b6003860154600160801b90046001600160801b0316106109d65760058501805460ff60801b1916600160801b1790555b6004546109ed906001600160a01b03163383611384565b5050505050565b6109fc611493565b610a0582611537565b610a0f828261153f565b5050565b5f610a1c6115fb565b505f516020611e735f395f51905f5290565b6003546001600160a01b03163314610a755760405162461bcd60e51b815260206004820152600a6024820152691393d517d4115493525560b21b60448201526064016107bb565b610a80838284611384565b505050565b610a8d611644565b5f5b8151811015610a0f575f5f5f848481518110610aad57610aad611d9c565b60200260200101516001600160a01b03166001600160a01b031681526020019081526020015f20905080600101545f03610d065760055483515f9182916001600160a01b039091169063b3a4836690879087908110610b0e57610b0e611d9c565b60200260200101516040518263ffffffff1660e01b8152600401610b4191906001600160a01b0391909116815260200190565b606060405180830381865afa158015610b5c573d5f5f3e3d5ffd5b505050506040513d601f19601f82011682018060405250810190610b809190611db0565b85549194509250839150849060ff19166001836003811115610ba457610ba46119d6565b021790555060018381018290555f5260066020527f3e5fec24aa4dc4e5aee2e025e51e1392c72a2500577559fae9665c6d52bd6a31546509184e72a00090610bec9083611df0565b610bf69190611e07565b6004840180546fffffffffffffffffffffffffffffffff19166001600160801b039290921691909117905560025f5260066020527f8819ef417987f8ae7a81f42cdfb18815282fe989326fbff903d13cf0e03ace29546509184e72a00090610c5e9083611df0565b610c689190611e07565b6004840180546001600160801b03928316600160801b0292169190911790556509184e72a00060065f600380811115610ca357610ca36119d6565b81526020019081526020015f205482610cbc9190611df0565b610cc69190611e07565b836005015f6101000a8154816001600160801b0302191690836001600160801b031602179055508060075f828254610cfe9190611d57565b909155505050505b50600101610a8f565b610d17611644565b610d205f61169f565b565b610d2a611644565b600280546001600160a01b0319166001600160a01b0392909216919091179055565b6001546001600160a01b0316331480610d6f57506002546001600160a01b031633145b610da85760405162461bcd60e51b815260206004820152600a6024820152691393d517d4115493525560b21b60448201526064016107bb565b60075415610a0f57600754610dc36509184e72a00083611df0565b610dcd9190611e07565b60065f846003811115610de257610de26119d6565b6003811115610df357610df36119d6565b81526020019081526020015f205f828254610e0e9190611d57565b90915550505050565b6001600160a01b0381165f90815260208190526040812060018101541580610e4a57506005810154600160801b900460ff165b15610e5757505f92915050565b600181015460025f81815260066020527f8819ef417987f8ae7a81f42cdfb18815282fe989326fbff903d13cf0e03ace29546004850154928501549193610eb79390926001600160801b03600160801b92839004811692909104166111ac565b90505f610ec5836002611210565b60028401549091508190610eea908490600160801b90046001600160801b0316611d57565b111561066f576002830154600160801b90046001600160801b03168111610f11575f61066c565b600283015461066c90600160801b90046001600160801b031682611d6a565b6001600160a01b0381165f90815260208190526040812060018101541580610f6357506005810154600160801b900460ff165b15610f7057505f92915050565b600181015460035f81815260066020527f75f96ab15d697e93042dc45b5c896c4b27e89bb6eaf39475c5c371cb2513f7d2546005850154928501549193610fc59390926001600160801b0391821691166111ac565b90505f610fd3836003611210565b60038401549091508190610ff19084906001600160801b0316611d57565b111561066f5760038301546001600160801b03168111611011575f61066c565b600383015461066c906001600160801b031682611d6a565b611031611644565b6001600160a01b03811661105a57604051631e4fbdf760e01b81525f60048201526024016107bb565b6110638161169f565b50565b5f61106f61170f565b805490915060ff600160401b820416159067ffffffffffffffff165f811580156110965750825b90505f8267ffffffffffffffff1660011480156110b25750303b155b9050811580156110c0575080155b156110de5760405163f92ee8a960e01b815260040160405180910390fd5b845467ffffffffffffffff19166001178555831561110857845460ff60401b1916600160401b1785555b61111133611737565b600180546001600160a01b03808c166001600160a01b031992831617909255600580548b8416908316179055600380548a8416908316179055600480549289169290911691909117905583156111a157845460ff60401b19168555604051600181527fc7f505b2f371ae2175ee4913f4499e1f2633a7b5936321eed1cdaeb6115181d29060200160405180910390a15b505050505050505050565b5f806509184e72a0006111bf8688611df0565b6111c99190611e07565b90508381116111db575f915050611208565b5f6111e68583611d6a565b90508381116111f9575f92505050611208565b6112038482611d6a565b925050505b949350505050565b5f6002826003811115611225576112256119d6565b036112b0576001835460ff166003811115611242576112426119d6565b0361125257506001820154611342565b6002835460ff16600381111561126a5761126a6119d6565b0361128657600183015461127f906002611df0565b9050611342565b6003835460ff16600381111561129e5761129e6119d6565b036112ab57505f19611342565b61133f565b6001835460ff1660038111156112c8576112c86119d6565b036112d857506001820154611342565b6002835460ff1660038111156112f0576112f06119d6565b0361131257600a8360010154600f6113089190611df0565b61127f9190611e07565b6003835460ff16600381111561132a5761132a6119d6565b0361133f57600183015461127f906002611df0565b505f5b92915050565b80545f90819061135a9060ff16611748565b90505f19810361136d57505f1992915050565b80836001015461137d9190611df0565b9392505050565b604080516001600160a01b038481166024830152604480830185905283518084039091018152606490920183526020820180516001600160e01b031663a9059cbb60e01b17905291515f928392908716916113df9190611e26565b5f604051808303815f865af19150503d805f8114611418576040519150601f19603f3d011682016040523d82523d5f602084013e61141d565b606091505b50915091508180156114475750805115806114475750808060200190518101906114479190611e3c565b6109ed5760405162461bcd60e51b815260206004820152601f60248201527f5472616e7366657248656c7065723a205452414e534645525f4641494c45440060448201526064016107bb565b306001600160a01b037f000000000000000000000000000000000000000000000000000000000000000016148061151957507f00000000000000000000000000000000000000000000000000000000000000006001600160a01b031661150d5f516020611e735f395f51905f52546001600160a01b031690565b6001600160a01b031614155b15610d205760405163703e46dd60e11b815260040160405180910390fd5b611063611644565b816001600160a01b03166352d1902d6040518163ffffffff1660e01b8152600401602060405180830381865afa925050508015611599575060408051601f3d908101601f1916820190925261159691810190611e5b565b60015b6115c157604051634c9c8ce360e01b81526001600160a01b03831660048201526024016107bb565b5f516020611e735f395f51905f5281146115f157604051632a87526960e21b8152600481018290526024016107bb565b610a8083836117b3565b306001600160a01b037f00000000000000000000000000000000000000000000000000000000000000001614610d205760405163703e46dd60e11b815260040160405180910390fd5b336116767f9016d09d72d40fdae2fd8ceac6b6234c7706214fd39c1cd1e609a0528c199300546001600160a01b031690565b6001600160a01b031614610d205760405163118cdaa760e01b81523360048201526024016107bb565b7f9016d09d72d40fdae2fd8ceac6b6234c7706214fd39c1cd1e609a0528c19930080546001600160a01b031981166001600160a01b03848116918217845560405192169182907f8be0079c531659141344cd1fd0a4f28419497f9722a3daafe3b4186f6b6457e0905f90a3505050565b5f807ff0c57e16840df040f15088dc2f81fe391c3923bec73e23a9662efc9c229c6a00611342565b61173f611808565b6110638161182d565b5f600182600381111561175d5761175d6119d6565b0361176a57506003919050565b600282600381111561177e5761177e6119d6565b0361178b57506005919050565b600382600381111561179f5761179f6119d6565b036117ac57505f19919050565b505f919050565b6117bc82611835565b6040516001600160a01b038316907fbc7cd75a20ee27fd9adebab32041f755214dbc6bffa90cc0225b39da2e5c2d3b905f90a280511561180057610a808282611898565b610a0f611938565b611810611957565b610d2057604051631afcd79f60e31b815260040160405180910390fd5b611031611808565b806001600160a01b03163b5f0361186a57604051634c9c8ce360e01b81526001600160a01b03821660048201526024016107bb565b5f516020611e735f395f51905f5280546001600160a01b0319166001600160a01b0392909216919091179055565b60605f6118a58484611970565b90508080156118c657505f3d11806118c657505f846001600160a01b03163b115b156118db576118d3611983565b915050611342565b801561190557604051639996b31560e01b81526001600160a01b03851660048201526024016107bb565b3d156119185761191361199c565b611931565b60405163d6bda27560e01b815260040160405180910390fd5b5092915050565b3415610d205760405163b398979f60e01b815260040160405180910390fd5b5f61196061170f565b54600160401b900460ff16919050565b5f5f5f835160208501865af49392505050565b6040513d81523d5f602083013e3d602001810160405290565b6040513d5f823e3d81fd5b6001600160a01b0381168114611063575f5ffd5b5f602082840312156119cb575f5ffd5b813561137d816119a7565b634e487b7160e01b5f52602160045260245ffd5b610140810160048c10611a0b57634e487b7160e01b5f52602160045260245ffd5b8b82528a60208301526001600160801b038a1660408301526001600160801b0389166060830152611a4760808301896001600160801b03169052565b6001600160801b0396871660a083015294861660c082015292851660e084015293166101008201529115156101209092019190915295945050505050565b634e487b7160e01b5f52604160045260245ffd5b604051601f8201601f1916810167ffffffffffffffff81118282101715611ac257611ac2611a85565b604052919050565b5f5f60408385031215611adb575f5ffd5b8235611ae6816119a7565b9150602083013567ffffffffffffffff811115611b01575f5ffd5b8301601f81018513611b11575f5ffd5b803567ffffffffffffffff811115611b2b57611b2b611a85565b611b3e601f8201601f1916602001611a99565b818152866020838501011115611b52575f5ffd5b816020840160208301375f602083830101528093505050509250929050565b5f5f5f60608486031215611b83575f5ffd5b8335611b8e816119a7565b9250602084013591506040840135611ba5816119a7565b809150509250925092565b5f60208284031215611bc0575f5ffd5b813567ffffffffffffffff811115611bd6575f5ffd5b8201601f81018413611be6575f5ffd5b803567ffffffffffffffff811115611c0057611c00611a85565b8060051b611c1060208201611a99565b91825260208184018101929081019087841115611c2b575f5ffd5b6020850194505b83851015611c595784359250611c47836119a7565b82825260209485019490910190611c32565b979650505050505050565b60048110611063575f5ffd5b5f60208284031215611c80575f5ffd5b813561137d81611c64565b602081525f82518060208401528060208501604085015e5f604082850101526040601f19601f83011684010191505092915050565b5f5f60408385031215611cd1575f5ffd5b8235611cdc81611c64565b946020939093013593505050565b5f5f5f5f60808587031215611cfd575f5ffd5b8435611d08816119a7565b93506020850135611d18816119a7565b92506040850135611d28816119a7565b91506060850135611d38816119a7565b939692955090935050565b634e487b7160e01b5f52601160045260245ffd5b8082018082111561134257611342611d43565b8181038181111561134257611342611d43565b6001600160801b03818116838216019081111561134257611342611d43565b634e487b7160e01b5f52603260045260245ffd5b5f5f5f60608486031215611dc2575f5ffd5b8351611dcd816119a7565b6020850151909350611dde81611c64565b80925050604084015190509250925092565b808202811582820484141761134257611342611d43565b5f82611e2157634e487b7160e01b5f52601260045260245ffd5b500490565b5f82518060208501845e5f920191825250919050565b5f60208284031215611e4c575f5ffd5b8151801515811461137d575f5ffd5b5f60208284031215611e6b575f5ffd5b505191905056fe360894a13ba1a3210667c828492db98dca3e2076cc3735a920a3ca505d382bbca2646970667358221220a7ed378d0147940e69f9fbd6650924c097d12992f08259f21b1c61565d9921be64736f6c634300081e0033","linkReferences":{}},"methodIdentifiers":{"DECIMALS()":"2e0f2625","UPGRADE_INTERFACE_VERSION()":"ad3cb1cc","USDT()":"c54e44eb","admin()":"f851a440","batchAdd(address[])":"55618c31","claim()":"4e71d92d","emergencyWithdraw(address,uint256,address)":"551512de","getProfitFeeAward(address)":"b4fa8278","getStakeFeeAward(address)":"bde9c318","getTaxFeeAward(address)":"00351925","getUserAward(address)":"3e4ff6f2","getUserStaking(address)":"0c0fd549","initialize(address,address,address,address)":"f8c8765e","lex()":"7d0a1518","nodeDividendsV1()":"9f45a7ea","owner()":"8da5cb5b","perStakingAward(uint8)":"58125557","proxiableUUID()":"52d1902d","renounceOwnership()":"715018a6","setAddrConfig(address)":"81040150","totalStaking()":"165defa4","transferOwnership(address)":"f2fde38b","treasuryLiquidity()":"09fb6698","updateFarm(uint8,uint256)":"afaf46b8","upgradeToAndCall(address,bytes)":"4f1ef286","userInfo(address)":"1959a002"},"id":48}