{"abi":[{"type":"function","name":"DECIMALS","inputs":[],"outputs":[{"name":"","type":"uint256","internalType":"uint256"}],"stateMutability":"view"},{"type":"function","name":"UPGRADE_INTERFACE_VERSION","inputs":[],"outputs":[{"name":"","type":"string","internalType":"string"}],"stateMutability":"view"},{"type":"function","name":"USDT","inputs":[],"outputs":[{"name":"","type":"address","internalType":"address"}],"stateMutability":"view"},{"type":"function","name":"admin","inputs":[],"outputs":[{"name":"","type":"address","internalType":"address"}],"stateMutability":"view"},{"type":"function","name":"batchAdd","inputs":[{"name":"users","type":"address[]","internalType":"address[]"}],"outputs":[],"stateMutability":"nonpayable"},{"type":"function","name":"claim","inputs":[],"outputs":[],"stateMutability":"nonpayable"},{"type":"function","name":"emergencyWithdraw","inputs":[{"name":"token","type":"address","internalType":"address"},{"name":"amount","type":"uint256","internalType":"uint256"},{"name":"to","type":"address","internalType":"address"}],"outputs":[],"stateMutability":"nonpayable"},{"type":"function","name":"getProfitFeeAward","inputs":[{"name":"user","type":"address","internalType":"address"}],"outputs":[{"name":"","type":"uint256","internalType":"uint256"}],"stateMutability":"view"},{"type":"function","name":"getStakeFeeAward","inputs":[{"name":"user","type":"address","internalType":"address"}],"outputs":[{"name":"","type":"uint256","internalType":"uint256"}],"stateMutability":"view"},{"type":"function","name":"getTaxFeeAward","inputs":[{"name":"user","type":"address","internalType":"address"}],"outputs":[{"name":"","type":"uint256","internalType":"uint256"}],"stateMutability":"view"},{"type":"function","name":"getUserAward","inputs":[{"name":"user","type":"address","internalType":"address"}],"outputs":[{"name":"","type":"uint256","internalType":"uint256"}],"stateMutability":"view"},{"type":"function","name":"getUserStaking","inputs":[{"name":"user","type":"address","internalType":"address"}],"outputs":[{"name":"","type":"uint256","internalType":"uint256"}],"stateMutability":"view"},{"type":"function","name":"initialize","inputs":[{"name":"_lex","type":"address","internalType":"address"},{"name":"_nodeDividendsV1","type":"address","internalType":"address"},{"name":"_admin","type":"address","internalType":"address"},{"name":"_USDT","type":"address","internalType":"address"}],"outputs":[],"stateMutability":"nonpayable"},{"type":"function","name":"lex","inputs":[],"outputs":[{"name":"","type":"address","internalType":"address"}],"stateMutability":"view"},{"type":"function","name":"nodeDividendsV1","inputs":[],"outputs":[{"name":"","type":"address","internalType":"address"}],"stateMutability":"view"},{"type":"function","name":"owner","inputs":[],"outputs":[{"name":"","type":"address","internalType":"address"}],"stateMutability":"view"},{"type":"function","name":"perStakingAward","inputs":[{"name":"","type":"uint8","internalType":"enum Models.Source"}],"outputs":[{"name":"","type":"uint256","internalType":"uint256"}],"stateMutability":"view"},{"type":"function","name":"proxiableUUID","inputs":[],"outputs":[{"name":"","type":"bytes32","internalType":"bytes32"}],"stateMutability":"view"},{"type":"function","name":"renounceOwnership","inputs":[],"outputs":[],"stateMutability":"nonpayable"},{"type":"function","name":"setAddrConfig","inputs":[{"name":"_treasuryLiquidity","type":"address","internalType":"address"}],"outputs":[],"stateMutability":"nonpayable"},{"type":"function","name":"totalStaking","inputs":[],"outputs":[{"name":"","type":"uint256","internalType":"uint256"}],"stateMutability":"view"},{"type":"function","name":"transferOwnership","inputs":[{"name":"newOwner","type":"address","internalType":"address"}],"outputs":[],"stateMutability":"nonpayable"},{"type":"function","name":"treasuryLiquidity","inputs":[],"outputs":[{"name":"","type":"address","internalType":"address"}],"stateMutability":"view"},{"type":"function","name":"updateFarm","inputs":[{"name":"source","type":"uint8","internalType":"enum Models.Source"},{"name":"amount","type":"uint256","internalType":"uint256"}],"outputs":[],"stateMutability":"nonpayable"},{"type":"function","name":"upgradeToAndCall","inputs":[{"name":"newImplementation","type":"address","internalType":"address"},{"name":"data","type":"bytes","internalType":"bytes"}],"outputs":[],"stateMutability":"payable"},{"type":"function","name":"userInfo","inputs":[{"name":"","type":"address","internalType":"address"}],"outputs":[{"name":"nodeType","type":"uint8","internalType":"enum Models.NodeType"},{"name":"stakingAmount","type":"uint256","internalType":"uint256"},{"name":"taxExtracted","type":"uint128","internalType":"uint128"},{"name":"profitExtracted","type":"uint128","internalType":"uint128"},{"name":"stakeExtracted","type":"uint128","internalType":"uint128"},{"name":"extracted","type":"uint128","internalType":"uint128"},{"name":"debtTax","type":"uint128","internalType":"uint128"},{"name":"debtProfit","type":"uint128","internalType":"uint128"},{"name":"debtStake","type":"uint128","internalType":"uint128"},{"name":"isOut","type":"bool","internalType":"bool"}],"stateMutability":"view"},{"type":"event","name":"Initialized","inputs":[{"name":"version","type":"uint64","indexed":false,"internalType":"uint64"}],"anonymous":false},{"type":"event","name":"OwnershipTransferred","inputs":[{"name":"previousOwner","type":"address","indexed":true,"internalType":"address"},{"name":"newOwner","type":"address","indexed":true,"internalType":"address"}],"anonymous":false},{"type":"event","name":"Upgraded","inputs":[{"name":"implementation","type":"address","indexed":true,"internalType":"address"}],"anonymous":false},{"type":"error","name":"AddressEmptyCode","inputs":[{"name":"target","type":"address","internalType":"address"}]},{"type":"error","name":"ERC1967InvalidImplementation","inputs":[{"name":"implementation","type":"address","internalType":"address"}]},{"type":"error","name":"ERC1967NonPayable","inputs":[]},{"type":"error","name":"FailedCall","inputs":[]},{"type":"error","name":"InvalidInitialization","inputs":[]},{"type":"error","name":"NotInitializing","inputs":[]},{"type":"error","name":"OwnableInvalidOwner","inputs":[{"name":"owner","type":"address","internalType":"address"}]},{"type":"error","name":"OwnableUnauthorizedAccount","inputs":[{"name":"account","type":"address","internalType":"address"}]},{"type":"error","name":"UUPSUnauthorizedCallContext","inputs":[]},{"type":"error","name":"UUPSUnsupportedProxiableUUID","inputs":[{"name":"slot","type":"bytes32","internalType":"bytes32"}]}],"bytecode":{"object":"0x60a08060405234602957306080526116f2908161002e82396080518181816108f501526109c10152f35b5f80fdfe60806040526004361015610011575f80fd5b5f3560e01c806235192514610ebf57806309fb669814610e975780630c0fd54914610e5d578063165defa414610e405780631959a00214610d775780632e0f262514610d575780633e4ff6f214610d345780634e71d92d14610b3d5780634f1ef2861461094957806352d1902d146108e3578063551512de146108a157806355618c311461060357806358125557146105c7578063715018a6146105605780637d0a15181461053857806381040150146104f55780638da5cb5b146104c15780639f45a7ea14610499578063ad3cb1cc1461043b578063afaf46b8146103e0578063b4fa8278146103bd578063bde9c31814610392578063c54e44eb1461036a578063f2fde38b1461033f578063f851a440146103175763f8c8765e14610136575f80fd5b346103135760803660031901126103135761014f610ee2565b6024356001600160a01b038116908190036103135761016c610ef8565b6064356001600160a01b0381169290839003610313575f51602061169d5f395f51905f52549360ff8560401c16159467ffffffffffffffff81168015908161030b575b6001149081610301575b1590816102f8575b506102e95767ffffffffffffffff1981166001175f51602061169d5f395f51905f5255856102bd575b506101f36115a5565b6101fb6115a5565b61020433611283565b60018060a01b03166001600160601b0360a01b60015416176001556001600160601b0360a01b600554161760055560018060a01b03166001600160601b0360a01b60035416176003556001600160601b0360a01b600454161760045561026657005b68ff0000000000000000195f51602061169d5f395f51905f5254165f51602061169d5f395f51905f52557fc7f505b2f371ae2175ee4913f4499e1f2633a7b5936321eed1cdaeb6115181d2602060405160018152a1005b68ffffffffffffffffff191668010000000000000001175f51602061169d5f395f51905f52555f6101ea565b63f92ee8a960e01b5f5260045ffd5b9050155f6101c1565b303b1591506101b9565b8791506101af565b5f80fd5b34610313575f366003190112610313576003546040516001600160a01b039091168152602090f35b346103135760203660031901126103135761036861035b610ee2565b610363611538565b611283565b005b34610313575f366003190112610313576004546040516001600160a01b039091168152602090f35b346103135760203660031901126103135760206103b56103b0610ee2565b611211565b604051908152f35b346103135760203660031901126103135760206103b56103db610ee2565b6111a5565b34610313576040366003190112610313576004356004811015610313576103689060018060a01b036001541633148015610427575b61041e906110df565b60243590611153565b506002546001600160a01b03163314610415565b34610313575f36600319011261031357604080519061045a8183610f2c565b600582526020820191640352e302e360dc1b83528151928391602083525180918160208501528484015e5f828201840152601f01601f19168101030190f35b34610313575f366003190112610313576005546040516001600160a01b039091168152602090f35b34610313575f366003190112610313575f51602061165d5f395f51905f52546040516001600160a01b039091168152602090f35b346103135760203660031901126103135761050e610ee2565b610516611538565b600280546001600160a01b0319166001600160a01b0392909216919091179055005b34610313575f366003190112610313576001546040516001600160a01b039091168152602090f35b34610313575f36600319011261031357610578611538565b5f51602061165d5f395f51905f5280546001600160a01b031981169091555f906001600160a01b03167f8be0079c531659141344cd1fd0a4f28419497f9722a3daafe3b4186f6b6457e08280a3005b34610313576020366003190112610313576004356004811015610313576105ed81610f0e565b5f526006602052602060405f2054604051908152f35b346103135760203660031901126103135760043567ffffffffffffffff811161031357366023820112156103135780600401359067ffffffffffffffff821161088d578160051b906040519261065c6020840185610f2c565b8352602460208401928201019036821161031357602401915b81831061086d5783610685611538565b5f5b8151811015610368576001600160a01b036106a28284611118565b51165f525f60205260405f2090600182018054156106c6575b506001915001610687565b6005546001600160a01b0390811691906060906106e38588611118565b51166024604051809581936359d241b360e11b835260048301525afa918215610862575f905f93610807575b5093826107fe939286610723600198610f0e565b60ff8019855416911617835555845f5260066020526107b86001600160801b036509184e72a00061075860405f205486611140565b04166001600160801b036004840191166001600160801b031982541617815560025f5260066020526001600160801b036509184e72a00061079d60405f205487611140565b04166001600160801b0382549181199060801b169116179055565b60035f5260066020526001600160801b036005816509184e72a0006107e160405f205487611140565b0416920191166001600160801b0319825416179055600754610f6a565b600755836106bb565b9250506060823d821161085a575b8161082260609383610f2c565b810103126103135781516001600160a01b0381160361031357602082015193600485101561031357604092909201519193600161070f565b3d9150610815565b6040513d5f823e3d90fd5b82356001600160a01b038116810361031357815260209283019201610675565b634e487b7160e01b5f52604160045260245ffd5b34610313576060366003190112610313576103686108bd610ee2565b6108c5610ef8565b6108da60018060a01b036003541633146110df565b60243591611440565b34610313575f366003190112610313577f00000000000000000000000000000000000000000000000000000000000000006001600160a01b0316300361093a5760206040515f51602061167d5f395f51905f528152f35b63703e46dd60e11b5f5260045ffd5b60403660031901126103135761095d610ee2565b6024359067ffffffffffffffff8211610313573660238301121561031357816004013561098981610f4e565b926109976040519485610f2c565b818452366024838301011161031357815f9260246020930183870137840101526001600160a01b037f000000000000000000000000000000000000000000000000000000000000000016308114908115610b1b575b5061093a576109f9611538565b6040516352d1902d60e01b81526001600160a01b0382169290602081600481875afa5f9181610ae7575b50610a3b5783634c9c8ce360e01b5f5260045260245ffd5b805f51602061167d5f395f51905f52859203610ad55750823b15610ac3575f51602061167d5f395f51905f5280546001600160a01b031916821790557fbc7cd75a20ee27fd9adebab32041f755214dbc6bffa90cc0225b39da2e5c2d3b5f80a2805115610aab57610368916115d0565b505034610ab457005b63b398979f60e01b5f5260045ffd5b634c9c8ce360e01b5f5260045260245ffd5b632a87526960e21b5f5260045260245ffd5b9091506020813d602011610b13575b81610b0360209383610f2c565b8101031261031357519085610a23565b3d9150610af6565b5f51602061167d5f395f51905f52546001600160a01b031614159050836109ec565b34610313575f36600319011261031357335f525f60205260405f20600181015415610d05576005810160ff815460801c16610cda57610b7b33610f98565b90610b85336111a5565b92610b8f33611211565b92610ba384610b9e8784610f6a565b610f6a565b938415610ca957610c08610c7792610be86001600160801b036103689981610bd48160028b019616828754166110bf565b16821985541617845516825460801c6110bf565b81546001600160801b031660809190911b6001600160801b031916179055565b6001600160801b03610c2381600386019316828454166110bf565b166001600160801b0319825416178155610c6d610c4d6001600160801b038716835460801c6110bf565b82546001600160801b031660809190911b6001600160801b031916178255565b5460801c91611417565b1115610c92575b5060045433906001600160a01b0316611440565b805460ff60801b1916600160801b17905582610c7e565b60405162461bcd60e51b81526020600482015260096024820152681393d7d49155d0549160ba1b6044820152606490fd5b60405162461bcd60e51b815260206004820152600360248201526213d55560ea1b6044820152606490fd5b60405162461bcd60e51b81526020600482015260076024820152664e4f5f4e4f444560c81b6044820152606490fd5b346103135760203660031901126103135760206103b5610d52610ee2565b611043565b34610313575f3660031901126103135760206040516509184e72a0008152f35b34610313576020366003190112610313576001600160a01b03610d98610ee2565b165f525f60205261014060405f2060ff80825416916001810154906002810154600382015490600560048401549301549360405196610dd681610f0e565b875260208701526001600160801b038116604087015260801c60608601526001600160801b038116608086015260801c60a08501526001600160801b03811660c085015260801c60e08401526001600160801b03811661010084015260801c161515610120820152f35b34610313575f366003190112610313576020600754604051908152f35b34610313576020366003190112610313576001600160a01b03610e7e610ee2565b165f525f6020526020600160405f200154604051908152f35b34610313575f366003190112610313576002546040516001600160a01b039091168152602090f35b346103135760203660031901126103135760206103b5610edd610ee2565b610f98565b600435906001600160a01b038216820361031357565b604435906001600160a01b038216820361031357565b60041115610f1857565b634e487b7160e01b5f52602160045260245ffd5b90601f8019910116810190811067ffffffffffffffff82111761088d57604052565b67ffffffffffffffff811161088d57601f01601f191660200190565b91908201809211610f7757565b634e487b7160e01b5f52601160045260245ffd5b91908203918211610f7757565b6001600160a01b03165f908152602081905260409020600181015480158015611032575b61102c5760015f526006602052610fff610ff960405f2054926001600160801b036004860154166001600160801b036002870154169485926112f4565b92611331565b908161100b8483610f6a565b1161101557505090565b9091508082111561102c5761102991610f8b565b90565b50505f90565b5060ff600583015460801c16610fbc565b60018060a01b0381165f525f60205260405f209060018201541580156110ae575b61102c5780610b9e61107861109193610f98565b9161108b611085826111a5565b91611211565b92610f6a565b90600361109d82611417565b91015460801c8161100b8483610f6a565b5060ff600583015460801c16611064565b906001600160801b03809116911601906001600160801b038211610f7757565b156110e657565b60405162461bcd60e51b815260206004820152600a6024820152691393d517d4115493525560b21b6044820152606490fd5b805182101561112c5760209160051b010190565b634e487b7160e01b5f52603260045260245ffd5b81810292918115918404141715610f7757565b906007549081156111a0576509184e72a0008102908082046509184e72a0001490151715610f7757049061118681610f0e565b5f52600660205261119c60405f20918254610f6a565b9055565b505050565b6001600160a01b03165f908152602081905260409020600181015480158015611200575b61102c5760025f526006602052610fff6111fa60405f205492600485015460801c600286015460801c9485926112f4565b926113af565b5060ff600583015460801c166111c9565b6001600160a01b03165f908152602081905260409020600181015480158015611272575b61102c5760035f526006602052610fff610ff960405f2054926001600160801b036005860154166001600160801b036003870154169485926112f4565b5060ff600583015460801c16611235565b6001600160a01b031680156112e1575f51602061165d5f395f51905f5280546001600160a01b0319811683179091556001600160a01b03167f8be0079c531659141344cd1fd0a4f28419497f9722a3daafe3b4186f6b6457e05f80a3565b631e4fbdf760e01b5f525f60045260245ffd5b6509184e72a0009161130591611140565b04908082111561132a5761131891610f8b565b908082111561102c5761102991610f8b565b5050505f90565b60ff81541661133f81610f0e565b600181146113a75761135081610f0e565b600281146113885760039061136481610f0e565b1461136e57505f90565b600101548060011b9080820460021490151715610f775790565b5060010154600f810290808204600f1490151715610f7757600a900490565b506001015490565b60ff815416906113be82610f0e565b6001821461140e576113cf82610f0e565b600282146113f257506003906113e481610f0e565b146113ed575f90565b5f1990565b6001915001548060011b9080820460021490151715610f775790565b60019150015490565b61142460ff82541661156b565b5f198114611439576001611029920154611140565b50505f1990565b5f929183809360405190602082019363a9059cbb60e01b855260018060a01b0316602483015260448201526044815261147a606482610f2c565b51925af13d15611531573d61148e81610f4e565b9061149c6040519283610f2c565b81523d5f602083013e5b816114f9575b50156114b457565b60405162461bcd60e51b815260206004820152601f60248201527f5472616e7366657248656c7065723a205452414e534645525f4641494c4544006044820152606490fd5b805180159250821561150e575b50505f6114ac565b819250906020918101031261031357602001518015158103610313575f80611506565b60606114a6565b5f51602061165d5f395f51905f52546001600160a01b0316330361155857565b63118cdaa760e01b5f523360045260245ffd5b61157481610f0e565b6001811461159f5761158581610f0e565b60028114611599576003906113e481610f0e565b50600590565b50600390565b60ff5f51602061169d5f395f51905f525460401c16156115c157565b631afcd79f60e31b5f5260045ffd5b905f8091602081519101845af48080611649575b156116045750506040513d81523d5f602083013e60203d82010160405290565b1561162957639996b31560e01b5f9081526001600160a01b0391909116600452602490fd5b3d1561163a576040513d5f823e3d90fd5b63d6bda27560e01b5f5260045ffd5b503d1515806115e45750813b15156115e456fe9016d09d72d40fdae2fd8ceac6b6234c7706214fd39c1cd1e609a0528c199300360894a13ba1a3210667c828492db98dca3e2076cc3735a920a3ca505d382bbcf0c57e16840df040f15088dc2f81fe391c3923bec73e23a9662efc9c229c6a00a264697066735822122068a4796baf410a80d10563cce643da9d595c5c8e2a8d9f2e3bb9d9870eb901ce64736f6c634300081e0033","linkReferences":{}},"methodIdentifiers":{"DECIMALS()":"2e0f2625","UPGRADE_INTERFACE_VERSION()":"ad3cb1cc","USDT()":"c54e44eb","admin()":"f851a440","batchAdd(address[])":"55618c31","claim()":"4e71d92d","emergencyWithdraw(address,uint256,address)":"551512de","getProfitFeeAward(address)":"b4fa8278","getStakeFeeAward(address)":"bde9c318","getTaxFeeAward(address)":"00351925","getUserAward(address)":"3e4ff6f2","getUserStaking(address)":"0c0fd549","initialize(address,address,address,address)":"f8c8765e","lex()":"7d0a1518","nodeDividendsV1()":"9f45a7ea","owner()":"8da5cb5b","perStakingAward(uint8)":"58125557","proxiableUUID()":"52d1902d","renounceOwnership()":"715018a6","setAddrConfig(address)":"81040150","totalStaking()":"165defa4","transferOwnership(address)":"f2fde38b","treasuryLiquidity()":"09fb6698","updateFarm(uint8,uint256)":"afaf46b8","upgradeToAndCall(address,bytes)":"4f1ef286","userInfo(address)":"1959a002"},"id":52}