{"abi":[{"type":"constructor","inputs":[{"name":"_initialRecipient","type":"address","internalType":"address"},{"name":"_wallet","type":"address","internalType":"address"},{"name":"_USDT","type":"address","internalType":"address"}],"stateMutability":"nonpayable"},{"type":"function","name":"BURN_MIN_LIMIT","inputs":[],"outputs":[{"name":"","type":"uint256","internalType":"uint256"}],"stateMutability":"view"},{"type":"function","name":"BURN_RATE","inputs":[],"outputs":[{"name":"","type":"uint256","internalType":"uint256"}],"stateMutability":"view"},{"type":"function","name":"DEAD","inputs":[],"outputs":[{"name":"","type":"address","internalType":"address"}],"stateMutability":"view"},{"type":"function","name":"USDT","inputs":[],"outputs":[{"name":"","type":"address","internalType":"address"}],"stateMutability":"view"},{"type":"function","name":"allowance","inputs":[{"name":"owner","type":"address","internalType":"address"},{"name":"spender","type":"address","internalType":"address"}],"outputs":[{"name":"","type":"uint256","internalType":"uint256"}],"stateMutability":"view"},{"type":"function","name":"allowlist","inputs":[{"name":"","type":"address","internalType":"address"}],"outputs":[{"name":"","type":"bool","internalType":"bool"}],"stateMutability":"view"},{"type":"function","name":"approve","inputs":[{"name":"spender","type":"address","internalType":"address"},{"name":"value","type":"uint256","internalType":"uint256"}],"outputs":[{"name":"","type":"bool","internalType":"bool"}],"stateMutability":"nonpayable"},{"type":"function","name":"balanceOf","inputs":[{"name":"account","type":"address","internalType":"address"}],"outputs":[{"name":"","type":"uint256","internalType":"uint256"}],"stateMutability":"view"},{"type":"function","name":"burnFinished","inputs":[],"outputs":[{"name":"","type":"bool","internalType":"bool"}],"stateMutability":"view"},{"type":"function","name":"buyRate","inputs":[],"outputs":[{"name":"","type":"uint256","internalType":"uint256"}],"stateMutability":"view"},{"type":"function","name":"decimals","inputs":[],"outputs":[{"name":"","type":"uint8","internalType":"uint8"}],"stateMutability":"view"},{"type":"function","name":"lastBurnTime","inputs":[],"outputs":[{"name":"","type":"uint256","internalType":"uint256"}],"stateMutability":"view"},{"type":"function","name":"name","inputs":[],"outputs":[{"name":"","type":"string","internalType":"string"}],"stateMutability":"view"},{"type":"function","name":"nodeDividends","inputs":[],"outputs":[{"name":"","type":"address","internalType":"address"}],"stateMutability":"view"},{"type":"function","name":"owner","inputs":[],"outputs":[{"name":"","type":"address","internalType":"address"}],"stateMutability":"view"},{"type":"function","name":"pancakePair","inputs":[],"outputs":[{"name":"","type":"address","internalType":"address"}],"stateMutability":"view"},{"type":"function","name":"pancakeRouter","inputs":[],"outputs":[{"name":"","type":"address","internalType":"contract IUniswapV2Router02"}],"stateMutability":"view"},{"type":"function","name":"payback","inputs":[],"outputs":[{"name":"","type":"address","internalType":"address"}],"stateMutability":"view"},{"type":"function","name":"renounceOwnership","inputs":[],"outputs":[],"stateMutability":"nonpayable"},{"type":"function","name":"setAllowlist","inputs":[{"name":"addrs","type":"address[]","internalType":"address[]"},{"name":"isAllow","type":"bool","internalType":"bool"}],"outputs":[],"stateMutability":"nonpayable"},{"type":"function","name":"setNodeDividends","inputs":[{"name":"_nodeDividends","type":"address","internalType":"address"}],"outputs":[],"stateMutability":"nonpayable"},{"type":"function","name":"setPaybackAddr","inputs":[{"name":"_payback","type":"address","internalType":"address"}],"outputs":[],"stateMutability":"nonpayable"},{"type":"function","name":"setRate","inputs":[{"name":"_buyRate","type":"uint256","internalType":"uint256"}],"outputs":[],"stateMutability":"nonpayable"},{"type":"function","name":"symbol","inputs":[],"outputs":[{"name":"","type":"string","internalType":"string"}],"stateMutability":"view"},{"type":"function","name":"totalSupply","inputs":[],"outputs":[{"name":"","type":"uint256","internalType":"uint256"}],"stateMutability":"view"},{"type":"function","name":"transfer","inputs":[{"name":"to","type":"address","internalType":"address"},{"name":"value","type":"uint256","internalType":"uint256"}],"outputs":[{"name":"","type":"bool","internalType":"bool"}],"stateMutability":"nonpayable"},{"type":"function","name":"transferFrom","inputs":[{"name":"from","type":"address","internalType":"address"},{"name":"to","type":"address","internalType":"address"},{"name":"value","type":"uint256","internalType":"uint256"}],"outputs":[{"name":"","type":"bool","internalType":"bool"}],"stateMutability":"nonpayable"},{"type":"function","name":"transferOwnership","inputs":[{"name":"newOwner","type":"address","internalType":"address"}],"outputs":[],"stateMutability":"nonpayable"},{"type":"function","name":"wallet","inputs":[],"outputs":[{"name":"","type":"address","internalType":"address"}],"stateMutability":"view"},{"type":"event","name":"Approval","inputs":[{"name":"owner","type":"address","indexed":true,"internalType":"address"},{"name":"spender","type":"address","indexed":true,"internalType":"address"},{"name":"value","type":"uint256","indexed":false,"internalType":"uint256"}],"anonymous":false},{"type":"event","name":"OwnershipTransferred","inputs":[{"name":"previousOwner","type":"address","indexed":true,"internalType":"address"},{"name":"newOwner","type":"address","indexed":true,"internalType":"address"}],"anonymous":false},{"type":"event","name":"SwapAndSendTax","inputs":[{"name":"recipient","type":"address","indexed":false,"internalType":"address"},{"name":"tokensSwapped","type":"uint256","indexed":false,"internalType":"uint256"}],"anonymous":false},{"type":"event","name":"Transfer","inputs":[{"name":"from","type":"address","indexed":true,"internalType":"address"},{"name":"to","type":"address","indexed":true,"internalType":"address"},{"name":"value","type":"uint256","indexed":false,"internalType":"uint256"}],"anonymous":false},{"type":"error","name":"ERC20InsufficientAllowance","inputs":[{"name":"spender","type":"address","internalType":"address"},{"name":"allowance","type":"uint256","internalType":"uint256"},{"name":"needed","type":"uint256","internalType":"uint256"}]},{"type":"error","name":"ERC20InsufficientBalance","inputs":[{"name":"sender","type":"address","internalType":"address"},{"name":"balance","type":"uint256","internalType":"uint256"},{"name":"needed","type":"uint256","internalType":"uint256"}]},{"type":"error","name":"ERC20InvalidApprover","inputs":[{"name":"approver","type":"address","internalType":"address"}]},{"type":"error","name":"ERC20InvalidReceiver","inputs":[{"name":"receiver","type":"address","internalType":"address"}]},{"type":"error","name":"ERC20InvalidSender","inputs":[{"name":"sender","type":"address","internalType":"address"}]},{"type":"error","name":"ERC20InvalidSpender","inputs":[{"name":"spender","type":"address","internalType":"address"}]},{"type":"error","name":"OwnableInvalidOwner","inputs":[{"name":"owner","type":"address","internalType":"address"}]},{"type":"error","name":"OwnableUnauthorizedAccount","inputs":[{"name":"account","type":"address","internalType":"address"}]}],"bytecode":{"object":"0x6080604052600680546001600160a01b0319167310ed43c718714eb63d5aa57b78b54704e256024e179055606460075534801561003a575f5ffd5b506040516123f63803806123f683398101604081905261005991610c49565b6040805180820182526003808252624c454f60e81b602080840182905284518086019095528285528401523392906100918382610d19565b50600461009e8282610d19565b5050506001600160a01b0381166100cf57604051631e4fbdf760e01b81525f60048201526024015b60405180910390fd5b6100d88161024b565b506100ee836a115eec47f6cf7e3500000061029c565b6001600160a01b038381165f908152600e602090815260408083208054600160ff1991821681179092558786168086529483902080549091169091179055600a80546001600160a01b03199081169094179055600980549093168585161790925542600d55600654825163c45a015560e01b8152925193169263c45a01559260048082019392918290030181865afa15801561018c573d5f5f3e3d5ffd5b505050506040513d601f19601f820116820180604052508101906101b09190610dd3565b6009546040516364e329cb60e11b81523060048201526001600160a01b03918216602482015291169063c9c65396906044016020604051808303815f875af11580156101fe573d5f5f3e3d5ffd5b505050506040513d601f19601f820116820180604052508101906102229190610dd3565b600880546001600160a01b0319166001600160a01b039290921691909117905550610f2e915050565b600580546001600160a01b038381166001600160a01b0319831681179093556040519116919082907f8be0079c531659141344cd1fd0a4f28419497f9722a3daafe3b4186f6b6457e0905f90a35050565b6001600160a01b0382166102c55760405163ec442f0560e01b81525f60048201526024016100c6565b6102d05f83836102d4565b5050565b600c54600160a01b900460ff16806102f357506001600160a01b038316155b8061030557506001600160a01b038216155b8061032757506001600160a01b0383165f908152600e602052604090205460ff165b8061034957506001600160a01b0382165f908152600e602052604090205460ff165b1561035e57610359838383610429565b505050565b6008546001600160a01b03908116908316036103af5760405162461bcd60e51b815260206004820152601060248201526f29a2a6262fa4a9a224a9a0a12622a21760811b60448201526064016100c6565b6008546001600160a01b0390811690841603610412575f6064600754836103d69190610e07565b6103e09190610e24565b90505f6103ed8284610e43565b9050811561040057610400853084610429565b61040b858583610429565b5050505050565b61041a61054f565b610422610826565b6103598383835b6001600160a01b038316610453578060025f8282546104489190610e56565b909155506104c39050565b6001600160a01b0383165f90815260208190526040902054818110156104a55760405163391434e360e21b81526001600160a01b038516600482015260248101829052604481018390526064016100c6565b6001600160a01b0384165f9081526020819052604090209082900390555b6001600160a01b0382166104df576002805482900390556104fd565b6001600160a01b0382165f9081526020819052604090208054820190555b816001600160a01b0316836001600160a01b03167fddf252ad1be2c89b69c2b068fc378daa952ba7f163c4a11628f55a4df523b3ef8360405161054291815260200190565b60405180910390a3505050565b305f90815260208190526040812054908190036105695750565b5f6064610577836028610e07565b6105819190610e24565b90505f6064610591846028610e07565b61059b9190610e24565b90505f816105a98486610e43565b6105b39190610e43565b600c549091506001600160a01b0316158015906105cf57505f83115b1561064a57600c546105ec9030906001600160a01b031685610429565b600c5460405163cc430ced60e01b8152600481018590526001600160a01b039091169063cc430ced906024015f604051808303815f87803b15801561062f575f5ffd5b505af1158015610641573d5f5f3e3d5ffd5b50505050610662565b600a546106629030906001600160a01b031685610429565b600b546001600160a01b03161580159061067b57505f82115b156107eb57600954600b546040516370a0823160e01b81526001600160a01b0391821660048201525f9291909116906370a0823190602401602060405180830381865afa1580156106ce573d5f5f3e3d5ffd5b505050506040513d601f19601f820116820180604052508101906106f29190610e69565b600b5490915061070c9084906001600160a01b03166109ea565b600954600b546040516370a0823160e01b81526001600160a01b0391821660048201525f9291909116906370a0823190602401602060405180830381865afa15801561075a573d5f5f3e3d5ffd5b505050506040513d601f19601f8201168201806040525081019061077e9190610e69565b600b549091506001600160a01b031663afaf46b8600161079e8585610e43565b6040518363ffffffff1660e01b81526004016107bb929190610e80565b5f604051808303815f87803b1580156107d2575f5ffd5b505af11580156107e4573d5f5f3e3d5ffd5b5050505050505b600a546001600160a01b03161580159061080457505f81115b1561082057600a546108209082906001600160a01b03166109ea565b50505050565b600c54600160a81b900460ff161561083a57565b600d5461084a9062015180610e56565b42101561085357565b61dead5f90815260208190527f44ad89ba62b98ff34f51403ac22759b55759460c0bb5521eb4b6ee3cff49cf835460025461088e9190610e43565b90506a115eec47f6cf7e3500000081116108bc5750600c805460ff60a81b1916600160a81b1790555f600755565b6008546001600160a01b03165f90815260208190526040812054908190036108fb5762015180600d5f8282546108f29190610e56565b90915550505050565b5f6103e861090a600584610e07565b6109149190610e24565b90506a115eec47f6cf7e3500000061092c8285610e43565b101561094a576109476a115eec47f6cf7e3500000084610e43565b90505b80156109cc57600854610969906001600160a01b031661dead83610429565b60085f9054906101000a90046001600160a01b03166001600160a01b031663fff6cae96040518163ffffffff1660e01b81526004015f604051808303815f87803b1580156109b5575f5ffd5b505af11580156109c7573d5f5f3e3d5ffd5b505050505b62015180600d5f8282546109e09190610e56565b9091555050505050565b815f036109f5575050565b600c805460ff60a01b1916600160a01b1790556040805160028082526060820183525f9260208301908036833701905050905030815f81518110610a3b57610a3b610eaa565b6001600160a01b039283166020918202929092010152600954825191169082906001908110610a6c57610a6c610eaa565b6001600160a01b039283166020918202929092010152600654610a929130911685610b54565b6006546001600160a01b0316635c11d795845f8486610ab242601e610e56565b6040518663ffffffff1660e01b8152600401610ad2959493929190610ebe565b5f604051808303815f87803b158015610ae9575f5ffd5b505af1925050508015610afa575060015b15610b4257604080516001600160a01b0384168152602081018590527faedb4dc54dc30d46d331ffcc44cd836607bea96c12e1b21a95210ed899184d04910160405180910390a15b5050600c805460ff60a01b1916905550565b61035983838360016001600160a01b038416610b855760405163e602df0560e01b81525f60048201526024016100c6565b6001600160a01b038316610bae57604051634a1406b160e11b81525f60048201526024016100c6565b6001600160a01b038085165f908152600160209081526040808320938716835292905220829055801561082057826001600160a01b0316846001600160a01b03167f8c5be1e5ebec7d5bd14f71427d1e84f3dd0314c0f7b2291e5b200ac8c7c3b92584604051610c2091815260200190565b60405180910390a350505050565b80516001600160a01b0381168114610c44575f5ffd5b919050565b5f5f5f60608486031215610c5b575f5ffd5b610c6484610c2e565b9250610c7260208501610c2e565b9150610c8060408501610c2e565b90509250925092565b634e487b7160e01b5f52604160045260245ffd5b600181811c90821680610cb157607f821691505b602082108103610ccf57634e487b7160e01b5f52602260045260245ffd5b50919050565b601f82111561035957805f5260205f20601f840160051c81016020851015610cfa5750805b601f840160051c820191505b8181101561040b575f8155600101610d06565b81516001600160401b03811115610d3257610d32610c89565b610d4681610d408454610c9d565b84610cd5565b6020601f821160018114610d78575f8315610d615750848201515b5f19600385901b1c1916600184901b17845561040b565b5f84815260208120601f198516915b82811015610da75787850151825560209485019460019092019101610d87565b5084821015610dc457868401515f19600387901b60f8161c191681555b50505050600190811b01905550565b5f60208284031215610de3575f5ffd5b610dec82610c2e565b9392505050565b634e487b7160e01b5f52601160045260245ffd5b8082028115828204841417610e1e57610e1e610df3565b92915050565b5f82610e3e57634e487b7160e01b5f52601260045260245ffd5b500490565b81810381811115610e1e57610e1e610df3565b80820180821115610e1e57610e1e610df3565b5f60208284031215610e79575f5ffd5b5051919050565b6040810160048410610ea057634e487b7160e01b5f52602160045260245ffd5b9281526020015290565b634e487b7160e01b5f52603260045260245ffd5b5f60a0820187835286602084015260a0604084015280865180835260c0850191506020880192505f5b81811015610f0e5783516001600160a01b0316835260209384019390920191600101610ee7565b50506001600160a01b039590951660608401525050608001529392505050565b6114bb80610f3b5f395ff3fe608060405234801561000f575f5ffd5b50600436106101c6575f3560e01c80638da5cb5b116100fe578063c54e44eb1161009e578063f01fe7c41161006e578063f01fe7c4146103f2578063f2fde38b14610405578063f846a88514610418578063fc37987b14610420575f5ffd5b8063c54e44eb1461038b578063c7fb372f1461039e578063dd62ed3e146103b1578063e3067449146103e9575f5ffd5b8063a7cd52cb116100d9578063a7cd52cb14610330578063a9059cbb14610352578063b8c9d25c14610365578063c21ebd0714610378575f5ffd5b80638da5cb5b146103045780638f011a281461031557806395d89b4114610328575f5ffd5b8063313ce5671161016957806370a082311161014457806370a08231146102ae578063715018a6146102d6578063779193ea146102de578063854bec87146102f1575f5ffd5b8063313ce5671461027757806334fcf43714610286578063521eb2731461029b575f5ffd5b8063095ea7b3116101a4578063095ea7b31461022557806318160ddd1461024857806323b872dd146102505780632f74359114610263575f5ffd5b806303fd2a45146101ca57806305501a6b146101f057806306fdde0314610210575b5f5ffd5b6101d361dead81565b6040516001600160a01b0390911681526020015b60405180910390f35b6102026a115eec47f6cf7e3500000081565b6040519081526020016101e7565b610218610429565b6040516101e79190611107565b610238610233366004611157565b6104b9565b60405190151581526020016101e7565b600254610202565b61023861025e36600461117f565b6104d2565b600c5461023890600160a81b900460ff1681565b604051601281526020016101e7565b6102996102943660046111b9565b6104f5565b005b600a546101d3906001600160a01b031681565b6102026102bc3660046111d0565b6001600160a01b03165f9081526020819052604090205490565b610299610502565b6102996102ec3660046111d0565b610515565b600c546101d3906001600160a01b031681565b6005546001600160a01b03166101d3565b6102996103233660046111d0565b610556565b610218610597565b61023861033e3660046111d0565b600e6020525f908152604090205460ff1681565b610238610360366004611157565b6105a6565b6008546101d3906001600160a01b031681565b6006546101d3906001600160a01b031681565b6009546101d3906001600160a01b031681565b600b546101d3906001600160a01b031681565b6102026103bf3660046111f0565b6001600160a01b039182165f90815260016020908152604080832093909416825291909152205490565b610202600d5481565b610299610400366004611244565b6105b3565b6102996104133660046111d0565b61061a565b610202600581565b61020260075481565b60606003805461043890611318565b80601f016020809104026020016040519081016040528092919081815260200182805461046490611318565b80156104af5780601f10610486576101008083540402835291602001916104af565b820191905f5260205f20905b81548152906001019060200180831161049257829003601f168201915b5050505050905090565b5f336104c681858561065c565b60019150505b92915050565b5f336104df858285610669565b6104ea8585856106e5565b506001949350505050565b6104fd610742565b600755565b61050a610742565b6105135f61076f565b565b61051d610742565b600c80546001600160a01b039092166001600160a01b0319909216821790555f908152600e60205260409020805460ff19166001179055565b61055e610742565b600b80546001600160a01b039092166001600160a01b0319909216821790555f908152600e60205260409020805460ff19166001179055565b60606004805461043890611318565b5f336104c68185856106e5565b6105bb610742565b5f5b82518110156106155781600e5f8584815181106105dc576105dc611350565b6020908102919091018101516001600160a01b031682528101919091526040015f20805460ff19169115159190911790556001016105bd565b505050565b610622610742565b6001600160a01b03811661065057604051631e4fbdf760e01b81525f60048201526024015b60405180910390fd5b6106598161076f565b50565b61061583838360016107c0565b6001600160a01b038381165f908152600160209081526040808320938616835292905220545f198110156106df57818110156106d157604051637dc7a0d960e11b81526001600160a01b03841660048201526024810182905260448101839052606401610647565b6106df84848484035f6107c0565b50505050565b6001600160a01b03831661070e57604051634b637e8f60e11b81525f6004820152602401610647565b6001600160a01b0382166107375760405163ec442f0560e01b81525f6004820152602401610647565b610615838383610892565b6005546001600160a01b031633146105135760405163118cdaa760e01b8152336004820152602401610647565b600580546001600160a01b038381166001600160a01b0319831681179093556040519116919082907f8be0079c531659141344cd1fd0a4f28419497f9722a3daafe3b4186f6b6457e0905f90a35050565b6001600160a01b0384166107e95760405163e602df0560e01b81525f6004820152602401610647565b6001600160a01b03831661081257604051634a1406b160e11b81525f6004820152602401610647565b6001600160a01b038085165f90815260016020908152604080832093871683529290522082905580156106df57826001600160a01b0316846001600160a01b03167f8c5be1e5ebec7d5bd14f71427d1e84f3dd0314c0f7b2291e5b200ac8c7c3b9258460405161088491815260200190565b60405180910390a350505050565b600c54600160a01b900460ff16806108b157506001600160a01b038316155b806108c357506001600160a01b038216155b806108e557506001600160a01b0383165f908152600e602052604090205460ff165b8061090757506001600160a01b0382165f908152600e602052604090205460ff165b15610917576106158383836109e2565b6008546001600160a01b03908116908316036109685760405162461bcd60e51b815260206004820152601060248201526f29a2a6262fa4a9a224a9a0a12622a21760811b6044820152606401610647565b6008546001600160a01b03908116908416036109cb575f60646007548361098f9190611378565b610999919061138f565b90505f6109a682846113ae565b905081156109b9576109b98530846109e2565b6109c48585836109e2565b5050505050565b6109d3610b08565b6109db610dd9565b6106158383835b6001600160a01b038316610a0c578060025f828254610a0191906113c1565b90915550610a7c9050565b6001600160a01b0383165f9081526020819052604090205481811015610a5e5760405163391434e360e21b81526001600160a01b03851660048201526024810182905260448101839052606401610647565b6001600160a01b0384165f9081526020819052604090209082900390555b6001600160a01b038216610a9857600280548290039055610ab6565b6001600160a01b0382165f9081526020819052604090208054820190555b816001600160a01b0316836001600160a01b03167fddf252ad1be2c89b69c2b068fc378daa952ba7f163c4a11628f55a4df523b3ef83604051610afb91815260200190565b60405180910390a3505050565b305f9081526020819052604081205490819003610b225750565b5f6064610b30836028611378565b610b3a919061138f565b90505f6064610b4a846028611378565b610b54919061138f565b90505f81610b6284866113ae565b610b6c91906113ae565b600c549091506001600160a01b031615801590610b8857505f83115b15610c0357600c54610ba59030906001600160a01b0316856109e2565b600c5460405163cc430ced60e01b8152600481018590526001600160a01b039091169063cc430ced906024015f604051808303815f87803b158015610be8575f5ffd5b505af1158015610bfa573d5f5f3e3d5ffd5b50505050610c1b565b600a54610c1b9030906001600160a01b0316856109e2565b600b546001600160a01b031615801590610c3457505f82115b15610da457600954600b546040516370a0823160e01b81526001600160a01b0391821660048201525f9291909116906370a0823190602401602060405180830381865afa158015610c87573d5f5f3e3d5ffd5b505050506040513d601f19601f82011682018060405250810190610cab91906113d4565b600b54909150610cc59084906001600160a01b0316610f9d565b600954600b546040516370a0823160e01b81526001600160a01b0391821660048201525f9291909116906370a0823190602401602060405180830381865afa158015610d13573d5f5f3e3d5ffd5b505050506040513d601f19601f82011682018060405250810190610d3791906113d4565b600b549091506001600160a01b031663afaf46b86001610d5785856113ae565b6040518363ffffffff1660e01b8152600401610d749291906113eb565b5f604051808303815f87803b158015610d8b575f5ffd5b505af1158015610d9d573d5f5f3e3d5ffd5b5050505050505b600a546001600160a01b031615801590610dbd57505f81115b156106df57600a546106df9082906001600160a01b0316610f9d565b600c54600160a81b900460ff1615610ded57565b600d54610dfd90620151806113c1565b421015610e0657565b61dead5f90815260208190527f44ad89ba62b98ff34f51403ac22759b55759460c0bb5521eb4b6ee3cff49cf8354600254610e4191906113ae565b90506a115eec47f6cf7e350000008111610e6f5750600c805460ff60a81b1916600160a81b1790555f600755565b6008546001600160a01b03165f9081526020819052604081205490819003610eae5762015180600d5f828254610ea591906113c1565b90915550505050565b5f6103e8610ebd600584611378565b610ec7919061138f565b90506a115eec47f6cf7e35000000610edf82856113ae565b1015610efd57610efa6a115eec47f6cf7e35000000846113ae565b90505b8015610f7f57600854610f1c906001600160a01b031661dead836109e2565b60085f9054906101000a90046001600160a01b03166001600160a01b031663fff6cae96040518163ffffffff1660e01b81526004015f604051808303815f87803b158015610f68575f5ffd5b505af1158015610f7a573d5f5f3e3d5ffd5b505050505b62015180600d5f828254610f9391906113c1565b9091555050505050565b815f03610fa8575050565b600c805460ff60a01b1916600160a01b1790556040805160028082526060820183525f9260208301908036833701905050905030815f81518110610fee57610fee611350565b6001600160a01b03928316602091820292909201015260095482519116908290600190811061101f5761101f611350565b6001600160a01b039283166020918202929092010152600654611045913091168561065c565b6006546001600160a01b0316635c11d795845f848661106542601e6113c1565b6040518663ffffffff1660e01b8152600401611085959493929190611415565b5f604051808303815f87803b15801561109c575f5ffd5b505af19250505080156110ad575060015b156110f557604080516001600160a01b0384168152602081018590527faedb4dc54dc30d46d331ffcc44cd836607bea96c12e1b21a95210ed899184d04910160405180910390a15b5050600c805460ff60a01b1916905550565b602081525f82518060208401528060208501604085015e5f604082850101526040601f19601f83011684010191505092915050565b80356001600160a01b0381168114611152575f5ffd5b919050565b5f5f60408385031215611168575f5ffd5b6111718361113c565b946020939093013593505050565b5f5f5f60608486031215611191575f5ffd5b61119a8461113c565b92506111a86020850161113c565b929592945050506040919091013590565b5f602082840312156111c9575f5ffd5b5035919050565b5f602082840312156111e0575f5ffd5b6111e98261113c565b9392505050565b5f5f60408385031215611201575f5ffd5b61120a8361113c565b91506112186020840161113c565b90509250929050565b634e487b7160e01b5f52604160045260245ffd5b80358015158114611152575f5ffd5b5f5f60408385031215611255575f5ffd5b823567ffffffffffffffff81111561126b575f5ffd5b8301601f8101851361127b575f5ffd5b803567ffffffffffffffff81111561129557611295611221565b8060051b604051601f19603f830116810181811067ffffffffffffffff821117156112c2576112c2611221565b6040529182526020818401810192908101888411156112df575f5ffd5b6020850194505b83851015611305576112f78561113c565b8152602094850194016112e6565b5094506112189250505060208401611235565b600181811c9082168061132c57607f821691505b60208210810361134a57634e487b7160e01b5f52602260045260245ffd5b50919050565b634e487b7160e01b5f52603260045260245ffd5b634e487b7160e01b5f52601160045260245ffd5b80820281158282048414176104cc576104cc611364565b5f826113a957634e487b7160e01b5f52601260045260245ffd5b500490565b818103818111156104cc576104cc611364565b808201808211156104cc576104cc611364565b5f602082840312156113e4575f5ffd5b5051919050565b604081016004841061140b57634e487b7160e01b5f52602160045260245ffd5b9281526020015290565b5f60a0820187835286602084015260a0604084015280865180835260c0850191506020880192505f5b818110156114655783516001600160a01b031683526020938401939092019160010161143e565b50506001600160a01b03959095166060840152505060800152939250505056fea264697066735822122089fecdab338bd60e7de98c6108af3d76f9f758e525fad5be95cd38b19321285664736f6c634300081e0033","linkReferences":{}},"methodIdentifiers":{"BURN_MIN_LIMIT()":"05501a6b","BURN_RATE()":"f846a885","DEAD()":"03fd2a45","USDT()":"c54e44eb","allowance(address,address)":"dd62ed3e","allowlist(address)":"a7cd52cb","approve(address,uint256)":"095ea7b3","balanceOf(address)":"70a08231","burnFinished()":"2f743591","buyRate()":"fc37987b","decimals()":"313ce567","lastBurnTime()":"e3067449","name()":"06fdde03","nodeDividends()":"c7fb372f","owner()":"8da5cb5b","pancakePair()":"b8c9d25c","pancakeRouter()":"c21ebd07","payback()":"854bec87","renounceOwnership()":"715018a6","setAllowlist(address[],bool)":"f01fe7c4","setNodeDividends(address)":"8f011a28","setPaybackAddr(address)":"779193ea","setRate(uint256)":"34fcf437","symbol()":"95d89b41","totalSupply()":"18160ddd","transfer(address,uint256)":"a9059cbb","transferFrom(address,address,uint256)":"23b872dd","transferOwnership(address)":"f2fde38b","wallet()":"521eb273"},"id":66}