{"abi":[{"type":"constructor","inputs":[{"name":"_initialRecipient","type":"address","internalType":"address"},{"name":"_wallet","type":"address","internalType":"address"},{"name":"_USDT","type":"address","internalType":"address"}],"stateMutability":"nonpayable"},{"type":"function","name":"BURN_MIN_LIMIT","inputs":[],"outputs":[{"name":"","type":"uint256","internalType":"uint256"}],"stateMutability":"view"},{"type":"function","name":"BURN_RATE","inputs":[],"outputs":[{"name":"","type":"uint256","internalType":"uint256"}],"stateMutability":"view"},{"type":"function","name":"DEAD","inputs":[],"outputs":[{"name":"","type":"address","internalType":"address"}],"stateMutability":"view"},{"type":"function","name":"USDT","inputs":[],"outputs":[{"name":"","type":"address","internalType":"address"}],"stateMutability":"view"},{"type":"function","name":"allowance","inputs":[{"name":"owner","type":"address","internalType":"address"},{"name":"spender","type":"address","internalType":"address"}],"outputs":[{"name":"","type":"uint256","internalType":"uint256"}],"stateMutability":"view"},{"type":"function","name":"allowlist","inputs":[{"name":"","type":"address","internalType":"address"}],"outputs":[{"name":"","type":"bool","internalType":"bool"}],"stateMutability":"view"},{"type":"function","name":"approve","inputs":[{"name":"spender","type":"address","internalType":"address"},{"name":"value","type":"uint256","internalType":"uint256"}],"outputs":[{"name":"","type":"bool","internalType":"bool"}],"stateMutability":"nonpayable"},{"type":"function","name":"balanceOf","inputs":[{"name":"account","type":"address","internalType":"address"}],"outputs":[{"name":"","type":"uint256","internalType":"uint256"}],"stateMutability":"view"},{"type":"function","name":"burnFinished","inputs":[],"outputs":[{"name":"","type":"bool","internalType":"bool"}],"stateMutability":"view"},{"type":"function","name":"buyRate","inputs":[],"outputs":[{"name":"","type":"uint256","internalType":"uint256"}],"stateMutability":"view"},{"type":"function","name":"decimals","inputs":[],"outputs":[{"name":"","type":"uint8","internalType":"uint8"}],"stateMutability":"view"},{"type":"function","name":"lastBurnTime","inputs":[],"outputs":[{"name":"","type":"uint256","internalType":"uint256"}],"stateMutability":"view"},{"type":"function","name":"name","inputs":[],"outputs":[{"name":"","type":"string","internalType":"string"}],"stateMutability":"view"},{"type":"function","name":"nodeDividends","inputs":[],"outputs":[{"name":"","type":"address","internalType":"address"}],"stateMutability":"view"},{"type":"function","name":"owner","inputs":[],"outputs":[{"name":"","type":"address","internalType":"address"}],"stateMutability":"view"},{"type":"function","name":"pancakePair","inputs":[],"outputs":[{"name":"","type":"address","internalType":"address"}],"stateMutability":"view"},{"type":"function","name":"pancakeRouter","inputs":[],"outputs":[{"name":"","type":"address","internalType":"contract IUniswapV2Router02"}],"stateMutability":"view"},{"type":"function","name":"payback","inputs":[],"outputs":[{"name":"","type":"address","internalType":"address"}],"stateMutability":"view"},{"type":"function","name":"renounceOwnership","inputs":[],"outputs":[],"stateMutability":"nonpayable"},{"type":"function","name":"setAddrConfig","inputs":[{"name":"_nodeDividends","type":"address","internalType":"address"},{"name":"_payback","type":"address","internalType":"address"}],"outputs":[],"stateMutability":"nonpayable"},{"type":"function","name":"setAllowlist","inputs":[{"name":"addrs","type":"address[]","internalType":"address[]"},{"name":"isAllow","type":"bool","internalType":"bool"}],"outputs":[],"stateMutability":"nonpayable"},{"type":"function","name":"setRate","inputs":[{"name":"_buyRate","type":"uint256","internalType":"uint256"}],"outputs":[],"stateMutability":"nonpayable"},{"type":"function","name":"symbol","inputs":[],"outputs":[{"name":"","type":"string","internalType":"string"}],"stateMutability":"view"},{"type":"function","name":"totalSupply","inputs":[],"outputs":[{"name":"","type":"uint256","internalType":"uint256"}],"stateMutability":"view"},{"type":"function","name":"transfer","inputs":[{"name":"to","type":"address","internalType":"address"},{"name":"value","type":"uint256","internalType":"uint256"}],"outputs":[{"name":"","type":"bool","internalType":"bool"}],"stateMutability":"nonpayable"},{"type":"function","name":"transferFrom","inputs":[{"name":"from","type":"address","internalType":"address"},{"name":"to","type":"address","internalType":"address"},{"name":"value","type":"uint256","internalType":"uint256"}],"outputs":[{"name":"","type":"bool","internalType":"bool"}],"stateMutability":"nonpayable"},{"type":"function","name":"transferOwnership","inputs":[{"name":"newOwner","type":"address","internalType":"address"}],"outputs":[],"stateMutability":"nonpayable"},{"type":"function","name":"wallet","inputs":[],"outputs":[{"name":"","type":"address","internalType":"address"}],"stateMutability":"view"},{"type":"event","name":"Approval","inputs":[{"name":"owner","type":"address","indexed":true,"internalType":"address"},{"name":"spender","type":"address","indexed":true,"internalType":"address"},{"name":"value","type":"uint256","indexed":false,"internalType":"uint256"}],"anonymous":false},{"type":"event","name":"OwnershipTransferred","inputs":[{"name":"previousOwner","type":"address","indexed":true,"internalType":"address"},{"name":"newOwner","type":"address","indexed":true,"internalType":"address"}],"anonymous":false},{"type":"event","name":"SwapAndSendTax","inputs":[{"name":"recipient","type":"address","indexed":false,"internalType":"address"},{"name":"tokensSwapped","type":"uint256","indexed":false,"internalType":"uint256"}],"anonymous":false},{"type":"event","name":"Transfer","inputs":[{"name":"from","type":"address","indexed":true,"internalType":"address"},{"name":"to","type":"address","indexed":true,"internalType":"address"},{"name":"value","type":"uint256","indexed":false,"internalType":"uint256"}],"anonymous":false},{"type":"error","name":"ERC20InsufficientAllowance","inputs":[{"name":"spender","type":"address","internalType":"address"},{"name":"allowance","type":"uint256","internalType":"uint256"},{"name":"needed","type":"uint256","internalType":"uint256"}]},{"type":"error","name":"ERC20InsufficientBalance","inputs":[{"name":"sender","type":"address","internalType":"address"},{"name":"balance","type":"uint256","internalType":"uint256"},{"name":"needed","type":"uint256","internalType":"uint256"}]},{"type":"error","name":"ERC20InvalidApprover","inputs":[{"name":"approver","type":"address","internalType":"address"}]},{"type":"error","name":"ERC20InvalidReceiver","inputs":[{"name":"receiver","type":"address","internalType":"address"}]},{"type":"error","name":"ERC20InvalidSender","inputs":[{"name":"sender","type":"address","internalType":"address"}]},{"type":"error","name":"ERC20InvalidSpender","inputs":[{"name":"spender","type":"address","internalType":"address"}]},{"type":"error","name":"OwnableInvalidOwner","inputs":[{"name":"owner","type":"address","internalType":"address"}]},{"type":"error","name":"OwnableUnauthorizedAccount","inputs":[{"name":"account","type":"address","internalType":"address"}]}],"bytecode":{"object":"0x6080604052600680546001600160a01b0319167310ed43c718714eb63d5aa57b78b54704e256024e179055606460075534801561003a575f5ffd5b506040516123c23803806123c283398101604081905261005991610c49565b6040805180820182526003808252624c454f60e81b602080840182905284518086019095528285528401523392906100918382610d19565b50600461009e8282610d19565b5050506001600160a01b0381166100cf57604051631e4fbdf760e01b81525f60048201526024015b60405180910390fd5b6100d88161024b565b506100ee836a115eec47f6cf7e3500000061029c565b6001600160a01b038381165f908152600e602090815260408083208054600160ff1991821681179092558786168086529483902080549091169091179055600a80546001600160a01b03199081169094179055600980549093168585161790925542600d55600654825163c45a015560e01b8152925193169263c45a01559260048082019392918290030181865afa15801561018c573d5f5f3e3d5ffd5b505050506040513d601f19601f820116820180604052508101906101b09190610dd3565b6009546040516364e329cb60e11b81523060048201526001600160a01b03918216602482015291169063c9c65396906044016020604051808303815f875af11580156101fe573d5f5f3e3d5ffd5b505050506040513d601f19601f820116820180604052508101906102229190610dd3565b600880546001600160a01b0319166001600160a01b039290921691909117905550610f2e915050565b600580546001600160a01b038381166001600160a01b0319831681179093556040519116919082907f8be0079c531659141344cd1fd0a4f28419497f9722a3daafe3b4186f6b6457e0905f90a35050565b6001600160a01b0382166102c55760405163ec442f0560e01b81525f60048201526024016100c6565b6102d05f83836102d4565b5050565b600c54600160a01b900460ff16806102f357506001600160a01b038316155b8061030557506001600160a01b038216155b8061032757506001600160a01b0383165f908152600e602052604090205460ff165b8061034957506001600160a01b0382165f908152600e602052604090205460ff165b1561035e57610359838383610429565b505050565b6008546001600160a01b03908116908316036103af5760405162461bcd60e51b815260206004820152601060248201526f29a2a6262fa4a9a224a9a0a12622a21760811b60448201526064016100c6565b6008546001600160a01b0390811690841603610412575f6064600754836103d69190610e07565b6103e09190610e24565b90505f6103ed8284610e43565b9050811561040057610400853084610429565b61040b858583610429565b5050505050565b61041a61054f565b610422610826565b6103598383835b6001600160a01b038316610453578060025f8282546104489190610e56565b909155506104c39050565b6001600160a01b0383165f90815260208190526040902054818110156104a55760405163391434e360e21b81526001600160a01b038516600482015260248101829052604481018390526064016100c6565b6001600160a01b0384165f9081526020819052604090209082900390555b6001600160a01b0382166104df576002805482900390556104fd565b6001600160a01b0382165f9081526020819052604090208054820190555b816001600160a01b0316836001600160a01b03167fddf252ad1be2c89b69c2b068fc378daa952ba7f163c4a11628f55a4df523b3ef8360405161054291815260200190565b60405180910390a3505050565b305f90815260208190526040812054908190036105695750565b5f6064610577836028610e07565b6105819190610e24565b90505f6064610591846028610e07565b61059b9190610e24565b90505f816105a98486610e43565b6105b39190610e43565b600c549091506001600160a01b0316158015906105cf57505f83115b1561064a57600c546105ec9030906001600160a01b031685610429565b600c5460405163cc430ced60e01b8152600481018590526001600160a01b039091169063cc430ced906024015f604051808303815f87803b15801561062f575f5ffd5b505af1158015610641573d5f5f3e3d5ffd5b50505050610662565b600a546106629030906001600160a01b031685610429565b600b546001600160a01b03161580159061067b57505f82115b156107eb57600954600b546040516370a0823160e01b81526001600160a01b0391821660048201525f9291909116906370a0823190602401602060405180830381865afa1580156106ce573d5f5f3e3d5ffd5b505050506040513d601f19601f820116820180604052508101906106f29190610e69565b600b5490915061070c9084906001600160a01b03166109ea565b600954600b546040516370a0823160e01b81526001600160a01b0391821660048201525f9291909116906370a0823190602401602060405180830381865afa15801561075a573d5f5f3e3d5ffd5b505050506040513d601f19601f8201168201806040525081019061077e9190610e69565b600b549091506001600160a01b031663afaf46b8600161079e8585610e43565b6040518363ffffffff1660e01b81526004016107bb929190610e80565b5f604051808303815f87803b1580156107d2575f5ffd5b505af11580156107e4573d5f5f3e3d5ffd5b5050505050505b600a546001600160a01b03161580159061080457505f81115b1561082057600a546108209082906001600160a01b03166109ea565b50505050565b600c54600160a81b900460ff161561083a57565b600d5461084a9062015180610e56565b42101561085357565b61dead5f90815260208190527f44ad89ba62b98ff34f51403ac22759b55759460c0bb5521eb4b6ee3cff49cf835460025461088e9190610e43565b90506a115eec47f6cf7e3500000081116108bc5750600c805460ff60a81b1916600160a81b1790555f600755565b6008546001600160a01b03165f90815260208190526040812054908190036108fb5762015180600d5f8282546108f29190610e56565b90915550505050565b5f6103e861090a600584610e07565b6109149190610e24565b90506a115eec47f6cf7e3500000061092c8285610e43565b101561094a576109476a115eec47f6cf7e3500000084610e43565b90505b80156109cc57600854610969906001600160a01b031661dead83610429565b60085f9054906101000a90046001600160a01b03166001600160a01b031663fff6cae96040518163ffffffff1660e01b81526004015f604051808303815f87803b1580156109b5575f5ffd5b505af11580156109c7573d5f5f3e3d5ffd5b505050505b62015180600d5f8282546109e09190610e56565b9091555050505050565b815f036109f5575050565b600c805460ff60a01b1916600160a01b1790556040805160028082526060820183525f9260208301908036833701905050905030815f81518110610a3b57610a3b610eaa565b6001600160a01b039283166020918202929092010152600954825191169082906001908110610a6c57610a6c610eaa565b6001600160a01b039283166020918202929092010152600654610a929130911685610b54565b6006546001600160a01b0316635c11d795845f8486610ab242601e610e56565b6040518663ffffffff1660e01b8152600401610ad2959493929190610ebe565b5f604051808303815f87803b158015610ae9575f5ffd5b505af1925050508015610afa575060015b15610b4257604080516001600160a01b0384168152602081018590527faedb4dc54dc30d46d331ffcc44cd836607bea96c12e1b21a95210ed899184d04910160405180910390a15b5050600c805460ff60a01b1916905550565b61035983838360016001600160a01b038416610b855760405163e602df0560e01b81525f60048201526024016100c6565b6001600160a01b038316610bae57604051634a1406b160e11b81525f60048201526024016100c6565b6001600160a01b038085165f908152600160209081526040808320938716835292905220829055801561082057826001600160a01b0316846001600160a01b03167f8c5be1e5ebec7d5bd14f71427d1e84f3dd0314c0f7b2291e5b200ac8c7c3b92584604051610c2091815260200190565b60405180910390a350505050565b80516001600160a01b0381168114610c44575f5ffd5b919050565b5f5f5f60608486031215610c5b575f5ffd5b610c6484610c2e565b9250610c7260208501610c2e565b9150610c8060408501610c2e565b90509250925092565b634e487b7160e01b5f52604160045260245ffd5b600181811c90821680610cb157607f821691505b602082108103610ccf57634e487b7160e01b5f52602260045260245ffd5b50919050565b601f82111561035957805f5260205f20601f840160051c81016020851015610cfa5750805b601f840160051c820191505b8181101561040b575f8155600101610d06565b81516001600160401b03811115610d3257610d32610c89565b610d4681610d408454610c9d565b84610cd5565b6020601f821160018114610d78575f8315610d615750848201515b5f19600385901b1c1916600184901b17845561040b565b5f84815260208120601f198516915b82811015610da75787850151825560209485019460019092019101610d87565b5084821015610dc457868401515f19600387901b60f8161c191681555b50505050600190811b01905550565b5f60208284031215610de3575f5ffd5b610dec82610c2e565b9392505050565b634e487b7160e01b5f52601160045260245ffd5b8082028115828204841417610e1e57610e1e610df3565b92915050565b5f82610e3e57634e487b7160e01b5f52601260045260245ffd5b500490565b81810381811115610e1e57610e1e610df3565b80820180821115610e1e57610e1e610df3565b5f60208284031215610e79575f5ffd5b5051919050565b6040810160048410610ea057634e487b7160e01b5f52602160045260245ffd5b9281526020015290565b634e487b7160e01b5f52603260045260245ffd5b5f60a0820187835286602084015260a0604084015280865180835260c0850191506020880192505f5b81811015610f0e5783516001600160a01b0316835260209384019390920191600101610ee7565b50506001600160a01b039590951660608401525050608001529392505050565b61148780610f3b5f395ff3fe608060405234801561000f575f5ffd5b50600436106101bb575f3560e01c806395d89b41116100f3578063dd62ed3e11610093578063f01fe7c41161006e578063f01fe7c4146103d4578063f2fde38b146103e7578063f846a885146103fa578063fc37987b14610402575f5ffd5b8063dd62ed3e14610380578063ddae84cc146103b8578063e3067449146103cb575f5ffd5b8063b8c9d25c116100ce578063b8c9d25c14610334578063c21ebd0714610347578063c54e44eb1461035a578063c7fb372f1461036d575f5ffd5b806395d89b41146102f7578063a7cd52cb146102ff578063a9059cbb14610321575f5ffd5b8063313ce5671161015e57806370a082311161013957806370a08231146102a3578063715018a6146102cb578063854bec87146102d35780638da5cb5b146102e6575f5ffd5b8063313ce5671461026c57806334fcf4371461027b578063521eb27314610290575f5ffd5b8063095ea7b311610199578063095ea7b31461021a57806318160ddd1461023d57806323b872dd146102455780632f74359114610258575f5ffd5b806303fd2a45146101bf57806305501a6b146101e557806306fdde0314610205575b5f5ffd5b6101c861dead81565b6040516001600160a01b0390911681526020015b60405180910390f35b6101f76a115eec47f6cf7e3500000081565b6040519081526020016101dc565b61020d61040b565b6040516101dc91906110d3565b61022d610228366004611123565b61049b565b60405190151581526020016101dc565b6002546101f7565b61022d61025336600461114b565b6104b4565b600c5461022d90600160a81b900460ff1681565b604051601281526020016101dc565b61028e610289366004611185565b6104d7565b005b600a546101c8906001600160a01b031681565b6101f76102b136600461119c565b6001600160a01b03165f9081526020819052604090205490565b61028e6104e4565b600c546101c8906001600160a01b031681565b6005546001600160a01b03166101c8565b61020d6104f7565b61022d61030d36600461119c565b600e6020525f908152604090205460ff1681565b61022d61032f366004611123565b610506565b6008546101c8906001600160a01b031681565b6006546101c8906001600160a01b031681565b6009546101c8906001600160a01b031681565b600b546101c8906001600160a01b031681565b6101f761038e3660046111bc565b6001600160a01b039182165f90815260016020908152604080832093909416825291909152205490565b61028e6103c63660046111bc565b610513565b6101f7600d5481565b61028e6103e2366004611210565b61057f565b61028e6103f536600461119c565b6105e6565b6101f7600581565b6101f760075481565b60606003805461041a906112e4565b80601f0160208091040260200160405190810160405280929190818152602001828054610446906112e4565b80156104915780601f1061046857610100808354040283529160200191610491565b820191905f5260205f20905b81548152906001019060200180831161047457829003601f168201915b5050505050905090565b5f336104a8818585610628565b60019150505b92915050565b5f336104c1858285610635565b6104cc8585856106b1565b506001949350505050565b6104df61070e565b600755565b6104ec61070e565b6104f55f61073b565b565b60606004805461041a906112e4565b5f336104a88185856106b1565b61051b61070e565b600b80546001600160a01b039384166001600160a01b03199182168117909255600c8054938516939091169290921782555f908152600e6020526040808220805460ff19908116600190811790925593549094168252902080549091169091179055565b61058761070e565b5f5b82518110156105e15781600e5f8584815181106105a8576105a861131c565b6020908102919091018101516001600160a01b031682528101919091526040015f20805460ff1916911515919091179055600101610589565b505050565b6105ee61070e565b6001600160a01b03811661061c57604051631e4fbdf760e01b81525f60048201526024015b60405180910390fd5b6106258161073b565b50565b6105e1838383600161078c565b6001600160a01b038381165f908152600160209081526040808320938616835292905220545f198110156106ab578181101561069d57604051637dc7a0d960e11b81526001600160a01b03841660048201526024810182905260448101839052606401610613565b6106ab84848484035f61078c565b50505050565b6001600160a01b0383166106da57604051634b637e8f60e11b81525f6004820152602401610613565b6001600160a01b0382166107035760405163ec442f0560e01b81525f6004820152602401610613565b6105e183838361085e565b6005546001600160a01b031633146104f55760405163118cdaa760e01b8152336004820152602401610613565b600580546001600160a01b038381166001600160a01b0319831681179093556040519116919082907f8be0079c531659141344cd1fd0a4f28419497f9722a3daafe3b4186f6b6457e0905f90a35050565b6001600160a01b0384166107b55760405163e602df0560e01b81525f6004820152602401610613565b6001600160a01b0383166107de57604051634a1406b160e11b81525f6004820152602401610613565b6001600160a01b038085165f90815260016020908152604080832093871683529290522082905580156106ab57826001600160a01b0316846001600160a01b03167f8c5be1e5ebec7d5bd14f71427d1e84f3dd0314c0f7b2291e5b200ac8c7c3b9258460405161085091815260200190565b60405180910390a350505050565b600c54600160a01b900460ff168061087d57506001600160a01b038316155b8061088f57506001600160a01b038216155b806108b157506001600160a01b0383165f908152600e602052604090205460ff165b806108d357506001600160a01b0382165f908152600e602052604090205460ff165b156108e3576105e18383836109ae565b6008546001600160a01b03908116908316036109345760405162461bcd60e51b815260206004820152601060248201526f29a2a6262fa4a9a224a9a0a12622a21760811b6044820152606401610613565b6008546001600160a01b0390811690841603610997575f60646007548361095b9190611344565b610965919061135b565b90505f610972828461137a565b90508115610985576109858530846109ae565b6109908585836109ae565b5050505050565b61099f610ad4565b6109a7610da5565b6105e18383835b6001600160a01b0383166109d8578060025f8282546109cd919061138d565b90915550610a489050565b6001600160a01b0383165f9081526020819052604090205481811015610a2a5760405163391434e360e21b81526001600160a01b03851660048201526024810182905260448101839052606401610613565b6001600160a01b0384165f9081526020819052604090209082900390555b6001600160a01b038216610a6457600280548290039055610a82565b6001600160a01b0382165f9081526020819052604090208054820190555b816001600160a01b0316836001600160a01b03167fddf252ad1be2c89b69c2b068fc378daa952ba7f163c4a11628f55a4df523b3ef83604051610ac791815260200190565b60405180910390a3505050565b305f9081526020819052604081205490819003610aee5750565b5f6064610afc836028611344565b610b06919061135b565b90505f6064610b16846028611344565b610b20919061135b565b90505f81610b2e848661137a565b610b38919061137a565b600c549091506001600160a01b031615801590610b5457505f83115b15610bcf57600c54610b719030906001600160a01b0316856109ae565b600c5460405163cc430ced60e01b8152600481018590526001600160a01b039091169063cc430ced906024015f604051808303815f87803b158015610bb4575f5ffd5b505af1158015610bc6573d5f5f3e3d5ffd5b50505050610be7565b600a54610be79030906001600160a01b0316856109ae565b600b546001600160a01b031615801590610c0057505f82115b15610d7057600954600b546040516370a0823160e01b81526001600160a01b0391821660048201525f9291909116906370a0823190602401602060405180830381865afa158015610c53573d5f5f3e3d5ffd5b505050506040513d601f19601f82011682018060405250810190610c7791906113a0565b600b54909150610c919084906001600160a01b0316610f69565b600954600b546040516370a0823160e01b81526001600160a01b0391821660048201525f9291909116906370a0823190602401602060405180830381865afa158015610cdf573d5f5f3e3d5ffd5b505050506040513d601f19601f82011682018060405250810190610d0391906113a0565b600b549091506001600160a01b031663afaf46b86001610d23858561137a565b6040518363ffffffff1660e01b8152600401610d409291906113b7565b5f604051808303815f87803b158015610d57575f5ffd5b505af1158015610d69573d5f5f3e3d5ffd5b5050505050505b600a546001600160a01b031615801590610d8957505f81115b156106ab57600a546106ab9082906001600160a01b0316610f69565b600c54600160a81b900460ff1615610db957565b600d54610dc9906201518061138d565b421015610dd257565b61dead5f90815260208190527f44ad89ba62b98ff34f51403ac22759b55759460c0bb5521eb4b6ee3cff49cf8354600254610e0d919061137a565b90506a115eec47f6cf7e350000008111610e3b5750600c805460ff60a81b1916600160a81b1790555f600755565b6008546001600160a01b03165f9081526020819052604081205490819003610e7a5762015180600d5f828254610e71919061138d565b90915550505050565b5f6103e8610e89600584611344565b610e93919061135b565b90506a115eec47f6cf7e35000000610eab828561137a565b1015610ec957610ec66a115eec47f6cf7e350000008461137a565b90505b8015610f4b57600854610ee8906001600160a01b031661dead836109ae565b60085f9054906101000a90046001600160a01b03166001600160a01b031663fff6cae96040518163ffffffff1660e01b81526004015f604051808303815f87803b158015610f34575f5ffd5b505af1158015610f46573d5f5f3e3d5ffd5b505050505b62015180600d5f828254610f5f919061138d565b9091555050505050565b815f03610f74575050565b600c805460ff60a01b1916600160a01b1790556040805160028082526060820183525f9260208301908036833701905050905030815f81518110610fba57610fba61131c565b6001600160a01b039283166020918202929092010152600954825191169082906001908110610feb57610feb61131c565b6001600160a01b0392831660209182029290920101526006546110119130911685610628565b6006546001600160a01b0316635c11d795845f848661103142601e61138d565b6040518663ffffffff1660e01b81526004016110519594939291906113e1565b5f604051808303815f87803b158015611068575f5ffd5b505af1925050508015611079575060015b156110c157604080516001600160a01b0384168152602081018590527faedb4dc54dc30d46d331ffcc44cd836607bea96c12e1b21a95210ed899184d04910160405180910390a15b5050600c805460ff60a01b1916905550565b602081525f82518060208401528060208501604085015e5f604082850101526040601f19601f83011684010191505092915050565b80356001600160a01b038116811461111e575f5ffd5b919050565b5f5f60408385031215611134575f5ffd5b61113d83611108565b946020939093013593505050565b5f5f5f6060848603121561115d575f5ffd5b61116684611108565b925061117460208501611108565b929592945050506040919091013590565b5f60208284031215611195575f5ffd5b5035919050565b5f602082840312156111ac575f5ffd5b6111b582611108565b9392505050565b5f5f604083850312156111cd575f5ffd5b6111d683611108565b91506111e460208401611108565b90509250929050565b634e487b7160e01b5f52604160045260245ffd5b8035801515811461111e575f5ffd5b5f5f60408385031215611221575f5ffd5b823567ffffffffffffffff811115611237575f5ffd5b8301601f81018513611247575f5ffd5b803567ffffffffffffffff811115611261576112616111ed565b8060051b604051601f19603f830116810181811067ffffffffffffffff8211171561128e5761128e6111ed565b6040529182526020818401810192908101888411156112ab575f5ffd5b6020850194505b838510156112d1576112c385611108565b8152602094850194016112b2565b5094506111e49250505060208401611201565b600181811c908216806112f857607f821691505b60208210810361131657634e487b7160e01b5f52602260045260245ffd5b50919050565b634e487b7160e01b5f52603260045260245ffd5b634e487b7160e01b5f52601160045260245ffd5b80820281158282048414176104ae576104ae611330565b5f8261137557634e487b7160e01b5f52601260045260245ffd5b500490565b818103818111156104ae576104ae611330565b808201808211156104ae576104ae611330565b5f602082840312156113b0575f5ffd5b5051919050565b60408101600484106113d757634e487b7160e01b5f52602160045260245ffd5b9281526020015290565b5f60a0820187835286602084015260a0604084015280865180835260c0850191506020880192505f5b818110156114315783516001600160a01b031683526020938401939092019160010161140a565b50506001600160a01b03959095166060840152505060800152939250505056fea2646970667358221220f3240f18366ca9ae7da24017fb6c89589d0c611221fe4cecdacfcbf82bd3617d64736f6c634300081e0033","linkReferences":{}},"methodIdentifiers":{"BURN_MIN_LIMIT()":"05501a6b","BURN_RATE()":"f846a885","DEAD()":"03fd2a45","USDT()":"c54e44eb","allowance(address,address)":"dd62ed3e","allowlist(address)":"a7cd52cb","approve(address,uint256)":"095ea7b3","balanceOf(address)":"70a08231","burnFinished()":"2f743591","buyRate()":"fc37987b","decimals()":"313ce567","lastBurnTime()":"e3067449","name()":"06fdde03","nodeDividends()":"c7fb372f","owner()":"8da5cb5b","pancakePair()":"b8c9d25c","pancakeRouter()":"c21ebd07","payback()":"854bec87","renounceOwnership()":"715018a6","setAddrConfig(address,address)":"ddae84cc","setAllowlist(address[],bool)":"f01fe7c4","setRate(uint256)":"34fcf437","symbol()":"95d89b41","totalSupply()":"18160ddd","transfer(address,uint256)":"a9059cbb","transferFrom(address,address,uint256)":"23b872dd","transferOwnership(address)":"f2fde38b","wallet()":"521eb273"},"id":70}