{"abi":[{"type":"constructor","inputs":[{"name":"_initialRecipient","type":"address","internalType":"address"},{"name":"_wallet","type":"address","internalType":"address"},{"name":"_USDT","type":"address","internalType":"address"}],"stateMutability":"nonpayable"},{"type":"function","name":"BURN_MIN_LIMIT","inputs":[],"outputs":[{"name":"","type":"uint256","internalType":"uint256"}],"stateMutability":"view"},{"type":"function","name":"BURN_RATE","inputs":[],"outputs":[{"name":"","type":"uint256","internalType":"uint256"}],"stateMutability":"view"},{"type":"function","name":"DEAD","inputs":[],"outputs":[{"name":"","type":"address","internalType":"address"}],"stateMutability":"view"},{"type":"function","name":"USDT","inputs":[],"outputs":[{"name":"","type":"address","internalType":"address"}],"stateMutability":"view"},{"type":"function","name":"allowance","inputs":[{"name":"owner","type":"address","internalType":"address"},{"name":"spender","type":"address","internalType":"address"}],"outputs":[{"name":"","type":"uint256","internalType":"uint256"}],"stateMutability":"view"},{"type":"function","name":"allowlist","inputs":[{"name":"","type":"address","internalType":"address"}],"outputs":[{"name":"","type":"bool","internalType":"bool"}],"stateMutability":"view"},{"type":"function","name":"approve","inputs":[{"name":"spender","type":"address","internalType":"address"},{"name":"value","type":"uint256","internalType":"uint256"}],"outputs":[{"name":"","type":"bool","internalType":"bool"}],"stateMutability":"nonpayable"},{"type":"function","name":"balanceOf","inputs":[{"name":"account","type":"address","internalType":"address"}],"outputs":[{"name":"","type":"uint256","internalType":"uint256"}],"stateMutability":"view"},{"type":"function","name":"burnFinished","inputs":[],"outputs":[{"name":"","type":"bool","internalType":"bool"}],"stateMutability":"view"},{"type":"function","name":"buyRate","inputs":[],"outputs":[{"name":"","type":"uint256","internalType":"uint256"}],"stateMutability":"view"},{"type":"function","name":"decimals","inputs":[],"outputs":[{"name":"","type":"uint8","internalType":"uint8"}],"stateMutability":"view"},{"type":"function","name":"issueBuyTaxFee","inputs":[],"outputs":[],"stateMutability":"nonpayable"},{"type":"function","name":"lastBurnTime","inputs":[],"outputs":[{"name":"","type":"uint256","internalType":"uint256"}],"stateMutability":"view"},{"type":"function","name":"name","inputs":[],"outputs":[{"name":"","type":"string","internalType":"string"}],"stateMutability":"view"},{"type":"function","name":"nodeDividends","inputs":[],"outputs":[{"name":"","type":"address","internalType":"address"}],"stateMutability":"view"},{"type":"function","name":"owner","inputs":[],"outputs":[{"name":"","type":"address","internalType":"address"}],"stateMutability":"view"},{"type":"function","name":"pancakePair","inputs":[],"outputs":[{"name":"","type":"address","internalType":"address"}],"stateMutability":"view"},{"type":"function","name":"pancakeRouter","inputs":[],"outputs":[{"name":"","type":"address","internalType":"contract IUniswapV2Router02"}],"stateMutability":"view"},{"type":"function","name":"payback","inputs":[],"outputs":[{"name":"","type":"address","internalType":"address"}],"stateMutability":"view"},{"type":"function","name":"renounceOwnership","inputs":[],"outputs":[],"stateMutability":"nonpayable"},{"type":"function","name":"setAddrConfig","inputs":[{"name":"_nodeDividends","type":"address","internalType":"address"},{"name":"_payback","type":"address","internalType":"address"}],"outputs":[],"stateMutability":"nonpayable"},{"type":"function","name":"setAllowlist","inputs":[{"name":"addrs","type":"address[]","internalType":"address[]"},{"name":"isAllow","type":"bool","internalType":"bool"}],"outputs":[],"stateMutability":"nonpayable"},{"type":"function","name":"setRate","inputs":[{"name":"_buyRate","type":"uint256","internalType":"uint256"}],"outputs":[],"stateMutability":"nonpayable"},{"type":"function","name":"symbol","inputs":[],"outputs":[{"name":"","type":"string","internalType":"string"}],"stateMutability":"view"},{"type":"function","name":"totalSupply","inputs":[],"outputs":[{"name":"","type":"uint256","internalType":"uint256"}],"stateMutability":"view"},{"type":"function","name":"transfer","inputs":[{"name":"to","type":"address","internalType":"address"},{"name":"value","type":"uint256","internalType":"uint256"}],"outputs":[{"name":"","type":"bool","internalType":"bool"}],"stateMutability":"nonpayable"},{"type":"function","name":"transferFrom","inputs":[{"name":"from","type":"address","internalType":"address"},{"name":"to","type":"address","internalType":"address"},{"name":"value","type":"uint256","internalType":"uint256"}],"outputs":[{"name":"","type":"bool","internalType":"bool"}],"stateMutability":"nonpayable"},{"type":"function","name":"transferOwnership","inputs":[{"name":"newOwner","type":"address","internalType":"address"}],"outputs":[],"stateMutability":"nonpayable"},{"type":"function","name":"wallet","inputs":[],"outputs":[{"name":"","type":"address","internalType":"address"}],"stateMutability":"view"},{"type":"event","name":"Approval","inputs":[{"name":"owner","type":"address","indexed":true,"internalType":"address"},{"name":"spender","type":"address","indexed":true,"internalType":"address"},{"name":"value","type":"uint256","indexed":false,"internalType":"uint256"}],"anonymous":false},{"type":"event","name":"OwnershipTransferred","inputs":[{"name":"previousOwner","type":"address","indexed":true,"internalType":"address"},{"name":"newOwner","type":"address","indexed":true,"internalType":"address"}],"anonymous":false},{"type":"event","name":"SwapAndSendTax","inputs":[{"name":"recipient","type":"address","indexed":false,"internalType":"address"},{"name":"tokensSwapped","type":"uint256","indexed":false,"internalType":"uint256"}],"anonymous":false},{"type":"event","name":"Transfer","inputs":[{"name":"from","type":"address","indexed":true,"internalType":"address"},{"name":"to","type":"address","indexed":true,"internalType":"address"},{"name":"value","type":"uint256","indexed":false,"internalType":"uint256"}],"anonymous":false},{"type":"error","name":"ERC20InsufficientAllowance","inputs":[{"name":"spender","type":"address","internalType":"address"},{"name":"allowance","type":"uint256","internalType":"uint256"},{"name":"needed","type":"uint256","internalType":"uint256"}]},{"type":"error","name":"ERC20InsufficientBalance","inputs":[{"name":"sender","type":"address","internalType":"address"},{"name":"balance","type":"uint256","internalType":"uint256"},{"name":"needed","type":"uint256","internalType":"uint256"}]},{"type":"error","name":"ERC20InvalidApprover","inputs":[{"name":"approver","type":"address","internalType":"address"}]},{"type":"error","name":"ERC20InvalidReceiver","inputs":[{"name":"receiver","type":"address","internalType":"address"}]},{"type":"error","name":"ERC20InvalidSender","inputs":[{"name":"sender","type":"address","internalType":"address"}]},{"type":"error","name":"ERC20InvalidSpender","inputs":[{"name":"spender","type":"address","internalType":"address"}]},{"type":"error","name":"OwnableInvalidOwner","inputs":[{"name":"owner","type":"address","internalType":"address"}]},{"type":"error","name":"OwnableUnauthorizedAccount","inputs":[{"name":"account","type":"address","internalType":"address"}]}],"bytecode":{"object":"0x608080604052346102e25760608161238a803803809161001f828561054e565b8339810103126102e25761003281610571565b9061004b604061004460208401610571565b9201610571565b90610054610585565b9261005d610585565b845190946001600160401b0382116104515760035490600182811c92168015610544575b60208310146104335781601f8493116104d6575b50602090601f8311600114610470575f92610465575b50508160011b915f199060031b1c1916176003555b83516001600160401b03811161045157600454600181811c91168015610447575b602082101461043357601f81116103d0575b50602094601f821160011461036d579481929394955f92610362575b50508160011b915f199060031b1c1916176004555b331561034f5760058054336001600160a01b0319821681179092556001600160a01b03167f8be0079c531659141344cd1fd0a4f28419497f9722a3daafe3b4186f6b6457e05f80a3600680546001600160a01b0319167310ed43c718714eb63d5aa57b78b54704e256024e17905560646007556001600160a01b03811690811561033c576101b1906105d5565b5f908152600e602090815260408083208054600160ff1991821681179092556001600160a01b039586168086529483902080549091169091179055600a80546001600160a01b031990811690941790556009805495851695909316851790925542600d55600654915163c45a015560e01b815292909183916004918391165afa9081156102ee575f916102f9575b506040516364e329cb60e11b81523060048201526024810192909252602090829060449082905f906001600160a01b03165af19081156102ee575f916102b0575b50600880546001600160a01b0319166001600160a01b03929092169190911790556040516114559081610f158239f35b90506020813d6020116102e6575b816102cb6020938361054e565b810103126102e2576102dc90610571565b5f610280565b5f80fd5b3d91506102be565b6040513d5f823e3d90fd5b90506020813d602011610334575b816103146020938361054e565b810103126102e2575f91604461032b602093610571565b9250509161023f565b3d9150610307565b63ec442f0560e01b5f525f60045260245ffd5b631e4fbdf760e01b5f525f60045260245ffd5b015190505f8061010f565b601f1982169560045f52805f20915f5b8881106103b8575083600195969798106103a0575b505050811b01600455610124565b01515f1960f88460031b161c191690555f8080610392565b9192602060018192868501518155019401920161037d565b60045f527f8a35acfbc15ff81a39ae7d344fd709f28e8600b4aa8c65c6b64bfe7fe36bd19b601f830160051c81019160208410610429575b601f0160051c01905b81811061041e57506100f3565b5f8155600101610411565b9091508190610408565b634e487b7160e01b5f52602260045260245ffd5b90607f16906100e1565b634e487b7160e01b5f52604160045260245ffd5b015190505f806100ab565b60035f9081528281209350601f198516905b8181106104be57509084600195949392106104a6575b505050811b016003556100c0565b01515f1960f88460031b161c191690555f8080610498565b92936020600181928786015181550195019301610482565b60035f529091507fc2575a0e9e593c00f959f8c92f12db2869c3395a3b0502d05e2516446f71f85b601f840160051c8101916020851061053a575b90601f859493920160051c01905b81811061052c5750610095565b5f815584935060010161051f565b9091508190610511565b91607f1691610081565b601f909101601f19168101906001600160401b0382119082101761045157604052565b51906001600160a01b03821682036102e257565b60408051919082016001600160401b038111838210176104515760405260038252624c454f60e81b6020830152565b919082039182116105c157565b634e487b7160e01b5f52601160045260245ffd5b60ff600c5460a01c168015610762575b8015610751575b801561071e575b80156106fd575b6106e7576008546001600160a01b0390811690821681146106af5715610642576aadb53acfa41aee120000006106409161063261082f565b61063a610ae0565b5f610777565b565b600754806aadb53acfa41aee1200000002906aadb53acfa41aee120000008204036105c1576064900490816aadb53acfa41aee1200000003906aadb53acfa41aee1200000082116105c157826106409361069e575b505f610777565b6106a990305f610777565b5f610697565b60405162461bcd60e51b815260206004820152601060248201526f29a2a6262fa4a9a224a9a0a12622a21760811b6044820152606490fd5b6aadb53acfa41aee12000000610640915f610777565b506001600160a01b0381165f908152600e602052604090205460ff166105fa565b505f8052600e6020527fe710864318d4a32f37d6ce54cb3fadbef648dd12d8dbdf53973564d56b7f881c5460ff166105f3565b506001600160a01b038116156105ec565b5060016105e5565b919082018092116105c157565b6001600160a01b031690816107dd5760205f51602061236a5f395f51905f52916107a38560025461076a565b6002555b6001600160a01b031693846107c85780600254036002555b604051908152a3565b845f525f825260405f208181540190556107bf565b815f525f60205260405f2054838110610814575f51602061236a5f395f51905f529184602092855f525f84520360405f20556107a7565b91905063391434e360e21b5f5260045260245260445260645ffd5b5f305f525f60205260405f2054908115610adc57602882028281046028036105c15761086592606461086a9204938480926105b4565b6105b4565b600c549092906001600160a01b0316151580610ad3575b15610ab657600c5461089e9082906001600160a01b031630610777565b600c546001600160a01b0316803b156102e2575f809160246040518094819363cc430ced60e01b83528760048401525af180156102ee57610aa1575b505b600b546001600160a01b031680151580610a98575b610929575b5050600a546001600160a01b0316905080151580610920575b610917575050565b61064091610d21565b5081151561090f565b6009546040516370a0823160e01b8152600481018390529190602090839060249082906001600160a01b03165afa918215610a57578492610a62575b506109709192610d21565b600954600b546040516370a0823160e01b81526001600160a01b0391821660048201819052939092909160209184916024918391165afa8015610a57578490610a23575b6109be92506105b4565b813b15610a1f5782916044839260405194859384926315f5e8d760e31b84526001600485015260248401525af18015610a14576109fc575b806108f6565b610a0782809261054e565b610a1157806109f6565b80fd5b6040513d84823e3d90fd5b8280fd5b506020823d602011610a4f575b81610a3d6020938361054e565b810103126102e2576109be91516109b4565b3d9150610a30565b6040513d86823e3d90fd5b91506020823d602011610a90575b81610a7d6020938361054e565b810103126102e257610970915191610965565b3d9150610a70565b508115156108f1565b610aae9192505f9061054e565b5f905f6108da565b600a54610ace9082906001600160a01b031630610777565b6108dc565b50801515610881565b5050565b600c54905f9160ff8160a81c16610d1c57600d546201518081018091116105c1574210610d1c5760025461dead5f9081526020527f44ad89ba62b98ff34f51403ac22759b55759460c0bb5521eb4b6ee3cff49cf8354610b3f916105b4565b906a115eec47f6cf7e35000000821115610d03575060018060a01b036008541690815f525f60205260405f20548015610cfc57600581029081046005036105c1576103e89004906a115eec47f6cf7e35000000610b9c83836105b4565b10610cdf575b5080610bf9575b5050600d5462015180610bbc82426105b4565b049062015180820291808304620151801490151715610be557610be092935061076a565b600d55565b634e487b7160e01b84526011600452602484fd5b81610c8b57905f51602061236a5f395f51905f52602083610c1f61dead9560025461076a565b6002555b845f525f825260405f20818154019055604051908152a36008546001600160a01b0316803b156102e2575f809160046040518094819363fff6cae960e01b83525af180156102ee57610c76575b80610ba9565b610c839192505f9061054e565b5f905f610c70565b815f525f60205260405f2054818110610cc65760208284935f51602061236a5f395f51905f529361dead965f525f84520360405f2055610c23565b8263391434e360e21b5f5260045260245260445260645ffd5b6a115eec47f6cf7e34ffffff198101915081116105c1575f610ba2565b5050509050565b60ff60a81b1916600160a81b17600c55505f6007559050565b509050565b8015610adc57600c805460ff60a01b1916600160a01b179055604051610d4860608261054e565b60028152602081016040368237815115610f005730815260018060a01b0360095416825160011015610f005760408301526006546001600160a01b03163015610eed578015610eda57305f52600160205260405f20815f526020528360405f20556040518481527f8c5be1e5ebec7d5bd14f71427d1e84f3dd0314c0f7b2291e5b200ac8c7c3b92560203092a360018060a01b036006541690601e4201948542116105c157823b156102e2579290604051938492635c11d79560e01b845260a48401908760048601525f602486015260a060448601525180915260c4840192905f5b818110610eb8575050505f83819593819360018060a01b0316998a6064840152608483015203925af19081610ea8575b50610e71575b5050600c805460ff60a01b19169055565b7faedb4dc54dc30d46d331ffcc44cd836607bea96c12e1b21a95210ed899184d049160409182519182526020820152a15f80610e60565b5f610eb29161054e565b5f610e5a565b82516001600160a01b0316855287955060209485019490920191600101610e2a565b634a1406b160e11b5f525f60045260245ffd5b63e602df0560e01b5f525f60045260245ffd5b634e487b7160e01b5f52603260045260245ffdfe6080806040526004361015610012575f80fd5b5f3560e01c90816303fd2a45146109e35750806305501a6b146109be578063056b080b1461099e57806306fdde03146108e3578063095ea7b3146108bd57806318160ddd146108a057806323b872dd146107c15780632f7435911461079c578063313ce5671461078157806334fcf43714610760578063521eb2731461073857806370a08231146106f8578063715018a61461069d578063854bec87146106755780638da5cb5b1461064d57806395d89b4114610549578063a7cd52cb1461050c578063a9059cbb146104db578063b8c9d25c146104b3578063c21ebd071461048b578063c54e44eb14610463578063c7fb372f1461043b578063dd62ed3e146103eb578063ddae84cc1461035f578063e306744914610342578063f01fe7c41461021d578063f2fde38b14610197578063f846a8851461017c5763fc37987b1461015b575f80fd5b34610178575f366003190112610178576020600754604051908152f35b5f80fd5b34610178575f36600319011261017857602060405160058152f35b34610178576020366003190112610178576101b0610a27565b6101b8610a75565b6001600160a01b0316801561020a57600580546001600160a01b0319811683179091556001600160a01b03167f8be0079c531659141344cd1fd0a4f28419497f9722a3daafe3b4186f6b6457e05f80a3005b631e4fbdf760e01b5f525f60045260245ffd5b346101785760403660031901126101785760043567ffffffffffffffff811161017857366023820112156101785780600401359067ffffffffffffffff821161032e578160051b9060208201926102776040519485610a53565b8352602460208401928201019036821161017857602401915b81831061030e5783602435801515809103610178576102ad610a75565b60ff165f5b825181101561030c5782518110156102f8576020600582901b84018101516001600160a01b03165f908152600e90915260409020805460ff1916831790556001016102b2565b634e487b7160e01b5f52603260045260245ffd5b005b82356001600160a01b038116810361017857815260209283019201610290565b634e487b7160e01b5f52604160045260245ffd5b34610178575f366003190112610178576020600d54604051908152f35b3461017857604036600319011261017857610378610a27565b610380610a3d565b90610389610a75565b600b80546001600160a01b03199081166001600160a01b03938416908117909255600c80549091169383169390931783555f908152600e6020526040808220805460ff1990811660019081179092559454909316825290208054909216179055005b3461017857604036600319011261017857610404610a27565b61040c610a3d565b6001600160a01b039182165f908152600160209081526040808320949093168252928352819020549051908152f35b34610178575f36600319011261017857600b546040516001600160a01b039091168152602090f35b34610178575f366003190112610178576009546040516001600160a01b039091168152602090f35b34610178575f366003190112610178576006546040516001600160a01b039091168152602090f35b34610178575f366003190112610178576008546040516001600160a01b039091168152602090f35b34610178576040366003190112610178576105016104f7610a27565b6024359033610d7b565b602060405160018152f35b34610178576020366003190112610178576001600160a01b0361052d610a27565b165f52600e602052602060ff60405f2054166040519015158152f35b34610178575f366003190112610178576040515f6004548060011c90600181168015610643575b60208310811461062f5782855290811561060b57506001146105ad575b6105a98361059d81850382610a53565b604051918291826109fd565b0390f35b91905060045f527f8a35acfbc15ff81a39ae7d344fd709f28e8600b4aa8c65c6b64bfe7fe36bd19b915f905b8082106105f15750909150810160200161059d61058d565b9192600181602092548385880101520191019092916105d9565b60ff191660208086019190915291151560051b8401909101915061059d905061058d565b634e487b7160e01b5f52602260045260245ffd5b91607f1691610570565b34610178575f366003190112610178576005546040516001600160a01b039091168152602090f35b34610178575f36600319011261017857600c546040516001600160a01b039091168152602090f35b34610178575f366003190112610178576106b5610a75565b600580546001600160a01b031981169091555f906001600160a01b03167f8be0079c531659141344cd1fd0a4f28419497f9722a3daafe3b4186f6b6457e08280a3005b34610178576020366003190112610178576020610730610716610a27565b6001600160a01b03165f9081526020819052604090205490565b604051908152f35b34610178575f36600319011261017857600a546040516001600160a01b039091168152602090f35b3461017857602036600319011261017857610779610a75565b600435600755005b34610178575f36600319011261017857602060405160128152f35b34610178575f36600319011261017857602060ff600c5460a81c166040519015158152f35b34610178576060366003190112610178576107da610a27565b6107e2610a3d565b6001600160a01b0382165f818152600160209081526040808320338452909152902054909260443592915f198110610820575b506105019350610d7b565b83811061088557841561087257331561085f57610501945f52600160205260405f2060018060a01b0333165f526020528360405f209103905584610815565b634a1406b160e11b5f525f60045260245ffd5b63e602df0560e01b5f525f60045260245ffd5b8390637dc7a0d960e11b5f523360045260245260445260645ffd5b34610178575f366003190112610178576020600254604051908152f35b34610178576040366003190112610178576105016108d9610a27565b6024359033611004565b34610178575f366003190112610178576040515f6003548060011c90600181168015610994575b60208310811461062f5782855290811561060b5750600114610936576105a98361059d81850382610a53565b91905060035f527fc2575a0e9e593c00f959f8c92f12db2869c3395a3b0502d05e2516446f71f85b915f905b80821061097a5750909150810160200161059d61058d565b919260018160209254838588010152019101909291610962565b91607f169161090a565b34610178575f366003190112610178576109b6610a75565b61030c610abd565b34610178575f3660031901126101785760206040516a115eec47f6cf7e350000008152f35b34610178575f366003190112610178578061dead60209252f35b602060409281835280519182918282860152018484015e5f828201840152601f01601f1916010190565b600435906001600160a01b038216820361017857565b602435906001600160a01b038216820361017857565b90601f8019910116810190811067ffffffffffffffff82111761032e57604052565b6005546001600160a01b03163303610a8957565b63118cdaa760e01b5f523360045260245ffd5b91908203918211610aa957565b634e487b7160e01b5f52601160045260245ffd5b5f305f525f60205260405f2054908115610d775760288202828104602803610aa957610af3926064610af8920493848092610a9c565b610a9c565b600c549092906001600160a01b0316151580610d6e575b15610d5157600c54610b2c9082906001600160a01b031630610dd7565b600c546001600160a01b0316803b15610178575f809160246040518094819363cc430ced60e01b83528760048401525af18015610d4657610d31575b505b600b546001600160a01b031680151580610d28575b610bb9575b5050600a546001600160a01b0316905080151580610bb0575b610ba5575050565b610bae91610e8f565b565b50811515610b9d565b6009546040516370a0823160e01b8152600481018390529190602090839060249082906001600160a01b03165afa918215610ce7578492610cf2575b50610c009192610e8f565b600954600b546040516370a0823160e01b81526001600160a01b0391821660048201819052939092909160209184916024918391165afa8015610ce7578490610cb3575b610c4e9250610a9c565b813b15610caf5782916044839260405194859384926315f5e8d760e31b84526001600485015260248401525af18015610ca457610c8c575b80610b84565b610c97828092610a53565b610ca15780610c86565b80fd5b6040513d84823e3d90fd5b8280fd5b506020823d602011610cdf575b81610ccd60209383610a53565b8101031261017857610c4e9151610c44565b3d9150610cc0565b6040513d86823e3d90fd5b91506020823d602011610d20575b81610d0d60209383610a53565b8101031261017857610c00915191610bf5565b3d9150610d00565b50811515610b7f565b610d3e9192505f90610a53565b5f905f610b68565b6040513d5f823e3d90fd5b600a54610d699082906001600160a01b031630610dd7565b610b6a565b50801515610b0f565b5050565b91906001600160a01b03831615610db7576001600160a01b03811615610da457610bae92611067565b63ec442f0560e01b5f525f60045260245ffd5b634b637e8f60e11b5f525f60045260245ffd5b91908201809211610aa957565b6001600160a01b03169081610e3d5760205f5160206114005f395f51905f5291610e0385600254610dca565b6002555b6001600160a01b03169384610e285780600254036002555b604051908152a3565b845f525f825260405f20818154019055610e1f565b815f525f60205260405f2054838110610e74575f5160206114005f395f51905f529184602092855f525f84520360405f2055610e07565b91905063391434e360e21b5f5260045260245260445260645ffd5b8015610d7757600c805460ff60a01b1916600160a01b179055604051610eb6606082610a53565b600281526020810160403682378151156102f85730815260018060a01b03600954168251600110156102f8576040830152600654610eff9084906001600160a01b031630611004565b60018060a01b036006541690601e420194854211610aa957823b15610178579290604051938492635c11d79560e01b845260a48401908760048601525f602486015260a060448601525180915260c4840192905f5b818110610fe2575050505f83819593819360018060a01b0316998a6064840152608483015203925af19081610fd2575b50610f9b575b5050600c805460ff60a01b19169055565b7faedb4dc54dc30d46d331ffcc44cd836607bea96c12e1b21a95210ed899184d049160409182519182526020820152a15f80610f8a565b5f610fdc91610a53565b5f610f84565b82516001600160a01b0316855287955060209485019490920191600101610f54565b6001600160a01b0316908115610872576001600160a01b031691821561085f5760207f8c5be1e5ebec7d5bd14f71427d1e84f3dd0314c0f7b2291e5b200ac8c7c3b92591835f526001825260405f20855f5282528060405f2055604051908152a3565b919060ff600c5460a01c1680156111a8575b8015611197575b8015611176575b8015611155575b61114c576008546001600160a01b039081169082168114611114576001600160a01b038416146110d157610bae926110c4610abd565b6110cc6111b9565b610dd7565b60075492838302938385041483151715610aa9576110f66064610bae95048094610a9c565b9280611103575b50610dd7565b61110e903083610dd7565b5f6110fd565b60405162461bcd60e51b815260206004820152601060248201526f29a2a6262fa4a9a224a9a0a12622a21760811b6044820152606490fd5b610bae92610dd7565b506001600160a01b0381165f908152600e602052604090205460ff1661108e565b506001600160a01b0383165f908152600e602052604090205460ff16611087565b506001600160a01b03811615611080565b506001600160a01b03831615611079565b600c54905f9160ff8160a81c166113fa57600d54620151808101809111610aa95742106113fa5760025461dead5f9081526020527f44ad89ba62b98ff34f51403ac22759b55759460c0bb5521eb4b6ee3cff49cf835461121891610a9c565b906a115eec47f6cf7e350000008211156113e157506008546001600160a01b03165f8181526020819052604090205490919080156113da5760058102908104600503610aa9576103e89004906a115eec47f6cf7e3500000061127a8383610a9c565b106113bd575b50806112d7575b5050600d546201518061129a8242610a9c565b0490620151808202918083046201518014901517156112c3576112be929350610dca565b600d55565b634e487b7160e01b84526011600452602484fd5b8161136957905f5160206114005f395f51905f526020836112fd61dead95600254610dca565b6002555b845f525f825260405f20818154019055604051908152a36008546001600160a01b0316803b15610178575f809160046040518094819363fff6cae960e01b83525af18015610d4657611354575b80611287565b6113619192505f90610a53565b5f905f61134e565b815f525f60205260405f20548181106113a45760208284935f5160206114005f395f51905f529361dead965f525f84520360405f2055611301565b8263391434e360e21b5f5260045260245260445260645ffd5b6a115eec47f6cf7e34ffffff19810191508111610aa9575f611280565b5050509050565b60ff60a81b1916600160a81b17600c55505f6007559050565b50905056feddf252ad1be2c89b69c2b068fc378daa952ba7f163c4a11628f55a4df523b3efa26469706673582212208f78a34db22da4575a78c9a1c3c132c41fd6fb8cef29695e92b5187779a5240264736f6c634300081e0033ddf252ad1be2c89b69c2b068fc378daa952ba7f163c4a11628f55a4df523b3ef","linkReferences":{}},"methodIdentifiers":{"BURN_MIN_LIMIT()":"05501a6b","BURN_RATE()":"f846a885","DEAD()":"03fd2a45","USDT()":"c54e44eb","allowance(address,address)":"dd62ed3e","allowlist(address)":"a7cd52cb","approve(address,uint256)":"095ea7b3","balanceOf(address)":"70a08231","burnFinished()":"2f743591","buyRate()":"fc37987b","decimals()":"313ce567","issueBuyTaxFee()":"056b080b","lastBurnTime()":"e3067449","name()":"06fdde03","nodeDividends()":"c7fb372f","owner()":"8da5cb5b","pancakePair()":"b8c9d25c","pancakeRouter()":"c21ebd07","payback()":"854bec87","renounceOwnership()":"715018a6","setAddrConfig(address,address)":"ddae84cc","setAllowlist(address[],bool)":"f01fe7c4","setRate(uint256)":"34fcf437","symbol()":"95d89b41","totalSupply()":"18160ddd","transfer(address,uint256)":"a9059cbb","transferFrom(address,address,uint256)":"23b872dd","transferOwnership(address)":"f2fde38b","wallet()":"521eb273"},"id":49}