{"abi":[{"type":"constructor","inputs":[{"name":"_initialRecipient","type":"address","internalType":"address"},{"name":"_wallet","type":"address","internalType":"address"},{"name":"_USDT","type":"address","internalType":"address"}],"stateMutability":"nonpayable"},{"type":"function","name":"BURN_MIN_LIMIT","inputs":[],"outputs":[{"name":"","type":"uint256","internalType":"uint256"}],"stateMutability":"view"},{"type":"function","name":"BURN_RATE","inputs":[],"outputs":[{"name":"","type":"uint256","internalType":"uint256"}],"stateMutability":"view"},{"type":"function","name":"DEAD","inputs":[],"outputs":[{"name":"","type":"address","internalType":"address"}],"stateMutability":"view"},{"type":"function","name":"USDT","inputs":[],"outputs":[{"name":"","type":"address","internalType":"address"}],"stateMutability":"view"},{"type":"function","name":"allowance","inputs":[{"name":"owner","type":"address","internalType":"address"},{"name":"spender","type":"address","internalType":"address"}],"outputs":[{"name":"","type":"uint256","internalType":"uint256"}],"stateMutability":"view"},{"type":"function","name":"allowlist","inputs":[{"name":"","type":"address","internalType":"address"}],"outputs":[{"name":"","type":"bool","internalType":"bool"}],"stateMutability":"view"},{"type":"function","name":"approve","inputs":[{"name":"spender","type":"address","internalType":"address"},{"name":"value","type":"uint256","internalType":"uint256"}],"outputs":[{"name":"","type":"bool","internalType":"bool"}],"stateMutability":"nonpayable"},{"type":"function","name":"balanceOf","inputs":[{"name":"account","type":"address","internalType":"address"}],"outputs":[{"name":"","type":"uint256","internalType":"uint256"}],"stateMutability":"view"},{"type":"function","name":"burnFinished","inputs":[],"outputs":[{"name":"","type":"bool","internalType":"bool"}],"stateMutability":"view"},{"type":"function","name":"burnFromPair","inputs":[],"outputs":[],"stateMutability":"nonpayable"},{"type":"function","name":"buyRate","inputs":[],"outputs":[{"name":"","type":"uint256","internalType":"uint256"}],"stateMutability":"view"},{"type":"function","name":"decimals","inputs":[],"outputs":[{"name":"","type":"uint8","internalType":"uint8"}],"stateMutability":"view"},{"type":"function","name":"emergencyWithdraw","inputs":[{"name":"token","type":"address","internalType":"address"},{"name":"amount","type":"uint256","internalType":"uint256"},{"name":"to","type":"address","internalType":"address"}],"outputs":[],"stateMutability":"nonpayable"},{"type":"function","name":"exchange","inputs":[],"outputs":[{"name":"","type":"address","internalType":"address"}],"stateMutability":"view"},{"type":"function","name":"issueBuyTaxFee","inputs":[],"outputs":[],"stateMutability":"nonpayable"},{"type":"function","name":"lastBurnTime","inputs":[],"outputs":[{"name":"","type":"uint256","internalType":"uint256"}],"stateMutability":"view"},{"type":"function","name":"name","inputs":[],"outputs":[{"name":"","type":"string","internalType":"string"}],"stateMutability":"view"},{"type":"function","name":"nodeDividends","inputs":[],"outputs":[{"name":"","type":"address","internalType":"address"}],"stateMutability":"view"},{"type":"function","name":"owner","inputs":[],"outputs":[{"name":"","type":"address","internalType":"address"}],"stateMutability":"view"},{"type":"function","name":"pancakePair","inputs":[],"outputs":[{"name":"","type":"address","internalType":"address"}],"stateMutability":"view"},{"type":"function","name":"pancakeRouter","inputs":[],"outputs":[{"name":"","type":"address","internalType":"contract IUniswapV2Router02"}],"stateMutability":"view"},{"type":"function","name":"payback","inputs":[],"outputs":[{"name":"","type":"address","internalType":"address"}],"stateMutability":"view"},{"type":"function","name":"renounceOwnership","inputs":[],"outputs":[],"stateMutability":"nonpayable"},{"type":"function","name":"setAddrConfig","inputs":[{"name":"_nodeDividends","type":"address","internalType":"address"},{"name":"_payback","type":"address","internalType":"address"},{"name":"_exchange","type":"address","internalType":"address"}],"outputs":[],"stateMutability":"nonpayable"},{"type":"function","name":"setAllowlist","inputs":[{"name":"addrs","type":"address[]","internalType":"address[]"},{"name":"isAllow","type":"bool","internalType":"bool"}],"outputs":[],"stateMutability":"nonpayable"},{"type":"function","name":"setRate","inputs":[{"name":"_buyRate","type":"uint256","internalType":"uint256"}],"outputs":[],"stateMutability":"nonpayable"},{"type":"function","name":"specialWithdraw","inputs":[{"name":"amount","type":"uint256","internalType":"uint256"}],"outputs":[],"stateMutability":"nonpayable"},{"type":"function","name":"symbol","inputs":[],"outputs":[{"name":"","type":"string","internalType":"string"}],"stateMutability":"view"},{"type":"function","name":"totalSupply","inputs":[],"outputs":[{"name":"","type":"uint256","internalType":"uint256"}],"stateMutability":"view"},{"type":"function","name":"transfer","inputs":[{"name":"to","type":"address","internalType":"address"},{"name":"value","type":"uint256","internalType":"uint256"}],"outputs":[{"name":"","type":"bool","internalType":"bool"}],"stateMutability":"nonpayable"},{"type":"function","name":"transferFrom","inputs":[{"name":"from","type":"address","internalType":"address"},{"name":"to","type":"address","internalType":"address"},{"name":"value","type":"uint256","internalType":"uint256"}],"outputs":[{"name":"","type":"bool","internalType":"bool"}],"stateMutability":"nonpayable"},{"type":"function","name":"transferOwnership","inputs":[{"name":"newOwner","type":"address","internalType":"address"}],"outputs":[],"stateMutability":"nonpayable"},{"type":"function","name":"wallet","inputs":[],"outputs":[{"name":"","type":"address","internalType":"address"}],"stateMutability":"view"},{"type":"event","name":"Approval","inputs":[{"name":"owner","type":"address","indexed":true,"internalType":"address"},{"name":"spender","type":"address","indexed":true,"internalType":"address"},{"name":"value","type":"uint256","indexed":false,"internalType":"uint256"}],"anonymous":false},{"type":"event","name":"OwnershipTransferred","inputs":[{"name":"previousOwner","type":"address","indexed":true,"internalType":"address"},{"name":"newOwner","type":"address","indexed":true,"internalType":"address"}],"anonymous":false},{"type":"event","name":"SwapAndSendTax","inputs":[{"name":"recipient","type":"address","indexed":false,"internalType":"address"},{"name":"tokensSwapped","type":"uint256","indexed":false,"internalType":"uint256"}],"anonymous":false},{"type":"event","name":"Transfer","inputs":[{"name":"from","type":"address","indexed":true,"internalType":"address"},{"name":"to","type":"address","indexed":true,"internalType":"address"},{"name":"value","type":"uint256","indexed":false,"internalType":"uint256"}],"anonymous":false},{"type":"error","name":"ERC20InsufficientAllowance","inputs":[{"name":"spender","type":"address","internalType":"address"},{"name":"allowance","type":"uint256","internalType":"uint256"},{"name":"needed","type":"uint256","internalType":"uint256"}]},{"type":"error","name":"ERC20InsufficientBalance","inputs":[{"name":"sender","type":"address","internalType":"address"},{"name":"balance","type":"uint256","internalType":"uint256"},{"name":"needed","type":"uint256","internalType":"uint256"}]},{"type":"error","name":"ERC20InvalidApprover","inputs":[{"name":"approver","type":"address","internalType":"address"}]},{"type":"error","name":"ERC20InvalidReceiver","inputs":[{"name":"receiver","type":"address","internalType":"address"}]},{"type":"error","name":"ERC20InvalidSender","inputs":[{"name":"sender","type":"address","internalType":"address"}]},{"type":"error","name":"ERC20InvalidSpender","inputs":[{"name":"spender","type":"address","internalType":"address"}]},{"type":"error","name":"OwnableInvalidOwner","inputs":[{"name":"owner","type":"address","internalType":"address"}]},{"type":"error","name":"OwnableUnauthorizedAccount","inputs":[{"name":"account","type":"address","internalType":"address"}]}],"bytecode":{"object":"0x608080604052346102e25760608161265e803803809161001f828561054e565b8339810103126102e25761003281610571565b9061004b604061004460208401610571565b9201610571565b90610054610585565b9261005d610585565b845190946001600160401b0382116104515760035490600182811c92168015610544575b60208310146104335781601f8493116104d6575b50602090601f8311600114610470575f92610465575b50508160011b915f199060031b1c1916176003555b83516001600160401b03811161045157600454600181811c91168015610447575b602082101461043357601f81116103d0575b50602094601f821160011461036d579481929394955f92610362575b50508160011b915f199060031b1c1916176004555b331561034f5760058054336001600160a01b0319821681179092556001600160a01b03167f8be0079c531659141344cd1fd0a4f28419497f9722a3daafe3b4186f6b6457e05f80a3600680546001600160a01b0319167310ed43c718714eb63d5aa57b78b54704e256024e17905560646007556001600160a01b03811690811561033c576101b1906105d5565b5f908152600f602090815260408083208054600160ff1991821681179092556001600160a01b039586168086529483902080549091169091179055600a80546001600160a01b031990811690941790556009805495851695909316851790925542600e55600654915163c45a015560e01b815292909183916004918391165afa9081156102ee575f916102f9575b506040516364e329cb60e11b81523060048201526024810192909252602090829060449082905f906001600160a01b03165af19081156102ee575f916102b0575b50600880546001600160a01b0319166001600160a01b03929092169190911790556040516117299081610f158239f35b90506020813d6020116102e6575b816102cb6020938361054e565b810103126102e2576102dc90610571565b5f610280565b5f80fd5b3d91506102be565b6040513d5f823e3d90fd5b90506020813d602011610334575b816103146020938361054e565b810103126102e2575f91604461032b602093610571565b9250509161023f565b3d9150610307565b63ec442f0560e01b5f525f60045260245ffd5b631e4fbdf760e01b5f525f60045260245ffd5b015190505f8061010f565b601f1982169560045f52805f20915f5b8881106103b8575083600195969798106103a0575b505050811b01600455610124565b01515f1960f88460031b161c191690555f8080610392565b9192602060018192868501518155019401920161037d565b60045f527f8a35acfbc15ff81a39ae7d344fd709f28e8600b4aa8c65c6b64bfe7fe36bd19b601f830160051c81019160208410610429575b601f0160051c01905b81811061041e57506100f3565b5f8155600101610411565b9091508190610408565b634e487b7160e01b5f52602260045260245ffd5b90607f16906100e1565b634e487b7160e01b5f52604160045260245ffd5b015190505f806100ab565b60035f9081528281209350601f198516905b8181106104be57509084600195949392106104a6575b505050811b016003556100c0565b01515f1960f88460031b161c191690555f8080610498565b92936020600181928786015181550195019301610482565b60035f529091507fc2575a0e9e593c00f959f8c92f12db2869c3395a3b0502d05e2516446f71f85b601f840160051c8101916020851061053a575b90601f859493920160051c01905b81811061052c5750610095565b5f815584935060010161051f565b9091508190610511565b91607f1691610081565b601f909101601f19168101906001600160401b0382119082101761045157604052565b51906001600160a01b03821682036102e257565b60408051919082016001600160401b038111838210176104515760405260038252624c454f60e81b6020830152565b919082039182116105c157565b634e487b7160e01b5f52601160045260245ffd5b60ff600d5460a01c168015610762575b8015610751575b801561071e575b80156106fd575b6106e7576008546001600160a01b0390811690821681146106af5715610642576aadb53acfa41aee120000006106409161063261082f565b61063a610ae0565b5f610777565b565b600754806aadb53acfa41aee1200000002906aadb53acfa41aee120000008204036105c1576064900490816aadb53acfa41aee1200000003906aadb53acfa41aee1200000082116105c157826106409361069e575b505f610777565b6106a990305f610777565b5f610697565b60405162461bcd60e51b815260206004820152601060248201526f29a2a6262fa4a9a224a9a0a12622a21760811b6044820152606490fd5b6aadb53acfa41aee12000000610640915f610777565b506001600160a01b0381165f908152600f602052604090205460ff166105fa565b505f8052600f6020527ff4803e074bd026baaf6ed2e288c9515f68c72fb7216eebdd7cae1718a53ec3755460ff166105f3565b506001600160a01b038116156105ec565b5060016105e5565b919082018092116105c157565b6001600160a01b031690816107dd5760205f51602061263e5f395f51905f52916107a38560025461076a565b6002555b6001600160a01b031693846107c85780600254036002555b604051908152a3565b845f525f825260405f208181540190556107bf565b815f525f60205260405f2054838110610814575f51602061263e5f395f51905f529184602092855f525f84520360405f20556107a7565b91905063391434e360e21b5f5260045260245260445260645ffd5b5f305f525f60205260405f2054908115610adc57602882028281046028036105c15761086592606461086a9204938480926105b4565b6105b4565b600c549092906001600160a01b0316151580610ad3575b15610ab657600c5461089e9082906001600160a01b031630610777565b600c546001600160a01b0316803b156102e2575f809160246040518094819363cc430ced60e01b83528760048401525af180156102ee57610aa1575b505b600b546001600160a01b031680151580610a98575b610929575b5050600a546001600160a01b0316905080151580610920575b610917575050565b61064091610d21565b5081151561090f565b6009546040516370a0823160e01b8152600481018390529190602090839060249082906001600160a01b03165afa918215610a57578492610a62575b506109709192610d21565b600954600b546040516370a0823160e01b81526001600160a01b0391821660048201819052939092909160209184916024918391165afa8015610a57578490610a23575b6109be92506105b4565b813b15610a1f5782916044839260405194859384926315f5e8d760e31b84526001600485015260248401525af18015610a14576109fc575b806108f6565b610a0782809261054e565b610a1157806109f6565b80fd5b6040513d84823e3d90fd5b8280fd5b506020823d602011610a4f575b81610a3d6020938361054e565b810103126102e2576109be91516109b4565b3d9150610a30565b6040513d86823e3d90fd5b91506020823d602011610a90575b81610a7d6020938361054e565b810103126102e257610970915191610965565b3d9150610a70565b508115156108f1565b610aae9192505f9061054e565b5f905f6108da565b600a54610ace9082906001600160a01b031630610777565b6108dc565b50801515610881565b5050565b600d54905f9160ff8160a81c16610d1c57600e546201518081018091116105c1574210610d1c5760025461dead5f9081526020527f44ad89ba62b98ff34f51403ac22759b55759460c0bb5521eb4b6ee3cff49cf8354610b3f916105b4565b906a115eec47f6cf7e35000000821115610d03575060018060a01b036008541690815f525f60205260405f20548015610cfc57600581029081046005036105c1576103e89004906a115eec47f6cf7e35000000610b9c83836105b4565b10610cdf575b5080610bf9575b5050600e5462015180610bbc82426105b4565b049062015180820291808304620151801490151715610be557610be092935061076a565b600e55565b634e487b7160e01b84526011600452602484fd5b81610c8b57905f51602061263e5f395f51905f52602083610c1f61dead9560025461076a565b6002555b845f525f825260405f20818154019055604051908152a36008546001600160a01b0316803b156102e2575f809160046040518094819363fff6cae960e01b83525af180156102ee57610c76575b80610ba9565b610c839192505f9061054e565b5f905f610c70565b815f525f60205260405f2054818110610cc65760208284935f51602061263e5f395f51905f529361dead965f525f84520360405f2055610c23565b8263391434e360e21b5f5260045260245260445260645ffd5b6a115eec47f6cf7e34ffffff198101915081116105c1575f610ba2565b5050509050565b60ff60a81b1916600160a81b17600d55505f6007559050565b509050565b8015610adc57600d805460ff60a01b1916600160a01b179055604051610d4860608261054e565b60028152602081016040368237815115610f005730815260018060a01b0360095416825160011015610f005760408301526006546001600160a01b03163015610eed578015610eda57305f52600160205260405f20815f526020528360405f20556040518481527f8c5be1e5ebec7d5bd14f71427d1e84f3dd0314c0f7b2291e5b200ac8c7c3b92560203092a360018060a01b036006541690601e4201948542116105c157823b156102e2579290604051938492635c11d79560e01b845260a48401908760048601525f602486015260a060448601525180915260c4840192905f5b818110610eb8575050505f83819593819360018060a01b0316998a6064840152608483015203925af19081610ea8575b50610e71575b5050600d805460ff60a01b19169055565b7faedb4dc54dc30d46d331ffcc44cd836607bea96c12e1b21a95210ed899184d049160409182519182526020820152a15f80610e60565b5f610eb29161054e565b5f610e5a565b82516001600160a01b0316855287955060209485019490920191600101610e2a565b634a1406b160e11b5f525f60045260245ffd5b63e602df0560e01b5f525f60045260245ffd5b634e487b7160e01b5f52603260045260245ffdfe6080806040526004361015610012575f80fd5b5f905f3560e01c90816303fd2a4514610c635750806305501a6b14610c3e578063056b080b14610c1e57806306fdde0314610b2a578063095ea7b314610b045780630a296fc214610ae457806318160ddd14610ac757806323b872dd146109e85780632f743591146109c3578063313ce567146109a857806334fcf43714610987578063521eb2731461095f578063551512de146108af5780636f93b55c146107e757806370a08231146107a6578063715018a614610749578063854bec87146107205780638da5cb5b146106f757806395d89b41146105ee57806398eb057414610536578063a7cd52cb146104f7578063a9059cbb146104c5578063b8c9d25c1461049c578063c21ebd0714610473578063c54e44eb1461044a578063c7fb372f14610421578063d2f7265a146103f8578063dd62ed3e146103a5578063e306744914610387578063f01fe7c41461024e578063f2fde38b146101c5578063f846a885146101a95763fc37987b14610189575f80fd5b346101a657806003193601126101a6576020600754604051908152f35b80fd5b50346101a657806003193601126101a657602060405160058152f35b50346101a65760203660031901126101a6576101df610ca7565b6101e7610d1f565b6001600160a01b0316801561023a57600580546001600160a01b0319811683179091556001600160a01b03167f8be0079c531659141344cd1fd0a4f28419497f9722a3daafe3b4186f6b6457e08380a380f35b631e4fbdf760e01b82526004829052602482fd5b50346101a65760403660031901126101a65760043567ffffffffffffffff811161038357366023820112156103835780600401359067ffffffffffffffff821161036f578160051b9060208201926102a96040519485610ce9565b8352602460208401928201019036821161036b57602401915b818310610347575050506024359081151580920361034357906102e3610d1f565b60ff16825b825181101561033f57825181101561032b576020600582901b84018101516001600160a01b03168552600f905260408420805460ff1916831790556001016102e8565b634e487b7160e01b84526032600452602484fd5b8380f35b8280fd5b82356001600160a01b0381168103610367578152602092830192016102c2565b8580fd5b8480fd5b634e487b7160e01b83526041600452602483fd5b5080fd5b50346101a657806003193601126101a6576020600e54604051908152f35b50346101a65760403660031901126101a65760406103c1610ca7565b916103ca610cbd565b9260018060a01b031681526001602052209060018060a01b03165f52602052602060405f2054604051908152f35b50346101a657806003193601126101a657600d546040516001600160a01b039091168152602090f35b50346101a657806003193601126101a657600b546040516001600160a01b039091168152602090f35b50346101a657806003193601126101a6576009546040516001600160a01b039091168152602090f35b50346101a657806003193601126101a6576006546040516001600160a01b039091168152602090f35b50346101a657806003193601126101a6576008546040516001600160a01b039091168152602090f35b50346101a65760403660031901126101a6576104ec6104e2610ca7565b60243590336111da565b602060405160018152f35b50346101a65760203660031901126101a65760209060ff906040906001600160a01b03610522610ca7565b168152600f84522054166040519015158152f35b50346101a65760603660031901126101a657610550610ca7565b610558610cbd565b90610561610cd3565b9061056a610d1f565b600b80546001600160a01b03199081166001600160a01b03938416908117909255600c80548216958416959095178555600d805490911693831693841790558452600f60208181526040808720805460ff19908116600190811790925596549094168752828252808720805487168517905593865252908320805490921617905580f35b50346101a657806003193601126101a6576040519080600454908160011c916001811680156106ed575b6020841081146106d9578386529081156106b25750600114610655575b6106518461064581860382610ce9565b60405191829182610c7d565b0390f35b600481527f8a35acfbc15ff81a39ae7d344fd709f28e8600b4aa8c65c6b64bfe7fe36bd19b939250905b8082106106985750909150810160200161064582610635565b91926001816020925483858801015201910190929161067f565b60ff191660208087019190915292151560051b850190920192506106459150839050610635565b634e487b7160e01b83526022600452602483fd5b92607f1692610618565b50346101a657806003193601126101a6576005546040516001600160a01b039091168152602090f35b50346101a657806003193601126101a657600c546040516001600160a01b039091168152602090f35b50346101a657806003193601126101a657610762610d1f565b600580546001600160a01b0319811690915581906001600160a01b03167f8be0079c531659141344cd1fd0a4f28419497f9722a3daafe3b4186f6b6457e08280a380f35b50346101a65760203660031901126101a65760206107df6107c5610ca7565b6001600160a01b03165f9081526020819052604090205490565b604051908152f35b503461087657602036600319011261087657600d546001600160a01b0316330361087a5760085461082490600435906001600160a01b0316611229565b6008546001600160a01b0316803b15610876575f809160046040518094819363fff6cae960e01b83525af1801561086b5761085d575080f35b61086991505f90610ce9565b005b6040513d5f823e3d90fd5b5f80fd5b60405162461bcd60e51b815260206004820152600d60248201526c2727afa822a926a4a9a9a4a7a760991b6044820152606490fd5b34610876576060366003190112610876575f60206109126108ce610ca7565b6108d6610cd3565b6108de610d1f565b60405163a9059cbb60e01b81526001600160a01b039091166004820152602480359082015293849283919082906044820190565b03926001600160a01b03165af1801561086b5761092b57005b6020813d602011610957575b8161094460209383610ce9565b8101031261087657518015150361087657005b3d9150610937565b34610876575f36600319011261087657600a546040516001600160a01b039091168152602090f35b34610876576020366003190112610876576109a0610d1f565b600435600755005b34610876575f36600319011261087657602060405160128152f35b34610876575f36600319011261087657602060ff600d5460a81c166040519015158152f35b3461087657606036600319011261087657610a01610ca7565b610a09610cbd565b6001600160a01b0382165f818152600160209081526040808320338452909152902054909260443592915f198110610a47575b506104ec93506111da565b838110610aac578415610a99573315610a86576104ec945f52600160205260405f2060018060a01b0333165f526020528360405f209103905584610a3c565b634a1406b160e11b5f525f60045260245ffd5b63e602df0560e01b5f525f60045260245ffd5b8390637dc7a0d960e11b5f523360045260245260445260645ffd5b34610876575f366003190112610876576020600254604051908152f35b34610876575f36600319011261087657610afc610d1f565b610869611020565b34610876576040366003190112610876576104ec610b20610ca7565b602435903361151e565b34610876575f366003190112610876576040515f6003548060011c90600181168015610c14575b602083108114610c0057828552908115610bdc5750600114610b7e575b6106518361064581850382610ce9565b91905060035f527fc2575a0e9e593c00f959f8c92f12db2869c3395a3b0502d05e2516446f71f85b915f905b808210610bc257509091508101602001610645610b6e565b919260018160209254838588010152019101909291610baa565b60ff191660208086019190915291151560051b840190910191506106459050610b6e565b634e487b7160e01b5f52602260045260245ffd5b91607f1691610b51565b34610876575f36600319011261087657610c36610d1f565b610869610d67565b34610876575f3660031901126108765760206040516a115eec47f6cf7e350000008152f35b34610876575f366003190112610876578061dead60209252f35b602060409281835280519182918282860152018484015e5f828201840152601f01601f1916010190565b600435906001600160a01b038216820361087657565b602435906001600160a01b038216820361087657565b604435906001600160a01b038216820361087657565b90601f8019910116810190811067ffffffffffffffff821117610d0b57604052565b634e487b7160e01b5f52604160045260245ffd5b6005546001600160a01b03163303610d3357565b63118cdaa760e01b5f523360045260245ffd5b91908203918211610d5357565b634e487b7160e01b5f52601160045260245ffd5b5f305f525f60205260405f205490811561100f5760288202828104602803610d5357610d9d926064610da2920493848092610d46565b610d46565b600c549092906001600160a01b0316151580611006575b15610fe957600c54610dd69082906001600160a01b0316306112cd565b600c546001600160a01b0316803b15610876575f809160246040518094819363cc430ced60e01b83528760048401525af1801561086b57610fd4575b505b600b546001600160a01b031680151580610fcb575b610e63575b5050600a546001600160a01b0316905080151580610e5a575b610e4f575050565b610e5891611385565b565b50811515610e47565b6009546040516370a0823160e01b8152600481018390529190602090839060249082906001600160a01b03165afa918215610f8a578492610f95575b50610eaa9192611385565b600954600b546040516370a0823160e01b81526001600160a01b0391821660048201819052939092909160209184916024918391165afa8015610f8a578490610f56575b610ef89250610d46565b813b156103435782916044839260405194859384926315f5e8d760e31b84526001600485015260248401525af18015610f4b57610f36575b80610e2e565b610f41828092610ce9565b6101a65780610f30565b6040513d84823e3d90fd5b506020823d602011610f82575b81610f7060209383610ce9565b8101031261087657610ef89151610eee565b3d9150610f63565b6040513d86823e3d90fd5b91506020823d602011610fc3575b81610fb060209383610ce9565b8101031261087657610eaa915191610e9f565b3d9150610fa3565b50811515610e29565b610fe19192505f90610ce9565b5f905f610e12565b600a546110019082906001600160a01b0316306112cd565b610e14565b50801515610db9565b5050565b91908201809211610d5357565b600d54905f9160ff8160a81c166111d557600e54620151808101809111610d535742106111d55760025461dead5f9081526020527f44ad89ba62b98ff34f51403ac22759b55759460c0bb5521eb4b6ee3cff49cf835461107f91610d46565b906a115eec47f6cf7e350000008211156111bc57506008546001600160a01b03165f8181526020819052604090205490919080156111b55760058102908104600503610d53576103e89004906a115eec47f6cf7e350000006110e18383610d46565b10611198575b508061113e575b5050600e54620151806111018242610d46565b04906201518082029180830462015180149015171561112a57611125929350611013565b600e55565b634e487b7160e01b84526011600452602484fd5b61114791611229565b6008546001600160a01b0316803b15610876575f809160046040518094819363fff6cae960e01b83525af1801561086b57611183575b806110ee565b6111909192505f90610ce9565b5f905f61117d565b6a115eec47f6cf7e34ffffff19810191508111610d53575f6110e7565b5050509050565b60ff60a81b1916600160a81b17600d55505f6007559050565b509050565b91906001600160a01b03831615611216576001600160a01b0381161561120357610e5892611581565b63ec442f0560e01b5f525f60045260245ffd5b634b637e8f60e11b5f525f60045260245ffd5b9091906001600160a01b031680611278575f5160206116d45f395f51905f5260208461125b61dead9596600254611013565b6002555b845f525f825260405f20818154019055604051908152a3565b805f525f60205260405f20548381106112b35760208461dead94955f5160206116d45f395f51905f5293855f525f84520360405f205561125f565b915063391434e360e21b5f5260045260245260445260645ffd5b6001600160a01b031690816113335760205f5160206116d45f395f51905f52916112f985600254611013565b6002555b6001600160a01b0316938461131e5780600254036002555b604051908152a3565b845f525f825260405f20818154019055611315565b815f525f60205260405f205483811061136a575f5160206116d45f395f51905f529184602092855f525f84520360405f20556112fd565b91905063391434e360e21b5f5260045260245260445260645ffd5b801561100f57600d805460ff60a01b1916600160a01b1790556040516113ac606082610ce9565b6002815260208101604036823781511561150a5730815260018060a01b036009541682516001101561150a5760408301526006546113f59084906001600160a01b03163061151e565b6006546001600160a01b03169042601e8101908110610d5357823b15610876579290604051938492635c11d79560e01b845260a48401908760048601525f602486015260a060448601525180915260c4840192905f5b8181106114e8575050506001600160a01b038716606484015260848301525f929082900390829084905af190816114d8575b50611494575b5050600d805460ff60a01b19169055565b604080516001600160a01b0393909316835260208301919091527faedb4dc54dc30d46d331ffcc44cd836607bea96c12e1b21a95210ed899184d0491a15f80611483565b5f6114e291610ce9565b5f61147d565b82516001600160a01b031685528795506020948501949092019160010161144b565b634e487b7160e01b5f52603260045260245ffd5b6001600160a01b0316908115610a99576001600160a01b0316918215610a865760207f8c5be1e5ebec7d5bd14f71427d1e84f3dd0314c0f7b2291e5b200ac8c7c3b92591835f526001825260405f20855f5282528060405f2055604051908152a3565b919060ff600d5460a01c1680156116c2575b80156116b1575b8015611690575b801561166f575b611666576008546001600160a01b03908116908216811461162e576001600160a01b038416146115eb57610e58926115de610d67565b6115e6611020565b6112cd565b60075492838302938385041483151715610d53576116106064610e5895048094610d46565b928061161d575b506112cd565b6116289030836112cd565b5f611617565b60405162461bcd60e51b815260206004820152601060248201526f29a2a6262fa4a9a224a9a0a12622a21760811b6044820152606490fd5b610e58926112cd565b506001600160a01b0381165f908152600f602052604090205460ff166115a8565b506001600160a01b0383165f908152600f602052604090205460ff166115a1565b506001600160a01b0381161561159a565b506001600160a01b0383161561159356feddf252ad1be2c89b69c2b068fc378daa952ba7f163c4a11628f55a4df523b3efa2646970667358221220c74bd12174d81478398921ccdcd69ef962bddadcfd340c6d51f65a93ae91871f64736f6c634300081e0033ddf252ad1be2c89b69c2b068fc378daa952ba7f163c4a11628f55a4df523b3ef","linkReferences":{}},"methodIdentifiers":{"BURN_MIN_LIMIT()":"05501a6b","BURN_RATE()":"f846a885","DEAD()":"03fd2a45","USDT()":"c54e44eb","allowance(address,address)":"dd62ed3e","allowlist(address)":"a7cd52cb","approve(address,uint256)":"095ea7b3","balanceOf(address)":"70a08231","burnFinished()":"2f743591","burnFromPair()":"0a296fc2","buyRate()":"fc37987b","decimals()":"313ce567","emergencyWithdraw(address,uint256,address)":"551512de","exchange()":"d2f7265a","issueBuyTaxFee()":"056b080b","lastBurnTime()":"e3067449","name()":"06fdde03","nodeDividends()":"c7fb372f","owner()":"8da5cb5b","pancakePair()":"b8c9d25c","pancakeRouter()":"c21ebd07","payback()":"854bec87","renounceOwnership()":"715018a6","setAddrConfig(address,address,address)":"98eb0574","setAllowlist(address[],bool)":"f01fe7c4","setRate(uint256)":"34fcf437","specialWithdraw(uint256)":"6f93b55c","symbol()":"95d89b41","totalSupply()":"18160ddd","transfer(address,uint256)":"a9059cbb","transferFrom(address,address,uint256)":"23b872dd","transferOwnership(address)":"f2fde38b","wallet()":"521eb273"},"id":76}