{"abi":[{"type":"constructor","inputs":[{"name":"_initialRecipient","type":"address","internalType":"address"},{"name":"_wallet","type":"address","internalType":"address"},{"name":"_USDT","type":"address","internalType":"address"}],"stateMutability":"nonpayable"},{"type":"function","name":"DEAD","inputs":[],"outputs":[{"name":"","type":"address","internalType":"address"}],"stateMutability":"view"},{"type":"function","name":"PROFIT_NODE_TAX_RATE","inputs":[],"outputs":[{"name":"","type":"uint256","internalType":"uint256"}],"stateMutability":"view"},{"type":"function","name":"PROFIT_SUBCOIN_TAX_RATE","inputs":[],"outputs":[{"name":"","type":"uint256","internalType":"uint256"}],"stateMutability":"view"},{"type":"function","name":"PROFIT_WALLET_TAX_RATE","inputs":[],"outputs":[{"name":"","type":"uint256","internalType":"uint256"}],"stateMutability":"view"},{"type":"function","name":"USDT","inputs":[],"outputs":[{"name":"","type":"address","internalType":"address"}],"stateMutability":"view"},{"type":"function","name":"allowance","inputs":[{"name":"owner","type":"address","internalType":"address"},{"name":"spender","type":"address","internalType":"address"}],"outputs":[{"name":"","type":"uint256","internalType":"uint256"}],"stateMutability":"view"},{"type":"function","name":"allowlist","inputs":[{"name":"","type":"address","internalType":"address"}],"outputs":[{"name":"","type":"bool","internalType":"bool"}],"stateMutability":"view"},{"type":"function","name":"approve","inputs":[{"name":"spender","type":"address","internalType":"address"},{"name":"value","type":"uint256","internalType":"uint256"}],"outputs":[{"name":"","type":"bool","internalType":"bool"}],"stateMutability":"nonpayable"},{"type":"function","name":"balanceOf","inputs":[{"name":"account","type":"address","internalType":"address"}],"outputs":[{"name":"","type":"uint256","internalType":"uint256"}],"stateMutability":"view"},{"type":"function","name":"buyRate","inputs":[],"outputs":[{"name":"","type":"uint256","internalType":"uint256"}],"stateMutability":"view"},{"type":"function","name":"currentPrice","inputs":[],"outputs":[{"name":"","type":"uint256","internalType":"uint256"}],"stateMutability":"view"},{"type":"function","name":"decimals","inputs":[],"outputs":[{"name":"","type":"uint8","internalType":"uint8"}],"stateMutability":"view"},{"type":"function","name":"getHighestReserve","inputs":[],"outputs":[{"name":"","type":"uint256","internalType":"uint256"}],"stateMutability":"view"},{"type":"function","name":"highestReserve","inputs":[],"outputs":[{"name":"","type":"uint256","internalType":"uint256"}],"stateMutability":"view"},{"type":"function","name":"leo","inputs":[],"outputs":[{"name":"","type":"address","internalType":"address"}],"stateMutability":"view"},{"type":"function","name":"name","inputs":[],"outputs":[{"name":"","type":"string","internalType":"string"}],"stateMutability":"view"},{"type":"function","name":"nodeDividends","inputs":[],"outputs":[{"name":"","type":"address","internalType":"address"}],"stateMutability":"view"},{"type":"function","name":"openBuy","inputs":[],"outputs":[{"name":"","type":"bool","internalType":"bool"}],"stateMutability":"view"},{"type":"function","name":"openSell","inputs":[],"outputs":[{"name":"","type":"bool","internalType":"bool"}],"stateMutability":"view"},{"type":"function","name":"owner","inputs":[],"outputs":[{"name":"","type":"address","internalType":"address"}],"stateMutability":"view"},{"type":"function","name":"pancakeFactory","inputs":[],"outputs":[{"name":"","type":"address","internalType":"address"}],"stateMutability":"view"},{"type":"function","name":"pancakePair","inputs":[],"outputs":[{"name":"","type":"address","internalType":"address"}],"stateMutability":"view"},{"type":"function","name":"pancakeRouter","inputs":[],"outputs":[{"name":"","type":"address","internalType":"contract IUniswapV2Router02"}],"stateMutability":"view"},{"type":"function","name":"payback","inputs":[],"outputs":[{"name":"","type":"address","internalType":"address"}],"stateMutability":"view"},{"type":"function","name":"renounceOwnership","inputs":[],"outputs":[],"stateMutability":"nonpayable"},{"type":"function","name":"sellRate","inputs":[],"outputs":[{"name":"","type":"uint256","internalType":"uint256"}],"stateMutability":"view"},{"type":"function","name":"setAddrConfig","inputs":[{"name":"_treasuryLiquidity","type":"address","internalType":"address"},{"name":"_payback","type":"address","internalType":"address"},{"name":"_nodeDividends","type":"address","internalType":"address"},{"name":"_leo","type":"address","internalType":"address"}],"outputs":[],"stateMutability":"nonpayable"},{"type":"function","name":"setRate","inputs":[{"name":"_buy","type":"uint256","internalType":"uint256"},{"name":"_sell","type":"uint256","internalType":"uint256"}],"outputs":[],"stateMutability":"nonpayable"},{"type":"function","name":"specialWithdraw","inputs":[{"name":"amount","type":"uint256","internalType":"uint256"}],"outputs":[],"stateMutability":"nonpayable"},{"type":"function","name":"swapThreshold","inputs":[],"outputs":[{"name":"","type":"uint256","internalType":"uint256"}],"stateMutability":"view"},{"type":"function","name":"switchBuy","inputs":[{"name":"_b","type":"bool","internalType":"bool"}],"outputs":[],"stateMutability":"nonpayable"},{"type":"function","name":"switchSell","inputs":[{"name":"_b","type":"bool","internalType":"bool"}],"outputs":[],"stateMutability":"nonpayable"},{"type":"function","name":"symbol","inputs":[],"outputs":[{"name":"","type":"string","internalType":"string"}],"stateMutability":"view"},{"type":"function","name":"totalCostUsdt","inputs":[{"name":"","type":"address","internalType":"address"}],"outputs":[{"name":"","type":"uint256","internalType":"uint256"}],"stateMutability":"view"},{"type":"function","name":"totalSupply","inputs":[],"outputs":[{"name":"","type":"uint256","internalType":"uint256"}],"stateMutability":"view"},{"type":"function","name":"transfer","inputs":[{"name":"to","type":"address","internalType":"address"},{"name":"value","type":"uint256","internalType":"uint256"}],"outputs":[{"name":"","type":"bool","internalType":"bool"}],"stateMutability":"nonpayable"},{"type":"function","name":"transferFrom","inputs":[{"name":"from","type":"address","internalType":"address"},{"name":"to","type":"address","internalType":"address"},{"name":"value","type":"uint256","internalType":"uint256"}],"outputs":[{"name":"","type":"bool","internalType":"bool"}],"stateMutability":"nonpayable"},{"type":"function","name":"transferOwnership","inputs":[{"name":"newOwner","type":"address","internalType":"address"}],"outputs":[],"stateMutability":"nonpayable"},{"type":"function","name":"treasuryLiquidity","inputs":[],"outputs":[{"name":"","type":"address","internalType":"address"}],"stateMutability":"view"},{"type":"function","name":"wallet","inputs":[],"outputs":[{"name":"","type":"address","internalType":"address"}],"stateMutability":"view"},{"type":"event","name":"Approval","inputs":[{"name":"owner","type":"address","indexed":true,"internalType":"address"},{"name":"spender","type":"address","indexed":true,"internalType":"address"},{"name":"value","type":"uint256","indexed":false,"internalType":"uint256"}],"anonymous":false},{"type":"event","name":"OwnershipTransferred","inputs":[{"name":"previousOwner","type":"address","indexed":true,"internalType":"address"},{"name":"newOwner","type":"address","indexed":true,"internalType":"address"}],"anonymous":false},{"type":"event","name":"SwapAndSendTax","inputs":[{"name":"recipient","type":"address","indexed":false,"internalType":"address"},{"name":"tokensSwapped","type":"uint256","indexed":false,"internalType":"uint256"}],"anonymous":false},{"type":"event","name":"Transfer","inputs":[{"name":"from","type":"address","indexed":true,"internalType":"address"},{"name":"to","type":"address","indexed":true,"internalType":"address"},{"name":"value","type":"uint256","indexed":false,"internalType":"uint256"}],"anonymous":false},{"type":"error","name":"ERC20InsufficientAllowance","inputs":[{"name":"spender","type":"address","internalType":"address"},{"name":"allowance","type":"uint256","internalType":"uint256"},{"name":"needed","type":"uint256","internalType":"uint256"}]},{"type":"error","name":"ERC20InsufficientBalance","inputs":[{"name":"sender","type":"address","internalType":"address"},{"name":"balance","type":"uint256","internalType":"uint256"},{"name":"needed","type":"uint256","internalType":"uint256"}]},{"type":"error","name":"ERC20InvalidApprover","inputs":[{"name":"approver","type":"address","internalType":"address"}]},{"type":"error","name":"ERC20InvalidReceiver","inputs":[{"name":"receiver","type":"address","internalType":"address"}]},{"type":"error","name":"ERC20InvalidSender","inputs":[{"name":"sender","type":"address","internalType":"address"}]},{"type":"error","name":"ERC20InvalidSpender","inputs":[{"name":"spender","type":"address","internalType":"address"}]},{"type":"error","name":"OwnableInvalidOwner","inputs":[{"name":"owner","type":"address","internalType":"address"}]},{"type":"error","name":"OwnableUnauthorizedAccount","inputs":[{"name":"account","type":"address","internalType":"address"}]}],"bytecode":{"object":"0x6101006040526005600b556005600c55678ac7230489e80000600d55348015610026575f5ffd5b50604051613f16380380613f168339810160408190526100459161161f565b6040805180820182526003808252620988ab60eb1b6020808401829052845180860190955282855284015233929061007d83826116ef565b50600461008a82826116ef565b5050506001600160a01b0381166100bb57604051631e4fbdf760e01b81525f60048201526024015b60405180910390fd5b6100c481610233565b506100da836a115eec47f6cf7e35000000610284565b7310ed43c718714eb63d5aa57b78b54704e256024e60808190526001600160a01b0382811660e052600880546001600160a01b0319169185169190911790556040805163c45a015560e01b8152905163c45a0155916004808201926020929091908290030181865afa158015610152573d5f5f3e3d5ffd5b505050506040513d601f19601f8201168201806040525081019061017691906117a9565b6001600160a01b0390811660a081905260e0516040516364e329cb60e11b8152306004820152921660248301529063c9c65396906044016020604051808303815f875af11580156101c9573d5f5f3e3d5ffd5b505050506040513d601f19601f820116820180604052508101906101ed91906117a9565b6001600160a01b0390811660c0529283165f908152601060205260408082208054600160ff199182168117909255949095168252902080549092169092179055506119f3565b600580546001600160a01b038381166001600160a01b0319831681179093556040519116919082907f8be0079c531659141344cd1fd0a4f28419497f9722a3daafe3b4186f6b6457e0905f90a35050565b6001600160a01b0382166102ad5760405163ec442f0560e01b81525f60048201526024016100b2565b6102b85f83836102bc565b5050565b60e0516001600160a01b0316158015906102e0575060c0516001600160a01b031615155b1561036b5760e05160c0516040516370a0823160e01b81526001600160a01b0391821660048201525f9291909116906370a0823190602401602060405180830381865afa158015610333573d5f5f3e3d5ffd5b505050506040513d601f19601f8201168201806040525081019061035791906117c9565b9050600e5481111561036957600e8190555b505b600f5460ff168061038357506001600160a01b038316155b8061039557506001600160a01b038216155b806103b757506001600160a01b0383165f9081526010602052604090205460ff165b806103d957506001600160a01b0382165f9081526010602052604090205460ff165b156103ee576103e983838361059b565b505050565b60c0516001600160a01b0390811684821681149184161481156104a457600f54610100900460ff166104515760405162461bcd60e51b815260206004820152600c60248201526b10955657d11254d05093115160a21b60448201526064016100b2565b5f6064600b548561046291906117f4565b61046c919061180b565b90505f610479828661182a565b905061048586826106c1565b61049087308461059b565b61049b87878361059b565b50505050505050565b801561057e57600f5462010000900460ff166104f25760405162461bcd60e51b815260206004820152600d60248201526c14d1531317d11254d050931151609a1b60448201526064016100b2565b5f6064600c548561050391906117f4565b61050d919061180b565b90505f61051a828661182a565b90505f6105278883610787565b905080156105435761053a88308361059b565b61054381610842565b61054e88308561059b565b610562888861055d848661182a565b61059b565b61056c8887610c6a565b610574610d29565b5050505050505050565b61058985858561059b565b610594858585610f18565b5050505050565b6001600160a01b0383166105c5578060025f8282546105ba919061183d565b909155506106359050565b6001600160a01b0383165f90815260208190526040902054818110156106175760405163391434e360e21b81526001600160a01b038516600482015260248101829052604481018390526064016100b2565b6001600160a01b0384165f9081526020819052604090209082900390555b6001600160a01b0382166106515760028054829003905561066f565b6001600160a01b0382165f9081526020819052604090208054820190555b816001600160a01b0316836001600160a01b03167fddf252ad1be2c89b69c2b068fc378daa952ba7f163c4a11628f55a4df523b3ef836040516106b491815260200190565b60405180910390a3505050565b6080516001600160a01b0316826001600160a01b031614806106f6575060c0516001600160a01b0316826001600160a01b0316145b8061070b57506001600160a01b03821661dead145b8061071e57506001600160a01b03821630145b15610727575050565b5f61073061105c565b90505f670de0b6b3a764000061074684846117f4565b610750919061180b565b6001600160a01b0385165f9081526011602052604081208054929350839290919061077c90849061183d565b909155505050505050565b6001600160a01b0382165f908152602081815260408083205460119092528220548291906107b69085906117f4565b6107c0919061180b565b90505f6107cc84611171565b90508181116107df575f9250505061083c565b5f6107ea838361182a565b90505f826107f883886117f4565b610802919061180b565b90505f6005610812600a8061183d565b61081c919061183d565b9050606461082a82846117f4565b610834919061180b565b955050505050505b92915050565b5f6005610850600a8061183d565b61085a919061183d565b90505f816108696005856117f4565b610873919061180b565b90505f82610882600a866117f4565b61088c919061180b565b90505f8161089a848761182a565b6108a4919061182a565b6009549091505f906001600160a01b0316158015906108c257505f84115b15610a445760e0516009546040516370a0823160e01b81526001600160a01b0391821660048201525f9291909116906370a0823190602401602060405180830381865afa158015610915573d5f5f3e3d5ffd5b505050506040513d601f19601f8201168201806040525081019061093991906117c9565b9050610959610946611211565b60095487906001600160a01b031661129d565b60e0516009546040516370a0823160e01b81526001600160a01b0391821660048201525f92849216906370a0823190602401602060405180830381865afa1580156109a6573d5f5f3e3d5ffd5b505050506040513d601f19601f820116820180604052508101906109ca91906117c9565b6109d4919061182a565b90508015610a3d576009546040516315f5e8d760e31b81526001600160a01b039091169063afaf46b890610a0f906002908590600401611850565b5f604051808303815f87803b158015610a26575f5ffd5b505af1158015610a38573d5f5f3e3d5ffd5b505050505b5050610a51565b610a4e848261183d565b90505b600a546001600160a01b031615801590610a6e5750610a6e61137a565b8015610a7957505f83115b15610bf457600654600a546040516370a0823160e01b81526001600160a01b0391821660048201525f9291909116906370a0823190602401602060405180830381865afa158015610acc573d5f5f3e3d5ffd5b505050506040513d601f19601f82011682018060405250810190610af091906117c9565b9050610b10610afd61148d565b600a5486906001600160a01b031661129d565b600654600a546040516370a0823160e01b81526001600160a01b0391821660048201525f92849216906370a0823190602401602060405180830381865afa158015610b5d573d5f5f3e3d5ffd5b505050506040513d601f19601f82011682018060405250810190610b8191906117c9565b610b8b919061182a565b90508015610bed57600a5460405163cc430ced60e01b8152600481018390526001600160a01b039091169063cc430ced906024015f604051808303815f87803b158015610bd6575f5ffd5b505af1158015610be8573d5f5f3e3d5ffd5b505050505b5050610c01565b610bfe838261183d565b90505b6008546001600160a01b031615801590610c1a57505f82115b15610c4257610c3d610c2a611211565b60085484906001600160a01b031661129d565b610c4f565b610c4c828261183d565b90505b8015610c6257610c623061dead8361059b565b505050505050565b6001600160a01b0382165f9081526020818152604080832054601190925290912054811580610ca1575067016345785d8a00008211155b15610cc2575050506001600160a01b03165f90815260116020526040812055565b5f82610cce85846117f4565b610cd8919061180b565b9050610ce4818361182a565b6001600160a01b0386165f90815260116020526040902081905567016345785d8a00001061059457505050506001600160a01b03165f90815260116020526040812055565b305f90815260208190526040902054600d54811080610d4a5750600f5460ff165b15610d525750565b805f6064610d618360146117f4565b610d6b919061180b565b90505f6064610d7b8460286117f4565b610d85919061180b565b90505f6064610d958560146117f4565b610d9f919061180b565b90505f8183610dae868861182a565b610db8919061182a565b610dc2919061182a565b6009549091506001600160a01b031615801590610dde57505f84115b15610a445760e0516009546040516370a0823160e01b81526001600160a01b0391821660048201525f9291909116906370a0823190602401602060405180830381865afa158015610e31573d5f5f3e3d5ffd5b505050506040513d601f19601f82011682018060405250810190610e5591906117c9565b9050610e62610946611211565b60e0516009546040516370a0823160e01b81526001600160a01b0391821660048201525f92849216906370a0823190602401602060405180830381865afa158015610eaf573d5f5f3e3d5ffd5b505050506040513d601f19601f82011682018060405250810190610ed391906117c9565b610edd919061182a565b90508015610a3d576009546040516315f5e8d760e31b81526001600160a01b039091169063afaf46b890610a0f906001908590600401611850565b6080516001600160a01b0316826001600160a01b03161480610f4d575060c0516001600160a01b0316826001600160a01b0316145b80610f6257506001600160a01b03821661dead145b80610f7557506001600160a01b03821630145b15610f7f57505050565b6001600160a01b0383165f90815260208190526040812054610fa290839061183d565b6001600160a01b0385165f90815260116020526040902054909150801580610fc8575081155b15610fd4575050505050565b5f82610fe085846117f4565b610fea919061180b565b9050805f03610ffb57505050505050565b5f611006828461182a565b905067016345785d8a0000811161101a57505f5b6001600160a01b038088165f908152601160205260408082208490559188168152908120805484929061104e90849061183d565b909155505050505050505050565b6040805160028082526060820183525f928392919060208301908036833701905050905030815f815181106110935761109361187a565b60200260200101906001600160a01b031690816001600160a01b03168152505060e051816001815181106110c9576110c961187a565b6001600160a01b03928316602091820292909201015260805160405163d06ca61f60e01b815291169063d06ca61f9061111090670de0b6b3a76400009085906004016118d1565b5f60405180830381865afa15801561112a573d5f5f3e3d5ffd5b505050506040513d5f823e601f3d908101601f1916820160405261115191908101906118f1565b6001815181106111635761116361187a565b602002602001015191505090565b5f8061117b611211565b60805160405163d06ca61f60e01b81529192506001600160a01b03169063d06ca61f906111ae90869085906004016118d1565b5f60405180830381865afa1580156111c8573d5f5f3e3d5ffd5b505050506040513d5f823e601f3d908101601f191682016040526111ef91908101906118f1565b6001815181106112015761120161187a565b6020026020010151915050919050565b604080516002808252606080830184529260208301908036833701905050905030815f815181106112445761124461187a565b60200260200101906001600160a01b031690816001600160a01b03168152505060e0518160018151811061127a5761127a61187a565b60200260200101906001600160a01b031690816001600160a01b03168152505090565b815f036112a957505050565b600f805460ff191660011790556080516112c590309084611529565b6080516001600160a01b0316635c11d795835f8685426040518663ffffffff1660e01b81526004016112fb9594939291906119b8565b5f604051808303815f87803b158015611312575f5ffd5b505af1925050508015611323575060015b1561136b57604080516001600160a01b0383168152602081018490527faedb4dc54dc30d46d331ffcc44cd836607bea96c12e1b21a95210ed899184d04910160405180910390a15b5050600f805460ff1916905550565b6006545f906001600160a01b031661139157505f90565b60a05160065460e05160405163e6a4390560e01b81526001600160a01b03928316600482015290821660248201525f92919091169063e6a4390590604401602060405180830381865afa1580156113ea573d5f5f3e3d5ffd5b505050506040513d601f19601f8201168201806040525081019061140e91906117a9565b90506001600160a01b038116611425575f91505090565b5f816001600160a01b03166318160ddd6040518163ffffffff1660e01b8152600401602060405180830381865afa158015611462573d5f5f3e3d5ffd5b505050506040513d601f19601f8201168201806040525081019061148691906117c9565b1191505090565b6040805160038082526080820190925260609160208201838036833701905050905030815f815181106114c2576114c261187a565b60200260200101906001600160a01b031690816001600160a01b03168152505060e051816001815181106114f8576114f861187a565b6001600160a01b03928316602091820292909201015260065482519116908290600290811061127a5761127a61187a565b6103e983838360016001600160a01b03841661155a5760405163e602df0560e01b81525f60048201526024016100b2565b6001600160a01b03831661158357604051634a1406b160e11b81525f60048201526024016100b2565b6001600160a01b038085165f90815260016020908152604080832093871683529290522082905580156115fe57826001600160a01b0316846001600160a01b03167f8c5be1e5ebec7d5bd14f71427d1e84f3dd0314c0f7b2291e5b200ac8c7c3b925846040516115f591815260200190565b60405180910390a35b50505050565b80516001600160a01b038116811461161a575f5ffd5b919050565b5f5f5f60608486031215611631575f5ffd5b61163a84611604565b925061164860208501611604565b915061165660408501611604565b90509250925092565b634e487b7160e01b5f52604160045260245ffd5b600181811c9082168061168757607f821691505b6020821081036116a557634e487b7160e01b5f52602260045260245ffd5b50919050565b601f8211156103e957805f5260205f20601f840160051c810160208510156116d05750805b601f840160051c820191505b81811015610594575f81556001016116dc565b81516001600160401b038111156117085761170861165f565b61171c816117168454611673565b846116ab565b6020601f82116001811461174e575f83156117375750848201515b5f19600385901b1c1916600184901b178455610594565b5f84815260208120601f198516915b8281101561177d578785015182556020948501946001909201910161175d565b508482101561179a57868401515f19600387901b60f8161c191681555b50505050600190811b01905550565b5f602082840312156117b9575f5ffd5b6117c282611604565b9392505050565b5f602082840312156117d9575f5ffd5b5051919050565b634e487b7160e01b5f52601160045260245ffd5b808202811582820484141761083c5761083c6117e0565b5f8261182557634e487b7160e01b5f52601260045260245ffd5b500490565b8181038181111561083c5761083c6117e0565b8082018082111561083c5761083c6117e0565b604081016004841061187057634e487b7160e01b5f52602160045260245ffd5b9281526020015290565b634e487b7160e01b5f52603260045260245ffd5b5f8151808452602084019350602083015f5b828110156118c75781516001600160a01b03168652602095860195909101906001016118a0565b5093949350505050565b828152604060208201525f6118e9604083018461188e565b949350505050565b5f60208284031215611901575f5ffd5b81516001600160401b03811115611916575f5ffd5b8201601f81018413611926575f5ffd5b80516001600160401b0381111561193f5761193f61165f565b604051600582901b90603f8201601f191681016001600160401b038111828210171561196d5761196d61165f565b60405291825260208184018101929081018784111561198a575f5ffd5b6020850194505b838510156119ad57845180825260209586019590935001611991565b509695505050505050565b85815284602082015260a060408201525f6119d660a083018661188e565b6001600160a01b0394909416606083015250608001529392505050565b60805160a05160c05160e051612448611ace5f395f818161048b0152818161086b01528181610d5701528181610dfb01528181611320015281816113cf015281816118770152818161191301528181611c5601528181611dfb0152611f6401525f818161043d015281816106bd015281816106ee01528181610d8a01528181610dd101528181610f05015281816110f90152611a0001525f81816105350152611e2501525f8181610464015281816108c2015281816110be015281816119c501528181611b6701528181611cca0152611d0601526124485ff3fe608060405234801561000f575f5ffd5b506004361061023f575f3560e01c8063854bec8711610135578063c7fb372f116100b4578063e0f1c9c511610079578063e0f1c9c514610530578063f1eae64a14610557578063f2fde38b1461056a578063fc37987b1461057d578063fcb1138d146102fd575f5ffd5b8063c7fb372f146104ad578063ca77f99c146104c0578063cf576cc7146104d3578063d4a67930146104e6578063dd62ed3e146104f8575f5ffd5b8063a7cd52cb116100fa578063a7cd52cb14610403578063a9059cbb14610425578063b8c9d25c14610438578063c21ebd071461045f578063c54e44eb14610486575f5ffd5b8063854bec87146103c75780638da5cb5b146103da57806395d89b41146103eb5780639d1b464a146103f3578063a5aff841146103fb575f5ffd5b806342728ffd116101c15780636cf77e9a116101865780636cf77e9a146103685780636f93b55c1461037157806370a0823114610384578063715018a6146103ac57806372207cc3146103b4575f5ffd5b806342728ffd1461030557806346df2ccb14610318578063521eb2731461032d57806360d1d4a4146103405780636217229b1461035f575f5ffd5b80630c355b47116102075780630c355b47146102cb57806318160ddd146102d357806323b872dd146102db578063313ce567146102ee578063416702c9146102fd575f5ffd5b806303fd2a45146102435780630445b6671461026957806306fdde0314610280578063095ea7b31461029557806309fb6698146102b8575b5f5ffd5b61024c61dead81565b6040516001600160a01b0390911681526020015b60405180910390f35b610272600d5481565b604051908152602001610260565b610288610586565b6040516102609190611fc7565b6102a86102a3366004612010565b610616565b6040519015158152602001610260565b60075461024c906001600160a01b031681565b610272600581565b600254610272565b6102a86102e936600461203a565b61062f565b60405160128152602001610260565b610272600a81565b60065461024c906001600160a01b031681565b61032b610326366004612078565b610652565b005b60085461024c906001600160a01b031681565b61027261034e366004612098565b60116020525f908152604090205481565b610272600c5481565b610272600e5481565b61032b61037f3660046120ba565b610665565b610272610392366004612098565b6001600160a01b03165f9081526020819052604090205490565b61032b61075d565b61032b6103c23660046120d1565b610770565b600a5461024c906001600160a01b031681565b6005546001600160a01b031661024c565b610288610803565b610272610812565b600e54610272565b6102a8610411366004612098565b60106020525f908152604090205460ff1681565b6102a8610433366004612010565b610964565b61024c7f000000000000000000000000000000000000000000000000000000000000000081565b61024c7f000000000000000000000000000000000000000000000000000000000000000081565b61024c7f000000000000000000000000000000000000000000000000000000000000000081565b60095461024c906001600160a01b031681565b61032b6104ce36600461212a565b610971565b61032b6104e136600461212a565b610995565b600f546102a890610100900460ff1681565b610272610506366004612149565b6001600160a01b039182165f90815260016020908152604080832093909416825291909152205490565b61024c7f000000000000000000000000000000000000000000000000000000000000000081565b600f546102a89062010000900460ff1681565b61032b610578366004612098565b6109b7565b610272600b5481565b60606003805461059590612180565b80601f01602080910402602001604051908101604052809291908181526020018280546105c190612180565b801561060c5780601f106105e35761010080835404028352916020019161060c565b820191905f5260205f20905b8154815290600101906020018083116105ef57829003601f168201915b5050505050905090565b5f336106238185856109f4565b60019150505b92915050565b5f3361063c858285610a06565b610647858585610a82565b506001949350505050565b61065a610adf565b600b91909155600c55565b6007546001600160a01b031633146106b45760405162461bcd60e51b815260206004820152600d60248201526c2727afa822a926a4a9a9a4a7a760991b60448201526064015b60405180910390fd5b6007546106ec907f0000000000000000000000000000000000000000000000000000000000000000906001600160a01b031683610b0c565b7f00000000000000000000000000000000000000000000000000000000000000006001600160a01b031663fff6cae96040518163ffffffff1660e01b81526004015f604051808303815f87803b158015610744575f5ffd5b505af1158015610756573d5f5f3e3d5ffd5b5050505050565b610765610adf565b61076e5f610c32565b565b610778610adf565b600780546001600160a01b039586166001600160a01b03199182168117909255600a805495871695821686179055600980549487169482168517905560068054939096169216919091179093555f92835260106020526040808420805460ff199081166001908117909255938552818520805485168217905591845290922080549091169091179055565b60606004805461059590612180565b6040805160028082526060820183525f928392919060208301908036833701905050905030815f81518110610849576108496121cc565b60200260200101906001600160a01b031690816001600160a01b0316815250507f00000000000000000000000000000000000000000000000000000000000000008160018151811061089d5761089d6121cc565b6001600160a01b03928316602091820292909201015260405163d06ca61f60e01b81527f00000000000000000000000000000000000000000000000000000000000000009091169063d06ca61f9061090390670de0b6b3a7640000908590600401612223565b5f60405180830381865afa15801561091d573d5f5f3e3d5ffd5b505050506040513d5f823e601f3d908101601f191682016040526109449190810190612243565b600181518110610956576109566121cc565b602002602001015191505090565b5f33610623818585610a82565b610979610adf565b600f8054911515620100000262ff000019909216919091179055565b61099d610adf565b600f80549115156101000261ff0019909216919091179055565b6109bf610adf565b6001600160a01b0381166109e857604051631e4fbdf760e01b81525f60048201526024016106ab565b6109f181610c32565b50565b610a018383836001610c83565b505050565b6001600160a01b038381165f908152600160209081526040808320938616835292905220545f19811015610a7c5781811015610a6e57604051637dc7a0d960e11b81526001600160a01b038416600482015260248101829052604481018390526064016106ab565b610a7c84848484035f610c83565b50505050565b6001600160a01b038316610aab57604051634b637e8f60e11b81525f60048201526024016106ab565b6001600160a01b038216610ad45760405163ec442f0560e01b81525f60048201526024016106ab565b610a01838383610d55565b6005546001600160a01b0316331461076e5760405163118cdaa760e01b81523360048201526024016106ab565b6001600160a01b038316610b36578060025f828254610b2b919061231f565b90915550610ba69050565b6001600160a01b0383165f9081526020819052604090205481811015610b885760405163391434e360e21b81526001600160a01b038516600482015260248101829052604481018390526064016106ab565b6001600160a01b0384165f9081526020819052604090209082900390555b6001600160a01b038216610bc257600280548290039055610be0565b6001600160a01b0382165f9081526020819052604090208054820190555b816001600160a01b0316836001600160a01b03167fddf252ad1be2c89b69c2b068fc378daa952ba7f163c4a11628f55a4df523b3ef83604051610c2591815260200190565b60405180910390a3505050565b600580546001600160a01b038381166001600160a01b0319831681179093556040519116919082907f8be0079c531659141344cd1fd0a4f28419497f9722a3daafe3b4186f6b6457e0905f90a35050565b6001600160a01b038416610cac5760405163e602df0560e01b81525f60048201526024016106ab565b6001600160a01b038316610cd557604051634a1406b160e11b81525f60048201526024016106ab565b6001600160a01b038085165f9081526001602090815260408083209387168352929052208290558015610a7c57826001600160a01b0316846001600160a01b03167f8c5be1e5ebec7d5bd14f71427d1e84f3dd0314c0f7b2291e5b200ac8c7c3b92584604051610d4791815260200190565b60405180910390a350505050565b7f00000000000000000000000000000000000000000000000000000000000000006001600160a01b031615801590610db557507f00000000000000000000000000000000000000000000000000000000000000006001600160a01b031615155b15610e7a576040516370a0823160e01b81526001600160a01b037f0000000000000000000000000000000000000000000000000000000000000000811660048301525f917f0000000000000000000000000000000000000000000000000000000000000000909116906370a0823190602401602060405180830381865afa158015610e42573d5f5f3e3d5ffd5b505050506040513d601f19601f82011682018060405250810190610e669190612332565b9050600e54811115610e7857600e8190555b505b600f5460ff1680610e9257506001600160a01b038316155b80610ea457506001600160a01b038216155b80610ec657506001600160a01b0383165f9081526010602052604090205460ff165b80610ee857506001600160a01b0382165f9081526010602052604090205460ff165b15610ef857610a01838383610b0c565b6001600160a01b038381167f00000000000000000000000000000000000000000000000000000000000000008216908114918416148115610fcc57600f54610100900460ff16610f795760405162461bcd60e51b815260206004820152600c60248201526b10955657d11254d05093115160a21b60448201526064016106ab565b5f6064600b5485610f8a9190612349565b610f949190612360565b90505f610fa1828661237f565b9050610fad86826110bc565b610fb8873084610b0c565b610fc3878783610b0c565b50505050505050565b80156110a657600f5462010000900460ff1661101a5760405162461bcd60e51b815260206004820152600d60248201526c14d1531317d11254d050931151609a1b60448201526064016106ab565b5f6064600c548561102b9190612349565b6110359190612360565b90505f611042828661237f565b90505f61104f88836111be565b9050801561106b57611062883083610b0c565b61106b81611277565b611076883085610b0c565b61108a8888611085848661237f565b610b0c565b61109488876116da565b61109c611799565b5050505050505050565b6110b1858585610b0c565b6107568585856119c3565b7f00000000000000000000000000000000000000000000000000000000000000006001600160a01b0316826001600160a01b0316148061112d57507f00000000000000000000000000000000000000000000000000000000000000006001600160a01b0316826001600160a01b0316145b8061114257506001600160a01b03821661dead145b8061115557506001600160a01b03821630145b1561115e575050565b5f611167610812565b90505f670de0b6b3a764000061117d8484612349565b6111879190612360565b6001600160a01b0385165f908152601160205260408120805492935083929091906111b390849061231f565b909155505050505050565b6001600160a01b0382165f908152602081815260408083205460119092528220548291906111ed908590612349565b6111f79190612360565b90505f61120384611b43565b9050818111611216575f92505050610629565b5f611221838361237f565b90505f8261122f8388612349565b6112399190612360565b90505f6005611249600a8061231f565b611253919061231f565b905060646112618284612349565b61126b9190612360565b98975050505050505050565b5f6005611285600a8061231f565b61128f919061231f565b90505f8161129e600585612349565b6112a89190612360565b90505f826112b7600a86612349565b6112c19190612360565b90505f816112cf848761237f565b6112d9919061237f565b6009549091505f906001600160a01b0316158015906112f757505f84115b156114b4576009546040516370a0823160e01b81526001600160a01b0391821660048201525f917f000000000000000000000000000000000000000000000000000000000000000016906370a0823190602401602060405180830381865afa158015611365573d5f5f3e3d5ffd5b505050506040513d601f19601f820116820180604052508101906113899190612332565b90506113a9611396611c01565b60095487906001600160a01b0316611cab565b6009546040516370a0823160e01b81526001600160a01b0391821660048201525f9183917f0000000000000000000000000000000000000000000000000000000000000000909116906370a0823190602401602060405180830381865afa158015611416573d5f5f3e3d5ffd5b505050506040513d601f19601f8201168201806040525081019061143a9190612332565b611444919061237f565b905080156114ad576009546040516315f5e8d760e31b81526001600160a01b039091169063afaf46b89061147f906002908590600401612392565b5f604051808303815f87803b158015611496575f5ffd5b505af11580156114a8573d5f5f3e3d5ffd5b505050505b50506114c1565b6114be848261231f565b90505b600a546001600160a01b0316158015906114de57506114de611dc2565b80156114e957505f83115b1561166457600654600a546040516370a0823160e01b81526001600160a01b0391821660048201525f9291909116906370a0823190602401602060405180830381865afa15801561153c573d5f5f3e3d5ffd5b505050506040513d601f19601f820116820180604052508101906115609190612332565b905061158061156d611f0d565b600a5486906001600160a01b0316611cab565b600654600a546040516370a0823160e01b81526001600160a01b0391821660048201525f92849216906370a0823190602401602060405180830381865afa1580156115cd573d5f5f3e3d5ffd5b505050506040513d601f19601f820116820180604052508101906115f19190612332565b6115fb919061237f565b9050801561165d57600a5460405163cc430ced60e01b8152600481018390526001600160a01b039091169063cc430ced906024015f604051808303815f87803b158015611646575f5ffd5b505af1158015611658573d5f5f3e3d5ffd5b505050505b5050611671565b61166e838261231f565b90505b6008546001600160a01b03161580159061168a57505f82115b156116b2576116ad61169a611c01565b60085484906001600160a01b0316611cab565b6116bf565b6116bc828261231f565b90505b80156116d2576116d23061dead83610b0c565b505050505050565b6001600160a01b0382165f9081526020818152604080832054601190925290912054811580611711575067016345785d8a00008211155b15611732575050506001600160a01b03165f90815260116020526040812055565b5f8261173e8584612349565b6117489190612360565b9050611754818361237f565b6001600160a01b0386165f90815260116020526040902081905567016345785d8a00001061075657505050506001600160a01b03165f90815260116020526040812055565b305f90815260208190526040902054600d548110806117ba5750600f5460ff165b156117c25750565b805f60646117d1836014612349565b6117db9190612360565b90505f60646117eb846028612349565b6117f59190612360565b90505f6064611805856014612349565b61180f9190612360565b90505f818361181e868861237f565b611828919061237f565b611832919061237f565b6009549091506001600160a01b03161580159061184e57505f84115b156114b4576009546040516370a0823160e01b81526001600160a01b0391821660048201525f917f000000000000000000000000000000000000000000000000000000000000000016906370a0823190602401602060405180830381865afa1580156118bc573d5f5f3e3d5ffd5b505050506040513d601f19601f820116820180604052508101906118e09190612332565b90506118ed611396611c01565b6009546040516370a0823160e01b81526001600160a01b0391821660048201525f9183917f0000000000000000000000000000000000000000000000000000000000000000909116906370a0823190602401602060405180830381865afa15801561195a573d5f5f3e3d5ffd5b505050506040513d601f19601f8201168201806040525081019061197e9190612332565b611988919061237f565b905080156114ad576009546040516315f5e8d760e31b81526001600160a01b039091169063afaf46b89061147f906001908590600401612392565b7f00000000000000000000000000000000000000000000000000000000000000006001600160a01b0316826001600160a01b03161480611a3457507f00000000000000000000000000000000000000000000000000000000000000006001600160a01b0316826001600160a01b0316145b80611a4957506001600160a01b03821661dead145b80611a5c57506001600160a01b03821630145b15611a6657505050565b6001600160a01b0383165f90815260208190526040812054611a8990839061231f565b6001600160a01b0385165f90815260116020526040902054909150801580611aaf575081155b15611abb575050505050565b5f82611ac78584612349565b611ad19190612360565b9050805f03611ae257505050505050565b5f611aed828461237f565b905067016345785d8a00008111611b0157505f5b6001600160a01b038088165f9081526011602052604080822084905591881681529081208054849290611b3590849061231f565b909155505050505050505050565b5f5f611b4d611c01565b60405163d06ca61f60e01b81529091506001600160a01b037f0000000000000000000000000000000000000000000000000000000000000000169063d06ca61f90611b9e9086908590600401612223565b5f60405180830381865afa158015611bb8573d5f5f3e3d5ffd5b505050506040513d5f823e601f3d908101601f19168201604052611bdf9190810190612243565b600181518110611bf157611bf16121cc565b6020026020010151915050919050565b604080516002808252606080830184529260208301908036833701905050905030815f81518110611c3457611c346121cc565b60200260200101906001600160a01b031690816001600160a01b0316815250507f000000000000000000000000000000000000000000000000000000000000000081600181518110611c8857611c886121cc565b60200260200101906001600160a01b031690816001600160a01b03168152505090565b815f03611cb757505050565b600f805460ff19166001179055611cef307f0000000000000000000000000000000000000000000000000000000000000000846109f4565b604051635c11d79560e01b81526001600160a01b037f00000000000000000000000000000000000000000000000000000000000000001690635c11d79590611d439085905f908890879042906004016123bc565b5f604051808303815f87803b158015611d5a575f5ffd5b505af1925050508015611d6b575060015b15611db357604080516001600160a01b0383168152602081018490527faedb4dc54dc30d46d331ffcc44cd836607bea96c12e1b21a95210ed899184d04910160405180910390a15b5050600f805460ff1916905550565b6006545f906001600160a01b0316611dd957505f90565b60065460405163e6a4390560e01b81526001600160a01b0391821660048201527f0000000000000000000000000000000000000000000000000000000000000000821660248201525f917f0000000000000000000000000000000000000000000000000000000000000000169063e6a4390590604401602060405180830381865afa158015611e6a573d5f5f3e3d5ffd5b505050506040513d601f19601f82011682018060405250810190611e8e91906123f7565b90506001600160a01b038116611ea5575f91505090565b5f816001600160a01b03166318160ddd6040518163ffffffff1660e01b8152600401602060405180830381865afa158015611ee2573d5f5f3e3d5ffd5b505050506040513d601f19601f82011682018060405250810190611f069190612332565b1191505090565b6040805160038082526080820190925260609160208201838036833701905050905030815f81518110611f4257611f426121cc565b60200260200101906001600160a01b031690816001600160a01b0316815250507f000000000000000000000000000000000000000000000000000000000000000081600181518110611f9657611f966121cc565b6001600160a01b039283166020918202929092010152600654825191169082906002908110611c8857611c886121cc565b602081525f82518060208401528060208501604085015e5f604082850101526040601f19601f83011684010191505092915050565b6001600160a01b03811681146109f1575f5ffd5b5f5f60408385031215612021575f5ffd5b823561202c81611ffc565b946020939093013593505050565b5f5f5f6060848603121561204c575f5ffd5b833561205781611ffc565b9250602084013561206781611ffc565b929592945050506040919091013590565b5f5f60408385031215612089575f5ffd5b50508035926020909101359150565b5f602082840312156120a8575f5ffd5b81356120b381611ffc565b9392505050565b5f602082840312156120ca575f5ffd5b5035919050565b5f5f5f5f608085870312156120e4575f5ffd5b84356120ef81611ffc565b935060208501356120ff81611ffc565b9250604085013561210f81611ffc565b9150606085013561211f81611ffc565b939692955090935050565b5f6020828403121561213a575f5ffd5b813580151581146120b3575f5ffd5b5f5f6040838503121561215a575f5ffd5b823561216581611ffc565b9150602083013561217581611ffc565b809150509250929050565b600181811c9082168061219457607f821691505b6020821081036121b257634e487b7160e01b5f52602260045260245ffd5b50919050565b634e487b7160e01b5f52604160045260245ffd5b634e487b7160e01b5f52603260045260245ffd5b5f8151808452602084019350602083015f5b828110156122195781516001600160a01b03168652602095860195909101906001016121f2565b5093949350505050565b828152604060208201525f61223b60408301846121e0565b949350505050565b5f60208284031215612253575f5ffd5b815167ffffffffffffffff811115612269575f5ffd5b8201601f81018413612279575f5ffd5b805167ffffffffffffffff811115612293576122936121b8565b8060051b604051601f19603f830116810181811067ffffffffffffffff821117156122c0576122c06121b8565b6040529182526020818401810192908101878411156122dd575f5ffd5b6020850194505b83851015612300578451808252602095860195909350016122e4565b509695505050505050565b634e487b7160e01b5f52601160045260245ffd5b808201808211156106295761062961230b565b5f60208284031215612342575f5ffd5b5051919050565b80820281158282048414176106295761062961230b565b5f8261237a57634e487b7160e01b5f52601260045260245ffd5b500490565b818103818111156106295761062961230b565b60408101600484106123b257634e487b7160e01b5f52602160045260245ffd5b9281526020015290565b85815284602082015260a060408201525f6123da60a08301866121e0565b6001600160a01b0394909416606083015250608001529392505050565b5f60208284031215612407575f5ffd5b81516120b381611ffc56fea264697066735822122072a9d28c1f9c79de2dd37550f3600d0fa4a1071d3cc5dec6bdc8a84eb65f5c7e64736f6c634300081e0033","linkReferences":{}},"methodIdentifiers":{"DEAD()":"03fd2a45","PROFIT_NODE_TAX_RATE()":"0c355b47","PROFIT_SUBCOIN_TAX_RATE()":"416702c9","PROFIT_WALLET_TAX_RATE()":"fcb1138d","USDT()":"c54e44eb","allowance(address,address)":"dd62ed3e","allowlist(address)":"a7cd52cb","approve(address,uint256)":"095ea7b3","balanceOf(address)":"70a08231","buyRate()":"fc37987b","currentPrice()":"9d1b464a","decimals()":"313ce567","getHighestReserve()":"a5aff841","highestReserve()":"6cf77e9a","leo()":"42728ffd","name()":"06fdde03","nodeDividends()":"c7fb372f","openBuy()":"d4a67930","openSell()":"f1eae64a","owner()":"8da5cb5b","pancakeFactory()":"e0f1c9c5","pancakePair()":"b8c9d25c","pancakeRouter()":"c21ebd07","payback()":"854bec87","renounceOwnership()":"715018a6","sellRate()":"6217229b","setAddrConfig(address,address,address,address)":"72207cc3","setRate(uint256,uint256)":"46df2ccb","specialWithdraw(uint256)":"6f93b55c","swapThreshold()":"0445b667","switchBuy(bool)":"cf576cc7","switchSell(bool)":"ca77f99c","symbol()":"95d89b41","totalCostUsdt(address)":"60d1d4a4","totalSupply()":"18160ddd","transfer(address,uint256)":"a9059cbb","transferFrom(address,address,uint256)":"23b872dd","transferOwnership(address)":"f2fde38b","treasuryLiquidity()":"09fb6698","wallet()":"521eb273"},"id":71}