{"abi":[{"type":"constructor","inputs":[{"name":"_initialRecipient","type":"address","internalType":"address"},{"name":"_wallet","type":"address","internalType":"address"},{"name":"_USDT","type":"address","internalType":"address"}],"stateMutability":"nonpayable"},{"type":"function","name":"DEAD","inputs":[],"outputs":[{"name":"","type":"address","internalType":"address"}],"stateMutability":"view"},{"type":"function","name":"PROFIT_NODE_TAX_RATE","inputs":[],"outputs":[{"name":"","type":"uint256","internalType":"uint256"}],"stateMutability":"view"},{"type":"function","name":"PROFIT_SUBCOIN_TAX_RATE","inputs":[],"outputs":[{"name":"","type":"uint256","internalType":"uint256"}],"stateMutability":"view"},{"type":"function","name":"PROFIT_WALLET_TAX_RATE","inputs":[],"outputs":[{"name":"","type":"uint256","internalType":"uint256"}],"stateMutability":"view"},{"type":"function","name":"USDT","inputs":[],"outputs":[{"name":"","type":"address","internalType":"address"}],"stateMutability":"view"},{"type":"function","name":"allowance","inputs":[{"name":"owner","type":"address","internalType":"address"},{"name":"spender","type":"address","internalType":"address"}],"outputs":[{"name":"","type":"uint256","internalType":"uint256"}],"stateMutability":"view"},{"type":"function","name":"allowlist","inputs":[{"name":"","type":"address","internalType":"address"}],"outputs":[{"name":"","type":"bool","internalType":"bool"}],"stateMutability":"view"},{"type":"function","name":"approve","inputs":[{"name":"spender","type":"address","internalType":"address"},{"name":"value","type":"uint256","internalType":"uint256"}],"outputs":[{"name":"","type":"bool","internalType":"bool"}],"stateMutability":"nonpayable"},{"type":"function","name":"balanceOf","inputs":[{"name":"account","type":"address","internalType":"address"}],"outputs":[{"name":"","type":"uint256","internalType":"uint256"}],"stateMutability":"view"},{"type":"function","name":"buyRate","inputs":[],"outputs":[{"name":"","type":"uint256","internalType":"uint256"}],"stateMutability":"view"},{"type":"function","name":"currentPrice","inputs":[],"outputs":[{"name":"","type":"uint256","internalType":"uint256"}],"stateMutability":"view"},{"type":"function","name":"decimals","inputs":[],"outputs":[{"name":"","type":"uint8","internalType":"uint8"}],"stateMutability":"view"},{"type":"function","name":"getHighestReserve","inputs":[],"outputs":[{"name":"","type":"uint256","internalType":"uint256"}],"stateMutability":"view"},{"type":"function","name":"highestReserve","inputs":[],"outputs":[{"name":"","type":"uint256","internalType":"uint256"}],"stateMutability":"view"},{"type":"function","name":"leo","inputs":[],"outputs":[{"name":"","type":"address","internalType":"address"}],"stateMutability":"view"},{"type":"function","name":"name","inputs":[],"outputs":[{"name":"","type":"string","internalType":"string"}],"stateMutability":"view"},{"type":"function","name":"nodeDividends","inputs":[],"outputs":[{"name":"","type":"address","internalType":"address"}],"stateMutability":"view"},{"type":"function","name":"openBuy","inputs":[],"outputs":[{"name":"","type":"bool","internalType":"bool"}],"stateMutability":"view"},{"type":"function","name":"openSell","inputs":[],"outputs":[{"name":"","type":"bool","internalType":"bool"}],"stateMutability":"view"},{"type":"function","name":"owner","inputs":[],"outputs":[{"name":"","type":"address","internalType":"address"}],"stateMutability":"view"},{"type":"function","name":"pancakeFactory","inputs":[],"outputs":[{"name":"","type":"address","internalType":"address"}],"stateMutability":"view"},{"type":"function","name":"pancakePair","inputs":[],"outputs":[{"name":"","type":"address","internalType":"address"}],"stateMutability":"view"},{"type":"function","name":"pancakeRouter","inputs":[],"outputs":[{"name":"","type":"address","internalType":"contract IUniswapV2Router02"}],"stateMutability":"view"},{"type":"function","name":"payback","inputs":[],"outputs":[{"name":"","type":"address","internalType":"address"}],"stateMutability":"view"},{"type":"function","name":"renounceOwnership","inputs":[],"outputs":[],"stateMutability":"nonpayable"},{"type":"function","name":"sellRate","inputs":[],"outputs":[{"name":"","type":"uint256","internalType":"uint256"}],"stateMutability":"view"},{"type":"function","name":"setAddrConfig","inputs":[{"name":"_treasuryLiquidity","type":"address","internalType":"address"},{"name":"_payback","type":"address","internalType":"address"},{"name":"_nodeDividends","type":"address","internalType":"address"},{"name":"_leo","type":"address","internalType":"address"}],"outputs":[],"stateMutability":"nonpayable"},{"type":"function","name":"setAllowlist","inputs":[{"name":"addrs","type":"address[]","internalType":"address[]"},{"name":"isAllow","type":"bool","internalType":"bool"}],"outputs":[],"stateMutability":"nonpayable"},{"type":"function","name":"setRate","inputs":[{"name":"_buy","type":"uint256","internalType":"uint256"},{"name":"_sell","type":"uint256","internalType":"uint256"}],"outputs":[],"stateMutability":"nonpayable"},{"type":"function","name":"specialWithdraw","inputs":[{"name":"amount","type":"uint256","internalType":"uint256"}],"outputs":[],"stateMutability":"nonpayable"},{"type":"function","name":"swapThreshold","inputs":[],"outputs":[{"name":"","type":"uint256","internalType":"uint256"}],"stateMutability":"view"},{"type":"function","name":"switchBuy","inputs":[{"name":"_b","type":"bool","internalType":"bool"}],"outputs":[],"stateMutability":"nonpayable"},{"type":"function","name":"switchSell","inputs":[{"name":"_b","type":"bool","internalType":"bool"}],"outputs":[],"stateMutability":"nonpayable"},{"type":"function","name":"symbol","inputs":[],"outputs":[{"name":"","type":"string","internalType":"string"}],"stateMutability":"view"},{"type":"function","name":"totalCostUsdt","inputs":[{"name":"","type":"address","internalType":"address"}],"outputs":[{"name":"","type":"uint256","internalType":"uint256"}],"stateMutability":"view"},{"type":"function","name":"totalSupply","inputs":[],"outputs":[{"name":"","type":"uint256","internalType":"uint256"}],"stateMutability":"view"},{"type":"function","name":"transfer","inputs":[{"name":"to","type":"address","internalType":"address"},{"name":"value","type":"uint256","internalType":"uint256"}],"outputs":[{"name":"","type":"bool","internalType":"bool"}],"stateMutability":"nonpayable"},{"type":"function","name":"transferFrom","inputs":[{"name":"from","type":"address","internalType":"address"},{"name":"to","type":"address","internalType":"address"},{"name":"value","type":"uint256","internalType":"uint256"}],"outputs":[{"name":"","type":"bool","internalType":"bool"}],"stateMutability":"nonpayable"},{"type":"function","name":"transferOwnership","inputs":[{"name":"newOwner","type":"address","internalType":"address"}],"outputs":[],"stateMutability":"nonpayable"},{"type":"function","name":"treasuryLiquidity","inputs":[],"outputs":[{"name":"","type":"address","internalType":"address"}],"stateMutability":"view"},{"type":"function","name":"wallet","inputs":[],"outputs":[{"name":"","type":"address","internalType":"address"}],"stateMutability":"view"},{"type":"event","name":"Approval","inputs":[{"name":"owner","type":"address","indexed":true,"internalType":"address"},{"name":"spender","type":"address","indexed":true,"internalType":"address"},{"name":"value","type":"uint256","indexed":false,"internalType":"uint256"}],"anonymous":false},{"type":"event","name":"OwnershipTransferred","inputs":[{"name":"previousOwner","type":"address","indexed":true,"internalType":"address"},{"name":"newOwner","type":"address","indexed":true,"internalType":"address"}],"anonymous":false},{"type":"event","name":"SwapAndSendTax","inputs":[{"name":"recipient","type":"address","indexed":false,"internalType":"address"},{"name":"tokensSwapped","type":"uint256","indexed":false,"internalType":"uint256"}],"anonymous":false},{"type":"event","name":"Transfer","inputs":[{"name":"from","type":"address","indexed":true,"internalType":"address"},{"name":"to","type":"address","indexed":true,"internalType":"address"},{"name":"value","type":"uint256","indexed":false,"internalType":"uint256"}],"anonymous":false},{"type":"error","name":"ERC20InsufficientAllowance","inputs":[{"name":"spender","type":"address","internalType":"address"},{"name":"allowance","type":"uint256","internalType":"uint256"},{"name":"needed","type":"uint256","internalType":"uint256"}]},{"type":"error","name":"ERC20InsufficientBalance","inputs":[{"name":"sender","type":"address","internalType":"address"},{"name":"balance","type":"uint256","internalType":"uint256"},{"name":"needed","type":"uint256","internalType":"uint256"}]},{"type":"error","name":"ERC20InvalidApprover","inputs":[{"name":"approver","type":"address","internalType":"address"}]},{"type":"error","name":"ERC20InvalidReceiver","inputs":[{"name":"receiver","type":"address","internalType":"address"}]},{"type":"error","name":"ERC20InvalidSender","inputs":[{"name":"sender","type":"address","internalType":"address"}]},{"type":"error","name":"ERC20InvalidSpender","inputs":[{"name":"spender","type":"address","internalType":"address"}]},{"type":"error","name":"OwnableInvalidOwner","inputs":[{"name":"owner","type":"address","internalType":"address"}]},{"type":"error","name":"OwnableUnauthorizedAccount","inputs":[{"name":"account","type":"address","internalType":"address"}]}],"bytecode":{"object":"0x61010080604052346103715760608161404e803803809161002082856105dc565b83398101031261037157610033816105ff565b61004b6040610044602085016105ff565b93016105ff565b91610054610613565b9261005d610613565b845190946001600160401b0382116104df5760035490600182811c921680156105d2575b60208310146104c15781601f849311610564575b50602090601f83116001146104fe575f926104f3575b50508160011b915f199060031b1c1916176003555b83516001600160401b0381116104df57600454600181811c911680156104d5575b60208210146104c157601f811161045e575b50602094601f82116001146103fb579481929394955f926103f0575b50508160011b915f199060031b1c1916176004555b33156103dd5760058054336001600160a01b0319821681179092556001600160a01b03167f8be0079c531659141344cd1fd0a4f28419497f9722a3daafe3b4186f6b6457e05f80a36005600b819055600c55678ac7230489e80000600d556001600160a01b0383169283156103ca5761019c90610694565b7310ed43c718714eb63d5aa57b78b54704e256024e60805260e05260018060a01b0316908160018060a01b0319600854161760085560405163c45a015560e01b81526020816004817310ed43c718714eb63d5aa57b78b54704e256024e5afa90811561037d575f91610388575b5060a081905260e0516040516364e329cb60e11b81523060048201526001600160a01b039091166024820152906020908290815f81604481015b03926001600160a01b03165af190811561037d575f9161033f575b5060c0525f52601060205260405f20600160ff198254161790555f52601060205260405f20600160ff198254161790556040516125759081611ab9823960805181818161057f0152818161104601528181611a7201528181611b99015281816120d10152612271015260a0518181816103e001526123c5015260c0518181816105c3015281816109b5015281816113b0015281816119a101528181611a3401528181611afe01526121d0015260e05181818161053b01528181610fe40152818161134901528181611d52015281816122300152818161239301526124e40152f35b90506020813d602011610375575b8161035a602093836105dc565b810103126103715761036b906105ff565b5f61025e565b5f80fd5b3d915061034d565b6040513d5f823e3d90fd5b90506020813d6020116103c2575b816103a3602093836105dc565b810103126103715760206102436103ba5f936105ff565b925050610209565b3d9150610396565b63ec442f0560e01b5f525f60045260245ffd5b631e4fbdf760e01b5f525f60045260245ffd5b015190505f8061010f565b601f1982169560045f52805f20915f5b8881106104465750836001959697981061042e575b505050811b01600455610124565b01515f1960f88460031b161c191690555f8080610420565b9192602060018192868501518155019401920161040b565b60045f527f8a35acfbc15ff81a39ae7d344fd709f28e8600b4aa8c65c6b64bfe7fe36bd19b601f830160051c810191602084106104b7575b601f0160051c01905b8181106104ac57506100f3565b5f815560010161049f565b9091508190610496565b634e487b7160e01b5f52602260045260245ffd5b90607f16906100e1565b634e487b7160e01b5f52604160045260245ffd5b015190505f806100ab565b60035f9081528281209350601f198516905b81811061054c5750908460019594939210610534575b505050811b016003556100c0565b01515f1960f88460031b161c191690555f8080610526565b92936020600181928786015181550195019301610510565b60035f529091507fc2575a0e9e593c00f959f8c92f12db2869c3395a3b0502d05e2516446f71f85b601f840160051c810191602085106105c8575b90601f859493920160051c01905b8181106105ba5750610095565b5f81558493506001016105ad565b909150819061059f565b91607f1691610081565b601f909101601f19168101906001600160401b038211908210176104df57604052565b51906001600160a01b038216820361037157565b60408051919082016001600160401b038111838210176104df5760405260038252620988ab60eb1b6020830152565b8181029291811591840414171561065557565b634e487b7160e01b5f52601160045260245ffd5b8115610673570490565b634e487b7160e01b5f52601260045260245ffd5b9190820391821161065557565b60e0515f9291906001600160a01b031680151580610d87575b610d0c575b5060ff600f54168015610d04575b8015610cf3575b8015610cc0575b8015610c9f575b610c865760c0516001600160a01b03168015610bf7576001600160a01b0382161461071e5780836107176a115eec47f6cf7e35000000809461071c9697610e4c565b6115c9565b565b60ff600f5460101c1615610bc257600c546a115eec47f6cf7e3500000091908281029083820403610655576064900480830383811161065557610761815f611045565b918215801561079e575b50610791926107969697949261078561078a933088610e4c565b610687565b9083610e4c565b61111a565b61071c6111b9565b6107a984305f610e4c565b60058402848104600514821715610655576019900490600a850290858204600a14171561065557601990046107e2816107858488610687565b6009545f93919291906001600160a01b031680151580610bb9575b15610bb15760e0516040516370a0823160e01b8152600481018390529190602090839060249082906001600160a01b03165afa91821561037d575f92610b7b575b50610851919261084c6117ba565b6117fa565b60e0516009546040516370a0823160e01b81526001600160a01b0391821660048201819052939092909160209184916024918391165afa801561037d575f90610b47575b61089f9250610687565b80610af4575b50505b600a546001600160a01b031680151580610ae6575b80610add575b15610ab9576006546040516370a0823160e01b8152600481018390529190602090839060249082906001600160a01b03165afa918215610a78578c92610a83575b50610912919261084c611a5f565b600654600a546040516370a0823160e01b81526001600160a01b0391821660048201819052939092909160209184916024918391165afa8015610a78578c90610a44575b6109609250610687565b90816109e4575b50509261078561078a9361079196936107969a9b98965b6008546001600160a01b031690811515806109db575b156109cb57906109a69161084c6117ba565b806109bb575b5093505092949796509261076b565b6109c59030610da8565b5f6109ac565b90506109d691610d9b565b6109a6565b50801515610994565b90818b923b15610a405760248392604051948593849263cc430ced60e01b845260048401525af18015610a3557610a1c575b80610967565b610a278a80926105dc565b610a31575f610a16565b8880fd5b6040513d8c823e3d90fd5b8280fd5b506020823d602011610a70575b81610a5e602093836105dc565b81010312610371576109609151610956565b3d9150610a51565b6040513d8e823e3d90fd5b91506020823d602011610ab1575b81610a9e602093836105dc565b8101031261037157610912915191610904565b3d9150610a91565b5061078a93610796999a979592610ad7610785936107919996610d9b565b9061097e565b508115156108c3565b50610aef611959565b6108bd565b813b15610371575f916044839260405194859384926315f5e8d760e31b84526002600485015260248401525af1801561037d57610b32575b806108a5565b610b3f919a505f906105dc565b5f985f610b2c565b506020823d602011610b73575b81610b61602093836105dc565b810103126103715761089f9151610895565b3d9150610b54565b91506020823d602011610ba9575b81610b96602093836105dc565b810103126103715761085191519161083e565b3d9150610b89565b5092506108a8565b508115156107fd565b60405162461bcd60e51b815260206004820152600d60248201526c14d1531317d11254d050931151609a1b6044820152606490fd5b5090915060ff600f5460081c1615610c5257600b546a115eec47f6cf7e3500000090818102908282040361065557606490049182820391821161065557610c4c61071c93610c458484610f04565b305f610e4c565b5f610e4c565b60405162461bcd60e51b815260206004820152600c60248201526b10955657d11254d05093115160a21b6044820152606490fd5b61071c9192506a115eec47f6cf7e35000000905f610e4c565b506001600160a01b0381165f9081526010602052604090205460ff166106d5565b505f805260106020527f6e0956cda88cad152e89927e53611735b61a5c762d1428573c6931b0a5efcb015460ff166106ce565b506001600160a01b038116156106c7565b5060016106c0565b602060018060a01b0360c051166024604051809481936370a0823160e01b835260048301525afa90811561037d575f91610d55575b50600e548111156106b257600e555f6106b2565b90506020813d602011610d7f575b81610d70602093836105dc565b8101031261037157515f610d41565b3d9150610d63565b5060c0516001600160a01b031615156106ad565b9190820180921161065557565b9091906001600160a01b031680610df7575f51602061402e5f395f51905f52602084610dda61dead9596600254610d9b565b6002555b845f525f825260405f20818154019055604051908152a3565b805f525f60205260405f2054838110610e325760208461dead94955f51602061402e5f395f51905f5293855f525f84520360405f2055610dde565b915063391434e360e21b5f5260045260245260445260645ffd5b6001600160a01b03169081610eb25760205f51602061402e5f395f51905f5291610e7885600254610d9b565b6002555b6001600160a01b03169384610e9d5780600254036002555b604051908152a3565b845f525f825260405f20818154019055610e94565b815f525f60205260405f2054838110610ee9575f51602061402e5f395f51905f529184602092855f525f84520360405f2055610e7c565b91905063391434e360e21b5f5260045260245260445260645ffd5b6080516001600160a01b0391821692911682148015611031575b8015611026575b801561101d575b61101957610fac905f604051610f436060826105dc565b60028152604036602083013730610f59826116c9565b5260e0516001600160a01b0316610f6f826116ea565b5260018060a01b0360805116604051808096819463d06ca61f60e01b8352670de0b6b3a7640000600484015260406024840152604483019061177e565b03915afa90811561037d57610fd5610fdb92670de0b6b3a7640000945f91610ff7575b506116ea565b51610642565b04905f526011602052610ff360405f20918254610d9b565b9055565b61101391503d805f833e61100b81836105dc565b8101906116fa565b5f610fcf565b5050565b50308214610f2c565b5061dead8214610f25565b5060c0516001600160a01b03168214610f1e565b6110799060018060a01b0316805f5260116020526110678360405f2054610642565b905f525f60205260405f205490610669565b6110b95f6110856117ba565b60018060a01b0360805116604051808095819463d06ca61f60e01b835289600484015260406024840152604483019061177e565b03915afa801561037d576110d3915f91610ff757506116ea565b519080821115611113576110f9926110ee6110f49284610687565b90610642565b610669565b601981029080820460191490151715610655576064900490565b5050505f90565b6001600160a01b03165f81815260208181526040808320546011909252909120549192909190821580156111a7575b61119557611164926110f461115e9284610642565b90610687565b5f82815260116020526040902081905567016345785d8a000010156111865750565b5f5260116020525f6040812055565b5050505f5260116020525f6040812055565b5067016345785d8a0000831115611149565b5f305f525f60205260405f2054600d54811080156115bd575b611019576014810291811592828104601414841715610655576064900492602883029083820460281417156106555783610785819461078560646112199504978892610687565b6009549093906001600160a01b0316801515806115b4575b156115a25760e0516040516370a0823160e01b8152600481018390529190602090839060249082906001600160a01b03165afa91821561037d575f9261156c575b50611280908561084c6117ba565b60e0516009546040516370a0823160e01b81526001600160a01b0391821660048201819052939092909160209184916024918391165afa801561037d575f90611538575b6112ce9250610687565b806114e5575b50505b600a546001600160a01b0316801515806114d7575b806114ce575b156114bb576006546040516370a0823160e01b8152600481018390529190602090839060249082906001600160a01b03165afa91821561147a578492611485575b50611341919261084c611a5f565b600654600a546040516370a0823160e01b81526001600160a01b0391821660048201819052939092909160209184916024918391165afa801561147a578490611446575b61138f9250610687565b806113ec575b5050505b6008546001600160a01b031690811515806113e3575b156113d357906113c19161084c6117ba565b806113c95750565b61071c9030610da8565b90506113de91610d9b565b6113c1565b508015156113af565b813b15610a4057829160248392604051948593849263cc430ced60e01b845260048401525af1801561143b57611423575b80611395565b61142e8280926105dc565b611438578061141d565b80fd5b6040513d84823e3d90fd5b506020823d602011611472575b81611460602093836105dc565b810103126103715761138f9151611385565b3d9150611453565b6040513d86823e3d90fd5b91506020823d6020116114b3575b816114a0602093836105dc565b8101031261037157611341915191611333565b3d9150611493565b5090506114c89192610d9b565b90611399565b508115156112f2565b506114e0611959565b6112ec565b813b15610371575f916044839260405194859384926315f5e8d760e31b84526001600485015260248401525af1801561037d57611523575b806112d4565b6115309192505f906105dc565b5f905f61151d565b506020823d602011611564575b81611552602093836105dc565b81010312610371576112ce91516112c4565b3d9150611545565b9091506020813d60201161159a575b81611588602093836105dc565b81010312610371575190611280611272565b3d915061157b565b5092826115ae91610d9b565b926112d7565b50831515611231565b5060ff600f54166111d2565b6080516001600160a01b039283169216821480156116b5575b80156116aa575b80156116a1575b61169c5760018060a01b0316805f525f6020526116118360405f2054610d9b565b92815f52601160205260405f20549384158015611694575b61168d576110f461163a9286610642565b928315611687578361164b91610687565b9067016345785d8a000082111561167f575b5f52601160205260405f20555f526011602052610ff360405f20918254610d9b565b5f915061165d565b50505050565b5050505050565b508015611629565b505050565b503082146115f0565b5061dead82146115e9565b5060c0516001600160a01b031682146115e2565b8051156116d65760200190565b634e487b7160e01b5f52603260045260245ffd5b8051600110156116d65760400190565b602081830312610371578051906001600160401b03821161037157019080601f83011215610371578151916001600160401b0383116104df578260051b90602082019361174a60405195866105dc565b845260208085019282010192831161037157602001905b82821061176e5750505090565b8151815260209182019101611761565b90602080835192838152019201905f5b81811061179b5750505090565b82516001600160a01b031684526020938401939092019160010161178e565b604051906117c96060836105dc565b60028252604036602084013781306117e0826116c9565b5260e0516001600160a01b0316906117f7906116ea565b52565b811561169c57600f805460ff191660011790556080516001600160a01b0316301561194657801561193357305f52600160205260405f20815f526020528260405f20556040518381527f8c5be1e5ebec7d5bd14f71427d1e84f3dd0314c0f7b2291e5b200ac8c7c3b92560203092a36080516001600160a01b0316803b15610371576118b45f92918392604051948580948193635c11d79560e01b835289600484015283602484015260a0604484015260a483019061177e565b6001600160a01b03909916606482018190524260848301529803925af19081611923575b506118ec575b505060ff19600f5416600f55565b7faedb4dc54dc30d46d331ffcc44cd836607bea96c12e1b21a95210ed899184d049160409182519182526020820152a15f806118de565b5f61192d916105dc565b5f6118d8565b634a1406b160e11b5f525f60045260245ffd5b63e602df0560e01b5f525f60045260245ffd5b6006546001600160a01b03168015611a205760a05160e05160405163e6a4390560e01b81526001600160a01b03938416600482015290831660248201529160209183916044918391165afa90811561037d575f91611a25575b506001600160a01b03168015611a20576020600491604051928380926318160ddd60e01b82525afa90811561037d575f916119ee575b50151590565b90506020813d602011611a18575b81611a09602093836105dc565b8101031261037157515f6119e8565b3d91506119fc565b505f90565b90506020813d602011611a57575b81611a40602093836105dc565b8101031261037157611a51906105ff565b5f6119b2565b3d9150611a33565b60405190611a6e6080836105dc565b6003825260603660208401378130611a85826116c9565b5260e0516001600160a01b0316611a9b826116ea565b5260018060a01b0360065416908051600210156116d6576060015256fe6080806040526004361015610012575f80fd5b5f5f3560e01c91826303fd2a4514610de1575081630445b66714610dc457816306fdde0314610cd0578163095ea7b314610caa57816309fb669814610c825781630c355b4714610c6757816318160ddd14610c4a57816323b872dd14610b6b578163313ce56714610b50578163416702c9146101e157816342728ffd14610b2857816346df2ccb14610b01578163521eb27314610ad957816360d1d4a414610aa15781636217229b14610a845781636cf77e9a14610a675781636f93b55c1461098b57816370a0823114610954578163715018a6146108f857816372207cc3146107f8578163854bec87146107d05781638da5cb5b146107a857816395d89b41146106a05781639d1b464a1461067e578163a5aff84114610661578163a7cd52cb14610623578163a9059cbb146105f2578163b8c9d25c146105ae578163c21ebd071461056a578163c54e44eb14610526578163c7fb372f146104fe578163ca77f99c146104c1578163cf576cc714610486578163d4a6793014610461578163dd62ed3e1461040f578163e0f1c9c5146103cb578163f01fe7c4146102b3578163f1eae64a1461028e578163f2fde38b14610206578163fc37987b146101e6575063fcb1138d146101e1575f80fd5b610e51565b346102035780600319360112610203576020600b54604051908152f35b80fd5b346102035760203660031901126102035761021f610e25565b6102276110fe565b6001600160a01b0316801561027a57600580546001600160a01b0319811683179091556001600160a01b03167f8be0079c531659141344cd1fd0a4f28419497f9722a3daafe3b4186f6b6457e08380a380f35b631e4fbdf760e01b82526004829052602482fd5b34610203578060031936011261020357602060ff600f5460101c166040519015158152f35b346102035760403660031901126102035760043567ffffffffffffffff81116103c757366023820112156103c75780600401356102ef81610eb1565b916102fd6040519384610e7b565b8183526024602084019260051b820101903682116103c357602401915b81831061039f575050506024359081151580920361039b579061033b6110fe565b60ff16825b8251811015610397578251811015610383576020600582901b84018101516001600160a01b031685526010905260408420805460ff191683179055600101610340565b634e487b7160e01b84526032600452602484fd5b8380f35b8280fd5b82356001600160a01b03811681036103bf5781526020928301920161031a565b8580fd5b8480fd5b5080fd5b346102035780600319360112610203576040517f00000000000000000000000000000000000000000000000000000000000000006001600160a01b03168152602090f35b3461020357604036600319011261020357604061042a610e25565b91610433610e3b565b9260018060a01b031681526001602052209060018060a01b03165f52602052602060405f2054604051908152f35b34610203578060031936011261020357602060ff600f5460081c166040519015158152f35b346102035760203660031901126102035761049f610e6c565b6104a76110fe565b61ff00600f5491151560081b169061ff00191617600f5580f35b34610203576020366003190112610203576104da610e6c565b6104e26110fe565b62ff0000600f5491151560101b169062ff0000191617600f5580f35b346102035780600319360112610203576009546040516001600160a01b039091168152602090f35b346102035780600319360112610203576040517f00000000000000000000000000000000000000000000000000000000000000006001600160a01b03168152602090f35b346102035780600319360112610203576040517f00000000000000000000000000000000000000000000000000000000000000006001600160a01b03168152602090f35b346102035780600319360112610203576040517f00000000000000000000000000000000000000000000000000000000000000006001600160a01b03168152602090f35b346102035760403660031901126102035761061861060e610e25565b60243590336110ad565b602060405160018152f35b346102035760203660031901126102035760209060ff906040906001600160a01b0361064d610e25565b168152601084522054166040519015158152f35b346102035780600319360112610203576020600e54604051908152f35b346102035780600319360112610203576020610698610fb0565b604051908152f35b346102035780600319360112610203576040519080600454908160011c9160018116801561079e575b60208410811461078a578386529081156107635750600114610706575b610702846106f681860382610e7b565b60405191829182610dfb565b0390f35b600481527f8a35acfbc15ff81a39ae7d344fd709f28e8600b4aa8c65c6b64bfe7fe36bd19b939250905b808210610749575090915081016020016106f6826106e6565b919260018160209254838588010152019101909291610730565b60ff191660208087019190915292151560051b850190920192506106f691508390506106e6565b634e487b7160e01b83526022600452602483fd5b92607f16926106c9565b346102035780600319360112610203576005546040516001600160a01b039091168152602090f35b34610203578060031936011261020357600a546040516001600160a01b039091168152602090f35b3461020357608036600319011261020357610811610e25565b610819610e3b565b6044356001600160a01b0381169291908390036108f4576064356001600160a01b03811692908390036103c35761084e6110fe565b60018060a01b031690816001600160601b0360a01b600754161760075560018060a01b031691826001600160601b0360a01b600a541617600a55836001600160601b0360a01b60095416176009556001600160601b0360a01b60065416176006558352601060205260408320600160ff198254161790558252601060205260408220600160ff198254161790558152601060205260408120600160ff1982541617905580f35b8380fd5b346102035780600319360112610203576109106110fe565b600580546001600160a01b0319811690915581906001600160a01b03167f8be0079c531659141344cd1fd0a4f28419497f9722a3daafe3b4186f6b6457e08280a380f35b34610203576020366003190112610203576020906040906001600160a01b0361097b610e25565b1681528083522054604051908152f35b34610a2e576020366003190112610a2e576007546001600160a01b031633819003610a32576109df7f00000000000000000000000000000000000000000000000000000000000000009160043590836111ea565b6001600160a01b0316803b15610a2e575f809160046040518094819363fff6cae960e01b83525af18015610a2357610a15575080f35b610a2191505f90610e7b565b005b6040513d5f823e3d90fd5b5f80fd5b60405162461bcd60e51b815260206004820152600d60248201526c2727afa822a926a4a9a9a4a7a760991b6044820152606490fd5b34610a2e575f366003190112610a2e576020600e54604051908152f35b34610a2e575f366003190112610a2e576020600c54604051908152f35b34610a2e576020366003190112610a2e576001600160a01b03610ac2610e25565b165f526011602052602060405f2054604051908152f35b34610a2e575f366003190112610a2e576008546040516001600160a01b039091168152602090f35b34610a2e576040366003190112610a2e57610b1a6110fe565b600435600b55602435600c55005b34610a2e575f366003190112610a2e576006546040516001600160a01b039091168152602090f35b34610a2e575f366003190112610a2e57602060405160128152f35b34610a2e576060366003190112610a2e57610b84610e25565b610b8c610e3b565b6001600160a01b0382165f818152600160209081526040808320338452909152902054909260443592915f198110610bca575b5061061893506110ad565b838110610c2f578415610c1c573315610c0957610618945f52600160205260405f2060018060a01b0333165f526020528360405f209103905584610bbf565b634a1406b160e11b5f525f60045260245ffd5b63e602df0560e01b5f525f60045260245ffd5b8390637dc7a0d960e11b5f523360045260245260445260645ffd5b34610a2e575f366003190112610a2e576020600254604051908152f35b34610a2e575f366003190112610a2e57602060405160058152f35b34610a2e575f366003190112610a2e576007546040516001600160a01b039091168152602090f35b34610a2e576040366003190112610a2e57610618610cc6610e25565b60243590336112a2565b34610a2e575f366003190112610a2e576040515f6003548060011c90600181168015610dba575b602083108114610da657828552908115610d825750600114610d24575b610702836106f681850382610e7b565b91905060035f527fc2575a0e9e593c00f959f8c92f12db2869c3395a3b0502d05e2516446f71f85b915f905b808210610d68575090915081016020016106f6610d14565b919260018160209254838588010152019101909291610d50565b60ff191660208086019190915291151560051b840190910191506106f69050610d14565b634e487b7160e01b5f52602260045260245ffd5b91607f1691610cf7565b34610a2e575f366003190112610a2e576020600d54604051908152f35b34610a2e575f366003190112610a2e578061dead60209252f35b602060409281835280519182918282860152018484015e5f828201840152601f01601f1916010190565b600435906001600160a01b0382168203610a2e57565b602435906001600160a01b0382168203610a2e57565b34610a2e575f366003190112610a2e576020604051600a8152f35b600435908115158203610a2e57565b90601f8019910116810190811067ffffffffffffffff821117610e9d57604052565b634e487b7160e01b5f52604160045260245ffd5b67ffffffffffffffff8111610e9d5760051b60200190565b805115610ed65760200190565b634e487b7160e01b5f52603260045260245ffd5b805160011015610ed65760400190565b602081830312610a2e5780519067ffffffffffffffff8211610a2e57019080601f83011215610a2e578151610f2e81610eb1565b92610f3c6040519485610e7b565b81845260208085019260051b820101928311610a2e57602001905b828210610f645750505090565b8151815260209182019101610f57565b90602080835192838152019201905f5b818110610f915750505090565b82516001600160a01b0316845260209384019390920191600101610f84565b6110425f604051610fc2606082610e7b565b60028152604036602083013730610fd882610ec9565b52610fe281610eea565b7f00000000000000000000000000000000000000000000000000000000000000006001600160a01b031690526040805163d06ca61f60e01b8152670de0b6b3a7640000600482015260248101919091529283918291906044830190610f74565b03817f00000000000000000000000000000000000000000000000000000000000000006001600160a01b03165afa8015610a2357611087915f9161108b575b50610eea565b5190565b6110a791503d805f833e61109f8183610e7b565b810190610efa565b5f611081565b91906001600160a01b038316156110eb576001600160a01b038116156110d8576110d692611343565b565b63ec442f0560e01b5f525f60045260245ffd5b634b637e8f60e11b5f525f60045260245ffd5b6005546001600160a01b0316330361111257565b63118cdaa760e01b5f523360045260245ffd5b9190820180921161113257565b634e487b7160e01b5f52601160045260245ffd5b9091906001600160a01b031680611195575f5160206125205f395f51905f5260208461117861dead9596600254611125565b6002555b845f525f825260405f20818154019055604051908152a3565b805f525f60205260405f20548381106111d05760208461dead94955f5160206125205f395f51905f5293855f525f84520360405f205561117c565b915063391434e360e21b5f5260045260245260445260645ffd5b6001600160a01b031690816112505760205f5160206125205f395f51905f529161121685600254611125565b6002555b6001600160a01b0316938461123b5780600254036002555b604051908152a3565b845f525f825260405f20818154019055611232565b815f525f60205260405f2054838110611287575f5160206125205f395f51905f529184602092855f525f84520360405f205561121a565b91905063391434e360e21b5f5260045260245260445260645ffd5b6001600160a01b0316908115610c1c576001600160a01b0316918215610c095760207f8c5be1e5ebec7d5bd14f71427d1e84f3dd0314c0f7b2291e5b200ac8c7c3b92591835f526001825260405f20855f5282528060405f2055604051908152a3565b8181029291811591840414171561113257565b8115611322570490565b634e487b7160e01b5f52601260045260245ffd5b9190820391821161113257565b909291907f00000000000000000000000000000000000000000000000000000000000000006001600160a01b03165f81151580611a31575b611992575b60ff600f54168015611981575b8015611970575b801561194f575b801561192e575b611921576001600160a01b037f0000000000000000000000000000000000000000000000000000000000000000811690841681146118a3576001600160a01b0387161461140157505092836113fc83836110d696976111ea565b6120c3565b60ff600f5460101c161561186e57606461141d600c5486611305565b046114288186611336565b916114338386611b2d565b938415918215611472575b5050506114659261146a96979261145961145e9330886111ea565b611336565b90836111ea565b611c20565b6110d6611cbf565b61147d8630896111ea565b60058602868104600514841715611132576019900492600a870290878204600a14171561113257601990046114b681611459868a611336565b925f9460018060a01b03600954169081151580611865575b1561185b576040516370a0823160e01b81526004810183905290602082602481875afa918215610a23575f92611826575b506024926115149161150f6121ff565b61225c565b602060018060a01b036009541693604051938480926370a0823160e01b82528760048301525afa8015610a23575f906117f2575b6115529250611336565b8061179f575b50505b600a546001600160a01b031680151580611791575b80611788575b15611763576006546040516370a0823160e01b8152600481018390529190602090839060249082906001600160a01b03165afa91821561172257849261172d575b506115c5919261150f6124aa565b600654600a546040516370a0823160e01b81526001600160a01b0391821660048201819052939092909160209184916024918391165afa80156117225784906116ee575b6116139250611336565b80611697575b5050509261145961145e93611465969361146a9a9b965b6008546001600160a01b0316908115158061168e575b1561167e57906116589161150f6121ff565b8061166e575b509350819499985082955061143e565b6116789030611146565b5f61165e565b905061168991611125565b611658565b50801515611646565b813b1561039b57829160248392604051948593849263cc430ced60e01b845260048401525af180156116e3576116ce575b80611619565b6116d9828092610e7b565b61020357806116c8565b6040513d84823e3d90fd5b506020823d60201161171a575b8161170860209383610e7b565b81010312610a2e576116139151611609565b3d91506116fb565b6040513d86823e3d90fd5b91506020823d60201161175b575b8161174860209383610e7b565b81010312610a2e576115c59151916115b7565b3d915061173b565b5061145991509361146a999a959261178261145e966114659996611125565b90611630565b50811515611576565b5061179a612362565b611570565b813b15610a2e575f916044839260405194859384926315f5e8d760e31b84526002600485015260248401525af18015610a23576117dd575b80611558565b6117ea9192505f90610e7b565b5f905f6117d7565b506020823d60201161181e575b8161180c60209383610e7b565b81010312610a2e576115529151611548565b3d91506117ff565b9091506020813d602011611853575b8161184260209383610e7b565b81010312610a2e57519060246114ff565b3d9150611835565b955061155b915050565b508015156114ce565b60405162461bcd60e51b815260206004820152600d60248201526c14d1531317d11254d050931151609a1b6044820152606490fd5b505050919260ff600f5460081c16156118ed576110d6926118e86118d660646118ce600b5487611305565b048095611336565b936118e18585611a63565b30836111ea565b6111ea565b60405162461bcd60e51b815260206004820152600c60248201526b10955657d11254d05093115160a21b6044820152606490fd5b5050926110d692936111ea565b506001600160a01b0386165f9081526010602052604090205460ff166113a2565b506001600160a01b0383165f9081526010602052604090205460ff1661139b565b506001600160a01b03861615611394565b506001600160a01b0383161561138d565b6040516370a0823160e01b81527f00000000000000000000000000000000000000000000000000000000000000006001600160a01b03166004820152602081602481865afa908115610a23575f916119ff575b50600e5481116119f6575b50611380565b600e555f6119f0565b90506020813d602011611a29575b81611a1a60209383610e7b565b81010312610a2e57515f6119e5565b3d9150611a0d565b507f00000000000000000000000000000000000000000000000000000000000000006001600160a01b0316151561137b565b6001600160a01b0390811691907f00000000000000000000000000000000000000000000000000000000000000001682148015611afb575b8015611af0575b8015611ae7575b611ae357611ac7670de0b6b3a764000091611ac2610fb0565b611305565b04905f526011602052611adf60405f20918254611125565b9055565b5050565b50308214611aa9565b5061dead8214611aa2565b507f00000000000000000000000000000000000000000000000000000000000000006001600160a01b03168214611a9b565b611b619060018060a01b0316805f526011602052611b4f8360405f2054611305565b905f525f60205260405f205490611318565b611b955f611b6d6121ff565b6040518093819263d06ca61f60e01b8352876004840152604060248401526044830190610f74565b03817f00000000000000000000000000000000000000000000000000000000000000006001600160a01b03165afa8015610a2357611bd9915f9161108b5750610eea565b519080821115611c1957611bff92611bf4611bfa9284611336565b90611305565b611318565b601981029080820460191490151715611132576064900490565b5050505f90565b6001600160a01b03165f8181526020818152604080832054601190925290912054919290919082158015611cad575b611c9b57611c6a92611bfa611c649284611305565b90611336565b5f82815260116020526040902081905567016345785d8a00001015611c8c5750565b5f5260116020525f6040812055565b5050505f5260116020525f6040812055565b5067016345785d8a0000831115611c4f565b5f305f525f60205260405f2054600d54811080156120b7575b611ae357601481029181159282810460141484171561113257606490049260288302908382046028141715611132578361145981946114596064611d1f9504978892611336565b6009549093906001600160a01b0316801515806120ae575b1561209c576040516370a0823160e01b8152600481018290527f00000000000000000000000000000000000000000000000000000000000000006001600160a01b031691602082602481865afa918215610a23575f92612066575b5090611da36024928761150f6121ff565b602060018060a01b036009541693604051938480926370a0823160e01b82528760048301525afa8015610a23575f90612032575b611de19250611336565b80611fdf575b50505b600a546001600160a01b031680151580611fd1575b80611fc8575b15611fb5576006546040516370a0823160e01b8152600481018390529190602090839060249082906001600160a01b03165afa918215611722578492611f7f575b50611e54919261150f6124aa565b600654600a546040516370a0823160e01b81526001600160a01b0391821660048201819052939092909160209184916024918391165afa8015611722578490611f4b575b611ea29250611336565b80611eff575b5050505b6008546001600160a01b03169081151580611ef6575b15611ee65790611ed49161150f6121ff565b80611edc5750565b6110d69030611146565b9050611ef191611125565b611ed4565b50801515611ec2565b813b1561039b57829160248392604051948593849263cc430ced60e01b845260048401525af180156116e357611f36575b80611ea8565b611f41828092610e7b565b6102035780611f30565b506020823d602011611f77575b81611f6560209383610e7b565b81010312610a2e57611ea29151611e98565b3d9150611f58565b91506020823d602011611fad575b81611f9a60209383610e7b565b81010312610a2e57611e54915191611e46565b3d9150611f8d565b509050611fc29192611125565b90611eac565b50811515611e05565b50611fda612362565b611dff565b813b15610a2e575f916044839260405194859384926315f5e8d760e31b84526001600485015260248401525af18015610a235761201d575b80611de7565b61202a9192505f90610e7b565b5f905f612017565b506020823d60201161205e575b8161204c60209383610e7b565b81010312610a2e57611de19151611dd7565b3d915061203f565b91506020823d602011612094575b8161208160209383610e7b565b81010312610a2e57905190611da3611d92565b3d9150612074565b5092826120a891611125565b92611dea565b50831515611d37565b5060ff600f5416611cd8565b6001600160a01b03918216917f000000000000000000000000000000000000000000000000000000000000000016821480156121cd575b80156121c2575b80156121b9575b6121b45760018060a01b0316805f525f6020526121298360405f2054611125565b92815f52601160205260405f205493841580156121ac575b6121a557611bfa6121529286611305565b92831561219f578361216391611336565b9067016345785d8a0000821115612197575b5f52601160205260405f20555f526011602052611adf60405f20918254611125565b5f9150612175565b50505050565b5050505050565b508015612141565b505050565b50308214612108565b5061dead8214612101565b507f00000000000000000000000000000000000000000000000000000000000000006001600160a01b031682146120fa565b6040519061220e606083610e7b565b60028252604036602084013761222e823061222882610ec9565b52610eea565b7f00000000000000000000000000000000000000000000000000000000000000006001600160a01b03169052565b81156121b457600f805460ff191660011790557f00000000000000000000000000000000000000000000000000000000000000006001600160a01b03166122a48382306112a2565b803b15610a2e576122e35f92918392604051948580948193635c11d79560e01b835289600484015283602484015260a0604484015260a4830190610f74565b6001600160a01b03909916606482018190524260848301529803925af19081612352575b5061231b575b505060ff19600f5416600f55565b7faedb4dc54dc30d46d331ffcc44cd836607bea96c12e1b21a95210ed899184d049160409182519182526020820152a15f8061230d565b5f61235c91610e7b565b5f612307565b6006546001600160a01b031680156124635760405163e6a4390560e01b815260048101919091526001600160a01b037f000000000000000000000000000000000000000000000000000000000000000081166024830152602090829060449082907f0000000000000000000000000000000000000000000000000000000000000000165afa908115610a23575f91612468575b506001600160a01b03168015612463576020600491604051928380926318160ddd60e01b82525afa908115610a23575f91612431575b50151590565b90506020813d60201161245b575b8161244c60209383610e7b565b81010312610a2e57515f61242b565b3d915061243f565b505f90565b90506020813d6020116124a2575b8161248360209383610e7b565b81010312610a2e57516001600160a01b0381168103610a2e575f6123f5565b3d9150612476565b604051906124b9608083610e7b565b60038252606036602084013781306124d082610ec9565b526124da81610eea565b6001600160a01b037f0000000000000000000000000000000000000000000000000000000000000000811690915260065482519116919060021015610ed6576060015256feddf252ad1be2c89b69c2b068fc378daa952ba7f163c4a11628f55a4df523b3efa26469706673582212200f882c006f04b6ff1381a2a62b196ed3db2e1fc33825b14fc0d3b9224c455e8064736f6c634300081e0033ddf252ad1be2c89b69c2b068fc378daa952ba7f163c4a11628f55a4df523b3ef","linkReferences":{}},"methodIdentifiers":{"DEAD()":"03fd2a45","PROFIT_NODE_TAX_RATE()":"0c355b47","PROFIT_SUBCOIN_TAX_RATE()":"416702c9","PROFIT_WALLET_TAX_RATE()":"fcb1138d","USDT()":"c54e44eb","allowance(address,address)":"dd62ed3e","allowlist(address)":"a7cd52cb","approve(address,uint256)":"095ea7b3","balanceOf(address)":"70a08231","buyRate()":"fc37987b","currentPrice()":"9d1b464a","decimals()":"313ce567","getHighestReserve()":"a5aff841","highestReserve()":"6cf77e9a","leo()":"42728ffd","name()":"06fdde03","nodeDividends()":"c7fb372f","openBuy()":"d4a67930","openSell()":"f1eae64a","owner()":"8da5cb5b","pancakeFactory()":"e0f1c9c5","pancakePair()":"b8c9d25c","pancakeRouter()":"c21ebd07","payback()":"854bec87","renounceOwnership()":"715018a6","sellRate()":"6217229b","setAddrConfig(address,address,address,address)":"72207cc3","setAllowlist(address[],bool)":"f01fe7c4","setRate(uint256,uint256)":"46df2ccb","specialWithdraw(uint256)":"6f93b55c","swapThreshold()":"0445b667","switchBuy(bool)":"cf576cc7","switchSell(bool)":"ca77f99c","symbol()":"95d89b41","totalCostUsdt(address)":"60d1d4a4","totalSupply()":"18160ddd","transfer(address,uint256)":"a9059cbb","transferFrom(address,address,uint256)":"23b872dd","transferOwnership(address)":"f2fde38b","treasuryLiquidity()":"09fb6698","wallet()":"521eb273"},"id":77}