{"abi":[{"type":"constructor","inputs":[{"name":"_initialRecipient","type":"address","internalType":"address"},{"name":"_wallet","type":"address","internalType":"address"},{"name":"_USDT","type":"address","internalType":"address"}],"stateMutability":"nonpayable"},{"type":"function","name":"DEAD","inputs":[],"outputs":[{"name":"","type":"address","internalType":"address"}],"stateMutability":"view"},{"type":"function","name":"PROFIT_NODE_TAX_RATE","inputs":[],"outputs":[{"name":"","type":"uint256","internalType":"uint256"}],"stateMutability":"view"},{"type":"function","name":"PROFIT_SUBCOIN_TAX_RATE","inputs":[],"outputs":[{"name":"","type":"uint256","internalType":"uint256"}],"stateMutability":"view"},{"type":"function","name":"PROFIT_WALLET_TAX_RATE","inputs":[],"outputs":[{"name":"","type":"uint256","internalType":"uint256"}],"stateMutability":"view"},{"type":"function","name":"USDT","inputs":[],"outputs":[{"name":"","type":"address","internalType":"address"}],"stateMutability":"view"},{"type":"function","name":"allowance","inputs":[{"name":"owner","type":"address","internalType":"address"},{"name":"spender","type":"address","internalType":"address"}],"outputs":[{"name":"","type":"uint256","internalType":"uint256"}],"stateMutability":"view"},{"type":"function","name":"allowlist","inputs":[{"name":"","type":"address","internalType":"address"}],"outputs":[{"name":"","type":"bool","internalType":"bool"}],"stateMutability":"view"},{"type":"function","name":"approve","inputs":[{"name":"spender","type":"address","internalType":"address"},{"name":"value","type":"uint256","internalType":"uint256"}],"outputs":[{"name":"","type":"bool","internalType":"bool"}],"stateMutability":"nonpayable"},{"type":"function","name":"balanceOf","inputs":[{"name":"account","type":"address","internalType":"address"}],"outputs":[{"name":"","type":"uint256","internalType":"uint256"}],"stateMutability":"view"},{"type":"function","name":"buyRate","inputs":[],"outputs":[{"name":"","type":"uint256","internalType":"uint256"}],"stateMutability":"view"},{"type":"function","name":"currentPrice","inputs":[],"outputs":[{"name":"","type":"uint256","internalType":"uint256"}],"stateMutability":"view"},{"type":"function","name":"decimals","inputs":[],"outputs":[{"name":"","type":"uint8","internalType":"uint8"}],"stateMutability":"view"},{"type":"function","name":"getHighestReserve","inputs":[],"outputs":[{"name":"","type":"uint256","internalType":"uint256"}],"stateMutability":"view"},{"type":"function","name":"highestReserve","inputs":[],"outputs":[{"name":"","type":"uint256","internalType":"uint256"}],"stateMutability":"view"},{"type":"function","name":"leo","inputs":[],"outputs":[{"name":"","type":"address","internalType":"address"}],"stateMutability":"view"},{"type":"function","name":"name","inputs":[],"outputs":[{"name":"","type":"string","internalType":"string"}],"stateMutability":"view"},{"type":"function","name":"nodeDividends","inputs":[],"outputs":[{"name":"","type":"address","internalType":"address"}],"stateMutability":"view"},{"type":"function","name":"openBuy","inputs":[],"outputs":[{"name":"","type":"bool","internalType":"bool"}],"stateMutability":"view"},{"type":"function","name":"openSell","inputs":[],"outputs":[{"name":"","type":"bool","internalType":"bool"}],"stateMutability":"view"},{"type":"function","name":"owner","inputs":[],"outputs":[{"name":"","type":"address","internalType":"address"}],"stateMutability":"view"},{"type":"function","name":"pancakeFactory","inputs":[],"outputs":[{"name":"","type":"address","internalType":"address"}],"stateMutability":"view"},{"type":"function","name":"pancakePair","inputs":[],"outputs":[{"name":"","type":"address","internalType":"address"}],"stateMutability":"view"},{"type":"function","name":"pancakeRouter","inputs":[],"outputs":[{"name":"","type":"address","internalType":"contract IUniswapV2Router02"}],"stateMutability":"view"},{"type":"function","name":"payback","inputs":[],"outputs":[{"name":"","type":"address","internalType":"address"}],"stateMutability":"view"},{"type":"function","name":"renounceOwnership","inputs":[],"outputs":[],"stateMutability":"nonpayable"},{"type":"function","name":"sellRate","inputs":[],"outputs":[{"name":"","type":"uint256","internalType":"uint256"}],"stateMutability":"view"},{"type":"function","name":"setLeoAddr","inputs":[{"name":"_leo","type":"address","internalType":"address"}],"outputs":[],"stateMutability":"nonpayable"},{"type":"function","name":"setNodeDividends","inputs":[{"name":"_addr","type":"address","internalType":"address"}],"outputs":[],"stateMutability":"nonpayable"},{"type":"function","name":"setPaybackAddr","inputs":[{"name":"_addr","type":"address","internalType":"address"}],"outputs":[],"stateMutability":"nonpayable"},{"type":"function","name":"setRate","inputs":[{"name":"_buy","type":"uint256","internalType":"uint256"},{"name":"_sell","type":"uint256","internalType":"uint256"}],"outputs":[],"stateMutability":"nonpayable"},{"type":"function","name":"setTreasuryLiquidityAddr","inputs":[{"name":"_treasuryLiquidity","type":"address","internalType":"address"}],"outputs":[],"stateMutability":"nonpayable"},{"type":"function","name":"specialWithdraw","inputs":[{"name":"amount","type":"uint256","internalType":"uint256"}],"outputs":[],"stateMutability":"nonpayable"},{"type":"function","name":"swapThreshold","inputs":[],"outputs":[{"name":"","type":"uint256","internalType":"uint256"}],"stateMutability":"view"},{"type":"function","name":"switchBuy","inputs":[{"name":"_b","type":"bool","internalType":"bool"}],"outputs":[],"stateMutability":"nonpayable"},{"type":"function","name":"switchSell","inputs":[{"name":"_b","type":"bool","internalType":"bool"}],"outputs":[],"stateMutability":"nonpayable"},{"type":"function","name":"symbol","inputs":[],"outputs":[{"name":"","type":"string","internalType":"string"}],"stateMutability":"view"},{"type":"function","name":"totalCostUsdt","inputs":[{"name":"","type":"address","internalType":"address"}],"outputs":[{"name":"","type":"uint256","internalType":"uint256"}],"stateMutability":"view"},{"type":"function","name":"totalSupply","inputs":[],"outputs":[{"name":"","type":"uint256","internalType":"uint256"}],"stateMutability":"view"},{"type":"function","name":"transfer","inputs":[{"name":"to","type":"address","internalType":"address"},{"name":"value","type":"uint256","internalType":"uint256"}],"outputs":[{"name":"","type":"bool","internalType":"bool"}],"stateMutability":"nonpayable"},{"type":"function","name":"transferFrom","inputs":[{"name":"from","type":"address","internalType":"address"},{"name":"to","type":"address","internalType":"address"},{"name":"value","type":"uint256","internalType":"uint256"}],"outputs":[{"name":"","type":"bool","internalType":"bool"}],"stateMutability":"nonpayable"},{"type":"function","name":"transferOwnership","inputs":[{"name":"newOwner","type":"address","internalType":"address"}],"outputs":[],"stateMutability":"nonpayable"},{"type":"function","name":"treasuryLiquidity","inputs":[],"outputs":[{"name":"","type":"address","internalType":"address"}],"stateMutability":"view"},{"type":"function","name":"wallet","inputs":[],"outputs":[{"name":"","type":"address","internalType":"address"}],"stateMutability":"view"},{"type":"event","name":"Approval","inputs":[{"name":"owner","type":"address","indexed":true,"internalType":"address"},{"name":"spender","type":"address","indexed":true,"internalType":"address"},{"name":"value","type":"uint256","indexed":false,"internalType":"uint256"}],"anonymous":false},{"type":"event","name":"OwnershipTransferred","inputs":[{"name":"previousOwner","type":"address","indexed":true,"internalType":"address"},{"name":"newOwner","type":"address","indexed":true,"internalType":"address"}],"anonymous":false},{"type":"event","name":"SwapAndSendTax","inputs":[{"name":"recipient","type":"address","indexed":false,"internalType":"address"},{"name":"tokensSwapped","type":"uint256","indexed":false,"internalType":"uint256"}],"anonymous":false},{"type":"event","name":"Transfer","inputs":[{"name":"from","type":"address","indexed":true,"internalType":"address"},{"name":"to","type":"address","indexed":true,"internalType":"address"},{"name":"value","type":"uint256","indexed":false,"internalType":"uint256"}],"anonymous":false},{"type":"error","name":"ERC20InsufficientAllowance","inputs":[{"name":"spender","type":"address","internalType":"address"},{"name":"allowance","type":"uint256","internalType":"uint256"},{"name":"needed","type":"uint256","internalType":"uint256"}]},{"type":"error","name":"ERC20InsufficientBalance","inputs":[{"name":"sender","type":"address","internalType":"address"},{"name":"balance","type":"uint256","internalType":"uint256"},{"name":"needed","type":"uint256","internalType":"uint256"}]},{"type":"error","name":"ERC20InvalidApprover","inputs":[{"name":"approver","type":"address","internalType":"address"}]},{"type":"error","name":"ERC20InvalidReceiver","inputs":[{"name":"receiver","type":"address","internalType":"address"}]},{"type":"error","name":"ERC20InvalidSender","inputs":[{"name":"sender","type":"address","internalType":"address"}]},{"type":"error","name":"ERC20InvalidSpender","inputs":[{"name":"spender","type":"address","internalType":"address"}]},{"type":"error","name":"OwnableInvalidOwner","inputs":[{"name":"owner","type":"address","internalType":"address"}]},{"type":"error","name":"OwnableUnauthorizedAccount","inputs":[{"name":"account","type":"address","internalType":"address"}]}],"bytecode":{"object":"0x6101006040526005600b556005600c55678ac7230489e80000600d55348015610026575f5ffd5b50604051613f71380380613f718339810160408190526100459161161f565b6040805180820182526003808252620988ab60eb1b6020808401829052845180860190955282855284015233929061007d83826116ef565b50600461008a82826116ef565b5050506001600160a01b0381166100bb57604051631e4fbdf760e01b81525f60048201526024015b60405180910390fd5b6100c481610233565b506100da836a115eec47f6cf7e35000000610284565b7310ed43c718714eb63d5aa57b78b54704e256024e60808190526001600160a01b0382811660e052600880546001600160a01b0319169185169190911790556040805163c45a015560e01b8152905163c45a0155916004808201926020929091908290030181865afa158015610152573d5f5f3e3d5ffd5b505050506040513d601f19601f8201168201806040525081019061017691906117a9565b6001600160a01b0390811660a081905260e0516040516364e329cb60e11b8152306004820152921660248301529063c9c65396906044016020604051808303815f875af11580156101c9573d5f5f3e3d5ffd5b505050506040513d601f19601f820116820180604052508101906101ed91906117a9565b6001600160a01b0390811660c0529283165f908152601060205260408082208054600160ff199182168117909255949095168252902080549092169092179055506119f3565b600580546001600160a01b038381166001600160a01b0319831681179093556040519116919082907f8be0079c531659141344cd1fd0a4f28419497f9722a3daafe3b4186f6b6457e0905f90a35050565b6001600160a01b0382166102ad5760405163ec442f0560e01b81525f60048201526024016100b2565b6102b85f83836102bc565b5050565b60e0516001600160a01b0316158015906102e0575060c0516001600160a01b031615155b1561036b5760e05160c0516040516370a0823160e01b81526001600160a01b0391821660048201525f9291909116906370a0823190602401602060405180830381865afa158015610333573d5f5f3e3d5ffd5b505050506040513d601f19601f8201168201806040525081019061035791906117c9565b9050600e5481111561036957600e8190555b505b600f5460ff168061038357506001600160a01b038316155b8061039557506001600160a01b038216155b806103b757506001600160a01b0383165f9081526010602052604090205460ff165b806103d957506001600160a01b0382165f9081526010602052604090205460ff165b156103ee576103e983838361059b565b505050565b60c0516001600160a01b0390811684821681149184161481156104a457600f54610100900460ff166104515760405162461bcd60e51b815260206004820152600c60248201526b10955657d11254d05093115160a21b60448201526064016100b2565b5f6064600b548561046291906117f4565b61046c919061180b565b90505f610479828661182a565b905061048586826106c1565b61049087308461059b565b61049b87878361059b565b50505050505050565b801561057e57600f5462010000900460ff166104f25760405162461bcd60e51b815260206004820152600d60248201526c14d1531317d11254d050931151609a1b60448201526064016100b2565b5f6064600c548561050391906117f4565b61050d919061180b565b90505f61051a828661182a565b90505f6105278883610787565b905080156105435761053a88308361059b565b61054381610842565b61054e88308561059b565b610562888861055d848661182a565b61059b565b61056c8887610c6a565b610574610d29565b5050505050505050565b61058985858561059b565b610594858585610f18565b5050505050565b6001600160a01b0383166105c5578060025f8282546105ba919061183d565b909155506106359050565b6001600160a01b0383165f90815260208190526040902054818110156106175760405163391434e360e21b81526001600160a01b038516600482015260248101829052604481018390526064016100b2565b6001600160a01b0384165f9081526020819052604090209082900390555b6001600160a01b0382166106515760028054829003905561066f565b6001600160a01b0382165f9081526020819052604090208054820190555b816001600160a01b0316836001600160a01b03167fddf252ad1be2c89b69c2b068fc378daa952ba7f163c4a11628f55a4df523b3ef836040516106b491815260200190565b60405180910390a3505050565b6080516001600160a01b0316826001600160a01b031614806106f6575060c0516001600160a01b0316826001600160a01b0316145b8061070b57506001600160a01b03821661dead145b8061071e57506001600160a01b03821630145b15610727575050565b5f61073061105c565b90505f670de0b6b3a764000061074684846117f4565b610750919061180b565b6001600160a01b0385165f9081526011602052604081208054929350839290919061077c90849061183d565b909155505050505050565b6001600160a01b0382165f908152602081815260408083205460119092528220548291906107b69085906117f4565b6107c0919061180b565b90505f6107cc84611171565b90508181116107df575f9250505061083c565b5f6107ea838361182a565b90505f826107f883886117f4565b610802919061180b565b90505f6005610812600a8061183d565b61081c919061183d565b9050606461082a82846117f4565b610834919061180b565b955050505050505b92915050565b5f6005610850600a8061183d565b61085a919061183d565b90505f816108696005856117f4565b610873919061180b565b90505f82610882600a866117f4565b61088c919061180b565b90505f8161089a848761182a565b6108a4919061182a565b6009549091505f906001600160a01b0316158015906108c257505f84115b15610a445760e0516009546040516370a0823160e01b81526001600160a01b0391821660048201525f9291909116906370a0823190602401602060405180830381865afa158015610915573d5f5f3e3d5ffd5b505050506040513d601f19601f8201168201806040525081019061093991906117c9565b9050610959610946611211565b60095487906001600160a01b031661129d565b60e0516009546040516370a0823160e01b81526001600160a01b0391821660048201525f92849216906370a0823190602401602060405180830381865afa1580156109a6573d5f5f3e3d5ffd5b505050506040513d601f19601f820116820180604052508101906109ca91906117c9565b6109d4919061182a565b90508015610a3d576009546040516315f5e8d760e31b81526001600160a01b039091169063afaf46b890610a0f906002908590600401611850565b5f604051808303815f87803b158015610a26575f5ffd5b505af1158015610a38573d5f5f3e3d5ffd5b505050505b5050610a51565b610a4e848261183d565b90505b600a546001600160a01b031615801590610a6e5750610a6e61137a565b8015610a7957505f83115b15610bf457600654600a546040516370a0823160e01b81526001600160a01b0391821660048201525f9291909116906370a0823190602401602060405180830381865afa158015610acc573d5f5f3e3d5ffd5b505050506040513d601f19601f82011682018060405250810190610af091906117c9565b9050610b10610afd61148d565b600a5486906001600160a01b031661129d565b600654600a546040516370a0823160e01b81526001600160a01b0391821660048201525f92849216906370a0823190602401602060405180830381865afa158015610b5d573d5f5f3e3d5ffd5b505050506040513d601f19601f82011682018060405250810190610b8191906117c9565b610b8b919061182a565b90508015610bed57600a5460405163cc430ced60e01b8152600481018390526001600160a01b039091169063cc430ced906024015f604051808303815f87803b158015610bd6575f5ffd5b505af1158015610be8573d5f5f3e3d5ffd5b505050505b5050610c01565b610bfe838261183d565b90505b6008546001600160a01b031615801590610c1a57505f82115b15610c4257610c3d610c2a611211565b60085484906001600160a01b031661129d565b610c4f565b610c4c828261183d565b90505b8015610c6257610c623061dead8361059b565b505050505050565b6001600160a01b0382165f9081526020818152604080832054601190925290912054811580610ca1575067016345785d8a00008211155b15610cc2575050506001600160a01b03165f90815260116020526040812055565b5f82610cce85846117f4565b610cd8919061180b565b9050610ce4818361182a565b6001600160a01b0386165f90815260116020526040902081905567016345785d8a00001061059457505050506001600160a01b03165f90815260116020526040812055565b305f90815260208190526040902054600d54811080610d4a5750600f5460ff165b15610d525750565b805f6064610d618360146117f4565b610d6b919061180b565b90505f6064610d7b8460286117f4565b610d85919061180b565b90505f6064610d958560146117f4565b610d9f919061180b565b90505f8183610dae868861182a565b610db8919061182a565b610dc2919061182a565b6009549091506001600160a01b031615801590610dde57505f84115b15610a445760e0516009546040516370a0823160e01b81526001600160a01b0391821660048201525f9291909116906370a0823190602401602060405180830381865afa158015610e31573d5f5f3e3d5ffd5b505050506040513d601f19601f82011682018060405250810190610e5591906117c9565b9050610e62610946611211565b60e0516009546040516370a0823160e01b81526001600160a01b0391821660048201525f92849216906370a0823190602401602060405180830381865afa158015610eaf573d5f5f3e3d5ffd5b505050506040513d601f19601f82011682018060405250810190610ed391906117c9565b610edd919061182a565b90508015610a3d576009546040516315f5e8d760e31b81526001600160a01b039091169063afaf46b890610a0f906001908590600401611850565b6080516001600160a01b0316826001600160a01b03161480610f4d575060c0516001600160a01b0316826001600160a01b0316145b80610f6257506001600160a01b03821661dead145b80610f7557506001600160a01b03821630145b15610f7f57505050565b6001600160a01b0383165f90815260208190526040812054610fa290839061183d565b6001600160a01b0385165f90815260116020526040902054909150801580610fc8575081155b15610fd4575050505050565b5f82610fe085846117f4565b610fea919061180b565b9050805f03610ffb57505050505050565b5f611006828461182a565b905067016345785d8a0000811161101a57505f5b6001600160a01b038088165f908152601160205260408082208490559188168152908120805484929061104e90849061183d565b909155505050505050505050565b6040805160028082526060820183525f928392919060208301908036833701905050905030815f815181106110935761109361187a565b60200260200101906001600160a01b031690816001600160a01b03168152505060e051816001815181106110c9576110c961187a565b6001600160a01b03928316602091820292909201015260805160405163d06ca61f60e01b815291169063d06ca61f9061111090670de0b6b3a76400009085906004016118d1565b5f60405180830381865afa15801561112a573d5f5f3e3d5ffd5b505050506040513d5f823e601f3d908101601f1916820160405261115191908101906118f1565b6001815181106111635761116361187a565b602002602001015191505090565b5f8061117b611211565b60805160405163d06ca61f60e01b81529192506001600160a01b03169063d06ca61f906111ae90869085906004016118d1565b5f60405180830381865afa1580156111c8573d5f5f3e3d5ffd5b505050506040513d5f823e601f3d908101601f191682016040526111ef91908101906118f1565b6001815181106112015761120161187a565b6020026020010151915050919050565b604080516002808252606080830184529260208301908036833701905050905030815f815181106112445761124461187a565b60200260200101906001600160a01b031690816001600160a01b03168152505060e0518160018151811061127a5761127a61187a565b60200260200101906001600160a01b031690816001600160a01b03168152505090565b815f036112a957505050565b600f805460ff191660011790556080516112c590309084611529565b6080516001600160a01b0316635c11d795835f8685426040518663ffffffff1660e01b81526004016112fb9594939291906119b8565b5f604051808303815f87803b158015611312575f5ffd5b505af1925050508015611323575060015b1561136b57604080516001600160a01b0383168152602081018490527faedb4dc54dc30d46d331ffcc44cd836607bea96c12e1b21a95210ed899184d04910160405180910390a15b5050600f805460ff1916905550565b6006545f906001600160a01b031661139157505f90565b60a05160065460e05160405163e6a4390560e01b81526001600160a01b03928316600482015290821660248201525f92919091169063e6a4390590604401602060405180830381865afa1580156113ea573d5f5f3e3d5ffd5b505050506040513d601f19601f8201168201806040525081019061140e91906117a9565b90506001600160a01b038116611425575f91505090565b5f816001600160a01b03166318160ddd6040518163ffffffff1660e01b8152600401602060405180830381865afa158015611462573d5f5f3e3d5ffd5b505050506040513d601f19601f8201168201806040525081019061148691906117c9565b1191505090565b6040805160038082526080820190925260609160208201838036833701905050905030815f815181106114c2576114c261187a565b60200260200101906001600160a01b031690816001600160a01b03168152505060e051816001815181106114f8576114f861187a565b6001600160a01b03928316602091820292909201015260065482519116908290600290811061127a5761127a61187a565b6103e983838360016001600160a01b03841661155a5760405163e602df0560e01b81525f60048201526024016100b2565b6001600160a01b03831661158357604051634a1406b160e11b81525f60048201526024016100b2565b6001600160a01b038085165f90815260016020908152604080832093871683529290522082905580156115fe57826001600160a01b0316846001600160a01b03167f8c5be1e5ebec7d5bd14f71427d1e84f3dd0314c0f7b2291e5b200ac8c7c3b925846040516115f591815260200190565b60405180910390a35b50505050565b80516001600160a01b038116811461161a575f5ffd5b919050565b5f5f5f60608486031215611631575f5ffd5b61163a84611604565b925061164860208501611604565b915061165660408501611604565b90509250925092565b634e487b7160e01b5f52604160045260245ffd5b600181811c9082168061168757607f821691505b6020821081036116a557634e487b7160e01b5f52602260045260245ffd5b50919050565b601f8211156103e957805f5260205f20601f840160051c810160208510156116d05750805b601f840160051c820191505b81811015610594575f81556001016116dc565b81516001600160401b038111156117085761170861165f565b61171c816117168454611673565b846116ab565b6020601f82116001811461174e575f83156117375750848201515b5f19600385901b1c1916600184901b178455610594565b5f84815260208120601f198516915b8281101561177d578785015182556020948501946001909201910161175d565b508482101561179a57868401515f19600387901b60f8161c191681555b50505050600190811b01905550565b5f602082840312156117b9575f5ffd5b6117c282611604565b9392505050565b5f602082840312156117d9575f5ffd5b5051919050565b634e487b7160e01b5f52601160045260245ffd5b808202811582820484141761083c5761083c6117e0565b5f8261182557634e487b7160e01b5f52601260045260245ffd5b500490565b8181038181111561083c5761083c6117e0565b8082018082111561083c5761083c6117e0565b604081016004841061187057634e487b7160e01b5f52602160045260245ffd5b9281526020015290565b634e487b7160e01b5f52603260045260245ffd5b5f8151808452602084019350602083015f5b828110156118c75781516001600160a01b03168652602095860195909101906001016118a0565b5093949350505050565b828152604060208201525f6118e9604083018461188e565b949350505050565b5f60208284031215611901575f5ffd5b81516001600160401b03811115611916575f5ffd5b8201601f81018413611926575f5ffd5b80516001600160401b0381111561193f5761193f61165f565b604051600582901b90603f8201601f191681016001600160401b038111828210171561196d5761196d61165f565b60405291825260208184018101929081018784111561198a575f5ffd5b6020850194505b838510156119ad57845180825260209586019590935001611991565b509695505050505050565b85815284602082015260a060408201525f6119d660a083018661188e565b6001600160a01b0394909416606083015250608001529392505050565b60805160a05160c05160e0516124a3611ace5f395f81816104e5015281816108de01528181610e0b01528181610eaf015281816113d4015281816114830152818161192b015281816119c701528181611d0a01528181611eaf015261201801525f8181610497015281816107410152818161077201528181610e3e01528181610e8501528181610fb9015281816111ad0152611ab401525f818161058f0152611ed901525f81816104be015281816109350152818161117201528181611a7901528181611c1b01528181611d7e0152611dba01526124a35ff3fe608060405234801561000f575f5ffd5b5060043610610260575f3560e01c8063854bec871161014b578063c54e44eb116100bf578063dd62ed3e11610084578063dd62ed3e14610552578063e0f1c9c51461058a578063f1eae64a146105b1578063f2fde38b146105c4578063fc37987b146105d7578063fcb1138d14610333575f5ffd5b8063c54e44eb146104e0578063c7fb372f14610507578063ca77f99c1461051a578063cf576cc71461052d578063d4a6793014610540575f5ffd5b8063a03b68b711610110578063a03b68b714610442578063a5aff84114610455578063a7cd52cb1461045d578063a9059cbb1461047f578063b8c9d25c14610492578063c21ebd07146104b9575f5ffd5b8063854bec87146103fb5780638da5cb5b1461040e5780638f011a281461041f57806395d89b41146104325780639d1b464a1461043a575f5ffd5b8063416702c9116101e25780636217229b116101a75780636217229b146103935780636cf77e9a1461039c5780636f93b55c146103a557806370a08231146103b8578063715018a6146103e0578063779193ea146103e8575f5ffd5b8063416702c91461033357806342728ffd1461033b57806346df2ccb1461034e578063521eb2731461036157806360d1d4a414610374575f5ffd5b80630c355b47116102285780630c355b47146102ec57806318160ddd146102f45780631ffed978146102fc57806323b872dd14610311578063313ce56714610324575f5ffd5b806303fd2a45146102645780630445b6671461028a57806306fdde03146102a1578063095ea7b3146102b657806309fb6698146102d9575b5f5ffd5b61026d61dead81565b6040516001600160a01b0390911681526020015b60405180910390f35b610293600d5481565b604051908152602001610281565b6102a96105e0565b604051610281919061207b565b6102c96102c43660046120c4565b610670565b6040519015158152602001610281565b60075461026d906001600160a01b031681565b610293600581565b600254610293565b61030f61030a3660046120ee565b610689565b005b6102c961031f366004612110565b6106b3565b60405160128152602001610281565b610293600a81565b60065461026d906001600160a01b031681565b61030f61035c36600461214e565b6106d6565b60085461026d906001600160a01b031681565b6102936103823660046120ee565b60116020525f908152604090205481565b610293600c5481565b610293600e5481565b61030f6103b336600461216e565b6106e9565b6102936103c63660046120ee565b6001600160a01b03165f9081526020819052604090205490565b61030f6107e1565b61030f6103f63660046120ee565b6107f4565b600a5461026d906001600160a01b031681565b6005546001600160a01b031661026d565b61030f61042d3660046120ee565b610835565b6102a9610876565b610293610885565b61030f6104503660046120ee565b6109d7565b600e54610293565b6102c961046b3660046120ee565b60106020525f908152604090205460ff1681565b6102c961048d3660046120c4565b610a18565b61026d7f000000000000000000000000000000000000000000000000000000000000000081565b61026d7f000000000000000000000000000000000000000000000000000000000000000081565b61026d7f000000000000000000000000000000000000000000000000000000000000000081565b60095461026d906001600160a01b031681565b61030f610528366004612185565b610a25565b61030f61053b366004612185565b610a49565b600f546102c990610100900460ff1681565b6102936105603660046121a4565b6001600160a01b039182165f90815260016020908152604080832093909416825291909152205490565b61026d7f000000000000000000000000000000000000000000000000000000000000000081565b600f546102c99062010000900460ff1681565b61030f6105d23660046120ee565b610a6b565b610293600b5481565b6060600380546105ef906121db565b80601f016020809104026020016040519081016040528092919081815260200182805461061b906121db565b80156106665780601f1061063d57610100808354040283529160200191610666565b820191905f5260205f20905b81548152906001019060200180831161064957829003601f168201915b5050505050905090565b5f3361067d818585610aa8565b60019150505b92915050565b610691610aba565b600680546001600160a01b0319166001600160a01b0392909216919091179055565b5f336106c0858285610ae7565b6106cb858585610b63565b506001949350505050565b6106de610aba565b600b91909155600c55565b6007546001600160a01b031633146107385760405162461bcd60e51b815260206004820152600d60248201526c2727afa822a926a4a9a9a4a7a760991b60448201526064015b60405180910390fd5b600754610770907f0000000000000000000000000000000000000000000000000000000000000000906001600160a01b031683610bc0565b7f00000000000000000000000000000000000000000000000000000000000000006001600160a01b031663fff6cae96040518163ffffffff1660e01b81526004015f604051808303815f87803b1580156107c8575f5ffd5b505af11580156107da573d5f5f3e3d5ffd5b5050505050565b6107e9610aba565b6107f25f610ce6565b565b6107fc610aba565b600a80546001600160a01b039092166001600160a01b0319909216821790555f908152601060205260409020805460ff19166001179055565b61083d610aba565b600980546001600160a01b039092166001600160a01b0319909216821790555f908152601060205260409020805460ff19166001179055565b6060600480546105ef906121db565b6040805160028082526060820183525f928392919060208301908036833701905050905030815f815181106108bc576108bc612227565b60200260200101906001600160a01b031690816001600160a01b0316815250507f00000000000000000000000000000000000000000000000000000000000000008160018151811061091057610910612227565b6001600160a01b03928316602091820292909201015260405163d06ca61f60e01b81527f00000000000000000000000000000000000000000000000000000000000000009091169063d06ca61f9061097690670de0b6b3a764000090859060040161227e565b5f60405180830381865afa158015610990573d5f5f3e3d5ffd5b505050506040513d5f823e601f3d908101601f191682016040526109b7919081019061229e565b6001815181106109c9576109c9612227565b602002602001015191505090565b6109df610aba565b600780546001600160a01b039092166001600160a01b0319909216821790555f908152601060205260409020805460ff19166001179055565b5f3361067d818585610b63565b610a2d610aba565b600f8054911515620100000262ff000019909216919091179055565b610a51610aba565b600f80549115156101000261ff0019909216919091179055565b610a73610aba565b6001600160a01b038116610a9c57604051631e4fbdf760e01b81525f600482015260240161072f565b610aa581610ce6565b50565b610ab58383836001610d37565b505050565b6005546001600160a01b031633146107f25760405163118cdaa760e01b815233600482015260240161072f565b6001600160a01b038381165f908152600160209081526040808320938616835292905220545f19811015610b5d5781811015610b4f57604051637dc7a0d960e11b81526001600160a01b0384166004820152602481018290526044810183905260640161072f565b610b5d84848484035f610d37565b50505050565b6001600160a01b038316610b8c57604051634b637e8f60e11b81525f600482015260240161072f565b6001600160a01b038216610bb55760405163ec442f0560e01b81525f600482015260240161072f565b610ab5838383610e09565b6001600160a01b038316610bea578060025f828254610bdf919061237a565b90915550610c5a9050565b6001600160a01b0383165f9081526020819052604090205481811015610c3c5760405163391434e360e21b81526001600160a01b0385166004820152602481018290526044810183905260640161072f565b6001600160a01b0384165f9081526020819052604090209082900390555b6001600160a01b038216610c7657600280548290039055610c94565b6001600160a01b0382165f9081526020819052604090208054820190555b816001600160a01b0316836001600160a01b03167fddf252ad1be2c89b69c2b068fc378daa952ba7f163c4a11628f55a4df523b3ef83604051610cd991815260200190565b60405180910390a3505050565b600580546001600160a01b038381166001600160a01b0319831681179093556040519116919082907f8be0079c531659141344cd1fd0a4f28419497f9722a3daafe3b4186f6b6457e0905f90a35050565b6001600160a01b038416610d605760405163e602df0560e01b81525f600482015260240161072f565b6001600160a01b038316610d8957604051634a1406b160e11b81525f600482015260240161072f565b6001600160a01b038085165f9081526001602090815260408083209387168352929052208290558015610b5d57826001600160a01b0316846001600160a01b03167f8c5be1e5ebec7d5bd14f71427d1e84f3dd0314c0f7b2291e5b200ac8c7c3b92584604051610dfb91815260200190565b60405180910390a350505050565b7f00000000000000000000000000000000000000000000000000000000000000006001600160a01b031615801590610e6957507f00000000000000000000000000000000000000000000000000000000000000006001600160a01b031615155b15610f2e576040516370a0823160e01b81526001600160a01b037f0000000000000000000000000000000000000000000000000000000000000000811660048301525f917f0000000000000000000000000000000000000000000000000000000000000000909116906370a0823190602401602060405180830381865afa158015610ef6573d5f5f3e3d5ffd5b505050506040513d601f19601f82011682018060405250810190610f1a919061238d565b9050600e54811115610f2c57600e8190555b505b600f5460ff1680610f4657506001600160a01b038316155b80610f5857506001600160a01b038216155b80610f7a57506001600160a01b0383165f9081526010602052604090205460ff165b80610f9c57506001600160a01b0382165f9081526010602052604090205460ff165b15610fac57610ab5838383610bc0565b6001600160a01b038381167f0000000000000000000000000000000000000000000000000000000000000000821690811491841614811561108057600f54610100900460ff1661102d5760405162461bcd60e51b815260206004820152600c60248201526b10955657d11254d05093115160a21b604482015260640161072f565b5f6064600b548561103e91906123a4565b61104891906123bb565b90505f61105582866123da565b90506110618682611170565b61106c873084610bc0565b611077878783610bc0565b50505050505050565b801561115a57600f5462010000900460ff166110ce5760405162461bcd60e51b815260206004820152600d60248201526c14d1531317d11254d050931151609a1b604482015260640161072f565b5f6064600c54856110df91906123a4565b6110e991906123bb565b90505f6110f682866123da565b90505f6111038883611272565b9050801561111f57611116883083610bc0565b61111f8161132b565b61112a883085610bc0565b61113e888861113984866123da565b610bc0565b611148888761178e565b61115061184d565b5050505050505050565b611165858585610bc0565b6107da858585611a77565b7f00000000000000000000000000000000000000000000000000000000000000006001600160a01b0316826001600160a01b031614806111e157507f00000000000000000000000000000000000000000000000000000000000000006001600160a01b0316826001600160a01b0316145b806111f657506001600160a01b03821661dead145b8061120957506001600160a01b03821630145b15611212575050565b5f61121b610885565b90505f670de0b6b3a764000061123184846123a4565b61123b91906123bb565b6001600160a01b0385165f9081526011602052604081208054929350839290919061126790849061237a565b909155505050505050565b6001600160a01b0382165f908152602081815260408083205460119092528220548291906112a19085906123a4565b6112ab91906123bb565b90505f6112b784611bf7565b90508181116112ca575f92505050610683565b5f6112d583836123da565b90505f826112e383886123a4565b6112ed91906123bb565b90505f60056112fd600a8061237a565b611307919061237a565b9050606461131582846123a4565b61131f91906123bb565b98975050505050505050565b5f6005611339600a8061237a565b611343919061237a565b90505f816113526005856123a4565b61135c91906123bb565b90505f8261136b600a866123a4565b61137591906123bb565b90505f8161138384876123da565b61138d91906123da565b6009549091505f906001600160a01b0316158015906113ab57505f84115b15611568576009546040516370a0823160e01b81526001600160a01b0391821660048201525f917f000000000000000000000000000000000000000000000000000000000000000016906370a0823190602401602060405180830381865afa158015611419573d5f5f3e3d5ffd5b505050506040513d601f19601f8201168201806040525081019061143d919061238d565b905061145d61144a611cb5565b60095487906001600160a01b0316611d5f565b6009546040516370a0823160e01b81526001600160a01b0391821660048201525f9183917f0000000000000000000000000000000000000000000000000000000000000000909116906370a0823190602401602060405180830381865afa1580156114ca573d5f5f3e3d5ffd5b505050506040513d601f19601f820116820180604052508101906114ee919061238d565b6114f891906123da565b90508015611561576009546040516315f5e8d760e31b81526001600160a01b039091169063afaf46b8906115339060029085906004016123ed565b5f604051808303815f87803b15801561154a575f5ffd5b505af115801561155c573d5f5f3e3d5ffd5b505050505b5050611575565b611572848261237a565b90505b600a546001600160a01b0316158015906115925750611592611e76565b801561159d57505f83115b1561171857600654600a546040516370a0823160e01b81526001600160a01b0391821660048201525f9291909116906370a0823190602401602060405180830381865afa1580156115f0573d5f5f3e3d5ffd5b505050506040513d601f19601f82011682018060405250810190611614919061238d565b9050611634611621611fc1565b600a5486906001600160a01b0316611d5f565b600654600a546040516370a0823160e01b81526001600160a01b0391821660048201525f92849216906370a0823190602401602060405180830381865afa158015611681573d5f5f3e3d5ffd5b505050506040513d601f19601f820116820180604052508101906116a5919061238d565b6116af91906123da565b9050801561171157600a5460405163cc430ced60e01b8152600481018390526001600160a01b039091169063cc430ced906024015f604051808303815f87803b1580156116fa575f5ffd5b505af115801561170c573d5f5f3e3d5ffd5b505050505b5050611725565b611722838261237a565b90505b6008546001600160a01b03161580159061173e57505f82115b156117665761176161174e611cb5565b60085484906001600160a01b0316611d5f565b611773565b611770828261237a565b90505b8015611786576117863061dead83610bc0565b505050505050565b6001600160a01b0382165f90815260208181526040808320546011909252909120548115806117c5575067016345785d8a00008211155b156117e6575050506001600160a01b03165f90815260116020526040812055565b5f826117f285846123a4565b6117fc91906123bb565b905061180881836123da565b6001600160a01b0386165f90815260116020526040902081905567016345785d8a0000106107da57505050506001600160a01b03165f90815260116020526040812055565b305f90815260208190526040902054600d5481108061186e5750600f5460ff165b156118765750565b805f60646118858360146123a4565b61188f91906123bb565b90505f606461189f8460286123a4565b6118a991906123bb565b90505f60646118b98560146123a4565b6118c391906123bb565b90505f81836118d286886123da565b6118dc91906123da565b6118e691906123da565b6009549091506001600160a01b03161580159061190257505f84115b15611568576009546040516370a0823160e01b81526001600160a01b0391821660048201525f917f000000000000000000000000000000000000000000000000000000000000000016906370a0823190602401602060405180830381865afa158015611970573d5f5f3e3d5ffd5b505050506040513d601f19601f82011682018060405250810190611994919061238d565b90506119a161144a611cb5565b6009546040516370a0823160e01b81526001600160a01b0391821660048201525f9183917f0000000000000000000000000000000000000000000000000000000000000000909116906370a0823190602401602060405180830381865afa158015611a0e573d5f5f3e3d5ffd5b505050506040513d601f19601f82011682018060405250810190611a32919061238d565b611a3c91906123da565b90508015611561576009546040516315f5e8d760e31b81526001600160a01b039091169063afaf46b8906115339060019085906004016123ed565b7f00000000000000000000000000000000000000000000000000000000000000006001600160a01b0316826001600160a01b03161480611ae857507f00000000000000000000000000000000000000000000000000000000000000006001600160a01b0316826001600160a01b0316145b80611afd57506001600160a01b03821661dead145b80611b1057506001600160a01b03821630145b15611b1a57505050565b6001600160a01b0383165f90815260208190526040812054611b3d90839061237a565b6001600160a01b0385165f90815260116020526040902054909150801580611b63575081155b15611b6f575050505050565b5f82611b7b85846123a4565b611b8591906123bb565b9050805f03611b9657505050505050565b5f611ba182846123da565b905067016345785d8a00008111611bb557505f5b6001600160a01b038088165f9081526011602052604080822084905591881681529081208054849290611be990849061237a565b909155505050505050505050565b5f5f611c01611cb5565b60405163d06ca61f60e01b81529091506001600160a01b037f0000000000000000000000000000000000000000000000000000000000000000169063d06ca61f90611c52908690859060040161227e565b5f60405180830381865afa158015611c6c573d5f5f3e3d5ffd5b505050506040513d5f823e601f3d908101601f19168201604052611c93919081019061229e565b600181518110611ca557611ca5612227565b6020026020010151915050919050565b604080516002808252606080830184529260208301908036833701905050905030815f81518110611ce857611ce8612227565b60200260200101906001600160a01b031690816001600160a01b0316815250507f000000000000000000000000000000000000000000000000000000000000000081600181518110611d3c57611d3c612227565b60200260200101906001600160a01b031690816001600160a01b03168152505090565b815f03611d6b57505050565b600f805460ff19166001179055611da3307f000000000000000000000000000000000000000000000000000000000000000084610aa8565b604051635c11d79560e01b81526001600160a01b037f00000000000000000000000000000000000000000000000000000000000000001690635c11d79590611df79085905f90889087904290600401612417565b5f604051808303815f87803b158015611e0e575f5ffd5b505af1925050508015611e1f575060015b15611e6757604080516001600160a01b0383168152602081018490527faedb4dc54dc30d46d331ffcc44cd836607bea96c12e1b21a95210ed899184d04910160405180910390a15b5050600f805460ff1916905550565b6006545f906001600160a01b0316611e8d57505f90565b60065460405163e6a4390560e01b81526001600160a01b0391821660048201527f0000000000000000000000000000000000000000000000000000000000000000821660248201525f917f0000000000000000000000000000000000000000000000000000000000000000169063e6a4390590604401602060405180830381865afa158015611f1e573d5f5f3e3d5ffd5b505050506040513d601f19601f82011682018060405250810190611f429190612452565b90506001600160a01b038116611f59575f91505090565b5f816001600160a01b03166318160ddd6040518163ffffffff1660e01b8152600401602060405180830381865afa158015611f96573d5f5f3e3d5ffd5b505050506040513d601f19601f82011682018060405250810190611fba919061238d565b1191505090565b6040805160038082526080820190925260609160208201838036833701905050905030815f81518110611ff657611ff6612227565b60200260200101906001600160a01b031690816001600160a01b0316815250507f00000000000000000000000000000000000000000000000000000000000000008160018151811061204a5761204a612227565b6001600160a01b039283166020918202929092010152600654825191169082906002908110611d3c57611d3c612227565b602081525f82518060208401528060208501604085015e5f604082850101526040601f19601f83011684010191505092915050565b6001600160a01b0381168114610aa5575f5ffd5b5f5f604083850312156120d5575f5ffd5b82356120e0816120b0565b946020939093013593505050565b5f602082840312156120fe575f5ffd5b8135612109816120b0565b9392505050565b5f5f5f60608486031215612122575f5ffd5b833561212d816120b0565b9250602084013561213d816120b0565b929592945050506040919091013590565b5f5f6040838503121561215f575f5ffd5b50508035926020909101359150565b5f6020828403121561217e575f5ffd5b5035919050565b5f60208284031215612195575f5ffd5b81358015158114612109575f5ffd5b5f5f604083850312156121b5575f5ffd5b82356121c0816120b0565b915060208301356121d0816120b0565b809150509250929050565b600181811c908216806121ef57607f821691505b60208210810361220d57634e487b7160e01b5f52602260045260245ffd5b50919050565b634e487b7160e01b5f52604160045260245ffd5b634e487b7160e01b5f52603260045260245ffd5b5f8151808452602084019350602083015f5b828110156122745781516001600160a01b031686526020958601959091019060010161224d565b5093949350505050565b828152604060208201525f612296604083018461223b565b949350505050565b5f602082840312156122ae575f5ffd5b815167ffffffffffffffff8111156122c4575f5ffd5b8201601f810184136122d4575f5ffd5b805167ffffffffffffffff8111156122ee576122ee612213565b8060051b604051601f19603f830116810181811067ffffffffffffffff8211171561231b5761231b612213565b604052918252602081840181019290810187841115612338575f5ffd5b6020850194505b8385101561235b5784518082526020958601959093500161233f565b509695505050505050565b634e487b7160e01b5f52601160045260245ffd5b8082018082111561068357610683612366565b5f6020828403121561239d575f5ffd5b5051919050565b808202811582820484141761068357610683612366565b5f826123d557634e487b7160e01b5f52601260045260245ffd5b500490565b8181038181111561068357610683612366565b604081016004841061240d57634e487b7160e01b5f52602160045260245ffd5b9281526020015290565b85815284602082015260a060408201525f61243560a083018661223b565b6001600160a01b0394909416606083015250608001529392505050565b5f60208284031215612462575f5ffd5b8151612109816120b056fea2646970667358221220b62f8ec7611e0365b3803adcd8c929e0d3ce1c134d3290ca44a8ec36e66d2a7664736f6c634300081e0033","linkReferences":{}},"methodIdentifiers":{"DEAD()":"03fd2a45","PROFIT_NODE_TAX_RATE()":"0c355b47","PROFIT_SUBCOIN_TAX_RATE()":"416702c9","PROFIT_WALLET_TAX_RATE()":"fcb1138d","USDT()":"c54e44eb","allowance(address,address)":"dd62ed3e","allowlist(address)":"a7cd52cb","approve(address,uint256)":"095ea7b3","balanceOf(address)":"70a08231","buyRate()":"fc37987b","currentPrice()":"9d1b464a","decimals()":"313ce567","getHighestReserve()":"a5aff841","highestReserve()":"6cf77e9a","leo()":"42728ffd","name()":"06fdde03","nodeDividends()":"c7fb372f","openBuy()":"d4a67930","openSell()":"f1eae64a","owner()":"8da5cb5b","pancakeFactory()":"e0f1c9c5","pancakePair()":"b8c9d25c","pancakeRouter()":"c21ebd07","payback()":"854bec87","renounceOwnership()":"715018a6","sellRate()":"6217229b","setLeoAddr(address)":"1ffed978","setNodeDividends(address)":"8f011a28","setPaybackAddr(address)":"779193ea","setRate(uint256,uint256)":"46df2ccb","setTreasuryLiquidityAddr(address)":"a03b68b7","specialWithdraw(uint256)":"6f93b55c","swapThreshold()":"0445b667","switchBuy(bool)":"cf576cc7","switchSell(bool)":"ca77f99c","symbol()":"95d89b41","totalCostUsdt(address)":"60d1d4a4","totalSupply()":"18160ddd","transfer(address,uint256)":"a9059cbb","transferFrom(address,address,uint256)":"23b872dd","transferOwnership(address)":"f2fde38b","treasuryLiquidity()":"09fb6698","wallet()":"521eb273"},"id":67}