{"abi":[{"type":"constructor","inputs":[{"name":"_initialRecipient","type":"address","internalType":"address"},{"name":"_wallet","type":"address","internalType":"address"},{"name":"_USDT","type":"address","internalType":"address"}],"stateMutability":"nonpayable"},{"type":"function","name":"DEAD","inputs":[],"outputs":[{"name":"","type":"address","internalType":"address"}],"stateMutability":"view"},{"type":"function","name":"PROFIT_NODE_TAX_RATE","inputs":[],"outputs":[{"name":"","type":"uint256","internalType":"uint256"}],"stateMutability":"view"},{"type":"function","name":"PROFIT_SUBCOIN_TAX_RATE","inputs":[],"outputs":[{"name":"","type":"uint256","internalType":"uint256"}],"stateMutability":"view"},{"type":"function","name":"PROFIT_WALLET_TAX_RATE","inputs":[],"outputs":[{"name":"","type":"uint256","internalType":"uint256"}],"stateMutability":"view"},{"type":"function","name":"USDT","inputs":[],"outputs":[{"name":"","type":"address","internalType":"address"}],"stateMutability":"view"},{"type":"function","name":"allowance","inputs":[{"name":"owner","type":"address","internalType":"address"},{"name":"spender","type":"address","internalType":"address"}],"outputs":[{"name":"","type":"uint256","internalType":"uint256"}],"stateMutability":"view"},{"type":"function","name":"allowlist","inputs":[{"name":"","type":"address","internalType":"address"}],"outputs":[{"name":"","type":"bool","internalType":"bool"}],"stateMutability":"view"},{"type":"function","name":"approve","inputs":[{"name":"spender","type":"address","internalType":"address"},{"name":"value","type":"uint256","internalType":"uint256"}],"outputs":[{"name":"","type":"bool","internalType":"bool"}],"stateMutability":"nonpayable"},{"type":"function","name":"balanceOf","inputs":[{"name":"account","type":"address","internalType":"address"}],"outputs":[{"name":"","type":"uint256","internalType":"uint256"}],"stateMutability":"view"},{"type":"function","name":"buyRate","inputs":[],"outputs":[{"name":"","type":"uint256","internalType":"uint256"}],"stateMutability":"view"},{"type":"function","name":"currentPrice","inputs":[],"outputs":[{"name":"","type":"uint256","internalType":"uint256"}],"stateMutability":"view"},{"type":"function","name":"decimals","inputs":[],"outputs":[{"name":"","type":"uint8","internalType":"uint8"}],"stateMutability":"view"},{"type":"function","name":"getHighestReserve","inputs":[],"outputs":[{"name":"","type":"uint256","internalType":"uint256"}],"stateMutability":"view"},{"type":"function","name":"highestReserve","inputs":[],"outputs":[{"name":"","type":"uint256","internalType":"uint256"}],"stateMutability":"view"},{"type":"function","name":"issueBuyTaxFee","inputs":[],"outputs":[],"stateMutability":"nonpayable"},{"type":"function","name":"leo","inputs":[],"outputs":[{"name":"","type":"address","internalType":"address"}],"stateMutability":"view"},{"type":"function","name":"name","inputs":[],"outputs":[{"name":"","type":"string","internalType":"string"}],"stateMutability":"view"},{"type":"function","name":"nodeDividends","inputs":[],"outputs":[{"name":"","type":"address","internalType":"address"}],"stateMutability":"view"},{"type":"function","name":"openBuy","inputs":[],"outputs":[{"name":"","type":"bool","internalType":"bool"}],"stateMutability":"view"},{"type":"function","name":"openSell","inputs":[],"outputs":[{"name":"","type":"bool","internalType":"bool"}],"stateMutability":"view"},{"type":"function","name":"owner","inputs":[],"outputs":[{"name":"","type":"address","internalType":"address"}],"stateMutability":"view"},{"type":"function","name":"pancakeFactory","inputs":[],"outputs":[{"name":"","type":"address","internalType":"address"}],"stateMutability":"view"},{"type":"function","name":"pancakePair","inputs":[],"outputs":[{"name":"","type":"address","internalType":"address"}],"stateMutability":"view"},{"type":"function","name":"pancakeRouter","inputs":[],"outputs":[{"name":"","type":"address","internalType":"contract IUniswapV2Router02"}],"stateMutability":"view"},{"type":"function","name":"payback","inputs":[],"outputs":[{"name":"","type":"address","internalType":"address"}],"stateMutability":"view"},{"type":"function","name":"renounceOwnership","inputs":[],"outputs":[],"stateMutability":"nonpayable"},{"type":"function","name":"sellRate","inputs":[],"outputs":[{"name":"","type":"uint256","internalType":"uint256"}],"stateMutability":"view"},{"type":"function","name":"setAddrConfig","inputs":[{"name":"_treasuryLiquidity","type":"address","internalType":"address"},{"name":"_payback","type":"address","internalType":"address"},{"name":"_nodeDividends","type":"address","internalType":"address"},{"name":"_leo","type":"address","internalType":"address"}],"outputs":[],"stateMutability":"nonpayable"},{"type":"function","name":"setAllowlist","inputs":[{"name":"addrs","type":"address[]","internalType":"address[]"},{"name":"isAllow","type":"bool","internalType":"bool"}],"outputs":[],"stateMutability":"nonpayable"},{"type":"function","name":"setRate","inputs":[{"name":"_buy","type":"uint256","internalType":"uint256"},{"name":"_sell","type":"uint256","internalType":"uint256"}],"outputs":[],"stateMutability":"nonpayable"},{"type":"function","name":"specialWithdraw","inputs":[{"name":"amount","type":"uint256","internalType":"uint256"}],"outputs":[],"stateMutability":"nonpayable"},{"type":"function","name":"swapThreshold","inputs":[],"outputs":[{"name":"","type":"uint256","internalType":"uint256"}],"stateMutability":"view"},{"type":"function","name":"switchBuy","inputs":[{"name":"_b","type":"bool","internalType":"bool"}],"outputs":[],"stateMutability":"nonpayable"},{"type":"function","name":"switchSell","inputs":[{"name":"_b","type":"bool","internalType":"bool"}],"outputs":[],"stateMutability":"nonpayable"},{"type":"function","name":"symbol","inputs":[],"outputs":[{"name":"","type":"string","internalType":"string"}],"stateMutability":"view"},{"type":"function","name":"totalCostUsdt","inputs":[{"name":"","type":"address","internalType":"address"}],"outputs":[{"name":"","type":"uint256","internalType":"uint256"}],"stateMutability":"view"},{"type":"function","name":"totalSupply","inputs":[],"outputs":[{"name":"","type":"uint256","internalType":"uint256"}],"stateMutability":"view"},{"type":"function","name":"transfer","inputs":[{"name":"to","type":"address","internalType":"address"},{"name":"value","type":"uint256","internalType":"uint256"}],"outputs":[{"name":"","type":"bool","internalType":"bool"}],"stateMutability":"nonpayable"},{"type":"function","name":"transferFrom","inputs":[{"name":"from","type":"address","internalType":"address"},{"name":"to","type":"address","internalType":"address"},{"name":"value","type":"uint256","internalType":"uint256"}],"outputs":[{"name":"","type":"bool","internalType":"bool"}],"stateMutability":"nonpayable"},{"type":"function","name":"transferOwnership","inputs":[{"name":"newOwner","type":"address","internalType":"address"}],"outputs":[],"stateMutability":"nonpayable"},{"type":"function","name":"treasuryLiquidity","inputs":[],"outputs":[{"name":"","type":"address","internalType":"address"}],"stateMutability":"view"},{"type":"function","name":"wallet","inputs":[],"outputs":[{"name":"","type":"address","internalType":"address"}],"stateMutability":"view"},{"type":"event","name":"Approval","inputs":[{"name":"owner","type":"address","indexed":true,"internalType":"address"},{"name":"spender","type":"address","indexed":true,"internalType":"address"},{"name":"value","type":"uint256","indexed":false,"internalType":"uint256"}],"anonymous":false},{"type":"event","name":"OwnershipTransferred","inputs":[{"name":"previousOwner","type":"address","indexed":true,"internalType":"address"},{"name":"newOwner","type":"address","indexed":true,"internalType":"address"}],"anonymous":false},{"type":"event","name":"SwapAndSendTax","inputs":[{"name":"recipient","type":"address","indexed":false,"internalType":"address"},{"name":"tokensSwapped","type":"uint256","indexed":false,"internalType":"uint256"}],"anonymous":false},{"type":"event","name":"Transfer","inputs":[{"name":"from","type":"address","indexed":true,"internalType":"address"},{"name":"to","type":"address","indexed":true,"internalType":"address"},{"name":"value","type":"uint256","indexed":false,"internalType":"uint256"}],"anonymous":false},{"type":"error","name":"ERC20InsufficientAllowance","inputs":[{"name":"spender","type":"address","internalType":"address"},{"name":"allowance","type":"uint256","internalType":"uint256"},{"name":"needed","type":"uint256","internalType":"uint256"}]},{"type":"error","name":"ERC20InsufficientBalance","inputs":[{"name":"sender","type":"address","internalType":"address"},{"name":"balance","type":"uint256","internalType":"uint256"},{"name":"needed","type":"uint256","internalType":"uint256"}]},{"type":"error","name":"ERC20InvalidApprover","inputs":[{"name":"approver","type":"address","internalType":"address"}]},{"type":"error","name":"ERC20InvalidReceiver","inputs":[{"name":"receiver","type":"address","internalType":"address"}]},{"type":"error","name":"ERC20InvalidSender","inputs":[{"name":"sender","type":"address","internalType":"address"}]},{"type":"error","name":"ERC20InvalidSpender","inputs":[{"name":"spender","type":"address","internalType":"address"}]},{"type":"error","name":"OwnableInvalidOwner","inputs":[{"name":"owner","type":"address","internalType":"address"}]},{"type":"error","name":"OwnableUnauthorizedAccount","inputs":[{"name":"account","type":"address","internalType":"address"}]}],"bytecode":{"object":"0x61010080604052346103715760608161396c803803809161002082856105dc565b83398101031261037157610033816105ff565b61004b6040610044602085016105ff565b93016105ff565b91610054610613565b9261005d610613565b845190946001600160401b0382116104df5760035490600182811c921680156105d2575b60208310146104c15781601f849311610564575b50602090601f83116001146104fe575f926104f3575b50508160011b915f199060031b1c1916176003555b83516001600160401b0381116104df57600454600181811c911680156104d5575b60208210146104c157601f811161045e575b50602094601f82116001146103fb579481929394955f926103f0575b50508160011b915f199060031b1c1916176004555b33156103dd5760058054336001600160a01b0319821681179092556001600160a01b03167f8be0079c531659141344cd1fd0a4f28419497f9722a3daafe3b4186f6b6457e05f80a36005600b819055600c55678ac7230489e80000600d556001600160a01b0383169283156103ca5761019c90610694565b7310ed43c718714eb63d5aa57b78b54704e256024e60805260e05260018060a01b0316908160018060a01b0319600854161760085560405163c45a015560e01b81526020816004817310ed43c718714eb63d5aa57b78b54704e256024e5afa90811561037d575f91610388575b5060a081905260e0516040516364e329cb60e11b81523060048201526001600160a01b039091166024820152906020908290815f81604481015b03926001600160a01b03165af190811561037d575f9161033f575b5060c0525f52601060205260405f20600160ff198254161790555f52601060205260405f20600160ff1982541617905560405161222b9081611721823960805181818161058a0152818161107101528181611d4c01528181611e5101528181611f7801526120ac015260a0518181816103eb0152611c52015260c0518181816105ce015281816109c00152818161165c015281816119e201528181611a7301528181611edd01526121a6015260e0518181816105460152818161100f015281816111c4015281816114b2015281816115f401528181611ad30152611c200152f35b90506020813d602011610375575b8161035a602093836105dc565b810103126103715761036b906105ff565b5f61025e565b5f80fd5b3d915061034d565b6040513d5f823e3d90fd5b90506020813d6020116103c2575b816103a3602093836105dc565b810103126103715760206102436103ba5f936105ff565b925050610209565b3d9150610396565b63ec442f0560e01b5f525f60045260245ffd5b631e4fbdf760e01b5f525f60045260245ffd5b015190505f8061010f565b601f1982169560045f52805f20915f5b8881106104465750836001959697981061042e575b505050811b01600455610124565b01515f1960f88460031b161c191690555f8080610420565b9192602060018192868501518155019401920161040b565b60045f527f8a35acfbc15ff81a39ae7d344fd709f28e8600b4aa8c65c6b64bfe7fe36bd19b601f830160051c810191602084106104b7575b601f0160051c01905b8181106104ac57506100f3565b5f815560010161049f565b9091508190610496565b634e487b7160e01b5f52602260045260245ffd5b90607f16906100e1565b634e487b7160e01b5f52604160045260245ffd5b015190505f806100ab565b60035f9081528281209350601f198516905b81811061054c5750908460019594939210610534575b505050811b016003556100c0565b01515f1960f88460031b161c191690555f8080610526565b92936020600181928786015181550195019301610510565b60035f529091507fc2575a0e9e593c00f959f8c92f12db2869c3395a3b0502d05e2516446f71f85b601f840160051c810191602085106105c8575b90601f859493920160051c01905b8181106105ba5750610095565b5f81558493506001016105ad565b909150819061059f565b91607f1691610081565b601f909101601f19168101906001600160401b038211908210176104df57604052565b51906001600160a01b038216820361037157565b60408051919082016001600160401b038111838210176104df5760405260038252620988ab60eb1b6020830152565b8181029291811591840414171561065557565b634e487b7160e01b5f52601160045260245ffd5b8115610673570490565b634e487b7160e01b5f52601260045260245ffd5b9190820391821161065557565b60e0515f906001600160a01b031680151580610c4d575b610bd2575b5060ff600f54168015610bca575b8015610bb9575b8015610b86575b8015610b65575b610b4e5760c0516001600160a01b03168015610ac1576001600160a01b0383161461087c5730815280602052604081205460288102818104602814821517156108685761072a91606461072f920492838092610687565b610687565b600954909183916001600160a01b03168015158061085f575b156108395761076e9061075961138b565b60e0516001600160a01b0316919084906113cb565b806107cc575b50916107a361079d6a115eec47f6cf7e3500000095936107976107ba9896611270565b90610c61565b91611364565b806107bc575b506107b5838383610d12565b61107f565b565b6107c69030610c6e565b5f6107a9565b6009546001600160a01b031690813b156108355785916044839260405194859384926315f5e8d760e31b84526001600485015260248401525af1801561082a57156107745761081c8580926105dc565b610826575f610774565b8380fd5b6040513d87823e3d90fd5b8580fd5b506a115eec47f6cf7e35000000939150916107a361079d846107976107ba989691611270565b50811515610748565b634e487b7160e01b83526011600452602483fd5b919060ff600f5460101c1615610a8c57600c546a115eec47f6cf7e35000000919082810290838204036106555760649004808303838111610655576108c1815f610f0b565b9182158015610957575b506108d7813089610d12565b602881028181046028148215171561094357926107ba9697949261072a61091b61079d61091161092796606461092e9a0494858092610687565b9261079781611270565b80610933575b50610687565b9083610d12565b610fe0565b61093d9030610c6e565b5f610921565b634e487b7160e01b88526011600452602488fd5b61096284305f610d12565b60058402848104600514821715610655576019900490600a850290858204600a14171561065557601990049061099c8261072a8388610687565b60095490925f9290916001600160a01b031680151580610a83575b15610a7057906109dc916109c961138b565b60e0516001600160a01b031692906113cb565b80610a09575b506109f39161079761079d92611270565b80156108cb57610a039030610c6e565b5f6108cb565b6009546001600160a01b031690813b15610371575f916044839260405194859384926315f5e8d760e31b84526002600485015260248401525af1801561037d57156109e25761079d919a5091610a625f6109f3946105dc565b6107975f9b925050916109e2565b506109f3925061079d9161079790611270565b508115156109b7565b60405162461bcd60e51b815260206004820152600d60248201526c14d1531317d11254d050931151609a1b6044820152606490fd5b505060ff600f5460081c1615610b1a57600b546a115eec47f6cf7e3500000090818102908282040361065557606490049182820391821161065557610b146107ba93610b0d8484610dca565b305f610d12565b5f610d12565b60405162461bcd60e51b815260206004820152600c60248201526b10955657d11254d05093115160a21b6044820152606490fd5b506a115eec47f6cf7e350000006107ba915f610d12565b506001600160a01b0382165f9081526010602052604090205460ff166106d3565b505f805260106020527f6e0956cda88cad152e89927e53611735b61a5c762d1428573c6931b0a5efcb015460ff166106cc565b506001600160a01b038216156106c5565b5060016106be565b602060018060a01b0360c051166024604051809481936370a0823160e01b835260048301525afa90811561037d575f91610c1b575b50600e548111156106b057600e555f6106b0565b90506020813d602011610c45575b81610c36602093836105dc565b8101031261037157515f610c07565b3d9150610c29565b5060c0516001600160a01b031615156106ab565b9190820180921161065557565b9091906001600160a01b031680610cbd575f51602061394c5f395f51905f52602084610ca061dead9596600254610c61565b6002555b845f525f825260405f20818154019055604051908152a3565b805f525f60205260405f2054838110610cf85760208461dead94955f51602061394c5f395f51905f5293855f525f84520360405f2055610ca4565b915063391434e360e21b5f5260045260245260445260645ffd5b6001600160a01b03169081610d785760205f51602061394c5f395f51905f5291610d3e85600254610c61565b6002555b6001600160a01b03169384610d635780600254036002555b604051908152a3565b845f525f825260405f20818154019055610d5a565b815f525f60205260405f2054838110610daf575f51602061394c5f395f51905f529184602092855f525f84520360405f2055610d42565b91905063391434e360e21b5f5260045260245260445260645ffd5b6080516001600160a01b0391821692911682148015610ef7575b8015610eec575b8015610ee3575b610edf57610e72905f604051610e096060826105dc565b60028152604036602083013730610e1f8261117f565b5260e0516001600160a01b0316610e35826111a0565b5260018060a01b0360805116604051808096819463d06ca61f60e01b8352670de0b6b3a76400006004840152604060248401526044830190611234565b03915afa90811561037d57610e9b610ea192670de0b6b3a7640000945f91610ebd575b506111a0565b51610642565b04905f526011602052610eb960405f20918254610c61565b9055565b610ed991503d805f833e610ed181836105dc565b8101906111b0565b5f610e95565b5050565b50308214610df2565b5061dead8214610deb565b5060c0516001600160a01b03168214610de4565b610f3f9060018060a01b0316805f526011602052610f2d8360405f2054610642565b905f525f60205260405f205490610669565b610f7f5f610f4b61138b565b60018060a01b0360805116604051808095819463d06ca61f60e01b8352896004840152604060248401526044830190611234565b03915afa801561037d57610f99915f91610ebd57506111a0565b519080821115610fd957610fbf92610fb4610fba9284610687565b90610642565b610669565b601981029080820460191490151715610655576064900490565b5050505f90565b6001600160a01b03165f818152602081815260408083205460119092529091205491929091908215801561106d575b61105b5761102a92610fba6110249284610642565b90610687565b5f82815260116020526040902081905567016345785d8a0000101561104c5750565b5f5260116020525f6040812055565b5050505f5260116020525f6040812055565b5067016345785d8a000083111561100f565b6080516001600160a01b0392831692168214801561116b575b8015611160575b8015611157575b6111525760018060a01b0316805f525f6020526110c78360405f2054610c61565b92815f52601160205260405f2054938415801561114a575b61114357610fba6110f09286610642565b92831561113d578361110191610687565b9067016345785d8a0000821115611135575b5f52601160205260405f20555f526011602052610eb960405f20918254610c61565b5f9150611113565b50505050565b5050505050565b5080156110df565b505050565b503082146110a6565b5061dead821461109f565b5060c0516001600160a01b03168214611098565b80511561118c5760200190565b634e487b7160e01b5f52603260045260245ffd5b80516001101561118c5760400190565b602081830312610371578051906001600160401b03821161037157019080601f83011215610371578151916001600160401b0383116104df578260051b90602082019361120060405195866105dc565b845260208085019282010192831161037157602001905b8282106112245750505090565b8151815260209182019101611217565b90602080835192838152019201905f5b8181106112515750505090565b82516001600160a01b0316845260209384019390920191600101611244565b600a545f92916001600160a01b039091169081151580611356575b8061134d575b1561134857604051916112a56080846105dc565b600383526060366020850137306112bb8461117f565b5260e0516001600160a01b03166112d1846111a0565b5260018060a01b03600654169183516002101561118c57838360606112f79601526113cb565b80611300575b50565b600a546001600160a01b031690813b15610371575f9160248392604051948593849263cc430ced60e01b845260048401525af1801561037d57156112fd575f6107ba916105dc565b925050565b50801515611291565b5061135f6114bb565b61128b565b8061136c5750565b6107ba9061137861138b565b6008546001600160a01b031691906115c1565b6040519061139a6060836105dc565b60028252604036602084013781306113b18261117f565b5260e0516001600160a01b0316906113c8906111a0565b52565b6040516370a0823160e01b81526001600160a01b038481166004830181905295169490929091602084602481895afa93841561037d575f9461147f575b509361141791602094956115c1565b6024604051809581936370a0823160e01b835260048301525afa801561037d575f9061144b575b6114489250610687565b90565b506020823d602011611477575b81611465602093836105dc565b8101031261037157611448915161143e565b3d9150611458565b919350936020823d6020116114b3575b8161149c602093836105dc565b810103126103715790519093909290611417611408565b3d915061148f565b6006546001600160a01b031680156115825760a05160e05160405163e6a4390560e01b81526001600160a01b03938416600482015290831660248201529160209183916044918391165afa90811561037d575f91611587575b506001600160a01b03168015611582576020600491604051928380926318160ddd60e01b82525afa90811561037d575f91611550575b50151590565b90506020813d60201161157a575b8161156b602093836105dc565b8101031261037157515f61154a565b3d915061155e565b505f90565b90506020813d6020116115b9575b816115a2602093836105dc565b81010312610371576115b3906105ff565b5f611514565b3d9150611595565b811561115257600f805460ff191660011790556080516001600160a01b0316301561170d5780156116fa57305f52600160205260405f20815f526020528260405f20556040518381527f8c5be1e5ebec7d5bd14f71427d1e84f3dd0314c0f7b2291e5b200ac8c7c3b92560203092a36080516001600160a01b0316803b156103715761167b5f92918392604051948580948193635c11d79560e01b835289600484015283602484015260a0604484015260a4830190611234565b6001600160a01b03909916606482018190524260848301529803925af190816116ea575b506116b3575b505060ff19600f5416600f55565b7faedb4dc54dc30d46d331ffcc44cd836607bea96c12e1b21a95210ed899184d049160409182519182526020820152a15f806116a5565b5f6116f4916105dc565b5f61169f565b634a1406b160e11b5f525f60045260245ffd5b63e602df0560e01b5f525f60045260245ffdfe6080806040526004361015610012575f80fd5b5f5f3560e01c91826303fd2a4514610e0c575081630445b66714610def578163056b080b14610dcf57816306fdde0314610cdb578163095ea7b314610cb557816309fb669814610c8d5781630c355b4714610c7257816318160ddd14610c5557816323b872dd14610b76578163313ce56714610b5b578163416702c9146101ec57816342728ffd14610b3357816346df2ccb14610b0c578163521eb27314610ae457816360d1d4a414610aac5781636217229b14610a8f5781636cf77e9a14610a725781636f93b55c1461099657816370a082311461095f578163715018a61461090357816372207cc314610803578163854bec87146107db5781638da5cb5b146107b357816395d89b41146106ab5781639d1b464a14610689578163a5aff8411461066c578163a7cd52cb1461062e578163a9059cbb146105fd578163b8c9d25c146105b9578163c21ebd0714610575578163c54e44eb14610531578163c7fb372f14610509578163ca77f99c146104cc578163cf576cc714610491578163d4a679301461046c578163dd62ed3e1461041a578163e0f1c9c5146103d6578163f01fe7c4146102be578163f1eae64a14610299578163f2fde38b14610211578163fc37987b146101f1575063fcb1138d146101ec575f80fd5b610e7c565b3461020e578060031936011261020e576020600b54604051908152f35b80fd5b3461020e57602036600319011261020e5761022a610e50565b6102326110d8565b6001600160a01b0316801561028557600580546001600160a01b0319811683179091556001600160a01b03167f8be0079c531659141344cd1fd0a4f28419497f9722a3daafe3b4186f6b6457e08380a380f35b631e4fbdf760e01b82526004829052602482fd5b3461020e578060031936011261020e57602060ff600f5460101c166040519015158152f35b3461020e57604036600319011261020e5760043567ffffffffffffffff81116103d257366023820112156103d25780600401356102fa81610edc565b916103086040519384610ea6565b8183526024602084019260051b820101903682116103ce57602401915b8183106103aa57505050602435908115158092036103a657906103466110d8565b60ff16825b82518110156103a257825181101561038e576020600582901b84018101516001600160a01b031685526010905260408420805460ff19168317905560010161034b565b634e487b7160e01b84526032600452602484fd5b8380f35b8280fd5b82356001600160a01b03811681036103ca57815260209283019201610325565b8580fd5b8480fd5b5080fd5b3461020e578060031936011261020e576040517f00000000000000000000000000000000000000000000000000000000000000006001600160a01b03168152602090f35b3461020e57604036600319011261020e576040610435610e50565b9161043e610e66565b9260018060a01b031681526001602052209060018060a01b03165f52602052602060405f2054604051908152f35b3461020e578060031936011261020e57602060ff600f5460081c166040519015158152f35b3461020e57602036600319011261020e576104aa610e97565b6104b26110d8565b61ff00600f5491151560081b169061ff00191617600f5580f35b3461020e57602036600319011261020e576104e5610e97565b6104ed6110d8565b62ff0000600f5491151560101b169062ff0000191617600f5580f35b3461020e578060031936011261020e576009546040516001600160a01b039091168152602090f35b3461020e578060031936011261020e576040517f00000000000000000000000000000000000000000000000000000000000000006001600160a01b03168152602090f35b3461020e578060031936011261020e576040517f00000000000000000000000000000000000000000000000000000000000000006001600160a01b03168152602090f35b3461020e578060031936011261020e576040517f00000000000000000000000000000000000000000000000000000000000000006001600160a01b03168152602090f35b3461020e57604036600319011261020e57610623610619610e50565b60243590336112a8565b602060405160018152f35b3461020e57602036600319011261020e5760209060ff906040906001600160a01b03610658610e50565b168152601084522054166040519015158152f35b3461020e578060031936011261020e576020600e54604051908152f35b3461020e578060031936011261020e5760206106a3610fdb565b604051908152f35b3461020e578060031936011261020e576040519080600454908160011c916001811680156107a9575b6020841081146107955783865290811561076e5750600114610711575b61070d8461070181860382610ea6565b60405191829182610e26565b0390f35b600481527f8a35acfbc15ff81a39ae7d344fd709f28e8600b4aa8c65c6b64bfe7fe36bd19b939250905b80821061075457509091508101602001610701826106f1565b91926001816020925483858801015201910190929161073b565b60ff191660208087019190915292151560051b8501909201925061070191508390506106f1565b634e487b7160e01b83526022600452602483fd5b92607f16926106d4565b3461020e578060031936011261020e576005546040516001600160a01b039091168152602090f35b3461020e578060031936011261020e57600a546040516001600160a01b039091168152602090f35b3461020e57608036600319011261020e5761081c610e50565b610824610e66565b6044356001600160a01b0381169291908390036108ff576064356001600160a01b03811692908390036103ce576108596110d8565b60018060a01b031690816001600160601b0360a01b600754161760075560018060a01b031691826001600160601b0360a01b600a541617600a55836001600160601b0360a01b60095416176009556001600160601b0360a01b60065416176006558352601060205260408320600160ff198254161790558252601060205260408220600160ff198254161790558152601060205260408120600160ff1982541617905580f35b8380fd5b3461020e578060031936011261020e5761091b6110d8565b600580546001600160a01b0319811690915581906001600160a01b03167f8be0079c531659141344cd1fd0a4f28419497f9722a3daafe3b4186f6b6457e08280a380f35b3461020e57602036600319011261020e576020906040906001600160a01b03610986610e50565b1681528083522054604051908152f35b34610a39576020366003190112610a39576007546001600160a01b031633819003610a3d576109ea7f000000000000000000000000000000000000000000000000000000000000000091600435908361139b565b6001600160a01b0316803b15610a39575f809160046040518094819363fff6cae960e01b83525af18015610a2e57610a20575080f35b610a2c91505f90610ea6565b005b6040513d5f823e3d90fd5b5f80fd5b60405162461bcd60e51b815260206004820152600d60248201526c2727afa822a926a4a9a9a4a7a760991b6044820152606490fd5b34610a39575f366003190112610a39576020600e54604051908152f35b34610a39575f366003190112610a39576020600c54604051908152f35b34610a39576020366003190112610a39576001600160a01b03610acd610e50565b165f526011602052602060405f2054604051908152f35b34610a39575f366003190112610a39576008546040516001600160a01b039091168152602090f35b34610a39576040366003190112610a3957610b256110d8565b600435600b55602435600c55005b34610a39575f366003190112610a39576006546040516001600160a01b039091168152602090f35b34610a39575f366003190112610a3957602060405160128152f35b34610a39576060366003190112610a3957610b8f610e50565b610b97610e66565b6001600160a01b0382165f818152600160209081526040808320338452909152902054909260443592915f198110610bd5575b5061062393506112a8565b838110610c3a578415610c27573315610c1457610623945f52600160205260405f2060018060a01b0333165f526020528360405f209103905584610bca565b634a1406b160e11b5f525f60045260245ffd5b63e602df0560e01b5f525f60045260245ffd5b8390637dc7a0d960e11b5f523360045260245260445260645ffd5b34610a39575f366003190112610a39576020600254604051908152f35b34610a39575f366003190112610a3957602060405160058152f35b34610a39575f366003190112610a39576007546040516001600160a01b039091168152602090f35b34610a39576040366003190112610a3957610623610cd1610e50565b602435903361158a565b34610a39575f366003190112610a39576040515f6003548060011c90600181168015610dc5575b602083108114610db157828552908115610d8d5750600114610d2f575b61070d8361070181850382610ea6565b91905060035f527fc2575a0e9e593c00f959f8c92f12db2869c3395a3b0502d05e2516446f71f85b915f905b808210610d7357509091508101602001610701610d1f565b919260018160209254838588010152019101909291610d5b565b60ff191660208086019190915291151560051b840190910191506107019050610d1f565b634e487b7160e01b5f52602260045260245ffd5b91607f1691610d02565b34610a39575f366003190112610a3957610de76110d8565b610a2c61115e565b34610a39575f366003190112610a39576020600d54604051908152f35b34610a39575f366003190112610a39578061dead60209252f35b602060409281835280519182918282860152018484015e5f828201840152601f01601f1916010190565b600435906001600160a01b0382168203610a3957565b602435906001600160a01b0382168203610a3957565b34610a39575f366003190112610a39576020604051600a8152f35b600435908115158203610a3957565b90601f8019910116810190811067ffffffffffffffff821117610ec857604052565b634e487b7160e01b5f52604160045260245ffd5b67ffffffffffffffff8111610ec85760051b60200190565b805115610f015760200190565b634e487b7160e01b5f52603260045260245ffd5b805160011015610f015760400190565b602081830312610a395780519067ffffffffffffffff8211610a3957019080601f83011215610a39578151610f5981610edc565b92610f676040519485610ea6565b81845260208085019260051b820101928311610a3957602001905b828210610f8f5750505090565b8151815260209182019101610f82565b90602080835192838152019201905f5b818110610fbc5750505090565b82516001600160a01b0316845260209384019390920191600101610faf565b61106d5f604051610fed606082610ea6565b6002815260403660208301373061100382610ef4565b5261100d81610f15565b7f00000000000000000000000000000000000000000000000000000000000000006001600160a01b031690526040805163d06ca61f60e01b8152670de0b6b3a7640000600482015260248101919091529283918291906044830190610f9f565b03817f00000000000000000000000000000000000000000000000000000000000000006001600160a01b03165afa8015610a2e576110b2915f916110b6575b50610f15565b5190565b6110d291503d805f833e6110ca8183610ea6565b810190610f25565b5f6110ac565b6005546001600160a01b031633036110ec57565b63118cdaa760e01b5f523360045260245ffd5b8181029291811591840414171561111257565b634e487b7160e01b5f52601160045260245ffd5b8115611130570490565b634e487b7160e01b5f52601260045260245ffd5b9190820391821161111257565b9190820180921161111257565b305f525f60205260405f2054602881028181046028148215171561111257611190916064611195920492838092611144565b611144565b6009549091905f906001600160a01b03168015158061129f575b1561128c576111e9906111c0611aa2565b90847f000000000000000000000000000000000000000000000000000000000000000092611aff565b80611220575b506112069061120061120c93611453565b90611151565b91611563565b806112145750565b61121e90306112f7565b565b6009546001600160a01b03169190823b15610a39575f926044849260405195869384926315f5e8d760e31b84526001600485015260248401525af18015610a2e5761120c93611206936112009261127c575b50935050906111ef565b5f61128691610ea6565b5f611272565b50506112068161120061120c9391611453565b508215156111af565b91906001600160a01b038316156112e4576001600160a01b038116156112d15761121e926115ed565b63ec442f0560e01b5f525f60045260245ffd5b634b637e8f60e11b5f525f60045260245ffd5b9091906001600160a01b031680611346575f5160206121d65f395f51905f5260208461132961dead9596600254611151565b6002555b845f525f825260405f20818154019055604051908152a3565b805f525f60205260405f20548381106113815760208461dead94955f5160206121d65f395f51905f5293855f525f84520360405f205561132d565b915063391434e360e21b5f5260045260245260445260645ffd5b6001600160a01b031690816114015760205f5160206121d65f395f51905f52916113c785600254611151565b6002555b6001600160a01b031693846113ec5780600254036002555b604051908152a3565b845f525f825260405f208181540190556113e3565b815f525f60205260405f2054838110611438575f5160206121d65f395f51905f529184602092855f525f84520360405f20556113cb565b91905063391434e360e21b5f5260045260245260445260645ffd5b600a545f92916001600160a01b039091169081151580611555575b8061154c575b156115475760405191611488608084610ea6565b6003835260603660208501373061149e84610ef4565b526114a883610f15565b6001600160a01b037f0000000000000000000000000000000000000000000000000000000000000000811690915260065484519116929060021015610f0157838360606114f6960152611aff565b806114ff575b50565b600a546001600160a01b031690813b15610a39575f9160248392604051948593849263cc430ced60e01b845260048401525af18015610a2e57156114fc575f61121e91610ea6565b925050565b50801515611474565b5061155e611bef565b61146e565b8061156b5750565b61121e90611577611aa2565b6008546001600160a01b03169190611d37565b6001600160a01b0316908115610c27576001600160a01b0316918215610c145760207f8c5be1e5ebec7d5bd14f71427d1e84f3dd0314c0f7b2291e5b200ac8c7c3b92591835f526001825260405f20855f5282528060405f2055604051908152a3565b5f939291907f00000000000000000000000000000000000000000000000000000000000000006001600160a01b03811680151580611a70575b6119d3575b5060ff600f541680156119c2575b80156119b1575b8015611990575b801561196f575b611963576001600160a01b037f0000000000000000000000000000000000000000000000000000000000000000811690831681146118e5576001600160a01b038416146116b4575061121e9394506116a461115e565b6116af83838361139b565b61209e565b60ff600f9392935460101c16156118b05760646116d3600c54866110ff565b046116de8186611144565b906116e98286611f0c565b9283158015611781575b505061170081308761139b565b602881028181046028148215171561176d579161175894939161174561120661173b61121e9b9c611190606461175199048096819350611144565b9261120081611453565b8061175d575b50611144565b908361139b565b611fff565b61176790306112f7565b5f61174b565b634e487b7160e01b89526011600452602489fd5b61178c85308961139b565b60058502858104600514821715611112576019900490600a860290868204600a1417156111125760199004916117c6836111908489611144565b60095490935f9290916001600160a01b0316801515806118a7575b15611893576117f99293946117f4611aa2565b611aff565b8061182c575b506118109161120061120692611453565b8061181c575b806116f3565b61182690306112f7565b5f611816565b6009546001600160a01b031690813b15610a39575f916044839260405194859384926315f5e8d760e31b84526002600485015260248401525af18015610a2e57156117ff57611206919b50916118855f61181094610ea6565b6112005f9c925050916117ff565b505061120691506112006118109391611453565b508415156117e1565b60405162461bcd60e51b815260206004820152600d60248201526c14d1531317d11254d050931151609a1b6044820152606490fd5b505092935060ff600f5460081c161561192f5761121e9261192a6119186064611910600b54876110ff565b048095611144565b936119238585611e42565b308361139b565b61139b565b60405162461bcd60e51b815260206004820152600c60248201526b10955657d11254d05093115160a21b6044820152606490fd5b5061121e93945061139b565b506001600160a01b0383165f9081526010602052604090205460ff1661164e565b506001600160a01b0382165f9081526010602052604090205460ff16611647565b506001600160a01b03831615611640565b506001600160a01b03821615611639565b6040516370a0823160e01b81527f00000000000000000000000000000000000000000000000000000000000000006001600160a01b0316600482015290602090829060249082905afa908115610a2e575f91611a3e575b50600e5481111561162b57600e555f61162b565b90506020813d602011611a68575b81611a5960209383610ea6565b81010312610a3957515f611a2a565b3d9150611a4c565b507f00000000000000000000000000000000000000000000000000000000000000006001600160a01b03161515611626565b60405190611ab1606083610ea6565b600282526040366020840137611ad18230611acb82610ef4565b52610f15565b7f00000000000000000000000000000000000000000000000000000000000000006001600160a01b03169052565b6040516370a0823160e01b81526001600160a01b038481166004830181905295169490929091602084602481895afa938415610a2e575f94611bb3575b5093611b4b9160209495611d37565b6024604051809581936370a0823160e01b835260048301525afa8015610a2e575f90611b7f575b611b7c9250611144565b90565b506020823d602011611bab575b81611b9960209383610ea6565b81010312610a3957611b7c9151611b72565b3d9150611b8c565b919350936020823d602011611be7575b81611bd060209383610ea6565b81010312610a395790519093909290611b4b611b3c565b3d9150611bc3565b6006546001600160a01b03168015611cf05760405163e6a4390560e01b815260048101919091526001600160a01b037f000000000000000000000000000000000000000000000000000000000000000081166024830152602090829060449082907f0000000000000000000000000000000000000000000000000000000000000000165afa908115610a2e575f91611cf5575b506001600160a01b03168015611cf0576020600491604051928380926318160ddd60e01b82525afa908115610a2e575f91611cbe575b50151590565b90506020813d602011611ce8575b81611cd960209383610ea6565b81010312610a3957515f611cb8565b3d9150611ccc565b505f90565b90506020813d602011611d2f575b81611d1060209383610ea6565b81010312610a3957516001600160a01b0381168103610a39575f611c82565b3d9150611d03565b8115611e3d57600f805460ff191660011790557f00000000000000000000000000000000000000000000000000000000000000006001600160a01b0316611d7f83823061158a565b803b15610a3957611dbe5f92918392604051948580948193635c11d79560e01b835289600484015283602484015260a0604484015260a4830190610f9f565b6001600160a01b03909916606482018190524260848301529803925af19081611e2d575b50611df6575b505060ff19600f5416600f55565b7faedb4dc54dc30d46d331ffcc44cd836607bea96c12e1b21a95210ed899184d049160409182519182526020820152a15f80611de8565b5f611e3791610ea6565b5f611de2565b505050565b6001600160a01b0390811691907f00000000000000000000000000000000000000000000000000000000000000001682148015611eda575b8015611ecf575b8015611ec6575b611ec257611ea6670de0b6b3a764000091611ea1610fdb565b6110ff565b04905f526011602052611ebe60405f20918254611151565b9055565b5050565b50308214611e88565b5061dead8214611e81565b507f00000000000000000000000000000000000000000000000000000000000000006001600160a01b03168214611e7a565b611f409060018060a01b0316805f526011602052611f2e8360405f20546110ff565b905f525f60205260405f205490611126565b611f745f611f4c611aa2565b6040518093819263d06ca61f60e01b8352876004840152604060248401526044830190610f9f565b03817f00000000000000000000000000000000000000000000000000000000000000006001600160a01b03165afa8015610a2e57611fb8915f916110b65750610f15565b519080821115611ff857611fde92611fd3611fd99284611144565b906110ff565b611126565b601981029080820460191490151715611112576064900490565b5050505f90565b6001600160a01b03165f818152602081815260408083205460119092529091205491929091908215801561208c575b61207a5761204992611fd961204392846110ff565b90611144565b5f82815260116020526040902081905567016345785d8a0000101561206b5750565b5f5260116020525f6040812055565b5050505f5260116020525f6040812055565b5067016345785d8a000083111561202e565b6001600160a01b03918216917f000000000000000000000000000000000000000000000000000000000000000016821480156121a3575b8015612198575b801561218f575b611e3d5760018060a01b0316805f525f6020526121048360405f2054611151565b92815f52601160205260405f20549384158015612187575b61218057611fd961212d92866110ff565b92831561217a578361213e91611144565b9067016345785d8a0000821115612172575b5f52601160205260405f20555f526011602052611ebe60405f20918254611151565b5f9150612150565b50505050565b5050505050565b50801561211c565b503082146120e3565b5061dead82146120dc565b507f00000000000000000000000000000000000000000000000000000000000000006001600160a01b031682146120d556feddf252ad1be2c89b69c2b068fc378daa952ba7f163c4a11628f55a4df523b3efa2646970667358221220d1c05246cd8f6d03289f5cc3ade1837e0ebc39431bbd6319da63ca20fa8229e064736f6c634300081e0033ddf252ad1be2c89b69c2b068fc378daa952ba7f163c4a11628f55a4df523b3ef","linkReferences":{}},"methodIdentifiers":{"DEAD()":"03fd2a45","PROFIT_NODE_TAX_RATE()":"0c355b47","PROFIT_SUBCOIN_TAX_RATE()":"416702c9","PROFIT_WALLET_TAX_RATE()":"fcb1138d","USDT()":"c54e44eb","allowance(address,address)":"dd62ed3e","allowlist(address)":"a7cd52cb","approve(address,uint256)":"095ea7b3","balanceOf(address)":"70a08231","buyRate()":"fc37987b","currentPrice()":"9d1b464a","decimals()":"313ce567","getHighestReserve()":"a5aff841","highestReserve()":"6cf77e9a","issueBuyTaxFee()":"056b080b","leo()":"42728ffd","name()":"06fdde03","nodeDividends()":"c7fb372f","openBuy()":"d4a67930","openSell()":"f1eae64a","owner()":"8da5cb5b","pancakeFactory()":"e0f1c9c5","pancakePair()":"b8c9d25c","pancakeRouter()":"c21ebd07","payback()":"854bec87","renounceOwnership()":"715018a6","sellRate()":"6217229b","setAddrConfig(address,address,address,address)":"72207cc3","setAllowlist(address[],bool)":"f01fe7c4","setRate(uint256,uint256)":"46df2ccb","specialWithdraw(uint256)":"6f93b55c","swapThreshold()":"0445b667","switchBuy(bool)":"cf576cc7","switchSell(bool)":"ca77f99c","symbol()":"95d89b41","totalCostUsdt(address)":"60d1d4a4","totalSupply()":"18160ddd","transfer(address,uint256)":"a9059cbb","transferFrom(address,address,uint256)":"23b872dd","transferOwnership(address)":"f2fde38b","treasuryLiquidity()":"09fb6698","wallet()":"521eb273"},"id":77}