{"abi":[{"type":"constructor","inputs":[{"name":"_initialRecipient","type":"address","internalType":"address"},{"name":"_wallet","type":"address","internalType":"address"},{"name":"_USDT","type":"address","internalType":"address"}],"stateMutability":"nonpayable"},{"type":"function","name":"DEAD","inputs":[],"outputs":[{"name":"","type":"address","internalType":"address"}],"stateMutability":"view"},{"type":"function","name":"PROFIT_NODE_TAX_RATE","inputs":[],"outputs":[{"name":"","type":"uint256","internalType":"uint256"}],"stateMutability":"view"},{"type":"function","name":"PROFIT_SUBCOIN_TAX_RATE","inputs":[],"outputs":[{"name":"","type":"uint256","internalType":"uint256"}],"stateMutability":"view"},{"type":"function","name":"PROFIT_WALLET_TAX_RATE","inputs":[],"outputs":[{"name":"","type":"uint256","internalType":"uint256"}],"stateMutability":"view"},{"type":"function","name":"USDT","inputs":[],"outputs":[{"name":"","type":"address","internalType":"address"}],"stateMutability":"view"},{"type":"function","name":"allowance","inputs":[{"name":"owner","type":"address","internalType":"address"},{"name":"spender","type":"address","internalType":"address"}],"outputs":[{"name":"","type":"uint256","internalType":"uint256"}],"stateMutability":"view"},{"type":"function","name":"allowlist","inputs":[{"name":"","type":"address","internalType":"address"}],"outputs":[{"name":"","type":"bool","internalType":"bool"}],"stateMutability":"view"},{"type":"function","name":"approve","inputs":[{"name":"spender","type":"address","internalType":"address"},{"name":"value","type":"uint256","internalType":"uint256"}],"outputs":[{"name":"","type":"bool","internalType":"bool"}],"stateMutability":"nonpayable"},{"type":"function","name":"balanceOf","inputs":[{"name":"account","type":"address","internalType":"address"}],"outputs":[{"name":"","type":"uint256","internalType":"uint256"}],"stateMutability":"view"},{"type":"function","name":"buyRate","inputs":[],"outputs":[{"name":"","type":"uint256","internalType":"uint256"}],"stateMutability":"view"},{"type":"function","name":"currentPrice","inputs":[],"outputs":[{"name":"","type":"uint256","internalType":"uint256"}],"stateMutability":"view"},{"type":"function","name":"decimals","inputs":[],"outputs":[{"name":"","type":"uint8","internalType":"uint8"}],"stateMutability":"view"},{"type":"function","name":"emergencyWithdraw","inputs":[{"name":"token","type":"address","internalType":"address"},{"name":"amount","type":"uint256","internalType":"uint256"},{"name":"to","type":"address","internalType":"address"}],"outputs":[],"stateMutability":"nonpayable"},{"type":"function","name":"getHighestReserve","inputs":[],"outputs":[{"name":"","type":"uint256","internalType":"uint256"}],"stateMutability":"view"},{"type":"function","name":"highestReserve","inputs":[],"outputs":[{"name":"","type":"uint256","internalType":"uint256"}],"stateMutability":"view"},{"type":"function","name":"issueBuyTaxFee","inputs":[],"outputs":[],"stateMutability":"nonpayable"},{"type":"function","name":"leo","inputs":[],"outputs":[{"name":"","type":"address","internalType":"address"}],"stateMutability":"view"},{"type":"function","name":"name","inputs":[],"outputs":[{"name":"","type":"string","internalType":"string"}],"stateMutability":"view"},{"type":"function","name":"nodeDividends","inputs":[],"outputs":[{"name":"","type":"address","internalType":"address"}],"stateMutability":"view"},{"type":"function","name":"openBuy","inputs":[],"outputs":[{"name":"","type":"bool","internalType":"bool"}],"stateMutability":"view"},{"type":"function","name":"openSell","inputs":[],"outputs":[{"name":"","type":"bool","internalType":"bool"}],"stateMutability":"view"},{"type":"function","name":"owner","inputs":[],"outputs":[{"name":"","type":"address","internalType":"address"}],"stateMutability":"view"},{"type":"function","name":"pancakeFactory","inputs":[],"outputs":[{"name":"","type":"address","internalType":"address"}],"stateMutability":"view"},{"type":"function","name":"pancakePair","inputs":[],"outputs":[{"name":"","type":"address","internalType":"address"}],"stateMutability":"view"},{"type":"function","name":"pancakeRouter","inputs":[],"outputs":[{"name":"","type":"address","internalType":"contract IUniswapV2Router02"}],"stateMutability":"view"},{"type":"function","name":"payback","inputs":[],"outputs":[{"name":"","type":"address","internalType":"address"}],"stateMutability":"view"},{"type":"function","name":"renounceOwnership","inputs":[],"outputs":[],"stateMutability":"nonpayable"},{"type":"function","name":"sellRate","inputs":[],"outputs":[{"name":"","type":"uint256","internalType":"uint256"}],"stateMutability":"view"},{"type":"function","name":"setAddrConfig","inputs":[{"name":"_treasuryLiquidity","type":"address","internalType":"address"},{"name":"_payback","type":"address","internalType":"address"},{"name":"_nodeDividends","type":"address","internalType":"address"},{"name":"_leo","type":"address","internalType":"address"}],"outputs":[],"stateMutability":"nonpayable"},{"type":"function","name":"setAllowlist","inputs":[{"name":"addrs","type":"address[]","internalType":"address[]"},{"name":"isAllow","type":"bool","internalType":"bool"}],"outputs":[],"stateMutability":"nonpayable"},{"type":"function","name":"setRate","inputs":[{"name":"_buy","type":"uint256","internalType":"uint256"},{"name":"_sell","type":"uint256","internalType":"uint256"}],"outputs":[],"stateMutability":"nonpayable"},{"type":"function","name":"specialWithdraw","inputs":[{"name":"amount","type":"uint256","internalType":"uint256"}],"outputs":[],"stateMutability":"nonpayable"},{"type":"function","name":"swapThreshold","inputs":[],"outputs":[{"name":"","type":"uint256","internalType":"uint256"}],"stateMutability":"view"},{"type":"function","name":"switchBuy","inputs":[{"name":"_b","type":"bool","internalType":"bool"}],"outputs":[],"stateMutability":"nonpayable"},{"type":"function","name":"switchSell","inputs":[{"name":"_b","type":"bool","internalType":"bool"}],"outputs":[],"stateMutability":"nonpayable"},{"type":"function","name":"symbol","inputs":[],"outputs":[{"name":"","type":"string","internalType":"string"}],"stateMutability":"view"},{"type":"function","name":"totalCostUsdt","inputs":[{"name":"","type":"address","internalType":"address"}],"outputs":[{"name":"","type":"uint256","internalType":"uint256"}],"stateMutability":"view"},{"type":"function","name":"totalSupply","inputs":[],"outputs":[{"name":"","type":"uint256","internalType":"uint256"}],"stateMutability":"view"},{"type":"function","name":"transfer","inputs":[{"name":"to","type":"address","internalType":"address"},{"name":"value","type":"uint256","internalType":"uint256"}],"outputs":[{"name":"","type":"bool","internalType":"bool"}],"stateMutability":"nonpayable"},{"type":"function","name":"transferFrom","inputs":[{"name":"from","type":"address","internalType":"address"},{"name":"to","type":"address","internalType":"address"},{"name":"value","type":"uint256","internalType":"uint256"}],"outputs":[{"name":"","type":"bool","internalType":"bool"}],"stateMutability":"nonpayable"},{"type":"function","name":"transferOwnership","inputs":[{"name":"newOwner","type":"address","internalType":"address"}],"outputs":[],"stateMutability":"nonpayable"},{"type":"function","name":"treasuryLiquidity","inputs":[],"outputs":[{"name":"","type":"address","internalType":"address"}],"stateMutability":"view"},{"type":"function","name":"wallet","inputs":[],"outputs":[{"name":"","type":"address","internalType":"address"}],"stateMutability":"view"},{"type":"event","name":"Approval","inputs":[{"name":"owner","type":"address","indexed":true,"internalType":"address"},{"name":"spender","type":"address","indexed":true,"internalType":"address"},{"name":"value","type":"uint256","indexed":false,"internalType":"uint256"}],"anonymous":false},{"type":"event","name":"OwnershipTransferred","inputs":[{"name":"previousOwner","type":"address","indexed":true,"internalType":"address"},{"name":"newOwner","type":"address","indexed":true,"internalType":"address"}],"anonymous":false},{"type":"event","name":"SwapAndSendTax","inputs":[{"name":"recipient","type":"address","indexed":false,"internalType":"address"},{"name":"tokensSwapped","type":"uint256","indexed":false,"internalType":"uint256"}],"anonymous":false},{"type":"event","name":"Transfer","inputs":[{"name":"from","type":"address","indexed":true,"internalType":"address"},{"name":"to","type":"address","indexed":true,"internalType":"address"},{"name":"value","type":"uint256","indexed":false,"internalType":"uint256"}],"anonymous":false},{"type":"error","name":"ERC20InsufficientAllowance","inputs":[{"name":"spender","type":"address","internalType":"address"},{"name":"allowance","type":"uint256","internalType":"uint256"},{"name":"needed","type":"uint256","internalType":"uint256"}]},{"type":"error","name":"ERC20InsufficientBalance","inputs":[{"name":"sender","type":"address","internalType":"address"},{"name":"balance","type":"uint256","internalType":"uint256"},{"name":"needed","type":"uint256","internalType":"uint256"}]},{"type":"error","name":"ERC20InvalidApprover","inputs":[{"name":"approver","type":"address","internalType":"address"}]},{"type":"error","name":"ERC20InvalidReceiver","inputs":[{"name":"receiver","type":"address","internalType":"address"}]},{"type":"error","name":"ERC20InvalidSender","inputs":[{"name":"sender","type":"address","internalType":"address"}]},{"type":"error","name":"ERC20InvalidSpender","inputs":[{"name":"spender","type":"address","internalType":"address"}]},{"type":"error","name":"OwnableInvalidOwner","inputs":[{"name":"owner","type":"address","internalType":"address"}]},{"type":"error","name":"OwnableUnauthorizedAccount","inputs":[{"name":"account","type":"address","internalType":"address"}]}],"bytecode":{"object":"0x610100806040523461037157606081613a3b803803809161002082856105dc565b83398101031261037157610033816105ff565b61004b6040610044602085016105ff565b93016105ff565b91610054610613565b9261005d610613565b845190946001600160401b0382116104df5760035490600182811c921680156105d2575b60208310146104c15781601f849311610564575b50602090601f83116001146104fe575f926104f3575b50508160011b915f199060031b1c1916176003555b83516001600160401b0381116104df57600454600181811c911680156104d5575b60208210146104c157601f811161045e575b50602094601f82116001146103fb579481929394955f926103f0575b50508160011b915f199060031b1c1916176004555b33156103dd5760058054336001600160a01b0319821681179092556001600160a01b03167f8be0079c531659141344cd1fd0a4f28419497f9722a3daafe3b4186f6b6457e05f80a36005600b819055600c55678ac7230489e80000600d556001600160a01b0383169283156103ca5761019c90610694565b7310ed43c718714eb63d5aa57b78b54704e256024e60805260e05260018060a01b0316908160018060a01b0319600854161760085560405163c45a015560e01b81526020816004817310ed43c718714eb63d5aa57b78b54704e256024e5afa90811561037d575f91610388575b5060a081905260e0516040516364e329cb60e11b81523060048201526001600160a01b039091166024820152906020908290815f81604481015b03926001600160a01b03165af190811561037d575f9161033f575b5060c0525f52601060205260405f20600160ff198254161790555f52601060205260405f20600160ff198254161790556040516122fa908161172182396080518181816105950152818161113701528181611e1201528181611f2001528181612047015261217b015260a0518181816103f60152611d18015260c0518181816105d9015281816109c00152818161172201528181611aa801528181611b3901528181611fac0152612275015260e051818181610551015281816110d50152818161128a01528181611578015281816116ba01528181611b990152611ce60152f35b90506020813d602011610375575b8161035a602093836105dc565b810103126103715761036b906105ff565b5f61025e565b5f80fd5b3d915061034d565b6040513d5f823e3d90fd5b90506020813d6020116103c2575b816103a3602093836105dc565b810103126103715760206102436103ba5f936105ff565b925050610209565b3d9150610396565b63ec442f0560e01b5f525f60045260245ffd5b631e4fbdf760e01b5f525f60045260245ffd5b015190505f8061010f565b601f1982169560045f52805f20915f5b8881106104465750836001959697981061042e575b505050811b01600455610124565b01515f1960f88460031b161c191690555f8080610420565b9192602060018192868501518155019401920161040b565b60045f527f8a35acfbc15ff81a39ae7d344fd709f28e8600b4aa8c65c6b64bfe7fe36bd19b601f830160051c810191602084106104b7575b601f0160051c01905b8181106104ac57506100f3565b5f815560010161049f565b9091508190610496565b634e487b7160e01b5f52602260045260245ffd5b90607f16906100e1565b634e487b7160e01b5f52604160045260245ffd5b015190505f806100ab565b60035f9081528281209350601f198516905b81811061054c5750908460019594939210610534575b505050811b016003556100c0565b01515f1960f88460031b161c191690555f8080610526565b92936020600181928786015181550195019301610510565b60035f529091507fc2575a0e9e593c00f959f8c92f12db2869c3395a3b0502d05e2516446f71f85b601f840160051c810191602085106105c8575b90601f859493920160051c01905b8181106105ba5750610095565b5f81558493506001016105ad565b909150819061059f565b91607f1691610081565b601f909101601f19168101906001600160401b038211908210176104df57604052565b51906001600160a01b038216820361037157565b60408051919082016001600160401b038111838210176104df5760405260038252620988ab60eb1b6020830152565b8181029291811591840414171561065557565b634e487b7160e01b5f52601160045260245ffd5b8115610673570490565b634e487b7160e01b5f52601260045260245ffd5b9190820391821161065557565b60e0515f906001600160a01b031680151580610c4d575b610bd2575b5060ff600f54168015610bca575b8015610bb9575b8015610b86575b8015610b65575b610b4e5760c0516001600160a01b03168015610ac1576001600160a01b0383161461087c5730815280602052604081205460288102818104602814821517156108685761072a91606461072f920492838092610687565b610687565b600954909183916001600160a01b03168015158061085f575b156108395761076e9061075961138b565b60e0516001600160a01b0316919084906113cb565b806107cc575b50916107a361079d6a115eec47f6cf7e3500000095936107976107ba9896611270565b90610c61565b91611364565b806107bc575b506107b5838383610d12565b61107f565b565b6107c69030610c6e565b5f6107a9565b6009546001600160a01b031690813b156108355785916044839260405194859384926315f5e8d760e31b84526001600485015260248401525af1801561082a57156107745761081c8580926105dc565b610826575f610774565b8380fd5b6040513d87823e3d90fd5b8580fd5b506a115eec47f6cf7e35000000939150916107a361079d846107976107ba989691611270565b50811515610748565b634e487b7160e01b83526011600452602483fd5b919060ff600f5460101c1615610a8c57600c546a115eec47f6cf7e35000000919082810290838204036106555760649004808303838111610655576108c1815f610f0b565b9182158015610957575b506108d7813089610d12565b602881028181046028148215171561094357926107ba9697949261072a61091b61079d61091161092796606461092e9a0494858092610687565b9261079781611270565b80610933575b50610687565b9083610d12565b610fe0565b61093d9030610c6e565b5f610921565b634e487b7160e01b88526011600452602488fd5b61096284305f610d12565b60058402848104600514821715610655576019900490600a850290858204600a14171561065557601990049061099c8261072a8388610687565b60095490925f9290916001600160a01b031680151580610a83575b15610a7057906109dc916109c961138b565b60e0516001600160a01b031692906113cb565b80610a09575b506109f39161079761079d92611270565b80156108cb57610a039030610c6e565b5f6108cb565b6009546001600160a01b031690813b15610371575f916044839260405194859384926315f5e8d760e31b84526002600485015260248401525af1801561037d57156109e25761079d919a5091610a625f6109f3946105dc565b6107975f9b925050916109e2565b506109f3925061079d9161079790611270565b508115156109b7565b60405162461bcd60e51b815260206004820152600d60248201526c14d1531317d11254d050931151609a1b6044820152606490fd5b505060ff600f5460081c1615610b1a57600b546a115eec47f6cf7e3500000090818102908282040361065557606490049182820391821161065557610b146107ba93610b0d8484610dca565b305f610d12565b5f610d12565b60405162461bcd60e51b815260206004820152600c60248201526b10955657d11254d05093115160a21b6044820152606490fd5b506a115eec47f6cf7e350000006107ba915f610d12565b506001600160a01b0382165f9081526010602052604090205460ff166106d3565b505f805260106020527f6e0956cda88cad152e89927e53611735b61a5c762d1428573c6931b0a5efcb015460ff166106cc565b506001600160a01b038216156106c5565b5060016106be565b602060018060a01b0360c051166024604051809481936370a0823160e01b835260048301525afa90811561037d575f91610c1b575b50600e548111156106b057600e555f6106b0565b90506020813d602011610c45575b81610c36602093836105dc565b8101031261037157515f610c07565b3d9150610c29565b5060c0516001600160a01b031615156106ab565b9190820180921161065557565b9091906001600160a01b031680610cbd575f516020613a1b5f395f51905f52602084610ca061dead9596600254610c61565b6002555b845f525f825260405f20818154019055604051908152a3565b805f525f60205260405f2054838110610cf85760208461dead94955f516020613a1b5f395f51905f5293855f525f84520360405f2055610ca4565b915063391434e360e21b5f5260045260245260445260645ffd5b6001600160a01b03169081610d785760205f516020613a1b5f395f51905f5291610d3e85600254610c61565b6002555b6001600160a01b03169384610d635780600254036002555b604051908152a3565b845f525f825260405f20818154019055610d5a565b815f525f60205260405f2054838110610daf575f516020613a1b5f395f51905f529184602092855f525f84520360405f2055610d42565b91905063391434e360e21b5f5260045260245260445260645ffd5b6080516001600160a01b0391821692911682148015610ef7575b8015610eec575b8015610ee3575b610edf57610e72905f604051610e096060826105dc565b60028152604036602083013730610e1f8261117f565b5260e0516001600160a01b0316610e35826111a0565b5260018060a01b0360805116604051808096819463d06ca61f60e01b8352670de0b6b3a76400006004840152604060248401526044830190611234565b03915afa90811561037d57610e9b610ea192670de0b6b3a7640000945f91610ebd575b506111a0565b51610642565b04905f526011602052610eb960405f20918254610c61565b9055565b610ed991503d805f833e610ed181836105dc565b8101906111b0565b5f610e95565b5050565b50308214610df2565b5061dead8214610deb565b5060c0516001600160a01b03168214610de4565b610f3f9060018060a01b0316805f526011602052610f2d8360405f2054610642565b905f525f60205260405f205490610669565b610f7f5f610f4b61138b565b60018060a01b0360805116604051808095819463d06ca61f60e01b8352896004840152604060248401526044830190611234565b03915afa801561037d57610f99915f91610ebd57506111a0565b519080821115610fd957610fbf92610fb4610fba9284610687565b90610642565b610669565b601981029080820460191490151715610655576064900490565b5050505f90565b6001600160a01b03165f818152602081815260408083205460119092529091205491929091908215801561106d575b61105b5761102a92610fba6110249284610642565b90610687565b5f82815260116020526040902081905567016345785d8a0000101561104c5750565b5f5260116020525f6040812055565b5050505f5260116020525f6040812055565b5067016345785d8a000083111561100f565b6080516001600160a01b0392831692168214801561116b575b8015611160575b8015611157575b6111525760018060a01b0316805f525f6020526110c78360405f2054610c61565b92815f52601160205260405f2054938415801561114a575b61114357610fba6110f09286610642565b92831561113d578361110191610687565b9067016345785d8a0000821115611135575b5f52601160205260405f20555f526011602052610eb960405f20918254610c61565b5f9150611113565b50505050565b5050505050565b5080156110df565b505050565b503082146110a6565b5061dead821461109f565b5060c0516001600160a01b03168214611098565b80511561118c5760200190565b634e487b7160e01b5f52603260045260245ffd5b80516001101561118c5760400190565b602081830312610371578051906001600160401b03821161037157019080601f83011215610371578151916001600160401b0383116104df578260051b90602082019361120060405195866105dc565b845260208085019282010192831161037157602001905b8282106112245750505090565b8151815260209182019101611217565b90602080835192838152019201905f5b8181106112515750505090565b82516001600160a01b0316845260209384019390920191600101611244565b600a545f92916001600160a01b039091169081151580611356575b8061134d575b1561134857604051916112a56080846105dc565b600383526060366020850137306112bb8461117f565b5260e0516001600160a01b03166112d1846111a0565b5260018060a01b03600654169183516002101561118c57838360606112f79601526113cb565b80611300575b50565b600a546001600160a01b031690813b15610371575f9160248392604051948593849263cc430ced60e01b845260048401525af1801561037d57156112fd575f6107ba916105dc565b925050565b50801515611291565b5061135f6114bb565b61128b565b8061136c5750565b6107ba9061137861138b565b6008546001600160a01b031691906115c1565b6040519061139a6060836105dc565b60028252604036602084013781306113b18261117f565b5260e0516001600160a01b0316906113c8906111a0565b52565b6040516370a0823160e01b81526001600160a01b038481166004830181905295169490929091602084602481895afa93841561037d575f9461147f575b509361141791602094956115c1565b6024604051809581936370a0823160e01b835260048301525afa801561037d575f9061144b575b6114489250610687565b90565b506020823d602011611477575b81611465602093836105dc565b8101031261037157611448915161143e565b3d9150611458565b919350936020823d6020116114b3575b8161149c602093836105dc565b810103126103715790519093909290611417611408565b3d915061148f565b6006546001600160a01b031680156115825760a05160e05160405163e6a4390560e01b81526001600160a01b03938416600482015290831660248201529160209183916044918391165afa90811561037d575f91611587575b506001600160a01b03168015611582576020600491604051928380926318160ddd60e01b82525afa90811561037d575f91611550575b50151590565b90506020813d60201161157a575b8161156b602093836105dc565b8101031261037157515f61154a565b3d915061155e565b505f90565b90506020813d6020116115b9575b816115a2602093836105dc565b81010312610371576115b3906105ff565b5f611514565b3d9150611595565b811561115257600f805460ff191660011790556080516001600160a01b0316301561170d5780156116fa57305f52600160205260405f20815f526020528260405f20556040518381527f8c5be1e5ebec7d5bd14f71427d1e84f3dd0314c0f7b2291e5b200ac8c7c3b92560203092a36080516001600160a01b0316803b156103715761167b5f92918392604051948580948193635c11d79560e01b835289600484015283602484015260a0604484015260a4830190611234565b6001600160a01b03909916606482018190524260848301529803925af190816116ea575b506116b3575b505060ff19600f5416600f55565b7faedb4dc54dc30d46d331ffcc44cd836607bea96c12e1b21a95210ed899184d049160409182519182526020820152a15f806116a5565b5f6116f4916105dc565b5f61169f565b634a1406b160e11b5f525f60045260245ffd5b63e602df0560e01b5f525f60045260245ffdfe6080806040526004361015610012575f80fd5b5f5f3560e01c91826303fd2a4514610ebc575081630445b66714610e9f578163056b080b14610e7f57816306fdde0314610d8b578163095ea7b314610d6557816309fb669814610d3d5781630c355b4714610d2257816318160ddd14610d0557816323b872dd14610c26578163313ce56714610c0b578163416702c9146101f757816342728ffd14610be357816346df2ccb14610bbc578163521eb27314610b94578163551512de14610ae457816360d1d4a414610aac5781636217229b14610a8f5781636cf77e9a14610a725781636f93b55c1461099657816370a082311461095f578163715018a61461090357816372207cc31461080e578163854bec87146107e65781638da5cb5b146107be57816395d89b41146106b65781639d1b464a14610694578163a5aff84114610677578163a7cd52cb14610639578163a9059cbb14610608578163b8c9d25c146105c4578163c21ebd0714610580578163c54e44eb1461053c578163c7fb372f14610514578163ca77f99c146104d7578163cf576cc71461049c578163d4a6793014610477578163dd62ed3e14610425578163e0f1c9c5146103e1578163f01fe7c4146102c9578163f1eae64a146102a4578163f2fde38b1461021c578163fc37987b146101fc575063fcb1138d146101f7575f80fd5b610f42565b346102195780600319360112610219576020600b54604051908152f35b80fd5b3461021957602036600319011261021957610235610f00565b61023d61119e565b6001600160a01b0316801561029057600580546001600160a01b0319811683179091556001600160a01b03167f8be0079c531659141344cd1fd0a4f28419497f9722a3daafe3b4186f6b6457e08380a380f35b631e4fbdf760e01b82526004829052602482fd5b34610219578060031936011261021957602060ff600f5460101c166040519015158152f35b346102195760403660031901126102195760043567ffffffffffffffff81116103dd57366023820112156103dd57806004013561030581610fa2565b916103136040519384610f6c565b8183526024602084019260051b820101903682116103d957602401915b8183106103b557505050602435908115158092036103b1579061035161119e565b60ff16825b82518110156103ad578251811015610399576020600582901b84018101516001600160a01b031685526010905260408420805460ff191683179055600101610356565b634e487b7160e01b84526032600452602484fd5b8380f35b8280fd5b82356001600160a01b03811681036103d557815260209283019201610330565b8580fd5b8480fd5b5080fd5b346102195780600319360112610219576040517f00000000000000000000000000000000000000000000000000000000000000006001600160a01b03168152602090f35b34610219576040366003190112610219576040610440610f00565b91610449610f16565b9260018060a01b031681526001602052209060018060a01b03165f52602052602060405f2054604051908152f35b34610219578060031936011261021957602060ff600f5460081c166040519015158152f35b34610219576020366003190112610219576104b5610f5d565b6104bd61119e565b61ff00600f5491151560081b169061ff00191617600f5580f35b34610219576020366003190112610219576104f0610f5d565b6104f861119e565b62ff0000600f5491151560101b169062ff0000191617600f5580f35b346102195780600319360112610219576009546040516001600160a01b039091168152602090f35b346102195780600319360112610219576040517f00000000000000000000000000000000000000000000000000000000000000006001600160a01b03168152602090f35b346102195780600319360112610219576040517f00000000000000000000000000000000000000000000000000000000000000006001600160a01b03168152602090f35b346102195780600319360112610219576040517f00000000000000000000000000000000000000000000000000000000000000006001600160a01b03168152602090f35b346102195760403660031901126102195761062e610624610f00565b602435903361136e565b602060405160018152f35b346102195760203660031901126102195760209060ff906040906001600160a01b03610663610f00565b168152601084522054166040519015158152f35b346102195780600319360112610219576020600e54604051908152f35b3461021957806003193601126102195760206106ae6110a1565b604051908152f35b346102195780600319360112610219576040519080600454908160011c916001811680156107b4575b6020841081146107a057838652908115610779575060011461071c575b6107188461070c81860382610f6c565b60405191829182610ed6565b0390f35b600481527f8a35acfbc15ff81a39ae7d344fd709f28e8600b4aa8c65c6b64bfe7fe36bd19b939250905b80821061075f5750909150810160200161070c826106fc565b919260018160209254838588010152019101909291610746565b60ff191660208087019190915292151560051b8501909201925061070c91508390506106fc565b634e487b7160e01b83526022600452602483fd5b92607f16926106df565b346102195780600319360112610219576005546040516001600160a01b039091168152602090f35b34610219578060031936011261021957600a546040516001600160a01b039091168152602090f35b3461021957608036600319011261021957610827610f00565b61082f610f16565b610837610f2c565b906064359260018060a01b0384168094036103d95761085461119e565b60018060a01b031690816001600160601b0360a01b600754161760075560018060a01b031691826001600160601b0360a01b600a541617600a5560018060a01b031692836001600160601b0360a01b60095416176009556001600160601b0360a01b60065416176006558352601060205260408320600160ff198254161790558252601060205260408220600160ff198254161790558152601060205260408120600160ff1982541617905580f35b3461021957806003193601126102195761091b61119e565b600580546001600160a01b0319811690915581906001600160a01b03167f8be0079c531659141344cd1fd0a4f28419497f9722a3daafe3b4186f6b6457e08280a380f35b34610219576020366003190112610219576020906040906001600160a01b03610986610f00565b1681528083522054604051908152f35b34610a39576020366003190112610a39576007546001600160a01b031633819003610a3d576109ea7f0000000000000000000000000000000000000000000000000000000000000000916004359083611461565b6001600160a01b0316803b15610a39575f809160046040518094819363fff6cae960e01b83525af18015610a2e57610a20575080f35b610a2c91505f90610f6c565b005b6040513d5f823e3d90fd5b5f80fd5b60405162461bcd60e51b815260206004820152600d60248201526c2727afa822a926a4a9a9a4a7a760991b6044820152606490fd5b34610a39575f366003190112610a39576020600e54604051908152f35b34610a39575f366003190112610a39576020600c54604051908152f35b34610a39576020366003190112610a39576001600160a01b03610acd610f00565b165f526011602052602060405f2054604051908152f35b34610a39576060366003190112610a39575f6020610b47610b03610f00565b610b0b610f2c565b610b1361119e565b60405163a9059cbb60e01b81526001600160a01b039091166004820152602480359082015293849283919082906044820190565b03926001600160a01b03165af18015610a2e57610b6057005b6020813d602011610b8c575b81610b7960209383610f6c565b81010312610a39575180151503610a3957005b3d9150610b6c565b34610a39575f366003190112610a39576008546040516001600160a01b039091168152602090f35b34610a39576040366003190112610a3957610bd561119e565b600435600b55602435600c55005b34610a39575f366003190112610a39576006546040516001600160a01b039091168152602090f35b34610a39575f366003190112610a3957602060405160128152f35b34610a39576060366003190112610a3957610c3f610f00565b610c47610f16565b6001600160a01b0382165f818152600160209081526040808320338452909152902054909260443592915f198110610c85575b5061062e935061136e565b838110610cea578415610cd7573315610cc45761062e945f52600160205260405f2060018060a01b0333165f526020528360405f209103905584610c7a565b634a1406b160e11b5f525f60045260245ffd5b63e602df0560e01b5f525f60045260245ffd5b8390637dc7a0d960e11b5f523360045260245260445260645ffd5b34610a39575f366003190112610a39576020600254604051908152f35b34610a39575f366003190112610a3957602060405160058152f35b34610a39575f366003190112610a39576007546040516001600160a01b039091168152602090f35b34610a39576040366003190112610a395761062e610d81610f00565b6024359033611650565b34610a39575f366003190112610a39576040515f6003548060011c90600181168015610e75575b602083108114610e6157828552908115610e3d5750600114610ddf575b6107188361070c81850382610f6c565b91905060035f527fc2575a0e9e593c00f959f8c92f12db2869c3395a3b0502d05e2516446f71f85b915f905b808210610e235750909150810160200161070c610dcf565b919260018160209254838588010152019101909291610e0b565b60ff191660208086019190915291151560051b8401909101915061070c9050610dcf565b634e487b7160e01b5f52602260045260245ffd5b91607f1691610db2565b34610a39575f366003190112610a3957610e9761119e565b610a2c611224565b34610a39575f366003190112610a39576020600d54604051908152f35b34610a39575f366003190112610a39578061dead60209252f35b602060409281835280519182918282860152018484015e5f828201840152601f01601f1916010190565b600435906001600160a01b0382168203610a3957565b602435906001600160a01b0382168203610a3957565b604435906001600160a01b0382168203610a3957565b34610a39575f366003190112610a39576020604051600a8152f35b600435908115158203610a3957565b90601f8019910116810190811067ffffffffffffffff821117610f8e57604052565b634e487b7160e01b5f52604160045260245ffd5b67ffffffffffffffff8111610f8e5760051b60200190565b805115610fc75760200190565b634e487b7160e01b5f52603260045260245ffd5b805160011015610fc75760400190565b602081830312610a395780519067ffffffffffffffff8211610a3957019080601f83011215610a3957815161101f81610fa2565b9261102d6040519485610f6c565b81845260208085019260051b820101928311610a3957602001905b8282106110555750505090565b8151815260209182019101611048565b90602080835192838152019201905f5b8181106110825750505090565b82516001600160a01b0316845260209384019390920191600101611075565b6111335f6040516110b3606082610f6c565b600281526040366020830137306110c982610fba565b526110d381610fdb565b7f00000000000000000000000000000000000000000000000000000000000000006001600160a01b031690526040805163d06ca61f60e01b8152670de0b6b3a7640000600482015260248101919091529283918291906044830190611065565b03817f00000000000000000000000000000000000000000000000000000000000000006001600160a01b03165afa8015610a2e57611178915f9161117c575b50610fdb565b5190565b61119891503d805f833e6111908183610f6c565b810190610feb565b5f611172565b6005546001600160a01b031633036111b257565b63118cdaa760e01b5f523360045260245ffd5b818102929181159184041417156111d857565b634e487b7160e01b5f52601160045260245ffd5b81156111f6570490565b634e487b7160e01b5f52601260045260245ffd5b919082039182116111d857565b919082018092116111d857565b305f525f60205260405f205460288102818104602814821517156111d85761125691606461125b92049283809261120a565b61120a565b6009549091905f906001600160a01b031680151580611365575b15611352576112af90611286611b68565b90847f000000000000000000000000000000000000000000000000000000000000000092611bc5565b806112e6575b506112cc906112c66112d293611519565b90611217565b91611629565b806112da5750565b6112e490306113bd565b565b6009546001600160a01b03169190823b15610a39575f926044849260405195869384926315f5e8d760e31b84526001600485015260248401525af18015610a2e576112d2936112cc936112c692611342575b50935050906112b5565b5f61134c91610f6c565b5f611338565b50506112cc816112c66112d29391611519565b50821515611275565b91906001600160a01b038316156113aa576001600160a01b03811615611397576112e4926116b3565b63ec442f0560e01b5f525f60045260245ffd5b634b637e8f60e11b5f525f60045260245ffd5b9091906001600160a01b03168061140c575f5160206122a55f395f51905f526020846113ef61dead9596600254611217565b6002555b845f525f825260405f20818154019055604051908152a3565b805f525f60205260405f20548381106114475760208461dead94955f5160206122a55f395f51905f5293855f525f84520360405f20556113f3565b915063391434e360e21b5f5260045260245260445260645ffd5b6001600160a01b031690816114c75760205f5160206122a55f395f51905f529161148d85600254611217565b6002555b6001600160a01b031693846114b25780600254036002555b604051908152a3565b845f525f825260405f208181540190556114a9565b815f525f60205260405f20548381106114fe575f5160206122a55f395f51905f529184602092855f525f84520360405f2055611491565b91905063391434e360e21b5f5260045260245260445260645ffd5b600a545f92916001600160a01b03909116908115158061161b575b80611612575b1561160d576040519161154e608084610f6c565b6003835260603660208501373061156484610fba565b5261156e83610fdb565b6001600160a01b037f0000000000000000000000000000000000000000000000000000000000000000811690915260065484519116929060021015610fc757838360606115bc960152611bc5565b806115c5575b50565b600a546001600160a01b031690813b15610a39575f9160248392604051948593849263cc430ced60e01b845260048401525af18015610a2e57156115c2575f6112e491610f6c565b925050565b5080151561153a565b50611624611cb5565b611534565b806116315750565b6112e49061163d611b68565b6008546001600160a01b03169190611dfd565b6001600160a01b0316908115610cd7576001600160a01b0316918215610cc45760207f8c5be1e5ebec7d5bd14f71427d1e84f3dd0314c0f7b2291e5b200ac8c7c3b92591835f526001825260405f20855f5282528060405f2055604051908152a3565b5f939291907f00000000000000000000000000000000000000000000000000000000000000006001600160a01b03811680151580611b36575b611a99575b5060ff600f54168015611a88575b8015611a77575b8015611a56575b8015611a35575b611a29576001600160a01b037f0000000000000000000000000000000000000000000000000000000000000000811690831681146119ab576001600160a01b0384161461177a57506112e493945061176a611224565b611775838383611461565b61216d565b60ff600f9392935460101c1615611976576064611799600c54866111c5565b046117a4818661120a565b906117af8286611fdb565b9283158015611847575b50506117c6813087611461565b6028810281810460281482151715611833579161181e94939161180b6112cc6118016112e49b9c61125660646118179904809681935061120a565b926112c681611519565b80611823575b5061120a565b9083611461565b6120ce565b61182d90306113bd565b5f611811565b634e487b7160e01b89526011600452602489fd5b611852853089611461565b600585028581046005148217156111d8576019900490600a860290868204600a1417156111d857601990049161188c83611256848961120a565b60095490935f9290916001600160a01b03168015158061196d575b15611959576118bf9293946118ba611b68565b611bc5565b806118f2575b506118d6916112c66112cc92611519565b806118e2575b806117b9565b6118ec90306113bd565b5f6118dc565b6009546001600160a01b031690813b15610a39575f916044839260405194859384926315f5e8d760e31b84526002600485015260248401525af18015610a2e57156118c5576112cc919b509161194b5f6118d694610f6c565b6112c65f9c925050916118c5565b50506112cc91506112c66118d69391611519565b508415156118a7565b60405162461bcd60e51b815260206004820152600d60248201526c14d1531317d11254d050931151609a1b6044820152606490fd5b505092935060ff600f5460081c16156119f5576112e4926119f06119de60646119d6600b54876111c5565b04809561120a565b936119e98585611f11565b3083611461565b611461565b60405162461bcd60e51b815260206004820152600c60248201526b10955657d11254d05093115160a21b6044820152606490fd5b506112e4939450611461565b506001600160a01b0383165f9081526010602052604090205460ff16611714565b506001600160a01b0382165f9081526010602052604090205460ff1661170d565b506001600160a01b03831615611706565b506001600160a01b038216156116ff565b6040516370a0823160e01b81527f00000000000000000000000000000000000000000000000000000000000000006001600160a01b0316600482015290602090829060249082905afa908115610a2e575f91611b04575b50600e548111156116f157600e555f6116f1565b90506020813d602011611b2e575b81611b1f60209383610f6c565b81010312610a3957515f611af0565b3d9150611b12565b507f00000000000000000000000000000000000000000000000000000000000000006001600160a01b031615156116ec565b60405190611b77606083610f6c565b600282526040366020840137611b978230611b9182610fba565b52610fdb565b7f00000000000000000000000000000000000000000000000000000000000000006001600160a01b03169052565b6040516370a0823160e01b81526001600160a01b038481166004830181905295169490929091602084602481895afa938415610a2e575f94611c79575b5093611c119160209495611dfd565b6024604051809581936370a0823160e01b835260048301525afa8015610a2e575f90611c45575b611c42925061120a565b90565b506020823d602011611c71575b81611c5f60209383610f6c565b81010312610a3957611c429151611c38565b3d9150611c52565b919350936020823d602011611cad575b81611c9660209383610f6c565b81010312610a395790519093909290611c11611c02565b3d9150611c89565b6006546001600160a01b03168015611db65760405163e6a4390560e01b815260048101919091526001600160a01b037f000000000000000000000000000000000000000000000000000000000000000081166024830152602090829060449082907f0000000000000000000000000000000000000000000000000000000000000000165afa908115610a2e575f91611dbb575b506001600160a01b03168015611db6576020600491604051928380926318160ddd60e01b82525afa908115610a2e575f91611d84575b50151590565b90506020813d602011611dae575b81611d9f60209383610f6c565b81010312610a3957515f611d7e565b3d9150611d92565b505f90565b90506020813d602011611df5575b81611dd660209383610f6c565b81010312610a3957516001600160a01b0381168103610a39575f611d48565b3d9150611dc9565b8115611f0c57600f805460ff191660011790557f00000000000000000000000000000000000000000000000000000000000000006001600160a01b0316611e45838230611650565b803b15610a3957611e845f92918392604051948580948193635c11d79560e01b835289600484015283602484015260a0604484015260a4830190611065565b6001600160a01b038a16606483015242608483015203925af19081611efc575b50611eb8575b505060ff19600f5416600f55565b604080516001600160a01b0393909316835260208301919091527faedb4dc54dc30d46d331ffcc44cd836607bea96c12e1b21a95210ed899184d0491a15f80611eaa565b5f611f0691610f6c565b5f611ea4565b505050565b6001600160a01b0390811691907f00000000000000000000000000000000000000000000000000000000000000001682148015611fa9575b8015611f9e575b8015611f95575b611f9157611f75670de0b6b3a764000091611f706110a1565b6111c5565b04905f526011602052611f8d60405f20918254611217565b9055565b5050565b50308214611f57565b5061dead8214611f50565b507f00000000000000000000000000000000000000000000000000000000000000006001600160a01b03168214611f49565b61200f9060018060a01b0316805f526011602052611ffd8360405f20546111c5565b905f525f60205260405f2054906111ec565b6120435f61201b611b68565b6040518093819263d06ca61f60e01b8352876004840152604060248401526044830190611065565b03817f00000000000000000000000000000000000000000000000000000000000000006001600160a01b03165afa8015610a2e57612087915f9161117c5750610fdb565b5190808211156120c7576120ad926120a26120a8928461120a565b906111c5565b6111ec565b6019810290808204601914901517156111d8576064900490565b5050505f90565b6001600160a01b03165f818152602081815260408083205460119092529091205491929091908215801561215b575b61214957612118926120a861211292846111c5565b9061120a565b5f82815260116020526040902081905567016345785d8a0000101561213a5750565b5f5260116020525f6040812055565b5050505f5260116020525f6040812055565b5067016345785d8a00008311156120fd565b6001600160a01b03918216917f00000000000000000000000000000000000000000000000000000000000000001682148015612272575b8015612267575b801561225e575b611f0c5760018060a01b0316805f525f6020526121d38360405f2054611217565b92815f52601160205260405f20549384158015612256575b61224f576120a86121fc92866111c5565b928315612249578361220d9161120a565b9067016345785d8a0000821115612241575b5f52601160205260405f20555f526011602052611f8d60405f20918254611217565b5f915061221f565b50505050565b5050505050565b5080156121eb565b503082146121b2565b5061dead82146121ab565b507f00000000000000000000000000000000000000000000000000000000000000006001600160a01b031682146121a456feddf252ad1be2c89b69c2b068fc378daa952ba7f163c4a11628f55a4df523b3efa26469706673582212205ff0f8623ac77d235a54386fb4c64c347bc0fbc688596dd0fd9fbd2b07b198fc64736f6c634300081e0033ddf252ad1be2c89b69c2b068fc378daa952ba7f163c4a11628f55a4df523b3ef","linkReferences":{}},"methodIdentifiers":{"DEAD()":"03fd2a45","PROFIT_NODE_TAX_RATE()":"0c355b47","PROFIT_SUBCOIN_TAX_RATE()":"416702c9","PROFIT_WALLET_TAX_RATE()":"fcb1138d","USDT()":"c54e44eb","allowance(address,address)":"dd62ed3e","allowlist(address)":"a7cd52cb","approve(address,uint256)":"095ea7b3","balanceOf(address)":"70a08231","buyRate()":"fc37987b","currentPrice()":"9d1b464a","decimals()":"313ce567","emergencyWithdraw(address,uint256,address)":"551512de","getHighestReserve()":"a5aff841","highestReserve()":"6cf77e9a","issueBuyTaxFee()":"056b080b","leo()":"42728ffd","name()":"06fdde03","nodeDividends()":"c7fb372f","openBuy()":"d4a67930","openSell()":"f1eae64a","owner()":"8da5cb5b","pancakeFactory()":"e0f1c9c5","pancakePair()":"b8c9d25c","pancakeRouter()":"c21ebd07","payback()":"854bec87","renounceOwnership()":"715018a6","sellRate()":"6217229b","setAddrConfig(address,address,address,address)":"72207cc3","setAllowlist(address[],bool)":"f01fe7c4","setRate(uint256,uint256)":"46df2ccb","specialWithdraw(uint256)":"6f93b55c","swapThreshold()":"0445b667","switchBuy(bool)":"cf576cc7","switchSell(bool)":"ca77f99c","symbol()":"95d89b41","totalCostUsdt(address)":"60d1d4a4","totalSupply()":"18160ddd","transfer(address,uint256)":"a9059cbb","transferFrom(address,address,uint256)":"23b872dd","transferOwnership(address)":"f2fde38b","treasuryLiquidity()":"09fb6698","wallet()":"521eb273"},"id":77}