{"abi":[{"type":"constructor","inputs":[{"name":"_initialRecipient","type":"address","internalType":"address"},{"name":"_wallet","type":"address","internalType":"address"},{"name":"_USDT","type":"address","internalType":"address"}],"stateMutability":"nonpayable"},{"type":"function","name":"DEAD","inputs":[],"outputs":[{"name":"","type":"address","internalType":"address"}],"stateMutability":"view"},{"type":"function","name":"PROFIT_NODE_TAX_RATE","inputs":[],"outputs":[{"name":"","type":"uint256","internalType":"uint256"}],"stateMutability":"view"},{"type":"function","name":"PROFIT_SUBCOIN_TAX_RATE","inputs":[],"outputs":[{"name":"","type":"uint256","internalType":"uint256"}],"stateMutability":"view"},{"type":"function","name":"PROFIT_WALLET_TAX_RATE","inputs":[],"outputs":[{"name":"","type":"uint256","internalType":"uint256"}],"stateMutability":"view"},{"type":"function","name":"USDT","inputs":[],"outputs":[{"name":"","type":"address","internalType":"address"}],"stateMutability":"view"},{"type":"function","name":"allowance","inputs":[{"name":"owner","type":"address","internalType":"address"},{"name":"spender","type":"address","internalType":"address"}],"outputs":[{"name":"","type":"uint256","internalType":"uint256"}],"stateMutability":"view"},{"type":"function","name":"allowlist","inputs":[{"name":"","type":"address","internalType":"address"}],"outputs":[{"name":"","type":"bool","internalType":"bool"}],"stateMutability":"view"},{"type":"function","name":"approve","inputs":[{"name":"spender","type":"address","internalType":"address"},{"name":"value","type":"uint256","internalType":"uint256"}],"outputs":[{"name":"","type":"bool","internalType":"bool"}],"stateMutability":"nonpayable"},{"type":"function","name":"balanceOf","inputs":[{"name":"account","type":"address","internalType":"address"}],"outputs":[{"name":"","type":"uint256","internalType":"uint256"}],"stateMutability":"view"},{"type":"function","name":"buyRate","inputs":[],"outputs":[{"name":"","type":"uint256","internalType":"uint256"}],"stateMutability":"view"},{"type":"function","name":"currentPrice","inputs":[],"outputs":[{"name":"","type":"uint256","internalType":"uint256"}],"stateMutability":"view"},{"type":"function","name":"decimals","inputs":[],"outputs":[{"name":"","type":"uint8","internalType":"uint8"}],"stateMutability":"view"},{"type":"function","name":"getHighestReserve","inputs":[],"outputs":[{"name":"","type":"uint256","internalType":"uint256"}],"stateMutability":"view"},{"type":"function","name":"highestReserve","inputs":[],"outputs":[{"name":"","type":"uint256","internalType":"uint256"}],"stateMutability":"view"},{"type":"function","name":"leo","inputs":[],"outputs":[{"name":"","type":"address","internalType":"address"}],"stateMutability":"view"},{"type":"function","name":"name","inputs":[],"outputs":[{"name":"","type":"string","internalType":"string"}],"stateMutability":"view"},{"type":"function","name":"nodeDividends","inputs":[],"outputs":[{"name":"","type":"address","internalType":"address"}],"stateMutability":"view"},{"type":"function","name":"openBuy","inputs":[],"outputs":[{"name":"","type":"bool","internalType":"bool"}],"stateMutability":"view"},{"type":"function","name":"openSell","inputs":[],"outputs":[{"name":"","type":"bool","internalType":"bool"}],"stateMutability":"view"},{"type":"function","name":"owner","inputs":[],"outputs":[{"name":"","type":"address","internalType":"address"}],"stateMutability":"view"},{"type":"function","name":"pancakeFactory","inputs":[],"outputs":[{"name":"","type":"address","internalType":"address"}],"stateMutability":"view"},{"type":"function","name":"pancakePair","inputs":[],"outputs":[{"name":"","type":"address","internalType":"address"}],"stateMutability":"view"},{"type":"function","name":"pancakeRouter","inputs":[],"outputs":[{"name":"","type":"address","internalType":"contract IUniswapV2Router02"}],"stateMutability":"view"},{"type":"function","name":"payback","inputs":[],"outputs":[{"name":"","type":"address","internalType":"address"}],"stateMutability":"view"},{"type":"function","name":"renounceOwnership","inputs":[],"outputs":[],"stateMutability":"nonpayable"},{"type":"function","name":"sellRate","inputs":[],"outputs":[{"name":"","type":"uint256","internalType":"uint256"}],"stateMutability":"view"},{"type":"function","name":"setAddrConfig","inputs":[{"name":"_treasuryLiquidity","type":"address","internalType":"address"},{"name":"_payback","type":"address","internalType":"address"},{"name":"_nodeDividends","type":"address","internalType":"address"},{"name":"_leo","type":"address","internalType":"address"}],"outputs":[],"stateMutability":"nonpayable"},{"type":"function","name":"setAllowlist","inputs":[{"name":"addrs","type":"address[]","internalType":"address[]"},{"name":"isAllow","type":"bool","internalType":"bool"}],"outputs":[],"stateMutability":"nonpayable"},{"type":"function","name":"setRate","inputs":[{"name":"_buy","type":"uint256","internalType":"uint256"},{"name":"_sell","type":"uint256","internalType":"uint256"}],"outputs":[],"stateMutability":"nonpayable"},{"type":"function","name":"specialWithdraw","inputs":[{"name":"amount","type":"uint256","internalType":"uint256"}],"outputs":[],"stateMutability":"nonpayable"},{"type":"function","name":"swapThreshold","inputs":[],"outputs":[{"name":"","type":"uint256","internalType":"uint256"}],"stateMutability":"view"},{"type":"function","name":"switchBuy","inputs":[{"name":"_b","type":"bool","internalType":"bool"}],"outputs":[],"stateMutability":"nonpayable"},{"type":"function","name":"switchSell","inputs":[{"name":"_b","type":"bool","internalType":"bool"}],"outputs":[],"stateMutability":"nonpayable"},{"type":"function","name":"symbol","inputs":[],"outputs":[{"name":"","type":"string","internalType":"string"}],"stateMutability":"view"},{"type":"function","name":"totalCostUsdt","inputs":[{"name":"","type":"address","internalType":"address"}],"outputs":[{"name":"","type":"uint256","internalType":"uint256"}],"stateMutability":"view"},{"type":"function","name":"totalSupply","inputs":[],"outputs":[{"name":"","type":"uint256","internalType":"uint256"}],"stateMutability":"view"},{"type":"function","name":"transfer","inputs":[{"name":"to","type":"address","internalType":"address"},{"name":"value","type":"uint256","internalType":"uint256"}],"outputs":[{"name":"","type":"bool","internalType":"bool"}],"stateMutability":"nonpayable"},{"type":"function","name":"transferFrom","inputs":[{"name":"from","type":"address","internalType":"address"},{"name":"to","type":"address","internalType":"address"},{"name":"value","type":"uint256","internalType":"uint256"}],"outputs":[{"name":"","type":"bool","internalType":"bool"}],"stateMutability":"nonpayable"},{"type":"function","name":"transferOwnership","inputs":[{"name":"newOwner","type":"address","internalType":"address"}],"outputs":[],"stateMutability":"nonpayable"},{"type":"function","name":"treasuryLiquidity","inputs":[],"outputs":[{"name":"","type":"address","internalType":"address"}],"stateMutability":"view"},{"type":"function","name":"wallet","inputs":[],"outputs":[{"name":"","type":"address","internalType":"address"}],"stateMutability":"view"},{"type":"event","name":"Approval","inputs":[{"name":"owner","type":"address","indexed":true,"internalType":"address"},{"name":"spender","type":"address","indexed":true,"internalType":"address"},{"name":"value","type":"uint256","indexed":false,"internalType":"uint256"}],"anonymous":false},{"type":"event","name":"OwnershipTransferred","inputs":[{"name":"previousOwner","type":"address","indexed":true,"internalType":"address"},{"name":"newOwner","type":"address","indexed":true,"internalType":"address"}],"anonymous":false},{"type":"event","name":"SwapAndSendTax","inputs":[{"name":"recipient","type":"address","indexed":false,"internalType":"address"},{"name":"tokensSwapped","type":"uint256","indexed":false,"internalType":"uint256"}],"anonymous":false},{"type":"event","name":"Transfer","inputs":[{"name":"from","type":"address","indexed":true,"internalType":"address"},{"name":"to","type":"address","indexed":true,"internalType":"address"},{"name":"value","type":"uint256","indexed":false,"internalType":"uint256"}],"anonymous":false},{"type":"error","name":"ERC20InsufficientAllowance","inputs":[{"name":"spender","type":"address","internalType":"address"},{"name":"allowance","type":"uint256","internalType":"uint256"},{"name":"needed","type":"uint256","internalType":"uint256"}]},{"type":"error","name":"ERC20InsufficientBalance","inputs":[{"name":"sender","type":"address","internalType":"address"},{"name":"balance","type":"uint256","internalType":"uint256"},{"name":"needed","type":"uint256","internalType":"uint256"}]},{"type":"error","name":"ERC20InvalidApprover","inputs":[{"name":"approver","type":"address","internalType":"address"}]},{"type":"error","name":"ERC20InvalidReceiver","inputs":[{"name":"receiver","type":"address","internalType":"address"}]},{"type":"error","name":"ERC20InvalidSender","inputs":[{"name":"sender","type":"address","internalType":"address"}]},{"type":"error","name":"ERC20InvalidSpender","inputs":[{"name":"spender","type":"address","internalType":"address"}]},{"type":"error","name":"OwnableInvalidOwner","inputs":[{"name":"owner","type":"address","internalType":"address"}]},{"type":"error","name":"OwnableUnauthorizedAccount","inputs":[{"name":"account","type":"address","internalType":"address"}]}],"bytecode":{"object":"0x6101006040526005600b556005600c55678ac7230489e80000600d55348015610026575f5ffd5b506040516140723803806140728339810160408190526100459161161f565b6040805180820182526003808252620988ab60eb1b6020808401829052845180860190955282855284015233929061007d83826116ef565b50600461008a82826116ef565b5050506001600160a01b0381166100bb57604051631e4fbdf760e01b81525f60048201526024015b60405180910390fd5b6100c481610233565b506100da836a115eec47f6cf7e35000000610284565b7310ed43c718714eb63d5aa57b78b54704e256024e60808190526001600160a01b0382811660e052600880546001600160a01b0319169185169190911790556040805163c45a015560e01b8152905163c45a0155916004808201926020929091908290030181865afa158015610152573d5f5f3e3d5ffd5b505050506040513d601f19601f8201168201806040525081019061017691906117a9565b6001600160a01b0390811660a081905260e0516040516364e329cb60e11b8152306004820152921660248301529063c9c65396906044016020604051808303815f875af11580156101c9573d5f5f3e3d5ffd5b505050506040513d601f19601f820116820180604052508101906101ed91906117a9565b6001600160a01b0390811660c0529283165f908152601060205260408082208054600160ff199182168117909255949095168252902080549092169092179055506119f3565b600580546001600160a01b038381166001600160a01b0319831681179093556040519116919082907f8be0079c531659141344cd1fd0a4f28419497f9722a3daafe3b4186f6b6457e0905f90a35050565b6001600160a01b0382166102ad5760405163ec442f0560e01b81525f60048201526024016100b2565b6102b85f83836102bc565b5050565b60e0516001600160a01b0316158015906102e0575060c0516001600160a01b031615155b1561036b5760e05160c0516040516370a0823160e01b81526001600160a01b0391821660048201525f9291909116906370a0823190602401602060405180830381865afa158015610333573d5f5f3e3d5ffd5b505050506040513d601f19601f8201168201806040525081019061035791906117c9565b9050600e5481111561036957600e8190555b505b600f5460ff168061038357506001600160a01b038316155b8061039557506001600160a01b038216155b806103b757506001600160a01b0383165f9081526010602052604090205460ff165b806103d957506001600160a01b0382165f9081526010602052604090205460ff165b156103ee576103e983838361059b565b505050565b60c0516001600160a01b0390811684821681149184161481156104a457600f54610100900460ff166104515760405162461bcd60e51b815260206004820152600c60248201526b10955657d11254d05093115160a21b60448201526064016100b2565b5f6064600b548561046291906117f4565b61046c919061180b565b90505f610479828661182a565b905061048586826106c1565b61049087308461059b565b61049b87878361059b565b50505050505050565b801561057e57600f5462010000900460ff166104f25760405162461bcd60e51b815260206004820152600d60248201526c14d1531317d11254d050931151609a1b60448201526064016100b2565b5f6064600c548561050391906117f4565b61050d919061180b565b90505f61051a828661182a565b90505f6105278883610787565b905080156105435761053a88308361059b565b61054381610842565b61054e88308561059b565b610562888861055d848661182a565b61059b565b61056c8887610c6a565b610574610d29565b5050505050505050565b61058985858561059b565b610594858585610f18565b5050505050565b6001600160a01b0383166105c5578060025f8282546105ba919061183d565b909155506106359050565b6001600160a01b0383165f90815260208190526040902054818110156106175760405163391434e360e21b81526001600160a01b038516600482015260248101829052604481018390526064016100b2565b6001600160a01b0384165f9081526020819052604090209082900390555b6001600160a01b0382166106515760028054829003905561066f565b6001600160a01b0382165f9081526020819052604090208054820190555b816001600160a01b0316836001600160a01b03167fddf252ad1be2c89b69c2b068fc378daa952ba7f163c4a11628f55a4df523b3ef836040516106b491815260200190565b60405180910390a3505050565b6080516001600160a01b0316826001600160a01b031614806106f6575060c0516001600160a01b0316826001600160a01b0316145b8061070b57506001600160a01b03821661dead145b8061071e57506001600160a01b03821630145b15610727575050565b5f61073061105c565b90505f670de0b6b3a764000061074684846117f4565b610750919061180b565b6001600160a01b0385165f9081526011602052604081208054929350839290919061077c90849061183d565b909155505050505050565b6001600160a01b0382165f908152602081815260408083205460119092528220548291906107b69085906117f4565b6107c0919061180b565b90505f6107cc84611171565b90508181116107df575f9250505061083c565b5f6107ea838361182a565b90505f826107f883886117f4565b610802919061180b565b90505f6005610812600a8061183d565b61081c919061183d565b9050606461082a82846117f4565b610834919061180b565b955050505050505b92915050565b5f6005610850600a8061183d565b61085a919061183d565b90505f816108696005856117f4565b610873919061180b565b90505f82610882600a866117f4565b61088c919061180b565b90505f8161089a848761182a565b6108a4919061182a565b6009549091505f906001600160a01b0316158015906108c257505f84115b15610a445760e0516009546040516370a0823160e01b81526001600160a01b0391821660048201525f9291909116906370a0823190602401602060405180830381865afa158015610915573d5f5f3e3d5ffd5b505050506040513d601f19601f8201168201806040525081019061093991906117c9565b9050610959610946611211565b60095487906001600160a01b031661129d565b60e0516009546040516370a0823160e01b81526001600160a01b0391821660048201525f92849216906370a0823190602401602060405180830381865afa1580156109a6573d5f5f3e3d5ffd5b505050506040513d601f19601f820116820180604052508101906109ca91906117c9565b6109d4919061182a565b90508015610a3d576009546040516315f5e8d760e31b81526001600160a01b039091169063afaf46b890610a0f906002908590600401611850565b5f604051808303815f87803b158015610a26575f5ffd5b505af1158015610a38573d5f5f3e3d5ffd5b505050505b5050610a51565b610a4e848261183d565b90505b600a546001600160a01b031615801590610a6e5750610a6e61137a565b8015610a7957505f83115b15610bf457600654600a546040516370a0823160e01b81526001600160a01b0391821660048201525f9291909116906370a0823190602401602060405180830381865afa158015610acc573d5f5f3e3d5ffd5b505050506040513d601f19601f82011682018060405250810190610af091906117c9565b9050610b10610afd61148d565b600a5486906001600160a01b031661129d565b600654600a546040516370a0823160e01b81526001600160a01b0391821660048201525f92849216906370a0823190602401602060405180830381865afa158015610b5d573d5f5f3e3d5ffd5b505050506040513d601f19601f82011682018060405250810190610b8191906117c9565b610b8b919061182a565b90508015610bed57600a5460405163cc430ced60e01b8152600481018390526001600160a01b039091169063cc430ced906024015f604051808303815f87803b158015610bd6575f5ffd5b505af1158015610be8573d5f5f3e3d5ffd5b505050505b5050610c01565b610bfe838261183d565b90505b6008546001600160a01b031615801590610c1a57505f82115b15610c4257610c3d610c2a611211565b60085484906001600160a01b031661129d565b610c4f565b610c4c828261183d565b90505b8015610c6257610c623061dead8361059b565b505050505050565b6001600160a01b0382165f9081526020818152604080832054601190925290912054811580610ca1575067016345785d8a00008211155b15610cc2575050506001600160a01b03165f90815260116020526040812055565b5f82610cce85846117f4565b610cd8919061180b565b9050610ce4818361182a565b6001600160a01b0386165f90815260116020526040902081905567016345785d8a00001061059457505050506001600160a01b03165f90815260116020526040812055565b305f90815260208190526040902054600d54811080610d4a5750600f5460ff165b15610d525750565b805f6064610d618360146117f4565b610d6b919061180b565b90505f6064610d7b8460286117f4565b610d85919061180b565b90505f6064610d958560146117f4565b610d9f919061180b565b90505f8183610dae868861182a565b610db8919061182a565b610dc2919061182a565b6009549091506001600160a01b031615801590610dde57505f84115b15610a445760e0516009546040516370a0823160e01b81526001600160a01b0391821660048201525f9291909116906370a0823190602401602060405180830381865afa158015610e31573d5f5f3e3d5ffd5b505050506040513d601f19601f82011682018060405250810190610e5591906117c9565b9050610e62610946611211565b60e0516009546040516370a0823160e01b81526001600160a01b0391821660048201525f92849216906370a0823190602401602060405180830381865afa158015610eaf573d5f5f3e3d5ffd5b505050506040513d601f19601f82011682018060405250810190610ed391906117c9565b610edd919061182a565b90508015610a3d576009546040516315f5e8d760e31b81526001600160a01b039091169063afaf46b890610a0f906001908590600401611850565b6080516001600160a01b0316826001600160a01b03161480610f4d575060c0516001600160a01b0316826001600160a01b0316145b80610f6257506001600160a01b03821661dead145b80610f7557506001600160a01b03821630145b15610f7f57505050565b6001600160a01b0383165f90815260208190526040812054610fa290839061183d565b6001600160a01b0385165f90815260116020526040902054909150801580610fc8575081155b15610fd4575050505050565b5f82610fe085846117f4565b610fea919061180b565b9050805f03610ffb57505050505050565b5f611006828461182a565b905067016345785d8a0000811161101a57505f5b6001600160a01b038088165f908152601160205260408082208490559188168152908120805484929061104e90849061183d565b909155505050505050505050565b6040805160028082526060820183525f928392919060208301908036833701905050905030815f815181106110935761109361187a565b60200260200101906001600160a01b031690816001600160a01b03168152505060e051816001815181106110c9576110c961187a565b6001600160a01b03928316602091820292909201015260805160405163d06ca61f60e01b815291169063d06ca61f9061111090670de0b6b3a76400009085906004016118d1565b5f60405180830381865afa15801561112a573d5f5f3e3d5ffd5b505050506040513d5f823e601f3d908101601f1916820160405261115191908101906118f1565b6001815181106111635761116361187a565b602002602001015191505090565b5f8061117b611211565b60805160405163d06ca61f60e01b81529192506001600160a01b03169063d06ca61f906111ae90869085906004016118d1565b5f60405180830381865afa1580156111c8573d5f5f3e3d5ffd5b505050506040513d5f823e601f3d908101601f191682016040526111ef91908101906118f1565b6001815181106112015761120161187a565b6020026020010151915050919050565b604080516002808252606080830184529260208301908036833701905050905030815f815181106112445761124461187a565b60200260200101906001600160a01b031690816001600160a01b03168152505060e0518160018151811061127a5761127a61187a565b60200260200101906001600160a01b031690816001600160a01b03168152505090565b815f036112a957505050565b600f805460ff191660011790556080516112c590309084611529565b6080516001600160a01b0316635c11d795835f8685426040518663ffffffff1660e01b81526004016112fb9594939291906119b8565b5f604051808303815f87803b158015611312575f5ffd5b505af1925050508015611323575060015b1561136b57604080516001600160a01b0383168152602081018490527faedb4dc54dc30d46d331ffcc44cd836607bea96c12e1b21a95210ed899184d04910160405180910390a15b5050600f805460ff1916905550565b6006545f906001600160a01b031661139157505f90565b60a05160065460e05160405163e6a4390560e01b81526001600160a01b03928316600482015290821660248201525f92919091169063e6a4390590604401602060405180830381865afa1580156113ea573d5f5f3e3d5ffd5b505050506040513d601f19601f8201168201806040525081019061140e91906117a9565b90506001600160a01b038116611425575f91505090565b5f816001600160a01b03166318160ddd6040518163ffffffff1660e01b8152600401602060405180830381865afa158015611462573d5f5f3e3d5ffd5b505050506040513d601f19601f8201168201806040525081019061148691906117c9565b1191505090565b6040805160038082526080820190925260609160208201838036833701905050905030815f815181106114c2576114c261187a565b60200260200101906001600160a01b031690816001600160a01b03168152505060e051816001815181106114f8576114f861187a565b6001600160a01b03928316602091820292909201015260065482519116908290600290811061127a5761127a61187a565b6103e983838360016001600160a01b03841661155a5760405163e602df0560e01b81525f60048201526024016100b2565b6001600160a01b03831661158357604051634a1406b160e11b81525f60048201526024016100b2565b6001600160a01b038085165f90815260016020908152604080832093871683529290522082905580156115fe57826001600160a01b0316846001600160a01b03167f8c5be1e5ebec7d5bd14f71427d1e84f3dd0314c0f7b2291e5b200ac8c7c3b925846040516115f591815260200190565b60405180910390a35b50505050565b80516001600160a01b038116811461161a575f5ffd5b919050565b5f5f5f60608486031215611631575f5ffd5b61163a84611604565b925061164860208501611604565b915061165660408501611604565b90509250925092565b634e487b7160e01b5f52604160045260245ffd5b600181811c9082168061168757607f821691505b6020821081036116a557634e487b7160e01b5f52602260045260245ffd5b50919050565b601f8211156103e957805f5260205f20601f840160051c810160208510156116d05750805b601f840160051c820191505b81811015610594575f81556001016116dc565b81516001600160401b038111156117085761170861165f565b61171c816117168454611673565b846116ab565b6020601f82116001811461174e575f83156117375750848201515b5f19600385901b1c1916600184901b178455610594565b5f84815260208120601f198516915b8281101561177d578785015182556020948501946001909201910161175d565b508482101561179a57868401515f19600387901b60f8161c191681555b50505050600190811b01905550565b5f602082840312156117b9575f5ffd5b6117c282611604565b9392505050565b5f602082840312156117d9575f5ffd5b5051919050565b634e487b7160e01b5f52601160045260245ffd5b808202811582820484141761083c5761083c6117e0565b5f8261182557634e487b7160e01b5f52601260045260245ffd5b500490565b8181038181111561083c5761083c6117e0565b8082018082111561083c5761083c6117e0565b604081016004841061187057634e487b7160e01b5f52602160045260245ffd5b9281526020015290565b634e487b7160e01b5f52603260045260245ffd5b5f8151808452602084019350602083015f5b828110156118c75781516001600160a01b03168652602095860195909101906001016118a0565b5093949350505050565b828152604060208201525f6118e9604083018461188e565b949350505050565b5f60208284031215611901575f5ffd5b81516001600160401b03811115611916575f5ffd5b8201601f81018413611926575f5ffd5b80516001600160401b0381111561193f5761193f61165f565b604051600582901b90603f8201601f191681016001600160401b038111828210171561196d5761196d61165f565b60405291825260208184018101929081018784111561198a575f5ffd5b6020850194505b838510156119ad57845180825260209586019590935001611991565b509695505050505050565b85815284602082015260a060408201525f6119d660a083018661188e565b6001600160a01b0394909416606083015250608001529392505050565b60805160a05160c05160e0516125a4611ace5f395f81816104960152818161088901528181610dd701528181610e7b015281816113a00152818161144f015281816118f70152818161199301528181611cd601528181611e7b0152611fe401525f8181610448015281816106db0152818161070c01528181610e0a01528181610e5101528181610f85015281816111790152611a8001525f81816105400152611ea501525f818161046f015281816108e00152818161113e01528181611a4501528181611be701528181611d4a0152611d8601526125a45ff3fe608060405234801561000f575f5ffd5b506004361061024a575f3560e01c8063854bec8711610140578063c7fb372f116100bf578063e0f1c9c511610084578063e0f1c9c51461053b578063f01fe7c414610562578063f1eae64a14610575578063f2fde38b14610588578063fc37987b1461059b578063fcb1138d14610308575f5ffd5b8063c7fb372f146104b8578063ca77f99c146104cb578063cf576cc7146104de578063d4a67930146104f1578063dd62ed3e14610503575f5ffd5b8063a7cd52cb11610105578063a7cd52cb1461040e578063a9059cbb14610430578063b8c9d25c14610443578063c21ebd071461046a578063c54e44eb14610491575f5ffd5b8063854bec87146103d25780638da5cb5b146103e557806395d89b41146103f65780639d1b464a146103fe578063a5aff84114610406575f5ffd5b806342728ffd116101cc5780636cf77e9a116101915780636cf77e9a146103735780636f93b55c1461037c57806370a082311461038f578063715018a6146103b757806372207cc3146103bf575f5ffd5b806342728ffd1461031057806346df2ccb14610323578063521eb2731461033857806360d1d4a41461034b5780636217229b1461036a575f5ffd5b80630c355b47116102125780630c355b47146102d657806318160ddd146102de57806323b872dd146102e6578063313ce567146102f9578063416702c914610308575f5ffd5b806303fd2a451461024e5780630445b6671461027457806306fdde031461028b578063095ea7b3146102a057806309fb6698146102c3575b5f5ffd5b61025761dead81565b6040516001600160a01b0390911681526020015b60405180910390f35b61027d600d5481565b60405190815260200161026b565b6102936105a4565b60405161026b9190612047565b6102b36102ae366004612090565b610634565b604051901515815260200161026b565b600754610257906001600160a01b031681565b61027d600581565b60025461027d565b6102b36102f43660046120ba565b61064d565b6040516012815260200161026b565b61027d600a81565b600654610257906001600160a01b031681565b6103366103313660046120f8565b610670565b005b600854610257906001600160a01b031681565b61027d610359366004612118565b60116020525f908152604090205481565b61027d600c5481565b61027d600e5481565b61033661038a36600461213a565b610683565b61027d61039d366004612118565b6001600160a01b03165f9081526020819052604090205490565b61033661077b565b6103366103cd366004612151565b61078e565b600a54610257906001600160a01b031681565b6005546001600160a01b0316610257565b610293610821565b61027d610830565b600e5461027d565b6102b361041c366004612118565b60106020525f908152604090205460ff1681565b6102b361043e366004612090565b610982565b6102577f000000000000000000000000000000000000000000000000000000000000000081565b6102577f000000000000000000000000000000000000000000000000000000000000000081565b6102577f000000000000000000000000000000000000000000000000000000000000000081565b600954610257906001600160a01b031681565b6103366104d93660046121be565b61098f565b6103366104ec3660046121be565b6109b3565b600f546102b390610100900460ff1681565b61027d6105113660046121d7565b6001600160a01b039182165f90815260016020908152604080832093909416825291909152205490565b6102577f000000000000000000000000000000000000000000000000000000000000000081565b610336610570366004612276565b6109d5565b600f546102b39062010000900460ff1681565b610336610596366004612118565b610a3c565b61027d600b5481565b6060600380546105b390612327565b80601f01602080910402602001604051908101604052809291908181526020018280546105df90612327565b801561062a5780601f106106015761010080835404028352916020019161062a565b820191905f5260205f20905b81548152906001019060200180831161060d57829003601f168201915b5050505050905090565b5f33610641818585610a79565b60019150505b92915050565b5f3361065a858285610a86565b610665858585610b02565b506001949350505050565b610678610b5f565b600b91909155600c55565b6007546001600160a01b031633146106d25760405162461bcd60e51b815260206004820152600d60248201526c2727afa822a926a4a9a9a4a7a760991b60448201526064015b60405180910390fd5b60075461070a907f0000000000000000000000000000000000000000000000000000000000000000906001600160a01b031683610b8c565b7f00000000000000000000000000000000000000000000000000000000000000006001600160a01b031663fff6cae96040518163ffffffff1660e01b81526004015f604051808303815f87803b158015610762575f5ffd5b505af1158015610774573d5f5f3e3d5ffd5b5050505050565b610783610b5f565b61078c5f610cb2565b565b610796610b5f565b600780546001600160a01b039586166001600160a01b03199182168117909255600a805495871695821686179055600980549487169482168517905560068054939096169216919091179093555f92835260106020526040808420805460ff199081166001908117909255938552818520805485168217905591845290922080549091169091179055565b6060600480546105b390612327565b6040805160028082526060820183525f928392919060208301908036833701905050905030815f815181106108675761086761235f565b60200260200101906001600160a01b031690816001600160a01b0316815250507f0000000000000000000000000000000000000000000000000000000000000000816001815181106108bb576108bb61235f565b6001600160a01b03928316602091820292909201015260405163d06ca61f60e01b81527f00000000000000000000000000000000000000000000000000000000000000009091169063d06ca61f9061092190670de0b6b3a76400009085906004016123b6565b5f60405180830381865afa15801561093b573d5f5f3e3d5ffd5b505050506040513d5f823e601f3d908101601f1916820160405261096291908101906123d6565b6001815181106109745761097461235f565b602002602001015191505090565b5f33610641818585610b02565b610997610b5f565b600f8054911515620100000262ff000019909216919091179055565b6109bb610b5f565b600f80549115156101000261ff0019909216919091179055565b6109dd610b5f565b5f5b8251811015610a37578160105f8584815181106109fe576109fe61235f565b6020908102919091018101516001600160a01b031682528101919091526040015f20805460ff19169115159190911790556001016109df565b505050565b610a44610b5f565b6001600160a01b038116610a6d57604051631e4fbdf760e01b81525f60048201526024016106c9565b610a7681610cb2565b50565b610a378383836001610d03565b6001600160a01b038381165f908152600160209081526040808320938616835292905220545f19811015610afc5781811015610aee57604051637dc7a0d960e11b81526001600160a01b038416600482015260248101829052604481018390526064016106c9565b610afc84848484035f610d03565b50505050565b6001600160a01b038316610b2b57604051634b637e8f60e11b81525f60048201526024016106c9565b6001600160a01b038216610b545760405163ec442f0560e01b81525f60048201526024016106c9565b610a37838383610dd5565b6005546001600160a01b0316331461078c5760405163118cdaa760e01b81523360048201526024016106c9565b6001600160a01b038316610bb6578060025f828254610bab919061247b565b90915550610c269050565b6001600160a01b0383165f9081526020819052604090205481811015610c085760405163391434e360e21b81526001600160a01b038516600482015260248101829052604481018390526064016106c9565b6001600160a01b0384165f9081526020819052604090209082900390555b6001600160a01b038216610c4257600280548290039055610c60565b6001600160a01b0382165f9081526020819052604090208054820190555b816001600160a01b0316836001600160a01b03167fddf252ad1be2c89b69c2b068fc378daa952ba7f163c4a11628f55a4df523b3ef83604051610ca591815260200190565b60405180910390a3505050565b600580546001600160a01b038381166001600160a01b0319831681179093556040519116919082907f8be0079c531659141344cd1fd0a4f28419497f9722a3daafe3b4186f6b6457e0905f90a35050565b6001600160a01b038416610d2c5760405163e602df0560e01b81525f60048201526024016106c9565b6001600160a01b038316610d5557604051634a1406b160e11b81525f60048201526024016106c9565b6001600160a01b038085165f9081526001602090815260408083209387168352929052208290558015610afc57826001600160a01b0316846001600160a01b03167f8c5be1e5ebec7d5bd14f71427d1e84f3dd0314c0f7b2291e5b200ac8c7c3b92584604051610dc791815260200190565b60405180910390a350505050565b7f00000000000000000000000000000000000000000000000000000000000000006001600160a01b031615801590610e3557507f00000000000000000000000000000000000000000000000000000000000000006001600160a01b031615155b15610efa576040516370a0823160e01b81526001600160a01b037f0000000000000000000000000000000000000000000000000000000000000000811660048301525f917f0000000000000000000000000000000000000000000000000000000000000000909116906370a0823190602401602060405180830381865afa158015610ec2573d5f5f3e3d5ffd5b505050506040513d601f19601f82011682018060405250810190610ee6919061248e565b9050600e54811115610ef857600e8190555b505b600f5460ff1680610f1257506001600160a01b038316155b80610f2457506001600160a01b038216155b80610f4657506001600160a01b0383165f9081526010602052604090205460ff165b80610f6857506001600160a01b0382165f9081526010602052604090205460ff165b15610f7857610a37838383610b8c565b6001600160a01b038381167f0000000000000000000000000000000000000000000000000000000000000000821690811491841614811561104c57600f54610100900460ff16610ff95760405162461bcd60e51b815260206004820152600c60248201526b10955657d11254d05093115160a21b60448201526064016106c9565b5f6064600b548561100a91906124a5565b61101491906124bc565b90505f61102182866124db565b905061102d868261113c565b611038873084610b8c565b611043878783610b8c565b50505050505050565b801561112657600f5462010000900460ff1661109a5760405162461bcd60e51b815260206004820152600d60248201526c14d1531317d11254d050931151609a1b60448201526064016106c9565b5f6064600c54856110ab91906124a5565b6110b591906124bc565b90505f6110c282866124db565b90505f6110cf888361123e565b905080156110eb576110e2883083610b8c565b6110eb816112f7565b6110f6883085610b8c565b61110a888861110584866124db565b610b8c565b611114888761175a565b61111c611819565b5050505050505050565b611131858585610b8c565b610774858585611a43565b7f00000000000000000000000000000000000000000000000000000000000000006001600160a01b0316826001600160a01b031614806111ad57507f00000000000000000000000000000000000000000000000000000000000000006001600160a01b0316826001600160a01b0316145b806111c257506001600160a01b03821661dead145b806111d557506001600160a01b03821630145b156111de575050565b5f6111e7610830565b90505f670de0b6b3a76400006111fd84846124a5565b61120791906124bc565b6001600160a01b0385165f9081526011602052604081208054929350839290919061123390849061247b565b909155505050505050565b6001600160a01b0382165f9081526020818152604080832054601190925282205482919061126d9085906124a5565b61127791906124bc565b90505f61128384611bc3565b9050818111611296575f92505050610647565b5f6112a183836124db565b90505f826112af83886124a5565b6112b991906124bc565b90505f60056112c9600a8061247b565b6112d3919061247b565b905060646112e182846124a5565b6112eb91906124bc565b98975050505050505050565b5f6005611305600a8061247b565b61130f919061247b565b90505f8161131e6005856124a5565b61132891906124bc565b90505f82611337600a866124a5565b61134191906124bc565b90505f8161134f84876124db565b61135991906124db565b6009549091505f906001600160a01b03161580159061137757505f84115b15611534576009546040516370a0823160e01b81526001600160a01b0391821660048201525f917f000000000000000000000000000000000000000000000000000000000000000016906370a0823190602401602060405180830381865afa1580156113e5573d5f5f3e3d5ffd5b505050506040513d601f19601f82011682018060405250810190611409919061248e565b9050611429611416611c81565b60095487906001600160a01b0316611d2b565b6009546040516370a0823160e01b81526001600160a01b0391821660048201525f9183917f0000000000000000000000000000000000000000000000000000000000000000909116906370a0823190602401602060405180830381865afa158015611496573d5f5f3e3d5ffd5b505050506040513d601f19601f820116820180604052508101906114ba919061248e565b6114c491906124db565b9050801561152d576009546040516315f5e8d760e31b81526001600160a01b039091169063afaf46b8906114ff9060029085906004016124ee565b5f604051808303815f87803b158015611516575f5ffd5b505af1158015611528573d5f5f3e3d5ffd5b505050505b5050611541565b61153e848261247b565b90505b600a546001600160a01b03161580159061155e575061155e611e42565b801561156957505f83115b156116e457600654600a546040516370a0823160e01b81526001600160a01b0391821660048201525f9291909116906370a0823190602401602060405180830381865afa1580156115bc573d5f5f3e3d5ffd5b505050506040513d601f19601f820116820180604052508101906115e0919061248e565b90506116006115ed611f8d565b600a5486906001600160a01b0316611d2b565b600654600a546040516370a0823160e01b81526001600160a01b0391821660048201525f92849216906370a0823190602401602060405180830381865afa15801561164d573d5f5f3e3d5ffd5b505050506040513d601f19601f82011682018060405250810190611671919061248e565b61167b91906124db565b905080156116dd57600a5460405163cc430ced60e01b8152600481018390526001600160a01b039091169063cc430ced906024015f604051808303815f87803b1580156116c6575f5ffd5b505af11580156116d8573d5f5f3e3d5ffd5b505050505b50506116f1565b6116ee838261247b565b90505b6008546001600160a01b03161580159061170a57505f82115b156117325761172d61171a611c81565b60085484906001600160a01b0316611d2b565b61173f565b61173c828261247b565b90505b8015611752576117523061dead83610b8c565b505050505050565b6001600160a01b0382165f9081526020818152604080832054601190925290912054811580611791575067016345785d8a00008211155b156117b2575050506001600160a01b03165f90815260116020526040812055565b5f826117be85846124a5565b6117c891906124bc565b90506117d481836124db565b6001600160a01b0386165f90815260116020526040902081905567016345785d8a00001061077457505050506001600160a01b03165f90815260116020526040812055565b305f90815260208190526040902054600d5481108061183a5750600f5460ff165b156118425750565b805f60646118518360146124a5565b61185b91906124bc565b90505f606461186b8460286124a5565b61187591906124bc565b90505f60646118858560146124a5565b61188f91906124bc565b90505f818361189e86886124db565b6118a891906124db565b6118b291906124db565b6009549091506001600160a01b0316158015906118ce57505f84115b15611534576009546040516370a0823160e01b81526001600160a01b0391821660048201525f917f000000000000000000000000000000000000000000000000000000000000000016906370a0823190602401602060405180830381865afa15801561193c573d5f5f3e3d5ffd5b505050506040513d601f19601f82011682018060405250810190611960919061248e565b905061196d611416611c81565b6009546040516370a0823160e01b81526001600160a01b0391821660048201525f9183917f0000000000000000000000000000000000000000000000000000000000000000909116906370a0823190602401602060405180830381865afa1580156119da573d5f5f3e3d5ffd5b505050506040513d601f19601f820116820180604052508101906119fe919061248e565b611a0891906124db565b9050801561152d576009546040516315f5e8d760e31b81526001600160a01b039091169063afaf46b8906114ff9060019085906004016124ee565b7f00000000000000000000000000000000000000000000000000000000000000006001600160a01b0316826001600160a01b03161480611ab457507f00000000000000000000000000000000000000000000000000000000000000006001600160a01b0316826001600160a01b0316145b80611ac957506001600160a01b03821661dead145b80611adc57506001600160a01b03821630145b15611ae657505050565b6001600160a01b0383165f90815260208190526040812054611b0990839061247b565b6001600160a01b0385165f90815260116020526040902054909150801580611b2f575081155b15611b3b575050505050565b5f82611b4785846124a5565b611b5191906124bc565b9050805f03611b6257505050505050565b5f611b6d82846124db565b905067016345785d8a00008111611b8157505f5b6001600160a01b038088165f9081526011602052604080822084905591881681529081208054849290611bb590849061247b565b909155505050505050505050565b5f5f611bcd611c81565b60405163d06ca61f60e01b81529091506001600160a01b037f0000000000000000000000000000000000000000000000000000000000000000169063d06ca61f90611c1e90869085906004016123b6565b5f60405180830381865afa158015611c38573d5f5f3e3d5ffd5b505050506040513d5f823e601f3d908101601f19168201604052611c5f91908101906123d6565b600181518110611c7157611c7161235f565b6020026020010151915050919050565b604080516002808252606080830184529260208301908036833701905050905030815f81518110611cb457611cb461235f565b60200260200101906001600160a01b031690816001600160a01b0316815250507f000000000000000000000000000000000000000000000000000000000000000081600181518110611d0857611d0861235f565b60200260200101906001600160a01b031690816001600160a01b03168152505090565b815f03611d3757505050565b600f805460ff19166001179055611d6f307f000000000000000000000000000000000000000000000000000000000000000084610a79565b604051635c11d79560e01b81526001600160a01b037f00000000000000000000000000000000000000000000000000000000000000001690635c11d79590611dc39085905f90889087904290600401612518565b5f604051808303815f87803b158015611dda575f5ffd5b505af1925050508015611deb575060015b15611e3357604080516001600160a01b0383168152602081018490527faedb4dc54dc30d46d331ffcc44cd836607bea96c12e1b21a95210ed899184d04910160405180910390a15b5050600f805460ff1916905550565b6006545f906001600160a01b0316611e5957505f90565b60065460405163e6a4390560e01b81526001600160a01b0391821660048201527f0000000000000000000000000000000000000000000000000000000000000000821660248201525f917f0000000000000000000000000000000000000000000000000000000000000000169063e6a4390590604401602060405180830381865afa158015611eea573d5f5f3e3d5ffd5b505050506040513d601f19601f82011682018060405250810190611f0e9190612553565b90506001600160a01b038116611f25575f91505090565b5f816001600160a01b03166318160ddd6040518163ffffffff1660e01b8152600401602060405180830381865afa158015611f62573d5f5f3e3d5ffd5b505050506040513d601f19601f82011682018060405250810190611f86919061248e565b1191505090565b6040805160038082526080820190925260609160208201838036833701905050905030815f81518110611fc257611fc261235f565b60200260200101906001600160a01b031690816001600160a01b0316815250507f0000000000000000000000000000000000000000000000000000000000000000816001815181106120165761201661235f565b6001600160a01b039283166020918202929092010152600654825191169082906002908110611d0857611d0861235f565b602081525f82518060208401528060208501604085015e5f604082850101526040601f19601f83011684010191505092915050565b6001600160a01b0381168114610a76575f5ffd5b5f5f604083850312156120a1575f5ffd5b82356120ac8161207c565b946020939093013593505050565b5f5f5f606084860312156120cc575f5ffd5b83356120d78161207c565b925060208401356120e78161207c565b929592945050506040919091013590565b5f5f60408385031215612109575f5ffd5b50508035926020909101359150565b5f60208284031215612128575f5ffd5b81356121338161207c565b9392505050565b5f6020828403121561214a575f5ffd5b5035919050565b5f5f5f5f60808587031215612164575f5ffd5b843561216f8161207c565b9350602085013561217f8161207c565b9250604085013561218f8161207c565b9150606085013561219f8161207c565b939692955090935050565b803580151581146121b9575f5ffd5b919050565b5f602082840312156121ce575f5ffd5b612133826121aa565b5f5f604083850312156121e8575f5ffd5b82356121f38161207c565b915060208301356122038161207c565b809150509250929050565b634e487b7160e01b5f52604160045260245ffd5b604051601f8201601f1916810167ffffffffffffffff8111828210171561224b5761224b61220e565b604052919050565b5f67ffffffffffffffff82111561226c5761226c61220e565b5060051b60200190565b5f5f60408385031215612287575f5ffd5b823567ffffffffffffffff81111561229d575f5ffd5b8301601f810185136122ad575f5ffd5b80356122c06122bb82612253565b612222565b8082825260208201915060208360051b8501019250878311156122e1575f5ffd5b6020840193505b8284101561230c5783356122fb8161207c565b8252602093840193909101906122e8565b945061231e92505050602084016121aa565b90509250929050565b600181811c9082168061233b57607f821691505b60208210810361235957634e487b7160e01b5f52602260045260245ffd5b50919050565b634e487b7160e01b5f52603260045260245ffd5b5f8151808452602084019350602083015f5b828110156123ac5781516001600160a01b0316865260209586019590910190600101612385565b5093949350505050565b828152604060208201525f6123ce6040830184612373565b949350505050565b5f602082840312156123e6575f5ffd5b815167ffffffffffffffff8111156123fc575f5ffd5b8201601f8101841361240c575f5ffd5b805161241a6122bb82612253565b8082825260208201915060208360051b85010192508683111561243b575f5ffd5b6020840193505b8284101561245d578351825260209384019390910190612442565b9695505050505050565b634e487b7160e01b5f52601160045260245ffd5b8082018082111561064757610647612467565b5f6020828403121561249e575f5ffd5b5051919050565b808202811582820484141761064757610647612467565b5f826124d657634e487b7160e01b5f52601260045260245ffd5b500490565b8181038181111561064757610647612467565b604081016004841061250e57634e487b7160e01b5f52602160045260245ffd5b9281526020015290565b85815284602082015260a060408201525f61253660a0830186612373565b6001600160a01b0394909416606083015250608001529392505050565b5f60208284031215612563575f5ffd5b81516121338161207c56fea2646970667358221220037ef52e5639a636effb0bcff1927c8bf5d217c5bf2521a8bb04b16a70dc80a264736f6c634300081e0033","linkReferences":{}},"methodIdentifiers":{"DEAD()":"03fd2a45","PROFIT_NODE_TAX_RATE()":"0c355b47","PROFIT_SUBCOIN_TAX_RATE()":"416702c9","PROFIT_WALLET_TAX_RATE()":"fcb1138d","USDT()":"c54e44eb","allowance(address,address)":"dd62ed3e","allowlist(address)":"a7cd52cb","approve(address,uint256)":"095ea7b3","balanceOf(address)":"70a08231","buyRate()":"fc37987b","currentPrice()":"9d1b464a","decimals()":"313ce567","getHighestReserve()":"a5aff841","highestReserve()":"6cf77e9a","leo()":"42728ffd","name()":"06fdde03","nodeDividends()":"c7fb372f","openBuy()":"d4a67930","openSell()":"f1eae64a","owner()":"8da5cb5b","pancakeFactory()":"e0f1c9c5","pancakePair()":"b8c9d25c","pancakeRouter()":"c21ebd07","payback()":"854bec87","renounceOwnership()":"715018a6","sellRate()":"6217229b","setAddrConfig(address,address,address,address)":"72207cc3","setAllowlist(address[],bool)":"f01fe7c4","setRate(uint256,uint256)":"46df2ccb","specialWithdraw(uint256)":"6f93b55c","swapThreshold()":"0445b667","switchBuy(bool)":"cf576cc7","switchSell(bool)":"ca77f99c","symbol()":"95d89b41","totalCostUsdt(address)":"60d1d4a4","totalSupply()":"18160ddd","transfer(address,uint256)":"a9059cbb","transferFrom(address,address,uint256)":"23b872dd","transferOwnership(address)":"f2fde38b","treasuryLiquidity()":"09fb6698","wallet()":"521eb273"},"id":71}