{"abi":[{"type":"function","name":"UPGRADE_INTERFACE_VERSION","inputs":[],"outputs":[{"name":"","type":"string","internalType":"string"}],"stateMutability":"view"},{"type":"function","name":"USDT","inputs":[],"outputs":[{"name":"","type":"address","internalType":"address"}],"stateMutability":"view"},{"type":"function","name":"admin","inputs":[],"outputs":[{"name":"","type":"address","internalType":"address"}],"stateMutability":"view"},{"type":"function","name":"breakerReserve","inputs":[],"outputs":[{"name":"","type":"uint256","internalType":"uint256"}],"stateMutability":"view"},{"type":"function","name":"breakerTriggerRatio","inputs":[],"outputs":[{"name":"","type":"uint256","internalType":"uint256"}],"stateMutability":"view"},{"type":"function","name":"cancelFee","inputs":[],"outputs":[{"name":"","type":"uint256","internalType":"uint256"}],"stateMutability":"view"},{"type":"function","name":"cancelQueue","inputs":[{"name":"user","type":"address","internalType":"address"},{"name":"queueId","type":"uint256","internalType":"uint256"}],"outputs":[],"stateMutability":"nonpayable"},{"type":"function","name":"circuitBreaker","inputs":[],"outputs":[{"name":"","type":"bool","internalType":"bool"}],"stateMutability":"view"},{"type":"function","name":"claim","inputs":[{"name":"user","type":"address","internalType":"address"},{"name":"orderIndex","type":"uint256","internalType":"uint256"}],"outputs":[],"stateMutability":"nonpayable"},{"type":"function","name":"dailyQuota","inputs":[{"name":"","type":"uint256","internalType":"uint256"}],"outputs":[{"name":"stakeUsed","type":"uint256","internalType":"uint256"},{"name":"unstakeUsed","type":"uint256","internalType":"uint256"}],"stateMutability":"view"},{"type":"function","name":"drawFomoRewards","inputs":[],"outputs":[],"stateMutability":"nonpayable"},{"type":"function","name":"emergencyProcessQueue","inputs":[],"outputs":[],"stateMutability":"nonpayable"},{"type":"function","name":"emergencyWithdraw","inputs":[{"name":"token","type":"address","internalType":"address"},{"name":"amount","type":"uint256","internalType":"uint256"},{"name":"to","type":"address","internalType":"address"}],"outputs":[],"stateMutability":"nonpayable"},{"type":"function","name":"fomoMinAmount","inputs":[],"outputs":[{"name":"","type":"uint256","internalType":"uint256"}],"stateMutability":"view"},{"type":"function","name":"fomoPoolBalance","inputs":[],"outputs":[{"name":"","type":"uint256","internalType":"uint256"}],"stateMutability":"view"},{"type":"function","name":"fomoRewardCount","inputs":[],"outputs":[{"name":"","type":"uint256","internalType":"uint256"}],"stateMutability":"view"},{"type":"function","name":"freeDays","inputs":[],"outputs":[{"name":"","type":"uint256","internalType":"uint256"}],"stateMutability":"view"},{"type":"function","name":"getCurrentRound","inputs":[],"outputs":[{"name":"roundId","type":"uint256","internalType":"uint256"},{"name":"lastQualified","type":"address[21]","internalType":"address[21]"},{"name":"count","type":"uint256","internalType":"uint256"},{"name":"poolBalance","type":"uint256","internalType":"uint256"}],"stateMutability":"view"},{"type":"function","name":"getFomoAwardsInfo","inputs":[{"name":"user","type":"address","internalType":"address"}],"outputs":[{"name":"","type":"tuple[]","internalType":"struct Models.FomoAwards[]","components":[{"name":"rounds","type":"uint256","internalType":"uint256"},{"name":"amount","type":"uint256","internalType":"uint256"}]}],"stateMutability":"view"},{"type":"function","name":"getPendingOrder","inputs":[{"name":"queueId","type":"uint256","internalType":"uint256"}],"outputs":[{"name":"user","type":"address","internalType":"address"},{"name":"amount","type":"uint256","internalType":"uint256"},{"name":"orderIndex","type":"uint256","internalType":"uint256"},{"name":"stakeIndex","type":"uint8","internalType":"uint8"},{"name":"createdAt","type":"uint256","internalType":"uint256"},{"name":"status","type":"uint8","internalType":"uint8"}],"stateMutability":"view"},{"type":"function","name":"getQueueRange","inputs":[],"outputs":[{"name":"_head","type":"uint256","internalType":"uint256"},{"name":"_tail","type":"uint256","internalType":"uint256"}],"stateMutability":"view"},{"type":"function","name":"getTodayQuota","inputs":[],"outputs":[{"name":"stakeUsed","type":"uint256","internalType":"uint256"},{"name":"stakeRemaining","type":"uint256","internalType":"uint256"},{"name":"unstakeUsed","type":"uint256","internalType":"uint256"},{"name":"unstakeRemaining","type":"uint256","internalType":"uint256"}],"stateMutability":"view"},{"type":"function","name":"getUserQueueIds","inputs":[{"name":"user","type":"address","internalType":"address"}],"outputs":[{"name":"","type":"uint256[]","internalType":"uint256[]"}],"stateMutability":"view"},{"type":"function","name":"head","inputs":[],"outputs":[{"name":"","type":"uint256","internalType":"uint256"}],"stateMutability":"view"},{"type":"function","name":"initialize","inputs":[{"name":"_admin","type":"address","internalType":"address"},{"name":"_lex","type":"address","internalType":"address"},{"name":"_pair","type":"address","internalType":"address"},{"name":"_USDT","type":"address","internalType":"address"},{"name":"_treasury","type":"address","internalType":"address"},{"name":"_treasuryLiquidity","type":"address","internalType":"address"},{"name":"_referrals","type":"address","internalType":"address"}],"outputs":[],"stateMutability":"nonpayable"},{"type":"function","name":"launchTime","inputs":[],"outputs":[{"name":"","type":"uint256","internalType":"uint256"}],"stateMutability":"view"},{"type":"function","name":"lex","inputs":[],"outputs":[{"name":"","type":"address","internalType":"address"}],"stateMutability":"view"},{"type":"function","name":"owner","inputs":[],"outputs":[{"name":"","type":"address","internalType":"address"}],"stateMutability":"view"},{"type":"function","name":"pair","inputs":[],"outputs":[{"name":"","type":"address","internalType":"address"}],"stateMutability":"view"},{"type":"function","name":"proxiableUUID","inputs":[],"outputs":[{"name":"","type":"bytes32","internalType":"bytes32"}],"stateMutability":"view"},{"type":"function","name":"queue","inputs":[{"name":"","type":"uint256","internalType":"uint256"}],"outputs":[{"name":"user","type":"address","internalType":"address"},{"name":"amount","type":"uint256","internalType":"uint256"},{"name":"orderIndex","type":"uint256","internalType":"uint256"},{"name":"stakeIndex","type":"uint8","internalType":"uint8"},{"name":"createdAt","type":"uint256","internalType":"uint256"},{"name":"status","type":"uint8","internalType":"uint8"}],"stateMutability":"view"},{"type":"function","name":"referrals","inputs":[],"outputs":[{"name":"","type":"address","internalType":"address"}],"stateMutability":"view"},{"type":"function","name":"renounceOwnership","inputs":[],"outputs":[],"stateMutability":"nonpayable"},{"type":"function","name":"restake","inputs":[{"name":"user","type":"address","internalType":"address"},{"name":"orderIndex","type":"uint256","internalType":"uint256"},{"name":"newStakeIndex","type":"uint256","internalType":"uint256"}],"outputs":[],"stateMutability":"nonpayable"},{"type":"function","name":"rounds","inputs":[],"outputs":[{"name":"","type":"uint256","internalType":"uint256"}],"stateMutability":"view"},{"type":"function","name":"roundsData","inputs":[{"name":"","type":"uint256","internalType":"uint256"}],"outputs":[{"name":"count","type":"uint256","internalType":"uint256"}],"stateMutability":"view"},{"type":"function","name":"router","inputs":[],"outputs":[{"name":"","type":"address","internalType":"address"}],"stateMutability":"view"},{"type":"function","name":"setAddrConfig","inputs":[{"name":"_router","type":"address","internalType":"address"}],"outputs":[],"stateMutability":"nonpayable"},{"type":"function","name":"setCircuitBreakerConfig","inputs":[{"name":"_breakerTriggerRatio","type":"uint256","internalType":"uint256"}],"outputs":[],"stateMutability":"nonpayable"},{"type":"function","name":"setFees","inputs":[{"name":"_stakeFee","type":"uint256","internalType":"uint256"},{"name":"_cancelFee","type":"uint256","internalType":"uint256"}],"outputs":[],"stateMutability":"nonpayable"},{"type":"function","name":"setFomoConfig","inputs":[{"name":"_fomoMinAmount","type":"uint256","internalType":"uint256"}],"outputs":[],"stateMutability":"nonpayable"},{"type":"function","name":"setLaunchAndFreeDays","inputs":[{"name":"_launchTime","type":"uint256","internalType":"uint256"},{"name":"_freeDays","type":"uint256","internalType":"uint256"}],"outputs":[],"stateMutability":"nonpayable"},{"type":"function","name":"setQuotaRatios","inputs":[{"name":"_stakeRatio","type":"uint256","internalType":"uint256"},{"name":"_unstakeRatio","type":"uint256","internalType":"uint256"}],"outputs":[],"stateMutability":"nonpayable"},{"type":"function","name":"stake","inputs":[{"name":"user","type":"address","internalType":"address"},{"name":"amount","type":"uint256","internalType":"uint256"},{"name":"stakeIndex","type":"uint8","internalType":"uint8"}],"outputs":[],"stateMutability":"nonpayable"},{"type":"function","name":"stakeFee","inputs":[],"outputs":[{"name":"","type":"uint256","internalType":"uint256"}],"stateMutability":"view"},{"type":"function","name":"stakeRatio","inputs":[],"outputs":[{"name":"","type":"uint256","internalType":"uint256"}],"stateMutability":"view"},{"type":"function","name":"tail","inputs":[],"outputs":[{"name":"","type":"uint256","internalType":"uint256"}],"stateMutability":"view"},{"type":"function","name":"transferOwnership","inputs":[{"name":"newOwner","type":"address","internalType":"address"}],"outputs":[],"stateMutability":"nonpayable"},{"type":"function","name":"treasury","inputs":[],"outputs":[{"name":"","type":"address","internalType":"address"}],"stateMutability":"view"},{"type":"function","name":"treasuryLiquidity","inputs":[],"outputs":[{"name":"","type":"address","internalType":"address"}],"stateMutability":"view"},{"type":"function","name":"unstake","inputs":[{"name":"user","type":"address","internalType":"address"},{"name":"orderIndex","type":"uint256","internalType":"uint256"}],"outputs":[],"stateMutability":"nonpayable"},{"type":"function","name":"unstakeRatio","inputs":[],"outputs":[{"name":"","type":"uint256","internalType":"uint256"}],"stateMutability":"view"},{"type":"function","name":"upgradeToAndCall","inputs":[{"name":"newImplementation","type":"address","internalType":"address"},{"name":"data","type":"bytes","internalType":"bytes"}],"outputs":[],"stateMutability":"payable"},{"type":"function","name":"userQueueAmount","inputs":[{"name":"","type":"address","internalType":"address"}],"outputs":[{"name":"","type":"uint256","internalType":"uint256"}],"stateMutability":"view"},{"type":"event","name":"Initialized","inputs":[{"name":"version","type":"uint64","indexed":false,"internalType":"uint64"}],"anonymous":false},{"type":"event","name":"OwnershipTransferred","inputs":[{"name":"previousOwner","type":"address","indexed":true,"internalType":"address"},{"name":"newOwner","type":"address","indexed":true,"internalType":"address"}],"anonymous":false},{"type":"event","name":"Upgraded","inputs":[{"name":"implementation","type":"address","indexed":true,"internalType":"address"}],"anonymous":false},{"type":"error","name":"AddressEmptyCode","inputs":[{"name":"target","type":"address","internalType":"address"}]},{"type":"error","name":"ERC1967InvalidImplementation","inputs":[{"name":"implementation","type":"address","internalType":"address"}]},{"type":"error","name":"ERC1967NonPayable","inputs":[]},{"type":"error","name":"FailedCall","inputs":[]},{"type":"error","name":"InvalidInitialization","inputs":[]},{"type":"error","name":"NotInitializing","inputs":[]},{"type":"error","name":"OwnableInvalidOwner","inputs":[{"name":"owner","type":"address","internalType":"address"}]},{"type":"error","name":"OwnableUnauthorizedAccount","inputs":[{"name":"account","type":"address","internalType":"address"}]},{"type":"error","name":"UUPSUnauthorizedCallContext","inputs":[]},{"type":"error","name":"UUPSUnsupportedProxiableUUID","inputs":[{"name":"slot","type":"bytes32","internalType":"bytes32"}]}],"bytecode":{"object":"0x60a08060405234602957306080526127b1908161002e82396080518181816111bd01526112a60152f35b5f80fdfe6080806040526004361015610012575f80fd5b5f905f3560e01c90816309fb669814611b34575080630b78f9c014611b0857806310b5a38e14611ae457806313d8c84014611ac757806314025dcd14611aaa57806316efd94114611a885780631e186afb14611a0d578063222c9777146119f05780632b813998146119d15780632e586cab1461191d5780633112538f14611716578063358764761461148157806338962ae11461145557806341eb2d97146114225780634f1ef2861461122e5780635037533e1461121157806352d1902d146111ab578063551512de1461116757806361d027b31461113f5780636341c06014610eae57806366bac0ae14610e74578063715018a614610e0b578063790ca41314610ded5780637c1e652f14610dcf5780637d0a151814610da65780637d43bf6714610d8a5780638104015014610d4a5780638a1e6c0814610d2c5780638da5cb5b14610cf75780638e00a8e814610cd95780638ed3109914610cbb5780638f7dcfa314610c9d5780639f058d4914610ba0578063a05a9e13146109c3578063a2e800ad146109a5578063a32bf597146108e0578063a8aa1b31146108b7578063aad3ec9614610833578063ad3cb1cc146107d7578063b50077cf146107b4578063c2a672e0146105d5578063c54e44eb146105ae578063c97d867914610581578063ce22767c1461055e578063d3dc753914610535578063d9f3680f14610517578063dc38b0e8146104de578063ddf0b00914610467578063dec1ac48146103a7578063e4c2ab711461030f578063f2fde38b146102e2578063f5602c27146102c4578063f851a4401461029b5763f887ea4014610270575f80fd5b346102985780600319360112610298576004546040516001600160a01b039091168152602090f35b80fd5b50346102985780600319360112610298576007546040516001600160a01b039091168152602090f35b50346102985780600319360112610298576020600954604051908152f35b50346102985760203660031901126102985761030c6102ff611b6d565b610307611cfa565b611c89565b80f35b50346102985780600319360112610298576080906201518061033360085442611c4f565b048152601360205260408120906001825492015461034f612458565b838082111561039f5761036191611c4f565b915b8161036c612503565b818111156103975761037e9250611c4f565b915b604051938452602084015260408301526060820152f35b505091610380565b505081610363565b5034610298576060366003190112610298576103c1611b6d565b6024356103d960018060a01b03600454163314611bf3565b600154604080516382510bcf60e01b81526001600160a01b0385811660048301526024820185905290949285916044918391165afa801561045c5761030c93859161042c575b5060ff604435169161201a565b61044e915060403d604011610455575b6104468183611bb5565b810190611c69565b505f61041f565b503d61043c565b6040513d86823e3d90fd5b5034610298576020366003190112610298576004803582526014602090815260409283902080546001820154600283015460038401549584015460059094015487516001600160a01b039094168452948301919091529481019490945260ff928316606085015260808401521660a082015260c090f35b5034610298576020366003190112610298576020906040906001600160a01b03610506611b6d565b168152601683522054604051908152f35b50346102985780600319360112610298576020601b54604051908152f35b50346102985780600319360112610298576003546040516001600160a01b039091168152602090f35b503461029857602036600319011261029857610578611cfa565b600435600e5580f35b50346102985760203660031901126102985760156040602092600435815260108452200154604051908152f35b5034610298578060031936011261029857546040516001600160a01b039091168152602090f35b5034610298576040366003190112610298576105ef611b6d565b60243561060760018060a01b03600454163314611bf3565b61060f611e2c565b600154604080516382510bcf60e01b81526001600160a01b038581166004830152602482018590529092169391929083604481875afa9081156107435785938692610790575b5061066082856123c3565b15610752578486953b1561074e57604051630615339760e51b81526001600160a01b0385166004820152602481019290925285908290604490829084905af190811561074357859161072e575b50506106b99083612417565b6003546001600160a01b031691823b156107295760405163712e1fe360e11b81526001600160a01b03909216600483015260248201529082908290818381604481015b03925af1801561071e5761070d5750f35b8161071791611bb5565b6102985780f35b6040513d84823e3d90fd5b505050fd5b8161073891611bb5565b61072957835f6106ad565b6040513d87823e3d90fd5b8580fd5b60405162461bcd60e51b8152602060048201526016602482015275155394d51052d157d45553d51057d15610d15151115160521b6044820152606490fd5b9093506107ac915060403d604011610455576104468183611bb5565b90925f610655565b5034610298576020366003190112610298576107ce611cfa565b600435601b5580f35b5034610298578060031936011261029857604080516107f68282611bb5565b6005815260208101640352e302e360dc1b81528251938492602084525180928160208601528585015e828201840152601f01601f19168101030190f35b5034610298576040366003190112610298578061084e611b6d565b61086360018060a01b03600454163314611bf3565b61086b611e2c565b6001546001600160a01b0316803b156108b357604051635569f64b60e11b81526001600160a01b039092166004830152602480359083015282908290818381604481016106fc565b5050fd5b50346102985780600319360112610298576006546040516001600160a01b039091168152602090f35b50346102985780600319360112610298576102a0806040516109028282611bb5565b369037600f549081835260106020526040832060158101549060115492604051918287905b601582106109855750505061093c9082611bb5565b60405193845293602084015b6015821061096557505061030093506102c08301526102e0820152f35b85516001600160a01b031681526020958601956001929092019101610948565b82546001600160a01b031681526001928301929190910190602001610927565b50346102985780600319360112610298576020600f54604051908152f35b5034610298576040366003190112610298576109dd611b6d565b6024356109f560018060a01b03600454163314611bf3565b60175481101580610b95575b15610b6357825260146020526040822080546001600160a01b0380841693929116839003610b3257600581019060ff825416610afb5760010191825490600d549081831115610ac357610a63610a5a83610a7695611c4f565b92601154611c5c565b60115586546001600160a01b0316611d2d565b805460ff1916600217905581835260166020526040832054815411610ab257549082526016602052610aad60408320918254611c4f565b905580f35b508152601660205280604081205580f35b60405162461bcd60e51b815260206004820152601060248201526f105353d5539517d513d3d7d4d350531360821b6044820152606490fd5b60405162461bcd60e51b815260206004820152600f60248201526e1053149150511657d2105391131151608a1b6044820152606490fd5b60405162461bcd60e51b81526020600482015260096024820152682727aa2fa7aba722a960b91b6044820152606490fd5b60405162461bcd60e51b815260206004820152600a6024820152691253959053125117d25160b21b6044820152606490fd5b506018548110610a01565b5034610298576020366003190112610298576001600160a01b03610bc2611b6d565b168152601260205260408120805467ffffffffffffffff8111610c895760405190610bf360208260051b0183611bb5565b80825260208201809385526020852085915b838310610c5c57868587604051928392602084019060208552518091526040840192915b818110610c37575050500390f35b8251805185526020908101518186015286955060409094019390920191600101610c29565b60026020600192604051610c6f81611b99565b855481528486015483820152815201920192019190610c05565b634e487b7160e01b83526041600452602483fd5b50346102985780600319360112610298576020601754604051908152f35b50346102985780600319360112610298576020600e54604051908152f35b50346102985780600319360112610298576020600a54604051908152f35b50346102985780600319360112610298575f51602061271c5f395f51905f52546040516001600160a01b039091168152602090f35b50346102985780600319360112610298576020601a54604051908152f35b503461029857602036600319011261029857610d64611b6d565b610d6c611cfa565b60018060a01b03166001600160601b0360a01b600454161760045580f35b5034610298578060031936011261029857602060405160158152f35b50346102985780600319360112610298576005546040516001600160a01b039091168152602090f35b50346102985780600319360112610298576020600b54604051908152f35b50346102985780600319360112610298576020600854604051908152f35b5034610298578060031936011261029857610e24611cfa565b5f51602061271c5f395f51905f5280546001600160a01b0319811690915581906001600160a01b03167f8be0079c531659141344cd1fd0a4f28419497f9722a3daafe3b4186f6b6457e08280a380f35b5034610298578060031936011261029857610e9a60018060a01b03600754163314611bf3565b610ea2611e2c565b610eaa6120a2565b5080f35b503461103f57606036600319011261103f57610ec8611b6d565b602435906044359060ff8216820361103f57610eef60018060a01b03600454163314611bf3565b610ef7611e2c565b610eff611e2c565b610f076120a2565b50610f1282846125bf565b1561105d578290680ad78ebc5ac62000008410611043575b5f54600254610f479184916001600160a01b039081169116611d2d565b6001546001600160a01b0316803b1561103f5760405163031a0e0360e51b81526001600160a01b03831660048201526024810184905260ff85166044820152905f908290606490829084905af180156110345761101d575b5060035485926001600160a01b039091169190823b156110195760405163543b35c760e01b81526001600160a01b0392909216600483015260248201529082908290604490829084905af1801561071e57611000575b505061030c91612615565b8161100a91611bb5565b61101557825f610ff5565b8280fd5b8380fd5b61102b919295505f90611bb5565b5f93905f610f9f565b6040513d5f823e3d90fd5b5f80fd5b600c549150611055610a5a8386611c4f565b601155610f2a565b906005906018545f52601460205260405f209060018060a01b0384166001600160601b0360a01b8354161782558460018301555f600283015560ff60038301911660ff198254161790554260048201550160ff19815416905560018060a01b0316805f52601560205260405f2060185490805490600160401b82101561112b5760018201808255821015611117575f5260205f2001556110fe601854612094565b6018555f526016602052610aad60405f20918254611c5c565b634e487b7160e01b5f52603260045260245ffd5b634e487b7160e01b5f52604160045260245ffd5b3461103f575f36600319011261103f576001546040516001600160a01b039091168152602090f35b3461103f57606036600319011261103f576111a9611183611b6d565b61118b611b83565b6111a060018060a01b03600754163314611bf3565b60243591611d2d565b005b3461103f575f36600319011261103f577f00000000000000000000000000000000000000000000000000000000000000006001600160a01b031630036112025760206040515f51602061273c5f395f51905f528152f35b63703e46dd60e11b5f5260045ffd5b3461103f575f36600319011261103f576020601154604051908152f35b604036600319011261103f57611242611b6d565b6024359067ffffffffffffffff821161103f573660238301121561103f57816004013561126e81611bd7565b9261127c6040519485611bb5565b818452366024838301011161103f57815f9260246020930183870137840101526001600160a01b037f000000000000000000000000000000000000000000000000000000000000000016308114908115611400575b50611202576112de611cfa565b6040516352d1902d60e01b81526001600160a01b0382169290602081600481875afa5f91816113cc575b506113205783634c9c8ce360e01b5f5260045260245ffd5b805f51602061273c5f395f51905f528592036113ba5750823b156113a8575f51602061273c5f395f51905f5280546001600160a01b031916821790557fbc7cd75a20ee27fd9adebab32041f755214dbc6bffa90cc0225b39da2e5c2d3b5f80a2805115611390576111a99161268f565b50503461139957005b63b398979f60e01b5f5260045ffd5b634c9c8ce360e01b5f5260045260245ffd5b632a87526960e21b5f5260045260245ffd5b9091506020813d6020116113f8575b816113e860209383611bb5565b8101031261103f57519085611308565b3d91506113db565b5f51602061273c5f395f51905f52546001600160a01b031614159050836112d1565b3461103f57602036600319011261103f576004355f5260136020526040805f206001815491015482519182526020820152f35b3461103f5761146336611b57565b9061147960018060a01b03600754163314611bf3565b600a55600b55005b3461103f5760e036600319011261103f5761149a611b6d565b6024356001600160a01b0381169081900361103f576114b7611b83565b6064356001600160a01b0381169081900361103f576084356001600160a01b038116919082900361103f5760a4356001600160a01b038116939084900361103f5760c4356001600160a01b038116959086900361103f575f51602061275c5f395f51905f52549660ff8860401c16159767ffffffffffffffff81168015908161170e575b6001149081611704575b1590816116fb575b506116ec5767ffffffffffffffff1981166001175f51602061275c5f395f51905f5255886116c0575b5061157f612594565b611587612594565b61159033611c89565b60018060a01b03166001600160601b0360a01b60075416176007556001600160601b0360a01b600554161760055560018060a01b03166001600160601b0360a01b60065416176006556001600160601b0360a01b5f5416175f556001600160601b0360a01b60015416176001556001600160601b0360a01b60025416176002556001600160601b0360a01b60035416176003554260085560016009556107d0600a556107d0600b55670de0b6b3a7640000600c55671bc16d674ec80000600d55681b1ae4d6e2ef500000600e55610fa0601b5561166957005b68ff0000000000000000195f51602061275c5f395f51905f5254165f51602061275c5f395f51905f52557fc7f505b2f371ae2175ee4913f4499e1f2633a7b5936321eed1cdaeb6115181d2602060405160018152a1005b68ffffffffffffffffff191668010000000000000001175f51602061275c5f395f51905f525588611576565b63f92ee8a960e01b5f5260045ffd5b9050158a61154d565b303b159150611545565b8a915061153b565b3461103f575f36600319011261103f5761173b60018060a01b03600754163314611bf3565b60115480156118e657600f545f52601060205260405f2090601582019081549081156118ac5760288102908104602803611898576064900404915f5b82548110156118565761178a8183611c40565b905460039190911b1c6001600160a01b03166117a9575b600101611777565b5f546117dc9085906001600160a01b03166117c48486611c40565b905460039190911b1c6001600160a01b031690611d2d565b6117e68183611c40565b60018060a01b0391549060031b1c165f52601260205260405f2090600f546040519061181182611b99565b81526020810192868452805493600160401b85101561112b57600185018083558510156111175760019485925f5260205f2090831b01925183555191015590506117a1565b61186f8361186986601154925490611c2d565b90611c4f565b601155600f54600181018091116118985780600f555f5260106020525f60156040822001555f80f35b634e487b7160e01b5f52601160045260245ffd5b60405162461bcd60e51b81526020600482015260126024820152714e4f5f5155414c49464945445f555345525360701b6044820152606490fd5b60405162461bcd60e51b815260206004820152600f60248201526e464f4d4f5f504f4f4c5f454d50545960881b6044820152606490fd5b3461103f57602036600319011261103f576001600160a01b0361193e611b6d565b165f52601560205260405f20604051806020835491828152019081935f5260205f20905f5b8181106119bb5750505081611979910382611bb5565b604051918291602083019060208452518091526040830191905f5b8181106119a2575050500390f35b8251845285945060209384019390920191600101611994565b8254845260209093019260019283019201611963565b3461103f576119df36611b57565b906119e8611cfa565b600855600955005b3461103f575f36600319011261103f576020600c54604051908152f35b3461103f57602036600319011261103f57600480355f9081526014602090815260409182902080546001820154600283015460038401549684015460059094015486516001600160a01b039094168452948301919091529381019390935260ff938416606084015260808301529190911660a082015260c090f35b3461103f575f36600319011261103f57602060ff601954166040519015158152f35b3461103f575f36600319011261103f576020600d54604051908152f35b3461103f575f36600319011261103f576020601854604051908152f35b3461103f575f36600319011261103f57604060175460185482519182526020820152f35b3461103f57611b1636611b57565b90611b2c60018060a01b03600754163314611bf3565b600c55600d55005b3461103f575f36600319011261103f576002546001600160a01b03168152602090f35b604090600319011261103f576004359060243590565b600435906001600160a01b038216820361103f57565b604435906001600160a01b038216820361103f57565b6040810190811067ffffffffffffffff82111761112b57604052565b90601f8019910116810190811067ffffffffffffffff82111761112b57604052565b67ffffffffffffffff811161112b57601f01601f191660200190565b15611bfa57565b60405162461bcd60e51b815260206004820152600b60248201526a2737ba103832b936b4ba1760a91b6044820152606490fd5b8181029291811591840414171561189857565b60158210156111175701905f90565b9190820391821161189857565b9190820180921161189857565b919082604091031261103f576020825192015160ff8116810361103f5790565b6001600160a01b03168015611ce7575f51602061271c5f395f51905f5280546001600160a01b0319811683179091556001600160a01b03167f8be0079c531659141344cd1fd0a4f28419497f9722a3daafe3b4186f6b6457e05f80a3565b631e4fbdf760e01b5f525f60045260245ffd5b5f51602061271c5f395f51905f52546001600160a01b03163303611d1a57565b63118cdaa760e01b5f523360045260245ffd5b60405163a9059cbb60e01b602082019081526001600160a01b039390931660248201526044808201949094529283525f928392908390611d6e606482611bb5565b51925af13d15611e25573d611d8281611bd7565b90611d906040519283611bb5565b81523d5f602083013e5b81611ded575b5015611da857565b60405162461bcd60e51b815260206004820152601f60248201527f5472616e7366657248656c7065723a205452414e534645525f4641494c4544006044820152606490fd5b8051801592508215611e02575b50505f611da0565b819250906020918101031261103f5760200151801515810361103f575f80611dfa565b6060611d9a565b60055460405163a5aff84160e01b81525f91602090829060049082906001600160a01b03165afa908115611034575f91611fe8575b505f546006546040516370a0823160e01b81526001600160a01b039182166004820152929160209184916024918391165afa918215611034575f92611fb4575b506019549060ff82169081159081611f9a575b5015611f1a575050600160ff196019541617601955601a5560018060a01b0360015416803b15611f1657818091600460405180948193638456cb5960e01b83525af1801561071e57611f04575050565b611f0f828092611bb5565b6102985750565b5080fd5b9092509081611f7a575b50611f2d575b50565b60ff19166019555f601a556001546001600160a01b0316803b1561103f575f8091600460405180948193630237bed160e11b83525af180156110345715611f2a575f611f7891611bb5565b565b9050601a54908160011b918083046002149015171561189857115f611f24565b601b546127109250611fab91611c2d565b0483105f611eb4565b9091506020813d602011611fe0575b81611fd060209383611bb5565b8101031261103f5751905f611ea1565b3d9150611fc3565b90506020813d602011612012575b8161200360209383611bb5565b8101031261103f57515f611e61565b3d9150611ff6565b919050612025611e2c565b61202d6120a2565b506001546001600160a01b0316803b1561103f576040516385cf4f9d60e01b81526001600160a01b03939093166004840152602483019390935260ff166044820152905f908290606490829084905af180156110345761208a5750565b5f611f7891611bb5565b5f1981146118985760010190565b5f5b601754906018548210806123b9575b156123b457815f52601460205260405f2091600583019060ff8254166123a75750600183019081549160038501916120ef60ff845416856125bf565b1561239e5783680ad78ebc5ac6200000811061237a575b505f546002546121249186916001600160a01b039081169116611d2d565b612134825460ff85541690612615565b8154600e5411156122a0575b805460ff1916600117905584546001600160a01b03165f8181526016602052604090205482541161228c57505460018060a01b038554165f52601660205261218d60405f20918254611c4f565b90555b600154845491546001600160a01b03918216929091169060ff16823b1561103f5760405163031a0e0360e51b81526001600160a01b039290921660048301526024820184905260ff166044820152905f908290606490829084905af180156110345761227c575b5060035492546001600160a01b03938416931690833b1561103f5760405163543b35c760e01b81526001600160a01b039290921660048301526024820152915f908390604490829084905af1918215611034576122599261226c575b50612094565b612264601754612094565b6017556120a4565b5f61227691611bb5565b5f612253565b5f61228691611bb5565b5f6121f7565b90505f5260166020525f6040812055612190565b60018060a01b03865416600f545f52601060205260405f2090601582019160158354105f1461230e57906122d96122fd92845490611c40565b81546001600160a01b0393841660039290921b91821b9390911b1916919091179055565b6123078154612094565b9055612140565b9091505f5b60148110612341575060140180546001600160a01b0319166001600160a01b03909216919091179055612140565b60018101908181116118985761237461235c60019385611c40565b848060a01b0391549060031b1c166122d98386611c40565b01612313565b935061239561238c600c548096611c4f565b94601154611c5c565b6011555f612106565b50505050919050565b9050612264919250612094565b919050565b50600581106120b3565b9060ff16156124115760ff6019541661240c576123ff90620151806123ea60085442611c4f565b045f526013602052600160405f200154611c5c565b612407612503565b101590565b505f90565b50600190565b9060ff1615611f2a5760ff60195416611f2a576201518061243a60085442611c4f565b045f526013602052612454600160405f2001918254611c5c565b9055565b612460612664565b80156124f7575b6124f2575f546006546040516370a0823160e01b81526001600160a01b0391821660048201529160209183916024918391165afa908115611034575f916124be575b506124ba61271091600a5490611c2d565b0490565b90506020813d6020116124ea575b816124d960209383611bb5565b8101031261103f57516124ba6124a9565b3d91506124cc565b5f1990565b5060ff60195416612467565b60ff60195416612590575f546006546040516370a0823160e01b81526001600160a01b0391821660048201529160209183916024918391165afa908115611034575f9161255c575b506124ba61271091600b5490611c2d565b90506020813d602011612588575b8161257760209383611bb5565b8101031261103f57516124ba61254b565b3d915061256a565b5f90565b60ff5f51602061275c5f395f51905f525460401c16156125b057565b631afcd79f60e31b5f5260045ffd5b9060ff1615612411576125d0612664565b8015612609575b6124115761260190620151806125ef60085442611c4f565b045f52601360205260405f2054611c5c565b612407612458565b5060ff601954166125d7565b9060ff1615611f2a57612626612664565b8015612658575b611f2a576201518061264160085442611c4f565b045f52601360205261245460405f20918254611c5c565b5060ff6019541661262d565b600854600954620151808102908082046201518014901517156118985761268a91611c5c565b421090565b905f8091602081519101845af48080612708575b156126c35750506040513d81523d5f602083013e60203d82010160405290565b156126e857639996b31560e01b5f9081526001600160a01b0391909116600452602490fd5b3d156126f9576040513d5f823e3d90fd5b63d6bda27560e01b5f5260045ffd5b503d1515806126a35750813b15156126a356fe9016d09d72d40fdae2fd8ceac6b6234c7706214fd39c1cd1e609a0528c199300360894a13ba1a3210667c828492db98dca3e2076cc3735a920a3ca505d382bbcf0c57e16840df040f15088dc2f81fe391c3923bec73e23a9662efc9c229c6a00a2646970667358221220351ed33e6f149248208f955cd8a2358ab657c5c56b4adc00056b2fecbc5c4df364736f6c634300081e0033","linkReferences":{}},"methodIdentifiers":{"UPGRADE_INTERFACE_VERSION()":"ad3cb1cc","USDT()":"c54e44eb","admin()":"f851a440","breakerReserve()":"8a1e6c08","breakerTriggerRatio()":"d9f3680f","cancelFee()":"14025dcd","cancelQueue(address,uint256)":"a05a9e13","circuitBreaker()":"16efd941","claim(address,uint256)":"aad3ec96","dailyQuota(uint256)":"41eb2d97","drawFomoRewards()":"3112538f","emergencyProcessQueue()":"66bac0ae","emergencyWithdraw(address,uint256,address)":"551512de","fomoMinAmount()":"8ed31099","fomoPoolBalance()":"5037533e","fomoRewardCount()":"7d43bf67","freeDays()":"f5602c27","getCurrentRound()":"a32bf597","getFomoAwardsInfo(address)":"9f058d49","getPendingOrder(uint256)":"1e186afb","getQueueRange()":"10b5a38e","getTodayQuota()":"e4c2ab71","getUserQueueIds(address)":"2e586cab","head()":"8f7dcfa3","initialize(address,address,address,address,address,address,address)":"35876476","launchTime()":"790ca413","lex()":"7d0a1518","owner()":"8da5cb5b","pair()":"a8aa1b31","proxiableUUID()":"52d1902d","queue(uint256)":"ddf0b009","referrals()":"d3dc7539","renounceOwnership()":"715018a6","restake(address,uint256,uint256)":"dec1ac48","rounds()":"a2e800ad","roundsData(uint256)":"c97d8679","router()":"f887ea40","setAddrConfig(address)":"81040150","setCircuitBreakerConfig(uint256)":"b50077cf","setFees(uint256,uint256)":"0b78f9c0","setFomoConfig(uint256)":"ce22767c","setLaunchAndFreeDays(uint256,uint256)":"2b813998","setQuotaRatios(uint256,uint256)":"38962ae1","stake(address,uint256,uint8)":"6341c060","stakeFee()":"222c9777","stakeRatio()":"8e00a8e8","tail()":"13d8c840","transferOwnership(address)":"f2fde38b","treasury()":"61d027b3","treasuryLiquidity()":"09fb6698","unstake(address,uint256)":"c2a672e0","unstakeRatio()":"7c1e652f","upgradeToAndCall(address,bytes)":"4f1ef286","userQueueAmount(address)":"dc38b0e8"},"id":54}