{"abi":[{"type":"function","name":"UPGRADE_INTERFACE_VERSION","inputs":[],"outputs":[{"name":"","type":"string","internalType":"string"}],"stateMutability":"view"},{"type":"function","name":"USDT","inputs":[],"outputs":[{"name":"","type":"address","internalType":"address"}],"stateMutability":"view"},{"type":"function","name":"admin","inputs":[],"outputs":[{"name":"","type":"address","internalType":"address"}],"stateMutability":"view"},{"type":"function","name":"breakerReserve","inputs":[],"outputs":[{"name":"","type":"uint256","internalType":"uint256"}],"stateMutability":"view"},{"type":"function","name":"breakerTriggerRatio","inputs":[],"outputs":[{"name":"","type":"uint256","internalType":"uint256"}],"stateMutability":"view"},{"type":"function","name":"cancelFee","inputs":[],"outputs":[{"name":"","type":"uint256","internalType":"uint256"}],"stateMutability":"view"},{"type":"function","name":"cancelQueue","inputs":[{"name":"user","type":"address","internalType":"address"},{"name":"queueId","type":"uint256","internalType":"uint256"}],"outputs":[],"stateMutability":"nonpayable"},{"type":"function","name":"circuitBreaker","inputs":[],"outputs":[{"name":"","type":"bool","internalType":"bool"}],"stateMutability":"view"},{"type":"function","name":"claim","inputs":[{"name":"user","type":"address","internalType":"address"},{"name":"orderIndex","type":"uint256","internalType":"uint256"}],"outputs":[],"stateMutability":"nonpayable"},{"type":"function","name":"dailyQuota","inputs":[{"name":"","type":"uint256","internalType":"uint256"}],"outputs":[{"name":"stakeUsed","type":"uint256","internalType":"uint256"},{"name":"unstakeUsed","type":"uint256","internalType":"uint256"}],"stateMutability":"view"},{"type":"function","name":"drawFomoRewards","inputs":[],"outputs":[],"stateMutability":"nonpayable"},{"type":"function","name":"emergencyWithdraw","inputs":[{"name":"token","type":"address","internalType":"address"},{"name":"amount","type":"uint256","internalType":"uint256"},{"name":"to","type":"address","internalType":"address"}],"outputs":[],"stateMutability":"nonpayable"},{"type":"function","name":"fomoMinAmount","inputs":[],"outputs":[{"name":"","type":"uint256","internalType":"uint256"}],"stateMutability":"view"},{"type":"function","name":"fomoPoolBalance","inputs":[],"outputs":[{"name":"","type":"uint256","internalType":"uint256"}],"stateMutability":"view"},{"type":"function","name":"fomoRewardCount","inputs":[],"outputs":[{"name":"","type":"uint256","internalType":"uint256"}],"stateMutability":"view"},{"type":"function","name":"freeDays","inputs":[],"outputs":[{"name":"","type":"uint256","internalType":"uint256"}],"stateMutability":"view"},{"type":"function","name":"getCurrentRound","inputs":[],"outputs":[{"name":"roundId","type":"uint256","internalType":"uint256"},{"name":"lastQualified","type":"address[21]","internalType":"address[21]"},{"name":"count","type":"uint256","internalType":"uint256"},{"name":"poolBalance","type":"uint256","internalType":"uint256"}],"stateMutability":"view"},{"type":"function","name":"getPendingOrder","inputs":[{"name":"queueId","type":"uint256","internalType":"uint256"}],"outputs":[{"name":"user","type":"address","internalType":"address"},{"name":"amount","type":"uint256","internalType":"uint256"},{"name":"orderIndex","type":"uint256","internalType":"uint256"},{"name":"stakeIndex","type":"uint8","internalType":"uint8"},{"name":"createdAt","type":"uint256","internalType":"uint256"},{"name":"isRestake","type":"bool","internalType":"bool"},{"name":"status","type":"uint8","internalType":"uint8"}],"stateMutability":"view"},{"type":"function","name":"getQueueRange","inputs":[],"outputs":[{"name":"_head","type":"uint256","internalType":"uint256"},{"name":"_tail","type":"uint256","internalType":"uint256"}],"stateMutability":"view"},{"type":"function","name":"getTodayQuota","inputs":[],"outputs":[{"name":"stakeUsed","type":"uint256","internalType":"uint256"},{"name":"stakeRemaining","type":"uint256","internalType":"uint256"},{"name":"unstakeUsed","type":"uint256","internalType":"uint256"},{"name":"unstakeRemaining","type":"uint256","internalType":"uint256"}],"stateMutability":"view"},{"type":"function","name":"getUserQueueIds","inputs":[{"name":"user","type":"address","internalType":"address"}],"outputs":[{"name":"","type":"uint256[]","internalType":"uint256[]"}],"stateMutability":"view"},{"type":"function","name":"head","inputs":[],"outputs":[{"name":"","type":"uint256","internalType":"uint256"}],"stateMutability":"view"},{"type":"function","name":"initialize","inputs":[{"name":"_admin","type":"address","internalType":"address"},{"name":"_lex","type":"address","internalType":"address"},{"name":"_pair","type":"address","internalType":"address"},{"name":"_USDT","type":"address","internalType":"address"}],"outputs":[],"stateMutability":"nonpayable"},{"type":"function","name":"launchTime","inputs":[],"outputs":[{"name":"","type":"uint256","internalType":"uint256"}],"stateMutability":"view"},{"type":"function","name":"lex","inputs":[],"outputs":[{"name":"","type":"address","internalType":"address"}],"stateMutability":"view"},{"type":"function","name":"owner","inputs":[],"outputs":[{"name":"","type":"address","internalType":"address"}],"stateMutability":"view"},{"type":"function","name":"pair","inputs":[],"outputs":[{"name":"","type":"address","internalType":"address"}],"stateMutability":"view"},{"type":"function","name":"proxiableUUID","inputs":[],"outputs":[{"name":"","type":"bytes32","internalType":"bytes32"}],"stateMutability":"view"},{"type":"function","name":"queue","inputs":[{"name":"","type":"uint256","internalType":"uint256"}],"outputs":[{"name":"user","type":"address","internalType":"address"},{"name":"amount","type":"uint256","internalType":"uint256"},{"name":"orderIndex","type":"uint256","internalType":"uint256"},{"name":"stakeIndex","type":"uint8","internalType":"uint8"},{"name":"createdAt","type":"uint256","internalType":"uint256"},{"name":"isRestake","type":"bool","internalType":"bool"},{"name":"status","type":"uint8","internalType":"uint8"}],"stateMutability":"view"},{"type":"function","name":"referrals","inputs":[],"outputs":[{"name":"","type":"address","internalType":"address"}],"stateMutability":"view"},{"type":"function","name":"renounceOwnership","inputs":[],"outputs":[],"stateMutability":"nonpayable"},{"type":"function","name":"restake","inputs":[{"name":"user","type":"address","internalType":"address"},{"name":"orderIndex","type":"uint256","internalType":"uint256"},{"name":"newStakeIndex","type":"uint256","internalType":"uint256"}],"outputs":[],"stateMutability":"nonpayable"},{"type":"function","name":"rounds","inputs":[],"outputs":[{"name":"","type":"uint256","internalType":"uint256"}],"stateMutability":"view"},{"type":"function","name":"roundsData","inputs":[{"name":"","type":"uint256","internalType":"uint256"}],"outputs":[{"name":"count","type":"uint256","internalType":"uint256"}],"stateMutability":"view"},{"type":"function","name":"router","inputs":[],"outputs":[{"name":"","type":"address","internalType":"address"}],"stateMutability":"view"},{"type":"function","name":"setAddrConfig","inputs":[{"name":"_treasury","type":"address","internalType":"address"},{"name":"_treasuryLiquidity","type":"address","internalType":"address"},{"name":"_referrals","type":"address","internalType":"address"},{"name":"_router","type":"address","internalType":"address"}],"outputs":[],"stateMutability":"nonpayable"},{"type":"function","name":"setCircuitBreakerConfig","inputs":[{"name":"_breakerTriggerRatio","type":"uint256","internalType":"uint256"}],"outputs":[],"stateMutability":"nonpayable"},{"type":"function","name":"setFees","inputs":[{"name":"_stakeFee","type":"uint256","internalType":"uint256"},{"name":"_cancelFee","type":"uint256","internalType":"uint256"}],"outputs":[],"stateMutability":"nonpayable"},{"type":"function","name":"setFomoConfig","inputs":[{"name":"_fomoMinAmount","type":"uint256","internalType":"uint256"}],"outputs":[],"stateMutability":"nonpayable"},{"type":"function","name":"setLaunchAndFreeDays","inputs":[{"name":"_launchTime","type":"uint256","internalType":"uint256"},{"name":"_freeDays","type":"uint256","internalType":"uint256"}],"outputs":[],"stateMutability":"nonpayable"},{"type":"function","name":"setQuotaRatios","inputs":[{"name":"_stakeRatio","type":"uint256","internalType":"uint256"},{"name":"_unstakeRatio","type":"uint256","internalType":"uint256"}],"outputs":[],"stateMutability":"nonpayable"},{"type":"function","name":"stake","inputs":[{"name":"user","type":"address","internalType":"address"},{"name":"amount","type":"uint256","internalType":"uint256"},{"name":"stakeIndex","type":"uint8","internalType":"uint8"}],"outputs":[],"stateMutability":"nonpayable"},{"type":"function","name":"stakeFee","inputs":[],"outputs":[{"name":"","type":"uint256","internalType":"uint256"}],"stateMutability":"view"},{"type":"function","name":"stakeRatio","inputs":[],"outputs":[{"name":"","type":"uint256","internalType":"uint256"}],"stateMutability":"view"},{"type":"function","name":"tail","inputs":[],"outputs":[{"name":"","type":"uint256","internalType":"uint256"}],"stateMutability":"view"},{"type":"function","name":"transferOwnership","inputs":[{"name":"newOwner","type":"address","internalType":"address"}],"outputs":[],"stateMutability":"nonpayable"},{"type":"function","name":"treasury","inputs":[],"outputs":[{"name":"","type":"address","internalType":"address"}],"stateMutability":"view"},{"type":"function","name":"treasuryLiquidity","inputs":[],"outputs":[{"name":"","type":"address","internalType":"address"}],"stateMutability":"view"},{"type":"function","name":"unstake","inputs":[{"name":"user","type":"address","internalType":"address"},{"name":"orderIndex","type":"uint256","internalType":"uint256"}],"outputs":[],"stateMutability":"nonpayable"},{"type":"function","name":"unstakeRatio","inputs":[],"outputs":[{"name":"","type":"uint256","internalType":"uint256"}],"stateMutability":"view"},{"type":"function","name":"upgradeToAndCall","inputs":[{"name":"newImplementation","type":"address","internalType":"address"},{"name":"data","type":"bytes","internalType":"bytes"}],"outputs":[],"stateMutability":"payable"},{"type":"event","name":"Initialized","inputs":[{"name":"version","type":"uint64","indexed":false,"internalType":"uint64"}],"anonymous":false},{"type":"event","name":"OwnershipTransferred","inputs":[{"name":"previousOwner","type":"address","indexed":true,"internalType":"address"},{"name":"newOwner","type":"address","indexed":true,"internalType":"address"}],"anonymous":false},{"type":"event","name":"Upgraded","inputs":[{"name":"implementation","type":"address","indexed":true,"internalType":"address"}],"anonymous":false},{"type":"error","name":"AddressEmptyCode","inputs":[{"name":"target","type":"address","internalType":"address"}]},{"type":"error","name":"ERC1967InvalidImplementation","inputs":[{"name":"implementation","type":"address","internalType":"address"}]},{"type":"error","name":"ERC1967NonPayable","inputs":[]},{"type":"error","name":"FailedCall","inputs":[]},{"type":"error","name":"InvalidInitialization","inputs":[]},{"type":"error","name":"NotInitializing","inputs":[]},{"type":"error","name":"OwnableInvalidOwner","inputs":[{"name":"owner","type":"address","internalType":"address"}]},{"type":"error","name":"OwnableUnauthorizedAccount","inputs":[{"name":"account","type":"address","internalType":"address"}]},{"type":"error","name":"UUPSUnauthorizedCallContext","inputs":[]},{"type":"error","name":"UUPSUnsupportedProxiableUUID","inputs":[{"name":"slot","type":"bytes32","internalType":"bytes32"}]}],"bytecode":{"object":"0x60a0604052306080523480156012575f5ffd5b50608051612ab86100395f395f818161167e015281816116a701526117e60152612ab85ff3fe6080604052600436106102d9575f3560e01c80638a1e6c0811610189578063c54e44eb116100d8578063dec1ac4811610092578063f5602c271161006d578063f5602c2714610979578063f851a4401461098e578063f887ea40146109ad578063f8c8765e146109cc575f5ffd5b8063dec1ac4814610907578063e4c2ab7114610926578063f2fde38b1461095a575f5ffd5b8063c54e44eb14610800578063c97d86791461081e578063ce22767c1461084c578063d3dc75391461086b578063d9f3680f1461088a578063ddf0b0091461089f575f5ffd5b8063a2e800ad11610143578063aad3ec961161011e578063aad3ec9614610766578063ad3cb1cc14610785578063b50077cf146107c2578063c2a672e0146107e1575f5ffd5b8063a2e800ad1461070e578063a32bf59714610723578063a8aa1b3114610747575f5ffd5b80638a1e6c081461065f5780638da5cb5b146106745780638e00a8e8146106b05780638ed31099146106c55780638f7dcfa3146106da578063a05a9e13146106ef575f5ffd5b806341eb2d97116102455780636341c060116101ff578063790ca413116101da578063790ca413146106025780637c1e652f146106175780637d0a15181461062c5780637d43bf671461064b575f5ffd5b80636341c060146105b0578063715018a6146105cf57806372207cc3146105e3575f5ffd5b806341eb2d97146105045780634f1ef286146105365780635037533e1461054957806352d1902d1461055e578063551512de1461057257806361d027b314610591575f5ffd5b80631e186afb116102965780631e186afb146103c3578063222c9777146104715780632b813998146104865780632e586cab146104a55780633112538f146104d157806338962ae1146104e5575f5ffd5b806309fb6698146102dd5780630b78f9c01461031957806310b5a38e1461033a57806313d8c8401461036257806314025dcd1461038557806316efd9411461039a575b5f5ffd5b3480156102e8575f5ffd5b506002546102fc906001600160a01b031681565b6040516001600160a01b0390911681526020015b60405180910390f35b348015610324575f5ffd5b506103386103333660046125c6565b6109eb565b005b348015610345575f5ffd5b506015546016545b60408051928352602083019190915201610310565b34801561036d575f5ffd5b5061037760165481565b604051908152602001610310565b348015610390575f5ffd5b50610377600d5481565b3480156103a5575f5ffd5b506017546103b39060ff1681565b6040519015158152602001610310565b3480156103ce575f5ffd5b5061042c6103dd3660046125e6565b5f908152601360205260409020805460018201546002830154600384015460048501546005909501546001600160a01b03909416959294919360ff918216938282169261010090920490911690565b604080516001600160a01b03909816885260208801969096529486019390935260ff9182166060860152608085015290151560a08401521660c082015260e001610310565b34801561047c575f5ffd5b50610377600c5481565b348015610491575f5ffd5b506103386104a03660046125c6565b6109fe565b3480156104b0575f5ffd5b506104c46104bf366004612618565b610a11565b6040516103109190612638565b3480156104dc575f5ffd5b50610338610a7a565b3480156104f0575f5ffd5b506103386104ff3660046125c6565b610c30565b34801561050f575f5ffd5b5061034d61051e3660046125e6565b60126020525f90815260409020805460019091015482565b61033861054436600461268e565b610c43565b348015610554575f5ffd5b5061037760115481565b348015610569575f5ffd5b50610377610c62565b34801561057d575f5ffd5b5061033861058c366004612752565b610c7e565b34801561059c575f5ffd5b506001546102fc906001600160a01b031681565b3480156105bb575f5ffd5b506103386105ca366004612799565b610cb8565b3480156105da575f5ffd5b50610338610cf7565b3480156105ee575f5ffd5b506103386105fd3660046127d6565b610d0a565b34801561060d575f5ffd5b5061037760085481565b348015610622575f5ffd5b50610377600b5481565b348015610637575f5ffd5b506005546102fc906001600160a01b031681565b348015610656575f5ffd5b50610377601581565b34801561066a575f5ffd5b5061037760185481565b34801561067f575f5ffd5b507f9016d09d72d40fdae2fd8ceac6b6234c7706214fd39c1cd1e609a0528c199300546001600160a01b03166102fc565b3480156106bb575f5ffd5b50610377600a5481565b3480156106d0575f5ffd5b50610377600e5481565b3480156106e5575f5ffd5b5061037760155481565b3480156106fa575f5ffd5b50610338610709366004612827565b610d62565b348015610719575f5ffd5b50610377600f5481565b34801561072e575f5ffd5b50610737610f24565b604051610310949392919061284f565b348015610752575f5ffd5b506006546102fc906001600160a01b031681565b348015610771575f5ffd5b50610338610780366004612827565b610f97565b348015610790575f5ffd5b506107b5604051806040016040528060058152602001640352e302e360dc1b81525081565b604051610310919061289d565b3480156107cd575f5ffd5b506103386107dc3660046125e6565b61102e565b3480156107ec575f5ffd5b506103386107fb366004612827565b61103b565b34801561080b575f5ffd5b505f546102fc906001600160a01b031681565b348015610829575f5ffd5b506103776108383660046125e6565b60106020525f908152604090206015015481565b348015610857575f5ffd5b506103386108663660046125e6565b611207565b348015610876575f5ffd5b506003546102fc906001600160a01b031681565b348015610895575f5ffd5b5061037760195481565b3480156108aa575f5ffd5b5061042c6108b93660046125e6565b60136020525f90815260409020805460018201546002830154600384015460048501546005909501546001600160a01b03909416949293919260ff9182169290918181169161010090041687565b348015610912575f5ffd5b506103386109213660046128d2565b611214565b348015610931575f5ffd5b5061093a6112c7565b604080519485526020850193909352918301526060820152608001610310565b348015610965575f5ffd5b50610338610974366004612618565b611341565b348015610984575f5ffd5b5061037760095481565b348015610999575f5ffd5b506007546102fc906001600160a01b031681565b3480156109b8575f5ffd5b506004546102fc906001600160a01b031681565b3480156109d7575f5ffd5b506103386109e63660046127d6565b61137e565b6109f3611502565b600c91909155600d55565b610a06611502565b600891909155600955565b6001600160a01b0381165f90815260146020908152604091829020805483518184028101840190945280845260609392830182828015610a6e57602002820191905f5260205f20905b815481526020019060010190808311610a5a575b50505050509050919050565b6007546001600160a01b03163314610aad5760405162461bcd60e51b8152600401610aa490612902565b60405180910390fd5b5f60115411610af05760405162461bcd60e51b815260206004820152600f60248201526e464f4d4f5f504f4f4c5f454d50545960881b6044820152606401610aa4565b600f545f9081526010602052604090206015810154610b465760405162461bcd60e51b81526020600482015260126024820152714e4f5f5155414c49464945445f555345525360701b6044820152606401610aa4565b5f816015015460646011546028610b5d919061293b565b610b679190612952565b610b719190612952565b90505f5b8260150154811015610bde575f838260158110610b9457610b94612971565b01546001600160a01b031614610bd6575f54610bd6906001600160a01b0316848360158110610bc557610bc5612971565b01546001600160a01b03168461155d565b600101610b75565b506015820154610bee908261293b565b601154610bfb9190612985565b6011819055506001600f5f828254610c139190612998565b9091555050600f545f908152601060205260408120601501555050565b610c38611502565b600a91909155600b55565b610c4b611673565b610c5482611717565b610c5e828261171f565b5050565b5f610c6b6117db565b505f516020612a635f395f51905f525b90565b6007546001600160a01b03163314610ca85760405162461bcd60e51b8152600401610aa490612902565b610cb383828461155d565b505050565b6004546001600160a01b03163314610ce25760405162461bcd60e51b8152600401610aa490612902565b610cea611824565b610cb38383835f5f6119ff565b610cff611502565b610d085f611bc3565b565b610d12611502565b600180546001600160a01b039586166001600160a01b0319918216179091556002805494861694821694909417909355600380549285169284169290921790915560048054919093169116179055565b6004546001600160a01b03163314610d8c5760405162461bcd60e51b8152600401610aa490612902565b6015548110158015610d9f575060165481105b610dd85760405162461bcd60e51b815260206004820152600a6024820152691253959053125117d25160b21b6044820152606401610aa4565b5f81815260136020526040902080546001600160a01b03848116911614610e2d5760405162461bcd60e51b81526020600482015260096024820152682727aa2fa7aba722a960b91b6044820152606401610aa4565b6005810154610100900460ff1615610e795760405162461bcd60e51b815260206004820152600f60248201526e1053149150511657d2105391131151608a1b6044820152606401610aa4565b6001810154600582015460ff16610f0f57600d548111610ece5760405162461bcd60e51b815260206004820152601060248201526f105353d5539517d513d3d7d4d350531360821b6044820152606401610aa4565b5f600d5482610edd9190612985565b9050600d5460115f828254610ef29190612998565b90915550505f54610f0d906001600160a01b0316868361155d565b505b50600501805461ff0019166102001790555050565b5f610f2d6125a7565b600f545f8181526010602052604080822060158082015460115484516102a081019586905295968796949590948694909185919082845b81546001600160a01b03168152600190910190602001808311610f64575050505050925094509450945094505090919293565b6004546001600160a01b03163314610fc15760405162461bcd60e51b8152600401610aa490612902565b610fc9611824565b600154604051635569f64b60e11b81526001600160a01b038481166004830152602482018490529091169063aad3ec96906044015f604051808303815f87803b158015611014575f5ffd5b505af1158015611026573d5f5f3e3d5ffd5b505050505050565b611036611502565b601955565b6004546001600160a01b031633146110655760405162461bcd60e51b8152600401610aa490612902565b61106d611824565b6001546040516382510bcf60e01b81526001600160a01b038481166004830152602482018490525f9283929116906382510bcf906044016040805180830381865afa1580156110be573d5f5f3e3d5ffd5b505050506040513d601f19601f820116820180604052508101906110e291906129ab565b915091506110f08282611c33565b6111355760405162461bcd60e51b8152602060048201526016602482015275155394d51052d157d45553d51057d15610d15151115160521b6044820152606401610aa4565b600154604051630615339760e51b81526001600160a01b038681166004830152602482018690529091169063c2a672e0906044015f604051808303815f87803b158015611180575f5ffd5b505af1158015611192573d5f5f3e3d5ffd5b505050506111a08282611c93565b60035460405163712e1fe360e11b81526001600160a01b038681166004830152602482018590529091169063e25c3fc6906044015f604051808303815f87803b1580156111eb575f5ffd5b505af11580156111fd573d5f5f3e3d5ffd5b5050505050505050565b61120f611502565b600e55565b6004546001600160a01b0316331461123e5760405162461bcd60e51b8152600401610aa490612902565b6001546040516382510bcf60e01b81526001600160a01b038581166004830152602482018590525f9216906382510bcf906044016040805180830381865afa15801561128c573d5f5f3e3d5ffd5b505050506040513d601f19601f820116820180604052508101906112b091906129ab565b5090506112c18482846001876119ff565b50505050565b5f5f5f5f5f6112d4611ce8565b5f8181526012602052604081208054600182015490985095509192506112f8611d0a565b9050868111611307575f611311565b6113118782612985565b95505f61131c611dbc565b905085811161132b575f611335565b6113358682612985565b94505050505090919293565b611349611502565b6001600160a01b03811661137257604051631e4fbdf760e01b81525f6004820152602401610aa4565b61137b81611bc3565b50565b5f611387611e41565b805490915060ff600160401b820416159067ffffffffffffffff165f811580156113ae5750825b90505f8267ffffffffffffffff1660011480156113ca5750303b155b9050811580156113d8575080155b156113f65760405163f92ee8a960e01b815260040160405180910390fd5b845467ffffffffffffffff19166001178555831561142057845460ff60401b1916600160401b1785555b61142933611e69565b600780546001600160a01b03808c166001600160a01b031992831617909255600580548b8416908316179055600680548a84169083161790555f8054928916929091169190911790554260085560046009556107d0600a819055600b55670de0b6b3a7640000600c55671bc16d674ec80000600d55681b1ae4d6e2ef500000600e55610fa060195583156114f757845460ff60401b19168555604051600181527fc7f505b2f371ae2175ee4913f4499e1f2633a7b5936321eed1cdaeb6115181d29060200160405180910390a15b505050505050505050565b336115347f9016d09d72d40fdae2fd8ceac6b6234c7706214fd39c1cd1e609a0528c199300546001600160a01b031690565b6001600160a01b031614610d085760405163118cdaa760e01b8152336004820152602401610aa4565b604080516001600160a01b038481166024830152604480830185905283518084039091018152606490920183526020820180516001600160e01b031663a9059cbb60e01b17905291515f928392908716916115b891906129da565b5f604051808303815f865af19150503d805f81146115f1576040519150601f19603f3d011682016040523d82523d5f602084013e6115f6565b606091505b509150915081801561162057508051158061162057508080602001905181019061162091906129f0565b61166c5760405162461bcd60e51b815260206004820152601f60248201527f5472616e7366657248656c7065723a205452414e534645525f4641494c4544006044820152606401610aa4565b5050505050565b306001600160a01b037f00000000000000000000000000000000000000000000000000000000000000001614806116f957507f00000000000000000000000000000000000000000000000000000000000000006001600160a01b03166116ed5f516020612a635f395f51905f52546001600160a01b031690565b6001600160a01b031614155b15610d085760405163703e46dd60e11b815260040160405180910390fd5b61137b611502565b816001600160a01b03166352d1902d6040518163ffffffff1660e01b8152600401602060405180830381865afa925050508015611779575060408051601f3d908101601f1916820190925261177691810190612a0f565b60015b6117a157604051634c9c8ce360e01b81526001600160a01b0383166004820152602401610aa4565b5f516020612a635f395f51905f5281146117d157604051632a87526960e21b815260048101829052602401610aa4565b610cb38383611e7a565b306001600160a01b037f00000000000000000000000000000000000000000000000000000000000000001614610d085760405163703e46dd60e11b815260040160405180910390fd5b6005546040805163a5aff84160e01b815290515f926001600160a01b03169163a5aff8419160048083019260209291908290030181865afa15801561186b573d5f5f3e3d5ffd5b505050506040513d601f19601f8201168201806040525081019061188f9190612a0f565b5f80546006546040516370a0823160e01b81526001600160a01b03918216600482015293945091929116906370a0823190602401602060405180830381865afa1580156118de573d5f5f3e3d5ffd5b505050506040513d601f19601f820116820180604052508101906119029190612a0f565b60175490915060ff16158015611931575061271060195483611924919061293b565b61192e9190612952565b81105b1561198d576017805460ff1916600190811790915560188290555460408051638456cb5960e01b815290516001600160a01b0390921691638456cb59916004808201925f9290919082900301818387803b158015611014575f5ffd5b60175460ff1680156119ab57506018546119a890600261293b565b81115b15610c5e576017805460ff191690555f601881905560015460408051630237bed160e11b815290516001600160a01b039092169263046f7da29260048084019382900301818387803b158015611014575f5ffd5b611a07611824565b611a0f611ecf565b50611a1a848461215e565b15611bb6578115611a8b576001546040516385cf4f9d60e01b81526001600160a01b03909116906385cf4f9d90611a5990889085908890600401612a26565b5f604051808303815f87803b158015611a70575f5ffd5b505af1158015611a82573d5f5f3e3d5ffd5b50505050611b95565b5f600c5485611a9a9190612985565b5f54600254919250611ab9916001600160a01b0391821691168361155d565b60015460405163031a0e0360e51b81526001600160a01b0390911690636341c06090611aed90899085908990600401612a26565b5f604051808303815f87803b158015611b04575f5ffd5b505af1158015611b16573d5f5f3e3d5ffd5b50505050600c5460115f828254611b2d9190612998565b909155505060035460405163543b35c760e01b81526001600160a01b038881166004830152602482018490529091169063543b35c7906044015f604051808303815f87803b158015611b7d575f5ffd5b505af1158015611b8f573d5f5f3e3d5ffd5b50505050505b611b9f84846121bf565b600e548410611bb157611bb185612216565b61166c565b61166c858583868661233b565b7f9016d09d72d40fdae2fd8ceac6b6234c7706214fd39c1cd1e609a0528c19930080546001600160a01b031981166001600160a01b03848116918217845560405192169182907f8be0079c531659141344cd1fd0a4f28419497f9722a3daafe3b4186f6b6457e0905f90a3505050565b5f8160ff165f03611c4657506001611c8d565b60175460ff1615611c5857505f611c8d565b5f611c61611ce8565b9050611c6b611dbc565b5f82815260126020526040902060010154611c87908690612998565b11159150505b92915050565b8060ff165f03611ca1575050565b60175460ff1615611cb0575050565b5f611cb9611ce8565b90508260125f8381526020019081526020015f206001015f828254611cde9190612998565b9091555050505050565b5f6201518060085442611cfb9190612985565b611d059190612952565b905090565b5f611d136123e2565b80611d20575060175460ff165b15611d2b57505f1990565b5f80546006546040516370a0823160e01b81526001600160a01b0391821660048201529116906370a0823190602401602060405180830381865afa158015611d75573d5f5f3e3d5ffd5b505050506040513d601f19601f82011682018060405250810190611d999190612a0f565b9050612710600a5482611dac919061293b565b611db69190612952565b91505090565b5f80546006546040516370a0823160e01b81526001600160a01b039182166004820152839291909116906370a0823190602401602060405180830381865afa158015611e0a573d5f5f3e3d5ffd5b505050506040513d601f19601f82011682018060405250810190611e2e9190612a0f565b9050612710600b5482611dac919061293b565b5f807ff0c57e16840df040f15088dc2f81fe391c3923bec73e23a9662efc9c229c6a00611c8d565b611e71612408565b61137b8161242d565b611e8382612435565b6040516001600160a01b038316907fbc7cd75a20ee27fd9adebab32041f755214dbc6bffa90cc0225b39da2e5c2d3b905f90a2805115611ec757610cb38282612498565b610c5e612538565b5f5b601654601554108015611ee45750600581105b15610c7b576015545f9081526013602052604090206005810154610100900460ff1615611f255760158054905f611f1a83612a4a565b919050555050611ed1565b60018101546003820154611f3c919060ff1661215e565b611f44575090565b600581015460ff1615611fde576001548154600283015460038401546040516385cf4f9d60e01b81526001600160a01b03948516946385cf4f9d94611f9694911692909160ff90911690600401612a26565b5f604051808303815f87803b158015611fad575f5ffd5b505af1158015611fbf573d5f5f3e3d5ffd5b50505060018201546003830154611fd9925060ff166121bf565b61212f565b5f600c548260010154611ff19190612985565b5f54600254919250612010916001600160a01b0391821691168361155d565b6001548254600384015460405163031a0e0360e51b81526001600160a01b0393841693636341c0609361204e93911691869160ff1690600401612a26565b5f604051808303815f87803b158015612065575f5ffd5b505af1158015612077573d5f5f3e3d5ffd5b50505050600c5460115f82825461208e9190612998565b9091555050600182015460038301546120aa919060ff166121bf565b600e548260010154106120cb5781546120cb906001600160a01b0316612216565b600354825460405163543b35c760e01b81526001600160a01b0391821660048201526024810184905291169063543b35c7906044015f604051808303815f87803b158015612117575f5ffd5b505af1158015612129573d5f5f3e3d5ffd5b50505050505b60058101805461ff0019166101001790558161214a81612a4a565b601580549194509091505f611f1a83612a4a565b5f8160ff165f0361217157506001611c8d565b6121796123e2565b80612186575060175460ff165b1561219357506001611c8d565b5f61219c611ce8565b90506121a6611d0a565b5f82815260126020526040902054611c87908690612998565b8060ff165f036121cd575050565b6121d56123e2565b806121e2575060175460ff165b156121eb575050565b5f6121f4611ce8565b5f81815260126020526040812080549293508592909190611cde908490612998565b600f545f90815260106020526040902060158082015410156122845781815f0182601501546015811061224b5761224b612971565b0180546001600160a01b0319166001600160a01b0392909216919091179055601581018054905f61227b83612a4a565b91905055505050565b5f5b61229260016015612985565b8110156122f957816122a5826001612998565b601581106122b5576122b5612971565b01546001600160a01b03168282601581106122d2576122d2612971565b0180546001600160a01b0319166001600160a01b0392909216919091179055600101612286565b50818161230860016015612985565b6015811061231857612318612971565b0180546001600160a01b0319166001600160a01b03929092169190911790555050565b601680545f90815260136020908152604080832080546001600160a01b0319166001600160a01b038b16908117825560018083018b9055600283018a905560038301805460ff191660ff8b1617905542600484015560058301805461ffff191689151561ff00191617905590855260148452918420855481549384018255908552928420909101919091558254909290916123d583612a4a565b9190505550505050505050565b5f600954620151806123f4919061293b565b6008546124019190612998565b4210905090565b612410612557565b610d0857604051631afcd79f60e31b815260040160405180910390fd5b611349612408565b806001600160a01b03163b5f0361246a57604051634c9c8ce360e01b81526001600160a01b0382166004820152602401610aa4565b5f516020612a635f395f51905f5280546001600160a01b0319166001600160a01b0392909216919091179055565b60605f6124a58484612570565b90508080156124c657505f3d11806124c657505f846001600160a01b03163b115b156124db576124d3612583565b915050611c8d565b801561250557604051639996b31560e01b81526001600160a01b0385166004820152602401610aa4565b3d156125185761251361259c565b612531565b60405163d6bda27560e01b815260040160405180910390fd5b5092915050565b3415610d085760405163b398979f60e01b815260040160405180910390fd5b5f612560611e41565b54600160401b900460ff16919050565b5f5f5f835160208501865af49392505050565b6040513d81523d5f602083013e3d602001810160405290565b6040513d5f823e3d81fd5b604051806102a001604052806015906020820280368337509192915050565b5f5f604083850312156125d7575f5ffd5b50508035926020909101359150565b5f602082840312156125f6575f5ffd5b5035919050565b80356001600160a01b0381168114612613575f5ffd5b919050565b5f60208284031215612628575f5ffd5b612631826125fd565b9392505050565b602080825282518282018190525f918401906040840190835b8181101561266f578351835260209384019390920191600101612651565b509095945050505050565b634e487b7160e01b5f52604160045260245ffd5b5f5f6040838503121561269f575f5ffd5b6126a8836125fd565b9150602083013567ffffffffffffffff8111156126c3575f5ffd5b8301601f810185136126d3575f5ffd5b803567ffffffffffffffff8111156126ed576126ed61267a565b604051601f8201601f19908116603f0116810167ffffffffffffffff8111828210171561271c5761271c61267a565b604052818152828201602001871015612733575f5ffd5b816020840160208301375f602083830101528093505050509250929050565b5f5f5f60608486031215612764575f5ffd5b61276d846125fd565b925060208401359150612782604085016125fd565b90509250925092565b60ff8116811461137b575f5ffd5b5f5f5f606084860312156127ab575f5ffd5b6127b4846125fd565b92506020840135915060408401356127cb8161278b565b809150509250925092565b5f5f5f5f608085870312156127e9575f5ffd5b6127f2856125fd565b9350612800602086016125fd565b925061280e604086016125fd565b915061281c606086016125fd565b905092959194509250565b5f5f60408385031215612838575f5ffd5b612841836125fd565b946020939093013593505050565b848152610300810160208201855f5b60158110156128865781516001600160a01b031683526020928301929091019060010161285e565b5050506102c08201939093526102e0015292915050565b602081525f82518060208401528060208501604085015e5f604082850101526040601f19601f83011684010191505092915050565b5f5f5f606084860312156128e4575f5ffd5b6128ed846125fd565b95602085013595506040909401359392505050565b6020808252600b908201526a2737ba103832b936b4ba1760a91b604082015260600190565b634e487b7160e01b5f52601160045260245ffd5b8082028115828204841417611c8d57611c8d612927565b5f8261296c57634e487b7160e01b5f52601260045260245ffd5b500490565b634e487b7160e01b5f52603260045260245ffd5b81810381811115611c8d57611c8d612927565b80820180821115611c8d57611c8d612927565b5f5f604083850312156129bc575f5ffd5b825160208401519092506129cf8161278b565b809150509250929050565b5f82518060208501845e5f920191825250919050565b5f60208284031215612a00575f5ffd5b81518015158114612631575f5ffd5b5f60208284031215612a1f575f5ffd5b5051919050565b6001600160a01b03939093168352602083019190915260ff16604082015260600190565b5f60018201612a5b57612a5b612927565b506001019056fe360894a13ba1a3210667c828492db98dca3e2076cc3735a920a3ca505d382bbca2646970667358221220b566d1ae9e7f57ed94c9271d9669561ccdb4192bf866d25dfbcfc0ce102c465064736f6c634300081e0033","linkReferences":{}},"methodIdentifiers":{"UPGRADE_INTERFACE_VERSION()":"ad3cb1cc","USDT()":"c54e44eb","admin()":"f851a440","breakerReserve()":"8a1e6c08","breakerTriggerRatio()":"d9f3680f","cancelFee()":"14025dcd","cancelQueue(address,uint256)":"a05a9e13","circuitBreaker()":"16efd941","claim(address,uint256)":"aad3ec96","dailyQuota(uint256)":"41eb2d97","drawFomoRewards()":"3112538f","emergencyWithdraw(address,uint256,address)":"551512de","fomoMinAmount()":"8ed31099","fomoPoolBalance()":"5037533e","fomoRewardCount()":"7d43bf67","freeDays()":"f5602c27","getCurrentRound()":"a32bf597","getPendingOrder(uint256)":"1e186afb","getQueueRange()":"10b5a38e","getTodayQuota()":"e4c2ab71","getUserQueueIds(address)":"2e586cab","head()":"8f7dcfa3","initialize(address,address,address,address)":"f8c8765e","launchTime()":"790ca413","lex()":"7d0a1518","owner()":"8da5cb5b","pair()":"a8aa1b31","proxiableUUID()":"52d1902d","queue(uint256)":"ddf0b009","referrals()":"d3dc7539","renounceOwnership()":"715018a6","restake(address,uint256,uint256)":"dec1ac48","rounds()":"a2e800ad","roundsData(uint256)":"c97d8679","router()":"f887ea40","setAddrConfig(address,address,address,address)":"72207cc3","setCircuitBreakerConfig(uint256)":"b50077cf","setFees(uint256,uint256)":"0b78f9c0","setFomoConfig(uint256)":"ce22767c","setLaunchAndFreeDays(uint256,uint256)":"2b813998","setQuotaRatios(uint256,uint256)":"38962ae1","stake(address,uint256,uint8)":"6341c060","stakeFee()":"222c9777","stakeRatio()":"8e00a8e8","tail()":"13d8c840","transferOwnership(address)":"f2fde38b","treasury()":"61d027b3","treasuryLiquidity()":"09fb6698","unstake(address,uint256)":"c2a672e0","unstakeRatio()":"7c1e652f","upgradeToAndCall(address,bytes)":"4f1ef286"},"id":43}