{"abi":[{"type":"function","name":"UPGRADE_INTERFACE_VERSION","inputs":[],"outputs":[{"name":"","type":"string","internalType":"string"}],"stateMutability":"view"},{"type":"function","name":"USDT","inputs":[],"outputs":[{"name":"","type":"address","internalType":"address"}],"stateMutability":"view"},{"type":"function","name":"admin","inputs":[],"outputs":[{"name":"","type":"address","internalType":"address"}],"stateMutability":"view"},{"type":"function","name":"breakerReserve","inputs":[],"outputs":[{"name":"","type":"uint256","internalType":"uint256"}],"stateMutability":"view"},{"type":"function","name":"breakerTriggerRatio","inputs":[],"outputs":[{"name":"","type":"uint256","internalType":"uint256"}],"stateMutability":"view"},{"type":"function","name":"cancelFee","inputs":[],"outputs":[{"name":"","type":"uint256","internalType":"uint256"}],"stateMutability":"view"},{"type":"function","name":"cancelQueue","inputs":[{"name":"user","type":"address","internalType":"address"},{"name":"queueId","type":"uint256","internalType":"uint256"}],"outputs":[],"stateMutability":"nonpayable"},{"type":"function","name":"circuitBreaker","inputs":[],"outputs":[{"name":"","type":"bool","internalType":"bool"}],"stateMutability":"view"},{"type":"function","name":"claim","inputs":[{"name":"user","type":"address","internalType":"address"},{"name":"orderIndex","type":"uint256","internalType":"uint256"}],"outputs":[],"stateMutability":"nonpayable"},{"type":"function","name":"dailyQuota","inputs":[{"name":"","type":"uint256","internalType":"uint256"}],"outputs":[{"name":"stakeUsed","type":"uint256","internalType":"uint256"},{"name":"unstakeUsed","type":"uint256","internalType":"uint256"}],"stateMutability":"view"},{"type":"function","name":"drawFomoRewards","inputs":[],"outputs":[],"stateMutability":"nonpayable"},{"type":"function","name":"emergencyWithdraw","inputs":[{"name":"token","type":"address","internalType":"address"},{"name":"amount","type":"uint256","internalType":"uint256"},{"name":"to","type":"address","internalType":"address"}],"outputs":[],"stateMutability":"nonpayable"},{"type":"function","name":"fomoAwardsInfo","inputs":[{"name":"","type":"address","internalType":"address"}],"outputs":[{"name":"rounds","type":"uint256","internalType":"uint256"},{"name":"amount","type":"uint256","internalType":"uint256"}],"stateMutability":"view"},{"type":"function","name":"fomoMinAmount","inputs":[],"outputs":[{"name":"","type":"uint256","internalType":"uint256"}],"stateMutability":"view"},{"type":"function","name":"fomoPoolBalance","inputs":[],"outputs":[{"name":"","type":"uint256","internalType":"uint256"}],"stateMutability":"view"},{"type":"function","name":"fomoRewardCount","inputs":[],"outputs":[{"name":"","type":"uint256","internalType":"uint256"}],"stateMutability":"view"},{"type":"function","name":"freeDays","inputs":[],"outputs":[{"name":"","type":"uint256","internalType":"uint256"}],"stateMutability":"view"},{"type":"function","name":"getCurrentRound","inputs":[],"outputs":[{"name":"roundId","type":"uint256","internalType":"uint256"},{"name":"lastQualified","type":"address[21]","internalType":"address[21]"},{"name":"count","type":"uint256","internalType":"uint256"},{"name":"poolBalance","type":"uint256","internalType":"uint256"}],"stateMutability":"view"},{"type":"function","name":"getPendingOrder","inputs":[{"name":"queueId","type":"uint256","internalType":"uint256"}],"outputs":[{"name":"user","type":"address","internalType":"address"},{"name":"amount","type":"uint256","internalType":"uint256"},{"name":"orderIndex","type":"uint256","internalType":"uint256"},{"name":"stakeIndex","type":"uint8","internalType":"uint8"},{"name":"createdAt","type":"uint256","internalType":"uint256"},{"name":"isRestake","type":"bool","internalType":"bool"},{"name":"status","type":"uint8","internalType":"uint8"}],"stateMutability":"view"},{"type":"function","name":"getQueueRange","inputs":[],"outputs":[{"name":"_head","type":"uint256","internalType":"uint256"},{"name":"_tail","type":"uint256","internalType":"uint256"}],"stateMutability":"view"},{"type":"function","name":"getTodayQuota","inputs":[],"outputs":[{"name":"stakeUsed","type":"uint256","internalType":"uint256"},{"name":"stakeRemaining","type":"uint256","internalType":"uint256"},{"name":"unstakeUsed","type":"uint256","internalType":"uint256"},{"name":"unstakeRemaining","type":"uint256","internalType":"uint256"}],"stateMutability":"view"},{"type":"function","name":"getUserQueueIds","inputs":[{"name":"user","type":"address","internalType":"address"}],"outputs":[{"name":"","type":"uint256[]","internalType":"uint256[]"}],"stateMutability":"view"},{"type":"function","name":"head","inputs":[],"outputs":[{"name":"","type":"uint256","internalType":"uint256"}],"stateMutability":"view"},{"type":"function","name":"initialize","inputs":[{"name":"_admin","type":"address","internalType":"address"},{"name":"_lex","type":"address","internalType":"address"},{"name":"_pair","type":"address","internalType":"address"},{"name":"_USDT","type":"address","internalType":"address"},{"name":"_treasury","type":"address","internalType":"address"},{"name":"_treasuryLiquidity","type":"address","internalType":"address"},{"name":"_referrals","type":"address","internalType":"address"}],"outputs":[],"stateMutability":"nonpayable"},{"type":"function","name":"launchTime","inputs":[],"outputs":[{"name":"","type":"uint256","internalType":"uint256"}],"stateMutability":"view"},{"type":"function","name":"lex","inputs":[],"outputs":[{"name":"","type":"address","internalType":"address"}],"stateMutability":"view"},{"type":"function","name":"owner","inputs":[],"outputs":[{"name":"","type":"address","internalType":"address"}],"stateMutability":"view"},{"type":"function","name":"pair","inputs":[],"outputs":[{"name":"","type":"address","internalType":"address"}],"stateMutability":"view"},{"type":"function","name":"proxiableUUID","inputs":[],"outputs":[{"name":"","type":"bytes32","internalType":"bytes32"}],"stateMutability":"view"},{"type":"function","name":"queue","inputs":[{"name":"","type":"uint256","internalType":"uint256"}],"outputs":[{"name":"user","type":"address","internalType":"address"},{"name":"amount","type":"uint256","internalType":"uint256"},{"name":"orderIndex","type":"uint256","internalType":"uint256"},{"name":"stakeIndex","type":"uint8","internalType":"uint8"},{"name":"createdAt","type":"uint256","internalType":"uint256"},{"name":"isRestake","type":"bool","internalType":"bool"},{"name":"status","type":"uint8","internalType":"uint8"}],"stateMutability":"view"},{"type":"function","name":"referrals","inputs":[],"outputs":[{"name":"","type":"address","internalType":"address"}],"stateMutability":"view"},{"type":"function","name":"renounceOwnership","inputs":[],"outputs":[],"stateMutability":"nonpayable"},{"type":"function","name":"restake","inputs":[{"name":"user","type":"address","internalType":"address"},{"name":"orderIndex","type":"uint256","internalType":"uint256"},{"name":"newStakeIndex","type":"uint256","internalType":"uint256"}],"outputs":[],"stateMutability":"nonpayable"},{"type":"function","name":"rounds","inputs":[],"outputs":[{"name":"","type":"uint256","internalType":"uint256"}],"stateMutability":"view"},{"type":"function","name":"roundsData","inputs":[{"name":"","type":"uint256","internalType":"uint256"}],"outputs":[{"name":"count","type":"uint256","internalType":"uint256"}],"stateMutability":"view"},{"type":"function","name":"router","inputs":[],"outputs":[{"name":"","type":"address","internalType":"address"}],"stateMutability":"view"},{"type":"function","name":"setAddrConfig","inputs":[{"name":"_router","type":"address","internalType":"address"}],"outputs":[],"stateMutability":"nonpayable"},{"type":"function","name":"setCircuitBreakerConfig","inputs":[{"name":"_breakerTriggerRatio","type":"uint256","internalType":"uint256"}],"outputs":[],"stateMutability":"nonpayable"},{"type":"function","name":"setFees","inputs":[{"name":"_stakeFee","type":"uint256","internalType":"uint256"},{"name":"_cancelFee","type":"uint256","internalType":"uint256"}],"outputs":[],"stateMutability":"nonpayable"},{"type":"function","name":"setFomoConfig","inputs":[{"name":"_fomoMinAmount","type":"uint256","internalType":"uint256"}],"outputs":[],"stateMutability":"nonpayable"},{"type":"function","name":"setLaunchAndFreeDays","inputs":[{"name":"_launchTime","type":"uint256","internalType":"uint256"},{"name":"_freeDays","type":"uint256","internalType":"uint256"}],"outputs":[],"stateMutability":"nonpayable"},{"type":"function","name":"setQuotaRatios","inputs":[{"name":"_stakeRatio","type":"uint256","internalType":"uint256"},{"name":"_unstakeRatio","type":"uint256","internalType":"uint256"}],"outputs":[],"stateMutability":"nonpayable"},{"type":"function","name":"stake","inputs":[{"name":"user","type":"address","internalType":"address"},{"name":"amount","type":"uint256","internalType":"uint256"},{"name":"stakeIndex","type":"uint8","internalType":"uint8"}],"outputs":[],"stateMutability":"nonpayable"},{"type":"function","name":"stakeFee","inputs":[],"outputs":[{"name":"","type":"uint256","internalType":"uint256"}],"stateMutability":"view"},{"type":"function","name":"stakeRatio","inputs":[],"outputs":[{"name":"","type":"uint256","internalType":"uint256"}],"stateMutability":"view"},{"type":"function","name":"tail","inputs":[],"outputs":[{"name":"","type":"uint256","internalType":"uint256"}],"stateMutability":"view"},{"type":"function","name":"transferOwnership","inputs":[{"name":"newOwner","type":"address","internalType":"address"}],"outputs":[],"stateMutability":"nonpayable"},{"type":"function","name":"treasury","inputs":[],"outputs":[{"name":"","type":"address","internalType":"address"}],"stateMutability":"view"},{"type":"function","name":"treasuryLiquidity","inputs":[],"outputs":[{"name":"","type":"address","internalType":"address"}],"stateMutability":"view"},{"type":"function","name":"unstake","inputs":[{"name":"user","type":"address","internalType":"address"},{"name":"orderIndex","type":"uint256","internalType":"uint256"}],"outputs":[],"stateMutability":"nonpayable"},{"type":"function","name":"unstakeRatio","inputs":[],"outputs":[{"name":"","type":"uint256","internalType":"uint256"}],"stateMutability":"view"},{"type":"function","name":"upgradeToAndCall","inputs":[{"name":"newImplementation","type":"address","internalType":"address"},{"name":"data","type":"bytes","internalType":"bytes"}],"outputs":[],"stateMutability":"payable"},{"type":"event","name":"Initialized","inputs":[{"name":"version","type":"uint64","indexed":false,"internalType":"uint64"}],"anonymous":false},{"type":"event","name":"OwnershipTransferred","inputs":[{"name":"previousOwner","type":"address","indexed":true,"internalType":"address"},{"name":"newOwner","type":"address","indexed":true,"internalType":"address"}],"anonymous":false},{"type":"event","name":"Upgraded","inputs":[{"name":"implementation","type":"address","indexed":true,"internalType":"address"}],"anonymous":false},{"type":"error","name":"AddressEmptyCode","inputs":[{"name":"target","type":"address","internalType":"address"}]},{"type":"error","name":"ERC1967InvalidImplementation","inputs":[{"name":"implementation","type":"address","internalType":"address"}]},{"type":"error","name":"ERC1967NonPayable","inputs":[]},{"type":"error","name":"FailedCall","inputs":[]},{"type":"error","name":"InvalidInitialization","inputs":[]},{"type":"error","name":"NotInitializing","inputs":[]},{"type":"error","name":"OwnableInvalidOwner","inputs":[{"name":"owner","type":"address","internalType":"address"}]},{"type":"error","name":"OwnableUnauthorizedAccount","inputs":[{"name":"account","type":"address","internalType":"address"}]},{"type":"error","name":"UUPSUnauthorizedCallContext","inputs":[]},{"type":"error","name":"UUPSUnsupportedProxiableUUID","inputs":[{"name":"slot","type":"bytes32","internalType":"bytes32"}]}],"bytecode":{"object":"0x60a0604052306080523480156012575f5ffd5b50608051612b566100395f395f81816117ae015281816117d701526119160152612b565ff3fe6080604052600436106102f3575f3560e01c80638104015011610189578063c2a672e0116100d8578063ddf0b00911610092578063f2fde38b1161006d578063f2fde38b146109c5578063f5602c27146109e4578063f851a440146109f9578063f887ea4014610a18575f5ffd5b8063ddf0b0091461090a578063dec1ac4814610972578063e4c2ab7114610991575f5ffd5b8063c2a672e01461084c578063c54e44eb1461086b578063c97d867914610889578063ce22767c146108b7578063d3dc7539146108d6578063d9f3680f146108f5575f5ffd5b8063a05a9e1311610143578063a8aa1b311161011e578063a8aa1b31146107b2578063aad3ec96146107d1578063ad3cb1cc146107f0578063b50077cf1461082d575f5ffd5b8063a05a9e131461075a578063a2e800ad14610779578063a32bf5971461078e575f5ffd5b806381040150146106ab5780638a1e6c08146106ca5780638da5cb5b146106df5780638e00a8e81461071b5780638ed31099146107305780638f7dcfa314610745575f5ffd5b806338962ae11161024557806361d027b3116101ff578063790ca413116101da578063790ca4131461064e5780637c1e652f146106635780637d0a1518146106785780637d43bf6714610697575f5ffd5b806361d027b3146105fc5780636341c0601461061b578063715018a61461063a575f5ffd5b806338962ae11461055057806341eb2d971461056f5780634f1ef286146105a15780635037533e146105b457806352d1902d146105c9578063551512de146105dd575f5ffd5b80631e186afb116102b05780632b8139981161028b5780632b813998146104d25780632e586cab146104f15780633112538f1461051d5780633587647614610531575f5ffd5b80631e186afb146103dd578063217462681461048b578063222c9777146104bd575f5ffd5b806309fb6698146102f75780630b78f9c01461033357806310b5a38e1461035457806313d8c8401461037c57806314025dcd1461039f57806316efd941146103b4575b5f5ffd5b348015610302575f5ffd5b50600254610316906001600160a01b031681565b6040516001600160a01b0390911681526020015b60405180910390f35b34801561033e575f5ffd5b5061035261034d366004612658565b610a37565b005b34801561035f575f5ffd5b506016546017545b6040805192835260208301919091520161032a565b348015610387575f5ffd5b5061039160175481565b60405190815260200161032a565b3480156103aa575f5ffd5b50610391600d5481565b3480156103bf575f5ffd5b506018546103cd9060ff1681565b604051901515815260200161032a565b3480156103e8575f5ffd5b506104466103f7366004612678565b5f908152601460205260409020805460018201546002830154600384015460048501546005909501546001600160a01b03909416959294919360ff918216938282169261010090920490911690565b604080516001600160a01b03909816885260208801969096529486019390935260ff9182166060860152608085015290151560a08401521660c082015260e00161032a565b348015610496575f5ffd5b506103676104a53660046126aa565b60126020525f90815260409020805460019091015482565b3480156104c8575f5ffd5b50610391600c5481565b3480156104dd575f5ffd5b506103526104ec366004612658565b610a75565b3480156104fc575f5ffd5b5061051061050b3660046126aa565b610a88565b60405161032a91906126ca565b348015610528575f5ffd5b50610352610af1565b34801561053c575f5ffd5b5061035261054b36600461270c565b610d0c565b34801561055b575f5ffd5b5061035261056a366004612658565b610eb5565b34801561057a575f5ffd5b50610367610589366004612678565b60136020525f90815260409020805460019091015482565b6103526105af3660046127a1565b610eea565b3480156105bf575f5ffd5b5061039160115481565b3480156105d4575f5ffd5b50610391610f09565b3480156105e8575f5ffd5b506103526105f7366004612865565b610f25565b348015610607575f5ffd5b50600154610316906001600160a01b031681565b348015610626575f5ffd5b506103526106353660046128ac565b610f5f565b348015610645575f5ffd5b50610352610f9e565b348015610659575f5ffd5b5061039160085481565b34801561066e575f5ffd5b50610391600b5481565b348015610683575f5ffd5b50600554610316906001600160a01b031681565b3480156106a2575f5ffd5b50610391601581565b3480156106b6575f5ffd5b506103526106c53660046126aa565b610fb1565b3480156106d5575f5ffd5b5061039160195481565b3480156106ea575f5ffd5b507f9016d09d72d40fdae2fd8ceac6b6234c7706214fd39c1cd1e609a0528c199300546001600160a01b0316610316565b348015610726575f5ffd5b50610391600a5481565b34801561073b575f5ffd5b50610391600e5481565b348015610750575f5ffd5b5061039160165481565b348015610765575f5ffd5b506103526107743660046128e9565b610fdb565b348015610784575f5ffd5b50610391600f5481565b348015610799575f5ffd5b506107a261119d565b60405161032a9493929190612911565b3480156107bd575f5ffd5b50600654610316906001600160a01b031681565b3480156107dc575f5ffd5b506103526107eb3660046128e9565b611210565b3480156107fb575f5ffd5b50610820604051806040016040528060058152602001640352e302e360dc1b81525081565b60405161032a919061295f565b348015610838575f5ffd5b50610352610847366004612678565b6112a7565b348015610857575f5ffd5b506103526108663660046128e9565b6112b4565b348015610876575f5ffd5b505f54610316906001600160a01b031681565b348015610894575f5ffd5b506103916108a3366004612678565b60106020525f908152604090206015015481565b3480156108c2575f5ffd5b506103526108d1366004612678565b611480565b3480156108e1575f5ffd5b50600354610316906001600160a01b031681565b348015610900575f5ffd5b50610391601a5481565b348015610915575f5ffd5b50610446610924366004612678565b60146020525f90815260409020805460018201546002830154600384015460048501546005909501546001600160a01b03909416949293919260ff9182169290918181169161010090041687565b34801561097d575f5ffd5b5061035261098c366004612994565b61148d565b34801561099c575f5ffd5b506109a5611540565b60408051948552602085019390935291830152606082015260800161032a565b3480156109d0575f5ffd5b506103526109df3660046126aa565b6115ba565b3480156109ef575f5ffd5b5061039160095481565b348015610a04575f5ffd5b50600754610316906001600160a01b031681565b348015610a23575f5ffd5b50600454610316906001600160a01b031681565b6007546001600160a01b03163314610a6a5760405162461bcd60e51b8152600401610a61906129c4565b60405180910390fd5b600c91909155600d55565b610a7d6115f7565b600891909155600955565b6001600160a01b0381165f90815260156020908152604091829020805483518184028101840190945280845260609392830182828015610ae557602002820191905f5260205f20905b815481526020019060010190808311610ad1575b50505050509050919050565b6007546001600160a01b03163314610b1b5760405162461bcd60e51b8152600401610a61906129c4565b5f60115411610b5e5760405162461bcd60e51b815260206004820152600f60248201526e464f4d4f5f504f4f4c5f454d50545960881b6044820152606401610a61565b600f545f9081526010602052604090206015810154610bb45760405162461bcd60e51b81526020600482015260126024820152714e4f5f5155414c49464945445f555345525360701b6044820152606401610a61565b5f816015015460646011546028610bcb91906129fd565b610bd59190612a14565b610bdf9190612a14565b90505f5b8260150154811015610cba575f838260158110610c0257610c02612a33565b01546001600160a01b031614610cb2575f54610c44906001600160a01b0316848360158110610c3357610c33612a33565b01546001600160a01b031684611652565b600f5460125f858460158110610c5c57610c5c612a33565b01546001600160a01b0316815260208101919091526040015f908120919091558290601290858460158110610c9357610c93612a33565b01546001600160a01b0316815260208101919091526040015f20600101555b600101610be3565b506015820154610cca90826129fd565b601154610cd79190612a47565b6011819055506001600f5f828254610cef9190612a5a565b9091555050600f545f908152601060205260408120601501555050565b5f610d15611768565b805490915060ff600160401b820416159067ffffffffffffffff165f81158015610d3c5750825b90505f8267ffffffffffffffff166001148015610d585750303b155b905081158015610d66575080155b15610d845760405163f92ee8a960e01b815260040160405180910390fd5b845467ffffffffffffffff191660011785558315610dae57845460ff60401b1916600160401b1785555b610db733611792565b600780546001600160a01b03199081166001600160a01b038f8116919091179092556005805482168e84161790556006805482168d84161790555f805482168c84161790556001805482168b84161781556002805483168b851617905560038054909216928916929092179055426008556009556107d0600a819055600b55670de0b6b3a7640000600c55671bc16d674ec80000600d55681b1ae4d6e2ef500000600e55610fa0601a558315610ea757845460ff60401b19168555604051600181527fc7f505b2f371ae2175ee4913f4499e1f2633a7b5936321eed1cdaeb6115181d29060200160405180910390a15b505050505050505050505050565b6007546001600160a01b03163314610edf5760405162461bcd60e51b8152600401610a61906129c4565b600a91909155600b55565b610ef26117a3565b610efb82611847565b610f05828261184f565b5050565b5f610f1261190b565b505f516020612b015f395f51905f525b90565b6007546001600160a01b03163314610f4f5760405162461bcd60e51b8152600401610a61906129c4565b610f5a838284611652565b505050565b6004546001600160a01b03163314610f895760405162461bcd60e51b8152600401610a61906129c4565b610f91611954565b610f5a8383835f5f611b2f565b610fa66115f7565b610faf5f611d02565b565b610fb96115f7565b600480546001600160a01b0319166001600160a01b0392909216919091179055565b6004546001600160a01b031633146110055760405162461bcd60e51b8152600401610a61906129c4565b6016548110158015611018575060175481105b6110515760405162461bcd60e51b815260206004820152600a6024820152691253959053125117d25160b21b6044820152606401610a61565b5f81815260146020526040902080546001600160a01b038481169116146110a65760405162461bcd60e51b81526020600482015260096024820152682727aa2fa7aba722a960b91b6044820152606401610a61565b6005810154610100900460ff16156110f25760405162461bcd60e51b815260206004820152600f60248201526e1053149150511657d2105391131151608a1b6044820152606401610a61565b6001810154600582015460ff1661118857600d5481116111475760405162461bcd60e51b815260206004820152601060248201526f105353d5539517d513d3d7d4d350531360821b6044820152606401610a61565b5f600d54826111569190612a47565b9050600d5460115f82825461116b9190612a5a565b90915550505f54611186906001600160a01b03168683611652565b505b50600501805461ff0019166102001790555050565b5f6111a6612639565b600f545f8181526010602052604080822060158082015460115484516102a081019586905295968796949590948694909185919082845b81546001600160a01b031681526001909101906020018083116111dd575050505050925094509450945094505090919293565b6004546001600160a01b0316331461123a5760405162461bcd60e51b8152600401610a61906129c4565b611242611954565b600154604051635569f64b60e11b81526001600160a01b038481166004830152602482018490529091169063aad3ec96906044015f604051808303815f87803b15801561128d575f5ffd5b505af115801561129f573d5f5f3e3d5ffd5b505050505050565b6112af6115f7565b601a55565b6004546001600160a01b031633146112de5760405162461bcd60e51b8152600401610a61906129c4565b6112e6611954565b6001546040516382510bcf60e01b81526001600160a01b038481166004830152602482018490525f9283929116906382510bcf906044016040805180830381865afa158015611337573d5f5f3e3d5ffd5b505050506040513d601f19601f8201168201806040525081019061135b9190612a6d565b915091506113698282611d72565b6113ae5760405162461bcd60e51b8152602060048201526016602482015275155394d51052d157d45553d51057d15610d15151115160521b6044820152606401610a61565b600154604051630615339760e51b81526001600160a01b038681166004830152602482018690529091169063c2a672e0906044015f604051808303815f87803b1580156113f9575f5ffd5b505af115801561140b573d5f5f3e3d5ffd5b505050506114198282611dd0565b60035460405163712e1fe360e11b81526001600160a01b038681166004830152602482018590529091169063e25c3fc6906044015f604051808303815f87803b158015611464575f5ffd5b505af1158015611476573d5f5f3e3d5ffd5b5050505050505050565b6114886115f7565b600e55565b6004546001600160a01b031633146114b75760405162461bcd60e51b8152600401610a61906129c4565b6001546040516382510bcf60e01b81526001600160a01b038581166004830152602482018590525f9216906382510bcf906044016040805180830381865afa158015611505573d5f5f3e3d5ffd5b505050506040513d601f19601f820116820180604052508101906115299190612a6d565b50905061153a848284600187611b2f565b50505050565b5f5f5f5f5f61154d611e25565b5f818152601360205260408120805460018201549098509550919250611571611e47565b9050868111611580575f61158a565b61158a8782612a47565b95505f611595611ef9565b90508581116115a4575f6115ae565b6115ae8682612a47565b94505050505090919293565b6115c26115f7565b6001600160a01b0381166115eb57604051631e4fbdf760e01b81525f6004820152602401610a61565b6115f481611d02565b50565b336116297f9016d09d72d40fdae2fd8ceac6b6234c7706214fd39c1cd1e609a0528c199300546001600160a01b031690565b6001600160a01b031614610faf5760405163118cdaa760e01b8152336004820152602401610a61565b604080516001600160a01b038481166024830152604480830185905283518084039091018152606490920183526020820180516001600160e01b031663a9059cbb60e01b17905291515f928392908716916116ad9190612a9c565b5f604051808303815f865af19150503d805f81146116e6576040519150601f19603f3d011682016040523d82523d5f602084013e6116eb565b606091505b50915091508180156117155750805115806117155750808060200190518101906117159190612ab2565b6117615760405162461bcd60e51b815260206004820152601f60248201527f5472616e7366657248656c7065723a205452414e534645525f4641494c4544006044820152606401610a61565b5050505050565b5f807ff0c57e16840df040f15088dc2f81fe391c3923bec73e23a9662efc9c229c6a005b92915050565b61179a611f8c565b6115f481611fb1565b306001600160a01b037f000000000000000000000000000000000000000000000000000000000000000016148061182957507f00000000000000000000000000000000000000000000000000000000000000006001600160a01b031661181d5f516020612b015f395f51905f52546001600160a01b031690565b6001600160a01b031614155b15610faf5760405163703e46dd60e11b815260040160405180910390fd5b6115f46115f7565b816001600160a01b03166352d1902d6040518163ffffffff1660e01b8152600401602060405180830381865afa9250505080156118a9575060408051601f3d908101601f191682019092526118a691810190612ad1565b60015b6118d157604051634c9c8ce360e01b81526001600160a01b0383166004820152602401610a61565b5f516020612b015f395f51905f52811461190157604051632a87526960e21b815260048101829052602401610a61565b610f5a8383611fb9565b306001600160a01b037f00000000000000000000000000000000000000000000000000000000000000001614610faf5760405163703e46dd60e11b815260040160405180910390fd5b6005546040805163a5aff84160e01b815290515f926001600160a01b03169163a5aff8419160048083019260209291908290030181865afa15801561199b573d5f5f3e3d5ffd5b505050506040513d601f19601f820116820180604052508101906119bf9190612ad1565b5f80546006546040516370a0823160e01b81526001600160a01b03918216600482015293945091929116906370a0823190602401602060405180830381865afa158015611a0e573d5f5f3e3d5ffd5b505050506040513d601f19601f82011682018060405250810190611a329190612ad1565b60185490915060ff16158015611a615750612710601a5483611a5491906129fd565b611a5e9190612a14565b81105b15611abd576018805460ff1916600190811790915560198290555460408051638456cb5960e01b815290516001600160a01b0390921691638456cb59916004808201925f9290919082900301818387803b15801561128d575f5ffd5b60185460ff168015611adb5750601954611ad89060026129fd565b81115b15610f05576018805460ff191690555f601981905560015460408051630237bed160e11b815290516001600160a01b039092169263046f7da29260048084019382900301818387803b15801561128d575f5ffd5b611b37611954565b611b3f61200e565b508115611bb5576001546040516385cf4f9d60e01b81526001600160a01b0387811660048301526024820184905260ff86166044830152909116906385cf4f9d906064015f604051808303815f87803b158015611b9a575f5ffd5b505af1158015611bac573d5f5f3e3d5ffd5b50505050611761565b611bbf848461221d565b15611cf55783680ad78ebc5ac6200000811015611bfe57600c54611be39086612a47565b9050600c5460115f828254611bf89190612a5a565b90915550505b5f54600254611c1a916001600160a01b03908116911683611652565b60015460405163031a0e0360e51b81526001600160a01b0388811660048301526024820184905260ff8716604483015290911690636341c060906064015f604051808303815f87803b158015611c6e575f5ffd5b505af1158015611c80573d5f5f3e3d5ffd5b505060035460405163543b35c760e01b81526001600160a01b038a8116600483015260248201869052909116925063543b35c791506044015f604051808303815f87803b158015611ccf575f5ffd5b505af1158015611ce1573d5f5f3e3d5ffd5b50505050611cef858561227e565b50611761565b611761858583865f6122d5565b7f9016d09d72d40fdae2fd8ceac6b6234c7706214fd39c1cd1e609a0528c19930080546001600160a01b031981166001600160a01b03848116918217845560405192169182907f8be0079c531659141344cd1fd0a4f28419497f9722a3daafe3b4186f6b6457e0905f90a3505050565b5f8160ff165f03611d855750600161178c565b60185460ff1615611d9757505f61178c565b5f611da0611e25565b9050611daa611ef9565b5f82815260136020526040902060010154611dc6908690612a5a565b1115949350505050565b8060ff165f03611dde575050565b60185460ff1615611ded575050565b5f611df6611e25565b90508260135f8381526020019081526020015f206001015f828254611e1b9190612a5a565b9091555050505050565b5f6201518060085442611e389190612a47565b611e429190612a14565b905090565b5f611e5061237c565b80611e5d575060185460ff165b15611e6857505f1990565b5f80546006546040516370a0823160e01b81526001600160a01b0391821660048201529116906370a0823190602401602060405180830381865afa158015611eb2573d5f5f3e3d5ffd5b505050506040513d601f19601f82011682018060405250810190611ed69190612ad1565b9050612710600a5482611ee991906129fd565b611ef39190612a14565b91505090565b6018545f9060ff1615611f0b57505f90565b5f80546006546040516370a0823160e01b81526001600160a01b0391821660048201529116906370a0823190602401602060405180830381865afa158015611f55573d5f5f3e3d5ffd5b505050506040513d601f19601f82011682018060405250810190611f799190612ad1565b9050612710600b5482611ee991906129fd565b611f946123a2565b610faf57604051631afcd79f60e31b815260040160405180910390fd5b6115c2611f8c565b611fc2826123bb565b6040516001600160a01b038316907fbc7cd75a20ee27fd9adebab32041f755214dbc6bffa90cc0225b39da2e5c2d3b905f90a280511561200657610f5a828261241e565b610f056124be565b5f5b6017546016541080156120235750600581105b15610f22576016545f9081526014602052604090206005810154610100900460ff16156120645760168054905f61205983612ae8565b919050555050612010565b6001810154600382015461207b919060ff1661221d565b612083575090565b6001810154680ad78ebc5ac62000008110156120c657600c5482600101546120ab9190612a47565b9050600c5460115f8282546120c09190612a5a565b90915550505b5f546002546120e2916001600160a01b03908116911683611652565b6001548254600384015460405163031a0e0360e51b81526001600160a01b0392831660048201526024810185905260ff9091166044820152911690636341c060906064015f604051808303815f87803b15801561213d575f5ffd5b505af115801561214f573d5f5f3e3d5ffd5b50505060018301546003840154612169925060ff1661227e565b600e5482600101541061218a57815461218a906001600160a01b03166124dd565b600354825460405163543b35c760e01b81526001600160a01b0391821660048201526024810184905291169063543b35c7906044015f604051808303815f87803b1580156121d6575f5ffd5b505af11580156121e8573d5f5f3e3d5ffd5b50505060058301805461ff0019166101001790555082905061220981612ae8565b601680549194509091505f61205983612ae8565b5f8160ff165f036122305750600161178c565b61223861237c565b80612245575060185460ff165b156122525750600161178c565b5f61225b611e25565b9050612265611e47565b5f82815260136020526040902054611dc6908690612a5a565b8060ff165f0361228c575050565b61229461237c565b806122a1575060185460ff165b156122aa575050565b5f6122b3611e25565b5f81815260136020526040812080549293508592909190611e1b908490612a5a565b601780545f90815260146020908152604080832080546001600160a01b0319166001600160a01b038b16908117825560018083018b9055600283018a905560038301805460ff191660ff8b1617905542600484015560058301805461ffff191689151561ff001916179055908552601584529184208554815493840182559085529284209091019190915582549092909161236f83612ae8565b9190505550505050505050565b5f6009546201518061238e91906129fd565b60085461239b9190612a5a565b4210905090565b5f6123ab611768565b54600160401b900460ff16919050565b806001600160a01b03163b5f036123f057604051634c9c8ce360e01b81526001600160a01b0382166004820152602401610a61565b5f516020612b015f395f51905f5280546001600160a01b0319166001600160a01b0392909216919091179055565b60605f61242b8484612602565b905080801561244c57505f3d118061244c57505f846001600160a01b03163b115b1561246157612459612615565b91505061178c565b801561248b57604051639996b31560e01b81526001600160a01b0385166004820152602401610a61565b3d1561249e5761249961262e565b6124b7565b60405163d6bda27560e01b815260040160405180910390fd5b5092915050565b3415610faf5760405163b398979f60e01b815260040160405180910390fd5b600f545f908152601060205260409020601580820154101561254b5781815f0182601501546015811061251257612512612a33565b0180546001600160a01b0319166001600160a01b0392909216919091179055601581018054905f61254283612ae8565b91905055505050565b5f5b61255960016015612a47565b8110156125c0578161256c826001612a5a565b6015811061257c5761257c612a33565b01546001600160a01b031682826015811061259957612599612a33565b0180546001600160a01b0319166001600160a01b039290921691909117905560010161254d565b5081816125cf60016015612a47565b601581106125df576125df612a33565b0180546001600160a01b0319166001600160a01b03929092169190911790555050565b5f5f5f835160208501865af49392505050565b6040513d81523d5f602083013e3d602001810160405290565b6040513d5f823e3d81fd5b604051806102a001604052806015906020820280368337509192915050565b5f5f60408385031215612669575f5ffd5b50508035926020909101359150565b5f60208284031215612688575f5ffd5b5035919050565b80356001600160a01b03811681146126a5575f5ffd5b919050565b5f602082840312156126ba575f5ffd5b6126c38261268f565b9392505050565b602080825282518282018190525f918401906040840190835b818110156127015783518352602093840193909201916001016126e3565b509095945050505050565b5f5f5f5f5f5f5f60e0888a031215612722575f5ffd5b61272b8861268f565b96506127396020890161268f565b95506127476040890161268f565b94506127556060890161268f565b93506127636080890161268f565b925061277160a0890161268f565b915061277f60c0890161268f565b905092959891949750929550565b634e487b7160e01b5f52604160045260245ffd5b5f5f604083850312156127b2575f5ffd5b6127bb8361268f565b9150602083013567ffffffffffffffff8111156127d6575f5ffd5b8301601f810185136127e6575f5ffd5b803567ffffffffffffffff8111156128005761280061278d565b604051601f8201601f19908116603f0116810167ffffffffffffffff8111828210171561282f5761282f61278d565b604052818152828201602001871015612846575f5ffd5b816020840160208301375f602083830101528093505050509250929050565b5f5f5f60608486031215612877575f5ffd5b6128808461268f565b9250602084013591506128956040850161268f565b90509250925092565b60ff811681146115f4575f5ffd5b5f5f5f606084860312156128be575f5ffd5b6128c78461268f565b92506020840135915060408401356128de8161289e565b809150509250925092565b5f5f604083850312156128fa575f5ffd5b6129038361268f565b946020939093013593505050565b848152610300810160208201855f5b60158110156129485781516001600160a01b0316835260209283019290910190600101612920565b5050506102c08201939093526102e0015292915050565b602081525f82518060208401528060208501604085015e5f604082850101526040601f19601f83011684010191505092915050565b5f5f5f606084860312156129a6575f5ffd5b6129af8461268f565b95602085013595506040909401359392505050565b6020808252600b908201526a2737ba103832b936b4ba1760a91b604082015260600190565b634e487b7160e01b5f52601160045260245ffd5b808202811582820484141761178c5761178c6129e9565b5f82612a2e57634e487b7160e01b5f52601260045260245ffd5b500490565b634e487b7160e01b5f52603260045260245ffd5b8181038181111561178c5761178c6129e9565b8082018082111561178c5761178c6129e9565b5f5f60408385031215612a7e575f5ffd5b82516020840151909250612a918161289e565b809150509250929050565b5f82518060208501845e5f920191825250919050565b5f60208284031215612ac2575f5ffd5b815180151581146126c3575f5ffd5b5f60208284031215612ae1575f5ffd5b5051919050565b5f60018201612af957612af96129e9565b506001019056fe360894a13ba1a3210667c828492db98dca3e2076cc3735a920a3ca505d382bbca26469706673582212209dd7df40e969be0d79777a5e34dd7cae62030fa34d798298102ffa2502ec1e9264736f6c634300081e0033","linkReferences":{}},"methodIdentifiers":{"UPGRADE_INTERFACE_VERSION()":"ad3cb1cc","USDT()":"c54e44eb","admin()":"f851a440","breakerReserve()":"8a1e6c08","breakerTriggerRatio()":"d9f3680f","cancelFee()":"14025dcd","cancelQueue(address,uint256)":"a05a9e13","circuitBreaker()":"16efd941","claim(address,uint256)":"aad3ec96","dailyQuota(uint256)":"41eb2d97","drawFomoRewards()":"3112538f","emergencyWithdraw(address,uint256,address)":"551512de","fomoAwardsInfo(address)":"21746268","fomoMinAmount()":"8ed31099","fomoPoolBalance()":"5037533e","fomoRewardCount()":"7d43bf67","freeDays()":"f5602c27","getCurrentRound()":"a32bf597","getPendingOrder(uint256)":"1e186afb","getQueueRange()":"10b5a38e","getTodayQuota()":"e4c2ab71","getUserQueueIds(address)":"2e586cab","head()":"8f7dcfa3","initialize(address,address,address,address,address,address,address)":"35876476","launchTime()":"790ca413","lex()":"7d0a1518","owner()":"8da5cb5b","pair()":"a8aa1b31","proxiableUUID()":"52d1902d","queue(uint256)":"ddf0b009","referrals()":"d3dc7539","renounceOwnership()":"715018a6","restake(address,uint256,uint256)":"dec1ac48","rounds()":"a2e800ad","roundsData(uint256)":"c97d8679","router()":"f887ea40","setAddrConfig(address)":"81040150","setCircuitBreakerConfig(uint256)":"b50077cf","setFees(uint256,uint256)":"0b78f9c0","setFomoConfig(uint256)":"ce22767c","setLaunchAndFreeDays(uint256,uint256)":"2b813998","setQuotaRatios(uint256,uint256)":"38962ae1","stake(address,uint256,uint8)":"6341c060","stakeFee()":"222c9777","stakeRatio()":"8e00a8e8","tail()":"13d8c840","transferOwnership(address)":"f2fde38b","treasury()":"61d027b3","treasuryLiquidity()":"09fb6698","unstake(address,uint256)":"c2a672e0","unstakeRatio()":"7c1e652f","upgradeToAndCall(address,bytes)":"4f1ef286"},"id":48}