{"abi":[{"type":"function","name":"UPGRADE_INTERFACE_VERSION","inputs":[],"outputs":[{"name":"","type":"string","internalType":"string"}],"stateMutability":"view"},{"type":"function","name":"USDT","inputs":[],"outputs":[{"name":"","type":"address","internalType":"address"}],"stateMutability":"view"},{"type":"function","name":"admin","inputs":[],"outputs":[{"name":"","type":"address","internalType":"address"}],"stateMutability":"view"},{"type":"function","name":"breakerReserve","inputs":[],"outputs":[{"name":"","type":"uint256","internalType":"uint256"}],"stateMutability":"view"},{"type":"function","name":"breakerTriggerRatio","inputs":[],"outputs":[{"name":"","type":"uint256","internalType":"uint256"}],"stateMutability":"view"},{"type":"function","name":"cancelFee","inputs":[],"outputs":[{"name":"","type":"uint256","internalType":"uint256"}],"stateMutability":"view"},{"type":"function","name":"cancelQueue","inputs":[{"name":"user","type":"address","internalType":"address"},{"name":"queueId","type":"uint256","internalType":"uint256"}],"outputs":[],"stateMutability":"nonpayable"},{"type":"function","name":"circuitBreaker","inputs":[],"outputs":[{"name":"","type":"bool","internalType":"bool"}],"stateMutability":"view"},{"type":"function","name":"claim","inputs":[{"name":"user","type":"address","internalType":"address"},{"name":"orderIndex","type":"uint256","internalType":"uint256"}],"outputs":[],"stateMutability":"nonpayable"},{"type":"function","name":"dailyQuota","inputs":[{"name":"","type":"uint256","internalType":"uint256"}],"outputs":[{"name":"stakeUsed","type":"uint256","internalType":"uint256"},{"name":"unstakeUsed","type":"uint256","internalType":"uint256"}],"stateMutability":"view"},{"type":"function","name":"drawFomoRewards","inputs":[],"outputs":[],"stateMutability":"nonpayable"},{"type":"function","name":"emergencyWithdraw","inputs":[{"name":"token","type":"address","internalType":"address"},{"name":"amount","type":"uint256","internalType":"uint256"},{"name":"to","type":"address","internalType":"address"}],"outputs":[],"stateMutability":"nonpayable"},{"type":"function","name":"fomoMinAmount","inputs":[],"outputs":[{"name":"","type":"uint256","internalType":"uint256"}],"stateMutability":"view"},{"type":"function","name":"fomoPoolBalance","inputs":[],"outputs":[{"name":"","type":"uint256","internalType":"uint256"}],"stateMutability":"view"},{"type":"function","name":"fomoRewardCount","inputs":[],"outputs":[{"name":"","type":"uint256","internalType":"uint256"}],"stateMutability":"view"},{"type":"function","name":"freeDays","inputs":[],"outputs":[{"name":"","type":"uint256","internalType":"uint256"}],"stateMutability":"view"},{"type":"function","name":"getCurrentRound","inputs":[],"outputs":[{"name":"roundId","type":"uint256","internalType":"uint256"},{"name":"lastQualified","type":"address[21]","internalType":"address[21]"},{"name":"count","type":"uint256","internalType":"uint256"},{"name":"poolBalance","type":"uint256","internalType":"uint256"}],"stateMutability":"view"},{"type":"function","name":"getPendingOrder","inputs":[{"name":"queueId","type":"uint256","internalType":"uint256"}],"outputs":[{"name":"user","type":"address","internalType":"address"},{"name":"amount","type":"uint256","internalType":"uint256"},{"name":"orderIndex","type":"uint256","internalType":"uint256"},{"name":"stakeIndex","type":"uint8","internalType":"uint8"},{"name":"createdAt","type":"uint256","internalType":"uint256"},{"name":"isRestake","type":"bool","internalType":"bool"},{"name":"status","type":"uint8","internalType":"uint8"}],"stateMutability":"view"},{"type":"function","name":"getQueueRange","inputs":[],"outputs":[{"name":"_head","type":"uint256","internalType":"uint256"},{"name":"_tail","type":"uint256","internalType":"uint256"}],"stateMutability":"view"},{"type":"function","name":"getTodayQuota","inputs":[],"outputs":[{"name":"stakeUsed","type":"uint256","internalType":"uint256"},{"name":"stakeRemaining","type":"uint256","internalType":"uint256"},{"name":"unstakeUsed","type":"uint256","internalType":"uint256"},{"name":"unstakeRemaining","type":"uint256","internalType":"uint256"}],"stateMutability":"view"},{"type":"function","name":"getUserQueueIds","inputs":[{"name":"user","type":"address","internalType":"address"}],"outputs":[{"name":"","type":"uint256[]","internalType":"uint256[]"}],"stateMutability":"view"},{"type":"function","name":"head","inputs":[],"outputs":[{"name":"","type":"uint256","internalType":"uint256"}],"stateMutability":"view"},{"type":"function","name":"initialize","inputs":[{"name":"_admin","type":"address","internalType":"address"},{"name":"_lex","type":"address","internalType":"address"},{"name":"_pair","type":"address","internalType":"address"},{"name":"_USDT","type":"address","internalType":"address"},{"name":"_treasury","type":"address","internalType":"address"},{"name":"_treasuryLiquidity","type":"address","internalType":"address"},{"name":"_referrals","type":"address","internalType":"address"}],"outputs":[],"stateMutability":"nonpayable"},{"type":"function","name":"launchTime","inputs":[],"outputs":[{"name":"","type":"uint256","internalType":"uint256"}],"stateMutability":"view"},{"type":"function","name":"lex","inputs":[],"outputs":[{"name":"","type":"address","internalType":"address"}],"stateMutability":"view"},{"type":"function","name":"owner","inputs":[],"outputs":[{"name":"","type":"address","internalType":"address"}],"stateMutability":"view"},{"type":"function","name":"pair","inputs":[],"outputs":[{"name":"","type":"address","internalType":"address"}],"stateMutability":"view"},{"type":"function","name":"proxiableUUID","inputs":[],"outputs":[{"name":"","type":"bytes32","internalType":"bytes32"}],"stateMutability":"view"},{"type":"function","name":"queue","inputs":[{"name":"","type":"uint256","internalType":"uint256"}],"outputs":[{"name":"user","type":"address","internalType":"address"},{"name":"amount","type":"uint256","internalType":"uint256"},{"name":"orderIndex","type":"uint256","internalType":"uint256"},{"name":"stakeIndex","type":"uint8","internalType":"uint8"},{"name":"createdAt","type":"uint256","internalType":"uint256"},{"name":"isRestake","type":"bool","internalType":"bool"},{"name":"status","type":"uint8","internalType":"uint8"}],"stateMutability":"view"},{"type":"function","name":"referrals","inputs":[],"outputs":[{"name":"","type":"address","internalType":"address"}],"stateMutability":"view"},{"type":"function","name":"renounceOwnership","inputs":[],"outputs":[],"stateMutability":"nonpayable"},{"type":"function","name":"restake","inputs":[{"name":"user","type":"address","internalType":"address"},{"name":"orderIndex","type":"uint256","internalType":"uint256"},{"name":"newStakeIndex","type":"uint256","internalType":"uint256"}],"outputs":[],"stateMutability":"nonpayable"},{"type":"function","name":"rounds","inputs":[],"outputs":[{"name":"","type":"uint256","internalType":"uint256"}],"stateMutability":"view"},{"type":"function","name":"roundsData","inputs":[{"name":"","type":"uint256","internalType":"uint256"}],"outputs":[{"name":"count","type":"uint256","internalType":"uint256"}],"stateMutability":"view"},{"type":"function","name":"router","inputs":[],"outputs":[{"name":"","type":"address","internalType":"address"}],"stateMutability":"view"},{"type":"function","name":"setAddrConfig","inputs":[{"name":"_router","type":"address","internalType":"address"}],"outputs":[],"stateMutability":"nonpayable"},{"type":"function","name":"setCircuitBreakerConfig","inputs":[{"name":"_breakerTriggerRatio","type":"uint256","internalType":"uint256"}],"outputs":[],"stateMutability":"nonpayable"},{"type":"function","name":"setFees","inputs":[{"name":"_stakeFee","type":"uint256","internalType":"uint256"},{"name":"_cancelFee","type":"uint256","internalType":"uint256"}],"outputs":[],"stateMutability":"nonpayable"},{"type":"function","name":"setFomoConfig","inputs":[{"name":"_fomoMinAmount","type":"uint256","internalType":"uint256"}],"outputs":[],"stateMutability":"nonpayable"},{"type":"function","name":"setLaunchAndFreeDays","inputs":[{"name":"_launchTime","type":"uint256","internalType":"uint256"},{"name":"_freeDays","type":"uint256","internalType":"uint256"}],"outputs":[],"stateMutability":"nonpayable"},{"type":"function","name":"setQuotaRatios","inputs":[{"name":"_stakeRatio","type":"uint256","internalType":"uint256"},{"name":"_unstakeRatio","type":"uint256","internalType":"uint256"}],"outputs":[],"stateMutability":"nonpayable"},{"type":"function","name":"stake","inputs":[{"name":"user","type":"address","internalType":"address"},{"name":"amount","type":"uint256","internalType":"uint256"},{"name":"stakeIndex","type":"uint8","internalType":"uint8"}],"outputs":[],"stateMutability":"nonpayable"},{"type":"function","name":"stakeFee","inputs":[],"outputs":[{"name":"","type":"uint256","internalType":"uint256"}],"stateMutability":"view"},{"type":"function","name":"stakeRatio","inputs":[],"outputs":[{"name":"","type":"uint256","internalType":"uint256"}],"stateMutability":"view"},{"type":"function","name":"tail","inputs":[],"outputs":[{"name":"","type":"uint256","internalType":"uint256"}],"stateMutability":"view"},{"type":"function","name":"transferOwnership","inputs":[{"name":"newOwner","type":"address","internalType":"address"}],"outputs":[],"stateMutability":"nonpayable"},{"type":"function","name":"treasury","inputs":[],"outputs":[{"name":"","type":"address","internalType":"address"}],"stateMutability":"view"},{"type":"function","name":"treasuryLiquidity","inputs":[],"outputs":[{"name":"","type":"address","internalType":"address"}],"stateMutability":"view"},{"type":"function","name":"unstake","inputs":[{"name":"user","type":"address","internalType":"address"},{"name":"orderIndex","type":"uint256","internalType":"uint256"}],"outputs":[],"stateMutability":"nonpayable"},{"type":"function","name":"unstakeRatio","inputs":[],"outputs":[{"name":"","type":"uint256","internalType":"uint256"}],"stateMutability":"view"},{"type":"function","name":"upgradeToAndCall","inputs":[{"name":"newImplementation","type":"address","internalType":"address"},{"name":"data","type":"bytes","internalType":"bytes"}],"outputs":[],"stateMutability":"payable"},{"type":"event","name":"Initialized","inputs":[{"name":"version","type":"uint64","indexed":false,"internalType":"uint64"}],"anonymous":false},{"type":"event","name":"OwnershipTransferred","inputs":[{"name":"previousOwner","type":"address","indexed":true,"internalType":"address"},{"name":"newOwner","type":"address","indexed":true,"internalType":"address"}],"anonymous":false},{"type":"event","name":"Upgraded","inputs":[{"name":"implementation","type":"address","indexed":true,"internalType":"address"}],"anonymous":false},{"type":"error","name":"AddressEmptyCode","inputs":[{"name":"target","type":"address","internalType":"address"}]},{"type":"error","name":"ERC1967InvalidImplementation","inputs":[{"name":"implementation","type":"address","internalType":"address"}]},{"type":"error","name":"ERC1967NonPayable","inputs":[]},{"type":"error","name":"FailedCall","inputs":[]},{"type":"error","name":"InvalidInitialization","inputs":[]},{"type":"error","name":"NotInitializing","inputs":[]},{"type":"error","name":"OwnableInvalidOwner","inputs":[{"name":"owner","type":"address","internalType":"address"}]},{"type":"error","name":"OwnableUnauthorizedAccount","inputs":[{"name":"account","type":"address","internalType":"address"}]},{"type":"error","name":"UUPSUnauthorizedCallContext","inputs":[]},{"type":"error","name":"UUPSUnsupportedProxiableUUID","inputs":[{"name":"slot","type":"bytes32","internalType":"bytes32"}]}],"bytecode":{"object":"0x60a0604052306080523480156012575f5ffd5b50608051612aef6100395f395f81816116b2015281816116db015261181a0152612aef5ff3fe6080604052600436106102d9575f3560e01c80638104015011610189578063c2a672e0116100d8578063ddf0b00911610092578063f2fde38b1161006d578063f2fde38b14610979578063f5602c2714610998578063f851a440146109ad578063f887ea40146109cc575f5ffd5b8063ddf0b009146108be578063dec1ac4814610926578063e4c2ab7114610945575f5ffd5b8063c2a672e014610800578063c54e44eb1461081f578063c97d86791461083d578063ce22767c1461086b578063d3dc75391461088a578063d9f3680f146108a9575f5ffd5b8063a05a9e1311610143578063a8aa1b311161011e578063a8aa1b3114610766578063aad3ec9614610785578063ad3cb1cc146107a4578063b50077cf146107e1575f5ffd5b8063a05a9e131461070e578063a2e800ad1461072d578063a32bf59714610742575f5ffd5b8063810401501461065f5780638a1e6c081461067e5780638da5cb5b146106935780638e00a8e8146106cf5780638ed31099146106e45780638f7dcfa3146106f9575f5ffd5b806338962ae11161024557806361d027b3116101ff578063790ca413116101da578063790ca413146106025780637c1e652f146106175780637d0a15181461062c5780637d43bf671461064b575f5ffd5b806361d027b3146105b05780636341c060146105cf578063715018a6146105ee575f5ffd5b806338962ae11461050457806341eb2d97146105235780634f1ef286146105555780635037533e1461056857806352d1902d1461057d578063551512de14610591575f5ffd5b80631e186afb116102965780631e186afb146103c3578063222c9777146104715780632b813998146104865780632e586cab146104a55780633112538f146104d157806335876476146104e5575f5ffd5b806309fb6698146102dd5780630b78f9c01461031957806310b5a38e1461033a57806313d8c8401461036257806314025dcd1461038557806316efd9411461039a575b5f5ffd5b3480156102e8575f5ffd5b506002546102fc906001600160a01b031681565b6040516001600160a01b0390911681526020015b60405180910390f35b348015610324575f5ffd5b506103386103333660046125cd565b6109eb565b005b348015610345575f5ffd5b506015546016545b60408051928352602083019190915201610310565b34801561036d575f5ffd5b5061037760165481565b604051908152602001610310565b348015610390575f5ffd5b50610377600d5481565b3480156103a5575f5ffd5b506017546103b39060ff1681565b6040519015158152602001610310565b3480156103ce575f5ffd5b5061042c6103dd3660046125ed565b5f908152601360205260409020805460018201546002830154600384015460048501546005909501546001600160a01b03909416959294919360ff918216938282169261010090920490911690565b604080516001600160a01b03909816885260208801969096529486019390935260ff9182166060860152608085015290151560a08401521660c082015260e001610310565b34801561047c575f5ffd5b50610377600c5481565b348015610491575f5ffd5b506103386104a03660046125cd565b6109fe565b3480156104b0575f5ffd5b506104c46104bf36600461261f565b610a11565b604051610310919061263f565b3480156104dc575f5ffd5b50610338610a7a565b3480156104f0575f5ffd5b506103386104ff366004612681565b610c30565b34801561050f575f5ffd5b5061033861051e3660046125cd565b610ddb565b34801561052e575f5ffd5b5061034d61053d3660046125ed565b60126020525f90815260409020805460019091015482565b610338610563366004612716565b610dee565b348015610573575f5ffd5b5061037760115481565b348015610588575f5ffd5b50610377610e0d565b34801561059c575f5ffd5b506103386105ab3660046127da565b610e29565b3480156105bb575f5ffd5b506001546102fc906001600160a01b031681565b3480156105da575f5ffd5b506103386105e9366004612821565b610e63565b3480156105f9575f5ffd5b50610338610ea2565b34801561060d575f5ffd5b5061037760085481565b348015610622575f5ffd5b50610377600b5481565b348015610637575f5ffd5b506005546102fc906001600160a01b031681565b348015610656575f5ffd5b50610377601581565b34801561066a575f5ffd5b5061033861067936600461261f565b610eb5565b348015610689575f5ffd5b5061037760185481565b34801561069e575f5ffd5b507f9016d09d72d40fdae2fd8ceac6b6234c7706214fd39c1cd1e609a0528c199300546001600160a01b03166102fc565b3480156106da575f5ffd5b50610377600a5481565b3480156106ef575f5ffd5b50610377600e5481565b348015610704575f5ffd5b5061037760155481565b348015610719575f5ffd5b5061033861072836600461285e565b610edf565b348015610738575f5ffd5b50610377600f5481565b34801561074d575f5ffd5b506107566110a1565b6040516103109493929190612886565b348015610771575f5ffd5b506006546102fc906001600160a01b031681565b348015610790575f5ffd5b5061033861079f36600461285e565b611114565b3480156107af575f5ffd5b506107d4604051806040016040528060058152602001640352e302e360dc1b81525081565b60405161031091906128d4565b3480156107ec575f5ffd5b506103386107fb3660046125ed565b6111ab565b34801561080b575f5ffd5b5061033861081a36600461285e565b6111b8565b34801561082a575f5ffd5b505f546102fc906001600160a01b031681565b348015610848575f5ffd5b506103776108573660046125ed565b60106020525f908152604090206015015481565b348015610876575f5ffd5b506103386108853660046125ed565b611384565b348015610895575f5ffd5b506003546102fc906001600160a01b031681565b3480156108b4575f5ffd5b5061037760195481565b3480156108c9575f5ffd5b5061042c6108d83660046125ed565b60136020525f90815260409020805460018201546002830154600384015460048501546005909501546001600160a01b03909416949293919260ff9182169290918181169161010090041687565b348015610931575f5ffd5b50610338610940366004612909565b611391565b348015610950575f5ffd5b50610959611444565b604080519485526020850193909352918301526060820152608001610310565b348015610984575f5ffd5b5061033861099336600461261f565b6114be565b3480156109a3575f5ffd5b5061037760095481565b3480156109b8575f5ffd5b506007546102fc906001600160a01b031681565b3480156109d7575f5ffd5b506004546102fc906001600160a01b031681565b6109f36114fb565b600c91909155600d55565b610a066114fb565b600891909155600955565b6001600160a01b0381165f90815260146020908152604091829020805483518184028101840190945280845260609392830182828015610a6e57602002820191905f5260205f20905b815481526020019060010190808311610a5a575b50505050509050919050565b6007546001600160a01b03163314610aad5760405162461bcd60e51b8152600401610aa490612939565b60405180910390fd5b5f60115411610af05760405162461bcd60e51b815260206004820152600f60248201526e464f4d4f5f504f4f4c5f454d50545960881b6044820152606401610aa4565b600f545f9081526010602052604090206015810154610b465760405162461bcd60e51b81526020600482015260126024820152714e4f5f5155414c49464945445f555345525360701b6044820152606401610aa4565b5f816015015460646011546028610b5d9190612972565b610b679190612989565b610b719190612989565b90505f5b8260150154811015610bde575f838260158110610b9457610b946129a8565b01546001600160a01b031614610bd6575f54610bd6906001600160a01b0316848360158110610bc557610bc56129a8565b01546001600160a01b031684611556565b600101610b75565b506015820154610bee9082612972565b601154610bfb91906129bc565b6011819055506001600f5f828254610c1391906129cf565b9091555050600f545f908152601060205260408120601501555050565b5f610c3961166c565b805490915060ff600160401b820416159067ffffffffffffffff165f81158015610c605750825b90505f8267ffffffffffffffff166001148015610c7c5750303b155b905081158015610c8a575080155b15610ca85760405163f92ee8a960e01b815260040160405180910390fd5b845467ffffffffffffffff191660011785558315610cd257845460ff60401b1916600160401b1785555b610cdb33611696565b600780546001600160a01b03199081166001600160a01b038f8116919091179092556005805482168e84161790556006805482168d84161790555f805482168c84161790556001805482168b84161790556002805482168a8416179055600380549091169188169190911790554260085560046009556107d0600a819055600b55670de0b6b3a7640000600c55671bc16d674ec80000600d55681b1ae4d6e2ef500000600e55610fa06019558315610dcd57845460ff60401b19168555604051600181527fc7f505b2f371ae2175ee4913f4499e1f2633a7b5936321eed1cdaeb6115181d29060200160405180910390a15b505050505050505050505050565b610de36114fb565b600a91909155600b55565b610df66116a7565b610dff8261174b565b610e098282611753565b5050565b5f610e1661180f565b505f516020612a9a5f395f51905f525b90565b6007546001600160a01b03163314610e535760405162461bcd60e51b8152600401610aa490612939565b610e5e838284611556565b505050565b6004546001600160a01b03163314610e8d5760405162461bcd60e51b8152600401610aa490612939565b610e95611858565b610e5e8383835f5f611a33565b610eaa6114fb565b610eb35f611bf7565b565b610ebd6114fb565b600480546001600160a01b0319166001600160a01b0392909216919091179055565b6004546001600160a01b03163314610f095760405162461bcd60e51b8152600401610aa490612939565b6015548110158015610f1c575060165481105b610f555760405162461bcd60e51b815260206004820152600a6024820152691253959053125117d25160b21b6044820152606401610aa4565b5f81815260136020526040902080546001600160a01b03848116911614610faa5760405162461bcd60e51b81526020600482015260096024820152682727aa2fa7aba722a960b91b6044820152606401610aa4565b6005810154610100900460ff1615610ff65760405162461bcd60e51b815260206004820152600f60248201526e1053149150511657d2105391131151608a1b6044820152606401610aa4565b6001810154600582015460ff1661108c57600d54811161104b5760405162461bcd60e51b815260206004820152601060248201526f105353d5539517d513d3d7d4d350531360821b6044820152606401610aa4565b5f600d548261105a91906129bc565b9050600d5460115f82825461106f91906129cf565b90915550505f5461108a906001600160a01b03168683611556565b505b50600501805461ff0019166102001790555050565b5f6110aa6125ae565b600f545f8181526010602052604080822060158082015460115484516102a081019586905295968796949590948694909185919082845b81546001600160a01b031681526001909101906020018083116110e1575050505050925094509450945094505090919293565b6004546001600160a01b0316331461113e5760405162461bcd60e51b8152600401610aa490612939565b611146611858565b600154604051635569f64b60e11b81526001600160a01b038481166004830152602482018490529091169063aad3ec96906044015f604051808303815f87803b158015611191575f5ffd5b505af11580156111a3573d5f5f3e3d5ffd5b505050505050565b6111b36114fb565b601955565b6004546001600160a01b031633146111e25760405162461bcd60e51b8152600401610aa490612939565b6111ea611858565b6001546040516382510bcf60e01b81526001600160a01b038481166004830152602482018490525f9283929116906382510bcf906044016040805180830381865afa15801561123b573d5f5f3e3d5ffd5b505050506040513d601f19601f8201168201806040525081019061125f91906129e2565b9150915061126d8282611c67565b6112b25760405162461bcd60e51b8152602060048201526016602482015275155394d51052d157d45553d51057d15610d15151115160521b6044820152606401610aa4565b600154604051630615339760e51b81526001600160a01b038681166004830152602482018690529091169063c2a672e0906044015f604051808303815f87803b1580156112fd575f5ffd5b505af115801561130f573d5f5f3e3d5ffd5b5050505061131d8282611cc5565b60035460405163712e1fe360e11b81526001600160a01b038681166004830152602482018590529091169063e25c3fc6906044015f604051808303815f87803b158015611368575f5ffd5b505af115801561137a573d5f5f3e3d5ffd5b5050505050505050565b61138c6114fb565b600e55565b6004546001600160a01b031633146113bb5760405162461bcd60e51b8152600401610aa490612939565b6001546040516382510bcf60e01b81526001600160a01b038581166004830152602482018590525f9216906382510bcf906044016040805180830381865afa158015611409573d5f5f3e3d5ffd5b505050506040513d601f19601f8201168201806040525081019061142d91906129e2565b50905061143e848284600187611a33565b50505050565b5f5f5f5f5f611451611d1a565b5f818152601260205260408120805460018201549098509550919250611475611d3c565b9050868111611484575f61148e565b61148e87826129bc565b95505f611499611dee565b90508581116114a8575f6114b2565b6114b286826129bc565b94505050505090919293565b6114c66114fb565b6001600160a01b0381166114ef57604051631e4fbdf760e01b81525f6004820152602401610aa4565b6114f881611bf7565b50565b3361152d7f9016d09d72d40fdae2fd8ceac6b6234c7706214fd39c1cd1e609a0528c199300546001600160a01b031690565b6001600160a01b031614610eb35760405163118cdaa760e01b8152336004820152602401610aa4565b604080516001600160a01b038481166024830152604480830185905283518084039091018152606490920183526020820180516001600160e01b031663a9059cbb60e01b17905291515f928392908716916115b19190612a11565b5f604051808303815f865af19150503d805f81146115ea576040519150601f19603f3d011682016040523d82523d5f602084013e6115ef565b606091505b50915091508180156116195750805115806116195750808060200190518101906116199190612a27565b6116655760405162461bcd60e51b815260206004820152601f60248201527f5472616e7366657248656c7065723a205452414e534645525f4641494c4544006044820152606401610aa4565b5050505050565b5f807ff0c57e16840df040f15088dc2f81fe391c3923bec73e23a9662efc9c229c6a005b92915050565b61169e611e81565b6114f881611ea6565b306001600160a01b037f000000000000000000000000000000000000000000000000000000000000000016148061172d57507f00000000000000000000000000000000000000000000000000000000000000006001600160a01b03166117215f516020612a9a5f395f51905f52546001600160a01b031690565b6001600160a01b031614155b15610eb35760405163703e46dd60e11b815260040160405180910390fd5b6114f86114fb565b816001600160a01b03166352d1902d6040518163ffffffff1660e01b8152600401602060405180830381865afa9250505080156117ad575060408051601f3d908101601f191682019092526117aa91810190612a46565b60015b6117d557604051634c9c8ce360e01b81526001600160a01b0383166004820152602401610aa4565b5f516020612a9a5f395f51905f52811461180557604051632a87526960e21b815260048101829052602401610aa4565b610e5e8383611eae565b306001600160a01b037f00000000000000000000000000000000000000000000000000000000000000001614610eb35760405163703e46dd60e11b815260040160405180910390fd5b6005546040805163a5aff84160e01b815290515f926001600160a01b03169163a5aff8419160048083019260209291908290030181865afa15801561189f573d5f5f3e3d5ffd5b505050506040513d601f19601f820116820180604052508101906118c39190612a46565b5f80546006546040516370a0823160e01b81526001600160a01b03918216600482015293945091929116906370a0823190602401602060405180830381865afa158015611912573d5f5f3e3d5ffd5b505050506040513d601f19601f820116820180604052508101906119369190612a46565b60175490915060ff161580156119655750612710601954836119589190612972565b6119629190612989565b81105b156119c1576017805460ff1916600190811790915560188290555460408051638456cb5960e01b815290516001600160a01b0390921691638456cb59916004808201925f9290919082900301818387803b158015611191575f5ffd5b60175460ff1680156119df57506018546119dc906002612972565b81115b15610e09576017805460ff191690555f601881905560015460408051630237bed160e11b815290516001600160a01b039092169263046f7da29260048084019382900301818387803b158015611191575f5ffd5b611a3b611858565b611a43611f03565b50611a4e8484612192565b15611bea578115611abf576001546040516385cf4f9d60e01b81526001600160a01b03909116906385cf4f9d90611a8d90889085908890600401612a5d565b5f604051808303815f87803b158015611aa4575f5ffd5b505af1158015611ab6573d5f5f3e3d5ffd5b50505050611bc9565b5f600c5485611ace91906129bc565b5f54600254919250611aed916001600160a01b03918216911683611556565b60015460405163031a0e0360e51b81526001600160a01b0390911690636341c06090611b2190899085908990600401612a5d565b5f604051808303815f87803b158015611b38575f5ffd5b505af1158015611b4a573d5f5f3e3d5ffd5b50505050600c5460115f828254611b6191906129cf565b909155505060035460405163543b35c760e01b81526001600160a01b038881166004830152602482018490529091169063543b35c7906044015f604051808303815f87803b158015611bb1575f5ffd5b505af1158015611bc3573d5f5f3e3d5ffd5b50505050505b611bd384846121f3565b600e548410611be557611be58561224a565b611665565b611665858583868661236f565b7f9016d09d72d40fdae2fd8ceac6b6234c7706214fd39c1cd1e609a0528c19930080546001600160a01b031981166001600160a01b03848116918217845560405192169182907f8be0079c531659141344cd1fd0a4f28419497f9722a3daafe3b4186f6b6457e0905f90a3505050565b5f8160ff165f03611c7a57506001611690565b60175460ff1615611c8c57505f611690565b5f611c95611d1a565b9050611c9f611dee565b5f82815260126020526040902060010154611cbb9086906129cf565b1115949350505050565b8060ff165f03611cd3575050565b60175460ff1615611ce2575050565b5f611ceb611d1a565b90508260125f8381526020019081526020015f206001015f828254611d1091906129cf565b9091555050505050565b5f6201518060085442611d2d91906129bc565b611d379190612989565b905090565b5f611d45612416565b80611d52575060175460ff165b15611d5d57505f1990565b5f80546006546040516370a0823160e01b81526001600160a01b0391821660048201529116906370a0823190602401602060405180830381865afa158015611da7573d5f5f3e3d5ffd5b505050506040513d601f19601f82011682018060405250810190611dcb9190612a46565b9050612710600a5482611dde9190612972565b611de89190612989565b91505090565b6017545f9060ff1615611e0057505f90565b5f80546006546040516370a0823160e01b81526001600160a01b0391821660048201529116906370a0823190602401602060405180830381865afa158015611e4a573d5f5f3e3d5ffd5b505050506040513d601f19601f82011682018060405250810190611e6e9190612a46565b9050612710600b5482611dde9190612972565b611e8961243c565b610eb357604051631afcd79f60e31b815260040160405180910390fd5b6114c6611e81565b611eb782612455565b6040516001600160a01b038316907fbc7cd75a20ee27fd9adebab32041f755214dbc6bffa90cc0225b39da2e5c2d3b905f90a2805115611efb57610e5e82826124b8565b610e09612558565b5f5b601654601554108015611f185750600581105b15610e26576015545f9081526013602052604090206005810154610100900460ff1615611f595760158054905f611f4e83612a81565b919050555050611f05565b60018101546003820154611f70919060ff16612192565b611f78575090565b600581015460ff1615612012576001548154600283015460038401546040516385cf4f9d60e01b81526001600160a01b03948516946385cf4f9d94611fca94911692909160ff90911690600401612a5d565b5f604051808303815f87803b158015611fe1575f5ffd5b505af1158015611ff3573d5f5f3e3d5ffd5b5050506001820154600383015461200d925060ff166121f3565b612163565b5f600c54826001015461202591906129bc565b5f54600254919250612044916001600160a01b03918216911683611556565b6001548254600384015460405163031a0e0360e51b81526001600160a01b0393841693636341c0609361208293911691869160ff1690600401612a5d565b5f604051808303815f87803b158015612099575f5ffd5b505af11580156120ab573d5f5f3e3d5ffd5b50505050600c5460115f8282546120c291906129cf565b9091555050600182015460038301546120de919060ff166121f3565b600e548260010154106120ff5781546120ff906001600160a01b031661224a565b600354825460405163543b35c760e01b81526001600160a01b0391821660048201526024810184905291169063543b35c7906044015f604051808303815f87803b15801561214b575f5ffd5b505af115801561215d573d5f5f3e3d5ffd5b50505050505b60058101805461ff0019166101001790558161217e81612a81565b601580549194509091505f611f4e83612a81565b5f8160ff165f036121a557506001611690565b6121ad612416565b806121ba575060175460ff165b156121c757506001611690565b5f6121d0611d1a565b90506121da611d3c565b5f82815260126020526040902054611cbb9086906129cf565b8060ff165f03612201575050565b612209612416565b80612216575060175460ff165b1561221f575050565b5f612228611d1a565b5f81815260126020526040812080549293508592909190611d109084906129cf565b600f545f90815260106020526040902060158082015410156122b85781815f0182601501546015811061227f5761227f6129a8565b0180546001600160a01b0319166001600160a01b0392909216919091179055601581018054905f6122af83612a81565b91905055505050565b5f5b6122c6600160156129bc565b81101561232d57816122d98260016129cf565b601581106122e9576122e96129a8565b01546001600160a01b0316828260158110612306576123066129a8565b0180546001600160a01b0319166001600160a01b03929092169190911790556001016122ba565b50818161233c600160156129bc565b6015811061234c5761234c6129a8565b0180546001600160a01b0319166001600160a01b03929092169190911790555050565b601680545f90815260136020908152604080832080546001600160a01b0319166001600160a01b038b16908117825560018083018b9055600283018a905560038301805460ff191660ff8b1617905542600484015560058301805461ffff191689151561ff001916179055908552601484529184208554815493840182559085529284209091019190915582549092909161240983612a81565b9190505550505050505050565b5f600954620151806124289190612972565b60085461243591906129cf565b4210905090565b5f61244561166c565b54600160401b900460ff16919050565b806001600160a01b03163b5f0361248a57604051634c9c8ce360e01b81526001600160a01b0382166004820152602401610aa4565b5f516020612a9a5f395f51905f5280546001600160a01b0319166001600160a01b0392909216919091179055565b60605f6124c58484612577565b90508080156124e657505f3d11806124e657505f846001600160a01b03163b115b156124fb576124f361258a565b915050611690565b801561252557604051639996b31560e01b81526001600160a01b0385166004820152602401610aa4565b3d15612538576125336125a3565b612551565b60405163d6bda27560e01b815260040160405180910390fd5b5092915050565b3415610eb35760405163b398979f60e01b815260040160405180910390fd5b5f5f5f835160208501865af49392505050565b6040513d81523d5f602083013e3d602001810160405290565b6040513d5f823e3d81fd5b604051806102a001604052806015906020820280368337509192915050565b5f5f604083850312156125de575f5ffd5b50508035926020909101359150565b5f602082840312156125fd575f5ffd5b5035919050565b80356001600160a01b038116811461261a575f5ffd5b919050565b5f6020828403121561262f575f5ffd5b61263882612604565b9392505050565b602080825282518282018190525f918401906040840190835b81811015612676578351835260209384019390920191600101612658565b509095945050505050565b5f5f5f5f5f5f5f60e0888a031215612697575f5ffd5b6126a088612604565b96506126ae60208901612604565b95506126bc60408901612604565b94506126ca60608901612604565b93506126d860808901612604565b92506126e660a08901612604565b91506126f460c08901612604565b905092959891949750929550565b634e487b7160e01b5f52604160045260245ffd5b5f5f60408385031215612727575f5ffd5b61273083612604565b9150602083013567ffffffffffffffff81111561274b575f5ffd5b8301601f8101851361275b575f5ffd5b803567ffffffffffffffff81111561277557612775612702565b604051601f8201601f19908116603f0116810167ffffffffffffffff811182821017156127a4576127a4612702565b6040528181528282016020018710156127bb575f5ffd5b816020840160208301375f602083830101528093505050509250929050565b5f5f5f606084860312156127ec575f5ffd5b6127f584612604565b92506020840135915061280a60408501612604565b90509250925092565b60ff811681146114f8575f5ffd5b5f5f5f60608486031215612833575f5ffd5b61283c84612604565b925060208401359150604084013561285381612813565b809150509250925092565b5f5f6040838503121561286f575f5ffd5b61287883612604565b946020939093013593505050565b848152610300810160208201855f5b60158110156128bd5781516001600160a01b0316835260209283019290910190600101612895565b5050506102c08201939093526102e0015292915050565b602081525f82518060208401528060208501604085015e5f604082850101526040601f19601f83011684010191505092915050565b5f5f5f6060848603121561291b575f5ffd5b61292484612604565b95602085013595506040909401359392505050565b6020808252600b908201526a2737ba103832b936b4ba1760a91b604082015260600190565b634e487b7160e01b5f52601160045260245ffd5b80820281158282048414176116905761169061295e565b5f826129a357634e487b7160e01b5f52601260045260245ffd5b500490565b634e487b7160e01b5f52603260045260245ffd5b818103818111156116905761169061295e565b808201808211156116905761169061295e565b5f5f604083850312156129f3575f5ffd5b82516020840151909250612a0681612813565b809150509250929050565b5f82518060208501845e5f920191825250919050565b5f60208284031215612a37575f5ffd5b81518015158114612638575f5ffd5b5f60208284031215612a56575f5ffd5b5051919050565b6001600160a01b03939093168352602083019190915260ff16604082015260600190565b5f60018201612a9257612a9261295e565b506001019056fe360894a13ba1a3210667c828492db98dca3e2076cc3735a920a3ca505d382bbca2646970667358221220e80d2dcd355d6f63b6288685c6290c5c7095bf899105e07d4764e521211a61c464736f6c634300081e0033","linkReferences":{}},"methodIdentifiers":{"UPGRADE_INTERFACE_VERSION()":"ad3cb1cc","USDT()":"c54e44eb","admin()":"f851a440","breakerReserve()":"8a1e6c08","breakerTriggerRatio()":"d9f3680f","cancelFee()":"14025dcd","cancelQueue(address,uint256)":"a05a9e13","circuitBreaker()":"16efd941","claim(address,uint256)":"aad3ec96","dailyQuota(uint256)":"41eb2d97","drawFomoRewards()":"3112538f","emergencyWithdraw(address,uint256,address)":"551512de","fomoMinAmount()":"8ed31099","fomoPoolBalance()":"5037533e","fomoRewardCount()":"7d43bf67","freeDays()":"f5602c27","getCurrentRound()":"a32bf597","getPendingOrder(uint256)":"1e186afb","getQueueRange()":"10b5a38e","getTodayQuota()":"e4c2ab71","getUserQueueIds(address)":"2e586cab","head()":"8f7dcfa3","initialize(address,address,address,address,address,address,address)":"35876476","launchTime()":"790ca413","lex()":"7d0a1518","owner()":"8da5cb5b","pair()":"a8aa1b31","proxiableUUID()":"52d1902d","queue(uint256)":"ddf0b009","referrals()":"d3dc7539","renounceOwnership()":"715018a6","restake(address,uint256,uint256)":"dec1ac48","rounds()":"a2e800ad","roundsData(uint256)":"c97d8679","router()":"f887ea40","setAddrConfig(address)":"81040150","setCircuitBreakerConfig(uint256)":"b50077cf","setFees(uint256,uint256)":"0b78f9c0","setFomoConfig(uint256)":"ce22767c","setLaunchAndFreeDays(uint256,uint256)":"2b813998","setQuotaRatios(uint256,uint256)":"38962ae1","stake(address,uint256,uint8)":"6341c060","stakeFee()":"222c9777","stakeRatio()":"8e00a8e8","tail()":"13d8c840","transferOwnership(address)":"f2fde38b","treasury()":"61d027b3","treasuryLiquidity()":"09fb6698","unstake(address,uint256)":"c2a672e0","unstakeRatio()":"7c1e652f","upgradeToAndCall(address,bytes)":"4f1ef286"},"id":47}