{"abi":[{"type":"function","name":"UPGRADE_INTERFACE_VERSION","inputs":[],"outputs":[{"name":"","type":"string","internalType":"string"}],"stateMutability":"view"},{"type":"function","name":"USDT","inputs":[],"outputs":[{"name":"","type":"address","internalType":"address"}],"stateMutability":"view"},{"type":"function","name":"admin","inputs":[],"outputs":[{"name":"","type":"address","internalType":"address"}],"stateMutability":"view"},{"type":"function","name":"breakerReserve","inputs":[],"outputs":[{"name":"","type":"uint256","internalType":"uint256"}],"stateMutability":"view"},{"type":"function","name":"breakerTriggerRatio","inputs":[],"outputs":[{"name":"","type":"uint256","internalType":"uint256"}],"stateMutability":"view"},{"type":"function","name":"cancelFee","inputs":[],"outputs":[{"name":"","type":"uint256","internalType":"uint256"}],"stateMutability":"view"},{"type":"function","name":"cancelQueue","inputs":[{"name":"user","type":"address","internalType":"address"},{"name":"queueId","type":"uint256","internalType":"uint256"}],"outputs":[],"stateMutability":"nonpayable"},{"type":"function","name":"circuitBreaker","inputs":[],"outputs":[{"name":"","type":"bool","internalType":"bool"}],"stateMutability":"view"},{"type":"function","name":"claim","inputs":[{"name":"user","type":"address","internalType":"address"},{"name":"orderIndex","type":"uint256","internalType":"uint256"}],"outputs":[],"stateMutability":"nonpayable"},{"type":"function","name":"dailyQuota","inputs":[{"name":"","type":"uint256","internalType":"uint256"}],"outputs":[{"name":"stakeUsed","type":"uint256","internalType":"uint256"},{"name":"unstakeUsed","type":"uint256","internalType":"uint256"}],"stateMutability":"view"},{"type":"function","name":"drawFomoRewards","inputs":[],"outputs":[],"stateMutability":"nonpayable"},{"type":"function","name":"emergencyProcessQueue","inputs":[],"outputs":[],"stateMutability":"nonpayable"},{"type":"function","name":"emergencyWithdraw","inputs":[{"name":"token","type":"address","internalType":"address"},{"name":"amount","type":"uint256","internalType":"uint256"},{"name":"to","type":"address","internalType":"address"}],"outputs":[],"stateMutability":"nonpayable"},{"type":"function","name":"fomoAwardsInfo","inputs":[{"name":"","type":"address","internalType":"address"}],"outputs":[{"name":"rounds","type":"uint256","internalType":"uint256"},{"name":"amount","type":"uint256","internalType":"uint256"}],"stateMutability":"view"},{"type":"function","name":"fomoMinAmount","inputs":[],"outputs":[{"name":"","type":"uint256","internalType":"uint256"}],"stateMutability":"view"},{"type":"function","name":"fomoPoolBalance","inputs":[],"outputs":[{"name":"","type":"uint256","internalType":"uint256"}],"stateMutability":"view"},{"type":"function","name":"fomoRewardCount","inputs":[],"outputs":[{"name":"","type":"uint256","internalType":"uint256"}],"stateMutability":"view"},{"type":"function","name":"freeDays","inputs":[],"outputs":[{"name":"","type":"uint256","internalType":"uint256"}],"stateMutability":"view"},{"type":"function","name":"getCurrentRound","inputs":[],"outputs":[{"name":"roundId","type":"uint256","internalType":"uint256"},{"name":"lastQualified","type":"address[21]","internalType":"address[21]"},{"name":"count","type":"uint256","internalType":"uint256"},{"name":"poolBalance","type":"uint256","internalType":"uint256"}],"stateMutability":"view"},{"type":"function","name":"getPendingOrder","inputs":[{"name":"queueId","type":"uint256","internalType":"uint256"}],"outputs":[{"name":"user","type":"address","internalType":"address"},{"name":"amount","type":"uint256","internalType":"uint256"},{"name":"orderIndex","type":"uint256","internalType":"uint256"},{"name":"stakeIndex","type":"uint8","internalType":"uint8"},{"name":"createdAt","type":"uint256","internalType":"uint256"},{"name":"status","type":"uint8","internalType":"uint8"}],"stateMutability":"view"},{"type":"function","name":"getQueueRange","inputs":[],"outputs":[{"name":"_head","type":"uint256","internalType":"uint256"},{"name":"_tail","type":"uint256","internalType":"uint256"}],"stateMutability":"view"},{"type":"function","name":"getTodayQuota","inputs":[],"outputs":[{"name":"stakeUsed","type":"uint256","internalType":"uint256"},{"name":"stakeRemaining","type":"uint256","internalType":"uint256"},{"name":"unstakeUsed","type":"uint256","internalType":"uint256"},{"name":"unstakeRemaining","type":"uint256","internalType":"uint256"}],"stateMutability":"view"},{"type":"function","name":"getUserQueueIds","inputs":[{"name":"user","type":"address","internalType":"address"}],"outputs":[{"name":"","type":"uint256[]","internalType":"uint256[]"}],"stateMutability":"view"},{"type":"function","name":"head","inputs":[],"outputs":[{"name":"","type":"uint256","internalType":"uint256"}],"stateMutability":"view"},{"type":"function","name":"initialize","inputs":[{"name":"_admin","type":"address","internalType":"address"},{"name":"_lex","type":"address","internalType":"address"},{"name":"_pair","type":"address","internalType":"address"},{"name":"_USDT","type":"address","internalType":"address"},{"name":"_treasury","type":"address","internalType":"address"},{"name":"_treasuryLiquidity","type":"address","internalType":"address"},{"name":"_referrals","type":"address","internalType":"address"}],"outputs":[],"stateMutability":"nonpayable"},{"type":"function","name":"launchTime","inputs":[],"outputs":[{"name":"","type":"uint256","internalType":"uint256"}],"stateMutability":"view"},{"type":"function","name":"lex","inputs":[],"outputs":[{"name":"","type":"address","internalType":"address"}],"stateMutability":"view"},{"type":"function","name":"owner","inputs":[],"outputs":[{"name":"","type":"address","internalType":"address"}],"stateMutability":"view"},{"type":"function","name":"pair","inputs":[],"outputs":[{"name":"","type":"address","internalType":"address"}],"stateMutability":"view"},{"type":"function","name":"proxiableUUID","inputs":[],"outputs":[{"name":"","type":"bytes32","internalType":"bytes32"}],"stateMutability":"view"},{"type":"function","name":"queue","inputs":[{"name":"","type":"uint256","internalType":"uint256"}],"outputs":[{"name":"user","type":"address","internalType":"address"},{"name":"amount","type":"uint256","internalType":"uint256"},{"name":"orderIndex","type":"uint256","internalType":"uint256"},{"name":"stakeIndex","type":"uint8","internalType":"uint8"},{"name":"createdAt","type":"uint256","internalType":"uint256"},{"name":"status","type":"uint8","internalType":"uint8"}],"stateMutability":"view"},{"type":"function","name":"referrals","inputs":[],"outputs":[{"name":"","type":"address","internalType":"address"}],"stateMutability":"view"},{"type":"function","name":"renounceOwnership","inputs":[],"outputs":[],"stateMutability":"nonpayable"},{"type":"function","name":"restake","inputs":[{"name":"user","type":"address","internalType":"address"},{"name":"orderIndex","type":"uint256","internalType":"uint256"},{"name":"newStakeIndex","type":"uint256","internalType":"uint256"}],"outputs":[],"stateMutability":"nonpayable"},{"type":"function","name":"rounds","inputs":[],"outputs":[{"name":"","type":"uint256","internalType":"uint256"}],"stateMutability":"view"},{"type":"function","name":"roundsData","inputs":[{"name":"","type":"uint256","internalType":"uint256"}],"outputs":[{"name":"count","type":"uint256","internalType":"uint256"}],"stateMutability":"view"},{"type":"function","name":"router","inputs":[],"outputs":[{"name":"","type":"address","internalType":"address"}],"stateMutability":"view"},{"type":"function","name":"setAddrConfig","inputs":[{"name":"_router","type":"address","internalType":"address"}],"outputs":[],"stateMutability":"nonpayable"},{"type":"function","name":"setCircuitBreakerConfig","inputs":[{"name":"_breakerTriggerRatio","type":"uint256","internalType":"uint256"}],"outputs":[],"stateMutability":"nonpayable"},{"type":"function","name":"setFees","inputs":[{"name":"_stakeFee","type":"uint256","internalType":"uint256"},{"name":"_cancelFee","type":"uint256","internalType":"uint256"}],"outputs":[],"stateMutability":"nonpayable"},{"type":"function","name":"setFomoConfig","inputs":[{"name":"_fomoMinAmount","type":"uint256","internalType":"uint256"}],"outputs":[],"stateMutability":"nonpayable"},{"type":"function","name":"setLaunchAndFreeDays","inputs":[{"name":"_launchTime","type":"uint256","internalType":"uint256"},{"name":"_freeDays","type":"uint256","internalType":"uint256"}],"outputs":[],"stateMutability":"nonpayable"},{"type":"function","name":"setQuotaRatios","inputs":[{"name":"_stakeRatio","type":"uint256","internalType":"uint256"},{"name":"_unstakeRatio","type":"uint256","internalType":"uint256"}],"outputs":[],"stateMutability":"nonpayable"},{"type":"function","name":"stake","inputs":[{"name":"user","type":"address","internalType":"address"},{"name":"amount","type":"uint256","internalType":"uint256"},{"name":"stakeIndex","type":"uint8","internalType":"uint8"}],"outputs":[],"stateMutability":"nonpayable"},{"type":"function","name":"stakeFee","inputs":[],"outputs":[{"name":"","type":"uint256","internalType":"uint256"}],"stateMutability":"view"},{"type":"function","name":"stakeRatio","inputs":[],"outputs":[{"name":"","type":"uint256","internalType":"uint256"}],"stateMutability":"view"},{"type":"function","name":"tail","inputs":[],"outputs":[{"name":"","type":"uint256","internalType":"uint256"}],"stateMutability":"view"},{"type":"function","name":"transferOwnership","inputs":[{"name":"newOwner","type":"address","internalType":"address"}],"outputs":[],"stateMutability":"nonpayable"},{"type":"function","name":"treasury","inputs":[],"outputs":[{"name":"","type":"address","internalType":"address"}],"stateMutability":"view"},{"type":"function","name":"treasuryLiquidity","inputs":[],"outputs":[{"name":"","type":"address","internalType":"address"}],"stateMutability":"view"},{"type":"function","name":"unstake","inputs":[{"name":"user","type":"address","internalType":"address"},{"name":"orderIndex","type":"uint256","internalType":"uint256"}],"outputs":[],"stateMutability":"nonpayable"},{"type":"function","name":"unstakeRatio","inputs":[],"outputs":[{"name":"","type":"uint256","internalType":"uint256"}],"stateMutability":"view"},{"type":"function","name":"upgradeToAndCall","inputs":[{"name":"newImplementation","type":"address","internalType":"address"},{"name":"data","type":"bytes","internalType":"bytes"}],"outputs":[],"stateMutability":"payable"},{"type":"function","name":"userQueueAmount","inputs":[{"name":"","type":"address","internalType":"address"}],"outputs":[{"name":"","type":"uint256","internalType":"uint256"}],"stateMutability":"view"},{"type":"event","name":"Initialized","inputs":[{"name":"version","type":"uint64","indexed":false,"internalType":"uint64"}],"anonymous":false},{"type":"event","name":"OwnershipTransferred","inputs":[{"name":"previousOwner","type":"address","indexed":true,"internalType":"address"},{"name":"newOwner","type":"address","indexed":true,"internalType":"address"}],"anonymous":false},{"type":"event","name":"Upgraded","inputs":[{"name":"implementation","type":"address","indexed":true,"internalType":"address"}],"anonymous":false},{"type":"error","name":"AddressEmptyCode","inputs":[{"name":"target","type":"address","internalType":"address"}]},{"type":"error","name":"ERC1967InvalidImplementation","inputs":[{"name":"implementation","type":"address","internalType":"address"}]},{"type":"error","name":"ERC1967NonPayable","inputs":[]},{"type":"error","name":"FailedCall","inputs":[]},{"type":"error","name":"InvalidInitialization","inputs":[]},{"type":"error","name":"NotInitializing","inputs":[]},{"type":"error","name":"OwnableInvalidOwner","inputs":[{"name":"owner","type":"address","internalType":"address"}]},{"type":"error","name":"OwnableUnauthorizedAccount","inputs":[{"name":"account","type":"address","internalType":"address"}]},{"type":"error","name":"UUPSUnauthorizedCallContext","inputs":[]},{"type":"error","name":"UUPSUnsupportedProxiableUUID","inputs":[{"name":"slot","type":"bytes32","internalType":"bytes32"}]}],"bytecode":{"object":"0x60a08060405234602957306080526126ac908161002e82396080518181816110c501526111ae0152f35b5f80fdfe6080806040526004361015610012575f80fd5b5f905f3560e01c90816309fb669814611a4b575080630b78f9c014611a1f57806310b5a38e146119fb57806313d8c840146119de57806314025dcd146119c157806316efd9411461199f5780631e186afb1461192457806321746268146118e3578063222c9777146118c65780632b813998146118a75780632e586cab146117f35780633112538f1461161e578063358764761461138957806338962ae11461135d57806341eb2d971461132a5780634f1ef286146111365780635037533e1461111957806352d1902d146110b3578063551512de1461106f57806361d027b3146110475780636341c06014610db157806366bac0ae14610d77578063715018a614610d0e578063790ca41314610cf05780637c1e652f14610cd25780637d0a151814610ca95780637d43bf6714610c8d5780638104015014610c4d5780638a1e6c0814610c2f5780638da5cb5b14610bfa5780638e00a8e814610bdc5780638ed3109914610bbe5780638f7dcfa314610ba0578063a05a9e13146109c3578063a2e800ad146109a5578063a32bf597146108e0578063a8aa1b31146108b7578063aad3ec9614610833578063ad3cb1cc146107d7578063b50077cf146107b4578063c2a672e0146105d5578063c54e44eb146105ae578063c97d867914610581578063ce22767c1461055e578063d3dc753914610535578063d9f3680f14610517578063dc38b0e8146104de578063ddf0b00914610467578063dec1ac48146103a7578063e4c2ab711461030f578063f2fde38b146102e2578063f5602c27146102c4578063f851a4401461029b5763f887ea4014610270575f80fd5b346102985780600319360112610298576004546040516001600160a01b039091168152602090f35b80fd5b50346102985780600319360112610298576007546040516001600160a01b039091168152602090f35b50346102985780600319360112610298576020600954604051908152f35b50346102985760203660031901126102985761030c6102ff611a84565b610307611bf5565b611b84565b80f35b50346102985780600319360112610298576080906201518061033360085442611b4a565b048152601360205260408120906001825492015461034f612353565b838082111561039f5761036191611b4a565b915b8161036c6123fe565b818111156103975761037e9250611b4a565b915b604051938452602084015260408301526060820152f35b505091610380565b505081610363565b5034610298576060366003190112610298576103c1611a84565b6024356103d960018060a01b03600454163314611aee565b600154604080516382510bcf60e01b81526001600160a01b0385811660048301526024820185905290949285916044918391165afa801561045c5761030c93859161042c575b5060ff6044351691611f15565b61044e915060403d604011610455575b6104468183611ab0565b810190611b64565b505f61041f565b503d61043c565b6040513d86823e3d90fd5b5034610298576020366003190112610298576004803582526014602090815260409283902080546001820154600283015460038401549584015460059094015487516001600160a01b039094168452948301919091529481019490945260ff928316606085015260808401521660a082015260c090f35b5034610298576020366003190112610298576020906040906001600160a01b03610506611a84565b168152601683522054604051908152f35b50346102985780600319360112610298576020601b54604051908152f35b50346102985780600319360112610298576003546040516001600160a01b039091168152602090f35b503461029857602036600319011261029857610578611bf5565b600435600e5580f35b50346102985760203660031901126102985760156040602092600435815260108452200154604051908152f35b5034610298578060031936011261029857546040516001600160a01b039091168152602090f35b5034610298576040366003190112610298576105ef611a84565b60243561060760018060a01b03600454163314611aee565b61060f611d27565b600154604080516382510bcf60e01b81526001600160a01b038581166004830152602482018590529092169391929083604481875afa9081156107435785938692610790575b5061066082856122be565b15610752578486953b1561074e57604051630615339760e51b81526001600160a01b0385166004820152602481019290925285908290604490829084905af190811561074357859161072e575b50506106b99083612312565b6003546001600160a01b031691823b156107295760405163712e1fe360e11b81526001600160a01b03909216600483015260248201529082908290818381604481015b03925af1801561071e5761070d5750f35b8161071791611ab0565b6102985780f35b6040513d84823e3d90fd5b505050fd5b8161073891611ab0565b61072957835f6106ad565b6040513d87823e3d90fd5b8580fd5b60405162461bcd60e51b8152602060048201526016602482015275155394d51052d157d45553d51057d15610d15151115160521b6044820152606490fd5b9093506107ac915060403d604011610455576104468183611ab0565b90925f610655565b5034610298576020366003190112610298576107ce611bf5565b600435601b5580f35b5034610298578060031936011261029857604080516107f68282611ab0565b6005815260208101640352e302e360dc1b81528251938492602084525180928160208601528585015e828201840152601f01601f19168101030190f35b5034610298576040366003190112610298578061084e611a84565b61086360018060a01b03600454163314611aee565b61086b611d27565b6001546001600160a01b0316803b156108b357604051635569f64b60e11b81526001600160a01b039092166004830152602480359083015282908290818381604481016106fc565b5050fd5b50346102985780600319360112610298576006546040516001600160a01b039091168152602090f35b50346102985780600319360112610298576102a0806040516109028282611ab0565b369037600f549081835260106020526040832060158101549060115492604051918287905b601582106109855750505061093c9082611ab0565b60405193845293602084015b6015821061096557505061030093506102c08301526102e0820152f35b85516001600160a01b031681526020958601956001929092019101610948565b82546001600160a01b031681526001928301929190910190602001610927565b50346102985780600319360112610298576020600f54604051908152f35b5034610298576040366003190112610298576109dd611a84565b6024356109f560018060a01b03600454163314611aee565b60175481101580610b95575b15610b6357825260146020526040822080546001600160a01b0380841693929116839003610b3257600581019060ff825416610afb5760010191825490600d549081831115610ac357610a63610a5a83610a7695611b4a565b92601154611b57565b60115586546001600160a01b0316611c28565b805460ff1916600217905581835260166020526040832054815411610ab257549082526016602052610aad60408320918254611b4a565b905580f35b508152601660205280604081205580f35b60405162461bcd60e51b815260206004820152601060248201526f105353d5539517d513d3d7d4d350531360821b6044820152606490fd5b60405162461bcd60e51b815260206004820152600f60248201526e1053149150511657d2105391131151608a1b6044820152606490fd5b60405162461bcd60e51b81526020600482015260096024820152682727aa2fa7aba722a960b91b6044820152606490fd5b60405162461bcd60e51b815260206004820152600a6024820152691253959053125117d25160b21b6044820152606490fd5b506018548110610a01565b50346102985780600319360112610298576020601754604051908152f35b50346102985780600319360112610298576020600e54604051908152f35b50346102985780600319360112610298576020600a54604051908152f35b50346102985780600319360112610298575f5160206126175f395f51905f52546040516001600160a01b039091168152602090f35b50346102985780600319360112610298576020601a54604051908152f35b503461029857602036600319011261029857610c67611a84565b610c6f611bf5565b60018060a01b03166001600160601b0360a01b600454161760045580f35b5034610298578060031936011261029857602060405160158152f35b50346102985780600319360112610298576005546040516001600160a01b039091168152602090f35b50346102985780600319360112610298576020600b54604051908152f35b50346102985780600319360112610298576020600854604051908152f35b5034610298578060031936011261029857610d27611bf5565b5f5160206126175f395f51905f5280546001600160a01b0319811690915581906001600160a01b03167f8be0079c531659141344cd1fd0a4f28419497f9722a3daafe3b4186f6b6457e08280a380f35b5034610298578060031936011261029857610d9d60018060a01b03600754163314611aee565b610da5611d27565b610dad611f9d565b5080f35b5034610f42576060366003190112610f4257610dcb611a84565b602435906044359060ff82168203610f4257610df260018060a01b03600454163314611aee565b610dfa611d27565b610e02611d27565b610e0a611f9d565b50610e1582846124ba565b15610f60578290680ad78ebc5ac62000008410610f46575b5f54600254610e4a9184916001600160a01b039081169116611c28565b6001546001600160a01b0316803b15610f425760405163031a0e0360e51b81526001600160a01b03831660048201526024810184905260ff85166044820152905f908290606490829084905af18015610f3757610f20575b5060035485926001600160a01b039091169190823b15610f1c5760405163543b35c760e01b81526001600160a01b0392909216600483015260248201529082908290604490829084905af1801561071e57610f03575b505061030c91612510565b81610f0d91611ab0565b610f1857825f610ef8565b8280fd5b8380fd5b610f2e919295505f90611ab0565b5f93905f610ea2565b6040513d5f823e3d90fd5b5f80fd5b600c549150610f58610a5a8386611b4a565b601155610e2d565b906005906018545f52601460205260405f209060018060a01b0384166001600160601b0360a01b8354161782558460018301555f600283015560ff60038301911660ff198254161790554260048201550160ff19815416905560018060a01b0316805f52601560205260405f206018549080549068010000000000000000821015611033576001820180825582101561101f575f5260205f200155611006601854611f8f565b6018555f526016602052610aad60405f20918254611b57565b634e487b7160e01b5f52603260045260245ffd5b634e487b7160e01b5f52604160045260245ffd5b34610f42575f366003190112610f42576001546040516001600160a01b039091168152602090f35b34610f42576060366003190112610f42576110b161108b611a84565b611093611a9a565b6110a860018060a01b03600754163314611aee565b60243591611c28565b005b34610f42575f366003190112610f42577f00000000000000000000000000000000000000000000000000000000000000006001600160a01b0316300361110a5760206040515f5160206126375f395f51905f528152f35b63703e46dd60e11b5f5260045ffd5b34610f42575f366003190112610f42576020601154604051908152f35b6040366003190112610f425761114a611a84565b6024359067ffffffffffffffff8211610f425736602383011215610f4257816004013561117681611ad2565b926111846040519485611ab0565b8184523660248383010111610f4257815f9260246020930183870137840101526001600160a01b037f000000000000000000000000000000000000000000000000000000000000000016308114908115611308575b5061110a576111e6611bf5565b6040516352d1902d60e01b81526001600160a01b0382169290602081600481875afa5f91816112d4575b506112285783634c9c8ce360e01b5f5260045260245ffd5b805f5160206126375f395f51905f528592036112c25750823b156112b0575f5160206126375f395f51905f5280546001600160a01b031916821790557fbc7cd75a20ee27fd9adebab32041f755214dbc6bffa90cc0225b39da2e5c2d3b5f80a2805115611298576110b19161258a565b5050346112a157005b63b398979f60e01b5f5260045ffd5b634c9c8ce360e01b5f5260045260245ffd5b632a87526960e21b5f5260045260245ffd5b9091506020813d602011611300575b816112f060209383611ab0565b81010312610f4257519085611210565b3d91506112e3565b5f5160206126375f395f51905f52546001600160a01b031614159050836111d9565b34610f42576020366003190112610f42576004355f5260136020526040805f206001815491015482519182526020820152f35b34610f425761136b36611a6e565b9061138160018060a01b03600754163314611aee565b600a55600b55005b34610f425760e0366003190112610f42576113a2611a84565b6024356001600160a01b03811690819003610f42576113bf611a9a565b6064356001600160a01b03811690819003610f42576084356001600160a01b0381169190829003610f425760a4356001600160a01b0381169390849003610f425760c4356001600160a01b0381169590869003610f42575f5160206126575f395f51905f52549660ff8860401c16159767ffffffffffffffff811680159081611616575b600114908161160c575b159081611603575b506115f45767ffffffffffffffff1981166001175f5160206126575f395f51905f5255886115c8575b5061148761248f565b61148f61248f565b61149833611b84565b60018060a01b03166001600160601b0360a01b60075416176007556001600160601b0360a01b600554161760055560018060a01b03166001600160601b0360a01b60065416176006556001600160601b0360a01b5f5416175f556001600160601b0360a01b60015416176001556001600160601b0360a01b60025416176002556001600160601b0360a01b60035416176003554260085560016009556107d0600a556107d0600b55670de0b6b3a7640000600c55671bc16d674ec80000600d55681b1ae4d6e2ef500000600e55610fa0601b5561157157005b68ff0000000000000000195f5160206126575f395f51905f5254165f5160206126575f395f51905f52557fc7f505b2f371ae2175ee4913f4499e1f2633a7b5936321eed1cdaeb6115181d2602060405160018152a1005b68ffffffffffffffffff191668010000000000000001175f5160206126575f395f51905f52558861147e565b63f92ee8a960e01b5f5260045ffd5b9050158a611455565b303b15915061144d565b8a9150611443565b34610f42575f366003190112610f425761164360018060a01b03600754163314611aee565b60115480156117bc57600f545f52601060205260405f209060158201908154908115611782576028810290810460280361176e576064900404915f5b825481101561172c578061169560019284611b3b565b838060a01b0391549060031b1c166116ae575b0161167f565b6116d985838060a01b035f54166116c58487611b3b565b868060a01b0391549060031b1c1690611c28565b600f546116e68285611b3b565b848060a01b0391549060031b1c165f52601260205260405f205561170a8184611b3b565b838060a01b0391549060031b1c165f526012602052848260405f2001556116a8565b6117458361173f86601154925490611b28565b90611b4a565b601155600f546001810180911161176e5780600f555f5260106020525f60156040822001555f80f35b634e487b7160e01b5f52601160045260245ffd5b60405162461bcd60e51b81526020600482015260126024820152714e4f5f5155414c49464945445f555345525360701b6044820152606490fd5b60405162461bcd60e51b815260206004820152600f60248201526e464f4d4f5f504f4f4c5f454d50545960881b6044820152606490fd5b34610f42576020366003190112610f42576001600160a01b03611814611a84565b165f52601560205260405f20604051806020835491828152019081935f5260205f20905f5b818110611891575050508161184f910382611ab0565b604051918291602083019060208452518091526040830191905f5b818110611878575050500390f35b825184528594506020938401939092019160010161186a565b8254845260209093019260019283019201611839565b34610f42576118b536611a6e565b906118be611bf5565b600855600955005b34610f42575f366003190112610f42576020600c54604051908152f35b34610f42576020366003190112610f42576001600160a01b03611904611a84565b165f5260126020526040805f206001815491015482519182526020820152f35b34610f42576020366003190112610f4257600480355f9081526014602090815260409182902080546001820154600283015460038401549684015460059094015486516001600160a01b039094168452948301919091529381019390935260ff938416606084015260808301529190911660a082015260c090f35b34610f42575f366003190112610f4257602060ff601954166040519015158152f35b34610f42575f366003190112610f42576020600d54604051908152f35b34610f42575f366003190112610f42576020601854604051908152f35b34610f42575f366003190112610f4257604060175460185482519182526020820152f35b34610f4257611a2d36611a6e565b90611a4360018060a01b03600754163314611aee565b600c55600d55005b34610f42575f366003190112610f42576002546001600160a01b03168152602090f35b6040906003190112610f42576004359060243590565b600435906001600160a01b0382168203610f4257565b604435906001600160a01b0382168203610f4257565b90601f8019910116810190811067ffffffffffffffff82111761103357604052565b67ffffffffffffffff811161103357601f01601f191660200190565b15611af557565b60405162461bcd60e51b815260206004820152600b60248201526a2737ba103832b936b4ba1760a91b6044820152606490fd5b8181029291811591840414171561176e57565b601582101561101f5701905f90565b9190820391821161176e57565b9190820180921161176e57565b9190826040910312610f42576020825192015160ff81168103610f425790565b6001600160a01b03168015611be2575f5160206126175f395f51905f5280546001600160a01b0319811683179091556001600160a01b03167f8be0079c531659141344cd1fd0a4f28419497f9722a3daafe3b4186f6b6457e05f80a3565b631e4fbdf760e01b5f525f60045260245ffd5b5f5160206126175f395f51905f52546001600160a01b03163303611c1557565b63118cdaa760e01b5f523360045260245ffd5b60405163a9059cbb60e01b602082019081526001600160a01b039390931660248201526044808201949094529283525f928392908390611c69606482611ab0565b51925af13d15611d20573d611c7d81611ad2565b90611c8b6040519283611ab0565b81523d5f602083013e5b81611ce8575b5015611ca357565b60405162461bcd60e51b815260206004820152601f60248201527f5472616e7366657248656c7065723a205452414e534645525f4641494c4544006044820152606490fd5b8051801592508215611cfd575b50505f611c9b565b8192509060209181010312610f4257602001518015158103610f42575f80611cf5565b6060611c95565b60055460405163a5aff84160e01b81525f91602090829060049082906001600160a01b03165afa908115610f37575f91611ee3575b505f546006546040516370a0823160e01b81526001600160a01b039182166004820152929160209184916024918391165afa918215610f37575f92611eaf575b506019549060ff82169081159081611e95575b5015611e15575050600160ff196019541617601955601a5560018060a01b0360015416803b15611e1157818091600460405180948193638456cb5960e01b83525af1801561071e57611dff575050565b611e0a828092611ab0565b6102985750565b5080fd5b9092509081611e75575b50611e28575b50565b60ff19166019555f601a556001546001600160a01b0316803b15610f42575f8091600460405180948193630237bed160e11b83525af18015610f375715611e25575f611e7391611ab0565b565b9050601a54908160011b918083046002149015171561176e57115f611e1f565b601b546127109250611ea691611b28565b0483105f611daf565b9091506020813d602011611edb575b81611ecb60209383611ab0565b81010312610f425751905f611d9c565b3d9150611ebe565b90506020813d602011611f0d575b81611efe60209383611ab0565b81010312610f4257515f611d5c565b3d9150611ef1565b919050611f20611d27565b611f28611f9d565b506001546001600160a01b0316803b15610f42576040516385cf4f9d60e01b81526001600160a01b03939093166004840152602483019390935260ff166044820152905f908290606490829084905af18015610f3757611f855750565b5f611e7391611ab0565b5f19811461176e5760010190565b5f5b601754906018548210806122b4575b156122af57815f52601460205260405f2091600583019060ff8254166122a2575060018301908154916003850191611fea60ff845416856124ba565b156122995783680ad78ebc5ac62000008110612275575b505f5460025461201f9186916001600160a01b039081169116611c28565b61202f825460ff85541690612510565b8154600e54111561219b575b805460ff1916600117905584546001600160a01b03165f8181526016602052604090205482541161218757505460018060a01b038554165f52601660205261208860405f20918254611b4a565b90555b600154845491546001600160a01b03918216929091169060ff16823b15610f425760405163031a0e0360e51b81526001600160a01b039290921660048301526024820184905260ff166044820152905f908290606490829084905af18015610f3757612177575b5060035492546001600160a01b03938416931690833b15610f425760405163543b35c760e01b81526001600160a01b039290921660048301526024820152915f908390604490829084905af1918215610f375761215492612167575b50611f8f565b61215f601754611f8f565b601755611f9f565b5f61217191611ab0565b5f61214e565b5f61218191611ab0565b5f6120f2565b90505f5260166020525f604081205561208b565b60018060a01b03865416600f545f52601060205260405f2090601582019160158354105f1461220957906121d46121f892845490611b3b565b81546001600160a01b0393841660039290921b91821b9390911b1916919091179055565b6122028154611f8f565b905561203b565b9091505f5b6014811061223c575060140180546001600160a01b0319166001600160a01b0390921691909117905561203b565b600181019081811161176e5761226f61225760019385611b3b565b848060a01b0391549060031b1c166121d48386611b3b565b0161220e565b9350612290612287600c548096611b4a565b94601154611b57565b6011555f612001565b50505050919050565b905061215f919250611f8f565b919050565b5060058110611fae565b9060ff161561230c5760ff60195416612307576122fa90620151806122e560085442611b4a565b045f526013602052600160405f200154611b57565b6123026123fe565b101590565b505f90565b50600190565b9060ff1615611e255760ff60195416611e25576201518061233560085442611b4a565b045f52601360205261234f600160405f2001918254611b57565b9055565b61235b61255f565b80156123f2575b6123ed575f546006546040516370a0823160e01b81526001600160a01b0391821660048201529160209183916024918391165afa908115610f37575f916123b9575b506123b561271091600a5490611b28565b0490565b90506020813d6020116123e5575b816123d460209383611ab0565b81010312610f4257516123b56123a4565b3d91506123c7565b5f1990565b5060ff60195416612362565b60ff6019541661248b575f546006546040516370a0823160e01b81526001600160a01b0391821660048201529160209183916024918391165afa908115610f37575f91612457575b506123b561271091600b5490611b28565b90506020813d602011612483575b8161247260209383611ab0565b81010312610f4257516123b5612446565b3d9150612465565b5f90565b60ff5f5160206126575f395f51905f525460401c16156124ab57565b631afcd79f60e31b5f5260045ffd5b9060ff161561230c576124cb61255f565b8015612504575b61230c576124fc90620151806124ea60085442611b4a565b045f52601360205260405f2054611b57565b612302612353565b5060ff601954166124d2565b9060ff1615611e255761252161255f565b8015612553575b611e25576201518061253c60085442611b4a565b045f52601360205261234f60405f20918254611b57565b5060ff60195416612528565b6008546009546201518081029080820462015180149015171561176e5761258591611b57565b421090565b905f8091602081519101845af48080612603575b156125be5750506040513d81523d5f602083013e60203d82010160405290565b156125e357639996b31560e01b5f9081526001600160a01b0391909116600452602490fd5b3d156125f4576040513d5f823e3d90fd5b63d6bda27560e01b5f5260045ffd5b503d15158061259e5750813b151561259e56fe9016d09d72d40fdae2fd8ceac6b6234c7706214fd39c1cd1e609a0528c199300360894a13ba1a3210667c828492db98dca3e2076cc3735a920a3ca505d382bbcf0c57e16840df040f15088dc2f81fe391c3923bec73e23a9662efc9c229c6a00a2646970667358221220a3d1332d585d0d6f2cf6c52ae5a684f84694d4a4f86faf8caa5b07c57520ace464736f6c634300081e0033","linkReferences":{}},"methodIdentifiers":{"UPGRADE_INTERFACE_VERSION()":"ad3cb1cc","USDT()":"c54e44eb","admin()":"f851a440","breakerReserve()":"8a1e6c08","breakerTriggerRatio()":"d9f3680f","cancelFee()":"14025dcd","cancelQueue(address,uint256)":"a05a9e13","circuitBreaker()":"16efd941","claim(address,uint256)":"aad3ec96","dailyQuota(uint256)":"41eb2d97","drawFomoRewards()":"3112538f","emergencyProcessQueue()":"66bac0ae","emergencyWithdraw(address,uint256,address)":"551512de","fomoAwardsInfo(address)":"21746268","fomoMinAmount()":"8ed31099","fomoPoolBalance()":"5037533e","fomoRewardCount()":"7d43bf67","freeDays()":"f5602c27","getCurrentRound()":"a32bf597","getPendingOrder(uint256)":"1e186afb","getQueueRange()":"10b5a38e","getTodayQuota()":"e4c2ab71","getUserQueueIds(address)":"2e586cab","head()":"8f7dcfa3","initialize(address,address,address,address,address,address,address)":"35876476","launchTime()":"790ca413","lex()":"7d0a1518","owner()":"8da5cb5b","pair()":"a8aa1b31","proxiableUUID()":"52d1902d","queue(uint256)":"ddf0b009","referrals()":"d3dc7539","renounceOwnership()":"715018a6","restake(address,uint256,uint256)":"dec1ac48","rounds()":"a2e800ad","roundsData(uint256)":"c97d8679","router()":"f887ea40","setAddrConfig(address)":"81040150","setCircuitBreakerConfig(uint256)":"b50077cf","setFees(uint256,uint256)":"0b78f9c0","setFomoConfig(uint256)":"ce22767c","setLaunchAndFreeDays(uint256,uint256)":"2b813998","setQuotaRatios(uint256,uint256)":"38962ae1","stake(address,uint256,uint8)":"6341c060","stakeFee()":"222c9777","stakeRatio()":"8e00a8e8","tail()":"13d8c840","transferOwnership(address)":"f2fde38b","treasury()":"61d027b3","treasuryLiquidity()":"09fb6698","unstake(address,uint256)":"c2a672e0","unstakeRatio()":"7c1e652f","upgradeToAndCall(address,bytes)":"4f1ef286","userQueueAmount(address)":"dc38b0e8"},"id":54}