{"abi":[{"type":"function","name":"UPGRADE_INTERFACE_VERSION","inputs":[],"outputs":[{"name":"","type":"string","internalType":"string"}],"stateMutability":"view"},{"type":"function","name":"USDT","inputs":[],"outputs":[{"name":"","type":"address","internalType":"address"}],"stateMutability":"view"},{"type":"function","name":"VENUS","inputs":[],"outputs":[{"name":"","type":"address","internalType":"address"}],"stateMutability":"view"},{"type":"function","name":"addAvailableLimit","inputs":[{"name":"token","type":"address","internalType":"address"},{"name":"users","type":"address[]","internalType":"address[]"},{"name":"amountUsdt","type":"uint256","internalType":"uint256"}],"outputs":[],"stateMutability":"nonpayable"},{"type":"function","name":"admin","inputs":[],"outputs":[{"name":"","type":"address","internalType":"address"}],"stateMutability":"view"},{"type":"function","name":"availableLimit","inputs":[{"name":"","type":"address","internalType":"address"},{"name":"","type":"address","internalType":"address"}],"outputs":[{"name":"","type":"uint256","internalType":"uint256"}],"stateMutability":"view"},{"type":"function","name":"buy","inputs":[{"name":"token","type":"address","internalType":"address"},{"name":"amountUsdt","type":"uint256","internalType":"uint256"}],"outputs":[],"stateMutability":"nonpayable"},{"type":"function","name":"emergencyWithdraw","inputs":[{"name":"token","type":"address","internalType":"address"},{"name":"amount","type":"uint256","internalType":"uint256"},{"name":"to","type":"address","internalType":"address"}],"outputs":[],"stateMutability":"nonpayable"},{"type":"function","name":"getAmountOut","inputs":[{"name":"fromToken","type":"address","internalType":"address"},{"name":"toToken","type":"address","internalType":"address"},{"name":"fromAmount","type":"uint256","internalType":"uint256"}],"outputs":[{"name":"","type":"uint256","internalType":"uint256"}],"stateMutability":"view"},{"type":"function","name":"initialize","inputs":[{"name":"_lex","type":"address","internalType":"address"},{"name":"_leo","type":"address","internalType":"address"},{"name":"_wallet","type":"address","internalType":"address"},{"name":"_admin","type":"address","internalType":"address"}],"outputs":[],"stateMutability":"nonpayable"},{"type":"function","name":"leo","inputs":[],"outputs":[{"name":"","type":"address","internalType":"address"}],"stateMutability":"view"},{"type":"function","name":"lex","inputs":[],"outputs":[{"name":"","type":"address","internalType":"address"}],"stateMutability":"view"},{"type":"function","name":"owner","inputs":[],"outputs":[{"name":"","type":"address","internalType":"address"}],"stateMutability":"view"},{"type":"function","name":"pancakeRouter","inputs":[],"outputs":[{"name":"","type":"address","internalType":"contract IUniswapV2Router02"}],"stateMutability":"view"},{"type":"function","name":"proxiableUUID","inputs":[],"outputs":[{"name":"","type":"bytes32","internalType":"bytes32"}],"stateMutability":"view"},{"type":"function","name":"renounceOwnership","inputs":[],"outputs":[],"stateMutability":"nonpayable"},{"type":"function","name":"sellSubCoin","inputs":[{"name":"amountLeo","type":"uint256","internalType":"uint256"}],"outputs":[],"stateMutability":"nonpayable"},{"type":"function","name":"setTaxRate","inputs":[{"name":"_taxRate","type":"uint256","internalType":"uint256"}],"outputs":[],"stateMutability":"nonpayable"},{"type":"function","name":"subAvailableLimit","inputs":[{"name":"token","type":"address","internalType":"address"},{"name":"users","type":"address[]","internalType":"address[]"},{"name":"amountUsdt","type":"uint256","internalType":"uint256"}],"outputs":[],"stateMutability":"nonpayable"},{"type":"function","name":"taxRate","inputs":[],"outputs":[{"name":"","type":"uint256","internalType":"uint256"}],"stateMutability":"view"},{"type":"function","name":"transferOwnership","inputs":[{"name":"newOwner","type":"address","internalType":"address"}],"outputs":[],"stateMutability":"nonpayable"},{"type":"function","name":"upgradeToAndCall","inputs":[{"name":"newImplementation","type":"address","internalType":"address"},{"name":"data","type":"bytes","internalType":"bytes"}],"outputs":[],"stateMutability":"payable"},{"type":"function","name":"wallet","inputs":[],"outputs":[{"name":"","type":"address","internalType":"address"}],"stateMutability":"view"},{"type":"event","name":"Initialized","inputs":[{"name":"version","type":"uint64","indexed":false,"internalType":"uint64"}],"anonymous":false},{"type":"event","name":"OwnershipTransferred","inputs":[{"name":"previousOwner","type":"address","indexed":true,"internalType":"address"},{"name":"newOwner","type":"address","indexed":true,"internalType":"address"}],"anonymous":false},{"type":"event","name":"Upgraded","inputs":[{"name":"implementation","type":"address","indexed":true,"internalType":"address"}],"anonymous":false},{"type":"error","name":"AddressEmptyCode","inputs":[{"name":"target","type":"address","internalType":"address"}]},{"type":"error","name":"ERC1967InvalidImplementation","inputs":[{"name":"implementation","type":"address","internalType":"address"}]},{"type":"error","name":"ERC1967NonPayable","inputs":[]},{"type":"error","name":"FailedCall","inputs":[]},{"type":"error","name":"InvalidInitialization","inputs":[]},{"type":"error","name":"NotInitializing","inputs":[]},{"type":"error","name":"OwnableInvalidOwner","inputs":[{"name":"owner","type":"address","internalType":"address"}]},{"type":"error","name":"OwnableUnauthorizedAccount","inputs":[{"name":"account","type":"address","internalType":"address"}]},{"type":"error","name":"UUPSUnauthorizedCallContext","inputs":[]},{"type":"error","name":"UUPSUnsupportedProxiableUUID","inputs":[{"name":"slot","type":"bytes32","internalType":"bytes32"}]}],"bytecode":{"object":"0x60a0604052306080523480156012575f5ffd5b50608051611e106100395f395f8181610fe00152818161100901526111480152611e105ff3fe60806040526004361061013c575f3560e01c8063892231c8116100b3578063c54e44eb1161006d578063c54e44eb146103af578063c6d69a30146103d6578063cce7ec13146103f5578063f2fde38b14610414578063f851a44014610433578063f8c8765e14610452575f5ffd5b8063892231c81461029e5780638da5cb5b146102bd578063ab08b66e146102f9578063ad3cb1cc14610318578063c213b3b314610355578063c21ebd0714610388575f5ffd5b806352d1902d1161010457806352d1902d14610204578063551512de1461021857806364fe9f1b14610237578063715018a614610256578063771a3a1d1461026a5780637d0a15181461027f575f5ffd5b80631a78ccc11461014057806342728ffd146101845780634aa06652146101a35780634f1ef286146101d0578063521eb273146101e5575b5f5ffd5b34801561014b575f5ffd5b5061016773fd5840cd36d94d7229439859c0112a4185bc025581565b6040516001600160a01b0390911681526020015b60405180910390f35b34801561018f575f5ffd5b50600254610167906001600160a01b031681565b3480156101ae575f5ffd5b506101c26101bd366004611849565b610471565b60405190815260200161017b565b6101e36101de3660046118c8565b610592565b005b3480156101f0575f5ffd5b50600454610167906001600160a01b031681565b34801561020f575f5ffd5b506101c26105b1565b348015610223575f5ffd5b506101e361023236600461196d565b6105cc565b348015610242575f5ffd5b506101e36102513660046119a6565b61060f565b348015610261575f5ffd5b506101e36108ae565b348015610275575f5ffd5b506101c260055481565b34801561028a575f5ffd5b50600154610167906001600160a01b031681565b3480156102a9575f5ffd5b506101e36102b83660046119e0565b6108c1565b3480156102c8575f5ffd5b507f9016d09d72d40fdae2fd8ceac6b6234c7706214fd39c1cd1e609a0528c199300546001600160a01b0316610167565b348015610304575f5ffd5b506101e36103133660046119e0565b61096e565b348015610323575f5ffd5b50610348604051806040016040528060058152602001640352e302e360dc1b81525081565b60405161017b9190611a97565b348015610360575f5ffd5b506101c261036f366004611acc565b5f60208181529281526040808220909352908152205481565b348015610393575f5ffd5b506101677310ed43c718714eb63d5aa57b78b54704e256024e81565b3480156103ba575f5ffd5b506101677355d398326f99059ff775485246999027b319795581565b3480156103e1575f5ffd5b506101e36103f03660046119a6565b610aeb565b348015610400575f5ffd5b506101e361040f366004611afd565b610b1a565b34801561041f575f5ffd5b506101e361042e366004611b25565b610e4e565b34801561043e575f5ffd5b50600354610167906001600160a01b031681565b34801561045d575f5ffd5b506101e361046c366004611b45565b610e8b565b6040805160028082526060820183525f928392919060208301908036833701905050905084815f815181106104a8576104a8611b96565b60200260200101906001600160a01b031690816001600160a01b03168152505083816001815181106104dc576104dc611b96565b6001600160a01b039092166020928302919091019091015260405163d06ca61f60e01b81527310ed43c718714eb63d5aa57b78b54704e256024e9063d06ca61f9061052d9086908590600401611bed565b5f60405180830381865afa158015610547573d5f5f3e3d5ffd5b505050506040513d5f823e601f3d908101601f1916820160405261056e9190810190611c0d565b60018151811061058057610580611b96565b60200260200101519150509392505050565b61059a610fd5565b6105a382611079565b6105ad8282611081565b5050565b5f6105ba61113d565b505f516020611dbb5f395f51905f5290565b6003546001600160a01b031633146105ff5760405162461bcd60e51b81526004016105f690611c9e565b60405180910390fd5b61060a838284611186565b505050565b5f811161064e5760405162461bcd60e51b815260206004820152600d60248201526c22b93937b91030b6b7bab73a1760991b60448201526064016105f6565b600254610666906001600160a01b031633308461129c565b600254610691906001600160a01b03167355d398326f99059ff775485246999027b3197955836113bf565b6040516370a0823160e01b81523060048201525f907355d398326f99059ff775485246999027b3197955906370a0823190602401602060405180830381865afa1580156106e0573d5f5f3e3d5ffd5b505050506040513d601f19601f820116820180604052508101906107049190611cc3565b905080156105ad575f60646005548361071d9190611cee565b6107279190611d05565b60405163140e25ad60e31b81526004810182905290915073fd5840cd36d94d7229439859c0112a4185bc02559063a0712d68906024016020604051808303815f875af1158015610779573d5f5f3e3d5ffd5b505050506040513d601f19601f8201168201806040525081019061079d9190611cc3565b156107de5760405162461bcd60e51b81526020600482015260116024820152701591539554d7d352539517d19052531151607a1b60448201526064016105f6565b6040516370a0823160e01b81523060048201525f9073fd5840cd36d94d7229439859c0112a4185bc0255906370a0823190602401602060405180830381865afa15801561082d573d5f5f3e3d5ffd5b505050506040513d601f19601f820116820180604052508101906108519190611cc3565b6004549091506108809073fd5840cd36d94d7229439859c0112a4185bc0255906001600160a01b031683611186565b6108a87355d398326f99059ff775485246999027b3197955336108a38587611d24565b611186565b50505050565b6108b6611534565b6108bf5f61158f565b565b6003546001600160a01b031633146108eb5760405162461bcd60e51b81526004016105f690611c9e565b5f5b82518110156108a857815f5f85848151811061090b5761090b611b96565b60200260200101516001600160a01b03166001600160a01b031681526020019081526020015f205f866001600160a01b03166001600160a01b031681526020019081526020015f205f8282546109619190611d37565b90915550506001016108ed565b6003546001600160a01b031633146109985760405162461bcd60e51b81526004016105f690611c9e565b5f5b82518110156108a8575f5f5f8584815181106109b8576109b8611b96565b60200260200101516001600160a01b03166001600160a01b031681526020019081526020015f205f866001600160a01b03166001600160a01b031681526020019081526020015f20549050828110610a8057825f5f868581518110610a1f57610a1f611b96565b60200260200101516001600160a01b03166001600160a01b031681526020019081526020015f205f876001600160a01b03166001600160a01b031681526020019081526020015f205f828254610a759190611d24565b90915550610ae29050565b5f5f5f868581518110610a9557610a95611b96565b60200260200101516001600160a01b03166001600160a01b031681526020019081526020015f205f876001600160a01b03166001600160a01b031681526020019081526020015f20819055505b5060010161099a565b6003546001600160a01b03163314610b155760405162461bcd60e51b81526004016105f690611c9e565b600555565b6001600160a01b03821615801590610b3157505f81115b610b7d5760405162461bcd60e51b815260206004820152601760248201527f546f6b656e20616e6420616d6f756e74206572726f722e00000000000000000060448201526064016105f6565b335f908152602081815260408083206001600160a01b0386168452909152902054811115610be35760405162461bcd60e51b815260206004820152601360248201527224b739bab33334b1b4b2b73a1038bab7ba309760691b60448201526064016105f6565b610c037355d398326f99059ff775485246999027b319795533308461129c565b5f606460055483610c149190611cee565b610c1e9190611d05565b60405163140e25ad60e31b81526004810182905290915073fd5840cd36d94d7229439859c0112a4185bc02559063a0712d68906024016020604051808303815f875af1158015610c70573d5f5f3e3d5ffd5b505050506040513d601f19601f82011682018060405250810190610c949190611cc3565b15610cd55760405162461bcd60e51b81526020600482015260116024820152701591539554d7d352539517d19052531151607a1b60448201526064016105f6565b6040516370a0823160e01b81523060048201525f9073fd5840cd36d94d7229439859c0112a4185bc0255906370a0823190602401602060405180830381865afa158015610d24573d5f5f3e3d5ffd5b505050506040513d601f19601f82011682018060405250810190610d489190611cc3565b600454909150610d779073fd5840cd36d94d7229439859c0112a4185bc0255906001600160a01b031683611186565b610d9f7355d398326f99059ff775485246999027b319795585610d9a8587611d24565b6113bf565b6040516370a0823160e01b81523060048201525f906001600160a01b038616906370a0823190602401602060405180830381865afa158015610de3573d5f5f3e3d5ffd5b505050506040513d601f19601f82011682018060405250810190610e079190611cc3565b90508015610e1a57610e1a853383611186565b335f908152602081815260408083206001600160a01b0389168452909152902054610e46908590611d24565b505050505050565b610e56611534565b6001600160a01b038116610e7f57604051631e4fbdf760e01b81525f60048201526024016105f6565b610e888161158f565b50565b5f610e946115ff565b805490915060ff600160401b820416159067ffffffffffffffff165f81158015610ebb5750825b90505f8267ffffffffffffffff166001148015610ed75750303b155b905081158015610ee5575080155b15610f035760405163f92ee8a960e01b815260040160405180910390fd5b845467ffffffffffffffff191660011785558315610f2d57845460ff60401b1916600160401b1785555b610f3633611629565b600180546001600160a01b03808c166001600160a01b031992831617909255600280548b8416908316179055600480548a84169083161790556003805492891692909116919091179055600580558315610fca57845460ff60401b19168555604051600181527fc7f505b2f371ae2175ee4913f4499e1f2633a7b5936321eed1cdaeb6115181d29060200160405180910390a15b505050505050505050565b306001600160a01b037f000000000000000000000000000000000000000000000000000000000000000016148061105b57507f00000000000000000000000000000000000000000000000000000000000000006001600160a01b031661104f5f516020611dbb5f395f51905f52546001600160a01b031690565b6001600160a01b031614155b156108bf5760405163703e46dd60e11b815260040160405180910390fd5b610e88611534565b816001600160a01b03166352d1902d6040518163ffffffff1660e01b8152600401602060405180830381865afa9250505080156110db575060408051601f3d908101601f191682019092526110d891810190611cc3565b60015b61110357604051634c9c8ce360e01b81526001600160a01b03831660048201526024016105f6565b5f516020611dbb5f395f51905f52811461113357604051632a87526960e21b8152600481018290526024016105f6565b61060a838361163a565b306001600160a01b037f000000000000000000000000000000000000000000000000000000000000000016146108bf5760405163703e46dd60e11b815260040160405180910390fd5b604080516001600160a01b038481166024830152604480830185905283518084039091018152606490920183526020820180516001600160e01b031663a9059cbb60e01b17905291515f928392908716916111e19190611d4a565b5f604051808303815f865af19150503d805f811461121a576040519150601f19603f3d011682016040523d82523d5f602084013e61121f565b606091505b50915091508180156112495750805115806112495750808060200190518101906112499190611d60565b6112955760405162461bcd60e51b815260206004820152601f60248201527f5472616e7366657248656c7065723a205452414e534645525f4641494c45440060448201526064016105f6565b5050505050565b604080516001600160a01b0385811660248301528481166044830152606480830185905283518084039091018152608490920183526020820180516001600160e01b03166323b872dd60e01b17905291515f928392908816916112ff9190611d4a565b5f604051808303815f865af19150503d805f8114611338576040519150601f19603f3d011682016040523d82523d5f602084013e61133d565b606091505b50915091508180156113675750805115806113675750808060200190518101906113679190611d60565b610e465760405162461bcd60e51b8152602060048201526024808201527f5472616e7366657248656c7065723a205452414e534645525f46524f4d5f46416044820152631253115160e21b60648201526084016105f6565b6040805160028082526060820183525f9260208301908036833701905050905083815f815181106113f2576113f2611b96565b60200260200101906001600160a01b031690816001600160a01b031681525050828160018151811061142657611426611b96565b6001600160a01b03928316602091820292909201015260405163095ea7b360e01b81527310ed43c718714eb63d5aa57b78b54704e256024e6004820152602481018490529085169063095ea7b3906044016020604051808303815f875af1158015611493573d5f5f3e3d5ffd5b505050506040513d601f19601f820116820180604052508101906114b79190611d60565b507310ed43c718714eb63d5aa57b78b54704e256024e635c11d795835f84306114e142601e611d37565b6040518663ffffffff1660e01b8152600401611501959493929190611d7f565b5f604051808303815f87803b158015611518575f5ffd5b505af115801561152a573d5f5f3e3d5ffd5b5050505050505050565b336115667f9016d09d72d40fdae2fd8ceac6b6234c7706214fd39c1cd1e609a0528c199300546001600160a01b031690565b6001600160a01b0316146108bf5760405163118cdaa760e01b81523360048201526024016105f6565b7f9016d09d72d40fdae2fd8ceac6b6234c7706214fd39c1cd1e609a0528c19930080546001600160a01b031981166001600160a01b03848116918217845560405192169182907f8be0079c531659141344cd1fd0a4f28419497f9722a3daafe3b4186f6b6457e0905f90a3505050565b5f807ff0c57e16840df040f15088dc2f81fe391c3923bec73e23a9662efc9c229c6a005b92915050565b61163161168f565b610e88816116b4565b611643826116bc565b6040516001600160a01b038316907fbc7cd75a20ee27fd9adebab32041f755214dbc6bffa90cc0225b39da2e5c2d3b905f90a28051156116875761060a828261171f565b6105ad6117bf565b6116976117de565b6108bf57604051631afcd79f60e31b815260040160405180910390fd5b610e5661168f565b806001600160a01b03163b5f036116f157604051634c9c8ce360e01b81526001600160a01b03821660048201526024016105f6565b5f516020611dbb5f395f51905f5280546001600160a01b0319166001600160a01b0392909216919091179055565b60605f61172c84846117f7565b905080801561174d57505f3d118061174d57505f846001600160a01b03163b115b156117625761175a61180a565b915050611623565b801561178c57604051639996b31560e01b81526001600160a01b03851660048201526024016105f6565b3d1561179f5761179a611823565b6117b8565b60405163d6bda27560e01b815260040160405180910390fd5b5092915050565b34156108bf5760405163b398979f60e01b815260040160405180910390fd5b5f6117e76115ff565b54600160401b900460ff16919050565b5f5f5f835160208501865af49392505050565b6040513d81523d5f602083013e3d602001810160405290565b6040513d5f823e3d81fd5b80356001600160a01b0381168114611844575f5ffd5b919050565b5f5f5f6060848603121561185b575f5ffd5b6118648461182e565b92506118726020850161182e565b929592945050506040919091013590565b634e487b7160e01b5f52604160045260245ffd5b604051601f8201601f1916810167ffffffffffffffff811182821017156118c0576118c0611883565b604052919050565b5f5f604083850312156118d9575f5ffd5b6118e28361182e565b9150602083013567ffffffffffffffff8111156118fd575f5ffd5b8301601f8101851361190d575f5ffd5b803567ffffffffffffffff81111561192757611927611883565b61193a601f8201601f1916602001611897565b81815286602083850101111561194e575f5ffd5b816020840160208301375f602083830101528093505050509250929050565b5f5f5f6060848603121561197f575f5ffd5b6119888461182e565b92506020840135915061199d6040850161182e565b90509250925092565b5f602082840312156119b6575f5ffd5b5035919050565b5f67ffffffffffffffff8211156119d6576119d6611883565b5060051b60200190565b5f5f5f606084860312156119f2575f5ffd5b6119fb8461182e565b9250602084013567ffffffffffffffff811115611a16575f5ffd5b8401601f81018613611a26575f5ffd5b8035611a39611a34826119bd565b611897565b8082825260208201915060208360051b850101925088831115611a5a575f5ffd5b6020840193505b82841015611a8357611a728461182e565b825260209384019390910190611a61565b959895975050505060409390930135925050565b602081525f82518060208401528060208501604085015e5f604082850101526040601f19601f83011684010191505092915050565b5f5f60408385031215611add575f5ffd5b611ae68361182e565b9150611af46020840161182e565b90509250929050565b5f5f60408385031215611b0e575f5ffd5b611b178361182e565b946020939093013593505050565b5f60208284031215611b35575f5ffd5b611b3e8261182e565b9392505050565b5f5f5f5f60808587031215611b58575f5ffd5b611b618561182e565b9350611b6f6020860161182e565b9250611b7d6040860161182e565b9150611b8b6060860161182e565b905092959194509250565b634e487b7160e01b5f52603260045260245ffd5b5f8151808452602084019350602083015f5b82811015611be35781516001600160a01b0316865260209586019590910190600101611bbc565b5093949350505050565b828152604060208201525f611c056040830184611baa565b949350505050565b5f60208284031215611c1d575f5ffd5b815167ffffffffffffffff811115611c33575f5ffd5b8201601f81018413611c43575f5ffd5b8051611c51611a34826119bd565b8082825260208201915060208360051b850101925086831115611c72575f5ffd5b6020840193505b82841015611c94578351825260209384019390910190611c79565b9695505050505050565b6020808252600b908201526a2737ba103832b936b4ba1760a91b604082015260600190565b5f60208284031215611cd3575f5ffd5b5051919050565b634e487b7160e01b5f52601160045260245ffd5b808202811582820484141761162357611623611cda565b5f82611d1f57634e487b7160e01b5f52601260045260245ffd5b500490565b8181038181111561162357611623611cda565b8082018082111561162357611623611cda565b5f82518060208501845e5f920191825250919050565b5f60208284031215611d70575f5ffd5b81518015158114611b3e575f5ffd5b85815284602082015260a060408201525f611d9d60a0830186611baa565b6001600160a01b039490941660608301525060800152939250505056fe360894a13ba1a3210667c828492db98dca3e2076cc3735a920a3ca505d382bbca264697066735822122008cbe2a60491eeee2aa3b10757938affbc7656fc743105880d7b0987b7306ace64736f6c634300081e0033","linkReferences":{}},"methodIdentifiers":{"UPGRADE_INTERFACE_VERSION()":"ad3cb1cc","USDT()":"c54e44eb","VENUS()":"1a78ccc1","addAvailableLimit(address,address[],uint256)":"892231c8","admin()":"f851a440","availableLimit(address,address)":"c213b3b3","buy(address,uint256)":"cce7ec13","emergencyWithdraw(address,uint256,address)":"551512de","getAmountOut(address,address,uint256)":"4aa06652","initialize(address,address,address,address)":"f8c8765e","leo()":"42728ffd","lex()":"7d0a1518","owner()":"8da5cb5b","pancakeRouter()":"c21ebd07","proxiableUUID()":"52d1902d","renounceOwnership()":"715018a6","sellSubCoin(uint256)":"64fe9f1b","setTaxRate(uint256)":"c6d69a30","subAvailableLimit(address,address[],uint256)":"ab08b66e","taxRate()":"771a3a1d","transferOwnership(address)":"f2fde38b","upgradeToAndCall(address,bytes)":"4f1ef286","wallet()":"521eb273"},"id":49}