{"abi":[{"type":"function","name":"UPGRADE_INTERFACE_VERSION","inputs":[],"outputs":[{"name":"","type":"string","internalType":"string"}],"stateMutability":"view"},{"type":"function","name":"USDT","inputs":[],"outputs":[{"name":"","type":"address","internalType":"address"}],"stateMutability":"view"},{"type":"function","name":"VENUS","inputs":[],"outputs":[{"name":"","type":"address","internalType":"address"}],"stateMutability":"view"},{"type":"function","name":"addAvailableLimit","inputs":[{"name":"token","type":"address","internalType":"address"},{"name":"users","type":"address[]","internalType":"address[]"},{"name":"amountUsdt","type":"uint256","internalType":"uint256"}],"outputs":[],"stateMutability":"nonpayable"},{"type":"function","name":"admin","inputs":[],"outputs":[{"name":"","type":"address","internalType":"address"}],"stateMutability":"view"},{"type":"function","name":"availableLimit","inputs":[{"name":"","type":"address","internalType":"address"},{"name":"","type":"address","internalType":"address"}],"outputs":[{"name":"","type":"uint256","internalType":"uint256"}],"stateMutability":"view"},{"type":"function","name":"buy","inputs":[{"name":"token","type":"address","internalType":"address"},{"name":"amountUsdt","type":"uint256","internalType":"uint256"}],"outputs":[],"stateMutability":"nonpayable"},{"type":"function","name":"emergencyWithdraw","inputs":[{"name":"token","type":"address","internalType":"address"},{"name":"amount","type":"uint256","internalType":"uint256"},{"name":"to","type":"address","internalType":"address"}],"outputs":[],"stateMutability":"nonpayable"},{"type":"function","name":"getAmountOut","inputs":[{"name":"fromToken","type":"address","internalType":"address"},{"name":"toToken","type":"address","internalType":"address"},{"name":"fromAmount","type":"uint256","internalType":"uint256"}],"outputs":[{"name":"","type":"uint256","internalType":"uint256"}],"stateMutability":"view"},{"type":"function","name":"initialize","inputs":[{"name":"_lex","type":"address","internalType":"address"},{"name":"_leo","type":"address","internalType":"address"},{"name":"_USDT","type":"address","internalType":"address"},{"name":"_wallet","type":"address","internalType":"address"},{"name":"_admin","type":"address","internalType":"address"}],"outputs":[],"stateMutability":"nonpayable"},{"type":"function","name":"leo","inputs":[],"outputs":[{"name":"","type":"address","internalType":"address"}],"stateMutability":"view"},{"type":"function","name":"lex","inputs":[],"outputs":[{"name":"","type":"address","internalType":"address"}],"stateMutability":"view"},{"type":"function","name":"owner","inputs":[],"outputs":[{"name":"","type":"address","internalType":"address"}],"stateMutability":"view"},{"type":"function","name":"pancakeRouter","inputs":[],"outputs":[{"name":"","type":"address","internalType":"contract IUniswapV2Router02"}],"stateMutability":"view"},{"type":"function","name":"proxiableUUID","inputs":[],"outputs":[{"name":"","type":"bytes32","internalType":"bytes32"}],"stateMutability":"view"},{"type":"function","name":"renounceOwnership","inputs":[],"outputs":[],"stateMutability":"nonpayable"},{"type":"function","name":"sellSubCoin","inputs":[{"name":"amountLeo","type":"uint256","internalType":"uint256"}],"outputs":[],"stateMutability":"nonpayable"},{"type":"function","name":"setTaxRate","inputs":[{"name":"_taxRate","type":"uint256","internalType":"uint256"}],"outputs":[],"stateMutability":"nonpayable"},{"type":"function","name":"subAvailableLimit","inputs":[{"name":"token","type":"address","internalType":"address"},{"name":"users","type":"address[]","internalType":"address[]"},{"name":"amountUsdt","type":"uint256","internalType":"uint256"}],"outputs":[],"stateMutability":"nonpayable"},{"type":"function","name":"taxRate","inputs":[],"outputs":[{"name":"","type":"uint256","internalType":"uint256"}],"stateMutability":"view"},{"type":"function","name":"transferOwnership","inputs":[{"name":"newOwner","type":"address","internalType":"address"}],"outputs":[],"stateMutability":"nonpayable"},{"type":"function","name":"upgradeToAndCall","inputs":[{"name":"newImplementation","type":"address","internalType":"address"},{"name":"data","type":"bytes","internalType":"bytes"}],"outputs":[],"stateMutability":"payable"},{"type":"function","name":"wallet","inputs":[],"outputs":[{"name":"","type":"address","internalType":"address"}],"stateMutability":"view"},{"type":"event","name":"Initialized","inputs":[{"name":"version","type":"uint64","indexed":false,"internalType":"uint64"}],"anonymous":false},{"type":"event","name":"OwnershipTransferred","inputs":[{"name":"previousOwner","type":"address","indexed":true,"internalType":"address"},{"name":"newOwner","type":"address","indexed":true,"internalType":"address"}],"anonymous":false},{"type":"event","name":"Upgraded","inputs":[{"name":"implementation","type":"address","indexed":true,"internalType":"address"}],"anonymous":false},{"type":"error","name":"AddressEmptyCode","inputs":[{"name":"target","type":"address","internalType":"address"}]},{"type":"error","name":"ERC1967InvalidImplementation","inputs":[{"name":"implementation","type":"address","internalType":"address"}]},{"type":"error","name":"ERC1967NonPayable","inputs":[]},{"type":"error","name":"FailedCall","inputs":[]},{"type":"error","name":"InvalidInitialization","inputs":[]},{"type":"error","name":"NotInitializing","inputs":[]},{"type":"error","name":"OwnableInvalidOwner","inputs":[{"name":"owner","type":"address","internalType":"address"}]},{"type":"error","name":"OwnableUnauthorizedAccount","inputs":[{"name":"account","type":"address","internalType":"address"}]},{"type":"error","name":"UUPSUnauthorizedCallContext","inputs":[]},{"type":"error","name":"UUPSUnsupportedProxiableUUID","inputs":[{"name":"slot","type":"bytes32","internalType":"bytes32"}]}],"bytecode":{"object":"0x60a080604052346029573060805261160d908161002e823960805181818161086e01526109620152f35b5f80fdfe60806040526004361015610011575f80fd5b5f3560e01c80631459457a14610c9e5780631a78ccc114610c7057806342728ffd14610c485780634aa0665214610ade5780634f1ef286146108ea578063521eb273146108c257806352d1902d1461085c578063551512de1461081a57806364fe9f1b146106d9578063715018a614610672578063771a3a1d146106555780637d0a15181461062d578063892231c8146105a25780638da5cb5b1461056e578063ab08b66e1461048c578063ad3cb1cc1461042e578063c213b3b3146103de578063c21ebd07146103b0578063c54e44eb14610389578063c6d69a301461035b578063cce7ec131461016d578063f2fde38b146101425763f851a44014610116575f80fd5b3461013e575f36600319011261013e576004546040516001600160a01b039091168152602090f35b5f80fd5b3461013e57602036600319011261013e5761016b61015e610ea2565b61016661148d565b6110d2565b005b3461013e57604036600319011261013e57610186610ea2565b602435906001600160a01b0381169081151580610352575b1561030d57335f52600160205260405f20825f526020528260405f2054106102d2575f546101da908490309033906001600160a01b0316611252565b61022b60646101eb600654866110b2565b5f54600554929091049161020d9183916001600160a01b03908116911661118a565b5f546001600160a01b031690839061022590876110c5565b91611336565b6040516370a0823160e01b8152306004820152602081602481865afa9081156102c7575f91610295575b5080610283575b5050335f52600160205260405f20905f5260205261027f60405f209182546110c5565b9055005b61028e91339061118a565b828061025c565b90506020813d6020116102bf575b816102b060209383610ee4565b8101031261013e575184610255565b3d91506102a3565b6040513d5f823e3d90fd5b60405162461bcd60e51b815260206004820152601360248201527224b739bab33334b1b4b2b73a1038bab7ba309760691b6044820152606490fd5b60405162461bcd60e51b815260206004820152601760248201527f546f6b656e20616e6420616d6f756e74206572726f722e0000000000000000006044820152606490fd5b5082151561019e565b3461013e57602036600319011261013e5761038160018060a01b03600454163314611078565b600435600655005b3461013e575f36600319011261013e575f546040516001600160a01b039091168152602090f35b3461013e575f36600319011261013e5760206040517310ed43c718714eb63d5aa57b78b54704e256024e8152f35b3461013e57604036600319011261013e576103f7610ea2565b6103ff610eb8565b6001600160a01b039182165f908152600160209081526040808320949093168252928352819020549051908152f35b3461013e575f36600319011261013e57604080519061044d8183610ee4565b600582526020820191640352e302e360dc1b83528151928391602083525180918160208501528484015e5f828201840152601f01601f19168101030190f35b3461013e5761049a36610f4e565b6104b260018060a09594951b03600454163314611078565b5f5b835181101561016b576001906001600160a01b036104d28287611028565b51165f528160205260405f20828060a01b0385165f526020528260405f205410155f1461053a57818060a01b036105098287611028565b51165f528160205260405f20828060a01b0385165f5260205260405f206105318482546110c5565b90555b016104b4565b818060a01b0361054a8287611028565b51165f528160205260405f20828060a01b0385165f526020525f6040812055610534565b3461013e575f36600319011261013e575f5160206115785f395f51905f52546040516001600160a01b039091168152602090f35b3461013e576105b036610f4e565b916105c660018060a01b03600454163314611078565b5f5b825181101561016b576001600160a01b036105e38285611028565b51165f52600160205260405f2060018060a01b0383165f5260205260405f209081548581018091116106195760019255016105c8565b634e487b7160e01b5f52601160045260245ffd5b3461013e575f36600319011261013e576002546040516001600160a01b039091168152602090f35b3461013e575f36600319011261013e576020600654604051908152f35b3461013e575f36600319011261013e5761068a61148d565b5f5160206115785f395f51905f5280546001600160a01b031981169091555f906001600160a01b03167f8be0079c531659141344cd1fd0a4f28419497f9722a3daafe3b4186f6b6457e08280a3005b3461013e57602036600319011261013e5760043580156107e55760035461072a9190610713908290309033906001600160a01b0316611252565b6003545f546001600160a01b039081169116611336565b5f546040516370a0823160e01b81523060048201526001600160a01b0390911690602081602481855afa9081156102c7575f916107b3575b508061076a57005b6107ab61016b9261079a6064610782600654866110b2565b6005549190049283916001600160a01b03169061118a565b5f546001600160a01b0316926110c5565b90339061118a565b90506020813d6020116107dd575b816107ce60209383610ee4565b8101031261013e575182610762565b3d91506107c1565b60405162461bcd60e51b815260206004820152600d60248201526c22b93937b91030b6b7bab73a1760991b6044820152606490fd5b3461013e57606036600319011261013e5761016b610836610ea2565b61083e610ece565b61085360018060a01b03600454163314611078565b6024359161118a565b3461013e575f36600319011261013e577f00000000000000000000000000000000000000000000000000000000000000006001600160a01b031630036108b35760206040515f5160206115985f395f51905f528152f35b63703e46dd60e11b5f5260045ffd5b3461013e575f36600319011261013e576005546040516001600160a01b039091168152602090f35b604036600319011261013e576108fe610ea2565b6024359067ffffffffffffffff821161013e573660238301121561013e57816004013561092a81610f1a565b926109386040519485610ee4565b818452366024838301011161013e57815f9260246020930183870137840101526001600160a01b037f000000000000000000000000000000000000000000000000000000000000000016308114908115610abc575b506108b35761099a61148d565b6040516352d1902d60e01b81526001600160a01b0382169290602081600481875afa5f9181610a88575b506109dc5783634c9c8ce360e01b5f5260045260245ffd5b805f5160206115985f395f51905f52859203610a765750823b15610a64575f5160206115985f395f51905f5280546001600160a01b031916821790557fbc7cd75a20ee27fd9adebab32041f755214dbc6bffa90cc0225b39da2e5c2d3b5f80a2805115610a4c5761016b916114eb565b505034610a5557005b63b398979f60e01b5f5260045ffd5b634c9c8ce360e01b5f5260045260245ffd5b632a87526960e21b5f5260045260245ffd5b9091506020813d602011610ab4575b81610aa460209383610ee4565b8101031261013e575190856109c4565b3d9150610a97565b5f5160206115985f395f51905f52546001600160a01b0316141590508361098d565b3461013e57606036600319011261013e57610b765f610afb610ea2565b610b03610eb8565b60405191610b12606084610ee4565b600283526040366020850137610b2783610ff7565b6001600160a01b039091169052610b3d82611018565b6001600160a01b0390911690526040805163d06ca61f60e01b81526044803560048301526024820192909252938492839283019061103c565b03817310ed43c718714eb63d5aa57b78b54704e256024e5afa9081156102c7575f91610bb1575b6020610ba883611018565b51604051908152f35b90503d805f833e610bc28183610ee4565b81019060208183031261013e5780519067ffffffffffffffff821161013e57019080601f8301121561013e578151610bf981610f36565b90610c076040519283610ee4565b80825260208083019160051b85010192831161013e576020809401905b838210610c39575050610ba891509150610b9d565b81518152908401908401610c24565b3461013e575f36600319011261013e576003546040516001600160a01b039091168152602090f35b3461013e575f36600319011261013e57602060405173fd5840cd36d94d7229439859c0112a4185bc02558152f35b3461013e5760a036600319011261013e57610cb7610ea2565b610cbf610eb8565b610cc7610ece565b6064356001600160a01b038116919082900361013e576084356001600160a01b038116939084900361013e575f5160206115b85f395f51905f52549460ff8660401c16159567ffffffffffffffff811680159081610e9a575b6001149081610e90575b159081610e87575b50610e785767ffffffffffffffff1981166001175f5160206115b85f395f51905f525586610e4c575b50610d646114c0565b610d6c6114c0565b610d75336110d2565b60018060a01b03166001600160601b0360a01b600254161760025560018060a01b03166001600160601b0360a01b600354161760035560018060a01b03166001600160601b0360a01b5f5416175f556001600160601b0360a01b60055416176005556001600160601b0360a01b60045416176004556005600655610df557005b68ff0000000000000000195f5160206115b85f395f51905f5254165f5160206115b85f395f51905f52557fc7f505b2f371ae2175ee4913f4499e1f2633a7b5936321eed1cdaeb6115181d2602060405160018152a1005b68ffffffffffffffffff191668010000000000000001175f5160206115b85f395f51905f525586610d5b565b63f92ee8a960e01b5f5260045ffd5b90501588610d32565b303b159150610d2a565b889150610d20565b600435906001600160a01b038216820361013e57565b602435906001600160a01b038216820361013e57565b604435906001600160a01b038216820361013e57565b90601f8019910116810190811067ffffffffffffffff821117610f0657604052565b634e487b7160e01b5f52604160045260245ffd5b67ffffffffffffffff8111610f0657601f01601f191660200190565b67ffffffffffffffff8111610f065760051b60200190565b90606060031983011261013e576004356001600160a01b038116810361013e57916024359067ffffffffffffffff821161013e578060238301121561013e57816004013590610f9c82610f36565b92610faa6040519485610ee4565b8284526024602085019360051b82010191821161013e57602401915b818310610fd7575050509060443590565b82356001600160a01b038116810361013e57815260209283019201610fc6565b8051156110045760200190565b634e487b7160e01b5f52603260045260245ffd5b8051600110156110045760400190565b80518210156110045760209160051b010190565b90602080835192838152019201905f5b8181106110595750505090565b82516001600160a01b031684526020938401939092019160010161104c565b1561107f57565b60405162461bcd60e51b815260206004820152600b60248201526a2737ba103832b936b4ba1760a91b6044820152606490fd5b8181029291811591840414171561061957565b9190820391821161061957565b6001600160a01b03168015611130575f5160206115785f395f51905f5280546001600160a01b0319811683179091556001600160a01b03167f8be0079c531659141344cd1fd0a4f28419497f9722a3daafe3b4186f6b6457e05f80a3565b631e4fbdf760e01b5f525f60045260245ffd5b3d1561116d573d9061115482610f1a565b916111626040519384610ee4565b82523d5f602084013e565b606090565b9081602091031261013e5751801515810361013e5790565b5f929183809360405190602082019363a9059cbb60e01b855260018060a01b031660248301526044820152604481526111c4606482610ee4565b51925af16111d0611143565b81611223575b50156111de57565b60405162461bcd60e51b815260206004820152601f60248201527f5472616e7366657248656c7065723a205452414e534645525f4641494c4544006044820152606490fd5b8051801592508215611238575b50505f6111d6565b61124b9250602080918301019101611172565b5f80611230565b6040516323b872dd60e01b602082019081526001600160a01b0393841660248301529390921660448301526064808301949094529281525f9283929091839061129c608482610ee4565b51925af16112a8611143565b81611307575b50156112b657565b60405162461bcd60e51b8152602060048201526024808201527f5472616e7366657248656c7065723a205452414e534645525f46524f4d5f46416044820152631253115160e21b6064820152608490fd5b805180159250821561131c575b50505f6112ae565b61132f9250602080918301019101611172565b5f80611314565b60205f9160405193611349606086610ee4565b600285526040368487013761135d85610ff7565b6001600160a01b039092169182905261137585611018565b6001600160a01b03909116905260405163095ea7b360e01b81527310ed43c718714eb63d5aa57b78b54704e256024e60048201526024810186905292839160449183915af180156102c757611460575b50601e420190814211610619577310ed43c718714eb63d5aa57b78b54704e256024e3b1561013e57611421925f926040519485938493635c11d79560e01b8552600485015285602485015260a0604485015260a484019061103c565b9030606484015260848301520381837310ed43c718714eb63d5aa57b78b54704e256024e5af180156102c7576114545750565b5f61145e91610ee4565b565b6114819060203d602011611486575b6114798183610ee4565b810190611172565b6113c5565b503d61146f565b5f5160206115785f395f51905f52546001600160a01b031633036114ad57565b63118cdaa760e01b5f523360045260245ffd5b60ff5f5160206115b85f395f51905f525460401c16156114dc57565b631afcd79f60e31b5f5260045ffd5b905f8091602081519101845af48080611564575b1561151f5750506040513d81523d5f602083013e60203d82010160405290565b1561154457639996b31560e01b5f9081526001600160a01b0391909116600452602490fd5b3d15611555576040513d5f823e3d90fd5b63d6bda27560e01b5f5260045ffd5b503d1515806114ff5750813b15156114ff56fe9016d09d72d40fdae2fd8ceac6b6234c7706214fd39c1cd1e609a0528c199300360894a13ba1a3210667c828492db98dca3e2076cc3735a920a3ca505d382bbcf0c57e16840df040f15088dc2f81fe391c3923bec73e23a9662efc9c229c6a00a2646970667358221220a679e5a93ad7a074561d34dc3d9224039680ff9890b68cce3e7f8eda38e8a1d664736f6c634300081e0033","linkReferences":{}},"methodIdentifiers":{"UPGRADE_INTERFACE_VERSION()":"ad3cb1cc","USDT()":"c54e44eb","VENUS()":"1a78ccc1","addAvailableLimit(address,address[],uint256)":"892231c8","admin()":"f851a440","availableLimit(address,address)":"c213b3b3","buy(address,uint256)":"cce7ec13","emergencyWithdraw(address,uint256,address)":"551512de","getAmountOut(address,address,uint256)":"4aa06652","initialize(address,address,address,address,address)":"1459457a","leo()":"42728ffd","lex()":"7d0a1518","owner()":"8da5cb5b","pancakeRouter()":"c21ebd07","proxiableUUID()":"52d1902d","renounceOwnership()":"715018a6","sellSubCoin(uint256)":"64fe9f1b","setTaxRate(uint256)":"c6d69a30","subAvailableLimit(address,address[],uint256)":"ab08b66e","taxRate()":"771a3a1d","transferOwnership(address)":"f2fde38b","upgradeToAndCall(address,bytes)":"4f1ef286","wallet()":"521eb273"},"id":51}