{"abi":[{"type":"function","name":"UPGRADE_INTERFACE_VERSION","inputs":[],"outputs":[{"name":"","type":"string","internalType":"string"}],"stateMutability":"view"},{"type":"function","name":"USDT","inputs":[],"outputs":[{"name":"","type":"address","internalType":"address"}],"stateMutability":"view"},{"type":"function","name":"VENUS","inputs":[],"outputs":[{"name":"","type":"address","internalType":"address"}],"stateMutability":"view"},{"type":"function","name":"addAvailableLimit","inputs":[{"name":"token","type":"address","internalType":"address"},{"name":"users","type":"address[]","internalType":"address[]"},{"name":"amountUsdt","type":"uint256","internalType":"uint256"}],"outputs":[],"stateMutability":"nonpayable"},{"type":"function","name":"admin","inputs":[],"outputs":[{"name":"","type":"address","internalType":"address"}],"stateMutability":"view"},{"type":"function","name":"availableLimit","inputs":[{"name":"","type":"address","internalType":"address"},{"name":"","type":"address","internalType":"address"}],"outputs":[{"name":"","type":"uint256","internalType":"uint256"}],"stateMutability":"view"},{"type":"function","name":"buy","inputs":[{"name":"token","type":"address","internalType":"address"},{"name":"amountUsdt","type":"uint256","internalType":"uint256"}],"outputs":[],"stateMutability":"nonpayable"},{"type":"function","name":"emergencyWithdraw","inputs":[{"name":"token","type":"address","internalType":"address"},{"name":"amount","type":"uint256","internalType":"uint256"},{"name":"to","type":"address","internalType":"address"}],"outputs":[],"stateMutability":"nonpayable"},{"type":"function","name":"getAmountOut","inputs":[{"name":"fromToken","type":"address","internalType":"address"},{"name":"toToken","type":"address","internalType":"address"},{"name":"fromAmount","type":"uint256","internalType":"uint256"}],"outputs":[{"name":"","type":"uint256","internalType":"uint256"}],"stateMutability":"view"},{"type":"function","name":"initialize","inputs":[{"name":"_lex","type":"address","internalType":"address"},{"name":"_leo","type":"address","internalType":"address"},{"name":"_USDT","type":"address","internalType":"address"},{"name":"_wallet","type":"address","internalType":"address"},{"name":"_admin","type":"address","internalType":"address"}],"outputs":[],"stateMutability":"nonpayable"},{"type":"function","name":"leo","inputs":[],"outputs":[{"name":"","type":"address","internalType":"address"}],"stateMutability":"view"},{"type":"function","name":"lex","inputs":[],"outputs":[{"name":"","type":"address","internalType":"address"}],"stateMutability":"view"},{"type":"function","name":"owner","inputs":[],"outputs":[{"name":"","type":"address","internalType":"address"}],"stateMutability":"view"},{"type":"function","name":"pancakeRouter","inputs":[],"outputs":[{"name":"","type":"address","internalType":"contract IUniswapV2Router02"}],"stateMutability":"view"},{"type":"function","name":"proxiableUUID","inputs":[],"outputs":[{"name":"","type":"bytes32","internalType":"bytes32"}],"stateMutability":"view"},{"type":"function","name":"renounceOwnership","inputs":[],"outputs":[],"stateMutability":"nonpayable"},{"type":"function","name":"sellSubCoin","inputs":[{"name":"amountLeo","type":"uint256","internalType":"uint256"}],"outputs":[],"stateMutability":"nonpayable"},{"type":"function","name":"setTaxRate","inputs":[{"name":"_taxRate","type":"uint256","internalType":"uint256"}],"outputs":[],"stateMutability":"nonpayable"},{"type":"function","name":"subAvailableLimit","inputs":[{"name":"token","type":"address","internalType":"address"},{"name":"users","type":"address[]","internalType":"address[]"},{"name":"amountUsdt","type":"uint256","internalType":"uint256"}],"outputs":[],"stateMutability":"nonpayable"},{"type":"function","name":"taxRate","inputs":[],"outputs":[{"name":"","type":"uint256","internalType":"uint256"}],"stateMutability":"view"},{"type":"function","name":"transferOwnership","inputs":[{"name":"newOwner","type":"address","internalType":"address"}],"outputs":[],"stateMutability":"nonpayable"},{"type":"function","name":"upgradeToAndCall","inputs":[{"name":"newImplementation","type":"address","internalType":"address"},{"name":"data","type":"bytes","internalType":"bytes"}],"outputs":[],"stateMutability":"payable"},{"type":"function","name":"wallet","inputs":[],"outputs":[{"name":"","type":"address","internalType":"address"}],"stateMutability":"view"},{"type":"event","name":"Initialized","inputs":[{"name":"version","type":"uint64","indexed":false,"internalType":"uint64"}],"anonymous":false},{"type":"event","name":"OwnershipTransferred","inputs":[{"name":"previousOwner","type":"address","indexed":true,"internalType":"address"},{"name":"newOwner","type":"address","indexed":true,"internalType":"address"}],"anonymous":false},{"type":"event","name":"Upgraded","inputs":[{"name":"implementation","type":"address","indexed":true,"internalType":"address"}],"anonymous":false},{"type":"error","name":"AddressEmptyCode","inputs":[{"name":"target","type":"address","internalType":"address"}]},{"type":"error","name":"ERC1967InvalidImplementation","inputs":[{"name":"implementation","type":"address","internalType":"address"}]},{"type":"error","name":"ERC1967NonPayable","inputs":[]},{"type":"error","name":"FailedCall","inputs":[]},{"type":"error","name":"InvalidInitialization","inputs":[]},{"type":"error","name":"NotInitializing","inputs":[]},{"type":"error","name":"OwnableInvalidOwner","inputs":[{"name":"owner","type":"address","internalType":"address"}]},{"type":"error","name":"OwnableUnauthorizedAccount","inputs":[{"name":"account","type":"address","internalType":"address"}]},{"type":"error","name":"UUPSUnauthorizedCallContext","inputs":[]},{"type":"error","name":"UUPSUnsupportedProxiableUUID","inputs":[{"name":"slot","type":"bytes32","internalType":"bytes32"}]}],"bytecode":{"object":"0x60a0604052306080523480156012575f5ffd5b50608051611dfa6100395f395f8181610ff50152818161101e015261115d0152611dfa5ff3fe60806040526004361061013c575f3560e01c80637d0a1518116100b3578063c21ebd071161006d578063c21ebd07146103aa578063c54e44eb146103d1578063c6d69a30146103ef578063cce7ec131461040e578063f2fde38b1461042d578063f851a4401461044c575f5ffd5b80637d0a15181461029e578063892231c8146102bd5780638da5cb5b146102dc578063ab08b66e14610318578063ad3cb1cc14610337578063c213b3b314610374575f5ffd5b8063521eb27311610104578063521eb2731461020457806352d1902d14610223578063551512de1461023757806364fe9f1b14610256578063715018a614610275578063771a3a1d14610289575f5ffd5b80631459457a146101405780631a78ccc11461016157806342728ffd146101a55780634aa06652146101c45780634f1ef286146101f1575b5f5ffd5b34801561014b575f5ffd5b5061015f61015a366004611823565b61046b565b005b34801561016c575f5ffd5b5061018873fd5840cd36d94d7229439859c0112a4185bc025581565b6040516001600160a01b0390911681526020015b60405180910390f35b3480156101b0575f5ffd5b50600354610188906001600160a01b031681565b3480156101cf575f5ffd5b506101e36101de366004611884565b6105c0565b60405190815260200161019c565b61015f6101ff366004611903565b6106e1565b34801561020f575f5ffd5b50600554610188906001600160a01b031681565b34801561022e575f5ffd5b506101e3610700565b348015610242575f5ffd5b5061015f6102513660046119a8565b61071b565b348015610261575f5ffd5b5061015f6102703660046119e1565b61075e565b348015610280575f5ffd5b5061015f6109dc565b348015610294575f5ffd5b506101e360065481565b3480156102a9575f5ffd5b50600254610188906001600160a01b031681565b3480156102c8575f5ffd5b5061015f6102d7366004611a1b565b6109ef565b3480156102e7575f5ffd5b507f9016d09d72d40fdae2fd8ceac6b6234c7706214fd39c1cd1e609a0528c199300546001600160a01b0316610188565b348015610323575f5ffd5b5061015f610332366004611a1b565b610a9d565b348015610342575f5ffd5b50610367604051806040016040528060058152602001640352e302e360dc1b81525081565b60405161019c9190611ad2565b34801561037f575f5ffd5b506101e361038e366004611b07565b600160209081525f928352604080842090915290825290205481565b3480156103b5575f5ffd5b506101887310ed43c718714eb63d5aa57b78b54704e256024e81565b3480156103dc575f5ffd5b505f54610188906001600160a01b031681565b3480156103fa575f5ffd5b5061015f6104093660046119e1565b610c1d565b348015610419575f5ffd5b5061015f610428366004611b38565b610c4c565b348015610438575f5ffd5b5061015f610447366004611b60565b610f72565b348015610457575f5ffd5b50600454610188906001600160a01b031681565b5f610474610faf565b805490915060ff600160401b820416159067ffffffffffffffff165f8115801561049b5750825b90505f8267ffffffffffffffff1660011480156104b75750303b155b9050811580156104c5575080155b156104e35760405163f92ee8a960e01b815260040160405180910390fd5b845467ffffffffffffffff19166001178555831561050d57845460ff60401b1916600160401b1785555b61051633610fd9565b600280546001600160a01b03199081166001600160a01b038d8116919091179092556003805482168c84161790555f805482168b84161790556005805482168a84161781556004805490921692891692909217905560065583156105b457845460ff60401b19168555604051600181527fc7f505b2f371ae2175ee4913f4499e1f2633a7b5936321eed1cdaeb6115181d29060200160405180910390a15b50505050505050505050565b6040805160028082526060820183525f928392919060208301908036833701905050905084815f815181106105f7576105f7611b80565b60200260200101906001600160a01b031690816001600160a01b031681525050838160018151811061062b5761062b611b80565b6001600160a01b039092166020928302919091019091015260405163d06ca61f60e01b81527310ed43c718714eb63d5aa57b78b54704e256024e9063d06ca61f9061067c9086908590600401611bd7565b5f60405180830381865afa158015610696573d5f5f3e3d5ffd5b505050506040513d5f823e601f3d908101601f191682016040526106bd9190810190611bf7565b6001815181106106cf576106cf611b80565b60200260200101519150509392505050565b6106e9610fea565b6106f28261108e565b6106fc8282611096565b5050565b5f610709611152565b505f516020611da55f395f51905f5290565b6004546001600160a01b0316331461074e5760405162461bcd60e51b815260040161074590611c88565b60405180910390fd5b61075983828461119b565b505050565b5f811161079d5760405162461bcd60e51b815260206004820152600d60248201526c22b93937b91030b6b7bab73a1760991b6044820152606401610745565b6003546107b5906001600160a01b03163330846112b1565b6003545f546107d1916001600160a01b039081169116836113d4565b5f80546040516370a0823160e01b81523060048201526001600160a01b03909116906370a0823190602401602060405180830381865afa158015610817573d5f5f3e3d5ffd5b505050506040513d601f19601f8201168201806040525081019061083b9190611cad565b905080156106fc575f6064600654836108549190611cd8565b61085e9190611cef565b60405163140e25ad60e31b81526004810182905290915073fd5840cd36d94d7229439859c0112a4185bc02559063a0712d68906024016020604051808303815f875af11580156108b0573d5f5f3e3d5ffd5b505050506040513d601f19601f820116820180604052508101906108d49190611cad565b156109155760405162461bcd60e51b81526020600482015260116024820152701591539554d7d352539517d19052531151607a1b6044820152606401610745565b6040516370a0823160e01b81523060048201525f9073fd5840cd36d94d7229439859c0112a4185bc0255906370a0823190602401602060405180830381865afa158015610964573d5f5f3e3d5ffd5b505050506040513d601f19601f820116820180604052508101906109889190611cad565b6005549091506109b79073fd5840cd36d94d7229439859c0112a4185bc0255906001600160a01b03168361119b565b5f546109d6906001600160a01b0316336109d18587611d0e565b61119b565b50505050565b6109e4611549565b6109ed5f6115a4565b565b6004546001600160a01b03163314610a195760405162461bcd60e51b815260040161074590611c88565b5f5b82518110156109d6578160015f858481518110610a3a57610a3a611b80565b60200260200101516001600160a01b03166001600160a01b031681526020019081526020015f205f866001600160a01b03166001600160a01b031681526020019081526020015f205f828254610a909190611d21565b9091555050600101610a1b565b6004546001600160a01b03163314610ac75760405162461bcd60e51b815260040161074590611c88565b5f5b82518110156109d6575f60015f858481518110610ae857610ae8611b80565b60200260200101516001600160a01b03166001600160a01b031681526020019081526020015f205f866001600160a01b03166001600160a01b031681526020019081526020015f20549050828110610bb1578260015f868581518110610b5057610b50611b80565b60200260200101516001600160a01b03166001600160a01b031681526020019081526020015f205f876001600160a01b03166001600160a01b031681526020019081526020015f205f828254610ba69190611d0e565b90915550610c149050565b5f60015f868581518110610bc757610bc7611b80565b60200260200101516001600160a01b03166001600160a01b031681526020019081526020015f205f876001600160a01b03166001600160a01b031681526020019081526020015f20819055505b50600101610ac9565b6004546001600160a01b03163314610c475760405162461bcd60e51b815260040161074590611c88565b600655565b6001600160a01b03821615801590610c6357505f81115b610caf5760405162461bcd60e51b815260206004820152601760248201527f546f6b656e20616e6420616d6f756e74206572726f722e0000000000000000006044820152606401610745565b335f9081526001602090815260408083206001600160a01b0386168452909152902054811115610d175760405162461bcd60e51b815260206004820152601360248201527224b739bab33334b1b4b2b73a1038bab7ba309760691b6044820152606401610745565b5f54610d2e906001600160a01b03163330846112b1565b5f606460065483610d3f9190611cd8565b610d499190611cef565b60405163140e25ad60e31b81526004810182905290915073fd5840cd36d94d7229439859c0112a4185bc02559063a0712d68906024016020604051808303815f875af1158015610d9b573d5f5f3e3d5ffd5b505050506040513d601f19601f82011682018060405250810190610dbf9190611cad565b15610e005760405162461bcd60e51b81526020600482015260116024820152701591539554d7d352539517d19052531151607a1b6044820152606401610745565b6040516370a0823160e01b81523060048201525f9073fd5840cd36d94d7229439859c0112a4185bc0255906370a0823190602401602060405180830381865afa158015610e4f573d5f5f3e3d5ffd5b505050506040513d601f19601f82011682018060405250810190610e739190611cad565b600554909150610ea29073fd5840cd36d94d7229439859c0112a4185bc0255906001600160a01b03168361119b565b5f54610ec1906001600160a01b031685610ebc8587611d0e565b6113d4565b6040516370a0823160e01b81523060048201525f906001600160a01b038616906370a0823190602401602060405180830381865afa158015610f05573d5f5f3e3d5ffd5b505050506040513d601f19601f82011682018060405250810190610f299190611cad565b90508015610f3c57610f3c85338361119b565b335f9081526001602090815260408083206001600160a01b0389168452909152902054610f6a908590611d0e565b505050505050565b610f7a611549565b6001600160a01b038116610fa357604051631e4fbdf760e01b81525f6004820152602401610745565b610fac816115a4565b50565b5f807ff0c57e16840df040f15088dc2f81fe391c3923bec73e23a9662efc9c229c6a005b92915050565b610fe1611614565b610fac81611639565b306001600160a01b037f000000000000000000000000000000000000000000000000000000000000000016148061107057507f00000000000000000000000000000000000000000000000000000000000000006001600160a01b03166110645f516020611da55f395f51905f52546001600160a01b031690565b6001600160a01b031614155b156109ed5760405163703e46dd60e11b815260040160405180910390fd5b610fac611549565b816001600160a01b03166352d1902d6040518163ffffffff1660e01b8152600401602060405180830381865afa9250505080156110f0575060408051601f3d908101601f191682019092526110ed91810190611cad565b60015b61111857604051634c9c8ce360e01b81526001600160a01b0383166004820152602401610745565b5f516020611da55f395f51905f52811461114857604051632a87526960e21b815260048101829052602401610745565b6107598383611641565b306001600160a01b037f000000000000000000000000000000000000000000000000000000000000000016146109ed5760405163703e46dd60e11b815260040160405180910390fd5b604080516001600160a01b038481166024830152604480830185905283518084039091018152606490920183526020820180516001600160e01b031663a9059cbb60e01b17905291515f928392908716916111f69190611d34565b5f604051808303815f865af19150503d805f811461122f576040519150601f19603f3d011682016040523d82523d5f602084013e611234565b606091505b509150915081801561125e57508051158061125e57508080602001905181019061125e9190611d4a565b6112aa5760405162461bcd60e51b815260206004820152601f60248201527f5472616e7366657248656c7065723a205452414e534645525f4641494c4544006044820152606401610745565b5050505050565b604080516001600160a01b0385811660248301528481166044830152606480830185905283518084039091018152608490920183526020820180516001600160e01b03166323b872dd60e01b17905291515f928392908816916113149190611d34565b5f604051808303815f865af19150503d805f811461134d576040519150601f19603f3d011682016040523d82523d5f602084013e611352565b606091505b509150915081801561137c57508051158061137c57508080602001905181019061137c9190611d4a565b610f6a5760405162461bcd60e51b8152602060048201526024808201527f5472616e7366657248656c7065723a205452414e534645525f46524f4d5f46416044820152631253115160e21b6064820152608401610745565b6040805160028082526060820183525f9260208301908036833701905050905083815f8151811061140757611407611b80565b60200260200101906001600160a01b031690816001600160a01b031681525050828160018151811061143b5761143b611b80565b6001600160a01b03928316602091820292909201015260405163095ea7b360e01b81527310ed43c718714eb63d5aa57b78b54704e256024e6004820152602481018490529085169063095ea7b3906044016020604051808303815f875af11580156114a8573d5f5f3e3d5ffd5b505050506040513d601f19601f820116820180604052508101906114cc9190611d4a565b507310ed43c718714eb63d5aa57b78b54704e256024e635c11d795835f84306114f642601e611d21565b6040518663ffffffff1660e01b8152600401611516959493929190611d69565b5f604051808303815f87803b15801561152d575f5ffd5b505af115801561153f573d5f5f3e3d5ffd5b5050505050505050565b3361157b7f9016d09d72d40fdae2fd8ceac6b6234c7706214fd39c1cd1e609a0528c199300546001600160a01b031690565b6001600160a01b0316146109ed5760405163118cdaa760e01b8152336004820152602401610745565b7f9016d09d72d40fdae2fd8ceac6b6234c7706214fd39c1cd1e609a0528c19930080546001600160a01b031981166001600160a01b03848116918217845560405192169182907f8be0079c531659141344cd1fd0a4f28419497f9722a3daafe3b4186f6b6457e0905f90a3505050565b61161c611696565b6109ed57604051631afcd79f60e31b815260040160405180910390fd5b610f7a611614565b61164a826116af565b6040516001600160a01b038316907fbc7cd75a20ee27fd9adebab32041f755214dbc6bffa90cc0225b39da2e5c2d3b905f90a280511561168e576107598282611712565b6106fc6117b2565b5f61169f610faf565b54600160401b900460ff16919050565b806001600160a01b03163b5f036116e457604051634c9c8ce360e01b81526001600160a01b0382166004820152602401610745565b5f516020611da55f395f51905f5280546001600160a01b0319166001600160a01b0392909216919091179055565b60605f61171f84846117d1565b905080801561174057505f3d118061174057505f846001600160a01b03163b115b156117555761174d6117e4565b915050610fd3565b801561177f57604051639996b31560e01b81526001600160a01b0385166004820152602401610745565b3d156117925761178d6117fd565b6117ab565b60405163d6bda27560e01b815260040160405180910390fd5b5092915050565b34156109ed5760405163b398979f60e01b815260040160405180910390fd5b5f5f5f835160208501865af49392505050565b6040513d81523d5f602083013e3d602001810160405290565b6040513d5f823e3d81fd5b80356001600160a01b038116811461181e575f5ffd5b919050565b5f5f5f5f5f60a08688031215611837575f5ffd5b61184086611808565b945061184e60208701611808565b935061185c60408701611808565b925061186a60608701611808565b915061187860808701611808565b90509295509295909350565b5f5f5f60608486031215611896575f5ffd5b61189f84611808565b92506118ad60208501611808565b929592945050506040919091013590565b634e487b7160e01b5f52604160045260245ffd5b604051601f8201601f1916810167ffffffffffffffff811182821017156118fb576118fb6118be565b604052919050565b5f5f60408385031215611914575f5ffd5b61191d83611808565b9150602083013567ffffffffffffffff811115611938575f5ffd5b8301601f81018513611948575f5ffd5b803567ffffffffffffffff811115611962576119626118be565b611975601f8201601f19166020016118d2565b818152866020838501011115611989575f5ffd5b816020840160208301375f602083830101528093505050509250929050565b5f5f5f606084860312156119ba575f5ffd5b6119c384611808565b9250602084013591506119d860408501611808565b90509250925092565b5f602082840312156119f1575f5ffd5b5035919050565b5f67ffffffffffffffff821115611a1157611a116118be565b5060051b60200190565b5f5f5f60608486031215611a2d575f5ffd5b611a3684611808565b9250602084013567ffffffffffffffff811115611a51575f5ffd5b8401601f81018613611a61575f5ffd5b8035611a74611a6f826119f8565b6118d2565b8082825260208201915060208360051b850101925088831115611a95575f5ffd5b6020840193505b82841015611abe57611aad84611808565b825260209384019390910190611a9c565b959895975050505060409390930135925050565b602081525f82518060208401528060208501604085015e5f604082850101526040601f19601f83011684010191505092915050565b5f5f60408385031215611b18575f5ffd5b611b2183611808565b9150611b2f60208401611808565b90509250929050565b5f5f60408385031215611b49575f5ffd5b611b5283611808565b946020939093013593505050565b5f60208284031215611b70575f5ffd5b611b7982611808565b9392505050565b634e487b7160e01b5f52603260045260245ffd5b5f8151808452602084019350602083015f5b82811015611bcd5781516001600160a01b0316865260209586019590910190600101611ba6565b5093949350505050565b828152604060208201525f611bef6040830184611b94565b949350505050565b5f60208284031215611c07575f5ffd5b815167ffffffffffffffff811115611c1d575f5ffd5b8201601f81018413611c2d575f5ffd5b8051611c3b611a6f826119f8565b8082825260208201915060208360051b850101925086831115611c5c575f5ffd5b6020840193505b82841015611c7e578351825260209384019390910190611c63565b9695505050505050565b6020808252600b908201526a2737ba103832b936b4ba1760a91b604082015260600190565b5f60208284031215611cbd575f5ffd5b5051919050565b634e487b7160e01b5f52601160045260245ffd5b8082028115828204841417610fd357610fd3611cc4565b5f82611d0957634e487b7160e01b5f52601260045260245ffd5b500490565b81810381811115610fd357610fd3611cc4565b80820180821115610fd357610fd3611cc4565b5f82518060208501845e5f920191825250919050565b5f60208284031215611d5a575f5ffd5b81518015158114611b79575f5ffd5b85815284602082015260a060408201525f611d8760a0830186611b94565b6001600160a01b039490941660608301525060800152939250505056fe360894a13ba1a3210667c828492db98dca3e2076cc3735a920a3ca505d382bbca26469706673582212202216f4a6398106fa27c0bc6eac88bad2bfd8ede456ff1dfedad9a3aaef51150564736f6c634300081e0033","linkReferences":{}},"methodIdentifiers":{"UPGRADE_INTERFACE_VERSION()":"ad3cb1cc","USDT()":"c54e44eb","VENUS()":"1a78ccc1","addAvailableLimit(address,address[],uint256)":"892231c8","admin()":"f851a440","availableLimit(address,address)":"c213b3b3","buy(address,uint256)":"cce7ec13","emergencyWithdraw(address,uint256,address)":"551512de","getAmountOut(address,address,uint256)":"4aa06652","initialize(address,address,address,address,address)":"1459457a","leo()":"42728ffd","lex()":"7d0a1518","owner()":"8da5cb5b","pancakeRouter()":"c21ebd07","proxiableUUID()":"52d1902d","renounceOwnership()":"715018a6","sellSubCoin(uint256)":"64fe9f1b","setTaxRate(uint256)":"c6d69a30","subAvailableLimit(address,address[],uint256)":"ab08b66e","taxRate()":"771a3a1d","transferOwnership(address)":"f2fde38b","upgradeToAndCall(address,bytes)":"4f1ef286","wallet()":"521eb273"},"id":45}