{"abi":[{"type":"constructor","inputs":[{"name":"_treasury","type":"address","internalType":"address"},{"name":"_queue","type":"address","internalType":"address"},{"name":"_referrals","type":"address","internalType":"address"},{"name":"_USDT","type":"address","internalType":"address"}],"stateMutability":"nonpayable"},{"type":"function","name":"MAXTRIALQUOTA","inputs":[],"outputs":[{"name":"","type":"uint256","internalType":"uint256"}],"stateMutability":"view"},{"type":"function","name":"MIN_STAKE_AMOUNT","inputs":[],"outputs":[{"name":"","type":"uint256","internalType":"uint256"}],"stateMutability":"view"},{"type":"function","name":"USDT","inputs":[],"outputs":[{"name":"","type":"address","internalType":"address"}],"stateMutability":"view"},{"type":"function","name":"cancelQueue","inputs":[{"name":"queueOrderId","type":"uint256","internalType":"uint256"}],"outputs":[],"stateMutability":"nonpayable"},{"type":"function","name":"claim","inputs":[{"name":"orderIndex","type":"uint256","internalType":"uint256"}],"outputs":[],"stateMutability":"nonpayable"},{"type":"function","name":"getCurrentQuota","inputs":[],"outputs":[{"name":"stakeUsed","type":"uint256","internalType":"uint256"},{"name":"stakeRemaining","type":"uint256","internalType":"uint256"},{"name":"unstakeUsed","type":"uint256","internalType":"uint256"},{"name":"unstakeRemaining","type":"uint256","internalType":"uint256"}],"stateMutability":"view"},{"type":"function","name":"getDirectReferralInfo","inputs":[{"name":"user","type":"address","internalType":"address"}],"outputs":[{"name":"","type":"tuple[]","internalType":"struct Models.DirectReferral[]","components":[{"name":"user","type":"address","internalType":"address"},{"name":"staked","type":"uint256","internalType":"uint256"},{"name":"performance","type":"uint256","internalType":"uint256"}]}],"stateMutability":"view"},{"type":"function","name":"getFomoAwardsInfo","inputs":[{"name":"user","type":"address","internalType":"address"}],"outputs":[{"name":"","type":"tuple[]","internalType":"struct Models.FomoAwards[]","components":[{"name":"rounds","type":"uint256","internalType":"uint256"},{"name":"amount","type":"uint256","internalType":"uint256"}]}],"stateMutability":"view"},{"type":"function","name":"getFomoInfo","inputs":[],"outputs":[{"name":"roundId","type":"uint256","internalType":"uint256"},{"name":"lastQualified","type":"address[21]","internalType":"address[21]"},{"name":"count","type":"uint256","internalType":"uint256"},{"name":"poolBalance","type":"uint256","internalType":"uint256"}],"stateMutability":"view"},{"type":"function","name":"getOrderStatus","inputs":[{"name":"user","type":"address","internalType":"address"},{"name":"orderIndex","type":"uint256","internalType":"uint256"}],"outputs":[{"name":"truthAward","type":"uint256","internalType":"uint256"},{"name":"result","type":"tuple","internalType":"struct Models.RuleResult","components":[{"name":"claimCountdown","type":"uint256","internalType":"uint256"},{"name":"unstakeCountdown","type":"uint256","internalType":"uint256"},{"name":"canClaim","type":"bool","internalType":"bool"},{"name":"canUnstake","type":"bool","internalType":"bool"},{"name":"canRestake","type":"bool","internalType":"bool"},{"name":"isFrozen","type":"bool","internalType":"bool"},{"name":"isExpired","type":"bool","internalType":"bool"},{"name":"isMatured","type":"bool","internalType":"bool"}]}],"stateMutability":"view"},{"type":"function","name":"getQueueInfo","inputs":[{"name":"queueId","type":"uint256","internalType":"uint256"}],"outputs":[{"name":"user","type":"address","internalType":"address"},{"name":"amount","type":"uint256","internalType":"uint256"},{"name":"orderIndex","type":"uint256","internalType":"uint256"},{"name":"stakeIndex","type":"uint8","internalType":"uint8"},{"name":"createdAt","type":"uint256","internalType":"uint256"},{"name":"status","type":"uint8","internalType":"uint8"}],"stateMutability":"view"},{"type":"function","name":"getQueueRange","inputs":[],"outputs":[{"name":"head","type":"uint256","internalType":"uint256"},{"name":"tail","type":"uint256","internalType":"uint256"}],"stateMutability":"view"},{"type":"function","name":"getReferralInfo","inputs":[{"name":"user","type":"address","internalType":"address"}],"outputs":[{"name":"parent","type":"address","internalType":"address"},{"name":"level","type":"uint8","internalType":"enum Models.LevelType"},{"name":"referralNum","type":"uint16","internalType":"uint16"},{"name":"totalStaked","type":"uint256","internalType":"uint256"},{"name":"performance","type":"uint256","internalType":"uint256"}],"stateMutability":"view"},{"type":"function","name":"getRemainingQuota","inputs":[{"name":"user","type":"address","internalType":"address"}],"outputs":[{"name":"","type":"uint256","internalType":"uint256"}],"stateMutability":"view"},{"type":"function","name":"getStakePlans","inputs":[{"name":"stakeIndex","type":"uint8","internalType":"uint8"}],"outputs":[{"name":"duration","type":"uint32","internalType":"uint32"},{"name":"claimInterval","type":"uint32","internalType":"uint32"},{"name":"window","type":"uint32","internalType":"uint32"},{"name":"rate","type":"uint64","internalType":"uint64"}],"stateMutability":"view"},{"type":"function","name":"getTrialRemainingQuota","inputs":[{"name":"user","type":"address","internalType":"address"}],"outputs":[{"name":"","type":"uint256","internalType":"uint256"}],"stateMutability":"view"},{"type":"function","name":"getUserOrders","inputs":[{"name":"user","type":"address","internalType":"address"}],"outputs":[{"name":"","type":"tuple[]","internalType":"struct Models.Order[]","components":[{"name":"amount","type":"uint128","internalType":"uint128"},{"name":"claimed","type":"uint128","internalType":"uint128"},{"name":"claimedPeriods","type":"uint32","internalType":"uint32"},{"name":"startTime","type":"uint32","internalType":"uint32"},{"name":"stakeIndex","type":"uint8","internalType":"uint8"},{"name":"status","type":"uint8","internalType":"uint8"},{"name":"createdAt","type":"uint32","internalType":"uint32"},{"name":"frozenReward","type":"uint128","internalType":"uint128"},{"name":"frozenClaimed","type":"uint128","internalType":"uint128"},{"name":"freezeStart","type":"uint32","internalType":"uint32"},{"name":"freezeRound","type":"uint32","internalType":"uint32"}]}],"stateMutability":"view"},{"type":"function","name":"getUserQueueIds","inputs":[{"name":"user","type":"address","internalType":"address"}],"outputs":[{"name":"","type":"uint256[]","internalType":"uint256[]"}],"stateMutability":"view"},{"type":"function","name":"owner","inputs":[],"outputs":[{"name":"","type":"address","internalType":"address"}],"stateMutability":"view"},{"type":"function","name":"queue","inputs":[],"outputs":[{"name":"","type":"address","internalType":"address"}],"stateMutability":"view"},{"type":"function","name":"referral","inputs":[{"name":"parent","type":"address","internalType":"address"}],"outputs":[],"stateMutability":"nonpayable"},{"type":"function","name":"referrals","inputs":[],"outputs":[{"name":"","type":"address","internalType":"address"}],"stateMutability":"view"},{"type":"function","name":"renounceOwnership","inputs":[],"outputs":[],"stateMutability":"nonpayable"},{"type":"function","name":"restake","inputs":[{"name":"orderIndex","type":"uint256","internalType":"uint256"},{"name":"newStakeIndex","type":"uint8","internalType":"uint8"}],"outputs":[],"stateMutability":"nonpayable"},{"type":"function","name":"rootAddr","inputs":[],"outputs":[{"name":"","type":"address","internalType":"address"}],"stateMutability":"view"},{"type":"function","name":"setConfig","inputs":[{"name":"_treasury","type":"address","internalType":"address"},{"name":"_queue","type":"address","internalType":"address"},{"name":"_referrals","type":"address","internalType":"address"}],"outputs":[],"stateMutability":"nonpayable"},{"type":"function","name":"setPersonalQuota","inputs":[{"name":"amount","type":"uint256","internalType":"uint256"}],"outputs":[],"stateMutability":"nonpayable"},{"type":"function","name":"stake","inputs":[{"name":"amount","type":"uint256","internalType":"uint256"},{"name":"stakeIndex","type":"uint8","internalType":"uint8"}],"outputs":[],"stateMutability":"nonpayable"},{"type":"function","name":"totalPersonalQuota","inputs":[],"outputs":[{"name":"","type":"uint256","internalType":"uint256"}],"stateMutability":"view"},{"type":"function","name":"transferOwnership","inputs":[{"name":"newOwner","type":"address","internalType":"address"}],"outputs":[],"stateMutability":"nonpayable"},{"type":"function","name":"treasury","inputs":[],"outputs":[{"name":"","type":"address","internalType":"address"}],"stateMutability":"view"},{"type":"function","name":"trialAlreadyUsed","inputs":[{"name":"","type":"address","internalType":"address"}],"outputs":[{"name":"","type":"uint256","internalType":"uint256"}],"stateMutability":"view"},{"type":"function","name":"unstake","inputs":[{"name":"orderIndex","type":"uint256","internalType":"uint256"}],"outputs":[],"stateMutability":"nonpayable"},{"type":"function","name":"verifyReferralCode","inputs":[{"name":"user","type":"address","internalType":"address"}],"outputs":[{"name":"","type":"bool","internalType":"bool"}],"stateMutability":"view"},{"type":"event","name":"OwnershipTransferred","inputs":[{"name":"previousOwner","type":"address","indexed":true,"internalType":"address"},{"name":"newOwner","type":"address","indexed":true,"internalType":"address"}],"anonymous":false},{"type":"error","name":"OwnableInvalidOwner","inputs":[{"name":"owner","type":"address","internalType":"address"}]},{"type":"error","name":"OwnableUnauthorizedAccount","inputs":[{"name":"account","type":"address","internalType":"address"}]},{"type":"error","name":"ReentrancyGuardReentrantCall","inputs":[]}],"bytecode":{"object":"0x60803461013d57601f61274538819003918201601f19168301916001600160401b038311848410176101415780849260809460405283398101031261013d5761004781610155565b9061005460208201610155565b9061006d606061006660408401610155565b9201610155565b91331561012a575f8054336001600160a01b0319821681178355604051969290916001600160a01b0316907f8be0079c531659141344cd1fd0a4f28419497f9722a3daafe3b4186f6b6457e09080a360018055600380546001600160a01b03199081166001600160a01b03938416179091556004805482169383169390931790925560058054831693821693909317909255600280549091169290911691909117905569021e19e0c9bab24000006007556125db908161016a8239f35b631e4fbdf760e01b5f525f60045260245ffd5b5f80fd5b634e487b7160e01b5f52604160045260245ffd5b51906001600160a01b038216820361013d5756fe60806040526004361015610011575f80fd5b5f5f3560e01c806310087fb1146119c857806310b5a38e14611936578063187ed5b1146118935780631c54a0d41461181b57806321874ae21461174857806327ed7188146117255780632b25e98a146117075780632e17de78146116aa5780632e586cab1461157b5780633141e25b146114ea578063366bf8da146114c6578063379607f51461146957806342a7eb541461143d5780634bedf3691461133757806361d027b31461130e57806363c69f08146111b3578063715018a6146111595780637247959a1461105c5780638da5cb5b146110355780639f058d4914610eb1578063a28f843214610d73578063a684db3a14610ceb578063a80a3baa14610718578063b65624b4146106aa578063c2cfe4cb14610613578063c54e44eb146105ea578063d3dc7539146105c1578063d913d514146104ec578063dcdcd08c1461035e578063e10d29ee14610335578063ecc5abbf146102fc578063f07837ea146102d8578063f2fde38b146102525763f67dae2314610190575f80fd5b3461024f578060031936011261024f576004805460405163e4c2ab7160e01b81529160809183919082906001600160a01b03165afa801561024457829183849185936101f3575b5060809450604051938452602084015260408301526060820152f35b93505050506080813d60801161023c575b8161021160809383611d40565b8101031261023857805160208201516040830151606090930151608094509192905f6101d7565b5080fd5b3d9150610204565b6040513d84823e3d90fd5b80fd5b503461024f57602036600319011261024f5761026c611cee565b610274612184565b6001600160a01b031680156102c45781546001600160a01b03198116821783556001600160a01b03167f8be0079c531659141344cd1fd0a4f28419497f9722a3daafe3b4186f6b6457e08380a380f35b631e4fbdf760e01b82526004829052602482fd5b503461024f578060031936011261024f57602060405168056bc75e2d631000008152f35b503461024f57602036600319011261024f576020906040906001600160a01b03610324611cee565b168152600683522054604051908152f35b503461024f578060031936011261024f576004546040516001600160a01b039091168152602090f35b503461024f57602036600319011261024f57610378611cee565b600554604051633737342360e21b81526001600160a01b03928316600482015291839183916024918391165afa90811561024457829161041b575b5090604051918291602083016020845282518091526020604085019301915b8181106103e0575050500390f35b825180516001600160a01b031685526020818101518187015260409182015191860191909152869550606090940193909201916001016103d2565b90503d8083833e61042c8183611d40565b8101906020818303126104e4578051906001600160401b0382116104e8570181601f820112156104e45780519061046282611db7565b926104706040519485611d40565b828452602060608186019402830101918183116104e057602001925b82841061049d57505050505f6103b3565b6060848303126104e05760206060916040516104b881611d25565b6104c187611d61565b815282870151838201526040870151604082015281520193019261048c565b8580fd5b8280fd5b8380fd5b503461024f57602036600319011261024f5760043560ff811680910361023857600354604051634640ed5f60e11b81526004810192909252608090829060249082906001600160a01b03165afa801561024457916080928180819261057b575b6001600160401b039394509063ffffffff80928160405197168752166020860152166040840152166060820152f35b505050506001600160401b0363ffffffff6105ac8193853d87116105ba575b6105a48183611d40565b810190612111565b92955085945091925061054c565b503d61059a565b503461024f578060031936011261024f576005546040516001600160a01b039091168152602090f35b503461024f578060031936011261024f576002546040516001600160a01b039091168152602090f35b503461024f57602036600319011261024f5761062d611cee565b600554604051631caa058560e11b81526001600160a01b0392831660048201529160a09183916024918391165afa9081156102445760209291610676575b506040519015158152f35b610698915060a03d60a0116106a3575b6106908183611d40565b810190611d75565b50925050505f61066b565b503d610686565b503461024f57602036600319011261024f576004356106c7612184565b68056bc75e2d6310000081106106dd5760075580f35b60405162461bcd60e51b815260206004820152601360248201527222a92927a92fa0a6a7aaa72a2fa624a6a4aa1760691b6044820152606490fd5b503461024f57604036600319011261024f57610732611cee565b6024359061073e6120b0565b50600354604051630c78d3e160e31b81526001600160a01b0392831660048201529116918382602481865afa918215610ce0578492610cbc575b508151811015610ca8579060209160051b01015190608082019060ff8251169260405193634640ed5f60e11b85526004850152608084602481855afa8015610c9d578590869587908892610c74575b5060405192608084018481106001600160401b03821117610c60579163ffffffff80926001600160401b03959460405216855281602086019916895216604084015216606082015260405191635c975abb60e01b8352602083600481875afa928315610c55578793610c24575b5060405163015cb3ff60e01b815293602085600481845afa948515610c19578895610bcc575b5096602060049596979860405196878092630475cbc760e21b82525afa948515610bbf578195610b7f575b506001600160401b0363ffffffff8716951695600160ff6108a989894289896121aa565b995116019160ff8311610b6b576108be6120b0565b9963ffffffff6060860151166108db63ffffffff88511682611d04565b996301e133808201998a8311610b5757908d8a95949392869b610b42575b509060a061091e92019a1515808c525f14610b375763ffffffff875b16428b8b6121aa565b8951909290156109eb5750509261097f92604095926101209d9560ff60a08a0151161590816109e1575b5015158787015285525b61095f8282428b8b612462565b966020885115159860608801998a5201519860208701998a52429161255a565b9360808201941515855260c08201964211875260e082019742101588528251988952815160208a01525182890152015115156060870152511515608086015251151560a085015251151560c084015251151560e0830152511515610100820152f35b905015155f610948565b90918d6040916109fc428c8c61236f565b9060ff60a08c015116159182610b2f575b5081610b25575b501580159190920152610a37575050928a9261097f926040956101209d52610952565b8942115f14610a58575050506040926101209a9261097f925f198552610952565b8142115f14610b1c57610a7c610a6e8342611dce565b63ffffffff835116906121f7565b9063ffffffff610a93818b51168284511690612215565b168210610ab357505050506040926101209a9261097f925f198552610952565b60018201809211610b085792610ae76101209e9693610ae161097f979463ffffffff60409b9851169061222d565b90611d04565b42811115610b0257610afb91504290611dce565b8552610952565b50610afb565b634e487b7160e01b84526011600452602484fd5b610a7c83610a6e565b905015155f610a14565b91505f610a0d565b63ffffffff85610915565b60c08a015163ffffffff16109a5060a06108f9565b634e487b7160e01b85526011600452602485fd5b634e487b7160e01b81526011600452602490fd5b9094506020813d602011610bb7575b81610b9b60209383611d40565b81010312610bb357610bac906120fd565b935f610885565b8480fd5b3d9150610b8e565b50604051903d90823e3d90fd5b9094506020813d602011610c11575b81610be860209383611d40565b81010312610c0d57966020610c01600496979899611f3e565b9550979695909761085a565b8780fd5b3d9150610bdb565b6040513d8a823e3d90fd5b610c4791935060203d602011610c4e575b610c3f8183611d40565b81019061214c565b915f610834565b503d610c35565b6040513d89823e3d90fd5b634e487b7160e01b8a52604160045260248afd5b92505050610c9291945060803d6080116105ba576105a48183611d40565b90959291955f6107c7565b6040513d87823e3d90fd5b634e487b7160e01b84526032600452602484fd5b610cd99192503d8086833e610cd18183611d40565b810190611f4f565b905f610778565b6040513d86823e3d90fd5b503461024f57602036600319011261024f57610d05612164565b60045481906001600160a01b0316803b15610d705760405163a05a9e1360e01b8152336004808301919091523560248201529082908290818381604481015b03925af1801561024457610d5b575b506001805580f35b81610d6591611d40565b61024f57805f610d53565b50fd5b503461024f578060031936011261024f5780600491506102a080604051610d9a8282611d40565b369037825460405163a32bf59760e01b8152936103009185919082906001600160a01b03165afa9081156102445782809481928294610e1e575b5050604051938452602084015b60158210610dfe57505061030093506102c08301526102e0820152f35b85516001600160a01b031681526020958601956001929092019101610de1565b945094509150506103003d8111610eaa575b610e3a8185611d40565b8301610300848203126102385783519080603f860112156104e457610e626040519485611d40565b836102c086019182116104e85760208601905b828210610e925750506102e0905194015190929390915f80610dd4565b60208091610e9f84611d61565b815201910190610e75565b503d610e30565b503461024f57602036600319011261024f57610ecb611cee565b60048054604051639f058d4960e01b81526001600160a01b03938416928101929092529091839183916024918391165afa908115610244578291610f5c575b5090604051918291602083016020845282518091526020604085019301915b818110610f37575050500390f35b8251805185526020908101518186015286955060409094019390920191600101610f29565b90503d8083833e610f6d8183611d40565b8101906020818303126104e4578051906001600160401b0382116104e8570181601f820112156104e457805190610fa382611db7565b92610fb16040519485611d40565b82845260208085019360061b830101918183116104e057602001925b828410610fde57505050505f610f0a565b6040848303126104e057604051604081018181106001600160401b0382111761102157916020916040938452865181528287015183820152815201930192610fcd565b634e487b7160e01b88526041600452602488fd5b503461024f578060031936011261024f57546040516001600160a01b039091168152602090f35b503461024f57602036600319011261024f57611076611cee565b61107e612164565b6001600160a01b03168015611124573381146110e75760055482916001600160a01b0390911690813b156110e3578291604483926040519485938492631c505d1d60e01b845260048401523360248401525af1801561024457610d5b57506001805580f35b5050fd5b60405162461bcd60e51b815260206004820152601560248201527422b93937b9103830b932b73a1030b2323932b9b99760591b6044820152606490fd5b60405162461bcd60e51b815260206004820152600d60248201526c2d32b9379030b2323932b9b99760991b6044820152606490fd5b503461024f578060031936011261024f57611172612184565b80546001600160a01b03198116825581906001600160a01b03167f8be0079c531659141344cd1fd0a4f28419497f9722a3daafe3b4186f6b6457e08280a380f35b503461024f57602036600319011261024f576111cd611cee565b600354604051630c78d3e160e31b81526001600160a01b03928316600482015291839183916024918391165afa9081156102445782916112f4575b5090604051918291602083016020845282518091526020604085019301915b818110611235575050500390f35b91935091602061016060019263ffffffff61014088516001600160801b0381511684526001600160801b0386820151168685015282604082015116604085015282606082015116606085015260ff608082015116608085015260ff60a08201511660a08501528260c08201511660c08501526001600160801b0360e08201511660e08501526001600160801b03610100820151166101008501528261012082015116610120850152015116610140820152019401910191849392611227565b61130891503d8084833e610cd18183611d40565b5f611208565b503461024f578060031936011261024f576003546040516001600160a01b039091168152602090f35b503461024f57602036600319011261024f5760249060c060018060a01b036004541660405193848092631e186afb60e01b825260043560048301525afa918215610bbf578180819082809481976113bf575b60c08760ff8a89828a8a8a6040519760018060a01b031688526020880152604087015216606085015260808401521660a0820152f35b955095505050505060c0813d60c011611435575b816113e060c09383611d40565b810103126102385760c0915060ff6113f782611d61565b916020810151928260408301519261141160608201611f1c565b61142260a060808401519301611f1c565b9396949091939750929481949250611389565b3d91506113d3565b503461024f57602036600319011261024f57602061146161145c611cee565b611ed1565b604051908152f35b503461024f57602036600319011261024f57611483612164565b60045481906001600160a01b0316803b15610d7057604051635569f64b60e11b815233600480830191909152356024820152908290829081838160448101610d44565b503461024f57602036600319011261024f5760206114616114e5611cee565b611ddb565b503461024f57606036600319011261024f57611504611cee565b6024356001600160a01b038116908190036104e4576044356001600160a01b03811692908390036104e857611537612184565b60018060a01b03166001600160601b0360a01b60035416176003556001600160601b0360a01b60045416176004556001600160601b0360a01b600554161760055580f35b503461024f57602036600319011261024f57611595611cee565b60048054604051632e586cab60e01b81526001600160a01b03938416928101929092529091839183916024918391165afa90811561024457829161161a575b5090604051918291602083016020845282518091526020604085019301915b818110611601575050500390f35b82518452859450602093840193909201916001016115f3565b90503d8083833e61162b8183611d40565b8101906020818303126104e4578051906001600160401b0382116104e857019080601f830112156104e457815161166181611db7565b9261166f6040519485611d40565b81845260208085019260051b820101928311610bb357602001905b82821061169a575050505f6115d4565b815181526020918201910161168a565b503461024f57602036600319011261024f576116c4612164565b60045481906001600160a01b0316803b15610d7057604051630615339760e51b815233600480830191909152356024820152908290829081838160448101610d44565b503461024f578060031936011261024f576020600754604051908152f35b503461024f578060031936011261024f576020604051671bc16d674ec800008152f35b503461024f57602036600319011261024f57611762611cee565b600554604051631caa058560e11b81526001600160a01b0392831660048201529160a09183916024918391165afa80156102445782918384809281946117f0575b506040516001600160a01b03909516855260088210156117dc575060a09461ffff91602086015216604084015260608301526080820152f35b634e487b7160e01b81526021600452602490fd5b93509450505061180f915060a03d60a0116106a3576106908183611d40565b9194919290915f6117a3565b503461024f57604036600319011261024f5780611836611cde565b61183e612164565b6004546001600160a01b031690813b156110e35760ff60648492836040519586948593631bd8358960e31b855233600486015260043560248601521660448401525af1801561024457610d5b57506001805580f35b503461024f578060031936011261024f5760055460405163187ed5b160e01b81529190602090839060049082906001600160a01b03165afa90811561192a5780916118ed575b6040516001600160a01b0383168152602090f35b90506020823d602011611922575b8161190860209383611d40565b8101031261024f575061191c602091611d61565b5f6118d9565b3d91506118fb565b604051903d90823e3d90fd5b503461024f578060031936011261024f57600480546040805163085ad1c760e11b815292909183919082906001600160a01b03165afa8015610244578291839161198b575b6040838382519182526020820152f35b9150506040813d6040116119c0575b816119a760409383611d40565b810103126102385760409150602081519101515f61197b565b3d915061199a565b5034611b1e576040366003190112611b1e576004356119e5611cde565b6119ed612164565b671bc16d674ec800008210611ca65781611a0633611ddb565b10611c695760ff16906004821015611c2f578115611bbd575b6002546004546040516323b872dd60e01b602082019081523360248301526001600160a01b039283166044830152606480830186905282525f93849316918390611a6a608482611d40565b51925af13d15611bb6573d6001600160401b038111611ba25760405190611a9b601f8201601f191660200183611d40565b81523d5f602083013e5b81611b73575b5015611b22576004546001600160a01b031691823b15611b1e5760645f9283604051958694859363031a0e0360e51b8552336004860152602485015260448401525af18015611b1357611b0057506001805580f35b611b0c91505f90611d40565b5f5f610d53565b6040513d5f823e3d90fd5b5f80fd5b60405162461bcd60e51b8152602060048201526024808201527f5472616e7366657248656c7065723a205452414e534645525f46524f4d5f46416044820152631253115160e21b6064820152608490fd5b8051801592508215611b88575b50505f611aab565b611b9b925060208091830101910161214c565b5f80611b80565b634e487b7160e01b5f52604160045260245ffd5b6060611aa5565b80611bc733611ed1565b10611bea57335f52600660205260405f20611be3828254611d04565b9055611a1f565b60405162461bcd60e51b815260206004820152601d60248201527f4552524f525f5354414b455f414d4f554e545f464f525f545249414c2e0000006044820152606490fd5b60405162461bcd60e51b815260206004820152601260248201527122a92927a92fa9aa20a5a2afa4a72222ac1760711b6044820152606490fd5b60405162461bcd60e51b815260206004820152601560248201527422a92927a92fa9aa20a5a4a723afa0a6a7aaa72a1760591b6044820152606490fd5b60405162461bcd60e51b815260206004820152601060248201526f105353d5539517d513d3d7d4d350531360821b6044820152606490fd5b6024359060ff82168203611b1e57565b600435906001600160a01b0382168203611b1e57565b91908201809211611d1157565b634e487b7160e01b5f52601160045260245ffd5b606081019081106001600160401b03821117611ba257604052565b90601f801991011681019081106001600160401b03821117611ba257604052565b51906001600160a01b0382168203611b1e57565b908160a0910312611b1e57611d8981611d61565b9160208201516008811015611b1e5791604081015161ffff81168103611b1e57916080606083015192015190565b6001600160401b038111611ba25760051b60200190565b91908203918211611d1157565b600554604051631caa058560e11b81526001600160a01b039283166004820181905292909160a09183916024918391165afa908115611b13575f91611ead575b50602060018060a01b036004541692602460405180958193631b87161d60e31b835260048301525afa8015611b13575f90611e79575b611e5b9250611d04565b6007549081811015611e7357611e7091611dce565b90565b50505f90565b506020823d602011611ea5575b81611e9360209383611d40565b81010312611b1e57611e5b9151611e51565b3d9150611e86565b611ec6915060a03d60a0116106a3576106908183611d40565b50925050505f611e1b565b6001600160a01b03165f9081526006602052604090205468056bc75e2d63100000811015611f175768056bc75e2d631000000368056bc75e2d631000008111611d115790565b505f90565b519060ff82168203611b1e57565b51906001600160801b0382168203611b1e57565b519063ffffffff82168203611b1e57565b602081830312611b1e578051906001600160401b038211611b1e570181601f82011215611b1e57805190611f8282611db7565b92611f906040519485611d40565b8284526020610160818601940283010191818311611b1e57602001925b828410611fbb575050505090565b61016084830312611b1e57604051906101608201908282106001600160401b03831117611ba25761016092602092604052611ff587611f2a565b8152612002838801611f2a565b8382015261201260408801611f3e565b604082015261202360608801611f3e565b606082015261203460808801611f1c565b608082015261204560a08801611f1c565b60a082015261205660c08801611f3e565b60c082015261206760e08801611f2a565b60e08201526120796101008801611f2a565b61010082015261208c6101208801611f3e565b61012082015261209f6101408801611f3e565b610140820152815201930192611fad565b6040519061010082018281106001600160401b03821117611ba2576040525f60e0838281528260208201528260408201528260608201528260808201528260a08201528260c08201520152565b51906001600160401b0382168203611b1e57565b9190826080910312611b1e5761212682611f3e565b9161213360208201611f3e565b91611e70606061214560408501611f3e565b93016120fd565b90816020910312611b1e57518015158103611b1e5790565b600260015414612175576002600155565b633ee5aeb560e01b5f5260045ffd5b5f546001600160a01b0316330361219757565b63118cdaa760e01b5f523360045260245ffd5b93610ae1906121c26121e695856121c996958961225a565b9286612315565b916001600160801b03610100816020840151169201511690611d04565b80821115611e7357611e7091611dce565b8115612201570490565b634e487b7160e01b5f52601260045260245ffd5b9063ffffffff169081156122015763ffffffff160490565b81810292918115918404141715611d1157565b9063ffffffff8091169116019063ffffffff8211611d1157565b929160ff60a0850151166122f0578092606085019163ffffffff612285818551168287511690612240565b1680911161230d575b5080151580612304575b6122f8575b505163ffffffff1692838311156122f05760606122e26001600160401b03926001600160801b036122da670de0b6b3a7640000986122ec98611dce565b91511661222d565b920151169061222d565b0490565b505050505f90565b925063ffffffff61229d565b50808411612298565b93505f61228e565b63ffffffff610120820151169182156122f057670de0b6b3a764000093620151806123466122ec9561234c94611dce565b0461222d565b90838211612367575b60e001516001600160801b031661222d565b839150612355565b63ffffffff6060820151169061238c63ffffffff84511683611d04565b926123a3604082019463ffffffff86511690611d04565b85116124465760208101916123bf63ffffffff84511685611d04565b86106124585763ffffffff6123f2816123e56123db888b611dce565b82885116906121f7565b9451168286511690612215565b1680831161244f575b506040015163ffffffff168111156124465761243092610ae16124279263ffffffff809551169061222d565b92511682611d04565b90821015918261243f57505090565b1115919050565b50505050505f90565b915060406123fb565b5050505050505f90565b9091929493946040519061247582611d25565b5f8252602082015f815260408301915f8352839881612543575b501515825260ff60a0850151166125315750505060408501516125225763ffffffff806124cd60606301e13380940194828087511691511690612240565b169251160163ffffffff8111611d1157818310156124fa5750906124f3915f8552611dce565b6020830152565b63ffffffff91501610155f1461251657600182525f6020830152565b5f82525f196020830152565b50505f8352505f196020830152565b5f8084525f1990915290529450505050565b905063ffffffff8060c0870151169116115f61248f565b9391612567939185612462565b5115611e73576080015160ff168061259d5760ff60015b160160ff8111611d115760ff80911691161061259957600190565b5f90565b60ff5f61257e56fea26469706673582212205eeec42a66992e3fea603f832f81e0778f79945ba7e97053cc68b118504e79cb64736f6c634300081e0033","linkReferences":{}},"methodIdentifiers":{"MAXTRIALQUOTA()":"f07837ea","MIN_STAKE_AMOUNT()":"27ed7188","USDT()":"c54e44eb","cancelQueue(uint256)":"a684db3a","claim(uint256)":"379607f5","getCurrentQuota()":"f67dae23","getDirectReferralInfo(address)":"dcdcd08c","getFomoAwardsInfo(address)":"9f058d49","getFomoInfo()":"a28f8432","getOrderStatus(address,uint256)":"a80a3baa","getQueueInfo(uint256)":"4bedf369","getQueueRange()":"10b5a38e","getReferralInfo(address)":"21874ae2","getRemainingQuota(address)":"366bf8da","getStakePlans(uint8)":"d913d514","getTrialRemainingQuota(address)":"42a7eb54","getUserOrders(address)":"63c69f08","getUserQueueIds(address)":"2e586cab","owner()":"8da5cb5b","queue()":"e10d29ee","referral(address)":"7247959a","referrals()":"d3dc7539","renounceOwnership()":"715018a6","restake(uint256,uint8)":"1c54a0d4","rootAddr()":"187ed5b1","setConfig(address,address,address)":"3141e25b","setPersonalQuota(uint256)":"b65624b4","stake(uint256,uint8)":"10087fb1","totalPersonalQuota()":"2b25e98a","transferOwnership(address)":"f2fde38b","treasury()":"61d027b3","trialAlreadyUsed(address)":"ecc5abbf","unstake(uint256)":"2e17de78","verifyReferralCode(address)":"c2cfe4cb"},"id":56}