{"abi":[{"type":"constructor","inputs":[{"name":"_treasury","type":"address","internalType":"address"},{"name":"_queue","type":"address","internalType":"address"},{"name":"_referrals","type":"address","internalType":"address"},{"name":"_USDT","type":"address","internalType":"address"}],"stateMutability":"nonpayable"},{"type":"function","name":"MIN_STAKE_AMOUNT","inputs":[],"outputs":[{"name":"","type":"uint256","internalType":"uint256"}],"stateMutability":"view"},{"type":"function","name":"USDT","inputs":[],"outputs":[{"name":"","type":"address","internalType":"address"}],"stateMutability":"view"},{"type":"function","name":"alreadyExistsUser","inputs":[{"name":"","type":"address","internalType":"address"}],"outputs":[{"name":"","type":"bool","internalType":"bool"}],"stateMutability":"view"},{"type":"function","name":"cancelQueue","inputs":[{"name":"queueOrderId","type":"uint256","internalType":"uint256"}],"outputs":[],"stateMutability":"nonpayable"},{"type":"function","name":"claim","inputs":[{"name":"orderIndex","type":"uint256","internalType":"uint256"}],"outputs":[],"stateMutability":"nonpayable"},{"type":"function","name":"getCurrentQuota","inputs":[],"outputs":[{"name":"stakeUsed","type":"uint256","internalType":"uint256"},{"name":"stakeRemaining","type":"uint256","internalType":"uint256"},{"name":"unstakeUsed","type":"uint256","internalType":"uint256"},{"name":"unstakeRemaining","type":"uint256","internalType":"uint256"}],"stateMutability":"view"},{"type":"function","name":"getDirectReferralInfo","inputs":[{"name":"user","type":"address","internalType":"address"}],"outputs":[{"name":"","type":"tuple[]","internalType":"struct Models.DirectReferral[]","components":[{"name":"user","type":"address","internalType":"address"},{"name":"staked","type":"uint256","internalType":"uint256"},{"name":"performance","type":"uint256","internalType":"uint256"}]}],"stateMutability":"view"},{"type":"function","name":"getFomoAwardsInfo","inputs":[{"name":"user","type":"address","internalType":"address"}],"outputs":[{"name":"rounds","type":"uint256","internalType":"uint256"},{"name":"amount","type":"uint256","internalType":"uint256"}],"stateMutability":"view"},{"type":"function","name":"getFomoInfo","inputs":[],"outputs":[{"name":"roundId","type":"uint256","internalType":"uint256"},{"name":"lastQualified","type":"address[21]","internalType":"address[21]"},{"name":"count","type":"uint256","internalType":"uint256"},{"name":"poolBalance","type":"uint256","internalType":"uint256"}],"stateMutability":"view"},{"type":"function","name":"getOrderStatus","inputs":[{"name":"user","type":"address","internalType":"address"},{"name":"orderIndex","type":"uint256","internalType":"uint256"}],"outputs":[{"name":"truthAward","type":"uint256","internalType":"uint256"},{"name":"result","type":"tuple","internalType":"struct Models.RuleResult","components":[{"name":"claimCountdown","type":"uint256","internalType":"uint256"},{"name":"unstakeCountdown","type":"uint256","internalType":"uint256"},{"name":"canClaim","type":"bool","internalType":"bool"},{"name":"canUnstake","type":"bool","internalType":"bool"},{"name":"canRestake","type":"bool","internalType":"bool"},{"name":"isFrozen","type":"bool","internalType":"bool"},{"name":"isExpired","type":"bool","internalType":"bool"},{"name":"isMatured","type":"bool","internalType":"bool"}]}],"stateMutability":"view"},{"type":"function","name":"getQueueInfo","inputs":[{"name":"queueId","type":"uint256","internalType":"uint256"}],"outputs":[{"name":"user","type":"address","internalType":"address"},{"name":"amount","type":"uint256","internalType":"uint256"},{"name":"orderIndex","type":"uint256","internalType":"uint256"},{"name":"stakeIndex","type":"uint8","internalType":"uint8"},{"name":"createdAt","type":"uint256","internalType":"uint256"},{"name":"isRestake","type":"bool","internalType":"bool"},{"name":"status","type":"uint8","internalType":"uint8"}],"stateMutability":"view"},{"type":"function","name":"getQueueRange","inputs":[],"outputs":[{"name":"head","type":"uint256","internalType":"uint256"},{"name":"tail","type":"uint256","internalType":"uint256"}],"stateMutability":"view"},{"type":"function","name":"getReferralInfo","inputs":[{"name":"user","type":"address","internalType":"address"}],"outputs":[{"name":"parent","type":"address","internalType":"address"},{"name":"level","type":"uint8","internalType":"enum Models.LevelType"},{"name":"referralNum","type":"uint16","internalType":"uint16"},{"name":"totalStaked","type":"uint256","internalType":"uint256"},{"name":"performance","type":"uint256","internalType":"uint256"}],"stateMutability":"view"},{"type":"function","name":"getStakePlans","inputs":[{"name":"stakeIndex","type":"uint8","internalType":"uint8"}],"outputs":[{"name":"duration","type":"uint32","internalType":"uint32"},{"name":"claimInterval","type":"uint32","internalType":"uint32"},{"name":"window","type":"uint32","internalType":"uint32"},{"name":"rate","type":"uint64","internalType":"uint64"}],"stateMutability":"view"},{"type":"function","name":"getUserOrders","inputs":[{"name":"user","type":"address","internalType":"address"}],"outputs":[{"name":"","type":"tuple[]","internalType":"struct Models.Order[]","components":[{"name":"amount","type":"uint128","internalType":"uint128"},{"name":"claimed","type":"uint128","internalType":"uint128"},{"name":"claimedPeriods","type":"uint32","internalType":"uint32"},{"name":"startTime","type":"uint32","internalType":"uint32"},{"name":"stakeIndex","type":"uint8","internalType":"uint8"},{"name":"status","type":"uint8","internalType":"uint8"},{"name":"createdAt","type":"uint32","internalType":"uint32"},{"name":"frozenReward","type":"uint128","internalType":"uint128"},{"name":"frozenClaimed","type":"uint128","internalType":"uint128"},{"name":"freezeStart","type":"uint32","internalType":"uint32"},{"name":"freezeRound","type":"uint32","internalType":"uint32"}]}],"stateMutability":"view"},{"type":"function","name":"getUserQueueIds","inputs":[{"name":"user","type":"address","internalType":"address"}],"outputs":[{"name":"","type":"uint256[]","internalType":"uint256[]"}],"stateMutability":"view"},{"type":"function","name":"maxValueOfStakeIndex","inputs":[{"name":"","type":"uint256","internalType":"uint256"}],"outputs":[{"name":"","type":"uint256","internalType":"uint256"}],"stateMutability":"view"},{"type":"function","name":"owner","inputs":[],"outputs":[{"name":"","type":"address","internalType":"address"}],"stateMutability":"view"},{"type":"function","name":"queue","inputs":[],"outputs":[{"name":"","type":"address","internalType":"address"}],"stateMutability":"view"},{"type":"function","name":"referral","inputs":[{"name":"parent","type":"address","internalType":"address"}],"outputs":[],"stateMutability":"nonpayable"},{"type":"function","name":"referrals","inputs":[],"outputs":[{"name":"","type":"address","internalType":"address"}],"stateMutability":"view"},{"type":"function","name":"renounceOwnership","inputs":[],"outputs":[],"stateMutability":"nonpayable"},{"type":"function","name":"restake","inputs":[{"name":"orderIndex","type":"uint256","internalType":"uint256"},{"name":"newStakeIndex","type":"uint8","internalType":"uint8"}],"outputs":[],"stateMutability":"nonpayable"},{"type":"function","name":"rootAddr","inputs":[],"outputs":[{"name":"","type":"address","internalType":"address"}],"stateMutability":"view"},{"type":"function","name":"setAmountLimit","inputs":[{"name":"amount","type":"uint256","internalType":"uint256"}],"outputs":[],"stateMutability":"nonpayable"},{"type":"function","name":"setConfig","inputs":[{"name":"_treasury","type":"address","internalType":"address"},{"name":"_queue","type":"address","internalType":"address"},{"name":"_referrals","type":"address","internalType":"address"}],"outputs":[],"stateMutability":"nonpayable"},{"type":"function","name":"stake","inputs":[{"name":"amount","type":"uint256","internalType":"uint256"},{"name":"stakeIndex","type":"uint8","internalType":"uint8"}],"outputs":[],"stateMutability":"nonpayable"},{"type":"function","name":"stakingAmountLimit","inputs":[],"outputs":[{"name":"","type":"uint256","internalType":"uint256"}],"stateMutability":"view"},{"type":"function","name":"transferOwnership","inputs":[{"name":"newOwner","type":"address","internalType":"address"}],"outputs":[],"stateMutability":"nonpayable"},{"type":"function","name":"treasury","inputs":[],"outputs":[{"name":"","type":"address","internalType":"address"}],"stateMutability":"view"},{"type":"function","name":"unstake","inputs":[{"name":"orderIndex","type":"uint256","internalType":"uint256"}],"outputs":[],"stateMutability":"nonpayable"},{"type":"function","name":"verifyReferralCode","inputs":[{"name":"user","type":"address","internalType":"address"}],"outputs":[{"name":"","type":"bool","internalType":"bool"}],"stateMutability":"view"},{"type":"event","name":"OwnershipTransferred","inputs":[{"name":"previousOwner","type":"address","indexed":true,"internalType":"address"},{"name":"newOwner","type":"address","indexed":true,"internalType":"address"}],"anonymous":false},{"type":"error","name":"OwnableInvalidOwner","inputs":[{"name":"owner","type":"address","internalType":"address"}]},{"type":"error","name":"OwnableUnauthorizedAccount","inputs":[{"name":"account","type":"address","internalType":"address"}]},{"type":"error","name":"ReentrancyGuardReentrantCall","inputs":[]}],"bytecode":{"object":"0x608060405234801561000f575f5ffd5b506040516129b23803806129b283398101604081905261002e91610160565b338061005357604051631e4fbdf760e01b81525f600482015260240160405180910390fd5b61005c816100f6565b5060018055600380546001600160a01b039586166001600160a01b03199182161790915560048054948616948216949094179093556005805492851692841692909217909155600280549190931691161790555f8052600660205268056bc75e2d631000007f54cdd369e4e8a8515e52ca72ec816c2101831ad1f18bf44102ed171459c9b4f85569021e19e0c9bab24000006008556101b1565b5f80546001600160a01b038381166001600160a01b0319831681178455604051919092169283917f8be0079c531659141344cd1fd0a4f28419497f9722a3daafe3b4186f6b6457e09190a35050565b80516001600160a01b038116811461015b575f5ffd5b919050565b5f5f5f5f60808587031215610173575f5ffd5b61017c85610145565b935061018a60208601610145565b925061019860408601610145565b91506101a660608601610145565b905092959194509250565b6127f4806101be5f395ff3fe608060405234801561000f575f5ffd5b50600436106101e7575f3560e01c80637247959a11610109578063c54e44eb1161009e578063dcdcd08c1161006e578063dcdcd08c146104f3578063e10d29ee14610513578063f2fde38b14610526578063f67dae2314610539575f5ffd5b8063c54e44eb14610462578063cbd2fbe114610475578063d3dc753914610497578063d913d514146104aa575f5ffd5b8063a652a02a116100d9578063a652a02a146103ec578063a684db3a1461040b578063a80a3baa1461041e578063c2cfe4cb1461043f575f5ffd5b80637247959a1461039e5780638da5cb5b146103b15780639f058d49146103c1578063a28f8432146103d4575f5ffd5b80632e586cab1161017f5780634bedf3691161014f5780634bedf3691461030b57806361d027b31461036357806363c69f0814610376578063715018a614610396575f5ffd5b80632e586cab146102b25780633141e25b146102d2578063379607f5146102e55780633f045b40146102f8575f5ffd5b80631c54a0d4116101ba5780631c54a0d41461025957806321874ae21461026c57806327ed7188146102905780632e17de781461029f575f5ffd5b806301d1a559146101eb57806310087fb11461020757806310b5a38e1461021c578063187ed5b114610239575b5f5ffd5b6101f460085481565b6040519081526020015b60405180910390f35b61021a610215366004611c97565b610561565b005b61022461076a565b604080519283526020830191909152016101fe565b6102416107dd565b6040516001600160a01b0390911681526020016101fe565b61021a610267366004611c97565b61084d565b61027f61027a366004611cd9565b6108c7565b6040516101fe959493929190611cf4565b6101f4671bc16d674ec8000081565b61021a6102ad366004611d46565b61094e565b6102c56102c0366004611cd9565b6109c3565b6040516101fe9190611d5d565b61021a6102e0366004611d9f565b610a3d565b61021a6102f3366004611d46565b610a84565b61021a610306366004611d46565b610ac4565b61031e610319366004611d46565b610b20565b604080516001600160a01b03909816885260208801969096529486019390935260ff9182166060860152608085015290151560a08401521660c082015260e0016101fe565b600354610241906001600160a01b031681565b610389610384366004611cd9565b610bb0565b6040516101fe9190611de7565b61021a610c1f565b61021a6103ac366004611cd9565b610c32565b5f546001600160a01b0316610241565b6102246103cf366004611cd9565b610d08565b6103dc610d82565b6040516101fe9493929190611f29565b6101f46103fa366004611d46565b60066020525f908152604090205481565b61021a610419366004611d46565b610e04565b61043161042c366004611f77565b610e44565b6040516101fe929190611fa1565b61045261044d366004611cd9565b611192565b60405190151581526020016101fe565b600254610241906001600160a01b031681565b610452610483366004611cd9565b60076020525f908152604090205460ff1681565b600554610241906001600160a01b031681565b6104bd6104b8366004612017565b61120e565b6040805163ffffffff9586168152938516602085015291909316908201526001600160401b0390911660608201526080016101fe565b610506610501366004611cd9565b611292565b6040516101fe9190612032565b600454610241906001600160a01b031681565b61021a610534366004611cd9565b611301565b61054161133b565b6040805194855260208501939093529183015260608201526080016101fe565b6105696113b3565b8160085410156105b85760405162461bcd60e51b815260206004820152601560248201527422a92927a92fa9aa20a5a4a723afa0a6a7aaa72a1760591b60448201526064015b60405180910390fd5b60048160ff16106106005760405162461bcd60e51b815260206004820152601260248201527122a92927a92fa9aa20a5a2afa4a72222ac1760711b60448201526064016105af565b60ff81165f90815260066020526040902054801561065857828110156106585760405162461bcd60e51b815260206004820152600d60248201526c22a92927a92fa0a6a7aaa72a1760991b60448201526064016105af565b8160ff165f036106d457335f9081526007602052604090205460ff16156106ba5760405162461bcd60e51b81526020600482015260166024820152752224a9a0a62627aba2a22fa7a92222a92faa2ca8229760511b60448201526064016105af565b335f908152600760205260409020805460ff191660011790555b6002546004546106f3916001600160a01b0390811691339116866113dd565b6004805460405163031a0e0360e51b815233928101929092526024820185905260ff841660448301526001600160a01b031690636341c060906064015f604051808303815f87803b158015610746575f5ffd5b505af1158015610758573d5f5f3e3d5ffd5b505050505061076660018055565b5050565b600480546040805163085ad1c760e11b815281515f9485946001600160a01b0316936310b5a38e93808301939192908290030181865afa1580156107b0573d5f5f3e3d5ffd5b505050506040513d601f19601f820116820180604052508101906107d4919061208b565b90939092509050565b6005546040805163187ed5b160e01b815290515f926001600160a01b03169163187ed5b19160048083019260209291908290030181865afa158015610824573d5f5f3e3d5ffd5b505050506040513d601f19601f8201168201806040525081019061084891906120ad565b905090565b6108556113b3565b60048054604051631bd8358960e31b815233928101929092526024820184905260ff831660448301526001600160a01b03169063dec1ac48906064015f604051808303815f87803b1580156108a8575f5ffd5b505af11580156108ba573d5f5f3e3d5ffd5b5050505061076660018055565b600554604051631caa058560e11b81526001600160a01b0383811660048301525f9283928392839283929116906339540b0a9060240160a060405180830381865afa158015610918573d5f5f3e3d5ffd5b505050506040513d601f19601f8201168201806040525081019061093c91906120c8565b939a9299509097509550909350915050565b6109566113b3565b60048054604051630615339760e51b81523392810192909252602482018390526001600160a01b03169063c2a672e0906044015b5f604051808303815f87803b1580156109a1575f5ffd5b505af11580156109b3573d5f5f3e3d5ffd5b505050506109c060018055565b50565b60048054604051632e586cab60e01b81526001600160a01b038481169382019390935260609290911690632e586cab906024015f60405180830381865afa158015610a10573d5f5f3e3d5ffd5b505050506040513d5f823e601f3d908101601f19168201604052610a3791908101906121dc565b92915050565b610a45611508565b600380546001600160a01b039485166001600160a01b031991821617909155600480549385169382169390931790925560058054919093169116179055565b610a8c6113b3565b60048054604051635569f64b60e11b81523392810192909252602482018390526001600160a01b03169063aad3ec969060440161098a565b610acc611508565b68056bc75e2d63100000811015610b1b5760405162461bcd60e51b815260206004820152601360248201527222a92927a92fa0a6a7aaa72a2fa624a6a4aa1760691b60448201526064016105af565b600855565b60048054604051631e186afb60e01b81529182018390525f918291829182918291829182916001600160a01b0390911690631e186afb9060240160e060405180830381865afa158015610b75573d5f5f3e3d5ffd5b505050506040513d601f19601f82011682018060405250810190610b999190612286565b959e949d50929b5090995097509550909350915050565b600354604051630c78d3e160e31b81526001600160a01b03838116600483015260609216906363c69f08906024015f60405180830381865afa158015610bf8573d5f5f3e3d5ffd5b505050506040513d5f823e601f3d908101601f19168201604052610a379190810190612326565b610c27611508565b610c305f611534565b565b610c3a6113b3565b6001600160a01b038116610c805760405162461bcd60e51b815260206004820152600d60248201526c2d32b9379030b2323932b9b99760991b60448201526064016105af565b336001600160a01b03821603610cd05760405162461bcd60e51b815260206004820152601560248201527422b93937b9103830b932b73a1030b2323932b9b99760591b60448201526064016105af565b600554604051631c505d1d60e01b81526001600160a01b03838116600483015233602483015290911690631c505d1d9060440161098a565b6004805460405163042e8c4d60e31b81526001600160a01b03848116938201939093525f92839216906321746268906024016040805180830381865afa158015610d54573d5f5f3e3d5ffd5b505050506040513d601f19601f82011682018060405250810190610d78919061208b565b9094909350915050565b5f610d8b611c6a565b600480546040805163a32bf59760e01b815290515f9384936001600160a01b03169263a32bf5979281830192610300928290030181865afa158015610dd2573d5f5f3e3d5ffd5b505050506040513d601f19601f82011682018060405250810190610df69190612482565b929791965094509092509050565b610e0c6113b3565b6004805460405163a05a9e1360e01b81523392810192909252602482018390526001600160a01b03169063a05a9e139060440161098a565b60408051610100810182525f80825260208201819052918101829052606081018290526080810182905260a0810182905260c0810182905260e08101829052600354604051630c78d3e160e31b81526001600160a01b0386811660048301525f9216906363c69f08906024015f60405180830381865afa158015610eca573d5f5f3e3d5ffd5b505050506040513d5f823e601f3d908101601f19168201604052610ef19190810190612326565b8481518110610f0257610f0261251d565b60209081029190910101516003546080820151604051634640ed5f60e11b815260ff90911660048201529192505f918291829182916001600160a01b031690638c81dabe90602401608060405180830381865afa158015610f65573d5f5f3e3d5ffd5b505050506040513d601f19601f82011682018060405250810190610f899190612547565b93509350935093505f60405180608001604052808663ffffffff1681526020018563ffffffff1681526020018463ffffffff168152602001836001600160401b031681525090505f60035f9054906101000a90046001600160a01b03166001600160a01b0316635c975abb6040518163ffffffff1660e01b8152600401602060405180830381865afa158015611021573d5f5f3e3d5ffd5b505050506040513d601f19601f820116820180604052508101906110459190612598565b90505f60035f9054906101000a90046001600160a01b03166001600160a01b031663015cb3ff6040518163ffffffff1660e01b8152600401602060405180830381865afa158015611098573d5f5f3e3d5ffd5b505050506040513d601f19601f820116820180604052508101906110bc91906125b1565b90505f60035f9054906101000a90046001600160a01b03166001600160a01b03166311d72f1c6040518163ffffffff1660e01b8152600401602060405180830381865afa15801561110f573d5f5f3e3d5ffd5b505050506040513d601f19601f8201168201806040525081019061113391906125ca565b90506111518985428563ffffffff16856001600160401b0316611583565b9a505f8960800151600161116591906125f7565b905061117f8a8642878786886001600160401b0316611605565b9a50505050505050505050509250929050565b600554604051631caa058560e11b81526001600160a01b0383811660048301525f9283929116906339540b0a9060240160a060405180830381865afa1580156111dd573d5f5f3e3d5ffd5b505050506040513d601f19601f8201168201806040525081019061120191906120c8565b5015159695505050505050565b600354604051634640ed5f60e11b815260ff831660048201525f918291829182916001600160a01b0390911690638c81dabe90602401608060405180830381865afa15801561125f573d5f5f3e3d5ffd5b505050506040513d601f19601f820116820180604052508101906112839190612547565b92989197509550909350915050565b600554604051633737342360e21b81526001600160a01b038381166004830152606092169063dcdcd08c906024015f60405180830381865afa1580156112da573d5f5f3e3d5ffd5b505050506040513d5f823e601f3d908101601f19168201604052610a379190810190612610565b611309611508565b6001600160a01b03811661133257604051631e4fbdf760e01b81525f60048201526024016105af565b6109c081611534565b5f5f5f5f60045f9054906101000a90046001600160a01b03166001600160a01b031663e4c2ab716040518163ffffffff1660e01b8152600401608060405180830381865afa15801561138f573d5f5f3e3d5ffd5b505050506040513d601f19601f82011682018060405250810190610df691906126ce565b6002600154036113d657604051633ee5aeb560e01b815260040160405180910390fd5b6002600155565b604080516001600160a01b0385811660248301528481166044830152606480830185905283518084039091018152608490920183526020820180516001600160e01b03166323b872dd60e01b17905291515f928392908816916114409190612701565b5f604051808303815f865af19150503d805f8114611479576040519150601f19603f3d011682016040523d82523d5f602084013e61147e565b606091505b50915091508180156114a85750805115806114a85750808060200190518101906114a89190612598565b6115005760405162461bcd60e51b8152602060048201526024808201527f5472616e7366657248656c7065723a205452414e534645525f46524f4d5f46416044820152631253115160e21b60648201526084016105af565b505050505050565b5f546001600160a01b03163314610c305760405163118cdaa760e01b81523360048201526024016105af565b5f80546001600160a01b038381166001600160a01b0319831681178455604051919092169283917f8be0079c531659141344cd1fd0a4f28419497f9722a3daafe3b4186f6b6457e09190a35050565b5f5f61159187878787611842565b90505f61159f88878661191d565b90505f6115ac8284612717565b90505f8961010001516001600160801b03168a602001516001600160801b03166115d69190612717565b90508082116115eb575f9450505050506115fc565b6115f5818361272a565b9450505050505b95945050505050565b60408051610100810182525f80825260208201819052918101829052606081018290526080810182905260a0810182905260c0810182905260e08101919091526060880151875163ffffffff918216915f91611662911683612717565b90505f611673836301e13380612717565b905087801561169157508663ffffffff168b60c0015163ffffffff16105b151560a085018190525f906116be908d908d908d906116b0575f6116b2565b8b5b63ffffffff168a611583565b90508460a00151156116ed5760a08c015160ff161580156116de57505f81115b151560408601525f85526117ed565b5f6116fa8d8d8d5f6119bf565b90508c60a0015160ff165f14801561170f5750805b801561171a57505f82115b158015604088015261172e575f86526117eb565b828b111561173f575f1986526117eb565b5f858c1161174d575f611757565b611757868d61272a565b90505f8d6020015163ffffffff16826117709190612751565b90505f8e602001518f5f01516117869190612764565b63ffffffff16905080821061179e575f1989526117e7565b60208f01515f9063ffffffff166117b6846001612717565b6117c0919061278b565b6117ca908a612717565b90508e81116117d9575f6117e3565b6117e38f8261272a565b8a52505b5050505b505b5f6117fb8d8d8d8d8d611b02565b80511515606088015260208082015190880152905061181e8d8d8d8d8d8d611bfe565b151560808701525050881160c08401529096101560e0820152979650505050505050565b5f8460a0015160ff165f1461185857505f611915565b8351606086015184915f9161186d91906127a2565b63ffffffff16905080821115611881578091505b5f8411801561188f57508382115b15611898578391505b866060015163ffffffff1682116118b3575f92505050611915565b5f876060015163ffffffff16836118ca919061272a565b9050670de0b6b3a764000087606001516001600160401b0316828a5f01516001600160801b03166118fb919061278b565b611905919061278b565b61190f9190612751565b93505050505b949350505050565b5f83610120015163ffffffff165f0361193757505f6119b8565b5f6201518085610120015163ffffffff1685611953919061272a565b61195d9190612751565b90505f61196a848361278b565b9050670de0b6b3a76400008111156119875750670de0b6b3a76400005b670de0b6b3a7640000818760e001516001600160801b03166119a9919061278b565b6119b39190612751565b925050505b9392505050565b5f81156119ce57506001611915565b6060850151845163ffffffff918216915f916119eb911683612717565b9050856040015163ffffffff1681611a039190612717565b851115611a14575f92505050611915565b6020860151611a299063ffffffff1683612717565b851015611a3a575f92505050611915565b5f611a45838761272a565b90505f876020015163ffffffff1682611a5e9190612751565b90505f8860200151895f0151611a749190612764565b63ffffffff16905080821115611a88578091505b896040015163ffffffff168211611aa6575f95505050505050611915565b5f896020015163ffffffff1683611abd919061278b565b611ac79087612717565b90505f8a6040015163ffffffff1682611ae09190612717565b9050818a10158015611af25750808a11155b9c9b505050505050505050505050565b604080516060810182525f8082526020820181905291810191909152828015611b3a57508163ffffffff168660c0015163ffffffff16105b1515604082015260a086015160ff1615611b63575f8082525f19602083015260408201526115fc565b806040015115611b7c575f81525f1960208201526115fc565b845160608701515f91611b8e916127a2565b63ffffffff1690505f87606001516301e13380611bab91906127a2565b63ffffffff16905081861015611bd2575f8352611bc8868361272a565b6020840152611bf3565b808611611be857600183525f6020840152611bf3565b5f83525f1960208401525b505095945050505050565b5f5f611c0d8888888888611b02565b8051909150611c1f575f915050611c60565b608088015160ff1615611c32575f611c35565b60015b8860800151611c4491906125f7565b60ff168360ff161015611c5a575f915050611c60565b60019150505b9695505050505050565b604051806102a001604052806015906020820280368337509192915050565b60ff811681146109c0575f5ffd5b5f5f60408385031215611ca8575f5ffd5b823591506020830135611cba81611c89565b809150509250929050565b6001600160a01b03811681146109c0575f5ffd5b5f60208284031215611ce9575f5ffd5b81356119b881611cc5565b6001600160a01b038616815260a0810160088610611d2057634e487b7160e01b5f52602160045260245ffd5b85602083015261ffff851660408301528360608301528260808301529695505050505050565b5f60208284031215611d56575f5ffd5b5035919050565b602080825282518282018190525f918401906040840190835b81811015611d94578351835260209384019390920191600101611d76565b509095945050505050565b5f5f5f60608486031215611db1575f5ffd5b8335611dbc81611cc5565b92506020840135611dcc81611cc5565b91506040840135611ddc81611cc5565b809150509250925092565b602080825282518282018190525f918401906040840190835b81811015611d9457835180516001600160801b031684526020810151611e3160208601826001600160801b03169052565b506040810151611e49604086018263ffffffff169052565b506060810151611e61606086018263ffffffff169052565b506080810151611e76608086018260ff169052565b5060a0810151611e8b60a086018260ff169052565b5060c0810151611ea360c086018263ffffffff169052565b5060e0810151611ebe60e08601826001600160801b03169052565b50610100810151611edb6101008601826001600160801b03169052565b50610120810151611ef561012086018263ffffffff169052565b506101408101519050611f1161014085018263ffffffff169052565b50602093909301926101609290920191600101611e00565b848152610300810160208201855f5b6015811015611f605781516001600160a01b0316835260209283019290910190600101611f38565b5050506102c08201939093526102e0015292915050565b5f5f60408385031215611f88575f5ffd5b8235611f9381611cc5565b946020939093013593505050565b5f6101208201905083825282516020830152602083015160408301526040830151151560608301526060830151151560808301526080830151151560a083015260a0830151611ff460c084018215159052565b5060c0830151151560e08381019190915290920151151561010090910152919050565b5f60208284031215612027575f5ffd5b81356119b881611c89565b602080825282518282018190525f918401906040840190835b81811015611d9457835180516001600160a01b0316845260208082015181860152604091820151918501919091529093019260609092019160010161204b565b5f5f6040838503121561209c575f5ffd5b505080516020909101519092909150565b5f602082840312156120bd575f5ffd5b81516119b881611cc5565b5f5f5f5f5f60a086880312156120dc575f5ffd5b85516120e781611cc5565b6020870151909550600881106120fb575f5ffd5b604087015190945061ffff81168114612112575f5ffd5b6060870151608090970151959894975095949392505050565b634e487b7160e01b5f52604160045260245ffd5b60405161016081016001600160401b03811182821017156121625761216261212b565b60405290565b604051606081016001600160401b03811182821017156121625761216261212b565b604051601f8201601f191681016001600160401b03811182821017156121b2576121b261212b565b604052919050565b5f6001600160401b038211156121d2576121d261212b565b5060051b60200190565b5f602082840312156121ec575f5ffd5b81516001600160401b03811115612201575f5ffd5b8201601f81018413612211575f5ffd5b805161222461221f826121ba565b61218a565b8082825260208201915060208360051b850101925086831115612245575f5ffd5b6020840193505b82841015611c6057835182526020938401939091019061224c565b805161227281611c89565b919050565b80518015158114612272575f5ffd5b5f5f5f5f5f5f5f60e0888a03121561229c575f5ffd5b87516122a781611cc5565b602089015160408a015160608b015192995090975095506122c781611c89565b608089015190945092506122dd60a08901612277565b915060c08801516122ed81611c89565b8091505092959891949750929550565b80516001600160801b0381168114612272575f5ffd5b805163ffffffff81168114612272575f5ffd5b5f60208284031215612336575f5ffd5b81516001600160401b0381111561234b575f5ffd5b8201601f8101841361235b575f5ffd5b805161236961221f826121ba565b808282526020820191506020610160840285010192508683111561238b575f5ffd5b6020840193505b82841015611c605761016084880312156123aa575f5ffd5b6123b261213f565b6123bb856122fd565b81526123c9602086016122fd565b60208201526123da60408601612313565b60408201526123eb60608601612313565b60608201526123fc60808601612267565b608082015261240d60a08601612267565b60a082015261241e60c08601612313565b60c082015261242f60e086016122fd565b60e082015261244161010086016122fd565b6101008201526124546101208601612313565b6101208201526124676101408601612313565b61014082015282526101609390930192602090910190612392565b5f5f5f5f6103008587031215612496575f5ffd5b84519350603f850186136124a8575f5ffd5b6040516102a081016001600160401b03811182821017156124cb576124cb61212b565b604052806102c08701888111156124e0575f5ffd5b602088015b818110156125065780516124f881611cc5565b8352602092830192016124e5565b50516102e097909701519598919750909350505050565b634e487b7160e01b5f52603260045260245ffd5b80516001600160401b0381168114612272575f5ffd5b5f5f5f5f6080858703121561255a575f5ffd5b61256385612313565b935061257160208601612313565b925061257f60408601612313565b915061258d60608601612531565b905092959194509250565b5f602082840312156125a8575f5ffd5b6119b882612277565b5f602082840312156125c1575f5ffd5b6119b882612313565b5f602082840312156125da575f5ffd5b6119b882612531565b634e487b7160e01b5f52601160045260245ffd5b60ff8181168382160190811115610a3757610a376125e3565b5f60208284031215612620575f5ffd5b81516001600160401b03811115612635575f5ffd5b8201601f81018413612645575f5ffd5b805161265361221f826121ba565b80828252602082019150602060608402850101925086831115612674575f5ffd5b6020840193505b82841015611c605760608488031215612692575f5ffd5b61269a612168565b84516126a581611cc5565b81526020858101518183015260408087015190830152908352606090940193919091019061267b565b5f5f5f5f608085870312156126e1575f5ffd5b505082516020840151604085015160609095015191969095509092509050565b5f82518060208501845e5f920191825250919050565b80820180821115610a3757610a376125e3565b81810381811115610a3757610a376125e3565b634e487b7160e01b5f52601260045260245ffd5b5f8261275f5761275f61273d565b500490565b5f63ffffffff8316806127795761277961273d565b8063ffffffff84160491505092915050565b8082028115828204841417610a3757610a376125e3565b63ffffffff8181168382160190811115610a3757610a376125e356fea2646970667358221220201d0dcb6d416264be7548466a415b82dbd2a91a38af6e3eb1aefae20e66e52864736f6c634300081e0033","linkReferences":{}},"methodIdentifiers":{"MIN_STAKE_AMOUNT()":"27ed7188","USDT()":"c54e44eb","alreadyExistsUser(address)":"cbd2fbe1","cancelQueue(uint256)":"a684db3a","claim(uint256)":"379607f5","getCurrentQuota()":"f67dae23","getDirectReferralInfo(address)":"dcdcd08c","getFomoAwardsInfo(address)":"9f058d49","getFomoInfo()":"a28f8432","getOrderStatus(address,uint256)":"a80a3baa","getQueueInfo(uint256)":"4bedf369","getQueueRange()":"10b5a38e","getReferralInfo(address)":"21874ae2","getStakePlans(uint8)":"d913d514","getUserOrders(address)":"63c69f08","getUserQueueIds(address)":"2e586cab","maxValueOfStakeIndex(uint256)":"a652a02a","owner()":"8da5cb5b","queue()":"e10d29ee","referral(address)":"7247959a","referrals()":"d3dc7539","renounceOwnership()":"715018a6","restake(uint256,uint8)":"1c54a0d4","rootAddr()":"187ed5b1","setAmountLimit(uint256)":"3f045b40","setConfig(address,address,address)":"3141e25b","stake(uint256,uint8)":"10087fb1","stakingAmountLimit()":"01d1a559","transferOwnership(address)":"f2fde38b","treasury()":"61d027b3","unstake(uint256)":"2e17de78","verifyReferralCode(address)":"c2cfe4cb"},"id":50}