{"abi":[{"type":"constructor","inputs":[{"name":"_treasury","type":"address","internalType":"address"},{"name":"_queue","type":"address","internalType":"address"},{"name":"_referrals","type":"address","internalType":"address"},{"name":"_USDT","type":"address","internalType":"address"}],"stateMutability":"nonpayable"},{"type":"function","name":"MIN_STAKE_AMOUNT","inputs":[],"outputs":[{"name":"","type":"uint256","internalType":"uint256"}],"stateMutability":"view"},{"type":"function","name":"USDT","inputs":[],"outputs":[{"name":"","type":"address","internalType":"address"}],"stateMutability":"view"},{"type":"function","name":"alreadyExistsUser","inputs":[{"name":"","type":"address","internalType":"address"}],"outputs":[{"name":"","type":"bool","internalType":"bool"}],"stateMutability":"view"},{"type":"function","name":"cancelQueue","inputs":[{"name":"queueOrderId","type":"uint256","internalType":"uint256"}],"outputs":[],"stateMutability":"nonpayable"},{"type":"function","name":"claim","inputs":[{"name":"orderIndex","type":"uint256","internalType":"uint256"}],"outputs":[],"stateMutability":"nonpayable"},{"type":"function","name":"getCurrentQuota","inputs":[],"outputs":[{"name":"stakeUsed","type":"uint256","internalType":"uint256"},{"name":"stakeRemaining","type":"uint256","internalType":"uint256"},{"name":"unstakeUsed","type":"uint256","internalType":"uint256"},{"name":"unstakeRemaining","type":"uint256","internalType":"uint256"}],"stateMutability":"view"},{"type":"function","name":"getDirectReferralInfo","inputs":[{"name":"user","type":"address","internalType":"address"}],"outputs":[{"name":"","type":"tuple[]","internalType":"struct Models.DirectReferral[]","components":[{"name":"user","type":"address","internalType":"address"},{"name":"staked","type":"uint256","internalType":"uint256"},{"name":"performance","type":"uint256","internalType":"uint256"}]}],"stateMutability":"view"},{"type":"function","name":"getFomoInfo","inputs":[],"outputs":[{"name":"roundId","type":"uint256","internalType":"uint256"},{"name":"lastQualified","type":"address[21]","internalType":"address[21]"},{"name":"count","type":"uint256","internalType":"uint256"},{"name":"poolBalance","type":"uint256","internalType":"uint256"}],"stateMutability":"view"},{"type":"function","name":"getOrderStatus","inputs":[{"name":"user","type":"address","internalType":"address"},{"name":"orderIndex","type":"uint256","internalType":"uint256"}],"outputs":[{"name":"truthAward","type":"uint256","internalType":"uint256"},{"name":"result","type":"tuple","internalType":"struct Models.RuleResult","components":[{"name":"claimCountdown","type":"uint256","internalType":"uint256"},{"name":"unstakeCountdown","type":"uint256","internalType":"uint256"},{"name":"canClaim","type":"bool","internalType":"bool"},{"name":"canUnstake","type":"bool","internalType":"bool"},{"name":"canRestake","type":"bool","internalType":"bool"},{"name":"isFrozen","type":"bool","internalType":"bool"},{"name":"isExpired","type":"bool","internalType":"bool"},{"name":"isMatured","type":"bool","internalType":"bool"}]}],"stateMutability":"view"},{"type":"function","name":"getQueueInfo","inputs":[{"name":"queueId","type":"uint256","internalType":"uint256"}],"outputs":[{"name":"user","type":"address","internalType":"address"},{"name":"amount","type":"uint256","internalType":"uint256"},{"name":"orderIndex","type":"uint256","internalType":"uint256"},{"name":"stakeIndex","type":"uint8","internalType":"uint8"},{"name":"createdAt","type":"uint256","internalType":"uint256"},{"name":"isRestake","type":"bool","internalType":"bool"},{"name":"status","type":"uint8","internalType":"uint8"}],"stateMutability":"view"},{"type":"function","name":"getQueueRange","inputs":[],"outputs":[{"name":"head","type":"uint256","internalType":"uint256"},{"name":"tail","type":"uint256","internalType":"uint256"}],"stateMutability":"view"},{"type":"function","name":"getReferralInfo","inputs":[{"name":"user","type":"address","internalType":"address"}],"outputs":[{"name":"parent","type":"address","internalType":"address"},{"name":"level","type":"uint8","internalType":"enum Models.LevelType"},{"name":"referralNum","type":"uint16","internalType":"uint16"},{"name":"totalStaked","type":"uint256","internalType":"uint256"},{"name":"performance","type":"uint256","internalType":"uint256"}],"stateMutability":"view"},{"type":"function","name":"getStakePlans","inputs":[{"name":"stakeIndex","type":"uint8","internalType":"uint8"}],"outputs":[{"name":"duration","type":"uint32","internalType":"uint32"},{"name":"claimInterval","type":"uint32","internalType":"uint32"},{"name":"window","type":"uint32","internalType":"uint32"},{"name":"rate","type":"uint64","internalType":"uint64"}],"stateMutability":"view"},{"type":"function","name":"getUserOrders","inputs":[{"name":"user","type":"address","internalType":"address"}],"outputs":[{"name":"","type":"tuple[]","internalType":"struct Models.Order[]","components":[{"name":"amount","type":"uint128","internalType":"uint128"},{"name":"claimed","type":"uint128","internalType":"uint128"},{"name":"claimedPeriods","type":"uint32","internalType":"uint32"},{"name":"startTime","type":"uint32","internalType":"uint32"},{"name":"stakeIndex","type":"uint8","internalType":"uint8"},{"name":"status","type":"uint8","internalType":"uint8"},{"name":"createdAt","type":"uint32","internalType":"uint32"},{"name":"frozenReward","type":"uint128","internalType":"uint128"},{"name":"frozenClaimed","type":"uint128","internalType":"uint128"},{"name":"freezeStart","type":"uint32","internalType":"uint32"},{"name":"freezeRound","type":"uint32","internalType":"uint32"}]}],"stateMutability":"view"},{"type":"function","name":"getUserQueueIds","inputs":[{"name":"user","type":"address","internalType":"address"}],"outputs":[{"name":"","type":"uint256[]","internalType":"uint256[]"}],"stateMutability":"view"},{"type":"function","name":"maxValueOfStakeIndex","inputs":[{"name":"","type":"uint256","internalType":"uint256"}],"outputs":[{"name":"","type":"uint256","internalType":"uint256"}],"stateMutability":"view"},{"type":"function","name":"owner","inputs":[],"outputs":[{"name":"","type":"address","internalType":"address"}],"stateMutability":"view"},{"type":"function","name":"queue","inputs":[],"outputs":[{"name":"","type":"address","internalType":"address"}],"stateMutability":"view"},{"type":"function","name":"referral","inputs":[{"name":"parent","type":"address","internalType":"address"}],"outputs":[],"stateMutability":"nonpayable"},{"type":"function","name":"referrals","inputs":[],"outputs":[{"name":"","type":"address","internalType":"address"}],"stateMutability":"view"},{"type":"function","name":"renounceOwnership","inputs":[],"outputs":[],"stateMutability":"nonpayable"},{"type":"function","name":"restake","inputs":[{"name":"orderIndex","type":"uint256","internalType":"uint256"},{"name":"newStakeIndex","type":"uint8","internalType":"uint8"}],"outputs":[],"stateMutability":"nonpayable"},{"type":"function","name":"rootAddr","inputs":[],"outputs":[{"name":"","type":"address","internalType":"address"}],"stateMutability":"view"},{"type":"function","name":"setAmountLimit","inputs":[{"name":"amount","type":"uint256","internalType":"uint256"}],"outputs":[],"stateMutability":"nonpayable"},{"type":"function","name":"setConfig","inputs":[{"name":"_treasury","type":"address","internalType":"address"},{"name":"_queue","type":"address","internalType":"address"},{"name":"_referrals","type":"address","internalType":"address"}],"outputs":[],"stateMutability":"nonpayable"},{"type":"function","name":"stake","inputs":[{"name":"amount","type":"uint256","internalType":"uint256"},{"name":"stakeIndex","type":"uint8","internalType":"uint8"}],"outputs":[],"stateMutability":"nonpayable"},{"type":"function","name":"stakingAmountLimit","inputs":[],"outputs":[{"name":"","type":"uint256","internalType":"uint256"}],"stateMutability":"view"},{"type":"function","name":"transferOwnership","inputs":[{"name":"newOwner","type":"address","internalType":"address"}],"outputs":[],"stateMutability":"nonpayable"},{"type":"function","name":"treasury","inputs":[],"outputs":[{"name":"","type":"address","internalType":"address"}],"stateMutability":"view"},{"type":"function","name":"unstake","inputs":[{"name":"orderIndex","type":"uint256","internalType":"uint256"}],"outputs":[],"stateMutability":"nonpayable"},{"type":"function","name":"verifyReferralCode","inputs":[{"name":"user","type":"address","internalType":"address"}],"outputs":[{"name":"","type":"bool","internalType":"bool"}],"stateMutability":"view"},{"type":"event","name":"OwnershipTransferred","inputs":[{"name":"previousOwner","type":"address","indexed":true,"internalType":"address"},{"name":"newOwner","type":"address","indexed":true,"internalType":"address"}],"anonymous":false},{"type":"error","name":"OwnableInvalidOwner","inputs":[{"name":"owner","type":"address","internalType":"address"}]},{"type":"error","name":"OwnableUnauthorizedAccount","inputs":[{"name":"account","type":"address","internalType":"address"}]},{"type":"error","name":"ReentrancyGuardReentrantCall","inputs":[]}],"bytecode":{"object":"0x608060405234801561000f575f5ffd5b5060405161291a38038061291a83398101604081905261002e91610160565b338061005357604051631e4fbdf760e01b81525f600482015260240160405180910390fd5b61005c816100f6565b5060018055600380546001600160a01b039586166001600160a01b03199182161790915560048054948616948216949094179093556005805492851692841692909217909155600280549190931691161790555f8052600660205268056bc75e2d631000007f54cdd369e4e8a8515e52ca72ec816c2101831ad1f18bf44102ed171459c9b4f85569021e19e0c9bab24000006008556101b1565b5f80546001600160a01b038381166001600160a01b0319831681178455604051919092169283917f8be0079c531659141344cd1fd0a4f28419497f9722a3daafe3b4186f6b6457e09190a35050565b80516001600160a01b038116811461015b575f5ffd5b919050565b5f5f5f5f60808587031215610173575f5ffd5b61017c85610145565b935061018a60208601610145565b925061019860408601610145565b91506101a660608601610145565b905092959194509250565b61275c806101be5f395ff3fe608060405234801561000f575f5ffd5b50600436106101dc575f3560e01c8063715018a611610109578063c54e44eb1161009e578063dcdcd08c1161006e578063dcdcd08c146104d5578063e10d29ee146104f5578063f2fde38b14610508578063f67dae231461051b575f5ffd5b8063c54e44eb14610444578063cbd2fbe114610457578063d3dc753914610479578063d913d5141461048c575f5ffd5b8063a652a02a116100d9578063a652a02a146103ce578063a684db3a146103ed578063a80a3baa14610400578063c2cfe4cb14610421575f5ffd5b8063715018a61461038b5780637247959a146103935780638da5cb5b146103a6578063a28f8432146103b6575f5ffd5b80632e17de781161017f5780633f045b401161014f5780633f045b40146102ed5780634bedf3691461030057806361d027b31461035857806363c69f081461036b575f5ffd5b80632e17de78146102945780632e586cab146102a75780633141e25b146102c7578063379607f5146102da575f5ffd5b8063187ed5b1116101ba578063187ed5b11461022e5780631c54a0d41461024e57806321874ae21461026157806327ed718814610285575f5ffd5b806301d1a559146101e057806310087fb1146101fc57806310b5a38e14610211575b5f5ffd5b6101e960085481565b6040519081526020015b60405180910390f35b61020f61020a366004611bff565b610543565b005b61021961074c565b604080519283526020830191909152016101f3565b6102366107bf565b6040516001600160a01b0390911681526020016101f3565b61020f61025c366004611bff565b61082f565b61027461026f366004611c41565b6108a9565b6040516101f3959493929190611c5c565b6101e9671bc16d674ec8000081565b61020f6102a2366004611cae565b610930565b6102ba6102b5366004611c41565b6109a5565b6040516101f39190611cc5565b61020f6102d5366004611d07565b610a1f565b61020f6102e8366004611cae565b610a66565b61020f6102fb366004611cae565b610aa6565b61031361030e366004611cae565b610b02565b604080516001600160a01b03909816885260208801969096529486019390935260ff9182166060860152608085015290151560a08401521660c082015260e0016101f3565b600354610236906001600160a01b031681565b61037e610379366004611c41565b610b92565b6040516101f39190611d4f565b61020f610c01565b61020f6103a1366004611c41565b610c14565b5f546001600160a01b0316610236565b6103be610cea565b6040516101f39493929190611e91565b6101e96103dc366004611cae565b60066020525f908152604090205481565b61020f6103fb366004611cae565b610d6c565b61041361040e366004611edf565b610dac565b6040516101f3929190611f09565b61043461042f366004611c41565b6110fa565b60405190151581526020016101f3565b600254610236906001600160a01b031681565b610434610465366004611c41565b60076020525f908152604090205460ff1681565b600554610236906001600160a01b031681565b61049f61049a366004611f7f565b611176565b6040805163ffffffff9586168152938516602085015291909316908201526001600160401b0390911660608201526080016101f3565b6104e86104e3366004611c41565b6111fa565b6040516101f39190611f9a565b600454610236906001600160a01b031681565b61020f610516366004611c41565b611269565b6105236112a3565b6040805194855260208501939093529183015260608201526080016101f3565b61054b61131b565b81600854101561059a5760405162461bcd60e51b815260206004820152601560248201527422a92927a92fa9aa20a5a4a723afa0a6a7aaa72a1760591b60448201526064015b60405180910390fd5b60048160ff16106105e25760405162461bcd60e51b815260206004820152601260248201527122a92927a92fa9aa20a5a2afa4a72222ac1760711b6044820152606401610591565b60ff81165f90815260066020526040902054801561063a578281101561063a5760405162461bcd60e51b815260206004820152600d60248201526c22a92927a92fa0a6a7aaa72a1760991b6044820152606401610591565b8160ff165f036106b657335f9081526007602052604090205460ff161561069c5760405162461bcd60e51b81526020600482015260166024820152752224a9a0a62627aba2a22fa7a92222a92faa2ca8229760511b6044820152606401610591565b335f908152600760205260409020805460ff191660011790555b6002546004546106d5916001600160a01b039081169133911686611345565b6004805460405163031a0e0360e51b815233928101929092526024820185905260ff841660448301526001600160a01b031690636341c060906064015f604051808303815f87803b158015610728575f5ffd5b505af115801561073a573d5f5f3e3d5ffd5b505050505061074860018055565b5050565b600480546040805163085ad1c760e11b815281515f9485946001600160a01b0316936310b5a38e93808301939192908290030181865afa158015610792573d5f5f3e3d5ffd5b505050506040513d601f19601f820116820180604052508101906107b69190611ff3565b90939092509050565b6005546040805163187ed5b160e01b815290515f926001600160a01b03169163187ed5b19160048083019260209291908290030181865afa158015610806573d5f5f3e3d5ffd5b505050506040513d601f19601f8201168201806040525081019061082a9190612015565b905090565b61083761131b565b60048054604051631bd8358960e31b815233928101929092526024820184905260ff831660448301526001600160a01b03169063dec1ac48906064015f604051808303815f87803b15801561088a575f5ffd5b505af115801561089c573d5f5f3e3d5ffd5b5050505061074860018055565b600554604051631caa058560e11b81526001600160a01b0383811660048301525f9283928392839283929116906339540b0a9060240160a060405180830381865afa1580156108fa573d5f5f3e3d5ffd5b505050506040513d601f19601f8201168201806040525081019061091e9190612030565b939a9299509097509550909350915050565b61093861131b565b60048054604051630615339760e51b81523392810192909252602482018390526001600160a01b03169063c2a672e0906044015b5f604051808303815f87803b158015610983575f5ffd5b505af1158015610995573d5f5f3e3d5ffd5b505050506109a260018055565b50565b60048054604051632e586cab60e01b81526001600160a01b038481169382019390935260609290911690632e586cab906024015f60405180830381865afa1580156109f2573d5f5f3e3d5ffd5b505050506040513d5f823e601f3d908101601f19168201604052610a199190810190612144565b92915050565b610a27611470565b600380546001600160a01b039485166001600160a01b031991821617909155600480549385169382169390931790925560058054919093169116179055565b610a6e61131b565b60048054604051635569f64b60e11b81523392810192909252602482018390526001600160a01b03169063aad3ec969060440161096c565b610aae611470565b68056bc75e2d63100000811015610afd5760405162461bcd60e51b815260206004820152601360248201527222a92927a92fa0a6a7aaa72a2fa624a6a4aa1760691b6044820152606401610591565b600855565b60048054604051631e186afb60e01b81529182018390525f918291829182918291829182916001600160a01b0390911690631e186afb9060240160e060405180830381865afa158015610b57573d5f5f3e3d5ffd5b505050506040513d601f19601f82011682018060405250810190610b7b91906121ee565b959e949d50929b5090995097509550909350915050565b600354604051630c78d3e160e31b81526001600160a01b03838116600483015260609216906363c69f08906024015f60405180830381865afa158015610bda573d5f5f3e3d5ffd5b505050506040513d5f823e601f3d908101601f19168201604052610a19919081019061228e565b610c09611470565b610c125f61149c565b565b610c1c61131b565b6001600160a01b038116610c625760405162461bcd60e51b815260206004820152600d60248201526c2d32b9379030b2323932b9b99760991b6044820152606401610591565b336001600160a01b03821603610cb25760405162461bcd60e51b815260206004820152601560248201527422b93937b9103830b932b73a1030b2323932b9b99760591b6044820152606401610591565b600554604051631c505d1d60e01b81526001600160a01b03838116600483015233602483015290911690631c505d1d9060440161096c565b5f610cf3611bd2565b600480546040805163a32bf59760e01b815290515f9384936001600160a01b03169263a32bf5979281830192610300928290030181865afa158015610d3a573d5f5f3e3d5ffd5b505050506040513d601f19601f82011682018060405250810190610d5e91906123ea565b929791965094509092509050565b610d7461131b565b6004805460405163a05a9e1360e01b81523392810192909252602482018390526001600160a01b03169063a05a9e139060440161096c565b60408051610100810182525f80825260208201819052918101829052606081018290526080810182905260a0810182905260c0810182905260e08101829052600354604051630c78d3e160e31b81526001600160a01b0386811660048301525f9216906363c69f08906024015f60405180830381865afa158015610e32573d5f5f3e3d5ffd5b505050506040513d5f823e601f3d908101601f19168201604052610e59919081019061228e565b8481518110610e6a57610e6a612485565b60209081029190910101516003546080820151604051634640ed5f60e11b815260ff90911660048201529192505f918291829182916001600160a01b031690638c81dabe90602401608060405180830381865afa158015610ecd573d5f5f3e3d5ffd5b505050506040513d601f19601f82011682018060405250810190610ef191906124af565b93509350935093505f60405180608001604052808663ffffffff1681526020018563ffffffff1681526020018463ffffffff168152602001836001600160401b031681525090505f60035f9054906101000a90046001600160a01b03166001600160a01b0316635c975abb6040518163ffffffff1660e01b8152600401602060405180830381865afa158015610f89573d5f5f3e3d5ffd5b505050506040513d601f19601f82011682018060405250810190610fad9190612500565b90505f60035f9054906101000a90046001600160a01b03166001600160a01b031663015cb3ff6040518163ffffffff1660e01b8152600401602060405180830381865afa158015611000573d5f5f3e3d5ffd5b505050506040513d601f19601f820116820180604052508101906110249190612519565b90505f60035f9054906101000a90046001600160a01b03166001600160a01b03166311d72f1c6040518163ffffffff1660e01b8152600401602060405180830381865afa158015611077573d5f5f3e3d5ffd5b505050506040513d601f19601f8201168201806040525081019061109b9190612532565b90506110b98985428563ffffffff16856001600160401b03166114eb565b9a505f896080015160016110cd919061255f565b90506110e78a8642878786886001600160401b031661156d565b9a50505050505050505050509250929050565b600554604051631caa058560e11b81526001600160a01b0383811660048301525f9283929116906339540b0a9060240160a060405180830381865afa158015611145573d5f5f3e3d5ffd5b505050506040513d601f19601f820116820180604052508101906111699190612030565b5015159695505050505050565b600354604051634640ed5f60e11b815260ff831660048201525f918291829182916001600160a01b0390911690638c81dabe90602401608060405180830381865afa1580156111c7573d5f5f3e3d5ffd5b505050506040513d601f19601f820116820180604052508101906111eb91906124af565b92989197509550909350915050565b600554604051633737342360e21b81526001600160a01b038381166004830152606092169063dcdcd08c906024015f60405180830381865afa158015611242573d5f5f3e3d5ffd5b505050506040513d5f823e601f3d908101601f19168201604052610a199190810190612578565b611271611470565b6001600160a01b03811661129a57604051631e4fbdf760e01b81525f6004820152602401610591565b6109a28161149c565b5f5f5f5f60045f9054906101000a90046001600160a01b03166001600160a01b031663e4c2ab716040518163ffffffff1660e01b8152600401608060405180830381865afa1580156112f7573d5f5f3e3d5ffd5b505050506040513d601f19601f82011682018060405250810190610d5e9190612636565b60026001540361133e57604051633ee5aeb560e01b815260040160405180910390fd5b6002600155565b604080516001600160a01b0385811660248301528481166044830152606480830185905283518084039091018152608490920183526020820180516001600160e01b03166323b872dd60e01b17905291515f928392908816916113a89190612669565b5f604051808303815f865af19150503d805f81146113e1576040519150601f19603f3d011682016040523d82523d5f602084013e6113e6565b606091505b50915091508180156114105750805115806114105750808060200190518101906114109190612500565b6114685760405162461bcd60e51b8152602060048201526024808201527f5472616e7366657248656c7065723a205452414e534645525f46524f4d5f46416044820152631253115160e21b6064820152608401610591565b505050505050565b5f546001600160a01b03163314610c125760405163118cdaa760e01b8152336004820152602401610591565b5f80546001600160a01b038381166001600160a01b0319831681178455604051919092169283917f8be0079c531659141344cd1fd0a4f28419497f9722a3daafe3b4186f6b6457e09190a35050565b5f5f6114f9878787876117aa565b90505f611507888786611885565b90505f611514828461267f565b90505f8961010001516001600160801b03168a602001516001600160801b031661153e919061267f565b9050808211611553575f945050505050611564565b61155d8183612692565b9450505050505b95945050505050565b60408051610100810182525f80825260208201819052918101829052606081018290526080810182905260a0810182905260c0810182905260e08101919091526060880151875163ffffffff918216915f916115ca91168361267f565b90505f6115db836301e1338061267f565b90508780156115f957508663ffffffff168b60c0015163ffffffff16105b151560a085018190525f90611626908d908d908d90611618575f61161a565b8b5b63ffffffff168a6114eb565b90508460a00151156116555760a08c015160ff1615801561164657505f81115b151560408601525f8552611755565b5f6116628d8d8d5f611927565b90508c60a0015160ff165f1480156116775750805b801561168257505f82115b1580156040880152611696575f8652611753565b828b11156116a7575f198652611753565b5f858c116116b5575f6116bf565b6116bf868d612692565b90505f8d6020015163ffffffff16826116d891906126b9565b90505f8e602001518f5f01516116ee91906126cc565b63ffffffff169050808210611706575f19895261174f565b60208f01515f9063ffffffff1661171e84600161267f565b61172891906126f3565b611732908a61267f565b90508e8111611741575f61174b565b61174b8f82612692565b8a52505b5050505b505b5f6117638d8d8d8d8d611a6a565b8051151560608801526020808201519088015290506117868d8d8d8d8d8d611b66565b151560808701525050881160c08401529096101560e0820152979650505050505050565b5f8460a0015160ff165f146117c057505f61187d565b8351606086015184915f916117d5919061270a565b63ffffffff169050808211156117e9578091505b5f841180156117f757508382115b15611800578391505b866060015163ffffffff16821161181b575f9250505061187d565b5f876060015163ffffffff16836118329190612692565b9050670de0b6b3a764000087606001516001600160401b0316828a5f01516001600160801b031661186391906126f3565b61186d91906126f3565b61187791906126b9565b93505050505b949350505050565b5f83610120015163ffffffff165f0361189f57505f611920565b5f6201518085610120015163ffffffff16856118bb9190612692565b6118c591906126b9565b90505f6118d284836126f3565b9050670de0b6b3a76400008111156118ef5750670de0b6b3a76400005b670de0b6b3a7640000818760e001516001600160801b031661191191906126f3565b61191b91906126b9565b925050505b9392505050565b5f81156119365750600161187d565b6060850151845163ffffffff918216915f9161195391168361267f565b9050856040015163ffffffff168161196b919061267f565b85111561197c575f9250505061187d565b60208601516119919063ffffffff168361267f565b8510156119a2575f9250505061187d565b5f6119ad8387612692565b90505f876020015163ffffffff16826119c691906126b9565b90505f8860200151895f01516119dc91906126cc565b63ffffffff169050808211156119f0578091505b896040015163ffffffff168211611a0e575f9550505050505061187d565b5f896020015163ffffffff1683611a2591906126f3565b611a2f908761267f565b90505f8a6040015163ffffffff1682611a48919061267f565b9050818a10158015611a5a5750808a11155b9c9b505050505050505050505050565b604080516060810182525f8082526020820181905291810191909152828015611aa257508163ffffffff168660c0015163ffffffff16105b1515604082015260a086015160ff1615611acb575f8082525f1960208301526040820152611564565b806040015115611ae4575f81525f196020820152611564565b845160608701515f91611af69161270a565b63ffffffff1690505f87606001516301e13380611b13919061270a565b63ffffffff16905081861015611b3a575f8352611b308683612692565b6020840152611b5b565b808611611b5057600183525f6020840152611b5b565b5f83525f1960208401525b505095945050505050565b5f5f611b758888888888611a6a565b8051909150611b87575f915050611bc8565b608088015160ff1615611b9a575f611b9d565b60015b8860800151611bac919061255f565b60ff168360ff161015611bc2575f915050611bc8565b60019150505b9695505050505050565b604051806102a001604052806015906020820280368337509192915050565b60ff811681146109a2575f5ffd5b5f5f60408385031215611c10575f5ffd5b823591506020830135611c2281611bf1565b809150509250929050565b6001600160a01b03811681146109a2575f5ffd5b5f60208284031215611c51575f5ffd5b813561192081611c2d565b6001600160a01b038616815260a0810160088610611c8857634e487b7160e01b5f52602160045260245ffd5b85602083015261ffff851660408301528360608301528260808301529695505050505050565b5f60208284031215611cbe575f5ffd5b5035919050565b602080825282518282018190525f918401906040840190835b81811015611cfc578351835260209384019390920191600101611cde565b509095945050505050565b5f5f5f60608486031215611d19575f5ffd5b8335611d2481611c2d565b92506020840135611d3481611c2d565b91506040840135611d4481611c2d565b809150509250925092565b602080825282518282018190525f918401906040840190835b81811015611cfc57835180516001600160801b031684526020810151611d9960208601826001600160801b03169052565b506040810151611db1604086018263ffffffff169052565b506060810151611dc9606086018263ffffffff169052565b506080810151611dde608086018260ff169052565b5060a0810151611df360a086018260ff169052565b5060c0810151611e0b60c086018263ffffffff169052565b5060e0810151611e2660e08601826001600160801b03169052565b50610100810151611e436101008601826001600160801b03169052565b50610120810151611e5d61012086018263ffffffff169052565b506101408101519050611e7961014085018263ffffffff169052565b50602093909301926101609290920191600101611d68565b848152610300810160208201855f5b6015811015611ec85781516001600160a01b0316835260209283019290910190600101611ea0565b5050506102c08201939093526102e0015292915050565b5f5f60408385031215611ef0575f5ffd5b8235611efb81611c2d565b946020939093013593505050565b5f6101208201905083825282516020830152602083015160408301526040830151151560608301526060830151151560808301526080830151151560a083015260a0830151611f5c60c084018215159052565b5060c0830151151560e08381019190915290920151151561010090910152919050565b5f60208284031215611f8f575f5ffd5b813561192081611bf1565b602080825282518282018190525f918401906040840190835b81811015611cfc57835180516001600160a01b03168452602080820151818601526040918201519185019190915290930192606090920191600101611fb3565b5f5f60408385031215612004575f5ffd5b505080516020909101519092909150565b5f60208284031215612025575f5ffd5b815161192081611c2d565b5f5f5f5f5f60a08688031215612044575f5ffd5b855161204f81611c2d565b602087015190955060088110612063575f5ffd5b604087015190945061ffff8116811461207a575f5ffd5b6060870151608090970151959894975095949392505050565b634e487b7160e01b5f52604160045260245ffd5b60405161016081016001600160401b03811182821017156120ca576120ca612093565b60405290565b604051606081016001600160401b03811182821017156120ca576120ca612093565b604051601f8201601f191681016001600160401b038111828210171561211a5761211a612093565b604052919050565b5f6001600160401b0382111561213a5761213a612093565b5060051b60200190565b5f60208284031215612154575f5ffd5b81516001600160401b03811115612169575f5ffd5b8201601f81018413612179575f5ffd5b805161218c61218782612122565b6120f2565b8082825260208201915060208360051b8501019250868311156121ad575f5ffd5b6020840193505b82841015611bc85783518252602093840193909101906121b4565b80516121da81611bf1565b919050565b805180151581146121da575f5ffd5b5f5f5f5f5f5f5f60e0888a031215612204575f5ffd5b875161220f81611c2d565b602089015160408a015160608b0151929950909750955061222f81611bf1565b6080890151909450925061224560a089016121df565b915060c088015161225581611bf1565b8091505092959891949750929550565b80516001600160801b03811681146121da575f5ffd5b805163ffffffff811681146121da575f5ffd5b5f6020828403121561229e575f5ffd5b81516001600160401b038111156122b3575f5ffd5b8201601f810184136122c3575f5ffd5b80516122d161218782612122565b80828252602082019150602061016084028501019250868311156122f3575f5ffd5b6020840193505b82841015611bc8576101608488031215612312575f5ffd5b61231a6120a7565b61232385612265565b815261233160208601612265565b60208201526123426040860161227b565b60408201526123536060860161227b565b6060820152612364608086016121cf565b608082015261237560a086016121cf565b60a082015261238660c0860161227b565b60c082015261239760e08601612265565b60e08201526123a96101008601612265565b6101008201526123bc610120860161227b565b6101208201526123cf610140860161227b565b610140820152825261016093909301926020909101906122fa565b5f5f5f5f61030085870312156123fe575f5ffd5b84519350603f85018613612410575f5ffd5b6040516102a081016001600160401b038111828210171561243357612433612093565b604052806102c0870188811115612448575f5ffd5b602088015b8181101561246e57805161246081611c2d565b83526020928301920161244d565b50516102e097909701519598919750909350505050565b634e487b7160e01b5f52603260045260245ffd5b80516001600160401b03811681146121da575f5ffd5b5f5f5f5f608085870312156124c2575f5ffd5b6124cb8561227b565b93506124d96020860161227b565b92506124e76040860161227b565b91506124f560608601612499565b905092959194509250565b5f60208284031215612510575f5ffd5b611920826121df565b5f60208284031215612529575f5ffd5b6119208261227b565b5f60208284031215612542575f5ffd5b61192082612499565b634e487b7160e01b5f52601160045260245ffd5b60ff8181168382160190811115610a1957610a1961254b565b5f60208284031215612588575f5ffd5b81516001600160401b0381111561259d575f5ffd5b8201601f810184136125ad575f5ffd5b80516125bb61218782612122565b808282526020820191506020606084028501019250868311156125dc575f5ffd5b6020840193505b82841015611bc857606084880312156125fa575f5ffd5b6126026120d0565b845161260d81611c2d565b8152602085810151818301526040808701519083015290835260609094019391909101906125e3565b5f5f5f5f60808587031215612649575f5ffd5b505082516020840151604085015160609095015191969095509092509050565b5f82518060208501845e5f920191825250919050565b80820180821115610a1957610a1961254b565b81810381811115610a1957610a1961254b565b634e487b7160e01b5f52601260045260245ffd5b5f826126c7576126c76126a5565b500490565b5f63ffffffff8316806126e1576126e16126a5565b8063ffffffff84160491505092915050565b8082028115828204841417610a1957610a1961254b565b63ffffffff8181168382160190811115610a1957610a1961254b56fea26469706673582212204dc5fb964f0299c688722d40e6e3a654707d3d53238ef77ad6024648fd94682b64736f6c634300081e0033","linkReferences":{}},"methodIdentifiers":{"MIN_STAKE_AMOUNT()":"27ed7188","USDT()":"c54e44eb","alreadyExistsUser(address)":"cbd2fbe1","cancelQueue(uint256)":"a684db3a","claim(uint256)":"379607f5","getCurrentQuota()":"f67dae23","getDirectReferralInfo(address)":"dcdcd08c","getFomoInfo()":"a28f8432","getOrderStatus(address,uint256)":"a80a3baa","getQueueInfo(uint256)":"4bedf369","getQueueRange()":"10b5a38e","getReferralInfo(address)":"21874ae2","getStakePlans(uint8)":"d913d514","getUserOrders(address)":"63c69f08","getUserQueueIds(address)":"2e586cab","maxValueOfStakeIndex(uint256)":"a652a02a","owner()":"8da5cb5b","queue()":"e10d29ee","referral(address)":"7247959a","referrals()":"d3dc7539","renounceOwnership()":"715018a6","restake(uint256,uint8)":"1c54a0d4","rootAddr()":"187ed5b1","setAmountLimit(uint256)":"3f045b40","setConfig(address,address,address)":"3141e25b","stake(uint256,uint8)":"10087fb1","stakingAmountLimit()":"01d1a559","transferOwnership(address)":"f2fde38b","treasury()":"61d027b3","unstake(uint256)":"2e17de78","verifyReferralCode(address)":"c2cfe4cb"},"id":56}