{"abi":[{"type":"constructor","inputs":[{"name":"_treasury","type":"address","internalType":"address"},{"name":"_queue","type":"address","internalType":"address"},{"name":"_referrals","type":"address","internalType":"address"},{"name":"_USDT","type":"address","internalType":"address"}],"stateMutability":"nonpayable"},{"type":"function","name":"MAXTRIALQUOTA","inputs":[],"outputs":[{"name":"","type":"uint256","internalType":"uint256"}],"stateMutability":"view"},{"type":"function","name":"MIN_STAKE_AMOUNT","inputs":[],"outputs":[{"name":"","type":"uint256","internalType":"uint256"}],"stateMutability":"view"},{"type":"function","name":"USDT","inputs":[],"outputs":[{"name":"","type":"address","internalType":"address"}],"stateMutability":"view"},{"type":"function","name":"cancelQueue","inputs":[{"name":"queueOrderId","type":"uint256","internalType":"uint256"}],"outputs":[],"stateMutability":"nonpayable"},{"type":"function","name":"claim","inputs":[{"name":"orderIndex","type":"uint256","internalType":"uint256"}],"outputs":[],"stateMutability":"nonpayable"},{"type":"function","name":"getCurrentQuota","inputs":[],"outputs":[{"name":"stakeUsed","type":"uint256","internalType":"uint256"},{"name":"stakeRemaining","type":"uint256","internalType":"uint256"},{"name":"unstakeUsed","type":"uint256","internalType":"uint256"},{"name":"unstakeRemaining","type":"uint256","internalType":"uint256"}],"stateMutability":"view"},{"type":"function","name":"getDirectReferralInfo","inputs":[{"name":"user","type":"address","internalType":"address"}],"outputs":[{"name":"","type":"tuple[]","internalType":"struct Models.DirectReferral[]","components":[{"name":"user","type":"address","internalType":"address"},{"name":"staked","type":"uint256","internalType":"uint256"},{"name":"performance","type":"uint256","internalType":"uint256"}]}],"stateMutability":"view"},{"type":"function","name":"getFomoAwardsInfo","inputs":[{"name":"user","type":"address","internalType":"address"}],"outputs":[{"name":"rounds","type":"uint256","internalType":"uint256"},{"name":"amount","type":"uint256","internalType":"uint256"}],"stateMutability":"view"},{"type":"function","name":"getFomoInfo","inputs":[],"outputs":[{"name":"roundId","type":"uint256","internalType":"uint256"},{"name":"lastQualified","type":"address[21]","internalType":"address[21]"},{"name":"count","type":"uint256","internalType":"uint256"},{"name":"poolBalance","type":"uint256","internalType":"uint256"}],"stateMutability":"view"},{"type":"function","name":"getOrderStatus","inputs":[{"name":"user","type":"address","internalType":"address"},{"name":"orderIndex","type":"uint256","internalType":"uint256"}],"outputs":[{"name":"truthAward","type":"uint256","internalType":"uint256"},{"name":"result","type":"tuple","internalType":"struct Models.RuleResult","components":[{"name":"claimCountdown","type":"uint256","internalType":"uint256"},{"name":"unstakeCountdown","type":"uint256","internalType":"uint256"},{"name":"canClaim","type":"bool","internalType":"bool"},{"name":"canUnstake","type":"bool","internalType":"bool"},{"name":"canRestake","type":"bool","internalType":"bool"},{"name":"isFrozen","type":"bool","internalType":"bool"},{"name":"isExpired","type":"bool","internalType":"bool"},{"name":"isMatured","type":"bool","internalType":"bool"}]}],"stateMutability":"view"},{"type":"function","name":"getQueueInfo","inputs":[{"name":"queueId","type":"uint256","internalType":"uint256"}],"outputs":[{"name":"user","type":"address","internalType":"address"},{"name":"amount","type":"uint256","internalType":"uint256"},{"name":"orderIndex","type":"uint256","internalType":"uint256"},{"name":"stakeIndex","type":"uint8","internalType":"uint8"},{"name":"createdAt","type":"uint256","internalType":"uint256"},{"name":"status","type":"uint8","internalType":"uint8"}],"stateMutability":"view"},{"type":"function","name":"getQueueRange","inputs":[],"outputs":[{"name":"head","type":"uint256","internalType":"uint256"},{"name":"tail","type":"uint256","internalType":"uint256"}],"stateMutability":"view"},{"type":"function","name":"getReferralInfo","inputs":[{"name":"user","type":"address","internalType":"address"}],"outputs":[{"name":"parent","type":"address","internalType":"address"},{"name":"level","type":"uint8","internalType":"enum Models.LevelType"},{"name":"referralNum","type":"uint16","internalType":"uint16"},{"name":"totalStaked","type":"uint256","internalType":"uint256"},{"name":"performance","type":"uint256","internalType":"uint256"}],"stateMutability":"view"},{"type":"function","name":"getRemainingQuota","inputs":[{"name":"user","type":"address","internalType":"address"}],"outputs":[{"name":"","type":"uint256","internalType":"uint256"}],"stateMutability":"view"},{"type":"function","name":"getStakePlans","inputs":[{"name":"stakeIndex","type":"uint8","internalType":"uint8"}],"outputs":[{"name":"duration","type":"uint32","internalType":"uint32"},{"name":"claimInterval","type":"uint32","internalType":"uint32"},{"name":"window","type":"uint32","internalType":"uint32"},{"name":"rate","type":"uint64","internalType":"uint64"}],"stateMutability":"view"},{"type":"function","name":"getTrialRemainingQuota","inputs":[{"name":"user","type":"address","internalType":"address"}],"outputs":[{"name":"","type":"uint256","internalType":"uint256"}],"stateMutability":"view"},{"type":"function","name":"getUserOrders","inputs":[{"name":"user","type":"address","internalType":"address"}],"outputs":[{"name":"","type":"tuple[]","internalType":"struct Models.Order[]","components":[{"name":"amount","type":"uint128","internalType":"uint128"},{"name":"claimed","type":"uint128","internalType":"uint128"},{"name":"claimedPeriods","type":"uint32","internalType":"uint32"},{"name":"startTime","type":"uint32","internalType":"uint32"},{"name":"stakeIndex","type":"uint8","internalType":"uint8"},{"name":"status","type":"uint8","internalType":"uint8"},{"name":"createdAt","type":"uint32","internalType":"uint32"},{"name":"frozenReward","type":"uint128","internalType":"uint128"},{"name":"frozenClaimed","type":"uint128","internalType":"uint128"},{"name":"freezeStart","type":"uint32","internalType":"uint32"},{"name":"freezeRound","type":"uint32","internalType":"uint32"}]}],"stateMutability":"view"},{"type":"function","name":"getUserQueueIds","inputs":[{"name":"user","type":"address","internalType":"address"}],"outputs":[{"name":"","type":"uint256[]","internalType":"uint256[]"}],"stateMutability":"view"},{"type":"function","name":"owner","inputs":[],"outputs":[{"name":"","type":"address","internalType":"address"}],"stateMutability":"view"},{"type":"function","name":"queue","inputs":[],"outputs":[{"name":"","type":"address","internalType":"address"}],"stateMutability":"view"},{"type":"function","name":"referral","inputs":[{"name":"parent","type":"address","internalType":"address"}],"outputs":[],"stateMutability":"nonpayable"},{"type":"function","name":"referrals","inputs":[],"outputs":[{"name":"","type":"address","internalType":"address"}],"stateMutability":"view"},{"type":"function","name":"renounceOwnership","inputs":[],"outputs":[],"stateMutability":"nonpayable"},{"type":"function","name":"restake","inputs":[{"name":"orderIndex","type":"uint256","internalType":"uint256"},{"name":"newStakeIndex","type":"uint8","internalType":"uint8"}],"outputs":[],"stateMutability":"nonpayable"},{"type":"function","name":"rootAddr","inputs":[],"outputs":[{"name":"","type":"address","internalType":"address"}],"stateMutability":"view"},{"type":"function","name":"setConfig","inputs":[{"name":"_treasury","type":"address","internalType":"address"},{"name":"_queue","type":"address","internalType":"address"},{"name":"_referrals","type":"address","internalType":"address"}],"outputs":[],"stateMutability":"nonpayable"},{"type":"function","name":"setPersonalQuota","inputs":[{"name":"amount","type":"uint256","internalType":"uint256"}],"outputs":[],"stateMutability":"nonpayable"},{"type":"function","name":"stake","inputs":[{"name":"amount","type":"uint256","internalType":"uint256"},{"name":"stakeIndex","type":"uint8","internalType":"uint8"}],"outputs":[],"stateMutability":"nonpayable"},{"type":"function","name":"totalPersonalQuota","inputs":[],"outputs":[{"name":"","type":"uint256","internalType":"uint256"}],"stateMutability":"view"},{"type":"function","name":"transferOwnership","inputs":[{"name":"newOwner","type":"address","internalType":"address"}],"outputs":[],"stateMutability":"nonpayable"},{"type":"function","name":"treasury","inputs":[],"outputs":[{"name":"","type":"address","internalType":"address"}],"stateMutability":"view"},{"type":"function","name":"trialAlreadyUsed","inputs":[{"name":"","type":"address","internalType":"address"}],"outputs":[{"name":"","type":"uint256","internalType":"uint256"}],"stateMutability":"view"},{"type":"function","name":"unstake","inputs":[{"name":"orderIndex","type":"uint256","internalType":"uint256"}],"outputs":[],"stateMutability":"nonpayable"},{"type":"function","name":"verifyReferralCode","inputs":[{"name":"user","type":"address","internalType":"address"}],"outputs":[{"name":"","type":"bool","internalType":"bool"}],"stateMutability":"view"},{"type":"event","name":"OwnershipTransferred","inputs":[{"name":"previousOwner","type":"address","indexed":true,"internalType":"address"},{"name":"newOwner","type":"address","indexed":true,"internalType":"address"}],"anonymous":false},{"type":"error","name":"OwnableInvalidOwner","inputs":[{"name":"owner","type":"address","internalType":"address"}]},{"type":"error","name":"OwnableUnauthorizedAccount","inputs":[{"name":"account","type":"address","internalType":"address"}]},{"type":"error","name":"ReentrancyGuardReentrantCall","inputs":[]}],"bytecode":{"object":"0x60803461013d57601f61262f38819003918201601f19168301916001600160401b038311848410176101415780849260809460405283398101031261013d5761004781610155565b9061005460208201610155565b9061006d606061006660408401610155565b9201610155565b91331561012a575f8054336001600160a01b0319821681178355604051969290916001600160a01b0316907f8be0079c531659141344cd1fd0a4f28419497f9722a3daafe3b4186f6b6457e09080a360018055600380546001600160a01b03199081166001600160a01b03938416179091556004805482169383169390931790925560058054831693821693909317909255600280549091169290911691909117905569021e19e0c9bab24000006007556124c5908161016a8239f35b631e4fbdf760e01b5f525f60045260245ffd5b5f80fd5b634e487b7160e01b5f52604160045260245ffd5b51906001600160a01b038216820361013d5756fe60806040526004361015610011575f80fd5b5f5f3560e01c806310087fb11461189c57806310b5a38e14611849578063187ed5b1146117a65780631c54a0d41461172e57806321874ae21461165b57806327ed7188146116385780632b25e98a1461161a5780632e17de78146115bd5780632e586cab1461148e5780633141e25b146113fd578063366bf8da146113d9578063379607f51461137c57806342a7eb54146113505780634bedf3691461124a57806361d027b31461122157806363c69f08146110c6578063715018a61461106c5780637247959a14610f6f5780638da5cb5b14610f485780639f058d4914610eb1578063a28f843214610d73578063a684db3a14610ceb578063a80a3baa14610718578063b65624b4146106aa578063c2cfe4cb14610613578063c54e44eb146105ea578063d3dc7539146105c1578063d913d514146104ec578063dcdcd08c1461035e578063e10d29ee14610335578063ecc5abbf146102fc578063f07837ea146102d8578063f2fde38b146102525763f67dae2314610190575f80fd5b3461024f578060031936011261024f576004805460405163e4c2ab7160e01b81529160809183919082906001600160a01b03165afa801561024457829183849185936101f3575b5060809450604051938452602084015260408301526060820152f35b93505050506080813d60801161023c575b8161021160809383611c14565b8101031261023857805160208201516040830151606090930151608094509192905f6101d7565b5080fd5b3d9150610204565b6040513d84823e3d90fd5b80fd5b503461024f57602036600319011261024f5761026c611bc2565b61027461206e565b6001600160a01b031680156102c45781546001600160a01b03198116821783556001600160a01b03167f8be0079c531659141344cd1fd0a4f28419497f9722a3daafe3b4186f6b6457e08380a380f35b631e4fbdf760e01b82526004829052602482fd5b503461024f578060031936011261024f57602060405168056bc75e2d631000008152f35b503461024f57602036600319011261024f576020906040906001600160a01b03610324611bc2565b168152600683522054604051908152f35b503461024f578060031936011261024f576004546040516001600160a01b039091168152602090f35b503461024f57602036600319011261024f57610378611bc2565b600554604051633737342360e21b81526001600160a01b03928316600482015291839183916024918391165afa90811561024457829161041b575b5090604051918291602083016020845282518091526020604085019301915b8181106103e0575050500390f35b825180516001600160a01b031685526020818101518187015260409182015191860191909152869550606090940193909201916001016103d2565b90503d8083833e61042c8183611c14565b8101906020818303126104e4578051906001600160401b0382116104e8570181601f820112156104e45780519061046282611ca1565b926104706040519485611c14565b828452602060608186019402830101918183116104e057602001925b82841061049d57505050505f6103b3565b6060848303126104e05760206060916040516104b881611bf9565b6104c187611c4b565b815282870151838201526040870151604082015281520193019261048c565b8580fd5b8280fd5b8380fd5b503461024f57602036600319011261024f5760043560ff811680910361023857600354604051634640ed5f60e11b81526004810192909252608090829060249082906001600160a01b03165afa801561024457916080928180819261057b575b6001600160401b039394509063ffffffff80928160405197168752166020860152166040840152166060820152f35b505050506001600160401b0363ffffffff6105ac8193853d87116105ba575b6105a48183611c14565b810190611ffb565b92955085945091925061054c565b503d61059a565b503461024f578060031936011261024f576005546040516001600160a01b039091168152602090f35b503461024f578060031936011261024f576002546040516001600160a01b039091168152602090f35b503461024f57602036600319011261024f5761062d611bc2565b600554604051631caa058560e11b81526001600160a01b0392831660048201529160a09183916024918391165afa9081156102445760209291610676575b506040519015158152f35b610698915060a03d60a0116106a3575b6106908183611c14565b810190611c5f565b50925050505f61066b565b503d610686565b503461024f57602036600319011261024f576004356106c761206e565b68056bc75e2d6310000081106106dd5760075580f35b60405162461bcd60e51b815260206004820152601360248201527222a92927a92fa0a6a7aaa72a2fa624a6a4aa1760691b6044820152606490fd5b503461024f57604036600319011261024f57610732611bc2565b6024359061073e611f9a565b50600354604051630c78d3e160e31b81526001600160a01b0392831660048201529116918382602481865afa918215610ce0578492610cbc575b508151811015610ca8579060209160051b01015190608082019060ff8251169260405193634640ed5f60e11b85526004850152608084602481855afa8015610c9d578590869587908892610c74575b5060405192608084018481106001600160401b03821117610c60579163ffffffff80926001600160401b03959460405216855281602086019916895216604084015216606082015260405191635c975abb60e01b8352602083600481875afa928315610c55578793610c24575b5060405163015cb3ff60e01b815293602085600481845afa948515610c19578895610bcc575b5096602060049596979860405196878092630475cbc760e21b82525afa948515610bbf578195610b7f575b506001600160401b0363ffffffff8716951695600160ff6108a98989428989612094565b995116019160ff8311610b6b576108be611f9a565b9963ffffffff6060860151166108db63ffffffff88511682611bd8565b996301e133808201998a8311610b5757908d8a95949392869b610b42575b509060a061091e92019a1515808c525f14610b375763ffffffff875b16428b8b612094565b8951909290156109eb5750509261097f92604095926101209d9560ff60a08a0151161590816109e1575b5015158787015285525b61095f8282428b8b61234c565b966020885115159860608801998a5201519860208701998a524291612444565b9360808201941515855260c08201964211875260e082019742101588528251988952815160208a01525182890152015115156060870152511515608086015251151560a085015251151560c084015251151560e0830152511515610100820152f35b905015155f610948565b90918d6040916109fc428c8c612259565b9060ff60a08c015116159182610b2f575b5081610b25575b501580159190920152610a37575050928a9261097f926040956101209d52610952565b8942115f14610a58575050506040926101209a9261097f925f198552610952565b8142115f14610b1c57610a7c610a6e8342611cb8565b63ffffffff835116906120e1565b9063ffffffff610a93818b511682845116906120ff565b168210610ab357505050506040926101209a9261097f925f198552610952565b60018201809211610b085792610ae76101209e9693610ae161097f979463ffffffff60409b98511690612117565b90611bd8565b42811115610b0257610afb91504290611cb8565b8552610952565b50610afb565b634e487b7160e01b84526011600452602484fd5b610a7c83610a6e565b905015155f610a14565b91505f610a0d565b63ffffffff85610915565b60c08a015163ffffffff16109a5060a06108f9565b634e487b7160e01b85526011600452602485fd5b634e487b7160e01b81526011600452602490fd5b9094506020813d602011610bb7575b81610b9b60209383611c14565b81010312610bb357610bac90611fe7565b935f610885565b8480fd5b3d9150610b8e565b50604051903d90823e3d90fd5b9094506020813d602011610c11575b81610be860209383611c14565b81010312610c0d57966020610c01600496979899611e28565b9550979695909761085a565b8780fd5b3d9150610bdb565b6040513d8a823e3d90fd5b610c4791935060203d602011610c4e575b610c3f8183611c14565b810190612036565b915f610834565b503d610c35565b6040513d89823e3d90fd5b634e487b7160e01b8a52604160045260248afd5b92505050610c9291945060803d6080116105ba576105a48183611c14565b90959291955f6107c7565b6040513d87823e3d90fd5b634e487b7160e01b84526032600452602484fd5b610cd99192503d8086833e610cd18183611c14565b810190611e39565b905f610778565b6040513d86823e3d90fd5b503461024f57602036600319011261024f57610d0561204e565b60045481906001600160a01b0316803b15610d705760405163a05a9e1360e01b8152336004808301919091523560248201529082908290818381604481015b03925af1801561024457610d5b575b506001805580f35b81610d6591611c14565b61024f57805f610d53565b50fd5b503461024f578060031936011261024f5780600491506102a080604051610d9a8282611c14565b369037825460405163a32bf59760e01b8152936103009185919082906001600160a01b03165afa9081156102445782809481928294610e1e575b5050604051938452602084015b60158210610dfe57505061030093506102c08301526102e0820152f35b85516001600160a01b031681526020958601956001929092019101610de1565b945094509150506103003d8111610eaa575b610e3a8185611c14565b8301610300848203126102385783519080603f860112156104e457610e626040519485611c14565b836102c086019182116104e85760208601905b828210610e925750506102e0905194015190929390915f80610dd4565b60208091610e9f84611c4b565b815201910190610e75565b503d610e30565b503461024f57602036600319011261024f57610ecb611bc2565b600480546040805163042e8c4d60e31b81526001600160a01b039485169381019390935291939284916024918391165afa8015610bbf576040928291610f19575b5082519182526020820152f35b9050610f3b9150823d8411610f41575b610f338183611c14565b810190611c35565b5f610f0c565b503d610f29565b503461024f578060031936011261024f57546040516001600160a01b039091168152602090f35b503461024f57602036600319011261024f57610f89611bc2565b610f9161204e565b6001600160a01b0316801561103757338114610ffa5760055482916001600160a01b0390911690813b15610ff6578291604483926040519485938492631c505d1d60e01b845260048401523360248401525af1801561024457610d5b57506001805580f35b5050fd5b60405162461bcd60e51b815260206004820152601560248201527422b93937b9103830b932b73a1030b2323932b9b99760591b6044820152606490fd5b60405162461bcd60e51b815260206004820152600d60248201526c2d32b9379030b2323932b9b99760991b6044820152606490fd5b503461024f578060031936011261024f5761108561206e565b80546001600160a01b03198116825581906001600160a01b03167f8be0079c531659141344cd1fd0a4f28419497f9722a3daafe3b4186f6b6457e08280a380f35b503461024f57602036600319011261024f576110e0611bc2565b600354604051630c78d3e160e31b81526001600160a01b03928316600482015291839183916024918391165afa908115610244578291611207575b5090604051918291602083016020845282518091526020604085019301915b818110611148575050500390f35b91935091602061016060019263ffffffff61014088516001600160801b0381511684526001600160801b0386820151168685015282604082015116604085015282606082015116606085015260ff608082015116608085015260ff60a08201511660a08501528260c08201511660c08501526001600160801b0360e08201511660e08501526001600160801b0361010082015116610100850152826101208201511661012085015201511661014082015201940191019184939261113a565b61121b91503d8084833e610cd18183611c14565b5f61111b565b503461024f578060031936011261024f576003546040516001600160a01b039091168152602090f35b503461024f57602036600319011261024f5760249060c060018060a01b036004541660405193848092631e186afb60e01b825260043560048301525afa918215610bbf578180819082809481976112d2575b60c08760ff8a89828a8a8a6040519760018060a01b031688526020880152604087015216606085015260808401521660a0820152f35b955095505050505060c0813d60c011611348575b816112f360c09383611c14565b810103126102385760c0915060ff61130a82611c4b565b916020810151928260408301519261132460608201611e06565b61133560a060808401519301611e06565b939694909193975092948194925061129c565b3d91506112e6565b503461024f57602036600319011261024f57602061137461136f611bc2565b611dbb565b604051908152f35b503461024f57602036600319011261024f5761139661204e565b60045481906001600160a01b0316803b15610d7057604051635569f64b60e11b815233600480830191909152356024820152908290829081838160448101610d44565b503461024f57602036600319011261024f5760206113746113f8611bc2565b611cc5565b503461024f57606036600319011261024f57611417611bc2565b6024356001600160a01b038116908190036104e4576044356001600160a01b03811692908390036104e85761144a61206e565b60018060a01b03166001600160601b0360a01b60035416176003556001600160601b0360a01b60045416176004556001600160601b0360a01b600554161760055580f35b503461024f57602036600319011261024f576114a8611bc2565b60048054604051632e586cab60e01b81526001600160a01b03938416928101929092529091839183916024918391165afa90811561024457829161152d575b5090604051918291602083016020845282518091526020604085019301915b818110611514575050500390f35b8251845285945060209384019390920191600101611506565b90503d8083833e61153e8183611c14565b8101906020818303126104e4578051906001600160401b0382116104e857019080601f830112156104e457815161157481611ca1565b926115826040519485611c14565b81845260208085019260051b820101928311610bb357602001905b8282106115ad575050505f6114e7565b815181526020918201910161159d565b503461024f57602036600319011261024f576115d761204e565b60045481906001600160a01b0316803b15610d7057604051630615339760e51b815233600480830191909152356024820152908290829081838160448101610d44565b503461024f578060031936011261024f576020600754604051908152f35b503461024f578060031936011261024f576020604051671bc16d674ec800008152f35b503461024f57602036600319011261024f57611675611bc2565b600554604051631caa058560e11b81526001600160a01b0392831660048201529160a09183916024918391165afa8015610244578291838480928194611703575b506040516001600160a01b03909516855260088210156116ef575060a09461ffff91602086015216604084015260608301526080820152f35b634e487b7160e01b81526021600452602490fd5b935094505050611722915060a03d60a0116106a3576106908183611c14565b9194919290915f6116b6565b503461024f57604036600319011261024f5780611749611bb2565b61175161204e565b6004546001600160a01b031690813b15610ff65760ff60648492836040519586948593631bd8358960e31b855233600486015260043560248601521660448401525af1801561024457610d5b57506001805580f35b503461024f578060031936011261024f5760055460405163187ed5b160e01b81529190602090839060049082906001600160a01b03165afa90811561183d578091611800575b6040516001600160a01b0383168152602090f35b90506020823d602011611835575b8161181b60209383611c14565b8101031261024f575061182f602091611c4b565b5f6117ec565b3d915061180e565b604051903d90823e3d90fd5b503461024f578060031936011261024f57600480546040805163085ad1c760e11b81529392909184919082906001600160a01b03165afa8015610bbf576040928291610f19575082519182526020820152f35b50346119f25760403660031901126119f2576004356118b9611bb2565b6118c161204e565b671bc16d674ec800008210611b7a57816118da33611cc5565b10611b3d5760ff16906004821015611b03578115611a91575b6002546004546040516323b872dd60e01b602082019081523360248301526001600160a01b039283166044830152606480830186905282525f9384931691839061193e608482611c14565b51925af13d15611a8a573d6001600160401b038111611a76576040519061196f601f8201601f191660200183611c14565b81523d5f602083013e5b81611a47575b50156119f6576004546001600160a01b031691823b156119f25760645f9283604051958694859363031a0e0360e51b8552336004860152602485015260448401525af180156119e7576119d457506001805580f35b6119e091505f90611c14565b5f5f610d53565b6040513d5f823e3d90fd5b5f80fd5b60405162461bcd60e51b8152602060048201526024808201527f5472616e7366657248656c7065723a205452414e534645525f46524f4d5f46416044820152631253115160e21b6064820152608490fd5b8051801592508215611a5c575b50505f61197f565b611a6f9250602080918301019101612036565b5f80611a54565b634e487b7160e01b5f52604160045260245ffd5b6060611979565b80611a9b33611dbb565b10611abe57335f52600660205260405f20611ab7828254611bd8565b90556118f3565b60405162461bcd60e51b815260206004820152601d60248201527f4552524f525f5354414b455f414d4f554e545f464f525f545249414c2e0000006044820152606490fd5b60405162461bcd60e51b815260206004820152601260248201527122a92927a92fa9aa20a5a2afa4a72222ac1760711b6044820152606490fd5b60405162461bcd60e51b815260206004820152601560248201527422a92927a92fa9aa20a5a4a723afa0a6a7aaa72a1760591b6044820152606490fd5b60405162461bcd60e51b815260206004820152601060248201526f105353d5539517d513d3d7d4d350531360821b6044820152606490fd5b6024359060ff821682036119f257565b600435906001600160a01b03821682036119f257565b91908201809211611be557565b634e487b7160e01b5f52601160045260245ffd5b606081019081106001600160401b03821117611a7657604052565b90601f801991011681019081106001600160401b03821117611a7657604052565b91908260409103126119f2576020825192015190565b51906001600160a01b03821682036119f257565b908160a09103126119f257611c7381611c4b565b91602082015160088110156119f25791604081015161ffff811681036119f257916080606083015192015190565b6001600160401b038111611a765760051b60200190565b91908203918211611be557565b600554604051631caa058560e11b81526001600160a01b039283166004820181905292909160a09183916024918391165afa9081156119e7575f91611d97575b50602060018060a01b036004541692602460405180958193631b87161d60e31b835260048301525afa80156119e7575f90611d63575b611d459250611bd8565b6007549081811015611d5d57611d5a91611cb8565b90565b50505f90565b506020823d602011611d8f575b81611d7d60209383611c14565b810103126119f257611d459151611d3b565b3d9150611d70565b611db0915060a03d60a0116106a3576106908183611c14565b50925050505f611d05565b6001600160a01b03165f9081526006602052604090205468056bc75e2d63100000811015611e015768056bc75e2d631000000368056bc75e2d631000008111611be55790565b505f90565b519060ff821682036119f257565b51906001600160801b03821682036119f257565b519063ffffffff821682036119f257565b6020818303126119f2578051906001600160401b0382116119f2570181601f820112156119f257805190611e6c82611ca1565b92611e7a6040519485611c14565b82845260206101608186019402830101918183116119f257602001925b828410611ea5575050505090565b610160848303126119f257604051906101608201908282106001600160401b03831117611a765761016092602092604052611edf87611e14565b8152611eec838801611e14565b83820152611efc60408801611e28565b6040820152611f0d60608801611e28565b6060820152611f1e60808801611e06565b6080820152611f2f60a08801611e06565b60a0820152611f4060c08801611e28565b60c0820152611f5160e08801611e14565b60e0820152611f636101008801611e14565b610100820152611f766101208801611e28565b610120820152611f896101408801611e28565b610140820152815201930192611e97565b6040519061010082018281106001600160401b03821117611a76576040525f60e0838281528260208201528260408201528260608201528260808201528260a08201528260c08201520152565b51906001600160401b03821682036119f257565b91908260809103126119f25761201082611e28565b9161201d60208201611e28565b91611d5a606061202f60408501611e28565b9301611fe7565b908160209103126119f2575180151581036119f25790565b60026001541461205f576002600155565b633ee5aeb560e01b5f5260045ffd5b5f546001600160a01b0316330361208157565b63118cdaa760e01b5f523360045260245ffd5b93610ae1906120ac6120d095856120b3969589612144565b92866121ff565b916001600160801b03610100816020840151169201511690611bd8565b80821115611d5d57611d5a91611cb8565b81156120eb570490565b634e487b7160e01b5f52601260045260245ffd5b9063ffffffff169081156120eb5763ffffffff160490565b81810292918115918404141715611be557565b9063ffffffff8091169116019063ffffffff8211611be557565b929160ff60a0850151166121da578092606085019163ffffffff61216f81855116828751169061212a565b168091116121f7575b50801515806121ee575b6121e2575b505163ffffffff1692838311156121da5760606121cc6001600160401b03926001600160801b036121c4670de0b6b3a7640000986121d698611cb8565b915116612117565b9201511690612117565b0490565b505050505f90565b925063ffffffff612187565b50808411612182565b93505f612178565b63ffffffff610120820151169182156121da57670de0b6b3a764000093620151806122306121d69561223694611cb8565b04612117565b90838211612251575b60e001516001600160801b0316612117565b83915061223f565b63ffffffff6060820151169061227663ffffffff84511683611bd8565b9261228d604082019463ffffffff86511690611bd8565b85116123305760208101916122a963ffffffff84511685611bd8565b86106123425763ffffffff6122dc816122cf6122c5888b611cb8565b82885116906120e1565b94511682865116906120ff565b16808311612339575b506040015163ffffffff168111156123305761231a92610ae16123119263ffffffff8095511690612117565b92511682611bd8565b90821015918261232957505090565b1115919050565b50505050505f90565b915060406122e5565b5050505050505f90565b9091929493946040519061235f82611bf9565b5f8252602082015f815260408301915f835283988161242d575b501515825260ff60a08501511661241b57505050604085015161240c5763ffffffff806123b760606301e1338094019482808751169151169061212a565b169251160163ffffffff8111611be557818310156123e45750906123dd915f8552611cb8565b6020830152565b63ffffffff91501610155f1461240057600182525f6020830152565b5f82525f196020830152565b50505f8352505f196020830152565b5f8084525f1990915290529450505050565b905063ffffffff8060c0870151169116115f612379565b939161245193918561234c565b5115611d5d576080015160ff16806124875760ff60015b160160ff8111611be55760ff80911691161061248357600190565b5f90565b60ff5f61246856fea2646970667358221220f86dc7307f5d062040488e03c828ce9f3bb500334296c44001247b24b1bd3bf264736f6c634300081e0033","linkReferences":{}},"methodIdentifiers":{"MAXTRIALQUOTA()":"f07837ea","MIN_STAKE_AMOUNT()":"27ed7188","USDT()":"c54e44eb","cancelQueue(uint256)":"a684db3a","claim(uint256)":"379607f5","getCurrentQuota()":"f67dae23","getDirectReferralInfo(address)":"dcdcd08c","getFomoAwardsInfo(address)":"9f058d49","getFomoInfo()":"a28f8432","getOrderStatus(address,uint256)":"a80a3baa","getQueueInfo(uint256)":"4bedf369","getQueueRange()":"10b5a38e","getReferralInfo(address)":"21874ae2","getRemainingQuota(address)":"366bf8da","getStakePlans(uint8)":"d913d514","getTrialRemainingQuota(address)":"42a7eb54","getUserOrders(address)":"63c69f08","getUserQueueIds(address)":"2e586cab","owner()":"8da5cb5b","queue()":"e10d29ee","referral(address)":"7247959a","referrals()":"d3dc7539","renounceOwnership()":"715018a6","restake(uint256,uint8)":"1c54a0d4","rootAddr()":"187ed5b1","setConfig(address,address,address)":"3141e25b","setPersonalQuota(uint256)":"b65624b4","stake(uint256,uint8)":"10087fb1","totalPersonalQuota()":"2b25e98a","transferOwnership(address)":"f2fde38b","treasury()":"61d027b3","trialAlreadyUsed(address)":"ecc5abbf","unstake(uint256)":"2e17de78","verifyReferralCode(address)":"c2cfe4cb"},"id":56}