{"abi":[{"type":"constructor","inputs":[{"name":"_treasury","type":"address","internalType":"address"},{"name":"_queue","type":"address","internalType":"address"},{"name":"_referrals","type":"address","internalType":"address"},{"name":"_USDT","type":"address","internalType":"address"}],"stateMutability":"nonpayable"},{"type":"function","name":"MIN_STAKE_AMOUNT","inputs":[],"outputs":[{"name":"","type":"uint256","internalType":"uint256"}],"stateMutability":"view"},{"type":"function","name":"USDT","inputs":[],"outputs":[{"name":"","type":"address","internalType":"address"}],"stateMutability":"view"},{"type":"function","name":"alreadyExistsUser","inputs":[{"name":"","type":"address","internalType":"address"}],"outputs":[{"name":"","type":"bool","internalType":"bool"}],"stateMutability":"view"},{"type":"function","name":"cancelQueue","inputs":[{"name":"queueOrderId","type":"uint256","internalType":"uint256"}],"outputs":[],"stateMutability":"nonpayable"},{"type":"function","name":"claim","inputs":[{"name":"orderIndex","type":"uint256","internalType":"uint256"}],"outputs":[],"stateMutability":"nonpayable"},{"type":"function","name":"getCurrentQuota","inputs":[],"outputs":[{"name":"stakeUsed","type":"uint256","internalType":"uint256"},{"name":"stakeRemaining","type":"uint256","internalType":"uint256"},{"name":"unstakeUsed","type":"uint256","internalType":"uint256"},{"name":"unstakeRemaining","type":"uint256","internalType":"uint256"}],"stateMutability":"view"},{"type":"function","name":"getDirectReferralInfo","inputs":[{"name":"user","type":"address","internalType":"address"}],"outputs":[{"name":"","type":"tuple[]","internalType":"struct Models.DirectReferral[]","components":[{"name":"user","type":"address","internalType":"address"},{"name":"staked","type":"uint256","internalType":"uint256"},{"name":"performance","type":"uint256","internalType":"uint256"}]}],"stateMutability":"view"},{"type":"function","name":"getFomoInfo","inputs":[],"outputs":[{"name":"roundId","type":"uint256","internalType":"uint256"},{"name":"lastQualified","type":"address[21]","internalType":"address[21]"},{"name":"count","type":"uint256","internalType":"uint256"},{"name":"poolBalance","type":"uint256","internalType":"uint256"}],"stateMutability":"view"},{"type":"function","name":"getOrderStatus","inputs":[{"name":"user","type":"address","internalType":"address"},{"name":"orderIndex","type":"uint256","internalType":"uint256"}],"outputs":[{"name":"truthAward","type":"uint256","internalType":"uint256"},{"name":"result","type":"tuple","internalType":"struct Models.RuleResult","components":[{"name":"claimCountdown","type":"uint256","internalType":"uint256"},{"name":"unstakeCountdown","type":"uint256","internalType":"uint256"},{"name":"canClaim","type":"bool","internalType":"bool"},{"name":"canUnstake","type":"bool","internalType":"bool"},{"name":"canRestake","type":"bool","internalType":"bool"},{"name":"isFrozen","type":"bool","internalType":"bool"},{"name":"isExpired","type":"bool","internalType":"bool"},{"name":"isMatured","type":"bool","internalType":"bool"}]}],"stateMutability":"view"},{"type":"function","name":"getQueueInfo","inputs":[{"name":"queueId","type":"uint256","internalType":"uint256"}],"outputs":[{"name":"user","type":"address","internalType":"address"},{"name":"amount","type":"uint256","internalType":"uint256"},{"name":"orderIndex","type":"uint256","internalType":"uint256"},{"name":"stakeIndex","type":"uint8","internalType":"uint8"},{"name":"createdAt","type":"uint256","internalType":"uint256"},{"name":"isRestake","type":"bool","internalType":"bool"},{"name":"status","type":"uint8","internalType":"uint8"}],"stateMutability":"view"},{"type":"function","name":"getReferralInfo","inputs":[{"name":"user","type":"address","internalType":"address"}],"outputs":[{"name":"parent","type":"address","internalType":"address"},{"name":"level","type":"uint8","internalType":"enum Models.LevelType"},{"name":"referralNum","type":"uint16","internalType":"uint16"},{"name":"totalStaked","type":"uint256","internalType":"uint256"},{"name":"performance","type":"uint256","internalType":"uint256"}],"stateMutability":"view"},{"type":"function","name":"getSystemStatus","inputs":[],"outputs":[{"name":"circuitBreaker","type":"bool","internalType":"bool"}],"stateMutability":"view"},{"type":"function","name":"getUserOrders","inputs":[{"name":"user","type":"address","internalType":"address"}],"outputs":[{"name":"","type":"tuple[]","internalType":"struct Models.Order[]","components":[{"name":"amount","type":"uint128","internalType":"uint128"},{"name":"claimed","type":"uint128","internalType":"uint128"},{"name":"claimedPeriods","type":"uint32","internalType":"uint32"},{"name":"startTime","type":"uint32","internalType":"uint32"},{"name":"stakeIndex","type":"uint8","internalType":"uint8"},{"name":"status","type":"uint8","internalType":"uint8"},{"name":"createdAt","type":"uint32","internalType":"uint32"},{"name":"frozenReward","type":"uint128","internalType":"uint128"},{"name":"frozenClaimed","type":"uint128","internalType":"uint128"},{"name":"freezeStart","type":"uint32","internalType":"uint32"},{"name":"freezeRound","type":"uint32","internalType":"uint32"}]}],"stateMutability":"view"},{"type":"function","name":"getUserQueueIds","inputs":[{"name":"user","type":"address","internalType":"address"}],"outputs":[{"name":"","type":"uint256[]","internalType":"uint256[]"}],"stateMutability":"view"},{"type":"function","name":"maxValueOfStakeIndex","inputs":[{"name":"","type":"uint256","internalType":"uint256"}],"outputs":[{"name":"","type":"uint256","internalType":"uint256"}],"stateMutability":"view"},{"type":"function","name":"owner","inputs":[],"outputs":[{"name":"","type":"address","internalType":"address"}],"stateMutability":"view"},{"type":"function","name":"queue","inputs":[],"outputs":[{"name":"","type":"address","internalType":"address"}],"stateMutability":"view"},{"type":"function","name":"referral","inputs":[{"name":"parent","type":"address","internalType":"address"}],"outputs":[],"stateMutability":"nonpayable"},{"type":"function","name":"referrals","inputs":[],"outputs":[{"name":"","type":"address","internalType":"address"}],"stateMutability":"view"},{"type":"function","name":"renounceOwnership","inputs":[],"outputs":[],"stateMutability":"nonpayable"},{"type":"function","name":"restake","inputs":[{"name":"orderIndex","type":"uint256","internalType":"uint256"},{"name":"newStakeIndex","type":"uint8","internalType":"uint8"}],"outputs":[],"stateMutability":"nonpayable"},{"type":"function","name":"rootAddr","inputs":[],"outputs":[{"name":"","type":"address","internalType":"address"}],"stateMutability":"view"},{"type":"function","name":"setConfig","inputs":[{"name":"_treasury","type":"address","internalType":"address"},{"name":"_queue","type":"address","internalType":"address"},{"name":"_referrals","type":"address","internalType":"address"}],"outputs":[],"stateMutability":"nonpayable"},{"type":"function","name":"stake","inputs":[{"name":"amount","type":"uint256","internalType":"uint256"},{"name":"stakeIndex","type":"uint8","internalType":"uint8"}],"outputs":[],"stateMutability":"nonpayable"},{"type":"function","name":"transferOwnership","inputs":[{"name":"newOwner","type":"address","internalType":"address"}],"outputs":[],"stateMutability":"nonpayable"},{"type":"function","name":"treasury","inputs":[],"outputs":[{"name":"","type":"address","internalType":"address"}],"stateMutability":"view"},{"type":"function","name":"unstake","inputs":[{"name":"orderIndex","type":"uint256","internalType":"uint256"}],"outputs":[],"stateMutability":"nonpayable"},{"type":"function","name":"verifyReferralCode","inputs":[{"name":"user","type":"address","internalType":"address"}],"outputs":[{"name":"","type":"bool","internalType":"bool"}],"stateMutability":"view"},{"type":"event","name":"OwnershipTransferred","inputs":[{"name":"previousOwner","type":"address","indexed":true,"internalType":"address"},{"name":"newOwner","type":"address","indexed":true,"internalType":"address"}],"anonymous":false},{"type":"error","name":"OwnableInvalidOwner","inputs":[{"name":"owner","type":"address","internalType":"address"}]},{"type":"error","name":"OwnableUnauthorizedAccount","inputs":[{"name":"account","type":"address","internalType":"address"}]},{"type":"error","name":"ReentrancyGuardReentrantCall","inputs":[]}],"bytecode":{"object":"0x608060405234801561000f575f5ffd5b5060405161261138038061261183398101604081905261002e91610152565b338061005357604051631e4fbdf760e01b81525f600482015260240160405180910390fd5b61005c816100e8565b5060018055600380546001600160a01b039586166001600160a01b03199182161790915560048054948616948216949094179093556005805492851692841692909217909155600280549190931691161790555f8052600660205268056bc75e2d631000007f54cdd369e4e8a8515e52ca72ec816c2101831ad1f18bf44102ed171459c9b4f8556101a3565b5f80546001600160a01b038381166001600160a01b0319831681178455604051919092169283917f8be0079c531659141344cd1fd0a4f28419497f9722a3daafe3b4186f6b6457e09190a35050565b80516001600160a01b038116811461014d575f5ffd5b919050565b5f5f5f5f60808587031215610165575f5ffd5b61016e85610137565b935061017c60208601610137565b925061018a60408601610137565b915061019860608601610137565b905092959194509250565b612461806101b05f395ff3fe608060405234801561000f575f5ffd5b50600436106101bb575f3560e01c80637247959a116100f3578063c54e44eb11610093578063dcdcd08c1161006e578063dcdcd08c1461043a578063e10d29ee1461045a578063f2fde38b1461046d578063f67dae2314610480575f5ffd5b8063c54e44eb146103f2578063cbd2fbe114610405578063d3dc753914610427575f5ffd5b8063a652a02a116100ce578063a652a02a1461038c578063a684db3a146103ab578063a80a3baa146103be578063c2cfe4cb146103df575f5ffd5b80637247959a146103515780638da5cb5b14610364578063a28f843214610374575f5ffd5b80633141e25b1161015e57806350c1d19d1161013957806350c1d19d146102fe57806361d027b31461031657806363c69f0814610329578063715018a614610349575f5ffd5b80633141e25b14610280578063379607f5146102935780634bedf369146102a6575f5ffd5b806321874ae21161019957806321874ae21461020c57806327ed7188146102305780632e17de781461024d5780632e586cab14610260575f5ffd5b806310087fb1146101bf578063187ed5b1146101d45780631c54a0d4146101f9575b5f5ffd5b6101d26101cd366004611941565b6104a8565b005b6101dc610667565b6040516001600160a01b0390911681526020015b60405180910390f35b6101d2610207366004611941565b6106d7565b61021f61021a366004611983565b610751565b6040516101f095949392919061199e565b61023f671bc16d674ec8000081565b6040519081526020016101f0565b6101d261025b3660046119f0565b6107d8565b61027361026e366004611983565b61084d565b6040516101f09190611a07565b6101d261028e366004611a49565b6108c7565b6101d26102a13660046119f0565b61090e565b6102b96102b43660046119f0565b61094e565b604080516001600160a01b03909816885260208801969096529486019390935260ff9182166060860152608085015290151560a08401521660c082015260e0016101f0565b6103066109de565b60405190151581526020016101f0565b6003546101dc906001600160a01b031681565b61033c610337366004611983565b610a53565b6040516101f09190611a91565b6101d2610ac2565b6101d261035f366004611983565b610ad5565b5f546001600160a01b03166101dc565b61037c610bab565b6040516101f09493929190611bd3565b61023f61039a3660046119f0565b60066020525f908152604090205481565b6101d26103b93660046119f0565b610c2d565b6103d16103cc366004611c21565b610c6d565b6040516101f0929190611c4b565b6103066103ed366004611983565b610fbb565b6002546101dc906001600160a01b031681565b610306610413366004611983565b60076020525f908152604090205460ff1681565b6005546101dc906001600160a01b031681565b61044d610448366004611983565b611037565b6040516101f09190611cc1565b6004546101dc906001600160a01b031681565b6101d261047b366004611983565b6110a6565b6104886110e0565b6040805194855260208501939093529183015260608201526080016101f0565b6104b0611158565b60048160ff16106104fd5760405162461bcd60e51b815260206004820152601260248201527122a92927a92fa9aa20a5a2afa4a72222ac1760711b60448201526064015b60405180910390fd5b60ff81165f90815260066020526040902054801561055557828110156105555760405162461bcd60e51b815260206004820152600d60248201526c22a92927a92fa0a6a7aaa72a1760991b60448201526064016104f4565b8160ff165f036105b757335f9081526007602052604090205460ff16156105b75760405162461bcd60e51b81526020600482015260166024820152752224a9a0a62627aba2a22fa7a92222a92faa2ca8229760511b60448201526064016104f4565b6002546004546105d6916001600160a01b039081169133911686611182565b6004805460405163031a0e0360e51b815233928101929092526024820185905260ff841660448301526001600160a01b031690636341c060906064015f604051808303815f87803b158015610629575f5ffd5b505af115801561063b573d5f5f3e3d5ffd5b5050335f908152600760205260409020805460ff191660011790555061066391506112ad9050565b5050565b6005546040805163187ed5b160e01b815290515f926001600160a01b03169163187ed5b19160048083019260209291908290030181865afa1580156106ae573d5f5f3e3d5ffd5b505050506040513d601f19601f820116820180604052508101906106d29190611d1a565b905090565b6106df611158565b60048054604051631bd8358960e31b815233928101929092526024820184905260ff831660448301526001600160a01b03169063dec1ac48906064015f604051808303815f87803b158015610732575f5ffd5b505af1158015610744573d5f5f3e3d5ffd5b5050505061066360018055565b600554604051631caa058560e11b81526001600160a01b0383811660048301525f9283928392839283929116906339540b0a9060240160a060405180830381865afa1580156107a2573d5f5f3e3d5ffd5b505050506040513d601f19601f820116820180604052508101906107c69190611d35565b939a9299509097509550909350915050565b6107e0611158565b60048054604051630615339760e51b81523392810192909252602482018390526001600160a01b03169063c2a672e0906044015b5f604051808303815f87803b15801561082b575f5ffd5b505af115801561083d573d5f5f3e3d5ffd5b5050505061084a60018055565b50565b60048054604051632e586cab60e01b81526001600160a01b038481169382019390935260609290911690632e586cab906024015f60405180830381865afa15801561089a573d5f5f3e3d5ffd5b505050506040513d5f823e601f3d908101601f191682016040526108c19190810190611e49565b92915050565b6108cf6112b3565b600380546001600160a01b039485166001600160a01b031991821617909155600480549385169382169390931790925560058054919093169116179055565b610916611158565b60048054604051635569f64b60e11b81523392810192909252602482018390526001600160a01b03169063aad3ec9690604401610814565b60048054604051631e186afb60e01b81529182018390525f918291829182918291829182916001600160a01b0390911690631e186afb9060240160e060405180830381865afa1580156109a3573d5f5f3e3d5ffd5b505050506040513d601f19601f820116820180604052508101906109c79190611ef3565b959e949d50929b5090995097509550909350915050565b5f60045f9054906101000a90046001600160a01b03166001600160a01b03166316efd9416040518163ffffffff1660e01b8152600401602060405180830381865afa158015610a2f573d5f5f3e3d5ffd5b505050506040513d601f19601f820116820180604052508101906106d29190611f6a565b600354604051630c78d3e160e31b81526001600160a01b03838116600483015260609216906363c69f08906024015f60405180830381865afa158015610a9b573d5f5f3e3d5ffd5b505050506040513d5f823e601f3d908101601f191682016040526108c19190810190611fac565b610aca6112b3565b610ad35f6112df565b565b610add611158565b6001600160a01b038116610b235760405162461bcd60e51b815260206004820152600d60248201526c2d32b9379030b2323932b9b99760991b60448201526064016104f4565b336001600160a01b03821603610b735760405162461bcd60e51b815260206004820152601560248201527422b93937b9103830b932b73a1030b2323932b9b99760591b60448201526064016104f4565b600554604051631c505d1d60e01b81526001600160a01b03838116600483015233602483015290911690631c505d1d90604401610814565b5f610bb4611914565b600480546040805163a32bf59760e01b815290515f9384936001600160a01b03169263a32bf5979281830192610300928290030181865afa158015610bfb573d5f5f3e3d5ffd5b505050506040513d601f19601f82011682018060405250810190610c1f9190612108565b929791965094509092509050565b610c35611158565b6004805460405163a05a9e1360e01b81523392810192909252602482018390526001600160a01b03169063a05a9e1390604401610814565b60408051610100810182525f80825260208201819052918101829052606081018290526080810182905260a0810182905260c0810182905260e08101829052600354604051630c78d3e160e31b81526001600160a01b0386811660048301525f9216906363c69f08906024015f60405180830381865afa158015610cf3573d5f5f3e3d5ffd5b505050506040513d5f823e601f3d908101601f19168201604052610d1a9190810190611fac565b8481518110610d2b57610d2b6121a3565b60209081029190910101516003546080820151604051634640ed5f60e11b815260ff90911660048201529192505f918291829182916001600160a01b031690638c81dabe90602401608060405180830381865afa158015610d8e573d5f5f3e3d5ffd5b505050506040513d601f19601f82011682018060405250810190610db291906121cd565b93509350935093505f60405180608001604052808663ffffffff1681526020018563ffffffff1681526020018463ffffffff168152602001836001600160401b031681525090505f60035f9054906101000a90046001600160a01b03166001600160a01b0316635c975abb6040518163ffffffff1660e01b8152600401602060405180830381865afa158015610e4a573d5f5f3e3d5ffd5b505050506040513d601f19601f82011682018060405250810190610e6e9190611f6a565b90505f60035f9054906101000a90046001600160a01b03166001600160a01b031663015cb3ff6040518163ffffffff1660e01b8152600401602060405180830381865afa158015610ec1573d5f5f3e3d5ffd5b505050506040513d601f19601f82011682018060405250810190610ee5919061221e565b90505f60035f9054906101000a90046001600160a01b03166001600160a01b03166311d72f1c6040518163ffffffff1660e01b8152600401602060405180830381865afa158015610f38573d5f5f3e3d5ffd5b505050506040513d601f19601f82011682018060405250810190610f5c9190612237565b9050610f7a8985428563ffffffff16856001600160401b031661132e565b9a505f89608001516001610f8e9190612264565b9050610fa88a8642878786886001600160401b03166113b0565b9a50505050505050505050509250929050565b600554604051631caa058560e11b81526001600160a01b0383811660048301525f9283929116906339540b0a9060240160a060405180830381865afa158015611006573d5f5f3e3d5ffd5b505050506040513d601f19601f8201168201806040525081019061102a9190611d35565b5015159695505050505050565b600554604051633737342360e21b81526001600160a01b038381166004830152606092169063dcdcd08c906024015f60405180830381865afa15801561107f573d5f5f3e3d5ffd5b505050506040513d5f823e601f3d908101601f191682016040526108c1919081019061227d565b6110ae6112b3565b6001600160a01b0381166110d757604051631e4fbdf760e01b81525f60048201526024016104f4565b61084a816112df565b5f5f5f5f60045f9054906101000a90046001600160a01b03166001600160a01b031663e4c2ab716040518163ffffffff1660e01b8152600401608060405180830381865afa158015611134573d5f5f3e3d5ffd5b505050506040513d601f19601f82011682018060405250810190610c1f919061233b565b60026001540361117b57604051633ee5aeb560e01b815260040160405180910390fd5b6002600155565b604080516001600160a01b0385811660248301528481166044830152606480830185905283518084039091018152608490920183526020820180516001600160e01b03166323b872dd60e01b17905291515f928392908816916111e5919061236e565b5f604051808303815f865af19150503d805f811461121e576040519150601f19603f3d011682016040523d82523d5f602084013e611223565b606091505b509150915081801561124d57508051158061124d57508080602001905181019061124d9190611f6a565b6112a55760405162461bcd60e51b8152602060048201526024808201527f5472616e7366657248656c7065723a205452414e534645525f46524f4d5f46416044820152631253115160e21b60648201526084016104f4565b505050505050565b60018055565b5f546001600160a01b03163314610ad35760405163118cdaa760e01b81523360048201526024016104f4565b5f80546001600160a01b038381166001600160a01b0319831681178455604051919092169283917f8be0079c531659141344cd1fd0a4f28419497f9722a3daafe3b4186f6b6457e09190a35050565b5f5f61133c8787878761150a565b90505f61134a8887866115e5565b90505f6113578284612384565b90505f8961010001516001600160801b03168a602001516001600160801b03166113819190612384565b9050808211611396575f9450505050506113a7565b6113a08183612397565b9450505050505b95945050505050565b60408051610100810182525f80825260208201819052918101829052606081018290526080810182905260a0810182905260c0810182905260e08101919091526060880151875163ffffffff918216915f9161140d911683612384565b90505f61141e836301e13380612384565b905087801561143c57508663ffffffff168b60c0015163ffffffff16105b151560a085018190525f90611456908d908d908d90611687565b90505f61147c8d8d8d8960a0015161146e575f611470565b8c5b63ffffffff168b61132e565b90508c60a0015160ff165f1480156114915750815b801561149c57505f81115b1515604087018190526114b0575f196114b2565b5f5b86525f6114c28e8e8e8e8e6117ac565b8051151560608901526020808201519089015290506114e58e8e8e8e8e8e6118a8565b15156080880152505050881160c08401529096101560e0820152979650505050505050565b5f8460a0015160ff165f1461152057505f6115dd565b8351606086015184915f9161153591906123aa565b63ffffffff16905080821115611549578091505b5f8411801561155757508382115b15611560578391505b866060015163ffffffff16821161157b575f925050506115dd565b5f876060015163ffffffff16836115929190612397565b9050670de0b6b3a764000087606001516001600160401b0316828a5f01516001600160801b03166115c391906123c6565b6115cd91906123c6565b6115d791906123f1565b93505050505b949350505050565b5f83610120015163ffffffff165f036115ff57505f611680565b5f6201518085610120015163ffffffff168561161b9190612397565b61162591906123f1565b90505f61163284836123c6565b9050670de0b6b3a764000081111561164f5750670de0b6b3a76400005b670de0b6b3a7640000818760e001516001600160801b031661167191906123c6565b61167b91906123f1565b925050505b9392505050565b5f8115611696575060016115dd565b6060850151845163ffffffff918216915f916116b3911683612384565b9050856040015163ffffffff16816116cb9190612384565b8511156116dc575f925050506115dd565b60208601516116f19063ffffffff1683612384565b851015611702575f925050506115dd565b5f61170d8387612397565b90505f876020015163ffffffff168261172691906123f1565b90505f8860200151895f015161173c9190612404565b63ffffffff16905080821115611750578091505b5f896020015163ffffffff168361176791906123c6565b6117719087612384565b90505f8a6040015163ffffffff168261178a9190612384565b9050818a1015801561179c5750808a11155b9c9b505050505050505050505050565b604080516060810182525f80825260208201819052918101919091528280156117e457508163ffffffff168660c0015163ffffffff16105b1515604082015260a086015160ff161561180d575f8082525f19602083015260408201526113a7565b806040015115611826575f81525f1960208201526113a7565b845160608701515f91611838916123aa565b63ffffffff1690505f87606001516301e1338061185591906123aa565b63ffffffff1690508186101561187c575f83526118728683612397565b602084015261189d565b80861161189257600183525f602084015261189d565b5f83525f1960208401525b505095945050505050565b5f5f6118b788888888886117ac565b80519091506118c9575f91505061190a565b608088015160ff16156118dc575f6118df565b60015b88608001516118ee9190612264565b60ff168360ff161015611904575f91505061190a565b60019150505b9695505050505050565b604051806102a001604052806015906020820280368337509192915050565b60ff8116811461084a575f5ffd5b5f5f60408385031215611952575f5ffd5b82359150602083013561196481611933565b809150509250929050565b6001600160a01b038116811461084a575f5ffd5b5f60208284031215611993575f5ffd5b81356116808161196f565b6001600160a01b038616815260a08101600886106119ca57634e487b7160e01b5f52602160045260245ffd5b85602083015261ffff851660408301528360608301528260808301529695505050505050565b5f60208284031215611a00575f5ffd5b5035919050565b602080825282518282018190525f918401906040840190835b81811015611a3e578351835260209384019390920191600101611a20565b509095945050505050565b5f5f5f60608486031215611a5b575f5ffd5b8335611a668161196f565b92506020840135611a768161196f565b91506040840135611a868161196f565b809150509250925092565b602080825282518282018190525f918401906040840190835b81811015611a3e57835180516001600160801b031684526020810151611adb60208601826001600160801b03169052565b506040810151611af3604086018263ffffffff169052565b506060810151611b0b606086018263ffffffff169052565b506080810151611b20608086018260ff169052565b5060a0810151611b3560a086018260ff169052565b5060c0810151611b4d60c086018263ffffffff169052565b5060e0810151611b6860e08601826001600160801b03169052565b50610100810151611b856101008601826001600160801b03169052565b50610120810151611b9f61012086018263ffffffff169052565b506101408101519050611bbb61014085018263ffffffff169052565b50602093909301926101609290920191600101611aaa565b848152610300810160208201855f5b6015811015611c0a5781516001600160a01b0316835260209283019290910190600101611be2565b5050506102c08201939093526102e0015292915050565b5f5f60408385031215611c32575f5ffd5b8235611c3d8161196f565b946020939093013593505050565b5f6101208201905083825282516020830152602083015160408301526040830151151560608301526060830151151560808301526080830151151560a083015260a0830151611c9e60c084018215159052565b5060c0830151151560e08381019190915290920151151561010090910152919050565b602080825282518282018190525f918401906040840190835b81811015611a3e57835180516001600160a01b03168452602080820151818601526040918201519185019190915290930192606090920191600101611cda565b5f60208284031215611d2a575f5ffd5b81516116808161196f565b5f5f5f5f5f60a08688031215611d49575f5ffd5b8551611d548161196f565b602087015190955060088110611d68575f5ffd5b604087015190945061ffff81168114611d7f575f5ffd5b6060870151608090970151959894975095949392505050565b634e487b7160e01b5f52604160045260245ffd5b60405161016081016001600160401b0381118282101715611dcf57611dcf611d98565b60405290565b604051606081016001600160401b0381118282101715611dcf57611dcf611d98565b604051601f8201601f191681016001600160401b0381118282101715611e1f57611e1f611d98565b604052919050565b5f6001600160401b03821115611e3f57611e3f611d98565b5060051b60200190565b5f60208284031215611e59575f5ffd5b81516001600160401b03811115611e6e575f5ffd5b8201601f81018413611e7e575f5ffd5b8051611e91611e8c82611e27565b611df7565b8082825260208201915060208360051b850101925086831115611eb2575f5ffd5b6020840193505b8284101561190a578351825260209384019390910190611eb9565b8051611edf81611933565b919050565b80518015158114611edf575f5ffd5b5f5f5f5f5f5f5f60e0888a031215611f09575f5ffd5b8751611f148161196f565b602089015160408a015160608b01519299509097509550611f3481611933565b60808901519094509250611f4a60a08901611ee4565b915060c0880151611f5a81611933565b8091505092959891949750929550565b5f60208284031215611f7a575f5ffd5b61168082611ee4565b80516001600160801b0381168114611edf575f5ffd5b805163ffffffff81168114611edf575f5ffd5b5f60208284031215611fbc575f5ffd5b81516001600160401b03811115611fd1575f5ffd5b8201601f81018413611fe1575f5ffd5b8051611fef611e8c82611e27565b8082825260208201915060206101608402850101925086831115612011575f5ffd5b6020840193505b8284101561190a576101608488031215612030575f5ffd5b612038611dac565b61204185611f83565b815261204f60208601611f83565b602082015261206060408601611f99565b604082015261207160608601611f99565b606082015261208260808601611ed4565b608082015261209360a08601611ed4565b60a08201526120a460c08601611f99565b60c08201526120b560e08601611f83565b60e08201526120c76101008601611f83565b6101008201526120da6101208601611f99565b6101208201526120ed6101408601611f99565b61014082015282526101609390930192602090910190612018565b5f5f5f5f610300858703121561211c575f5ffd5b84519350603f8501861361212e575f5ffd5b6040516102a081016001600160401b038111828210171561215157612151611d98565b604052806102c0870188811115612166575f5ffd5b602088015b8181101561218c57805161217e8161196f565b83526020928301920161216b565b50516102e097909701519598919750909350505050565b634e487b7160e01b5f52603260045260245ffd5b80516001600160401b0381168114611edf575f5ffd5b5f5f5f5f608085870312156121e0575f5ffd5b6121e985611f99565b93506121f760208601611f99565b925061220560408601611f99565b9150612213606086016121b7565b905092959194509250565b5f6020828403121561222e575f5ffd5b61168082611f99565b5f60208284031215612247575f5ffd5b611680826121b7565b634e487b7160e01b5f52601160045260245ffd5b60ff81811683821601908111156108c1576108c1612250565b5f6020828403121561228d575f5ffd5b81516001600160401b038111156122a2575f5ffd5b8201601f810184136122b2575f5ffd5b80516122c0611e8c82611e27565b808282526020820191506020606084028501019250868311156122e1575f5ffd5b6020840193505b8284101561190a57606084880312156122ff575f5ffd5b612307611dd5565b84516123128161196f565b8152602085810151818301526040808701519083015290835260609094019391909101906122e8565b5f5f5f5f6080858703121561234e575f5ffd5b505082516020840151604085015160609095015191969095509092509050565b5f82518060208501845e5f920191825250919050565b808201808211156108c1576108c1612250565b818103818111156108c1576108c1612250565b63ffffffff81811683821601908111156108c1576108c1612250565b80820281158282048414176108c1576108c1612250565b634e487b7160e01b5f52601260045260245ffd5b5f826123ff576123ff6123dd565b500490565b5f63ffffffff831680612419576124196123dd565b8063ffffffff8416049150509291505056fea2646970667358221220103ced1ba3a9d39085002d07a818c899281b649ec2e1a51448c8dbb993129c5e64736f6c634300081e0033","linkReferences":{}},"methodIdentifiers":{"MIN_STAKE_AMOUNT()":"27ed7188","USDT()":"c54e44eb","alreadyExistsUser(address)":"cbd2fbe1","cancelQueue(uint256)":"a684db3a","claim(uint256)":"379607f5","getCurrentQuota()":"f67dae23","getDirectReferralInfo(address)":"dcdcd08c","getFomoInfo()":"a28f8432","getOrderStatus(address,uint256)":"a80a3baa","getQueueInfo(uint256)":"4bedf369","getReferralInfo(address)":"21874ae2","getSystemStatus()":"50c1d19d","getUserOrders(address)":"63c69f08","getUserQueueIds(address)":"2e586cab","maxValueOfStakeIndex(uint256)":"a652a02a","owner()":"8da5cb5b","queue()":"e10d29ee","referral(address)":"7247959a","referrals()":"d3dc7539","renounceOwnership()":"715018a6","restake(uint256,uint8)":"1c54a0d4","rootAddr()":"187ed5b1","setConfig(address,address,address)":"3141e25b","stake(uint256,uint8)":"10087fb1","transferOwnership(address)":"f2fde38b","treasury()":"61d027b3","unstake(uint256)":"2e17de78","verifyReferralCode(address)":"c2cfe4cb"},"id":49}