{"abi":[{"type":"constructor","inputs":[{"name":"_treasury","type":"address","internalType":"address"},{"name":"_queue","type":"address","internalType":"address"},{"name":"_referrals","type":"address","internalType":"address"},{"name":"_USDT","type":"address","internalType":"address"}],"stateMutability":"nonpayable"},{"type":"function","name":"MIN_STAKE_AMOUNT","inputs":[],"outputs":[{"name":"","type":"uint256","internalType":"uint256"}],"stateMutability":"view"},{"type":"function","name":"USDT","inputs":[],"outputs":[{"name":"","type":"address","internalType":"address"}],"stateMutability":"view"},{"type":"function","name":"alreadyExistsUser","inputs":[{"name":"","type":"address","internalType":"address"}],"outputs":[{"name":"","type":"bool","internalType":"bool"}],"stateMutability":"view"},{"type":"function","name":"cancelQueue","inputs":[{"name":"queueOrderId","type":"uint256","internalType":"uint256"}],"outputs":[],"stateMutability":"nonpayable"},{"type":"function","name":"claim","inputs":[{"name":"orderIndex","type":"uint256","internalType":"uint256"}],"outputs":[],"stateMutability":"nonpayable"},{"type":"function","name":"getCurrentQuota","inputs":[],"outputs":[{"name":"stakeUsed","type":"uint256","internalType":"uint256"},{"name":"stakeRemaining","type":"uint256","internalType":"uint256"},{"name":"unstakeUsed","type":"uint256","internalType":"uint256"},{"name":"unstakeRemaining","type":"uint256","internalType":"uint256"}],"stateMutability":"view"},{"type":"function","name":"getDirectReferralInfo","inputs":[{"name":"user","type":"address","internalType":"address"}],"outputs":[{"name":"","type":"tuple[]","internalType":"struct Models.DirectReferral[]","components":[{"name":"user","type":"address","internalType":"address"},{"name":"staked","type":"uint256","internalType":"uint256"},{"name":"performance","type":"uint256","internalType":"uint256"}]}],"stateMutability":"view"},{"type":"function","name":"getFomoInfo","inputs":[],"outputs":[{"name":"roundId","type":"uint256","internalType":"uint256"},{"name":"lastQualified","type":"address[21]","internalType":"address[21]"},{"name":"count","type":"uint256","internalType":"uint256"},{"name":"poolBalance","type":"uint256","internalType":"uint256"}],"stateMutability":"view"},{"type":"function","name":"getOrderStatus","inputs":[{"name":"user","type":"address","internalType":"address"},{"name":"orderIndex","type":"uint256","internalType":"uint256"}],"outputs":[{"name":"truthAward","type":"uint256","internalType":"uint256"},{"name":"result","type":"tuple","internalType":"struct Models.RuleResult","components":[{"name":"claimCountdown","type":"uint256","internalType":"uint256"},{"name":"unstakeCountdown","type":"uint256","internalType":"uint256"},{"name":"canClaim","type":"bool","internalType":"bool"},{"name":"canUnstake","type":"bool","internalType":"bool"},{"name":"canRestake","type":"bool","internalType":"bool"},{"name":"isFrozen","type":"bool","internalType":"bool"},{"name":"isExpired","type":"bool","internalType":"bool"},{"name":"isMatured","type":"bool","internalType":"bool"}]}],"stateMutability":"view"},{"type":"function","name":"getQueueInfo","inputs":[{"name":"queueId","type":"uint256","internalType":"uint256"}],"outputs":[{"name":"user","type":"address","internalType":"address"},{"name":"amount","type":"uint256","internalType":"uint256"},{"name":"orderIndex","type":"uint256","internalType":"uint256"},{"name":"stakeIndex","type":"uint8","internalType":"uint8"},{"name":"createdAt","type":"uint256","internalType":"uint256"},{"name":"isRestake","type":"bool","internalType":"bool"},{"name":"status","type":"uint8","internalType":"uint8"}],"stateMutability":"view"},{"type":"function","name":"getQueueRange","inputs":[],"outputs":[{"name":"head","type":"uint256","internalType":"uint256"},{"name":"tail","type":"uint256","internalType":"uint256"}],"stateMutability":"view"},{"type":"function","name":"getReferralInfo","inputs":[{"name":"user","type":"address","internalType":"address"}],"outputs":[{"name":"parent","type":"address","internalType":"address"},{"name":"level","type":"uint8","internalType":"enum Models.LevelType"},{"name":"referralNum","type":"uint16","internalType":"uint16"},{"name":"totalStaked","type":"uint256","internalType":"uint256"},{"name":"performance","type":"uint256","internalType":"uint256"}],"stateMutability":"view"},{"type":"function","name":"getUserOrders","inputs":[{"name":"user","type":"address","internalType":"address"}],"outputs":[{"name":"","type":"tuple[]","internalType":"struct Models.Order[]","components":[{"name":"amount","type":"uint128","internalType":"uint128"},{"name":"claimed","type":"uint128","internalType":"uint128"},{"name":"claimedPeriods","type":"uint32","internalType":"uint32"},{"name":"startTime","type":"uint32","internalType":"uint32"},{"name":"stakeIndex","type":"uint8","internalType":"uint8"},{"name":"status","type":"uint8","internalType":"uint8"},{"name":"createdAt","type":"uint32","internalType":"uint32"},{"name":"frozenReward","type":"uint128","internalType":"uint128"},{"name":"frozenClaimed","type":"uint128","internalType":"uint128"},{"name":"freezeStart","type":"uint32","internalType":"uint32"},{"name":"freezeRound","type":"uint32","internalType":"uint32"}]}],"stateMutability":"view"},{"type":"function","name":"getUserQueueIds","inputs":[{"name":"user","type":"address","internalType":"address"}],"outputs":[{"name":"","type":"uint256[]","internalType":"uint256[]"}],"stateMutability":"view"},{"type":"function","name":"maxValueOfStakeIndex","inputs":[{"name":"","type":"uint256","internalType":"uint256"}],"outputs":[{"name":"","type":"uint256","internalType":"uint256"}],"stateMutability":"view"},{"type":"function","name":"owner","inputs":[],"outputs":[{"name":"","type":"address","internalType":"address"}],"stateMutability":"view"},{"type":"function","name":"queue","inputs":[],"outputs":[{"name":"","type":"address","internalType":"address"}],"stateMutability":"view"},{"type":"function","name":"referral","inputs":[{"name":"parent","type":"address","internalType":"address"}],"outputs":[],"stateMutability":"nonpayable"},{"type":"function","name":"referrals","inputs":[],"outputs":[{"name":"","type":"address","internalType":"address"}],"stateMutability":"view"},{"type":"function","name":"renounceOwnership","inputs":[],"outputs":[],"stateMutability":"nonpayable"},{"type":"function","name":"restake","inputs":[{"name":"orderIndex","type":"uint256","internalType":"uint256"},{"name":"newStakeIndex","type":"uint8","internalType":"uint8"}],"outputs":[],"stateMutability":"nonpayable"},{"type":"function","name":"rootAddr","inputs":[],"outputs":[{"name":"","type":"address","internalType":"address"}],"stateMutability":"view"},{"type":"function","name":"setAmountLimit","inputs":[{"name":"amount","type":"uint256","internalType":"uint256"}],"outputs":[],"stateMutability":"nonpayable"},{"type":"function","name":"setConfig","inputs":[{"name":"_treasury","type":"address","internalType":"address"},{"name":"_queue","type":"address","internalType":"address"},{"name":"_referrals","type":"address","internalType":"address"}],"outputs":[],"stateMutability":"nonpayable"},{"type":"function","name":"stake","inputs":[{"name":"amount","type":"uint256","internalType":"uint256"},{"name":"stakeIndex","type":"uint8","internalType":"uint8"}],"outputs":[],"stateMutability":"nonpayable"},{"type":"function","name":"stakingAmountLimit","inputs":[],"outputs":[{"name":"","type":"uint256","internalType":"uint256"}],"stateMutability":"view"},{"type":"function","name":"transferOwnership","inputs":[{"name":"newOwner","type":"address","internalType":"address"}],"outputs":[],"stateMutability":"nonpayable"},{"type":"function","name":"treasury","inputs":[],"outputs":[{"name":"","type":"address","internalType":"address"}],"stateMutability":"view"},{"type":"function","name":"unstake","inputs":[{"name":"orderIndex","type":"uint256","internalType":"uint256"}],"outputs":[],"stateMutability":"nonpayable"},{"type":"function","name":"verifyReferralCode","inputs":[{"name":"user","type":"address","internalType":"address"}],"outputs":[{"name":"","type":"bool","internalType":"bool"}],"stateMutability":"view"},{"type":"event","name":"OwnershipTransferred","inputs":[{"name":"previousOwner","type":"address","indexed":true,"internalType":"address"},{"name":"newOwner","type":"address","indexed":true,"internalType":"address"}],"anonymous":false},{"type":"error","name":"OwnableInvalidOwner","inputs":[{"name":"owner","type":"address","internalType":"address"}]},{"type":"error","name":"OwnableUnauthorizedAccount","inputs":[{"name":"account","type":"address","internalType":"address"}]},{"type":"error","name":"ReentrancyGuardReentrantCall","inputs":[]}],"bytecode":{"object":"0x608060405234801561000f575f5ffd5b5060405161282738038061282783398101604081905261002e91610160565b338061005357604051631e4fbdf760e01b81525f600482015260240160405180910390fd5b61005c816100f6565b5060018055600380546001600160a01b039586166001600160a01b03199182161790915560048054948616948216949094179093556005805492851692841692909217909155600280549190931691161790555f8052600660205268056bc75e2d631000007f54cdd369e4e8a8515e52ca72ec816c2101831ad1f18bf44102ed171459c9b4f85569021e19e0c9bab24000006008556101b1565b5f80546001600160a01b038381166001600160a01b0319831681178455604051919092169283917f8be0079c531659141344cd1fd0a4f28419497f9722a3daafe3b4186f6b6457e09190a35050565b80516001600160a01b038116811461015b575f5ffd5b919050565b5f5f5f5f60808587031215610173575f5ffd5b61017c85610145565b935061018a60208601610145565b925061019860408601610145565b91506101a660608601610145565b905092959194509250565b612669806101be5f395ff3fe608060405234801561000f575f5ffd5b50600436106101d1575f3560e01c8063715018a6116100fe578063c2cfe4cb1161009e578063dcdcd08c1161006e578063dcdcd08c14610481578063e10d29ee146104a1578063f2fde38b146104b4578063f67dae23146104c7575f5ffd5b8063c2cfe4cb14610416578063c54e44eb14610439578063cbd2fbe11461044c578063d3dc75391461046e575f5ffd5b8063a28f8432116100d9578063a28f8432146103ab578063a652a02a146103c3578063a684db3a146103e2578063a80a3baa146103f5575f5ffd5b8063715018a6146103805780637247959a146103885780638da5cb5b1461039b575f5ffd5b80632e17de78116101745780633f045b40116101445780633f045b40146102e25780634bedf369146102f557806361d027b31461034d57806363c69f0814610360575f5ffd5b80632e17de78146102895780632e586cab1461029c5780633141e25b146102bc578063379607f5146102cf575f5ffd5b8063187ed5b1116101af578063187ed5b1146102235780631c54a0d41461024357806321874ae21461025657806327ed71881461027a575f5ffd5b806301d1a559146101d557806310087fb1146101f157806310b5a38e14610206575b5f5ffd5b6101de60085481565b6040519081526020015b60405180910390f35b6102046101ff366004611b27565b6104ef565b005b61020e6106f8565b604080519283526020830191909152016101e8565b61022b61076b565b6040516001600160a01b0390911681526020016101e8565b610204610251366004611b27565b6107db565b610269610264366004611b69565b610855565b6040516101e8959493929190611b84565b6101de671bc16d674ec8000081565b610204610297366004611bd6565b6108dc565b6102af6102aa366004611b69565b610951565b6040516101e89190611bed565b6102046102ca366004611c2f565b6109cb565b6102046102dd366004611bd6565b610a12565b6102046102f0366004611bd6565b610a52565b610308610303366004611bd6565b610aae565b604080516001600160a01b03909816885260208801969096529486019390935260ff9182166060860152608085015290151560a08401521660c082015260e0016101e8565b60035461022b906001600160a01b031681565b61037361036e366004611b69565b610b3e565b6040516101e89190611c77565b610204610bad565b610204610396366004611b69565b610bc0565b5f546001600160a01b031661022b565b6103b3610c96565b6040516101e89493929190611db9565b6101de6103d1366004611bd6565b60066020525f908152604090205481565b6102046103f0366004611bd6565b610d18565b610408610403366004611e07565b610d58565b6040516101e8929190611e31565b610429610424366004611b69565b6110a6565b60405190151581526020016101e8565b60025461022b906001600160a01b031681565b61042961045a366004611b69565b60076020525f908152604090205460ff1681565b60055461022b906001600160a01b031681565b61049461048f366004611b69565b611122565b6040516101e89190611ea7565b60045461022b906001600160a01b031681565b6102046104c2366004611b69565b611191565b6104cf6111cb565b6040805194855260208501939093529183015260608201526080016101e8565b6104f7611243565b8160085410156105465760405162461bcd60e51b815260206004820152601560248201527422a92927a92fa9aa20a5a4a723afa0a6a7aaa72a1760591b60448201526064015b60405180910390fd5b60048160ff161061058e5760405162461bcd60e51b815260206004820152601260248201527122a92927a92fa9aa20a5a2afa4a72222ac1760711b604482015260640161053d565b60ff81165f9081526006602052604090205480156105e657828110156105e65760405162461bcd60e51b815260206004820152600d60248201526c22a92927a92fa0a6a7aaa72a1760991b604482015260640161053d565b8160ff165f0361066257335f9081526007602052604090205460ff16156106485760405162461bcd60e51b81526020600482015260166024820152752224a9a0a62627aba2a22fa7a92222a92faa2ca8229760511b604482015260640161053d565b335f908152600760205260409020805460ff191660011790555b600254600454610681916001600160a01b03908116913391168661126d565b6004805460405163031a0e0360e51b815233928101929092526024820185905260ff841660448301526001600160a01b031690636341c060906064015f604051808303815f87803b1580156106d4575f5ffd5b505af11580156106e6573d5f5f3e3d5ffd5b50505050506106f460018055565b5050565b600480546040805163085ad1c760e11b815281515f9485946001600160a01b0316936310b5a38e93808301939192908290030181865afa15801561073e573d5f5f3e3d5ffd5b505050506040513d601f19601f820116820180604052508101906107629190611f00565b90939092509050565b6005546040805163187ed5b160e01b815290515f926001600160a01b03169163187ed5b19160048083019260209291908290030181865afa1580156107b2573d5f5f3e3d5ffd5b505050506040513d601f19601f820116820180604052508101906107d69190611f22565b905090565b6107e3611243565b60048054604051631bd8358960e31b815233928101929092526024820184905260ff831660448301526001600160a01b03169063dec1ac48906064015f604051808303815f87803b158015610836575f5ffd5b505af1158015610848573d5f5f3e3d5ffd5b505050506106f460018055565b600554604051631caa058560e11b81526001600160a01b0383811660048301525f9283928392839283929116906339540b0a9060240160a060405180830381865afa1580156108a6573d5f5f3e3d5ffd5b505050506040513d601f19601f820116820180604052508101906108ca9190611f3d565b939a9299509097509550909350915050565b6108e4611243565b60048054604051630615339760e51b81523392810192909252602482018390526001600160a01b03169063c2a672e0906044015b5f604051808303815f87803b15801561092f575f5ffd5b505af1158015610941573d5f5f3e3d5ffd5b5050505061094e60018055565b50565b60048054604051632e586cab60e01b81526001600160a01b038481169382019390935260609290911690632e586cab906024015f60405180830381865afa15801561099e573d5f5f3e3d5ffd5b505050506040513d5f823e601f3d908101601f191682016040526109c59190810190612051565b92915050565b6109d3611398565b600380546001600160a01b039485166001600160a01b031991821617909155600480549385169382169390931790925560058054919093169116179055565b610a1a611243565b60048054604051635569f64b60e11b81523392810192909252602482018390526001600160a01b03169063aad3ec9690604401610918565b610a5a611398565b68056bc75e2d63100000811015610aa95760405162461bcd60e51b815260206004820152601360248201527222a92927a92fa0a6a7aaa72a2fa624a6a4aa1760691b604482015260640161053d565b600855565b60048054604051631e186afb60e01b81529182018390525f918291829182918291829182916001600160a01b0390911690631e186afb9060240160e060405180830381865afa158015610b03573d5f5f3e3d5ffd5b505050506040513d601f19601f82011682018060405250810190610b2791906120fb565b959e949d50929b5090995097509550909350915050565b600354604051630c78d3e160e31b81526001600160a01b03838116600483015260609216906363c69f08906024015f60405180830381865afa158015610b86573d5f5f3e3d5ffd5b505050506040513d5f823e601f3d908101601f191682016040526109c5919081019061219b565b610bb5611398565b610bbe5f6113c4565b565b610bc8611243565b6001600160a01b038116610c0e5760405162461bcd60e51b815260206004820152600d60248201526c2d32b9379030b2323932b9b99760991b604482015260640161053d565b336001600160a01b03821603610c5e5760405162461bcd60e51b815260206004820152601560248201527422b93937b9103830b932b73a1030b2323932b9b99760591b604482015260640161053d565b600554604051631c505d1d60e01b81526001600160a01b03838116600483015233602483015290911690631c505d1d90604401610918565b5f610c9f611afa565b600480546040805163a32bf59760e01b815290515f9384936001600160a01b03169263a32bf5979281830192610300928290030181865afa158015610ce6573d5f5f3e3d5ffd5b505050506040513d601f19601f82011682018060405250810190610d0a91906122f7565b929791965094509092509050565b610d20611243565b6004805460405163a05a9e1360e01b81523392810192909252602482018390526001600160a01b03169063a05a9e1390604401610918565b60408051610100810182525f80825260208201819052918101829052606081018290526080810182905260a0810182905260c0810182905260e08101829052600354604051630c78d3e160e31b81526001600160a01b0386811660048301525f9216906363c69f08906024015f60405180830381865afa158015610dde573d5f5f3e3d5ffd5b505050506040513d5f823e601f3d908101601f19168201604052610e05919081019061219b565b8481518110610e1657610e16612392565b60209081029190910101516003546080820151604051634640ed5f60e11b815260ff90911660048201529192505f918291829182916001600160a01b031690638c81dabe90602401608060405180830381865afa158015610e79573d5f5f3e3d5ffd5b505050506040513d601f19601f82011682018060405250810190610e9d91906123bc565b93509350935093505f60405180608001604052808663ffffffff1681526020018563ffffffff1681526020018463ffffffff168152602001836001600160401b031681525090505f60035f9054906101000a90046001600160a01b03166001600160a01b0316635c975abb6040518163ffffffff1660e01b8152600401602060405180830381865afa158015610f35573d5f5f3e3d5ffd5b505050506040513d601f19601f82011682018060405250810190610f59919061240d565b90505f60035f9054906101000a90046001600160a01b03166001600160a01b031663015cb3ff6040518163ffffffff1660e01b8152600401602060405180830381865afa158015610fac573d5f5f3e3d5ffd5b505050506040513d601f19601f82011682018060405250810190610fd09190612426565b90505f60035f9054906101000a90046001600160a01b03166001600160a01b03166311d72f1c6040518163ffffffff1660e01b8152600401602060405180830381865afa158015611023573d5f5f3e3d5ffd5b505050506040513d601f19601f82011682018060405250810190611047919061243f565b90506110658985428563ffffffff16856001600160401b0316611413565b9a505f89608001516001611079919061246c565b90506110938a8642878786886001600160401b0316611495565b9a50505050505050505050509250929050565b600554604051631caa058560e11b81526001600160a01b0383811660048301525f9283929116906339540b0a9060240160a060405180830381865afa1580156110f1573d5f5f3e3d5ffd5b505050506040513d601f19601f820116820180604052508101906111159190611f3d565b5015159695505050505050565b600554604051633737342360e21b81526001600160a01b038381166004830152606092169063dcdcd08c906024015f60405180830381865afa15801561116a573d5f5f3e3d5ffd5b505050506040513d5f823e601f3d908101601f191682016040526109c59190810190612485565b611199611398565b6001600160a01b0381166111c257604051631e4fbdf760e01b81525f600482015260240161053d565b61094e816113c4565b5f5f5f5f60045f9054906101000a90046001600160a01b03166001600160a01b031663e4c2ab716040518163ffffffff1660e01b8152600401608060405180830381865afa15801561121f573d5f5f3e3d5ffd5b505050506040513d601f19601f82011682018060405250810190610d0a9190612543565b60026001540361126657604051633ee5aeb560e01b815260040160405180910390fd5b6002600155565b604080516001600160a01b0385811660248301528481166044830152606480830185905283518084039091018152608490920183526020820180516001600160e01b03166323b872dd60e01b17905291515f928392908816916112d09190612576565b5f604051808303815f865af19150503d805f8114611309576040519150601f19603f3d011682016040523d82523d5f602084013e61130e565b606091505b5091509150818015611338575080511580611338575080806020019051810190611338919061240d565b6113905760405162461bcd60e51b8152602060048201526024808201527f5472616e7366657248656c7065723a205452414e534645525f46524f4d5f46416044820152631253115160e21b606482015260840161053d565b505050505050565b5f546001600160a01b03163314610bbe5760405163118cdaa760e01b815233600482015260240161053d565b5f80546001600160a01b038381166001600160a01b0319831681178455604051919092169283917f8be0079c531659141344cd1fd0a4f28419497f9722a3daafe3b4186f6b6457e09190a35050565b5f5f611421878787876116d2565b90505f61142f8887866117ad565b90505f61143c828461258c565b90505f8961010001516001600160801b03168a602001516001600160801b0316611466919061258c565b905080821161147b575f94505050505061148c565b611485818361259f565b9450505050505b95945050505050565b60408051610100810182525f80825260208201819052918101829052606081018290526080810182905260a0810182905260c0810182905260e08101919091526060880151875163ffffffff918216915f916114f291168361258c565b90505f611503836301e1338061258c565b905087801561152157508663ffffffff168b60c0015163ffffffff16105b151560a085018190525f9061154e908d908d908d90611540575f611542565b8b5b63ffffffff168a611413565b90508460a001511561157d5760a08c015160ff1615801561156e57505f81115b151560408601525f855261167d565b5f61158a8d8d8d5f61184f565b90508c60a0015160ff165f14801561159f5750805b80156115aa57505f82115b15801560408801526115be575f865261167b565b828b11156115cf575f19865261167b565b5f858c116115dd575f6115e7565b6115e7868d61259f565b90505f8d6020015163ffffffff168261160091906125c6565b90505f8e602001518f5f015161161691906125d9565b63ffffffff16905080821061162e575f198952611677565b60208f01515f9063ffffffff1661164684600161258c565b6116509190612600565b61165a908a61258c565b90508e8111611669575f611673565b6116738f8261259f565b8a52505b5050505b505b5f61168b8d8d8d8d8d611992565b8051151560608801526020808201519088015290506116ae8d8d8d8d8d8d611a8e565b151560808701525050881160c08401529096101560e0820152979650505050505050565b5f8460a0015160ff165f146116e857505f6117a5565b8351606086015184915f916116fd9190612617565b63ffffffff16905080821115611711578091505b5f8411801561171f57508382115b15611728578391505b866060015163ffffffff168211611743575f925050506117a5565b5f876060015163ffffffff168361175a919061259f565b9050670de0b6b3a764000087606001516001600160401b0316828a5f01516001600160801b031661178b9190612600565b6117959190612600565b61179f91906125c6565b93505050505b949350505050565b5f83610120015163ffffffff165f036117c757505f611848565b5f6201518085610120015163ffffffff16856117e3919061259f565b6117ed91906125c6565b90505f6117fa8483612600565b9050670de0b6b3a76400008111156118175750670de0b6b3a76400005b670de0b6b3a7640000818760e001516001600160801b03166118399190612600565b61184391906125c6565b925050505b9392505050565b5f811561185e575060016117a5565b6060850151845163ffffffff918216915f9161187b91168361258c565b9050856040015163ffffffff1681611893919061258c565b8511156118a4575f925050506117a5565b60208601516118b99063ffffffff168361258c565b8510156118ca575f925050506117a5565b5f6118d5838761259f565b90505f876020015163ffffffff16826118ee91906125c6565b90505f8860200151895f015161190491906125d9565b63ffffffff16905080821115611918578091505b896040015163ffffffff168211611936575f955050505050506117a5565b5f896020015163ffffffff168361194d9190612600565b611957908761258c565b90505f8a6040015163ffffffff1682611970919061258c565b9050818a101580156119825750808a11155b9c9b505050505050505050505050565b604080516060810182525f80825260208201819052918101919091528280156119ca57508163ffffffff168660c0015163ffffffff16105b1515604082015260a086015160ff16156119f3575f8082525f196020830152604082015261148c565b806040015115611a0c575f81525f19602082015261148c565b845160608701515f91611a1e91612617565b63ffffffff1690505f87606001516301e13380611a3b9190612617565b63ffffffff16905081861015611a62575f8352611a58868361259f565b6020840152611a83565b808611611a7857600183525f6020840152611a83565b5f83525f1960208401525b505095945050505050565b5f5f611a9d8888888888611992565b8051909150611aaf575f915050611af0565b608088015160ff1615611ac2575f611ac5565b60015b8860800151611ad4919061246c565b60ff168360ff161015611aea575f915050611af0565b60019150505b9695505050505050565b604051806102a001604052806015906020820280368337509192915050565b60ff8116811461094e575f5ffd5b5f5f60408385031215611b38575f5ffd5b823591506020830135611b4a81611b19565b809150509250929050565b6001600160a01b038116811461094e575f5ffd5b5f60208284031215611b79575f5ffd5b813561184881611b55565b6001600160a01b038616815260a0810160088610611bb057634e487b7160e01b5f52602160045260245ffd5b85602083015261ffff851660408301528360608301528260808301529695505050505050565b5f60208284031215611be6575f5ffd5b5035919050565b602080825282518282018190525f918401906040840190835b81811015611c24578351835260209384019390920191600101611c06565b509095945050505050565b5f5f5f60608486031215611c41575f5ffd5b8335611c4c81611b55565b92506020840135611c5c81611b55565b91506040840135611c6c81611b55565b809150509250925092565b602080825282518282018190525f918401906040840190835b81811015611c2457835180516001600160801b031684526020810151611cc160208601826001600160801b03169052565b506040810151611cd9604086018263ffffffff169052565b506060810151611cf1606086018263ffffffff169052565b506080810151611d06608086018260ff169052565b5060a0810151611d1b60a086018260ff169052565b5060c0810151611d3360c086018263ffffffff169052565b5060e0810151611d4e60e08601826001600160801b03169052565b50610100810151611d6b6101008601826001600160801b03169052565b50610120810151611d8561012086018263ffffffff169052565b506101408101519050611da161014085018263ffffffff169052565b50602093909301926101609290920191600101611c90565b848152610300810160208201855f5b6015811015611df05781516001600160a01b0316835260209283019290910190600101611dc8565b5050506102c08201939093526102e0015292915050565b5f5f60408385031215611e18575f5ffd5b8235611e2381611b55565b946020939093013593505050565b5f6101208201905083825282516020830152602083015160408301526040830151151560608301526060830151151560808301526080830151151560a083015260a0830151611e8460c084018215159052565b5060c0830151151560e08381019190915290920151151561010090910152919050565b602080825282518282018190525f918401906040840190835b81811015611c2457835180516001600160a01b03168452602080820151818601526040918201519185019190915290930192606090920191600101611ec0565b5f5f60408385031215611f11575f5ffd5b505080516020909101519092909150565b5f60208284031215611f32575f5ffd5b815161184881611b55565b5f5f5f5f5f60a08688031215611f51575f5ffd5b8551611f5c81611b55565b602087015190955060088110611f70575f5ffd5b604087015190945061ffff81168114611f87575f5ffd5b6060870151608090970151959894975095949392505050565b634e487b7160e01b5f52604160045260245ffd5b60405161016081016001600160401b0381118282101715611fd757611fd7611fa0565b60405290565b604051606081016001600160401b0381118282101715611fd757611fd7611fa0565b604051601f8201601f191681016001600160401b038111828210171561202757612027611fa0565b604052919050565b5f6001600160401b0382111561204757612047611fa0565b5060051b60200190565b5f60208284031215612061575f5ffd5b81516001600160401b03811115612076575f5ffd5b8201601f81018413612086575f5ffd5b80516120996120948261202f565b611fff565b8082825260208201915060208360051b8501019250868311156120ba575f5ffd5b6020840193505b82841015611af05783518252602093840193909101906120c1565b80516120e781611b19565b919050565b805180151581146120e7575f5ffd5b5f5f5f5f5f5f5f60e0888a031215612111575f5ffd5b875161211c81611b55565b602089015160408a015160608b0151929950909750955061213c81611b19565b6080890151909450925061215260a089016120ec565b915060c088015161216281611b19565b8091505092959891949750929550565b80516001600160801b03811681146120e7575f5ffd5b805163ffffffff811681146120e7575f5ffd5b5f602082840312156121ab575f5ffd5b81516001600160401b038111156121c0575f5ffd5b8201601f810184136121d0575f5ffd5b80516121de6120948261202f565b8082825260208201915060206101608402850101925086831115612200575f5ffd5b6020840193505b82841015611af057610160848803121561221f575f5ffd5b612227611fb4565b61223085612172565b815261223e60208601612172565b602082015261224f60408601612188565b604082015261226060608601612188565b6060820152612271608086016120dc565b608082015261228260a086016120dc565b60a082015261229360c08601612188565b60c08201526122a460e08601612172565b60e08201526122b66101008601612172565b6101008201526122c96101208601612188565b6101208201526122dc6101408601612188565b61014082015282526101609390930192602090910190612207565b5f5f5f5f610300858703121561230b575f5ffd5b84519350603f8501861361231d575f5ffd5b6040516102a081016001600160401b038111828210171561234057612340611fa0565b604052806102c0870188811115612355575f5ffd5b602088015b8181101561237b57805161236d81611b55565b83526020928301920161235a565b50516102e097909701519598919750909350505050565b634e487b7160e01b5f52603260045260245ffd5b80516001600160401b03811681146120e7575f5ffd5b5f5f5f5f608085870312156123cf575f5ffd5b6123d885612188565b93506123e660208601612188565b92506123f460408601612188565b9150612402606086016123a6565b905092959194509250565b5f6020828403121561241d575f5ffd5b611848826120ec565b5f60208284031215612436575f5ffd5b61184882612188565b5f6020828403121561244f575f5ffd5b611848826123a6565b634e487b7160e01b5f52601160045260245ffd5b60ff81811683821601908111156109c5576109c5612458565b5f60208284031215612495575f5ffd5b81516001600160401b038111156124aa575f5ffd5b8201601f810184136124ba575f5ffd5b80516124c86120948261202f565b808282526020820191506020606084028501019250868311156124e9575f5ffd5b6020840193505b82841015611af05760608488031215612507575f5ffd5b61250f611fdd565b845161251a81611b55565b8152602085810151818301526040808701519083015290835260609094019391909101906124f0565b5f5f5f5f60808587031215612556575f5ffd5b505082516020840151604085015160609095015191969095509092509050565b5f82518060208501845e5f920191825250919050565b808201808211156109c5576109c5612458565b818103818111156109c5576109c5612458565b634e487b7160e01b5f52601260045260245ffd5b5f826125d4576125d46125b2565b500490565b5f63ffffffff8316806125ee576125ee6125b2565b8063ffffffff84160491505092915050565b80820281158282048414176109c5576109c5612458565b63ffffffff81811683821601908111156109c5576109c561245856fea2646970667358221220a67d4925d3f83bff5fb05fa08580f5fec90bc05d0b7a71bee8123a509816f12464736f6c634300081e0033","linkReferences":{}},"methodIdentifiers":{"MIN_STAKE_AMOUNT()":"27ed7188","USDT()":"c54e44eb","alreadyExistsUser(address)":"cbd2fbe1","cancelQueue(uint256)":"a684db3a","claim(uint256)":"379607f5","getCurrentQuota()":"f67dae23","getDirectReferralInfo(address)":"dcdcd08c","getFomoInfo()":"a28f8432","getOrderStatus(address,uint256)":"a80a3baa","getQueueInfo(uint256)":"4bedf369","getQueueRange()":"10b5a38e","getReferralInfo(address)":"21874ae2","getUserOrders(address)":"63c69f08","getUserQueueIds(address)":"2e586cab","maxValueOfStakeIndex(uint256)":"a652a02a","owner()":"8da5cb5b","queue()":"e10d29ee","referral(address)":"7247959a","referrals()":"d3dc7539","renounceOwnership()":"715018a6","restake(uint256,uint8)":"1c54a0d4","rootAddr()":"187ed5b1","setAmountLimit(uint256)":"3f045b40","setConfig(address,address,address)":"3141e25b","stake(uint256,uint8)":"10087fb1","stakingAmountLimit()":"01d1a559","transferOwnership(address)":"f2fde38b","treasury()":"61d027b3","unstake(uint256)":"2e17de78","verifyReferralCode(address)":"c2cfe4cb"},"id":56}