{"abi":[{"type":"constructor","inputs":[{"name":"_treasury","type":"address","internalType":"address"},{"name":"_queue","type":"address","internalType":"address"},{"name":"_referrals","type":"address","internalType":"address"},{"name":"_USDT","type":"address","internalType":"address"}],"stateMutability":"nonpayable"},{"type":"function","name":"MIN_STAKE_AMOUNT","inputs":[],"outputs":[{"name":"","type":"uint256","internalType":"uint256"}],"stateMutability":"view"},{"type":"function","name":"USDT","inputs":[],"outputs":[{"name":"","type":"address","internalType":"address"}],"stateMutability":"view"},{"type":"function","name":"alreadyExistsUser","inputs":[{"name":"","type":"address","internalType":"address"}],"outputs":[{"name":"","type":"bool","internalType":"bool"}],"stateMutability":"view"},{"type":"function","name":"cancelQueue","inputs":[{"name":"queueOrderId","type":"uint256","internalType":"uint256"}],"outputs":[],"stateMutability":"nonpayable"},{"type":"function","name":"claim","inputs":[{"name":"orderIndex","type":"uint256","internalType":"uint256"}],"outputs":[],"stateMutability":"nonpayable"},{"type":"function","name":"getCurrentQuota","inputs":[],"outputs":[{"name":"stakeUsed","type":"uint256","internalType":"uint256"},{"name":"stakeRemaining","type":"uint256","internalType":"uint256"},{"name":"unstakeUsed","type":"uint256","internalType":"uint256"},{"name":"unstakeRemaining","type":"uint256","internalType":"uint256"}],"stateMutability":"view"},{"type":"function","name":"getDirectReferralInfo","inputs":[{"name":"user","type":"address","internalType":"address"}],"outputs":[{"name":"","type":"tuple[]","internalType":"struct Models.DirectReferral[]","components":[{"name":"user","type":"address","internalType":"address"},{"name":"staked","type":"uint256","internalType":"uint256"},{"name":"performance","type":"uint256","internalType":"uint256"}]}],"stateMutability":"view"},{"type":"function","name":"getFomoInfo","inputs":[],"outputs":[{"name":"roundId","type":"uint256","internalType":"uint256"},{"name":"lastQualified","type":"address[21]","internalType":"address[21]"},{"name":"count","type":"uint256","internalType":"uint256"},{"name":"poolBalance","type":"uint256","internalType":"uint256"}],"stateMutability":"view"},{"type":"function","name":"getOrderStatus","inputs":[{"name":"user","type":"address","internalType":"address"},{"name":"orderIndex","type":"uint256","internalType":"uint256"}],"outputs":[{"name":"truthAward","type":"uint256","internalType":"uint256"},{"name":"result","type":"tuple","internalType":"struct Models.RuleResult","components":[{"name":"claimCountdown","type":"uint256","internalType":"uint256"},{"name":"unstakeCountdown","type":"uint256","internalType":"uint256"},{"name":"canClaim","type":"bool","internalType":"bool"},{"name":"canUnstake","type":"bool","internalType":"bool"},{"name":"canRestake","type":"bool","internalType":"bool"},{"name":"isFrozen","type":"bool","internalType":"bool"},{"name":"isExpired","type":"bool","internalType":"bool"},{"name":"isMatured","type":"bool","internalType":"bool"}]}],"stateMutability":"view"},{"type":"function","name":"getQueueInfo","inputs":[{"name":"queueId","type":"uint256","internalType":"uint256"}],"outputs":[{"name":"user","type":"address","internalType":"address"},{"name":"amount","type":"uint256","internalType":"uint256"},{"name":"orderIndex","type":"uint256","internalType":"uint256"},{"name":"stakeIndex","type":"uint8","internalType":"uint8"},{"name":"createdAt","type":"uint256","internalType":"uint256"},{"name":"isRestake","type":"bool","internalType":"bool"},{"name":"status","type":"uint8","internalType":"uint8"}],"stateMutability":"view"},{"type":"function","name":"getQueueRange","inputs":[],"outputs":[{"name":"head","type":"uint256","internalType":"uint256"},{"name":"tail","type":"uint256","internalType":"uint256"}],"stateMutability":"view"},{"type":"function","name":"getReferralInfo","inputs":[{"name":"user","type":"address","internalType":"address"}],"outputs":[{"name":"parent","type":"address","internalType":"address"},{"name":"level","type":"uint8","internalType":"enum Models.LevelType"},{"name":"referralNum","type":"uint16","internalType":"uint16"},{"name":"totalStaked","type":"uint256","internalType":"uint256"},{"name":"performance","type":"uint256","internalType":"uint256"}],"stateMutability":"view"},{"type":"function","name":"getUserOrders","inputs":[{"name":"user","type":"address","internalType":"address"}],"outputs":[{"name":"","type":"tuple[]","internalType":"struct Models.Order[]","components":[{"name":"amount","type":"uint128","internalType":"uint128"},{"name":"claimed","type":"uint128","internalType":"uint128"},{"name":"claimedPeriods","type":"uint32","internalType":"uint32"},{"name":"startTime","type":"uint32","internalType":"uint32"},{"name":"stakeIndex","type":"uint8","internalType":"uint8"},{"name":"status","type":"uint8","internalType":"uint8"},{"name":"createdAt","type":"uint32","internalType":"uint32"},{"name":"frozenReward","type":"uint128","internalType":"uint128"},{"name":"frozenClaimed","type":"uint128","internalType":"uint128"},{"name":"freezeStart","type":"uint32","internalType":"uint32"},{"name":"freezeRound","type":"uint32","internalType":"uint32"}]}],"stateMutability":"view"},{"type":"function","name":"getUserQueueIds","inputs":[{"name":"user","type":"address","internalType":"address"}],"outputs":[{"name":"","type":"uint256[]","internalType":"uint256[]"}],"stateMutability":"view"},{"type":"function","name":"maxValueOfStakeIndex","inputs":[{"name":"","type":"uint256","internalType":"uint256"}],"outputs":[{"name":"","type":"uint256","internalType":"uint256"}],"stateMutability":"view"},{"type":"function","name":"owner","inputs":[],"outputs":[{"name":"","type":"address","internalType":"address"}],"stateMutability":"view"},{"type":"function","name":"queue","inputs":[],"outputs":[{"name":"","type":"address","internalType":"address"}],"stateMutability":"view"},{"type":"function","name":"referral","inputs":[{"name":"parent","type":"address","internalType":"address"}],"outputs":[],"stateMutability":"nonpayable"},{"type":"function","name":"referrals","inputs":[],"outputs":[{"name":"","type":"address","internalType":"address"}],"stateMutability":"view"},{"type":"function","name":"renounceOwnership","inputs":[],"outputs":[],"stateMutability":"nonpayable"},{"type":"function","name":"restake","inputs":[{"name":"orderIndex","type":"uint256","internalType":"uint256"},{"name":"newStakeIndex","type":"uint8","internalType":"uint8"}],"outputs":[],"stateMutability":"nonpayable"},{"type":"function","name":"rootAddr","inputs":[],"outputs":[{"name":"","type":"address","internalType":"address"}],"stateMutability":"view"},{"type":"function","name":"setAmountLimit","inputs":[{"name":"amount","type":"uint256","internalType":"uint256"}],"outputs":[],"stateMutability":"nonpayable"},{"type":"function","name":"setConfig","inputs":[{"name":"_treasury","type":"address","internalType":"address"},{"name":"_queue","type":"address","internalType":"address"},{"name":"_referrals","type":"address","internalType":"address"}],"outputs":[],"stateMutability":"nonpayable"},{"type":"function","name":"stake","inputs":[{"name":"amount","type":"uint256","internalType":"uint256"},{"name":"stakeIndex","type":"uint8","internalType":"uint8"}],"outputs":[],"stateMutability":"nonpayable"},{"type":"function","name":"stakingAmountLimit","inputs":[],"outputs":[{"name":"","type":"uint256","internalType":"uint256"}],"stateMutability":"view"},{"type":"function","name":"transferOwnership","inputs":[{"name":"newOwner","type":"address","internalType":"address"}],"outputs":[],"stateMutability":"nonpayable"},{"type":"function","name":"treasury","inputs":[],"outputs":[{"name":"","type":"address","internalType":"address"}],"stateMutability":"view"},{"type":"function","name":"unstake","inputs":[{"name":"orderIndex","type":"uint256","internalType":"uint256"}],"outputs":[],"stateMutability":"nonpayable"},{"type":"function","name":"verifyReferralCode","inputs":[{"name":"user","type":"address","internalType":"address"}],"outputs":[{"name":"","type":"bool","internalType":"bool"}],"stateMutability":"view"},{"type":"event","name":"OwnershipTransferred","inputs":[{"name":"previousOwner","type":"address","indexed":true,"internalType":"address"},{"name":"newOwner","type":"address","indexed":true,"internalType":"address"}],"anonymous":false},{"type":"error","name":"OwnableInvalidOwner","inputs":[{"name":"owner","type":"address","internalType":"address"}]},{"type":"error","name":"OwnableUnauthorizedAccount","inputs":[{"name":"account","type":"address","internalType":"address"}]},{"type":"error","name":"ReentrancyGuardReentrantCall","inputs":[]}],"bytecode":{"object":"0x608060405234801561000f575f5ffd5b5060405161276838038061276883398101604081905261002e91610160565b338061005357604051631e4fbdf760e01b81525f600482015260240160405180910390fd5b61005c816100f6565b5060018055600380546001600160a01b039586166001600160a01b03199182161790915560048054948616948216949094179093556005805492851692841692909217909155600280549190931691161790555f8052600660205268056bc75e2d631000007f54cdd369e4e8a8515e52ca72ec816c2101831ad1f18bf44102ed171459c9b4f85569021e19e0c9bab24000006008556101b1565b5f80546001600160a01b038381166001600160a01b0319831681178455604051919092169283917f8be0079c531659141344cd1fd0a4f28419497f9722a3daafe3b4186f6b6457e09190a35050565b80516001600160a01b038116811461015b575f5ffd5b919050565b5f5f5f5f60808587031215610173575f5ffd5b61017c85610145565b935061018a60208601610145565b925061019860408601610145565b91506101a660608601610145565b905092959194509250565b6125aa806101be5f395ff3fe608060405234801561000f575f5ffd5b50600436106101d1575f3560e01c8063715018a6116100fe578063c2cfe4cb1161009e578063dcdcd08c1161006e578063dcdcd08c14610481578063e10d29ee146104a1578063f2fde38b146104b4578063f67dae23146104c7575f5ffd5b8063c2cfe4cb14610416578063c54e44eb14610439578063cbd2fbe11461044c578063d3dc75391461046e575f5ffd5b8063a28f8432116100d9578063a28f8432146103ab578063a652a02a146103c3578063a684db3a146103e2578063a80a3baa146103f5575f5ffd5b8063715018a6146103805780637247959a146103885780638da5cb5b1461039b575f5ffd5b80632e17de78116101745780633f045b40116101445780633f045b40146102e25780634bedf369146102f557806361d027b31461034d57806363c69f0814610360575f5ffd5b80632e17de78146102895780632e586cab1461029c5780633141e25b146102bc578063379607f5146102cf575f5ffd5b8063187ed5b1116101af578063187ed5b1146102235780631c54a0d41461024357806321874ae21461025657806327ed71881461027a575f5ffd5b806301d1a559146101d557806310087fb1146101f157806310b5a38e14610206575b5f5ffd5b6101de60085481565b6040519081526020015b60405180910390f35b6102046101ff366004611a68565b6104ef565b005b61020e6106f8565b604080519283526020830191909152016101e8565b61022b61076b565b6040516001600160a01b0390911681526020016101e8565b610204610251366004611a68565b6107db565b610269610264366004611aaa565b610855565b6040516101e8959493929190611ac5565b6101de671bc16d674ec8000081565b610204610297366004611b17565b6108dc565b6102af6102aa366004611aaa565b610951565b6040516101e89190611b2e565b6102046102ca366004611b70565b6109cb565b6102046102dd366004611b17565b610a12565b6102046102f0366004611b17565b610a52565b610308610303366004611b17565b610ad2565b604080516001600160a01b03909816885260208801969096529486019390935260ff9182166060860152608085015290151560a08401521660c082015260e0016101e8565b60035461022b906001600160a01b031681565b61037361036e366004611aaa565b610b62565b6040516101e89190611bb8565b610204610bd1565b610204610396366004611aaa565b610be4565b5f546001600160a01b031661022b565b6103b3610cba565b6040516101e89493929190611cfa565b6101de6103d1366004611b17565b60066020525f908152604090205481565b6102046103f0366004611b17565b610d3c565b610408610403366004611d48565b610d7c565b6040516101e8929190611d72565b610429610424366004611aaa565b6110ca565b60405190151581526020016101e8565b60025461022b906001600160a01b031681565b61042961045a366004611aaa565b60076020525f908152604090205460ff1681565b60055461022b906001600160a01b031681565b61049461048f366004611aaa565b611146565b6040516101e89190611de8565b60045461022b906001600160a01b031681565b6102046104c2366004611aaa565b6111b5565b6104cf6111ef565b6040805194855260208501939093529183015260608201526080016101e8565b6104f7611267565b8160085410156105465760405162461bcd60e51b815260206004820152601560248201527422a92927a92fa9aa20a5a4a723afa0a6a7aaa72a1760591b60448201526064015b60405180910390fd5b60048160ff161061058e5760405162461bcd60e51b815260206004820152601260248201527122a92927a92fa9aa20a5a2afa4a72222ac1760711b604482015260640161053d565b60ff81165f9081526006602052604090205480156105e657828110156105e65760405162461bcd60e51b815260206004820152600d60248201526c22a92927a92fa0a6a7aaa72a1760991b604482015260640161053d565b8160ff165f0361066257335f9081526007602052604090205460ff16156106485760405162461bcd60e51b81526020600482015260166024820152752224a9a0a62627aba2a22fa7a92222a92faa2ca8229760511b604482015260640161053d565b335f908152600760205260409020805460ff191660011790555b600254600454610681916001600160a01b039081169133911686611291565b6004805460405163031a0e0360e51b815233928101929092526024820185905260ff841660448301526001600160a01b031690636341c060906064015f604051808303815f87803b1580156106d4575f5ffd5b505af11580156106e6573d5f5f3e3d5ffd5b50505050506106f460018055565b5050565b600480546040805163085ad1c760e11b815281515f9485946001600160a01b0316936310b5a38e93808301939192908290030181865afa15801561073e573d5f5f3e3d5ffd5b505050506040513d601f19601f820116820180604052508101906107629190611e41565b90939092509050565b6005546040805163187ed5b160e01b815290515f926001600160a01b03169163187ed5b19160048083019260209291908290030181865afa1580156107b2573d5f5f3e3d5ffd5b505050506040513d601f19601f820116820180604052508101906107d69190611e63565b905090565b6107e3611267565b60048054604051631bd8358960e31b815233928101929092526024820184905260ff831660448301526001600160a01b03169063dec1ac48906064015f604051808303815f87803b158015610836575f5ffd5b505af1158015610848573d5f5f3e3d5ffd5b505050506106f460018055565b600554604051631caa058560e11b81526001600160a01b0383811660048301525f9283928392839283929116906339540b0a9060240160a060405180830381865afa1580156108a6573d5f5f3e3d5ffd5b505050506040513d601f19601f820116820180604052508101906108ca9190611e7e565b939a9299509097509550909350915050565b6108e4611267565b60048054604051630615339760e51b81523392810192909252602482018390526001600160a01b03169063c2a672e0906044015b5f604051808303815f87803b15801561092f575f5ffd5b505af1158015610941573d5f5f3e3d5ffd5b5050505061094e60018055565b50565b60048054604051632e586cab60e01b81526001600160a01b038481169382019390935260609290911690632e586cab906024015f60405180830381865afa15801561099e573d5f5f3e3d5ffd5b505050506040513d5f823e601f3d908101601f191682016040526109c59190810190611f92565b92915050565b6109d36113bc565b600380546001600160a01b039485166001600160a01b031991821617909155600480549385169382169390931790925560058054919093169116179055565b610a1a611267565b60048054604051635569f64b60e11b81523392810192909252602482018390526001600160a01b03169063aad3ec9690604401610918565b610a5a6113bc565b68056bc75e2d63100000610a7682670de0b6b3a7640000612031565b1015610aba5760405162461bcd60e51b815260206004820152601360248201527222a92927a92fa0a6a7aaa72a2fa624a6a4aa1760691b604482015260640161053d565b610acc81670de0b6b3a7640000612031565b60085550565b60048054604051631e186afb60e01b81529182018390525f918291829182918291829182916001600160a01b0390911690631e186afb9060240160e060405180830381865afa158015610b27573d5f5f3e3d5ffd5b505050506040513d601f19601f82011682018060405250810190610b4b9190612067565b959e949d50929b5090995097509550909350915050565b600354604051630c78d3e160e31b81526001600160a01b03838116600483015260609216906363c69f08906024015f60405180830381865afa158015610baa573d5f5f3e3d5ffd5b505050506040513d5f823e601f3d908101601f191682016040526109c59190810190612107565b610bd96113bc565b610be25f6113e8565b565b610bec611267565b6001600160a01b038116610c325760405162461bcd60e51b815260206004820152600d60248201526c2d32b9379030b2323932b9b99760991b604482015260640161053d565b336001600160a01b03821603610c825760405162461bcd60e51b815260206004820152601560248201527422b93937b9103830b932b73a1030b2323932b9b99760591b604482015260640161053d565b600554604051631c505d1d60e01b81526001600160a01b03838116600483015233602483015290911690631c505d1d90604401610918565b5f610cc3611a3b565b600480546040805163a32bf59760e01b815290515f9384936001600160a01b03169263a32bf5979281830192610300928290030181865afa158015610d0a573d5f5f3e3d5ffd5b505050506040513d601f19601f82011682018060405250810190610d2e9190612263565b929791965094509092509050565b610d44611267565b6004805460405163a05a9e1360e01b81523392810192909252602482018390526001600160a01b03169063a05a9e1390604401610918565b60408051610100810182525f80825260208201819052918101829052606081018290526080810182905260a0810182905260c0810182905260e08101829052600354604051630c78d3e160e31b81526001600160a01b0386811660048301525f9216906363c69f08906024015f60405180830381865afa158015610e02573d5f5f3e3d5ffd5b505050506040513d5f823e601f3d908101601f19168201604052610e299190810190612107565b8481518110610e3a57610e3a6122fe565b60209081029190910101516003546080820151604051634640ed5f60e11b815260ff90911660048201529192505f918291829182916001600160a01b031690638c81dabe90602401608060405180830381865afa158015610e9d573d5f5f3e3d5ffd5b505050506040513d601f19601f82011682018060405250810190610ec19190612328565b93509350935093505f60405180608001604052808663ffffffff1681526020018563ffffffff1681526020018463ffffffff168152602001836001600160401b031681525090505f60035f9054906101000a90046001600160a01b03166001600160a01b0316635c975abb6040518163ffffffff1660e01b8152600401602060405180830381865afa158015610f59573d5f5f3e3d5ffd5b505050506040513d601f19601f82011682018060405250810190610f7d9190612379565b90505f60035f9054906101000a90046001600160a01b03166001600160a01b031663015cb3ff6040518163ffffffff1660e01b8152600401602060405180830381865afa158015610fd0573d5f5f3e3d5ffd5b505050506040513d601f19601f82011682018060405250810190610ff49190612392565b90505f60035f9054906101000a90046001600160a01b03166001600160a01b03166311d72f1c6040518163ffffffff1660e01b8152600401602060405180830381865afa158015611047573d5f5f3e3d5ffd5b505050506040513d601f19601f8201168201806040525081019061106b91906123ab565b90506110898985428563ffffffff16856001600160401b0316611437565b9a505f8960800151600161109d91906123c4565b90506110b78a8642878786886001600160401b03166114b9565b9a50505050505050505050509250929050565b600554604051631caa058560e11b81526001600160a01b0383811660048301525f9283929116906339540b0a9060240160a060405180830381865afa158015611115573d5f5f3e3d5ffd5b505050506040513d601f19601f820116820180604052508101906111399190611e7e565b5015159695505050505050565b600554604051633737342360e21b81526001600160a01b038381166004830152606092169063dcdcd08c906024015f60405180830381865afa15801561118e573d5f5f3e3d5ffd5b505050506040513d5f823e601f3d908101601f191682016040526109c591908101906123dd565b6111bd6113bc565b6001600160a01b0381166111e657604051631e4fbdf760e01b81525f600482015260240161053d565b61094e816113e8565b5f5f5f5f60045f9054906101000a90046001600160a01b03166001600160a01b031663e4c2ab716040518163ffffffff1660e01b8152600401608060405180830381865afa158015611243573d5f5f3e3d5ffd5b505050506040513d601f19601f82011682018060405250810190610d2e919061249b565b60026001540361128a57604051633ee5aeb560e01b815260040160405180910390fd5b6002600155565b604080516001600160a01b0385811660248301528481166044830152606480830185905283518084039091018152608490920183526020820180516001600160e01b03166323b872dd60e01b17905291515f928392908816916112f491906124ce565b5f604051808303815f865af19150503d805f811461132d576040519150601f19603f3d011682016040523d82523d5f602084013e611332565b606091505b509150915081801561135c57508051158061135c57508080602001905181019061135c9190612379565b6113b45760405162461bcd60e51b8152602060048201526024808201527f5472616e7366657248656c7065723a205452414e534645525f46524f4d5f46416044820152631253115160e21b606482015260840161053d565b505050505050565b5f546001600160a01b03163314610be25760405163118cdaa760e01b815233600482015260240161053d565b5f80546001600160a01b038381166001600160a01b0319831681178455604051919092169283917f8be0079c531659141344cd1fd0a4f28419497f9722a3daafe3b4186f6b6457e09190a35050565b5f5f61144587878787611613565b90505f6114538887866116ee565b90505f61146082846124e4565b90505f8961010001516001600160801b03168a602001516001600160801b031661148a91906124e4565b905080821161149f575f9450505050506114b0565b6114a981836124f7565b9450505050505b95945050505050565b60408051610100810182525f80825260208201819052918101829052606081018290526080810182905260a0810182905260c0810182905260e08101919091526060880151875163ffffffff918216915f916115169116836124e4565b90505f611527836301e133806124e4565b905087801561154557508663ffffffff168b60c0015163ffffffff16105b151560a085018190525f9061155f908d908d908d90611790565b90505f6115858d8d8d8960a00151611577575f611579565b8c5b63ffffffff168b611437565b90508c60a0015160ff165f14801561159a5750815b80156115a557505f81115b1515604087018190526115b9575f196115bb565b5f5b86525f6115cb8e8e8e8e8e6118d3565b8051151560608901526020808201519089015290506115ee8e8e8e8e8e8e6119cf565b15156080880152505050881160c08401529096101560e0820152979650505050505050565b5f8460a0015160ff165f1461162957505f6116e6565b8351606086015184915f9161163e919061250a565b63ffffffff16905080821115611652578091505b5f8411801561166057508382115b15611669578391505b866060015163ffffffff168211611684575f925050506116e6565b5f876060015163ffffffff168361169b91906124f7565b9050670de0b6b3a764000087606001516001600160401b0316828a5f01516001600160801b03166116cc9190612031565b6116d69190612031565b6116e0919061253a565b93505050505b949350505050565b5f83610120015163ffffffff165f0361170857505f611789565b5f6201518085610120015163ffffffff168561172491906124f7565b61172e919061253a565b90505f61173b8483612031565b9050670de0b6b3a76400008111156117585750670de0b6b3a76400005b670de0b6b3a7640000818760e001516001600160801b031661177a9190612031565b611784919061253a565b925050505b9392505050565b5f811561179f575060016116e6565b6060850151845163ffffffff918216915f916117bc9116836124e4565b9050856040015163ffffffff16816117d491906124e4565b8511156117e5575f925050506116e6565b60208601516117fa9063ffffffff16836124e4565b85101561180b575f925050506116e6565b5f61181683876124f7565b90505f876020015163ffffffff168261182f919061253a565b90505f8860200151895f0151611845919061254d565b63ffffffff16905080821115611859578091505b896040015163ffffffff168211611877575f955050505050506116e6565b5f896020015163ffffffff168361188e9190612031565b61189890876124e4565b90505f8a6040015163ffffffff16826118b191906124e4565b9050818a101580156118c35750808a11155b9c9b505050505050505050505050565b604080516060810182525f808252602082018190529181019190915282801561190b57508163ffffffff168660c0015163ffffffff16105b1515604082015260a086015160ff1615611934575f8082525f19602083015260408201526114b0565b80604001511561194d575f81525f1960208201526114b0565b845160608701515f9161195f9161250a565b63ffffffff1690505f87606001516301e1338061197c919061250a565b63ffffffff169050818610156119a3575f835261199986836124f7565b60208401526119c4565b8086116119b957600183525f60208401526119c4565b5f83525f1960208401525b505095945050505050565b5f5f6119de88888888886118d3565b80519091506119f0575f915050611a31565b608088015160ff1615611a03575f611a06565b60015b8860800151611a1591906123c4565b60ff168360ff161015611a2b575f915050611a31565b60019150505b9695505050505050565b604051806102a001604052806015906020820280368337509192915050565b60ff8116811461094e575f5ffd5b5f5f60408385031215611a79575f5ffd5b823591506020830135611a8b81611a5a565b809150509250929050565b6001600160a01b038116811461094e575f5ffd5b5f60208284031215611aba575f5ffd5b813561178981611a96565b6001600160a01b038616815260a0810160088610611af157634e487b7160e01b5f52602160045260245ffd5b85602083015261ffff851660408301528360608301528260808301529695505050505050565b5f60208284031215611b27575f5ffd5b5035919050565b602080825282518282018190525f918401906040840190835b81811015611b65578351835260209384019390920191600101611b47565b509095945050505050565b5f5f5f60608486031215611b82575f5ffd5b8335611b8d81611a96565b92506020840135611b9d81611a96565b91506040840135611bad81611a96565b809150509250925092565b602080825282518282018190525f918401906040840190835b81811015611b6557835180516001600160801b031684526020810151611c0260208601826001600160801b03169052565b506040810151611c1a604086018263ffffffff169052565b506060810151611c32606086018263ffffffff169052565b506080810151611c47608086018260ff169052565b5060a0810151611c5c60a086018260ff169052565b5060c0810151611c7460c086018263ffffffff169052565b5060e0810151611c8f60e08601826001600160801b03169052565b50610100810151611cac6101008601826001600160801b03169052565b50610120810151611cc661012086018263ffffffff169052565b506101408101519050611ce261014085018263ffffffff169052565b50602093909301926101609290920191600101611bd1565b848152610300810160208201855f5b6015811015611d315781516001600160a01b0316835260209283019290910190600101611d09565b5050506102c08201939093526102e0015292915050565b5f5f60408385031215611d59575f5ffd5b8235611d6481611a96565b946020939093013593505050565b5f6101208201905083825282516020830152602083015160408301526040830151151560608301526060830151151560808301526080830151151560a083015260a0830151611dc560c084018215159052565b5060c0830151151560e08381019190915290920151151561010090910152919050565b602080825282518282018190525f918401906040840190835b81811015611b6557835180516001600160a01b03168452602080820151818601526040918201519185019190915290930192606090920191600101611e01565b5f5f60408385031215611e52575f5ffd5b505080516020909101519092909150565b5f60208284031215611e73575f5ffd5b815161178981611a96565b5f5f5f5f5f60a08688031215611e92575f5ffd5b8551611e9d81611a96565b602087015190955060088110611eb1575f5ffd5b604087015190945061ffff81168114611ec8575f5ffd5b6060870151608090970151959894975095949392505050565b634e487b7160e01b5f52604160045260245ffd5b60405161016081016001600160401b0381118282101715611f1857611f18611ee1565b60405290565b604051606081016001600160401b0381118282101715611f1857611f18611ee1565b604051601f8201601f191681016001600160401b0381118282101715611f6857611f68611ee1565b604052919050565b5f6001600160401b03821115611f8857611f88611ee1565b5060051b60200190565b5f60208284031215611fa2575f5ffd5b81516001600160401b03811115611fb7575f5ffd5b8201601f81018413611fc7575f5ffd5b8051611fda611fd582611f70565b611f40565b8082825260208201915060208360051b850101925086831115611ffb575f5ffd5b6020840193505b82841015611a31578351825260209384019390910190612002565b634e487b7160e01b5f52601160045260245ffd5b80820281158282048414176109c5576109c561201d565b805161205381611a5a565b919050565b80518015158114612053575f5ffd5b5f5f5f5f5f5f5f60e0888a03121561207d575f5ffd5b875161208881611a96565b602089015160408a015160608b015192995090975095506120a881611a5a565b608089015190945092506120be60a08901612058565b915060c08801516120ce81611a5a565b8091505092959891949750929550565b80516001600160801b0381168114612053575f5ffd5b805163ffffffff81168114612053575f5ffd5b5f60208284031215612117575f5ffd5b81516001600160401b0381111561212c575f5ffd5b8201601f8101841361213c575f5ffd5b805161214a611fd582611f70565b808282526020820191506020610160840285010192508683111561216c575f5ffd5b6020840193505b82841015611a3157610160848803121561218b575f5ffd5b612193611ef5565b61219c856120de565b81526121aa602086016120de565b60208201526121bb604086016120f4565b60408201526121cc606086016120f4565b60608201526121dd60808601612048565b60808201526121ee60a08601612048565b60a08201526121ff60c086016120f4565b60c082015261221060e086016120de565b60e082015261222261010086016120de565b61010082015261223561012086016120f4565b61012082015261224861014086016120f4565b61014082015282526101609390930192602090910190612173565b5f5f5f5f6103008587031215612277575f5ffd5b84519350603f85018613612289575f5ffd5b6040516102a081016001600160401b03811182821017156122ac576122ac611ee1565b604052806102c08701888111156122c1575f5ffd5b602088015b818110156122e75780516122d981611a96565b8352602092830192016122c6565b50516102e097909701519598919750909350505050565b634e487b7160e01b5f52603260045260245ffd5b80516001600160401b0381168114612053575f5ffd5b5f5f5f5f6080858703121561233b575f5ffd5b612344856120f4565b9350612352602086016120f4565b9250612360604086016120f4565b915061236e60608601612312565b905092959194509250565b5f60208284031215612389575f5ffd5b61178982612058565b5f602082840312156123a2575f5ffd5b611789826120f4565b5f602082840312156123bb575f5ffd5b61178982612312565b60ff81811683821601908111156109c5576109c561201d565b5f602082840312156123ed575f5ffd5b81516001600160401b03811115612402575f5ffd5b8201601f81018413612412575f5ffd5b8051612420611fd582611f70565b80828252602082019150602060608402850101925086831115612441575f5ffd5b6020840193505b82841015611a31576060848803121561245f575f5ffd5b612467611f1e565b845161247281611a96565b815260208581015181830152604080870151908301529083526060909401939190910190612448565b5f5f5f5f608085870312156124ae575f5ffd5b505082516020840151604085015160609095015191969095509092509050565b5f82518060208501845e5f920191825250919050565b808201808211156109c5576109c561201d565b818103818111156109c5576109c561201d565b63ffffffff81811683821601908111156109c5576109c561201d565b634e487b7160e01b5f52601260045260245ffd5b5f8261254857612548612526565b500490565b5f63ffffffff83168061256257612562612526565b8063ffffffff8416049150509291505056fea26469706673582212203592e2e5e43ea3f3774c2ebc71630364f67a2921c483c3e4bdecbfdc2ea179eb64736f6c634300081e0033","linkReferences":{}},"methodIdentifiers":{"MIN_STAKE_AMOUNT()":"27ed7188","USDT()":"c54e44eb","alreadyExistsUser(address)":"cbd2fbe1","cancelQueue(uint256)":"a684db3a","claim(uint256)":"379607f5","getCurrentQuota()":"f67dae23","getDirectReferralInfo(address)":"dcdcd08c","getFomoInfo()":"a28f8432","getOrderStatus(address,uint256)":"a80a3baa","getQueueInfo(uint256)":"4bedf369","getQueueRange()":"10b5a38e","getReferralInfo(address)":"21874ae2","getUserOrders(address)":"63c69f08","getUserQueueIds(address)":"2e586cab","maxValueOfStakeIndex(uint256)":"a652a02a","owner()":"8da5cb5b","queue()":"e10d29ee","referral(address)":"7247959a","referrals()":"d3dc7539","renounceOwnership()":"715018a6","restake(uint256,uint8)":"1c54a0d4","rootAddr()":"187ed5b1","setAmountLimit(uint256)":"3f045b40","setConfig(address,address,address)":"3141e25b","stake(uint256,uint8)":"10087fb1","stakingAmountLimit()":"01d1a559","transferOwnership(address)":"f2fde38b","treasury()":"61d027b3","unstake(uint256)":"2e17de78","verifyReferralCode(address)":"c2cfe4cb"},"id":2}