{"abi":[{"type":"constructor","inputs":[{"name":"_treasury","type":"address","internalType":"address"},{"name":"_queue","type":"address","internalType":"address"},{"name":"_referrals","type":"address","internalType":"address"},{"name":"_USDT","type":"address","internalType":"address"}],"stateMutability":"nonpayable"},{"type":"function","name":"MIN_STAKE_AMOUNT","inputs":[],"outputs":[{"name":"","type":"uint256","internalType":"uint256"}],"stateMutability":"view"},{"type":"function","name":"USDT","inputs":[],"outputs":[{"name":"","type":"address","internalType":"address"}],"stateMutability":"view"},{"type":"function","name":"alreadyExistsUser","inputs":[{"name":"","type":"address","internalType":"address"}],"outputs":[{"name":"","type":"bool","internalType":"bool"}],"stateMutability":"view"},{"type":"function","name":"cancelQueue","inputs":[{"name":"queueOrderId","type":"uint256","internalType":"uint256"}],"outputs":[],"stateMutability":"nonpayable"},{"type":"function","name":"claim","inputs":[{"name":"orderIndex","type":"uint256","internalType":"uint256"}],"outputs":[],"stateMutability":"nonpayable"},{"type":"function","name":"getCurrentQuota","inputs":[],"outputs":[{"name":"stakeUsed","type":"uint256","internalType":"uint256"},{"name":"stakeRemaining","type":"uint256","internalType":"uint256"},{"name":"unstakeUsed","type":"uint256","internalType":"uint256"},{"name":"unstakeRemaining","type":"uint256","internalType":"uint256"}],"stateMutability":"view"},{"type":"function","name":"getDirectReferralInfo","inputs":[{"name":"user","type":"address","internalType":"address"}],"outputs":[{"name":"","type":"tuple[]","internalType":"struct Models.DirectReferral[]","components":[{"name":"user","type":"address","internalType":"address"},{"name":"staked","type":"uint256","internalType":"uint256"},{"name":"performance","type":"uint256","internalType":"uint256"}]}],"stateMutability":"view"},{"type":"function","name":"getFomoInfo","inputs":[],"outputs":[{"name":"roundId","type":"uint256","internalType":"uint256"},{"name":"lastQualified","type":"address[21]","internalType":"address[21]"},{"name":"count","type":"uint256","internalType":"uint256"},{"name":"poolBalance","type":"uint256","internalType":"uint256"}],"stateMutability":"view"},{"type":"function","name":"getOrderStatus","inputs":[{"name":"user","type":"address","internalType":"address"},{"name":"orderIndex","type":"uint256","internalType":"uint256"}],"outputs":[{"name":"truthAward","type":"uint256","internalType":"uint256"},{"name":"result","type":"tuple","internalType":"struct Models.RuleResult","components":[{"name":"claimCountdown","type":"uint256","internalType":"uint256"},{"name":"unstakeCountdown","type":"uint256","internalType":"uint256"},{"name":"canClaim","type":"bool","internalType":"bool"},{"name":"canUnstake","type":"bool","internalType":"bool"},{"name":"canRestake","type":"bool","internalType":"bool"},{"name":"isFrozen","type":"bool","internalType":"bool"},{"name":"isExpired","type":"bool","internalType":"bool"},{"name":"isMatured","type":"bool","internalType":"bool"}]}],"stateMutability":"view"},{"type":"function","name":"getQueueInfo","inputs":[{"name":"queueId","type":"uint256","internalType":"uint256"}],"outputs":[{"name":"user","type":"address","internalType":"address"},{"name":"amount","type":"uint256","internalType":"uint256"},{"name":"orderIndex","type":"uint256","internalType":"uint256"},{"name":"stakeIndex","type":"uint8","internalType":"uint8"},{"name":"createdAt","type":"uint256","internalType":"uint256"},{"name":"isRestake","type":"bool","internalType":"bool"},{"name":"status","type":"uint8","internalType":"uint8"}],"stateMutability":"view"},{"type":"function","name":"getQueueRange","inputs":[],"outputs":[{"name":"head","type":"uint256","internalType":"uint256"},{"name":"tail","type":"uint256","internalType":"uint256"}],"stateMutability":"view"},{"type":"function","name":"getReferralInfo","inputs":[{"name":"user","type":"address","internalType":"address"}],"outputs":[{"name":"parent","type":"address","internalType":"address"},{"name":"level","type":"uint8","internalType":"enum Models.LevelType"},{"name":"referralNum","type":"uint16","internalType":"uint16"},{"name":"totalStaked","type":"uint256","internalType":"uint256"},{"name":"performance","type":"uint256","internalType":"uint256"}],"stateMutability":"view"},{"type":"function","name":"getUserOrders","inputs":[{"name":"user","type":"address","internalType":"address"}],"outputs":[{"name":"","type":"tuple[]","internalType":"struct Models.Order[]","components":[{"name":"amount","type":"uint128","internalType":"uint128"},{"name":"claimed","type":"uint128","internalType":"uint128"},{"name":"claimedPeriods","type":"uint32","internalType":"uint32"},{"name":"startTime","type":"uint32","internalType":"uint32"},{"name":"stakeIndex","type":"uint8","internalType":"uint8"},{"name":"status","type":"uint8","internalType":"uint8"},{"name":"createdAt","type":"uint32","internalType":"uint32"},{"name":"frozenReward","type":"uint128","internalType":"uint128"},{"name":"frozenClaimed","type":"uint128","internalType":"uint128"},{"name":"freezeStart","type":"uint32","internalType":"uint32"},{"name":"freezeRound","type":"uint32","internalType":"uint32"}]}],"stateMutability":"view"},{"type":"function","name":"getUserQueueIds","inputs":[{"name":"user","type":"address","internalType":"address"}],"outputs":[{"name":"","type":"uint256[]","internalType":"uint256[]"}],"stateMutability":"view"},{"type":"function","name":"maxValueOfStakeIndex","inputs":[{"name":"","type":"uint256","internalType":"uint256"}],"outputs":[{"name":"","type":"uint256","internalType":"uint256"}],"stateMutability":"view"},{"type":"function","name":"owner","inputs":[],"outputs":[{"name":"","type":"address","internalType":"address"}],"stateMutability":"view"},{"type":"function","name":"queue","inputs":[],"outputs":[{"name":"","type":"address","internalType":"address"}],"stateMutability":"view"},{"type":"function","name":"referral","inputs":[{"name":"parent","type":"address","internalType":"address"}],"outputs":[],"stateMutability":"nonpayable"},{"type":"function","name":"referrals","inputs":[],"outputs":[{"name":"","type":"address","internalType":"address"}],"stateMutability":"view"},{"type":"function","name":"renounceOwnership","inputs":[],"outputs":[],"stateMutability":"nonpayable"},{"type":"function","name":"restake","inputs":[{"name":"orderIndex","type":"uint256","internalType":"uint256"},{"name":"newStakeIndex","type":"uint8","internalType":"uint8"}],"outputs":[],"stateMutability":"nonpayable"},{"type":"function","name":"rootAddr","inputs":[],"outputs":[{"name":"","type":"address","internalType":"address"}],"stateMutability":"view"},{"type":"function","name":"setConfig","inputs":[{"name":"_treasury","type":"address","internalType":"address"},{"name":"_queue","type":"address","internalType":"address"},{"name":"_referrals","type":"address","internalType":"address"}],"outputs":[],"stateMutability":"nonpayable"},{"type":"function","name":"stake","inputs":[{"name":"amount","type":"uint256","internalType":"uint256"},{"name":"stakeIndex","type":"uint8","internalType":"uint8"}],"outputs":[],"stateMutability":"nonpayable"},{"type":"function","name":"transferOwnership","inputs":[{"name":"newOwner","type":"address","internalType":"address"}],"outputs":[],"stateMutability":"nonpayable"},{"type":"function","name":"treasury","inputs":[],"outputs":[{"name":"","type":"address","internalType":"address"}],"stateMutability":"view"},{"type":"function","name":"unstake","inputs":[{"name":"orderIndex","type":"uint256","internalType":"uint256"}],"outputs":[],"stateMutability":"nonpayable"},{"type":"function","name":"verifyReferralCode","inputs":[{"name":"user","type":"address","internalType":"address"}],"outputs":[{"name":"","type":"bool","internalType":"bool"}],"stateMutability":"view"},{"type":"event","name":"OwnershipTransferred","inputs":[{"name":"previousOwner","type":"address","indexed":true,"internalType":"address"},{"name":"newOwner","type":"address","indexed":true,"internalType":"address"}],"anonymous":false},{"type":"error","name":"OwnableInvalidOwner","inputs":[{"name":"owner","type":"address","internalType":"address"}]},{"type":"error","name":"OwnableUnauthorizedAccount","inputs":[{"name":"account","type":"address","internalType":"address"}]},{"type":"error","name":"ReentrancyGuardReentrantCall","inputs":[]}],"bytecode":{"object":"0x608060405234801561000f575f5ffd5b5060405161266438038061266483398101604081905261002e91610152565b338061005357604051631e4fbdf760e01b81525f600482015260240160405180910390fd5b61005c816100e8565b5060018055600380546001600160a01b039586166001600160a01b03199182161790915560048054948616948216949094179093556005805492851692841692909217909155600280549190931691161790555f8052600660205268056bc75e2d631000007f54cdd369e4e8a8515e52ca72ec816c2101831ad1f18bf44102ed171459c9b4f8556101a3565b5f80546001600160a01b038381166001600160a01b0319831681178455604051919092169283917f8be0079c531659141344cd1fd0a4f28419497f9722a3daafe3b4186f6b6457e09190a35050565b80516001600160a01b038116811461014d575f5ffd5b919050565b5f5f5f5f60808587031215610165575f5ffd5b61016e85610137565b935061017c60208601610137565b925061018a60408601610137565b915061019860608601610137565b905092959194509250565b6124b4806101b05f395ff3fe608060405234801561000f575f5ffd5b50600436106101bb575f3560e01c80637247959a116100f3578063c54e44eb11610093578063dcdcd08c1161006e578063dcdcd08c1461044f578063e10d29ee1461046f578063f2fde38b14610482578063f67dae2314610495575f5ffd5b8063c54e44eb14610407578063cbd2fbe11461041a578063d3dc75391461043c575f5ffd5b8063a652a02a116100ce578063a652a02a14610391578063a684db3a146103b0578063a80a3baa146103c3578063c2cfe4cb146103e4575f5ffd5b80637247959a146103565780638da5cb5b14610369578063a28f843214610379575f5ffd5b80632e586cab1161015e5780634bedf369116101395780634bedf369146102c357806361d027b31461031b57806363c69f081461032e578063715018a61461034e575f5ffd5b80632e586cab1461027d5780633141e25b1461029d578063379607f5146102b0575f5ffd5b80631c54a0d4116101995780631c54a0d41461021657806321874ae21461022957806327ed71881461024d5780632e17de781461026a575f5ffd5b806310087fb1146101bf57806310b5a38e146101d4578063187ed5b1146101f6575b5f5ffd5b6101d26101cd366004611972565b6104bd565b005b6101dc61067c565b604080519283526020830191909152015b60405180910390f35b6101fe6106ef565b6040516001600160a01b0390911681526020016101ed565b6101d2610224366004611972565b61075f565b61023c6102373660046119b4565b6107d9565b6040516101ed9594939291906119cf565b61025c671bc16d674ec8000081565b6040519081526020016101ed565b6101d2610278366004611a21565b610860565b61029061028b3660046119b4565b6108d5565b6040516101ed9190611a38565b6101d26102ab366004611a7a565b61094f565b6101d26102be366004611a21565b610996565b6102d66102d1366004611a21565b6109d6565b604080516001600160a01b03909816885260208801969096529486019390935260ff9182166060860152608085015290151560a08401521660c082015260e0016101ed565b6003546101fe906001600160a01b031681565b61034161033c3660046119b4565b610a66565b6040516101ed9190611ac2565b6101d2610ad5565b6101d26103643660046119b4565b610ae8565b5f546001600160a01b03166101fe565b610381610bbe565b6040516101ed9493929190611c04565b61025c61039f366004611a21565b60066020525f908152604090205481565b6101d26103be366004611a21565b610c40565b6103d66103d1366004611c52565b610c80565b6040516101ed929190611c7c565b6103f76103f23660046119b4565b610fce565b60405190151581526020016101ed565b6002546101fe906001600160a01b031681565b6103f76104283660046119b4565b60076020525f908152604090205460ff1681565b6005546101fe906001600160a01b031681565b61046261045d3660046119b4565b61104a565b6040516101ed9190611cf2565b6004546101fe906001600160a01b031681565b6101d26104903660046119b4565b6110b9565b61049d6110f3565b6040805194855260208501939093529183015260608201526080016101ed565b6104c561116b565b60048160ff16106105125760405162461bcd60e51b815260206004820152601260248201527122a92927a92fa9aa20a5a2afa4a72222ac1760711b60448201526064015b60405180910390fd5b60ff81165f90815260066020526040902054801561056a578281101561056a5760405162461bcd60e51b815260206004820152600d60248201526c22a92927a92fa0a6a7aaa72a1760991b6044820152606401610509565b8160ff165f036105cc57335f9081526007602052604090205460ff16156105cc5760405162461bcd60e51b81526020600482015260166024820152752224a9a0a62627aba2a22fa7a92222a92faa2ca8229760511b6044820152606401610509565b6002546004546105eb916001600160a01b039081169133911686611195565b6004805460405163031a0e0360e51b815233928101929092526024820185905260ff841660448301526001600160a01b031690636341c060906064015f604051808303815f87803b15801561063e575f5ffd5b505af1158015610650573d5f5f3e3d5ffd5b5050335f908152600760205260409020805460ff191660011790555061067891506112c09050565b5050565b600480546040805163085ad1c760e11b815281515f9485946001600160a01b0316936310b5a38e93808301939192908290030181865afa1580156106c2573d5f5f3e3d5ffd5b505050506040513d601f19601f820116820180604052508101906106e69190611d4b565b90939092509050565b6005546040805163187ed5b160e01b815290515f926001600160a01b03169163187ed5b19160048083019260209291908290030181865afa158015610736573d5f5f3e3d5ffd5b505050506040513d601f19601f8201168201806040525081019061075a9190611d6d565b905090565b61076761116b565b60048054604051631bd8358960e31b815233928101929092526024820184905260ff831660448301526001600160a01b03169063dec1ac48906064015f604051808303815f87803b1580156107ba575f5ffd5b505af11580156107cc573d5f5f3e3d5ffd5b5050505061067860018055565b600554604051631caa058560e11b81526001600160a01b0383811660048301525f9283928392839283929116906339540b0a9060240160a060405180830381865afa15801561082a573d5f5f3e3d5ffd5b505050506040513d601f19601f8201168201806040525081019061084e9190611d88565b939a9299509097509550909350915050565b61086861116b565b60048054604051630615339760e51b81523392810192909252602482018390526001600160a01b03169063c2a672e0906044015b5f604051808303815f87803b1580156108b3575f5ffd5b505af11580156108c5573d5f5f3e3d5ffd5b505050506108d260018055565b50565b60048054604051632e586cab60e01b81526001600160a01b038481169382019390935260609290911690632e586cab906024015f60405180830381865afa158015610922573d5f5f3e3d5ffd5b505050506040513d5f823e601f3d908101601f191682016040526109499190810190611e9c565b92915050565b6109576112c6565b600380546001600160a01b039485166001600160a01b031991821617909155600480549385169382169390931790925560058054919093169116179055565b61099e61116b565b60048054604051635569f64b60e11b81523392810192909252602482018390526001600160a01b03169063aad3ec969060440161089c565b60048054604051631e186afb60e01b81529182018390525f918291829182918291829182916001600160a01b0390911690631e186afb9060240160e060405180830381865afa158015610a2b573d5f5f3e3d5ffd5b505050506040513d601f19601f82011682018060405250810190610a4f9190611f46565b959e949d50929b5090995097509550909350915050565b600354604051630c78d3e160e31b81526001600160a01b03838116600483015260609216906363c69f08906024015f60405180830381865afa158015610aae573d5f5f3e3d5ffd5b505050506040513d5f823e601f3d908101601f191682016040526109499190810190611fe6565b610add6112c6565b610ae65f6112f2565b565b610af061116b565b6001600160a01b038116610b365760405162461bcd60e51b815260206004820152600d60248201526c2d32b9379030b2323932b9b99760991b6044820152606401610509565b336001600160a01b03821603610b865760405162461bcd60e51b815260206004820152601560248201527422b93937b9103830b932b73a1030b2323932b9b99760591b6044820152606401610509565b600554604051631c505d1d60e01b81526001600160a01b03838116600483015233602483015290911690631c505d1d9060440161089c565b5f610bc7611945565b600480546040805163a32bf59760e01b815290515f9384936001600160a01b03169263a32bf5979281830192610300928290030181865afa158015610c0e573d5f5f3e3d5ffd5b505050506040513d601f19601f82011682018060405250810190610c329190612142565b929791965094509092509050565b610c4861116b565b6004805460405163a05a9e1360e01b81523392810192909252602482018390526001600160a01b03169063a05a9e139060440161089c565b60408051610100810182525f80825260208201819052918101829052606081018290526080810182905260a0810182905260c0810182905260e08101829052600354604051630c78d3e160e31b81526001600160a01b0386811660048301525f9216906363c69f08906024015f60405180830381865afa158015610d06573d5f5f3e3d5ffd5b505050506040513d5f823e601f3d908101601f19168201604052610d2d9190810190611fe6565b8481518110610d3e57610d3e6121dd565b60209081029190910101516003546080820151604051634640ed5f60e11b815260ff90911660048201529192505f918291829182916001600160a01b031690638c81dabe90602401608060405180830381865afa158015610da1573d5f5f3e3d5ffd5b505050506040513d601f19601f82011682018060405250810190610dc59190612207565b93509350935093505f60405180608001604052808663ffffffff1681526020018563ffffffff1681526020018463ffffffff168152602001836001600160401b031681525090505f60035f9054906101000a90046001600160a01b03166001600160a01b0316635c975abb6040518163ffffffff1660e01b8152600401602060405180830381865afa158015610e5d573d5f5f3e3d5ffd5b505050506040513d601f19601f82011682018060405250810190610e819190612258565b90505f60035f9054906101000a90046001600160a01b03166001600160a01b031663015cb3ff6040518163ffffffff1660e01b8152600401602060405180830381865afa158015610ed4573d5f5f3e3d5ffd5b505050506040513d601f19601f82011682018060405250810190610ef89190612271565b90505f60035f9054906101000a90046001600160a01b03166001600160a01b03166311d72f1c6040518163ffffffff1660e01b8152600401602060405180830381865afa158015610f4b573d5f5f3e3d5ffd5b505050506040513d601f19601f82011682018060405250810190610f6f919061228a565b9050610f8d8985428563ffffffff16856001600160401b0316611341565b9a505f89608001516001610fa191906122b7565b9050610fbb8a8642878786886001600160401b03166113c3565b9a50505050505050505050509250929050565b600554604051631caa058560e11b81526001600160a01b0383811660048301525f9283929116906339540b0a9060240160a060405180830381865afa158015611019573d5f5f3e3d5ffd5b505050506040513d601f19601f8201168201806040525081019061103d9190611d88565b5015159695505050505050565b600554604051633737342360e21b81526001600160a01b038381166004830152606092169063dcdcd08c906024015f60405180830381865afa158015611092573d5f5f3e3d5ffd5b505050506040513d5f823e601f3d908101601f1916820160405261094991908101906122d0565b6110c16112c6565b6001600160a01b0381166110ea57604051631e4fbdf760e01b81525f6004820152602401610509565b6108d2816112f2565b5f5f5f5f60045f9054906101000a90046001600160a01b03166001600160a01b031663e4c2ab716040518163ffffffff1660e01b8152600401608060405180830381865afa158015611147573d5f5f3e3d5ffd5b505050506040513d601f19601f82011682018060405250810190610c32919061238e565b60026001540361118e57604051633ee5aeb560e01b815260040160405180910390fd5b6002600155565b604080516001600160a01b0385811660248301528481166044830152606480830185905283518084039091018152608490920183526020820180516001600160e01b03166323b872dd60e01b17905291515f928392908816916111f891906123c1565b5f604051808303815f865af19150503d805f8114611231576040519150601f19603f3d011682016040523d82523d5f602084013e611236565b606091505b50915091508180156112605750805115806112605750808060200190518101906112609190612258565b6112b85760405162461bcd60e51b8152602060048201526024808201527f5472616e7366657248656c7065723a205452414e534645525f46524f4d5f46416044820152631253115160e21b6064820152608401610509565b505050505050565b60018055565b5f546001600160a01b03163314610ae65760405163118cdaa760e01b8152336004820152602401610509565b5f80546001600160a01b038381166001600160a01b0319831681178455604051919092169283917f8be0079c531659141344cd1fd0a4f28419497f9722a3daafe3b4186f6b6457e09190a35050565b5f5f61134f8787878761151d565b90505f61135d8887866115f8565b90505f61136a82846123d7565b90505f8961010001516001600160801b03168a602001516001600160801b031661139491906123d7565b90508082116113a9575f9450505050506113ba565b6113b381836123ea565b9450505050505b95945050505050565b60408051610100810182525f80825260208201819052918101829052606081018290526080810182905260a0810182905260c0810182905260e08101919091526060880151875163ffffffff918216915f916114209116836123d7565b90505f611431836301e133806123d7565b905087801561144f57508663ffffffff168b60c0015163ffffffff16105b151560a085018190525f90611469908d908d908d9061169a565b90505f61148f8d8d8d8960a00151611481575f611483565b8c5b63ffffffff168b611341565b90508c60a0015160ff165f1480156114a45750815b80156114af57505f81115b1515604087018190526114c3575f196114c5565b5f5b86525f6114d58e8e8e8e8e6117dd565b8051151560608901526020808201519089015290506114f88e8e8e8e8e8e6118d9565b15156080880152505050881160c08401529096101560e0820152979650505050505050565b5f8460a0015160ff165f1461153357505f6115f0565b8351606086015184915f9161154891906123fd565b63ffffffff1690508082111561155c578091505b5f8411801561156a57508382115b15611573578391505b866060015163ffffffff16821161158e575f925050506115f0565b5f876060015163ffffffff16836115a591906123ea565b9050670de0b6b3a764000087606001516001600160401b0316828a5f01516001600160801b03166115d69190612419565b6115e09190612419565b6115ea9190612444565b93505050505b949350505050565b5f83610120015163ffffffff165f0361161257505f611693565b5f6201518085610120015163ffffffff168561162e91906123ea565b6116389190612444565b90505f6116458483612419565b9050670de0b6b3a76400008111156116625750670de0b6b3a76400005b670de0b6b3a7640000818760e001516001600160801b03166116849190612419565b61168e9190612444565b925050505b9392505050565b5f81156116a9575060016115f0565b6060850151845163ffffffff918216915f916116c69116836123d7565b9050856040015163ffffffff16816116de91906123d7565b8511156116ef575f925050506115f0565b60208601516117049063ffffffff16836123d7565b851015611715575f925050506115f0565b5f61172083876123ea565b90505f876020015163ffffffff16826117399190612444565b90505f8860200151895f015161174f9190612457565b63ffffffff16905080821115611763578091505b896040015163ffffffff168211611781575f955050505050506115f0565b5f896020015163ffffffff16836117989190612419565b6117a290876123d7565b90505f8a6040015163ffffffff16826117bb91906123d7565b9050818a101580156117cd5750808a11155b9c9b505050505050505050505050565b604080516060810182525f808252602082018190529181019190915282801561181557508163ffffffff168660c0015163ffffffff16105b1515604082015260a086015160ff161561183e575f8082525f19602083015260408201526113ba565b806040015115611857575f81525f1960208201526113ba565b845160608701515f91611869916123fd565b63ffffffff1690505f87606001516301e1338061188691906123fd565b63ffffffff169050818610156118ad575f83526118a386836123ea565b60208401526118ce565b8086116118c357600183525f60208401526118ce565b5f83525f1960208401525b505095945050505050565b5f5f6118e888888888886117dd565b80519091506118fa575f91505061193b565b608088015160ff161561190d575f611910565b60015b886080015161191f91906122b7565b60ff168360ff161015611935575f91505061193b565b60019150505b9695505050505050565b604051806102a001604052806015906020820280368337509192915050565b60ff811681146108d2575f5ffd5b5f5f60408385031215611983575f5ffd5b82359150602083013561199581611964565b809150509250929050565b6001600160a01b03811681146108d2575f5ffd5b5f602082840312156119c4575f5ffd5b8135611693816119a0565b6001600160a01b038616815260a08101600886106119fb57634e487b7160e01b5f52602160045260245ffd5b85602083015261ffff851660408301528360608301528260808301529695505050505050565b5f60208284031215611a31575f5ffd5b5035919050565b602080825282518282018190525f918401906040840190835b81811015611a6f578351835260209384019390920191600101611a51565b509095945050505050565b5f5f5f60608486031215611a8c575f5ffd5b8335611a97816119a0565b92506020840135611aa7816119a0565b91506040840135611ab7816119a0565b809150509250925092565b602080825282518282018190525f918401906040840190835b81811015611a6f57835180516001600160801b031684526020810151611b0c60208601826001600160801b03169052565b506040810151611b24604086018263ffffffff169052565b506060810151611b3c606086018263ffffffff169052565b506080810151611b51608086018260ff169052565b5060a0810151611b6660a086018260ff169052565b5060c0810151611b7e60c086018263ffffffff169052565b5060e0810151611b9960e08601826001600160801b03169052565b50610100810151611bb66101008601826001600160801b03169052565b50610120810151611bd061012086018263ffffffff169052565b506101408101519050611bec61014085018263ffffffff169052565b50602093909301926101609290920191600101611adb565b848152610300810160208201855f5b6015811015611c3b5781516001600160a01b0316835260209283019290910190600101611c13565b5050506102c08201939093526102e0015292915050565b5f5f60408385031215611c63575f5ffd5b8235611c6e816119a0565b946020939093013593505050565b5f6101208201905083825282516020830152602083015160408301526040830151151560608301526060830151151560808301526080830151151560a083015260a0830151611ccf60c084018215159052565b5060c0830151151560e08381019190915290920151151561010090910152919050565b602080825282518282018190525f918401906040840190835b81811015611a6f57835180516001600160a01b03168452602080820151818601526040918201519185019190915290930192606090920191600101611d0b565b5f5f60408385031215611d5c575f5ffd5b505080516020909101519092909150565b5f60208284031215611d7d575f5ffd5b8151611693816119a0565b5f5f5f5f5f60a08688031215611d9c575f5ffd5b8551611da7816119a0565b602087015190955060088110611dbb575f5ffd5b604087015190945061ffff81168114611dd2575f5ffd5b6060870151608090970151959894975095949392505050565b634e487b7160e01b5f52604160045260245ffd5b60405161016081016001600160401b0381118282101715611e2257611e22611deb565b60405290565b604051606081016001600160401b0381118282101715611e2257611e22611deb565b604051601f8201601f191681016001600160401b0381118282101715611e7257611e72611deb565b604052919050565b5f6001600160401b03821115611e9257611e92611deb565b5060051b60200190565b5f60208284031215611eac575f5ffd5b81516001600160401b03811115611ec1575f5ffd5b8201601f81018413611ed1575f5ffd5b8051611ee4611edf82611e7a565b611e4a565b8082825260208201915060208360051b850101925086831115611f05575f5ffd5b6020840193505b8284101561193b578351825260209384019390910190611f0c565b8051611f3281611964565b919050565b80518015158114611f32575f5ffd5b5f5f5f5f5f5f5f60e0888a031215611f5c575f5ffd5b8751611f67816119a0565b602089015160408a015160608b01519299509097509550611f8781611964565b60808901519094509250611f9d60a08901611f37565b915060c0880151611fad81611964565b8091505092959891949750929550565b80516001600160801b0381168114611f32575f5ffd5b805163ffffffff81168114611f32575f5ffd5b5f60208284031215611ff6575f5ffd5b81516001600160401b0381111561200b575f5ffd5b8201601f8101841361201b575f5ffd5b8051612029611edf82611e7a565b808282526020820191506020610160840285010192508683111561204b575f5ffd5b6020840193505b8284101561193b57610160848803121561206a575f5ffd5b612072611dff565b61207b85611fbd565b815261208960208601611fbd565b602082015261209a60408601611fd3565b60408201526120ab60608601611fd3565b60608201526120bc60808601611f27565b60808201526120cd60a08601611f27565b60a08201526120de60c08601611fd3565b60c08201526120ef60e08601611fbd565b60e08201526121016101008601611fbd565b6101008201526121146101208601611fd3565b6101208201526121276101408601611fd3565b61014082015282526101609390930192602090910190612052565b5f5f5f5f6103008587031215612156575f5ffd5b84519350603f85018613612168575f5ffd5b6040516102a081016001600160401b038111828210171561218b5761218b611deb565b604052806102c08701888111156121a0575f5ffd5b602088015b818110156121c65780516121b8816119a0565b8352602092830192016121a5565b50516102e097909701519598919750909350505050565b634e487b7160e01b5f52603260045260245ffd5b80516001600160401b0381168114611f32575f5ffd5b5f5f5f5f6080858703121561221a575f5ffd5b61222385611fd3565b935061223160208601611fd3565b925061223f60408601611fd3565b915061224d606086016121f1565b905092959194509250565b5f60208284031215612268575f5ffd5b61169382611f37565b5f60208284031215612281575f5ffd5b61169382611fd3565b5f6020828403121561229a575f5ffd5b611693826121f1565b634e487b7160e01b5f52601160045260245ffd5b60ff8181168382160190811115610949576109496122a3565b5f602082840312156122e0575f5ffd5b81516001600160401b038111156122f5575f5ffd5b8201601f81018413612305575f5ffd5b8051612313611edf82611e7a565b80828252602082019150602060608402850101925086831115612334575f5ffd5b6020840193505b8284101561193b5760608488031215612352575f5ffd5b61235a611e28565b8451612365816119a0565b81526020858101518183015260408087015190830152908352606090940193919091019061233b565b5f5f5f5f608085870312156123a1575f5ffd5b505082516020840151604085015160609095015191969095509092509050565b5f82518060208501845e5f920191825250919050565b80820180821115610949576109496122a3565b81810381811115610949576109496122a3565b63ffffffff8181168382160190811115610949576109496122a3565b8082028115828204841417610949576109496122a3565b634e487b7160e01b5f52601260045260245ffd5b5f8261245257612452612430565b500490565b5f63ffffffff83168061246c5761246c612430565b8063ffffffff8416049150509291505056fea2646970667358221220e31a2a6574827b5d3febd264cf6213be098b4cc0626ff40eba379bf04c2c893664736f6c634300081e0033","linkReferences":{}},"methodIdentifiers":{"MIN_STAKE_AMOUNT()":"27ed7188","USDT()":"c54e44eb","alreadyExistsUser(address)":"cbd2fbe1","cancelQueue(uint256)":"a684db3a","claim(uint256)":"379607f5","getCurrentQuota()":"f67dae23","getDirectReferralInfo(address)":"dcdcd08c","getFomoInfo()":"a28f8432","getOrderStatus(address,uint256)":"a80a3baa","getQueueInfo(uint256)":"4bedf369","getQueueRange()":"10b5a38e","getReferralInfo(address)":"21874ae2","getUserOrders(address)":"63c69f08","getUserQueueIds(address)":"2e586cab","maxValueOfStakeIndex(uint256)":"a652a02a","owner()":"8da5cb5b","queue()":"e10d29ee","referral(address)":"7247959a","referrals()":"d3dc7539","renounceOwnership()":"715018a6","restake(uint256,uint8)":"1c54a0d4","rootAddr()":"187ed5b1","setConfig(address,address,address)":"3141e25b","stake(uint256,uint8)":"10087fb1","transferOwnership(address)":"f2fde38b","treasury()":"61d027b3","unstake(uint256)":"2e17de78","verifyReferralCode(address)":"c2cfe4cb"},"id":53}