{"abi":[{"type":"constructor","inputs":[{"name":"_treasury","type":"address","internalType":"address"},{"name":"_queue","type":"address","internalType":"address"},{"name":"_referrals","type":"address","internalType":"address"},{"name":"_USDT","type":"address","internalType":"address"}],"stateMutability":"nonpayable"},{"type":"function","name":"MIN_STAKE_AMOUNT","inputs":[],"outputs":[{"name":"","type":"uint256","internalType":"uint256"}],"stateMutability":"view"},{"type":"function","name":"USDT","inputs":[],"outputs":[{"name":"","type":"address","internalType":"address"}],"stateMutability":"view"},{"type":"function","name":"alreadyExistsUser","inputs":[{"name":"","type":"address","internalType":"address"}],"outputs":[{"name":"","type":"bool","internalType":"bool"}],"stateMutability":"view"},{"type":"function","name":"cancelQueue","inputs":[{"name":"queueOrderId","type":"uint256","internalType":"uint256"}],"outputs":[],"stateMutability":"nonpayable"},{"type":"function","name":"claim","inputs":[{"name":"orderIndex","type":"uint256","internalType":"uint256"}],"outputs":[],"stateMutability":"nonpayable"},{"type":"function","name":"getCurrentQuota","inputs":[],"outputs":[{"name":"stakeUsed","type":"uint256","internalType":"uint256"},{"name":"stakeRemaining","type":"uint256","internalType":"uint256"},{"name":"unstakeUsed","type":"uint256","internalType":"uint256"},{"name":"unstakeRemaining","type":"uint256","internalType":"uint256"}],"stateMutability":"view"},{"type":"function","name":"getDirectReferralInfo","inputs":[{"name":"user","type":"address","internalType":"address"}],"outputs":[{"name":"","type":"tuple[]","internalType":"struct Models.DirectReferral[]","components":[{"name":"user","type":"address","internalType":"address"},{"name":"staked","type":"uint256","internalType":"uint256"},{"name":"performance","type":"uint256","internalType":"uint256"}]}],"stateMutability":"view"},{"type":"function","name":"getFomoInfo","inputs":[],"outputs":[{"name":"roundId","type":"uint256","internalType":"uint256"},{"name":"lastQualified","type":"address[21]","internalType":"address[21]"},{"name":"count","type":"uint256","internalType":"uint256"},{"name":"poolBalance","type":"uint256","internalType":"uint256"}],"stateMutability":"view"},{"type":"function","name":"getOrderStatus","inputs":[{"name":"user","type":"address","internalType":"address"},{"name":"orderIndex","type":"uint256","internalType":"uint256"}],"outputs":[{"name":"truthAward","type":"uint256","internalType":"uint256"},{"name":"result","type":"tuple","internalType":"struct Models.RuleResult","components":[{"name":"claimCountdown","type":"uint256","internalType":"uint256"},{"name":"unstakeCountdown","type":"uint256","internalType":"uint256"},{"name":"canClaim","type":"bool","internalType":"bool"},{"name":"canUnstake","type":"bool","internalType":"bool"},{"name":"canRestake","type":"bool","internalType":"bool"},{"name":"isFrozen","type":"bool","internalType":"bool"},{"name":"isExpired","type":"bool","internalType":"bool"},{"name":"isMatured","type":"bool","internalType":"bool"}]}],"stateMutability":"view"},{"type":"function","name":"getQueueInfo","inputs":[{"name":"queueId","type":"uint256","internalType":"uint256"}],"outputs":[{"name":"user","type":"address","internalType":"address"},{"name":"amount","type":"uint256","internalType":"uint256"},{"name":"orderIndex","type":"uint256","internalType":"uint256"},{"name":"stakeIndex","type":"uint8","internalType":"uint8"},{"name":"createdAt","type":"uint256","internalType":"uint256"},{"name":"isRestake","type":"bool","internalType":"bool"},{"name":"status","type":"uint8","internalType":"uint8"}],"stateMutability":"view"},{"type":"function","name":"getReferralInfo","inputs":[{"name":"user","type":"address","internalType":"address"}],"outputs":[{"name":"parent","type":"address","internalType":"address"},{"name":"level","type":"uint8","internalType":"enum Models.LevelType"},{"name":"referralNum","type":"uint16","internalType":"uint16"},{"name":"totalStaked","type":"uint256","internalType":"uint256"},{"name":"performance","type":"uint256","internalType":"uint256"}],"stateMutability":"view"},{"type":"function","name":"getSystemStatus","inputs":[],"outputs":[{"name":"circuitBreaker","type":"bool","internalType":"bool"}],"stateMutability":"view"},{"type":"function","name":"getUserOrders","inputs":[{"name":"user","type":"address","internalType":"address"}],"outputs":[{"name":"","type":"tuple[]","internalType":"struct Models.Order[]","components":[{"name":"amount","type":"uint128","internalType":"uint128"},{"name":"claimed","type":"uint128","internalType":"uint128"},{"name":"claimedPeriods","type":"uint32","internalType":"uint32"},{"name":"startTime","type":"uint32","internalType":"uint32"},{"name":"stakeIndex","type":"uint8","internalType":"uint8"},{"name":"status","type":"uint8","internalType":"uint8"},{"name":"createdAt","type":"uint32","internalType":"uint32"},{"name":"frozenReward","type":"uint128","internalType":"uint128"},{"name":"frozenClaimed","type":"uint128","internalType":"uint128"},{"name":"freezeStart","type":"uint32","internalType":"uint32"},{"name":"freezeRound","type":"uint32","internalType":"uint32"}]}],"stateMutability":"view"},{"type":"function","name":"getUserQueueIds","inputs":[{"name":"user","type":"address","internalType":"address"}],"outputs":[{"name":"","type":"uint256[]","internalType":"uint256[]"}],"stateMutability":"view"},{"type":"function","name":"maxValueOfStakeIndex","inputs":[{"name":"","type":"uint256","internalType":"uint256"}],"outputs":[{"name":"","type":"uint256","internalType":"uint256"}],"stateMutability":"view"},{"type":"function","name":"owner","inputs":[],"outputs":[{"name":"","type":"address","internalType":"address"}],"stateMutability":"view"},{"type":"function","name":"queue","inputs":[],"outputs":[{"name":"","type":"address","internalType":"address"}],"stateMutability":"view"},{"type":"function","name":"referral","inputs":[{"name":"parent","type":"address","internalType":"address"}],"outputs":[],"stateMutability":"nonpayable"},{"type":"function","name":"referrals","inputs":[],"outputs":[{"name":"","type":"address","internalType":"address"}],"stateMutability":"view"},{"type":"function","name":"renounceOwnership","inputs":[],"outputs":[],"stateMutability":"nonpayable"},{"type":"function","name":"restake","inputs":[{"name":"orderIndex","type":"uint256","internalType":"uint256"},{"name":"newStakeIndex","type":"uint8","internalType":"uint8"}],"outputs":[],"stateMutability":"nonpayable"},{"type":"function","name":"rootAddr","inputs":[],"outputs":[{"name":"","type":"address","internalType":"address"}],"stateMutability":"view"},{"type":"function","name":"setConfig","inputs":[{"name":"_treasury","type":"address","internalType":"address"},{"name":"_queue","type":"address","internalType":"address"},{"name":"_referrals","type":"address","internalType":"address"}],"outputs":[],"stateMutability":"nonpayable"},{"type":"function","name":"stake","inputs":[{"name":"amount","type":"uint256","internalType":"uint256"},{"name":"stakeIndex","type":"uint8","internalType":"uint8"}],"outputs":[],"stateMutability":"nonpayable"},{"type":"function","name":"transferOwnership","inputs":[{"name":"newOwner","type":"address","internalType":"address"}],"outputs":[],"stateMutability":"nonpayable"},{"type":"function","name":"treasury","inputs":[],"outputs":[{"name":"","type":"address","internalType":"address"}],"stateMutability":"view"},{"type":"function","name":"unstake","inputs":[{"name":"orderIndex","type":"uint256","internalType":"uint256"}],"outputs":[],"stateMutability":"nonpayable"},{"type":"function","name":"verifyReferralCode","inputs":[{"name":"user","type":"address","internalType":"address"}],"outputs":[{"name":"","type":"bool","internalType":"bool"}],"stateMutability":"view"},{"type":"event","name":"OwnershipTransferred","inputs":[{"name":"previousOwner","type":"address","indexed":true,"internalType":"address"},{"name":"newOwner","type":"address","indexed":true,"internalType":"address"}],"anonymous":false},{"type":"error","name":"OwnableInvalidOwner","inputs":[{"name":"owner","type":"address","internalType":"address"}]},{"type":"error","name":"OwnableUnauthorizedAccount","inputs":[{"name":"account","type":"address","internalType":"address"}]},{"type":"error","name":"ReentrancyGuardReentrantCall","inputs":[]}],"bytecode":{"object":"0x608060405234801561000f575f5ffd5b506040516123e53803806123e583398101604081905261002e91610152565b338061005357604051631e4fbdf760e01b81525f600482015260240160405180910390fd5b61005c816100e8565b5060018055600380546001600160a01b039586166001600160a01b03199182161790915560048054948616948216949094179093556005805492851692841692909217909155600280549190931691161790555f8052600660205268056bc75e2d631000007f54cdd369e4e8a8515e52ca72ec816c2101831ad1f18bf44102ed171459c9b4f8556101a3565b5f80546001600160a01b038381166001600160a01b0319831681178455604051919092169283917f8be0079c531659141344cd1fd0a4f28419497f9722a3daafe3b4186f6b6457e09190a35050565b80516001600160a01b038116811461014d575f5ffd5b919050565b5f5f5f5f60808587031215610165575f5ffd5b61016e85610137565b935061017c60208601610137565b925061018a60408601610137565b915061019860608601610137565b905092959194509250565b612235806101b05f395ff3fe608060405234801561000f575f5ffd5b50600436106101bb575f3560e01c80637247959a116100f3578063c54e44eb11610093578063dcdcd08c1161006e578063dcdcd08c1461043a578063e10d29ee1461045a578063f2fde38b1461046d578063f67dae2314610480575f5ffd5b8063c54e44eb146103f2578063cbd2fbe114610405578063d3dc753914610427575f5ffd5b8063a652a02a116100ce578063a652a02a1461038c578063a684db3a146103ab578063a80a3baa146103be578063c2cfe4cb146103df575f5ffd5b80637247959a146103515780638da5cb5b14610364578063a28f843214610374575f5ffd5b80633141e25b1161015e57806350c1d19d1161013957806350c1d19d146102fe57806361d027b31461031657806363c69f0814610329578063715018a614610349575f5ffd5b80633141e25b14610280578063379607f5146102935780634bedf369146102a6575f5ffd5b806321874ae21161019957806321874ae21461020c57806327ed7188146102305780632e17de781461024d5780632e586cab14610260575f5ffd5b806310087fb1146101bf578063187ed5b1146101d45780631c54a0d4146101f9575b5f5ffd5b6101d26101cd366004611742565b6104a8565b005b6101dc610667565b6040516001600160a01b0390911681526020015b60405180910390f35b6101d2610207366004611742565b6106d7565b61021f61021a366004611784565b610751565b6040516101f095949392919061179f565b61023f671bc16d674ec8000081565b6040519081526020016101f0565b6101d261025b3660046117f1565b6107d8565b61027361026e366004611784565b61084d565b6040516101f09190611808565b6101d261028e36600461184a565b6108c7565b6101d26102a13660046117f1565b61090e565b6102b96102b43660046117f1565b61094e565b604080516001600160a01b03909816885260208801969096529486019390935260ff9182166060860152608085015290151560a08401521660c082015260e0016101f0565b6103066109de565b60405190151581526020016101f0565b6003546101dc906001600160a01b031681565b61033c610337366004611784565b610a53565b6040516101f09190611892565b6101d2610ac2565b6101d261035f366004611784565b610ad5565b5f546001600160a01b03166101dc565b61037c610bab565b6040516101f094939291906119d4565b61023f61039a3660046117f1565b60066020525f908152604090205481565b6101d26103b93660046117f1565b610c2d565b6103d16103cc366004611a22565b610c6d565b6040516101f0929190611a4c565b6103066103ed366004611784565b610f7e565b6002546101dc906001600160a01b031681565b610306610413366004611784565b60076020525f908152604090205460ff1681565b6005546101dc906001600160a01b031681565b61044d610448366004611784565b610ffa565b6040516101f09190611ac2565b6004546101dc906001600160a01b031681565b6101d261047b366004611784565b611069565b6104886110a3565b6040805194855260208501939093529183015260608201526080016101f0565b6104b061111b565b60048160ff16106104fd5760405162461bcd60e51b815260206004820152601260248201527122a92927a92fa9aa20a5a2afa4a72222ac1760711b60448201526064015b60405180910390fd5b60ff81165f90815260066020526040902054801561055557828110156105555760405162461bcd60e51b815260206004820152600d60248201526c22a92927a92fa0a6a7aaa72a1760991b60448201526064016104f4565b8160ff165f036105b757335f9081526007602052604090205460ff16156105b75760405162461bcd60e51b81526020600482015260166024820152752224a9a0a62627aba2a22fa7a92222a92faa2ca8229760511b60448201526064016104f4565b6002546004546105d6916001600160a01b039081169133911686611145565b6004805460405163031a0e0360e51b815233928101929092526024820185905260ff841660448301526001600160a01b031690636341c060906064015f604051808303815f87803b158015610629575f5ffd5b505af115801561063b573d5f5f3e3d5ffd5b5050335f908152600760205260409020805460ff191660011790555061066391506112709050565b5050565b6005546040805163187ed5b160e01b815290515f926001600160a01b03169163187ed5b19160048083019260209291908290030181865afa1580156106ae573d5f5f3e3d5ffd5b505050506040513d601f19601f820116820180604052508101906106d29190611b1b565b905090565b6106df61111b565b60048054604051631bd8358960e31b815233928101929092526024820184905260ff831660448301526001600160a01b03169063dec1ac48906064015f604051808303815f87803b158015610732575f5ffd5b505af1158015610744573d5f5f3e3d5ffd5b5050505061066360018055565b600554604051631caa058560e11b81526001600160a01b0383811660048301525f9283928392839283929116906339540b0a9060240160a060405180830381865afa1580156107a2573d5f5f3e3d5ffd5b505050506040513d601f19601f820116820180604052508101906107c69190611b36565b939a9299509097509550909350915050565b6107e061111b565b60048054604051630615339760e51b81523392810192909252602482018390526001600160a01b03169063c2a672e0906044015b5f604051808303815f87803b15801561082b575f5ffd5b505af115801561083d573d5f5f3e3d5ffd5b5050505061084a60018055565b50565b60048054604051632e586cab60e01b81526001600160a01b038481169382019390935260609290911690632e586cab906024015f60405180830381865afa15801561089a573d5f5f3e3d5ffd5b505050506040513d5f823e601f3d908101601f191682016040526108c19190810190611c4e565b92915050565b6108cf611276565b600380546001600160a01b039485166001600160a01b031991821617909155600480549385169382169390931790925560058054919093169116179055565b61091661111b565b60048054604051635569f64b60e11b81523392810192909252602482018390526001600160a01b03169063aad3ec9690604401610814565b60048054604051631e186afb60e01b81529182018390525f918291829182918291829182916001600160a01b0390911690631e186afb9060240160e060405180830381865afa1580156109a3573d5f5f3e3d5ffd5b505050506040513d601f19601f820116820180604052508101906109c79190611d03565b959e949d50929b5090995097509550909350915050565b5f60045f9054906101000a90046001600160a01b03166001600160a01b03166316efd9416040518163ffffffff1660e01b8152600401602060405180830381865afa158015610a2f573d5f5f3e3d5ffd5b505050506040513d601f19601f820116820180604052508101906106d29190611d7a565b600354604051630c78d3e160e31b81526001600160a01b03838116600483015260609216906363c69f08906024015f60405180830381865afa158015610a9b573d5f5f3e3d5ffd5b505050506040513d5f823e601f3d908101601f191682016040526108c19190810190611dbc565b610aca611276565b610ad35f6112a2565b565b610add61111b565b6001600160a01b038116610b235760405162461bcd60e51b815260206004820152600d60248201526c2d32b9379030b2323932b9b99760991b60448201526064016104f4565b336001600160a01b03821603610b735760405162461bcd60e51b815260206004820152601560248201527422b93937b9103830b932b73a1030b2323932b9b99760591b60448201526064016104f4565b600554604051631c505d1d60e01b81526001600160a01b03838116600483015233602483015290911690631c505d1d90604401610814565b5f610bb4611715565b600480546040805163a32bf59760e01b815290515f9384936001600160a01b03169263a32bf5979281830192610300928290030181865afa158015610bfb573d5f5f3e3d5ffd5b505050506040513d601f19601f82011682018060405250810190610c1f9190611f19565b929791965094509092509050565b610c3561111b565b6004805460405163a05a9e1360e01b81523392810192909252602482018390526001600160a01b03169063a05a9e1390604401610814565b60408051610100810182525f80825260208201819052918101829052606081018290526080810182905260a0810182905260c0810182905260e08101829052600354604051630c78d3e160e31b81526001600160a01b0386811660048301525f9216906363c69f08906024015f60405180830381865afa158015610cf3573d5f5f3e3d5ffd5b505050506040513d5f823e601f3d908101601f19168201604052610d1a9190810190611dbc565b8481518110610d2b57610d2b611fb5565b60209081029190910101516003546080820151604051634640ed5f60e11b815260ff90911660048201529192505f91829182916001600160a01b0390911690638c81dabe90602401606060405180830381865afa158015610d8e573d5f5f3e3d5ffd5b505050506040513d601f19601f82011682018060405250810190610db29190611fe0565b6040805160608101825263ffffffff8086168252841660208083019190915267ffffffffffffffff8416828401526003548351635c975abb60e01b81529351969950949750929550935f936001600160a01b031692635c975abb92600480820193918290030181865afa158015610e2b573d5f5f3e3d5ffd5b505050506040513d601f19601f82011682018060405250810190610e4f9190611d7a565b90505f60035f9054906101000a90046001600160a01b03166001600160a01b031663015cb3ff6040518163ffffffff1660e01b8152600401602060405180830381865afa158015610ea2573d5f5f3e3d5ffd5b505050506040513d601f19601f82011682018060405250810190610ec69190612020565b90505f60035f9054906101000a90046001600160a01b03166001600160a01b03166311d72f1c6040518163ffffffff1660e01b8152600401602060405180830381865afa158015610f19573d5f5f3e3d5ffd5b505050506040513d601f19601f82011682018060405250810190610f3d9190612039565b9050610f5c8885428563ffffffff168567ffffffffffffffff166112f1565b9950610f6d88854286866003611373565b985050505050505050509250929050565b600554604051631caa058560e11b81526001600160a01b0383811660048301525f9283929116906339540b0a9060240160a060405180830381865afa158015610fc9573d5f5f3e3d5ffd5b505050506040513d601f19601f82011682018060405250810190610fed9190611b36565b5015159695505050505050565b600554604051633737342360e21b81526001600160a01b038381166004830152606092169063dcdcd08c906024015f60405180830381865afa158015611042573d5f5f3e3d5ffd5b505050506040513d5f823e601f3d908101601f191682016040526108c19190810190612052565b611071611276565b6001600160a01b03811661109a57604051631e4fbdf760e01b81525f60048201526024016104f4565b61084a816112a2565b5f5f5f5f60045f9054906101000a90046001600160a01b03166001600160a01b031663e4c2ab716040518163ffffffff1660e01b8152600401608060405180830381865afa1580156110f7573d5f5f3e3d5ffd5b505050506040513d601f19601f82011682018060405250810190610c1f9190612111565b60026001540361113e57604051633ee5aeb560e01b815260040160405180910390fd5b6002600155565b604080516001600160a01b0385811660248301528481166044830152606480830185905283518084039091018152608490920183526020820180516001600160e01b03166323b872dd60e01b17905291515f928392908816916111a89190612144565b5f604051808303815f865af19150503d805f81146111e1576040519150601f19603f3d011682016040523d82523d5f602084013e6111e6565b606091505b50915091508180156112105750805115806112105750808060200190518101906112109190611d7a565b6112685760405162461bcd60e51b8152602060048201526024808201527f5472616e7366657248656c7065723a205452414e534645525f46524f4d5f46416044820152631253115160e21b60648201526084016104f4565b505050505050565b60018055565b5f546001600160a01b03163314610ad35760405163118cdaa760e01b81523360048201526024016104f4565b5f80546001600160a01b038381166001600160a01b0319831681178455604051919092169283917f8be0079c531659141344cd1fd0a4f28419497f9722a3daafe3b4186f6b6457e09190a35050565b5f5f6112ff87878787611578565b90505f61130d888786611654565b90505f61131a828461216e565b90505f8961010001516001600160801b03168a602001516001600160801b0316611344919061216e565b9050808211611359575f94505050505061136a565b6113638183612181565b9450505050505b95945050505050565b60408051610100810182525f80825260208201819052918101829052606081018290526080810182905260a0810182905260c0810182905260e08101919091526113be8784866116f6565b15801560a08301526113d3575f198152611449565b61012087015163ffffffff16156113ec575f8152611449565b5f866020015188606001516114019190612194565b63ffffffff1690505f611417826201518061216e565b9050818710156114325761142b8783612181565b8352611446565b808711611441575f8352611446565b5f1983525b50505b855160608801515f9161145b91612194565b63ffffffff1690505f88606001516301e133806114789190612194565b63ffffffff1690508260a0015115611496575f1960208401526114cc565b818710156114b2576114a88783612181565b60208401526114cc565b8087116114c4575f60208401526114cc565b5f1960208401525b82511580156114e0575060a089015160ff16155b1515604084015260208301511580156114fe575060a089015160ff16155b158015606085018190529061153d5750608089015160ff1615611521575f611524565b60015b896080015161153391906121b0565b60ff168460ff1610155b151560808401526060890151611557906301e13380612194565b63ffffffff16871160c0840152509094101560e08501525091949350505050565b5f8460a0015160ff165f1461158e57505f61164c565b8351606086015184915f916115a39190612194565b63ffffffff169050808211156115b7578091505b5f841180156115c557508382115b156115ce578391505b866060015163ffffffff1682116115e9575f9250505061164c565b5f876060015163ffffffff16836116009190612181565b9050670de0b6b3a7640000876040015167ffffffffffffffff16828a5f01516001600160801b031661163291906121c9565b61163c91906121c9565b61164691906121e0565b93505050505b949350505050565b5f83610120015163ffffffff165f0361166e57505f6116ef565b5f6201518085610120015163ffffffff168561168a9190612181565b61169491906121e0565b90505f6116a184836121c9565b9050670de0b6b3a76400008111156116be5750670de0b6b3a76400005b670de0b6b3a7640000818760e001516001600160801b03166116e091906121c9565b6116ea91906121e0565b925050505b9392505050565b5f81801561164c5750505060c09091015163ffffffff91821691161090565b604051806102a001604052806015906020820280368337509192915050565b60ff8116811461084a575f5ffd5b5f5f60408385031215611753575f5ffd5b82359150602083013561176581611734565b809150509250929050565b6001600160a01b038116811461084a575f5ffd5b5f60208284031215611794575f5ffd5b81356116ef81611770565b6001600160a01b038616815260a08101600886106117cb57634e487b7160e01b5f52602160045260245ffd5b85602083015261ffff851660408301528360608301528260808301529695505050505050565b5f60208284031215611801575f5ffd5b5035919050565b602080825282518282018190525f918401906040840190835b8181101561183f578351835260209384019390920191600101611821565b509095945050505050565b5f5f5f6060848603121561185c575f5ffd5b833561186781611770565b9250602084013561187781611770565b9150604084013561188781611770565b809150509250925092565b602080825282518282018190525f918401906040840190835b8181101561183f57835180516001600160801b0316845260208101516118dc60208601826001600160801b03169052565b5060408101516118f4604086018263ffffffff169052565b50606081015161190c606086018263ffffffff169052565b506080810151611921608086018260ff169052565b5060a081015161193660a086018260ff169052565b5060c081015161194e60c086018263ffffffff169052565b5060e081015161196960e08601826001600160801b03169052565b506101008101516119866101008601826001600160801b03169052565b506101208101516119a061012086018263ffffffff169052565b5061014081015190506119bc61014085018263ffffffff169052565b506020939093019261016092909201916001016118ab565b848152610300810160208201855f5b6015811015611a0b5781516001600160a01b03168352602092830192909101906001016119e3565b5050506102c08201939093526102e0015292915050565b5f5f60408385031215611a33575f5ffd5b8235611a3e81611770565b946020939093013593505050565b5f6101208201905083825282516020830152602083015160408301526040830151151560608301526060830151151560808301526080830151151560a083015260a0830151611a9f60c084018215159052565b5060c0830151151560e08381019190915290920151151561010090910152919050565b602080825282518282018190525f918401906040840190835b8181101561183f57835180516001600160a01b03168452602080820151818601526040918201519185019190915290930192606090920191600101611adb565b5f60208284031215611b2b575f5ffd5b81516116ef81611770565b5f5f5f5f5f60a08688031215611b4a575f5ffd5b8551611b5581611770565b602087015190955060088110611b69575f5ffd5b604087015190945061ffff81168114611b80575f5ffd5b6060870151608090970151959894975095949392505050565b634e487b7160e01b5f52604160045260245ffd5b604051610160810167ffffffffffffffff81118282101715611bd157611bd1611b99565b60405290565b6040516060810167ffffffffffffffff81118282101715611bd157611bd1611b99565b604051601f8201601f1916810167ffffffffffffffff81118282101715611c2357611c23611b99565b604052919050565b5f67ffffffffffffffff821115611c4457611c44611b99565b5060051b60200190565b5f60208284031215611c5e575f5ffd5b815167ffffffffffffffff811115611c74575f5ffd5b8201601f81018413611c84575f5ffd5b8051611c97611c9282611c2b565b611bfa565b8082825260208201915060208360051b850101925086831115611cb8575f5ffd5b6020840193505b82841015611cda578351825260209384019390910190611cbf565b9695505050505050565b8051611cef81611734565b919050565b80518015158114611cef575f5ffd5b5f5f5f5f5f5f5f60e0888a031215611d19575f5ffd5b8751611d2481611770565b602089015160408a015160608b01519299509097509550611d4481611734565b60808901519094509250611d5a60a08901611cf4565b915060c0880151611d6a81611734565b8091505092959891949750929550565b5f60208284031215611d8a575f5ffd5b6116ef82611cf4565b80516001600160801b0381168114611cef575f5ffd5b805163ffffffff81168114611cef575f5ffd5b5f60208284031215611dcc575f5ffd5b815167ffffffffffffffff811115611de2575f5ffd5b8201601f81018413611df2575f5ffd5b8051611e00611c9282611c2b565b8082825260208201915060206101608402850101925086831115611e22575f5ffd5b6020840193505b82841015611cda576101608488031215611e41575f5ffd5b611e49611bad565b611e5285611d93565b8152611e6060208601611d93565b6020820152611e7160408601611da9565b6040820152611e8260608601611da9565b6060820152611e9360808601611ce4565b6080820152611ea460a08601611ce4565b60a0820152611eb560c08601611da9565b60c0820152611ec660e08601611d93565b60e0820152611ed86101008601611d93565b610100820152611eeb6101208601611da9565b610120820152611efe6101408601611da9565b61014082015282526101609390930192602090910190611e29565b5f5f5f5f6103008587031215611f2d575f5ffd5b84519350603f85018613611f3f575f5ffd5b6040516102a0810167ffffffffffffffff81118282101715611f6357611f63611b99565b604052806102c0870188811115611f78575f5ffd5b602088015b81811015611f9e578051611f9081611770565b835260209283019201611f7d565b50516102e097909701519598919750909350505050565b634e487b7160e01b5f52603260045260245ffd5b805167ffffffffffffffff81168114611cef575f5ffd5b5f5f5f60608486031215611ff2575f5ffd5b611ffb84611da9565b925061200960208501611da9565b915061201760408501611fc9565b90509250925092565b5f60208284031215612030575f5ffd5b6116ef82611da9565b5f60208284031215612049575f5ffd5b6116ef82611fc9565b5f60208284031215612062575f5ffd5b815167ffffffffffffffff811115612078575f5ffd5b8201601f81018413612088575f5ffd5b8051612096611c9282611c2b565b808282526020820191506020606084028501019250868311156120b7575f5ffd5b6020840193505b82841015611cda57606084880312156120d5575f5ffd5b6120dd611bd7565b84516120e881611770565b8152602085810151818301526040808701519083015290835260609094019391909101906120be565b5f5f5f5f60808587031215612124575f5ffd5b505082516020840151604085015160609095015191969095509092509050565b5f82518060208501845e5f920191825250919050565b634e487b7160e01b5f52601160045260245ffd5b808201808211156108c1576108c161215a565b818103818111156108c1576108c161215a565b63ffffffff81811683821601908111156108c1576108c161215a565b60ff81811683821601908111156108c1576108c161215a565b80820281158282048414176108c1576108c161215a565b5f826121fa57634e487b7160e01b5f52601260045260245ffd5b50049056fea26469706673582212204ff236d2344957b32011c2459725a7fd7e6bd4c8350eef9b47998ba76107a8d664736f6c634300081e0033","linkReferences":{}},"methodIdentifiers":{"MIN_STAKE_AMOUNT()":"27ed7188","USDT()":"c54e44eb","alreadyExistsUser(address)":"cbd2fbe1","cancelQueue(uint256)":"a684db3a","claim(uint256)":"379607f5","getCurrentQuota()":"f67dae23","getDirectReferralInfo(address)":"dcdcd08c","getFomoInfo()":"a28f8432","getOrderStatus(address,uint256)":"a80a3baa","getQueueInfo(uint256)":"4bedf369","getReferralInfo(address)":"21874ae2","getSystemStatus()":"50c1d19d","getUserOrders(address)":"63c69f08","getUserQueueIds(address)":"2e586cab","maxValueOfStakeIndex(uint256)":"a652a02a","owner()":"8da5cb5b","queue()":"e10d29ee","referral(address)":"7247959a","referrals()":"d3dc7539","renounceOwnership()":"715018a6","restake(uint256,uint8)":"1c54a0d4","rootAddr()":"187ed5b1","setConfig(address,address,address)":"3141e25b","stake(uint256,uint8)":"10087fb1","transferOwnership(address)":"f2fde38b","treasury()":"61d027b3","unstake(uint256)":"2e17de78","verifyReferralCode(address)":"c2cfe4cb"},"id":45}