{"abi":[{"type":"function","name":"UPGRADE_INTERFACE_VERSION","inputs":[],"outputs":[{"name":"","type":"string","internalType":"string"}],"stateMutability":"view"},{"type":"function","name":"USDT","inputs":[],"outputs":[{"name":"","type":"address","internalType":"address"}],"stateMutability":"view"},{"type":"function","name":"addLiquidity","inputs":[{"name":"amountUSDT","type":"uint256","internalType":"uint256"}],"outputs":[],"stateMutability":"nonpayable"},{"type":"function","name":"admin","inputs":[],"outputs":[{"name":"","type":"address","internalType":"address"}],"stateMutability":"view"},{"type":"function","name":"claimWallet","inputs":[],"outputs":[{"name":"","type":"address","internalType":"address"}],"stateMutability":"view"},{"type":"function","name":"emergencyWithdraw","inputs":[{"name":"_token","type":"address","internalType":"address"},{"name":"_amount","type":"uint256","internalType":"uint256"},{"name":"_to","type":"address","internalType":"address"}],"outputs":[],"stateMutability":"nonpayable"},{"type":"function","name":"initialize","inputs":[{"name":"_admin","type":"address","internalType":"address"},{"name":"_treasury","type":"address","internalType":"address"},{"name":"_token","type":"address","internalType":"address"},{"name":"_usdt","type":"address","internalType":"address"},{"name":"_leo","type":"address","internalType":"address"},{"name":"_referrals","type":"address","internalType":"address"},{"name":"_nodeDividends","type":"address","internalType":"address"},{"name":"_remainingWallet","type":"address","internalType":"address"},{"name":"_claimWallet","type":"address","internalType":"address"}],"outputs":[],"stateMutability":"nonpayable"},{"type":"function","name":"issueAward","inputs":[{"name":"user","type":"address","internalType":"address"},{"name":"reward","type":"uint256","internalType":"uint256"}],"outputs":[],"stateMutability":"nonpayable"},{"type":"function","name":"leo","inputs":[],"outputs":[{"name":"","type":"address","internalType":"address"}],"stateMutability":"view"},{"type":"function","name":"nodeDividends","inputs":[],"outputs":[{"name":"","type":"address","internalType":"address"}],"stateMutability":"view"},{"type":"function","name":"owner","inputs":[],"outputs":[{"name":"","type":"address","internalType":"address"}],"stateMutability":"view"},{"type":"function","name":"pancakeFactory","inputs":[],"outputs":[{"name":"","type":"address","internalType":"contract IUniswapV2Factory"}],"stateMutability":"view"},{"type":"function","name":"pancakeRouter","inputs":[],"outputs":[{"name":"","type":"address","internalType":"contract IUniswapV2Router02"}],"stateMutability":"view"},{"type":"function","name":"payback","inputs":[],"outputs":[{"name":"","type":"address","internalType":"address"}],"stateMutability":"view"},{"type":"function","name":"proxiableUUID","inputs":[],"outputs":[{"name":"","type":"bytes32","internalType":"bytes32"}],"stateMutability":"view"},{"type":"function","name":"referrals","inputs":[],"outputs":[{"name":"","type":"address","internalType":"address"}],"stateMutability":"view"},{"type":"function","name":"remainingWallet","inputs":[],"outputs":[{"name":"","type":"address","internalType":"address"}],"stateMutability":"view"},{"type":"function","name":"renounceOwnership","inputs":[],"outputs":[],"stateMutability":"nonpayable"},{"type":"function","name":"setAddrConfig","inputs":[{"name":"_treasury","type":"address","internalType":"address"},{"name":"_referrals","type":"address","internalType":"address"},{"name":"_nodeDividends","type":"address","internalType":"address"}],"outputs":[],"stateMutability":"nonpayable"},{"type":"function","name":"setPaybackAddr","inputs":[{"name":"_payback","type":"address","internalType":"address"}],"outputs":[],"stateMutability":"nonpayable"},{"type":"function","name":"swapTokenToUsdt","inputs":[{"name":"to","type":"address","internalType":"address"},{"name":"usdtAmount","type":"uint256","internalType":"uint256"}],"outputs":[],"stateMutability":"nonpayable"},{"type":"function","name":"token","inputs":[],"outputs":[{"name":"","type":"address","internalType":"address"}],"stateMutability":"view"},{"type":"function","name":"transferOwnership","inputs":[{"name":"newOwner","type":"address","internalType":"address"}],"outputs":[],"stateMutability":"nonpayable"},{"type":"function","name":"treasury","inputs":[],"outputs":[{"name":"","type":"address","internalType":"address"}],"stateMutability":"view"},{"type":"function","name":"upgradeToAndCall","inputs":[{"name":"newImplementation","type":"address","internalType":"address"},{"name":"data","type":"bytes","internalType":"bytes"}],"outputs":[],"stateMutability":"payable"},{"type":"event","name":"Initialized","inputs":[{"name":"version","type":"uint64","indexed":false,"internalType":"uint64"}],"anonymous":false},{"type":"event","name":"OwnershipTransferred","inputs":[{"name":"previousOwner","type":"address","indexed":true,"internalType":"address"},{"name":"newOwner","type":"address","indexed":true,"internalType":"address"}],"anonymous":false},{"type":"event","name":"Upgraded","inputs":[{"name":"implementation","type":"address","indexed":true,"internalType":"address"}],"anonymous":false},{"type":"error","name":"AddressEmptyCode","inputs":[{"name":"target","type":"address","internalType":"address"}]},{"type":"error","name":"ERC1967InvalidImplementation","inputs":[{"name":"implementation","type":"address","internalType":"address"}]},{"type":"error","name":"ERC1967NonPayable","inputs":[]},{"type":"error","name":"FailedCall","inputs":[]},{"type":"error","name":"InvalidInitialization","inputs":[]},{"type":"error","name":"NotInitializing","inputs":[]},{"type":"error","name":"OwnableInvalidOwner","inputs":[{"name":"owner","type":"address","internalType":"address"}]},{"type":"error","name":"OwnableUnauthorizedAccount","inputs":[{"name":"account","type":"address","internalType":"address"}]},{"type":"error","name":"UUPSUnauthorizedCallContext","inputs":[]},{"type":"error","name":"UUPSUnsupportedProxiableUUID","inputs":[{"name":"slot","type":"bytes32","internalType":"bytes32"}]}],"bytecode":{"object":"0x60a0604052306080523480156012575f5ffd5b506080516122ef6100395f395f8181610f9701528181610fc0015261138001526122ef5ff3fe608060405260043610610161575f3560e01c80638da5cb5b116100cd578063cfab164d11610087578063f2fde38b11610062578063f2fde38b1461043d578063f5e95acb1461045c578063f851a4401461047b578063fc0c546a1461049a575f5ffd5b8063cfab164d146103e1578063d3dc753914610400578063e0f1c9c51461041f575f5ffd5b80638da5cb5b146102e457806398eb057414610320578063ad3cb1cc1461033f578063c21ebd071461037c578063c54e44eb146103a3578063c7fb372f146103c2575f5ffd5b8063551512de1161011e578063551512de14610235578063579d40a31461025457806361d027b314610273578063715018a614610292578063779193ea146102a6578063854bec87146102c5575f5ffd5b8063144c49dc1461016557806342728ffd146101a157806343ec53fb146101c05780634f1ef286146101df57806351c6590a146101f457806352d1902d14610213575b5f5ffd5b348015610170575f5ffd5b50600954610184906001600160a01b031681565b6040516001600160a01b0390911681526020015b60405180910390f35b3480156101ac575f5ffd5b50600554610184906001600160a01b031681565b3480156101cb575f5ffd5b50600a54610184906001600160a01b031681565b6101f26101ed366004611d1b565b6104b9565b005b3480156101ff575f5ffd5b506101f261020e366004611dc2565b6104d8565b34801561021e575f5ffd5b5061022761076b565b604051908152602001610198565b348015610240575f5ffd5b506101f261024f366004611dd9565b610786565b34801561025f575f5ffd5b506101f261026e366004611e18565b6108a8565b34801561027e575f5ffd5b50600254610184906001600160a01b031681565b34801561029d575f5ffd5b506101f2610b88565b3480156102b1575f5ffd5b506101f26102c0366004611e42565b610b9b565b3480156102d0575f5ffd5b50600854610184906001600160a01b031681565b3480156102ef575f5ffd5b507f9016d09d72d40fdae2fd8ceac6b6234c7706214fd39c1cd1e609a0528c199300546001600160a01b0316610184565b34801561032b575f5ffd5b506101f261033a366004611e64565b610bc5565b34801561034a575f5ffd5b5061036f604051806040016040528060058152602001640352e302e360dc1b81525081565b6040516101989190611ea1565b348015610387575f5ffd5b506101847310ed43c718714eb63d5aa57b78b54704e256024e81565b3480156103ae575f5ffd5b50600454610184906001600160a01b031681565b3480156103cd575f5ffd5b50600754610184906001600160a01b031681565b3480156103ec575f5ffd5b506101f26103fb366004611e18565b610c0c565b34801561040b575f5ffd5b50600654610184906001600160a01b031681565b34801561042a575f5ffd5b505f54610184906001600160a01b031681565b348015610448575f5ffd5b506101f2610457366004611e42565b610c65565b348015610467575f5ffd5b506101f2610476366004611ed6565b610ca2565b348015610486575f5ffd5b50600154610184906001600160a01b031681565b3480156104a5575f5ffd5b50600354610184906001600160a01b031681565b6104c1610f8c565b6104ca82611030565b6104d48282611038565b5050565b6002546001600160a01b0316331461050b5760405162461bcd60e51b815260040161050290611f8c565b60405180910390fd5b5f610517600283611fc7565b6003546040516370a0823160e01b81523060048201529192505f916001600160a01b03909116906370a0823190602401602060405180830381865afa158015610562573d5f5f3e3d5ffd5b505050506040513d601f19601f820116820180604052508101906105869190611fe6565b6004546003549192506105a7916001600160a01b03918216911684306110f4565b6003546040516370a0823160e01b81523060048201525f916001600160a01b0316906370a0823190602401602060405180830381865afa1580156105ed573d5f5f3e3d5ffd5b505050506040513d601f19601f820116820180604052508101906106119190611fe6565b90505f61061e8486611ffd565b90505f61062b8484611ffd565b600454909150610659906001600160a01b03167310ed43c718714eb63d5aa57b78b54704e256024e8461125f565b600354610684906001600160a01b03167310ed43c718714eb63d5aa57b78b54704e256024e8361125f565b6004546003547310ed43c718714eb63d5aa57b78b54704e256024e9163e8e33700916001600160a01b03918216911685855f80306106c342601e612010565b60405160e08a901b6001600160e01b03191681526001600160a01b039889166004820152968816602488015260448701959095526064860193909352608485019190915260a484015290921660c482015260e4810191909152610104016060604051808303815f875af115801561073c573d5f5f3e3d5ffd5b505050506040513d601f19601f820116820180604052508101906107609190612023565b505050505050505050565b5f610774611375565b505f51602061229a5f395f51905f5290565b6001546001600160a01b031633146107cd5760405162461bcd60e51b815260206004820152600a602482015269139bdd081c195c9b5a5d60b21b6044820152606401610502565b60035f9054906101000a90046001600160a01b03166001600160a01b031663b8c9d25c6040518163ffffffff1660e01b8152600401602060405180830381865afa15801561081d573d5f5f3e3d5ffd5b505050506040513d601f19601f82011682018060405250810190610841919061204e565b6001600160a01b0316836001600160a01b0316036108985760405162461bcd60e51b81526020600482015260146024820152732a37b5b2b71030b2323932b9b99032b93937b91760611b6044820152606401610502565b6108a38382846113be565b505050565b6002546001600160a01b031633146108d25760405162461bcd60e51b815260040161050290611f8c565b80156104d4575f60646108e683603c612069565b6108f09190611fc7565b90505f6064610900846023612069565b61090a9190611fc7565b90505f6103e861091b85600f612069565b6109259190611fc7565b90505f6064610935866002612069565b61093f9190611fc7565b90505f81838561094f888a611ffd565b6109599190611ffd565b6109639190611ffd565b61096d9190611ffd565b90505f610979876114cd565b851561099657600454610996906001600160a01b031689886113be565b8415610a9a57600654604051637ab0437360e01b81526001600160a01b038a81166004830152602482018890525f921690637ab04373906044015f60405180830381865afa1580156109ea573d5f5f3e3d5ffd5b505050506040513d5f823e601f3d908101601f19168201604052610a119190810190612080565b90505f5b8151811015610a97575f828281518110610a3157610a3161215a565b60200260200101516020015190505f811115610a8e57610a518185612010565b9350610a8e60045f9054906101000a90046001600160a01b0316848481518110610a7d57610a7d61215a565b60200260200101515f0151836113be565b50600101610a15565b50505b8315610b1e57600454600754610abd916001600160a01b039081169116866113be565b6007546040516315f5e8d760e31b81526001600160a01b039091169063afaf46b890610af090600390889060040161216e565b5f604051808303815f87803b158015610b07575f5ffd5b505af1158015610b19573d5f5f3e3d5ffd5b505050505b8215610b2d57610b2d836117f8565b8115610b5057600454600a54610b50916001600160a01b039081169116846113be565b84811015610b7e57600454600954610b7e916001600160a01b039081169116610b798489611ffd565b6113be565b5050505050505050565b610b9061199f565b610b995f6119fa565b565b610ba361199f565b600880546001600160a01b0319166001600160a01b0392909216919091179055565b610bcd61199f565b600280546001600160a01b039485166001600160a01b031991821617909155600680549385169382169390931790925560078054919093169116179055565b6002546001600160a01b03163314610c365760405162461bcd60e51b815260040161050290611f8c565b610c3f816114cd565b6001600160a01b038216156104d4576004546104d4906001600160a01b031683836113be565b610c6d61199f565b6001600160a01b038116610c9657604051631e4fbdf760e01b81525f6004820152602401610502565b610c9f816119fa565b50565b5f610cab611a6a565b805490915060ff600160401b820416159067ffffffffffffffff165f81158015610cd25750825b90505f8267ffffffffffffffff166001148015610cee5750303b155b905081158015610cfc575080155b15610d1a5760405163f92ee8a960e01b815260040160405180910390fd5b845467ffffffffffffffff191660011785558315610d4457845460ff60401b1916600160401b1785555b610d4d33611a94565b8d60015f6101000a8154816001600160a01b0302191690836001600160a01b031602179055508c60025f6101000a8154816001600160a01b0302191690836001600160a01b031602179055508b60035f6101000a8154816001600160a01b0302191690836001600160a01b031602179055508a60045f6101000a8154816001600160a01b0302191690836001600160a01b031602179055508960055f6101000a8154816001600160a01b0302191690836001600160a01b031602179055508860065f6101000a8154816001600160a01b0302191690836001600160a01b031602179055508760075f6101000a8154816001600160a01b0302191690836001600160a01b031602179055508660095f6101000a8154816001600160a01b0302191690836001600160a01b0316021790555085600a5f6101000a8154816001600160a01b0302191690836001600160a01b031602179055507310ed43c718714eb63d5aa57b78b54704e256024e6001600160a01b031663c45a01556040518163ffffffff1660e01b8152600401602060405180830381865afa158015610ef3573d5f5f3e3d5ffd5b505050506040513d601f19601f82011682018060405250810190610f17919061204e565b5f80546001600160a01b0319166001600160a01b03929092169190911790558315610f7c57845460ff60401b19168555604051600181527fc7f505b2f371ae2175ee4913f4499e1f2633a7b5936321eed1cdaeb6115181d29060200160405180910390a15b5050505050505050505050505050565b306001600160a01b037f000000000000000000000000000000000000000000000000000000000000000016148061101257507f00000000000000000000000000000000000000000000000000000000000000006001600160a01b03166110065f51602061229a5f395f51905f52546001600160a01b031690565b6001600160a01b031614155b15610b995760405163703e46dd60e11b815260040160405180910390fd5b610c9f61199f565b816001600160a01b03166352d1902d6040518163ffffffff1660e01b8152600401602060405180830381865afa925050508015611092575060408051601f3d908101601f1916820190925261108f91810190611fe6565b60015b6110ba57604051634c9c8ce360e01b81526001600160a01b0383166004820152602401610502565b5f51602061229a5f395f51905f5281146110ea57604051632a87526960e21b815260048101829052602401610502565b6108a38383611aa5565b6040805160028082526060820183525f9260208301908036833701905050905084815f815181106111275761112761215a565b60200260200101906001600160a01b031690816001600160a01b031681525050838160018151811061115b5761115b61215a565b6001600160a01b03928316602091820292909201015260405163095ea7b360e01b81527310ed43c718714eb63d5aa57b78b54704e256024e6004820152602481018590529086169063095ea7b3906044016020604051808303815f875af11580156111c8573d5f5f3e3d5ffd5b505050506040513d601f19601f820116820180604052508101906111ec9190612198565b507310ed43c718714eb63d5aa57b78b54704e256024e635c11d795845f848661121642601e612010565b6040518663ffffffff1660e01b81526004016112369594939291906121b7565b5f604051808303815f87803b15801561124d575f5ffd5b505af1158015610760573d5f5f3e3d5ffd5b604080516001600160a01b038481166024830152604480830185905283518084039091018152606490920183526020820180516001600160e01b031663095ea7b360e01b17905291515f928392908716916112ba9190612227565b5f604051808303815f865af19150503d805f81146112f3576040519150601f19603f3d011682016040523d82523d5f602084013e6112f8565b606091505b50915091508180156113225750805115806113225750808060200190518101906113229190612198565b61136e5760405162461bcd60e51b815260206004820152601e60248201527f5472616e7366657248656c7065723a20415050524f56455f4641494c454400006044820152606401610502565b5050505050565b306001600160a01b037f00000000000000000000000000000000000000000000000000000000000000001614610b995760405163703e46dd60e11b815260040160405180910390fd5b604080516001600160a01b038481166024830152604480830185905283518084039091018152606490920183526020820180516001600160e01b031663a9059cbb60e01b17905291515f928392908716916114199190612227565b5f604051808303815f865af19150503d805f8114611452576040519150601f19603f3d011682016040523d82523d5f602084013e611457565b606091505b50915091508180156114815750805115806114815750808060200190518101906114819190612198565b61136e5760405162461bcd60e51b815260206004820152601f60248201527f5472616e7366657248656c7065723a205452414e534645525f4641494c4544006044820152606401610502565b60035460408051632e32749760e21b815290515f926001600160a01b03169163b8c9d25c9160048083019260209291908290030181865afa158015611514573d5f5f3e3d5ffd5b505050506040513d601f19601f82011682018060405250810190611538919061204e565b90505f5f826001600160a01b0316630902f1ac6040518163ffffffff1660e01b8152600401606060405180830381865afa158015611578573d5f5f3e3d5ffd5b505050506040513d601f19601f8201168201806040525081019061159c9190612258565b50915091505f5f60045f9054906101000a90046001600160a01b03166001600160a01b0316856001600160a01b0316630dfe16816040518163ffffffff1660e01b8152600401602060405180830381865afa1580156115fd573d5f5f3e3d5ffd5b505050506040513d601f19601f82011682018060405250810190611621919061204e565b6001600160a01b0316036116445750506001600160701b03818116908316611655565b50506001600160701b038083169082165b60015f6116628885612069565b61166e906103e8612069565b90505f61167b8985611ffd565b611687906103e5612069565b90505f6116948284611fc7565b90506103e86116a38583612069565b6116ad9190611fc7565b6116b79082612010565b6003546004549192506116d8916001600160a01b03918216911683306110f4565b600354604051631be4ed5760e21b8152600481018390526001600160a01b0390911690636f93b55c906024015f604051808303815f87803b15801561171b575f5ffd5b505af115801561172d573d5f5f3e3d5ffd5b5050600480546040516370a0823160e01b815230928101929092528d93506001600160a01b031691506370a0823190602401602060405180830381865afa15801561177a573d5f5f3e3d5ffd5b505050506040513d601f19601f8201168201806040525081019061179e9190611fe6565b10156117ec5760405162461bcd60e51b815260206004820152601a60248201527f5553445420496e73756666696369656e742042616c616e63652e0000000000006044820152606401610502565b50505050505050505050565b5f80546004805460055460405163e6a4390560e01b81526001600160a01b0392831693810193909352811660248301529091169063e6a4390590604401602060405180830381865afa158015611850573d5f5f3e3d5ffd5b505050506040513d601f19601f82011682018060405250810190611874919061204e565b6001600160a01b0316148061189257506008546001600160a01b0316155b1561189a5750565b6004546005546118b8916001600160a01b03908116911683306110f4565b6005546040516370a0823160e01b81523060048201525f916001600160a01b0316906370a0823190602401602060405180830381865afa1580156118fe573d5f5f3e3d5ffd5b505050506040513d601f19601f820116820180604052508101906119229190611fe6565b600554600854919250611942916001600160a01b039182169116836113be565b60085460405163cc430ced60e01b8152600481018390526001600160a01b039091169063cc430ced906024015f604051808303815f87803b158015611985575f5ffd5b505af1158015611997573d5f5f3e3d5ffd5b505050505050565b336119d17f9016d09d72d40fdae2fd8ceac6b6234c7706214fd39c1cd1e609a0528c199300546001600160a01b031690565b6001600160a01b031614610b995760405163118cdaa760e01b8152336004820152602401610502565b7f9016d09d72d40fdae2fd8ceac6b6234c7706214fd39c1cd1e609a0528c19930080546001600160a01b031981166001600160a01b03848116918217845560405192169182907f8be0079c531659141344cd1fd0a4f28419497f9722a3daafe3b4186f6b6457e0905f90a3505050565b5f807ff0c57e16840df040f15088dc2f81fe391c3923bec73e23a9662efc9c229c6a005b92915050565b611a9c611afa565b610c9f81611b1f565b611aae82611b27565b6040516001600160a01b038316907fbc7cd75a20ee27fd9adebab32041f755214dbc6bffa90cc0225b39da2e5c2d3b905f90a2805115611af2576108a38282611b8a565b6104d4611c2a565b611b02611c49565b610b9957604051631afcd79f60e31b815260040160405180910390fd5b610c6d611afa565b806001600160a01b03163b5f03611b5c57604051634c9c8ce360e01b81526001600160a01b0382166004820152602401610502565b5f51602061229a5f395f51905f5280546001600160a01b0319166001600160a01b0392909216919091179055565b60605f611b978484611c62565b9050808015611bb857505f3d1180611bb857505f846001600160a01b03163b115b15611bcd57611bc5611c75565b915050611a8e565b8015611bf757604051639996b31560e01b81526001600160a01b0385166004820152602401610502565b3d15611c0a57611c05611c8e565b611c23565b60405163d6bda27560e01b815260040160405180910390fd5b5092915050565b3415610b995760405163b398979f60e01b815260040160405180910390fd5b5f611c52611a6a565b54600160401b900460ff16919050565b5f5f5f835160208501865af49392505050565b6040513d81523d5f602083013e3d602001810160405290565b6040513d5f823e3d81fd5b6001600160a01b0381168114610c9f575f5ffd5b634e487b7160e01b5f52604160045260245ffd5b6040805190810167ffffffffffffffff81118282101715611ce457611ce4611cad565b60405290565b604051601f8201601f1916810167ffffffffffffffff81118282101715611d1357611d13611cad565b604052919050565b5f5f60408385031215611d2c575f5ffd5b8235611d3781611c99565b9150602083013567ffffffffffffffff811115611d52575f5ffd5b8301601f81018513611d62575f5ffd5b803567ffffffffffffffff811115611d7c57611d7c611cad565b611d8f601f8201601f1916602001611cea565b818152866020838501011115611da3575f5ffd5b816020840160208301375f602083830101528093505050509250929050565b5f60208284031215611dd2575f5ffd5b5035919050565b5f5f5f60608486031215611deb575f5ffd5b8335611df681611c99565b9250602084013591506040840135611e0d81611c99565b809150509250925092565b5f5f60408385031215611e29575f5ffd5b8235611e3481611c99565b946020939093013593505050565b5f60208284031215611e52575f5ffd5b8135611e5d81611c99565b9392505050565b5f5f5f60608486031215611e76575f5ffd5b8335611e8181611c99565b92506020840135611e9181611c99565b91506040840135611e0d81611c99565b602081525f82518060208401528060208501604085015e5f604082850101526040601f19601f83011684010191505092915050565b5f5f5f5f5f5f5f5f5f6101208a8c031215611eef575f5ffd5b8935611efa81611c99565b985060208a0135611f0a81611c99565b975060408a0135611f1a81611c99565b965060608a0135611f2a81611c99565b955060808a0135611f3a81611c99565b945060a08a0135611f4a81611c99565b935060c08a0135611f5a81611c99565b925060e08a0135611f6a81611c99565b91506101008a0135611f7b81611c99565b809150509295985092959850929598565b6020808252600d908201526c4f6e6c7920547265617375727960981b604082015260600190565b634e487b7160e01b5f52601160045260245ffd5b5f82611fe157634e487b7160e01b5f52601260045260245ffd5b500490565b5f60208284031215611ff6575f5ffd5b5051919050565b81810381811115611a8e57611a8e611fb3565b80820180821115611a8e57611a8e611fb3565b5f5f5f60608486031215612035575f5ffd5b5050815160208301516040909301519094929350919050565b5f6020828403121561205e575f5ffd5b8151611e5d81611c99565b8082028115828204841417611a8e57611a8e611fb3565b5f60208284031215612090575f5ffd5b815167ffffffffffffffff8111156120a6575f5ffd5b8201601f810184136120b6575f5ffd5b805167ffffffffffffffff8111156120d0576120d0611cad565b6120df60208260051b01611cea565b8082825260208201915060208360061b850101925086831115612100575f5ffd5b6020840193505b82841015612150576040848803121561211e575f5ffd5b612126611cc1565b845161213181611c99565b8152602085810151818301529083526040909401939190910190612107565b9695505050505050565b634e487b7160e01b5f52603260045260245ffd5b604081016004841061218e57634e487b7160e01b5f52602160045260245ffd5b9281526020015290565b5f602082840312156121a8575f5ffd5b81518015158114611e5d575f5ffd5b5f60a0820187835286602084015260a0604084015280865180835260c0850191506020880192505f5b818110156122075783516001600160a01b03168352602093840193909201916001016121e0565b50506001600160a01b039590951660608401525050608001529392505050565b5f82518060208501845e5f920191825250919050565b80516001600160701b0381168114612253575f5ffd5b919050565b5f5f5f6060848603121561226a575f5ffd5b6122738461223d565b92506122816020850161223d565b9150604084015163ffffffff81168114611e0d575f5ffdfe360894a13ba1a3210667c828492db98dca3e2076cc3735a920a3ca505d382bbca2646970667358221220d7eb1d0ee9b4ce9948276d119ae0bd24b70cca641c2fa36f0758b447dfbd294264736f6c634300081e0033","linkReferences":{}},"methodIdentifiers":{"UPGRADE_INTERFACE_VERSION()":"ad3cb1cc","USDT()":"c54e44eb","addLiquidity(uint256)":"51c6590a","admin()":"f851a440","claimWallet()":"43ec53fb","emergencyWithdraw(address,uint256,address)":"551512de","initialize(address,address,address,address,address,address,address,address,address)":"f5e95acb","issueAward(address,uint256)":"579d40a3","leo()":"42728ffd","nodeDividends()":"c7fb372f","owner()":"8da5cb5b","pancakeFactory()":"e0f1c9c5","pancakeRouter()":"c21ebd07","payback()":"854bec87","proxiableUUID()":"52d1902d","referrals()":"d3dc7539","remainingWallet()":"144c49dc","renounceOwnership()":"715018a6","setAddrConfig(address,address,address)":"98eb0574","setPaybackAddr(address)":"779193ea","swapTokenToUsdt(address,uint256)":"cfab164d","token()":"fc0c546a","transferOwnership(address)":"f2fde38b","treasury()":"61d027b3","upgradeToAndCall(address,bytes)":"4f1ef286"},"id":52}