{"abi":[{"type":"function","name":"UPGRADE_INTERFACE_VERSION","inputs":[],"outputs":[{"name":"","type":"string","internalType":"string"}],"stateMutability":"view"},{"type":"function","name":"USDT","inputs":[],"outputs":[{"name":"","type":"address","internalType":"address"}],"stateMutability":"view"},{"type":"function","name":"addLiquidity","inputs":[{"name":"amountUSDT","type":"uint256","internalType":"uint256"}],"outputs":[],"stateMutability":"nonpayable"},{"type":"function","name":"admin","inputs":[],"outputs":[{"name":"","type":"address","internalType":"address"}],"stateMutability":"view"},{"type":"function","name":"claimWallet","inputs":[],"outputs":[{"name":"","type":"address","internalType":"address"}],"stateMutability":"view"},{"type":"function","name":"emergencyWithdraw","inputs":[{"name":"_token","type":"address","internalType":"address"},{"name":"_amount","type":"uint256","internalType":"uint256"},{"name":"_to","type":"address","internalType":"address"}],"outputs":[],"stateMutability":"nonpayable"},{"type":"function","name":"initialize","inputs":[{"name":"_admin","type":"address","internalType":"address"},{"name":"_treasury","type":"address","internalType":"address"},{"name":"_token","type":"address","internalType":"address"},{"name":"_usdt","type":"address","internalType":"address"},{"name":"_leo","type":"address","internalType":"address"},{"name":"_referrals","type":"address","internalType":"address"},{"name":"_nodeDividends","type":"address","internalType":"address"},{"name":"_payback","type":"address","internalType":"address"},{"name":"_remainingWallet","type":"address","internalType":"address"},{"name":"_claimWallet","type":"address","internalType":"address"}],"outputs":[],"stateMutability":"nonpayable"},{"type":"function","name":"issueAward","inputs":[{"name":"user","type":"address","internalType":"address"},{"name":"reward","type":"uint256","internalType":"uint256"}],"outputs":[],"stateMutability":"nonpayable"},{"type":"function","name":"leo","inputs":[],"outputs":[{"name":"","type":"address","internalType":"address"}],"stateMutability":"view"},{"type":"function","name":"nodeDividends","inputs":[],"outputs":[{"name":"","type":"address","internalType":"address"}],"stateMutability":"view"},{"type":"function","name":"owner","inputs":[],"outputs":[{"name":"","type":"address","internalType":"address"}],"stateMutability":"view"},{"type":"function","name":"pancakeFactory","inputs":[],"outputs":[{"name":"","type":"address","internalType":"contract IUniswapV2Factory"}],"stateMutability":"view"},{"type":"function","name":"pancakeRouter","inputs":[],"outputs":[{"name":"","type":"address","internalType":"contract IUniswapV2Router02"}],"stateMutability":"view"},{"type":"function","name":"payback","inputs":[],"outputs":[{"name":"","type":"address","internalType":"address"}],"stateMutability":"view"},{"type":"function","name":"proxiableUUID","inputs":[],"outputs":[{"name":"","type":"bytes32","internalType":"bytes32"}],"stateMutability":"view"},{"type":"function","name":"referrals","inputs":[],"outputs":[{"name":"","type":"address","internalType":"address"}],"stateMutability":"view"},{"type":"function","name":"remainingWallet","inputs":[],"outputs":[{"name":"","type":"address","internalType":"address"}],"stateMutability":"view"},{"type":"function","name":"renounceOwnership","inputs":[],"outputs":[],"stateMutability":"nonpayable"},{"type":"function","name":"setAddrConfig","inputs":[{"name":"_treasury","type":"address","internalType":"address"},{"name":"_referrals","type":"address","internalType":"address"},{"name":"_nodeDividends","type":"address","internalType":"address"}],"outputs":[],"stateMutability":"nonpayable"},{"type":"function","name":"swapTokenToUsdt","inputs":[{"name":"to","type":"address","internalType":"address"},{"name":"usdtAmount","type":"uint256","internalType":"uint256"}],"outputs":[],"stateMutability":"nonpayable"},{"type":"function","name":"token","inputs":[],"outputs":[{"name":"","type":"address","internalType":"address"}],"stateMutability":"view"},{"type":"function","name":"transferOwnership","inputs":[{"name":"newOwner","type":"address","internalType":"address"}],"outputs":[],"stateMutability":"nonpayable"},{"type":"function","name":"treasury","inputs":[],"outputs":[{"name":"","type":"address","internalType":"address"}],"stateMutability":"view"},{"type":"function","name":"upgradeToAndCall","inputs":[{"name":"newImplementation","type":"address","internalType":"address"},{"name":"data","type":"bytes","internalType":"bytes"}],"outputs":[],"stateMutability":"payable"},{"type":"event","name":"Initialized","inputs":[{"name":"version","type":"uint64","indexed":false,"internalType":"uint64"}],"anonymous":false},{"type":"event","name":"OwnershipTransferred","inputs":[{"name":"previousOwner","type":"address","indexed":true,"internalType":"address"},{"name":"newOwner","type":"address","indexed":true,"internalType":"address"}],"anonymous":false},{"type":"event","name":"Upgraded","inputs":[{"name":"implementation","type":"address","indexed":true,"internalType":"address"}],"anonymous":false},{"type":"error","name":"AddressEmptyCode","inputs":[{"name":"target","type":"address","internalType":"address"}]},{"type":"error","name":"ERC1967InvalidImplementation","inputs":[{"name":"implementation","type":"address","internalType":"address"}]},{"type":"error","name":"ERC1967NonPayable","inputs":[]},{"type":"error","name":"FailedCall","inputs":[]},{"type":"error","name":"InvalidInitialization","inputs":[]},{"type":"error","name":"NotInitializing","inputs":[]},{"type":"error","name":"OwnableInvalidOwner","inputs":[{"name":"owner","type":"address","internalType":"address"}]},{"type":"error","name":"OwnableUnauthorizedAccount","inputs":[{"name":"account","type":"address","internalType":"address"}]},{"type":"error","name":"UUPSUnauthorizedCallContext","inputs":[]},{"type":"error","name":"UUPSUnsupportedProxiableUUID","inputs":[{"name":"slot","type":"bytes32","internalType":"bytes32"}]}],"bytecode":{"object":"0x60a0604052306080523480156012575f5ffd5b506080516122af6100395f395f8181610f5b01528181610f84015261134401526122af5ff3fe608060405260043610610147575f3560e01c806398eb0574116100b3578063cfab164d1161006d578063cfab164d146103c7578063d3dc7539146103e6578063e0f1c9c514610405578063f2fde38b14610423578063f851a44014610442578063fc0c546a14610461575f5ffd5b806398eb0574146102e7578063ad3cb1cc14610306578063c21ebd0714610343578063c306b3781461036a578063c54e44eb14610389578063c7fb372f146103a8575f5ffd5b8063551512de11610104578063551512de1461021b578063579d40a31461023a57806361d027b314610259578063715018a614610278578063854bec871461028c5780638da5cb5b146102ab575f5ffd5b8063144c49dc1461014b57806342728ffd1461018757806343ec53fb146101a65780634f1ef286146101c557806351c6590a146101da57806352d1902d146101f9575b5f5ffd5b348015610156575f5ffd5b5060095461016a906001600160a01b031681565b6040516001600160a01b0390911681526020015b60405180910390f35b348015610192575f5ffd5b5060055461016a906001600160a01b031681565b3480156101b1575f5ffd5b50600a5461016a906001600160a01b031681565b6101d86101d3366004611cd0565b610480565b005b3480156101e5575f5ffd5b506101d86101f4366004611d77565b61049f565b348015610204575f5ffd5b5061020d610732565b60405190815260200161017e565b348015610226575f5ffd5b506101d8610235366004611d8e565b61074d565b348015610245575f5ffd5b506101d8610254366004611dcd565b61086f565b348015610264575f5ffd5b5060025461016a906001600160a01b031681565b348015610283575f5ffd5b506101d8610b4f565b348015610297575f5ffd5b5060085461016a906001600160a01b031681565b3480156102b6575f5ffd5b507f9016d09d72d40fdae2fd8ceac6b6234c7706214fd39c1cd1e609a0528c199300546001600160a01b031661016a565b3480156102f2575f5ffd5b506101d8610301366004611df7565b610b62565b348015610311575f5ffd5b50610336604051806040016040528060058152602001640352e302e360dc1b81525081565b60405161017e9190611e34565b34801561034e575f5ffd5b5061016a7310ed43c718714eb63d5aa57b78b54704e256024e81565b348015610375575f5ffd5b506101d8610384366004611e69565b610ba9565b348015610394575f5ffd5b5060045461016a906001600160a01b031681565b3480156103b3575f5ffd5b5060075461016a906001600160a01b031681565b3480156103d2575f5ffd5b506101d86103e1366004611dcd565b610eba565b3480156103f1575f5ffd5b5060065461016a906001600160a01b031681565b348015610410575f5ffd5b505f5461016a906001600160a01b031681565b34801561042e575f5ffd5b506101d861043d366004611f2f565b610f13565b34801561044d575f5ffd5b5060015461016a906001600160a01b031681565b34801561046c575f5ffd5b5060035461016a906001600160a01b031681565b610488610f50565b61049182610ff4565b61049b8282610ffc565b5050565b6002546001600160a01b031633146104d25760405162461bcd60e51b81526004016104c990611f51565b60405180910390fd5b5f6104de600283611f8c565b6003546040516370a0823160e01b81523060048201529192505f916001600160a01b03909116906370a0823190602401602060405180830381865afa158015610529573d5f5f3e3d5ffd5b505050506040513d601f19601f8201168201806040525081019061054d9190611fab565b60045460035491925061056e916001600160a01b03918216911684306110b8565b6003546040516370a0823160e01b81523060048201525f916001600160a01b0316906370a0823190602401602060405180830381865afa1580156105b4573d5f5f3e3d5ffd5b505050506040513d601f19601f820116820180604052508101906105d89190611fab565b90505f6105e58486611fc2565b90505f6105f28484611fc2565b600454909150610620906001600160a01b03167310ed43c718714eb63d5aa57b78b54704e256024e84611223565b60035461064b906001600160a01b03167310ed43c718714eb63d5aa57b78b54704e256024e83611223565b6004546003547310ed43c718714eb63d5aa57b78b54704e256024e9163e8e33700916001600160a01b03918216911685855f803061068a42601e611fd5565b60405160e08a901b6001600160e01b03191681526001600160a01b039889166004820152968816602488015260448701959095526064860193909352608485019190915260a484015290921660c482015260e4810191909152610104016060604051808303815f875af1158015610703573d5f5f3e3d5ffd5b505050506040513d601f19601f820116820180604052508101906107279190611fe8565b505050505050505050565b5f61073b611339565b505f51602061225a5f395f51905f5290565b6001546001600160a01b031633146107945760405162461bcd60e51b815260206004820152600a602482015269139bdd081c195c9b5a5d60b21b60448201526064016104c9565b60035f9054906101000a90046001600160a01b03166001600160a01b031663b8c9d25c6040518163ffffffff1660e01b8152600401602060405180830381865afa1580156107e4573d5f5f3e3d5ffd5b505050506040513d601f19601f820116820180604052508101906108089190612013565b6001600160a01b0316836001600160a01b03160361085f5760405162461bcd60e51b81526020600482015260146024820152732a37b5b2b71030b2323932b9b99032b93937b91760611b60448201526064016104c9565b61086a838284611382565b505050565b6002546001600160a01b031633146108995760405162461bcd60e51b81526004016104c990611f51565b801561049b575f60646108ad83603c61202e565b6108b79190611f8c565b90505f60646108c784602361202e565b6108d19190611f8c565b90505f6103e86108e285600f61202e565b6108ec9190611f8c565b90505f60646108fc86600261202e565b6109069190611f8c565b90505f818385610916888a611fc2565b6109209190611fc2565b61092a9190611fc2565b6109349190611fc2565b90505f61094087611491565b851561095d5760045461095d906001600160a01b03168988611382565b8415610a6157600654604051637ab0437360e01b81526001600160a01b038a81166004830152602482018890525f921690637ab04373906044015f60405180830381865afa1580156109b1573d5f5f3e3d5ffd5b505050506040513d5f823e601f3d908101601f191682016040526109d89190810190612045565b90505f5b8151811015610a5e575f8282815181106109f8576109f861211f565b60200260200101516020015190505f811115610a5557610a188185611fd5565b9350610a5560045f9054906101000a90046001600160a01b0316848481518110610a4457610a4461211f565b60200260200101515f015183611382565b506001016109dc565b50505b8315610ae557600454600754610a84916001600160a01b03908116911686611382565b6007546040516315f5e8d760e31b81526001600160a01b039091169063afaf46b890610ab7906003908890600401612133565b5f604051808303815f87803b158015610ace575f5ffd5b505af1158015610ae0573d5f5f3e3d5ffd5b505050505b8215610af457610af4836117bc565b8115610b1757600454600a54610b17916001600160a01b03908116911684611382565b84811015610b4557600454600954610b45916001600160a01b039081169116610b408489611fc2565b611382565b5050505050505050565b610b57611944565b610b605f61199f565b565b610b6a611944565b600280546001600160a01b039485166001600160a01b031991821617909155600680549385169382169390931790925560078054919093169116179055565b5f610bb2611a0f565b805490915060ff600160401b820416159067ffffffffffffffff165f81158015610bd95750825b90505f8267ffffffffffffffff166001148015610bf55750303b155b905081158015610c03575080155b15610c215760405163f92ee8a960e01b815260040160405180910390fd5b845467ffffffffffffffff191660011785558315610c4b57845460ff60401b1916600160401b1785555b610c5433611a39565b8e60015f6101000a8154816001600160a01b0302191690836001600160a01b031602179055508d60025f6101000a8154816001600160a01b0302191690836001600160a01b031602179055508c60035f6101000a8154816001600160a01b0302191690836001600160a01b031602179055508b60045f6101000a8154816001600160a01b0302191690836001600160a01b031602179055508a60055f6101000a8154816001600160a01b0302191690836001600160a01b031602179055508960065f6101000a8154816001600160a01b0302191690836001600160a01b031602179055508860075f6101000a8154816001600160a01b0302191690836001600160a01b031602179055508760085f6101000a8154816001600160a01b0302191690836001600160a01b031602179055508660095f6101000a8154816001600160a01b0302191690836001600160a01b0316021790555085600a5f6101000a8154816001600160a01b0302191690836001600160a01b031602179055507310ed43c718714eb63d5aa57b78b54704e256024e6001600160a01b031663c45a01556040518163ffffffff1660e01b8152600401602060405180830381865afa158015610e20573d5f5f3e3d5ffd5b505050506040513d601f19601f82011682018060405250810190610e449190612013565b5f80546001600160a01b0319166001600160a01b03929092169190911790558315610ea957845460ff60401b19168555604051600181527fc7f505b2f371ae2175ee4913f4499e1f2633a7b5936321eed1cdaeb6115181d29060200160405180910390a15b505050505050505050505050505050565b6002546001600160a01b03163314610ee45760405162461bcd60e51b81526004016104c990611f51565b610eed81611491565b6001600160a01b0382161561049b5760045461049b906001600160a01b03168383611382565b610f1b611944565b6001600160a01b038116610f4457604051631e4fbdf760e01b81525f60048201526024016104c9565b610f4d8161199f565b50565b306001600160a01b037f0000000000000000000000000000000000000000000000000000000000000000161480610fd657507f00000000000000000000000000000000000000000000000000000000000000006001600160a01b0316610fca5f51602061225a5f395f51905f52546001600160a01b031690565b6001600160a01b031614155b15610b605760405163703e46dd60e11b815260040160405180910390fd5b610f4d611944565b816001600160a01b03166352d1902d6040518163ffffffff1660e01b8152600401602060405180830381865afa925050508015611056575060408051601f3d908101601f1916820190925261105391810190611fab565b60015b61107e57604051634c9c8ce360e01b81526001600160a01b03831660048201526024016104c9565b5f51602061225a5f395f51905f5281146110ae57604051632a87526960e21b8152600481018290526024016104c9565b61086a8383611a4a565b6040805160028082526060820183525f9260208301908036833701905050905084815f815181106110eb576110eb61211f565b60200260200101906001600160a01b031690816001600160a01b031681525050838160018151811061111f5761111f61211f565b6001600160a01b03928316602091820292909201015260405163095ea7b360e01b81527310ed43c718714eb63d5aa57b78b54704e256024e6004820152602481018590529086169063095ea7b3906044016020604051808303815f875af115801561118c573d5f5f3e3d5ffd5b505050506040513d601f19601f820116820180604052508101906111b0919061215d565b507310ed43c718714eb63d5aa57b78b54704e256024e635c11d795845f84866111da42601e611fd5565b6040518663ffffffff1660e01b81526004016111fa95949392919061217c565b5f604051808303815f87803b158015611211575f5ffd5b505af1158015610727573d5f5f3e3d5ffd5b604080516001600160a01b038481166024830152604480830185905283518084039091018152606490920183526020820180516001600160e01b031663095ea7b360e01b17905291515f9283929087169161127e91906121ec565b5f604051808303815f865af19150503d805f81146112b7576040519150601f19603f3d011682016040523d82523d5f602084013e6112bc565b606091505b50915091508180156112e65750805115806112e65750808060200190518101906112e6919061215d565b6113325760405162461bcd60e51b815260206004820152601e60248201527f5472616e7366657248656c7065723a20415050524f56455f4641494c4544000060448201526064016104c9565b5050505050565b306001600160a01b037f00000000000000000000000000000000000000000000000000000000000000001614610b605760405163703e46dd60e11b815260040160405180910390fd5b604080516001600160a01b038481166024830152604480830185905283518084039091018152606490920183526020820180516001600160e01b031663a9059cbb60e01b17905291515f928392908716916113dd91906121ec565b5f604051808303815f865af19150503d805f8114611416576040519150601f19603f3d011682016040523d82523d5f602084013e61141b565b606091505b5091509150818015611445575080511580611445575080806020019051810190611445919061215d565b6113325760405162461bcd60e51b815260206004820152601f60248201527f5472616e7366657248656c7065723a205452414e534645525f4641494c45440060448201526064016104c9565b60035460408051632e32749760e21b815290515f926001600160a01b03169163b8c9d25c9160048083019260209291908290030181865afa1580156114d8573d5f5f3e3d5ffd5b505050506040513d601f19601f820116820180604052508101906114fc9190612013565b90505f5f826001600160a01b0316630902f1ac6040518163ffffffff1660e01b8152600401606060405180830381865afa15801561153c573d5f5f3e3d5ffd5b505050506040513d601f19601f820116820180604052508101906115609190612218565b50915091505f5f60045f9054906101000a90046001600160a01b03166001600160a01b0316856001600160a01b0316630dfe16816040518163ffffffff1660e01b8152600401602060405180830381865afa1580156115c1573d5f5f3e3d5ffd5b505050506040513d601f19601f820116820180604052508101906115e59190612013565b6001600160a01b0316036116085750506001600160701b03818116908316611619565b50506001600160701b038083169082165b60015f611626888561202e565b611632906103e861202e565b90505f61163f8985611fc2565b61164b906103e561202e565b90505f6116588284611f8c565b90506103e8611667858361202e565b6116719190611f8c565b61167b9082611fd5565b60035460045491925061169c916001600160a01b03918216911683306110b8565b600354604051631be4ed5760e21b8152600481018390526001600160a01b0390911690636f93b55c906024015f604051808303815f87803b1580156116df575f5ffd5b505af11580156116f1573d5f5f3e3d5ffd5b5050600480546040516370a0823160e01b815230928101929092528d93506001600160a01b031691506370a0823190602401602060405180830381865afa15801561173e573d5f5f3e3d5ffd5b505050506040513d601f19601f820116820180604052508101906117629190611fab565b10156117b05760405162461bcd60e51b815260206004820152601a60248201527f5553445420496e73756666696369656e742042616c616e63652e00000000000060448201526064016104c9565b50505050505050505050565b5f80546004805460055460405163e6a4390560e01b81526001600160a01b0392831693810193909352811660248301529091169063e6a4390590604401602060405180830381865afa158015611814573d5f5f3e3d5ffd5b505050506040513d601f19601f820116820180604052508101906118389190612013565b6001600160a01b0316148061185657506008546001600160a01b0316155b1561185e5750565b60045460055461187c916001600160a01b03908116911683306110b8565b6005546040516370a0823160e01b81523060048201525f916001600160a01b0316906370a0823190602401602060405180830381865afa1580156118c2573d5f5f3e3d5ffd5b505050506040513d601f19601f820116820180604052508101906118e69190611fab565b60085460405163cc430ced60e01b8152600481018390529192506001600160a01b03169063cc430ced906024015f604051808303815f87803b15801561192a575f5ffd5b505af115801561193c573d5f5f3e3d5ffd5b505050505050565b336119767f9016d09d72d40fdae2fd8ceac6b6234c7706214fd39c1cd1e609a0528c199300546001600160a01b031690565b6001600160a01b031614610b605760405163118cdaa760e01b81523360048201526024016104c9565b7f9016d09d72d40fdae2fd8ceac6b6234c7706214fd39c1cd1e609a0528c19930080546001600160a01b031981166001600160a01b03848116918217845560405192169182907f8be0079c531659141344cd1fd0a4f28419497f9722a3daafe3b4186f6b6457e0905f90a3505050565b5f807ff0c57e16840df040f15088dc2f81fe391c3923bec73e23a9662efc9c229c6a005b92915050565b611a41611a9f565b610f4d81611ac4565b611a5382611acc565b6040516001600160a01b038316907fbc7cd75a20ee27fd9adebab32041f755214dbc6bffa90cc0225b39da2e5c2d3b905f90a2805115611a975761086a8282611b2f565b61049b611bcf565b611aa7611bee565b610b6057604051631afcd79f60e31b815260040160405180910390fd5b610f1b611a9f565b806001600160a01b03163b5f03611b0157604051634c9c8ce360e01b81526001600160a01b03821660048201526024016104c9565b5f51602061225a5f395f51905f5280546001600160a01b0319166001600160a01b0392909216919091179055565b60605f611b3c8484611c07565b9050808015611b5d57505f3d1180611b5d57505f846001600160a01b03163b115b15611b7257611b6a611c1a565b915050611a33565b8015611b9c57604051639996b31560e01b81526001600160a01b03851660048201526024016104c9565b3d15611baf57611baa611c33565b611bc8565b60405163d6bda27560e01b815260040160405180910390fd5b5092915050565b3415610b605760405163b398979f60e01b815260040160405180910390fd5b5f611bf7611a0f565b54600160401b900460ff16919050565b5f5f5f835160208501865af49392505050565b6040513d81523d5f602083013e3d602001810160405290565b6040513d5f823e3d81fd5b6001600160a01b0381168114610f4d575f5ffd5b8035611c5d81611c3e565b919050565b634e487b7160e01b5f52604160045260245ffd5b6040805190810167ffffffffffffffff81118282101715611c9957611c99611c62565b60405290565b604051601f8201601f1916810167ffffffffffffffff81118282101715611cc857611cc8611c62565b604052919050565b5f5f60408385031215611ce1575f5ffd5b8235611cec81611c3e565b9150602083013567ffffffffffffffff811115611d07575f5ffd5b8301601f81018513611d17575f5ffd5b803567ffffffffffffffff811115611d3157611d31611c62565b611d44601f8201601f1916602001611c9f565b818152866020838501011115611d58575f5ffd5b816020840160208301375f602083830101528093505050509250929050565b5f60208284031215611d87575f5ffd5b5035919050565b5f5f5f60608486031215611da0575f5ffd5b8335611dab81611c3e565b9250602084013591506040840135611dc281611c3e565b809150509250925092565b5f5f60408385031215611dde575f5ffd5b8235611de981611c3e565b946020939093013593505050565b5f5f5f60608486031215611e09575f5ffd5b8335611e1481611c3e565b92506020840135611e2481611c3e565b91506040840135611dc281611c3e565b602081525f82518060208401528060208501604085015e5f604082850101526040601f19601f83011684010191505092915050565b5f5f5f5f5f5f5f5f5f5f6101408b8d031215611e83575f5ffd5b8a35611e8e81611c3e565b995060208b0135611e9e81611c3e565b985060408b0135611eae81611c3e565b975060608b0135611ebe81611c3e565b965060808b0135611ece81611c3e565b955060a08b0135611ede81611c3e565b945060c08b0135611eee81611c3e565b935060e08b0135611efe81611c3e565b92506101008b0135611f0f81611c3e565b9150611f1e6101208c01611c52565b90509295989b9194979a5092959850565b5f60208284031215611f3f575f5ffd5b8135611f4a81611c3e565b9392505050565b6020808252600d908201526c4f6e6c7920547265617375727960981b604082015260600190565b634e487b7160e01b5f52601160045260245ffd5b5f82611fa657634e487b7160e01b5f52601260045260245ffd5b500490565b5f60208284031215611fbb575f5ffd5b5051919050565b81810381811115611a3357611a33611f78565b80820180821115611a3357611a33611f78565b5f5f5f60608486031215611ffa575f5ffd5b5050815160208301516040909301519094929350919050565b5f60208284031215612023575f5ffd5b8151611f4a81611c3e565b8082028115828204841417611a3357611a33611f78565b5f60208284031215612055575f5ffd5b815167ffffffffffffffff81111561206b575f5ffd5b8201601f8101841361207b575f5ffd5b805167ffffffffffffffff81111561209557612095611c62565b6120a460208260051b01611c9f565b8082825260208201915060208360061b8501019250868311156120c5575f5ffd5b6020840193505b8284101561211557604084880312156120e3575f5ffd5b6120eb611c76565b84516120f681611c3e565b81526020858101518183015290835260409094019391909101906120cc565b9695505050505050565b634e487b7160e01b5f52603260045260245ffd5b604081016004841061215357634e487b7160e01b5f52602160045260245ffd5b9281526020015290565b5f6020828403121561216d575f5ffd5b81518015158114611f4a575f5ffd5b5f60a0820187835286602084015260a0604084015280865180835260c0850191506020880192505f5b818110156121cc5783516001600160a01b03168352602093840193909201916001016121a5565b50506001600160a01b039590951660608401525050608001529392505050565b5f82518060208501845e5f920191825250919050565b80516001600160701b0381168114611c5d575f5ffd5b5f5f5f6060848603121561222a575f5ffd5b61223384612202565b925061224160208501612202565b9150604084015163ffffffff81168114611dc2575f5ffdfe360894a13ba1a3210667c828492db98dca3e2076cc3735a920a3ca505d382bbca264697066735822122010214f3f1540f531762d2fe42b4fb38548aae09b69b520d4bdfda3490829d3fa64736f6c634300081e0033","linkReferences":{}},"methodIdentifiers":{"UPGRADE_INTERFACE_VERSION()":"ad3cb1cc","USDT()":"c54e44eb","addLiquidity(uint256)":"51c6590a","admin()":"f851a440","claimWallet()":"43ec53fb","emergencyWithdraw(address,uint256,address)":"551512de","initialize(address,address,address,address,address,address,address,address,address,address)":"c306b378","issueAward(address,uint256)":"579d40a3","leo()":"42728ffd","nodeDividends()":"c7fb372f","owner()":"8da5cb5b","pancakeFactory()":"e0f1c9c5","pancakeRouter()":"c21ebd07","payback()":"854bec87","proxiableUUID()":"52d1902d","referrals()":"d3dc7539","remainingWallet()":"144c49dc","renounceOwnership()":"715018a6","setAddrConfig(address,address,address)":"98eb0574","swapTokenToUsdt(address,uint256)":"cfab164d","token()":"fc0c546a","transferOwnership(address)":"f2fde38b","treasury()":"61d027b3","upgradeToAndCall(address,bytes)":"4f1ef286"},"id":15}