{"abi":[{"type":"function","name":"UPGRADE_INTERFACE_VERSION","inputs":[],"outputs":[{"name":"","type":"string","internalType":"string"}],"stateMutability":"view"},{"type":"function","name":"USDT","inputs":[],"outputs":[{"name":"","type":"address","internalType":"address"}],"stateMutability":"view"},{"type":"function","name":"addLiquidity","inputs":[{"name":"amountUSDT","type":"uint256","internalType":"uint256"}],"outputs":[],"stateMutability":"nonpayable"},{"type":"function","name":"admin","inputs":[],"outputs":[{"name":"","type":"address","internalType":"address"}],"stateMutability":"view"},{"type":"function","name":"claimWallet","inputs":[],"outputs":[{"name":"","type":"address","internalType":"address"}],"stateMutability":"view"},{"type":"function","name":"emergencyWithdraw","inputs":[{"name":"_token","type":"address","internalType":"address"},{"name":"_amount","type":"uint256","internalType":"uint256"},{"name":"_to","type":"address","internalType":"address"}],"outputs":[],"stateMutability":"nonpayable"},{"type":"function","name":"initialize","inputs":[{"name":"_admin","type":"address","internalType":"address"},{"name":"_treasury","type":"address","internalType":"address"},{"name":"_token","type":"address","internalType":"address"},{"name":"_usdt","type":"address","internalType":"address"},{"name":"_leo","type":"address","internalType":"address"},{"name":"_referrals","type":"address","internalType":"address"},{"name":"_nodeDividends","type":"address","internalType":"address"},{"name":"_remainingWallet","type":"address","internalType":"address"},{"name":"_claimWallet","type":"address","internalType":"address"}],"outputs":[],"stateMutability":"nonpayable"},{"type":"function","name":"issueAward","inputs":[{"name":"user","type":"address","internalType":"address"},{"name":"reward","type":"uint256","internalType":"uint256"}],"outputs":[],"stateMutability":"nonpayable"},{"type":"function","name":"leo","inputs":[],"outputs":[{"name":"","type":"address","internalType":"address"}],"stateMutability":"view"},{"type":"function","name":"nodeDividends","inputs":[],"outputs":[{"name":"","type":"address","internalType":"address"}],"stateMutability":"view"},{"type":"function","name":"owner","inputs":[],"outputs":[{"name":"","type":"address","internalType":"address"}],"stateMutability":"view"},{"type":"function","name":"pancakeFactory","inputs":[],"outputs":[{"name":"","type":"address","internalType":"contract IUniswapV2Factory"}],"stateMutability":"view"},{"type":"function","name":"pancakeRouter","inputs":[],"outputs":[{"name":"","type":"address","internalType":"contract IUniswapV2Router02"}],"stateMutability":"view"},{"type":"function","name":"payback","inputs":[],"outputs":[{"name":"","type":"address","internalType":"address"}],"stateMutability":"view"},{"type":"function","name":"proxiableUUID","inputs":[],"outputs":[{"name":"","type":"bytes32","internalType":"bytes32"}],"stateMutability":"view"},{"type":"function","name":"referrals","inputs":[],"outputs":[{"name":"","type":"address","internalType":"address"}],"stateMutability":"view"},{"type":"function","name":"remainingWallet","inputs":[],"outputs":[{"name":"","type":"address","internalType":"address"}],"stateMutability":"view"},{"type":"function","name":"renounceOwnership","inputs":[],"outputs":[],"stateMutability":"nonpayable"},{"type":"function","name":"setAddrConfig","inputs":[{"name":"_treasury","type":"address","internalType":"address"},{"name":"_referrals","type":"address","internalType":"address"},{"name":"_nodeDividends","type":"address","internalType":"address"}],"outputs":[],"stateMutability":"nonpayable"},{"type":"function","name":"setPaybackAddr","inputs":[{"name":"_payback","type":"address","internalType":"address"}],"outputs":[],"stateMutability":"nonpayable"},{"type":"function","name":"swapTokenToUsdt","inputs":[{"name":"to","type":"address","internalType":"address"},{"name":"usdtAmount","type":"uint256","internalType":"uint256"}],"outputs":[],"stateMutability":"nonpayable"},{"type":"function","name":"token","inputs":[],"outputs":[{"name":"","type":"address","internalType":"address"}],"stateMutability":"view"},{"type":"function","name":"transferOwnership","inputs":[{"name":"newOwner","type":"address","internalType":"address"}],"outputs":[],"stateMutability":"nonpayable"},{"type":"function","name":"treasury","inputs":[],"outputs":[{"name":"","type":"address","internalType":"address"}],"stateMutability":"view"},{"type":"function","name":"upgradeToAndCall","inputs":[{"name":"newImplementation","type":"address","internalType":"address"},{"name":"data","type":"bytes","internalType":"bytes"}],"outputs":[],"stateMutability":"payable"},{"type":"event","name":"Initialized","inputs":[{"name":"version","type":"uint64","indexed":false,"internalType":"uint64"}],"anonymous":false},{"type":"event","name":"OwnershipTransferred","inputs":[{"name":"previousOwner","type":"address","indexed":true,"internalType":"address"},{"name":"newOwner","type":"address","indexed":true,"internalType":"address"}],"anonymous":false},{"type":"event","name":"Upgraded","inputs":[{"name":"implementation","type":"address","indexed":true,"internalType":"address"}],"anonymous":false},{"type":"error","name":"AddressEmptyCode","inputs":[{"name":"target","type":"address","internalType":"address"}]},{"type":"error","name":"ERC1967InvalidImplementation","inputs":[{"name":"implementation","type":"address","internalType":"address"}]},{"type":"error","name":"ERC1967NonPayable","inputs":[]},{"type":"error","name":"FailedCall","inputs":[]},{"type":"error","name":"InvalidInitialization","inputs":[]},{"type":"error","name":"NotInitializing","inputs":[]},{"type":"error","name":"OwnableInvalidOwner","inputs":[{"name":"owner","type":"address","internalType":"address"}]},{"type":"error","name":"OwnableUnauthorizedAccount","inputs":[{"name":"account","type":"address","internalType":"address"}]},{"type":"error","name":"UUPSUnauthorizedCallContext","inputs":[]},{"type":"error","name":"UUPSUnsupportedProxiableUUID","inputs":[{"name":"slot","type":"bytes32","internalType":"bytes32"}]}],"bytecode":{"object":"0x60a0806040523460295730608052611d1f908161002e82396080518181816109930152610c8c0152f35b5f80fdfe6080806040526004361015610012575f80fd5b5f3560e01c908163144c49dc14610e585750806342728ffd14610e3057806343ec53fb14610e085780634f1ef28614610c1457806351c6590a146109e757806352d1902d14610981578063551512de1461084f578063579d40a31461081557806361d027b3146107ed578063715018a614610786578063779193ea14610743578063854bec871461071b5780638da5cb5b146106e757806398eb057414610675578063ad3cb1cc14610617578063c21ebd07146105e9578063c54e44eb146105c1578063c7fb372f14610599578063cfab164d14610539578063d3dc753914610511578063e0f1c9c5146104ea578063f2fde38b146104bf578063f5e95acb14610183578063f851a4401461015b5763fc0c546a1461012f575f80fd5b34610157575f366003190112610157576003546040516001600160a01b039091168152602090f35b5f80fd5b34610157575f366003190112610157576001546040516001600160a01b039091168152602090f35b34610157576101203660031901126101575761019d610e7b565b6101a5610ea7565b6101ad610e91565b6064356001600160a01b03811690819003610157576084356001600160a01b038116908190036101575760a4356001600160a01b03811691908290036101575760c4356001600160a01b03811693908490036101575760e4356001600160a01b038116959086900361015757610104356001600160a01b0381169790889003610157575f516020611cca5f395f51905f52549860ff8a60401c16159967ffffffffffffffff8116801590816104b7575b60011490816104ad575b1590816104a4575b506104955767ffffffffffffffff1981166001175f516020611cca5f395f51905f52558a610469575b506102a1611bd2565b6102a9611bd2565b6102b2336112d1565b60018060a01b03166001600160601b0360a01b600154161760015560018060a01b03166001600160601b0360a01b600254161760025560018060a01b03166001600160601b0360a01b60035416176003556001600160601b0360a01b60045416176004556001600160601b0360a01b60055416176005556001600160601b0360a01b60065416176006556001600160601b0360a01b60075416176007556001600160601b0360a01b60095416176009556001600160601b0360a01b600a541617600a5560405163c45a015560e01b81526020816004817310ed43c718714eb63d5aa57b78b54704e256024e5afa90811561045e575f91610424575b5060018060a01b03166001600160601b0360a01b5f5416175f556103cd57005b68ff0000000000000000195f516020611cca5f395f51905f5254165f516020611cca5f395f51905f52557fc7f505b2f371ae2175ee4913f4499e1f2633a7b5936321eed1cdaeb6115181d2602060405160018152a1005b90506020813d602011610456575b8161043f60209383610ebd565b810103126101575761045090610f65565b826103ad565b3d9150610432565b6040513d5f823e3d90fd5b68ffffffffffffffffff191668010000000000000001175f516020611cca5f395f51905f52558a610298565b63f92ee8a960e01b5f5260045ffd5b9050158c61026f565b303b159150610267565b8c915061025d565b34610157576020366003190112610157576104e86104db610e7b565b6104e3611b9f565b6112d1565b005b34610157575f366003190112610157575f546040516001600160a01b039091168152602090f35b34610157575f366003190112610157576006546040516001600160a01b039091168152602090f35b3461015757604036600319011261015757610552610e7b565b60243561056a60018060a01b03600254163314610f0f565b610573816116db565b6001600160a01b03821661058357005b6004546104e892906001600160a01b03166115f8565b34610157575f366003190112610157576007546040516001600160a01b039091168152602090f35b34610157575f366003190112610157576004546040516001600160a01b039091168152602090f35b34610157575f3660031901126101575760206040517310ed43c718714eb63d5aa57b78b54704e256024e8152f35b34610157575f3660031901126101575760408051906106368183610ebd565b600582526020820191640352e302e360dc1b83528151928391602083525180918160208501528484015e5f828201840152601f01601f19168101030190f35b346101575760603660031901126101575761068e610e7b565b610696610ea7565b61069e610e91565b916106a7611b9f565b600280546001600160a01b03199081166001600160a01b039384161790915560068054821693831693909317909255600780549092169216919091179055005b34610157575f366003190112610157575f516020611c8a5f395f51905f52546040516001600160a01b039091168152602090f35b34610157575f366003190112610157576008546040516001600160a01b039091168152602090f35b346101575760203660031901126101575761075c610e7b565b610764611b9f565b600880546001600160a01b0319166001600160a01b0392909216919091179055005b34610157575f3660031901126101575761079e611b9f565b5f516020611c8a5f395f51905f5280546001600160a01b031981169091555f906001600160a01b03167f8be0079c531659141344cd1fd0a4f28419497f9722a3daafe3b4186f6b6457e08280a3005b34610157575f366003190112610157576002546040516001600160a01b039091168152602090f35b34610157576040366003190112610157576104e8610831610e7b565b61084660018060a01b03600254163314610f0f565b60243590610fa1565b3461015757606036600319011261015757610868610e7b565b610870610e91565b6001549091906001600160a01b0316330361094f57600354604051632e32749760e21b815290602090829060049082906001600160a01b03165afa90811561045e575f91610915575b506001600160a01b038281169116146108d9576104e891602435916115f8565b60405162461bcd60e51b81526020600482015260146024820152732a37b5b2b71030b2323932b9b99032b93937b91760611b6044820152606490fd5b90506020813d602011610947575b8161093060209383610ebd565b810103126101575761094190610f65565b836108b9565b3d9150610923565b60405162461bcd60e51b815260206004820152600a602482015269139bdd081c195c9b5a5d60b21b6044820152606490fd5b34610157575f366003190112610157577f00000000000000000000000000000000000000000000000000000000000000006001600160a01b031630036109d85760206040515f516020611caa5f395f51905f528152f35b63703e46dd60e11b5f5260045ffd5b3461015757602036600319011261015757600435610a1060018060a01b03600254163314610f0f565b6003546040516370a0823160e01b81523060048201526001600160a01b0390911690600183901c602082602481865afa91821561045e575f92610bdc575b50600454602493610a6b91309184916001600160a01b031661135a565b6003546040516370a0823160e01b81523060048201529360209185919082906001600160a01b03165afa92831561045e575f93610ba6575b50610ab290610ab89394610f4b565b92610f4b565b90610acd8160018060a01b0360045416611524565b600354610ae49083906001600160a01b0316611524565b60018060a01b03600454169160018060a01b036003541691601e420192834211610b92576040519462e8e33760e81b865260048601526024850152604484015260648301525f60848301525f60a48301523060c483015260e4820152606081610104815f7310ed43c718714eb63d5aa57b78b54704e256024e5af1801561045e57610b6b57005b606090813d8311610b8b575b610b818183610ebd565b8101031261015757005b503d610b77565b634e487b7160e01b5f52601160045260245ffd5b9092506020813d602011610bd4575b81610bc260209383610ebd565b81010312610157575191610ab2610aa3565b3d9150610bb5565b9291506020833d602011610c0c575b81610bf860209383610ebd565b810103126101575791519091610a6b610a4e565b3d9150610beb565b604036600319011261015757610c28610e7b565b6024359067ffffffffffffffff82116101575736602383011215610157578160040135610c5481610ef3565b92610c626040519485610ebd565b818452366024838301011161015757815f9260246020930183870137840101526001600160a01b037f000000000000000000000000000000000000000000000000000000000000000016308114908115610de6575b506109d857610cc4611b9f565b6040516352d1902d60e01b81526001600160a01b0382169290602081600481875afa5f9181610db2575b50610d065783634c9c8ce360e01b5f5260045260245ffd5b805f516020611caa5f395f51905f52859203610da05750823b15610d8e575f516020611caa5f395f51905f5280546001600160a01b031916821790557fbc7cd75a20ee27fd9adebab32041f755214dbc6bffa90cc0225b39da2e5c2d3b5f80a2805115610d76576104e891611bfd565b505034610d7f57005b63b398979f60e01b5f5260045ffd5b634c9c8ce360e01b5f5260045260245ffd5b632a87526960e21b5f5260045260245ffd5b9091506020813d602011610dde575b81610dce60209383610ebd565b8101031261015757519085610cee565b3d9150610dc1565b5f516020611caa5f395f51905f52546001600160a01b03161415905083610cb7565b34610157575f36600319011261015757600a546040516001600160a01b039091168152602090f35b34610157575f366003190112610157576005546040516001600160a01b039091168152602090f35b34610157575f366003190112610157576009546001600160a01b03168152602090f35b600435906001600160a01b038216820361015757565b604435906001600160a01b038216820361015757565b602435906001600160a01b038216820361015757565b90601f8019910116810190811067ffffffffffffffff821117610edf57604052565b634e487b7160e01b5f52604160045260245ffd5b67ffffffffffffffff8111610edf57601f01601f191660200190565b15610f1657565b60405162461bcd60e51b815260206004820152600d60248201526c4f6e6c7920547265617375727960981b6044820152606490fd5b91908203918211610b9257565b91908201809211610b9257565b51906001600160a01b038216820361015757565b8051821015610f8d5760209160051b010190565b634e487b7160e01b5f52603260045260245ffd5b9080156112cd57603c8102818104603c03610b92576064900460238202828104602303610b92576064900492600f8302838104600f03610b92576103e890048360011b848104600203610b9257606490049161100e83611009846110098a6110098a8c610f4b565b610f4b565b936110195f966116db565b806112af575b5085611118575b50806110a5575b5080611096575b5080611073575b50818110611047575050565b600454600954611071936001600160a01b0392831693929091169161106b91610f4b565b916115f8565b565b600454600a5461109092916001600160a01b0391821691166115f8565b5f61103b565b61109f90611a15565b5f611034565b6004546007546110c39183916001600160a01b0390811691166115f8565b6007546001600160a01b031690813b15610157575f916044839260405194859384926315f5e8d760e31b84526003600485015260248401525af1801561045e571561102d575f61111291610ebd565b5f61102d565b600654604051637ab0437360e01b81526001600160a01b03928316600482015260248101889052929692949293915f9186916044918391165afa93841561045e575f946111d1575b505f5b84518110156111c55760206111788287610f79565b5101518061118a575b50600101611163565b95906111bf61119b88600194610f58565b97838060a01b0360045416848060a01b036111b6858b610f79565b515116906115f8565b90611181565b5091949092505f611026565b9093503d805f833e6111e38183610ebd565b8101906020818303126101575780519067ffffffffffffffff8211610157570181601f820112156101575780519067ffffffffffffffff8211610edf5760208260051b01926112356040519485610ebd565b82845260208085019360061b8301019181831161015757602001925b8284106112635750505050925f611160565b6040848303126101575760405190604082019082821067ffffffffffffffff831117610edf57604092602092845261129a87610f65565b81528287015183820152815201930192611251565b6004546112c7919083906001600160a01b03166115f8565b5f61101f565b5050565b6001600160a01b0316801561132f575f516020611c8a5f395f51905f5280546001600160a01b0319811683179091556001600160a01b03167f8be0079c531659141344cd1fd0a4f28419497f9722a3daafe3b4186f6b6457e05f80a3565b631e4fbdf760e01b5f525f60045260245ffd5b90816020910312610157575180151581036101575790565b9190926040519361136c606086610ebd565b6002855260208501936040368637855115610f8d576001600160a01b0316808552855190919060011015610f8d576001600160a01b03166040868101919091525163095ea7b360e01b81527310ed43c718714eb63d5aa57b78b54704e256024e60048201526024810184905290602090829060449082905f905af1801561045e576114c8575b50601e420191824211610b92577310ed43c718714eb63d5aa57b78b54704e256024e3b156101575793919290604051948593635c11d79560e01b855260a485019160048601525f602486015260a060448601525180915260c4840192905f5b8181106114a6575050506001600160a01b0316606483015260848201929092525f9181900381837310ed43c718714eb63d5aa57b78b54704e256024e5af1801561045e5761149c5750565b5f61107191610ebd565b82516001600160a01b0316855287955060209485019490920191600101611451565b6114e99060203d6020116114ee575b6114e18183610ebd565b810190611342565b6113f2565b503d6114d7565b3d1561151f573d9061150682610ef3565b916115146040519384610ebd565b82523d5f602084013e565b606090565b5f9190829182604051602081019263095ea7b360e01b84527310ed43c718714eb63d5aa57b78b54704e256024e602483015260448201526044815261156a606482610ebd565b51925af16115766114f5565b816115c9575b501561158457565b60405162461bcd60e51b815260206004820152601e60248201527f5472616e7366657248656c7065723a20415050524f56455f4641494c454400006044820152606490fd5b80518015925082156115de575b50505f61157c565b6115f19250602080918301019101611342565b5f806115d6565b60405163a9059cbb60e01b602082019081526001600160a01b039390931660248201526044808201949094529283525f928392908390611639606482610ebd565b51925af16116456114f5565b81611698575b501561165357565b60405162461bcd60e51b815260206004820152601f60248201527f5472616e7366657248656c7065723a205452414e534645525f4641494c4544006044820152606490fd5b80518015925082156116ad575b50505f61164b565b6116c09250602080918301019101611342565b5f806116a5565b51906001600160701b038216820361015757565b600354604051632e32749760e21b81525f916001600160a01b031690602081600481855afa90811561045e575f916119db575b50604051630240bc6b60e21b81526001600160a01b03919091169190606081600481865afa90811561045e575f905f9261197e575b50602060049460405195868092630dfe168160e01b82525afa93841561045e575f94611938575b506004546001600160a01b03908116946001600160701b03928392909116860361193057169116905b85820291808304871490151715610b92576103e88202918083046103e81490151715610b9257856117c391610f4b565b906103e58202918083046103e51490151715610b9257811561191c57049081800460011482151715610b9257611801826103e861180a940490610f58565b8093309261135a565b6003546001600160a01b031690813b15610157575f91602483926040519485938492631be4ed5760e21b845260048401525af1801561045e57611909575b506024602060018060a01b0360045416604051928380926370a0823160e01b82523060048301525afa9182156118fd57916118cb575b501061188657565b60405162461bcd60e51b815260206004820152601a60248201527f5553445420496e73756666696369656e742042616c616e63652e0000000000006044820152606490fd5b90506020813d6020116118f5575b816118e660209383610ebd565b8101031261015757515f61187e565b3d91506118d9565b604051903d90823e3d90fd5b61191591505f90610ebd565b5f5f611848565b634e487b7160e01b5f52601260045260245ffd5b169116611793565b9093506020813d602011611976575b8161195460209383610ebd565b81010312610157576001600160701b0361196e8192610f65565b94915061176a565b3d9150611947565b939150506060833d6060116119d3575b8161199b60609383610ebd565b81010312610157576119ac836116c7565b9260406119bb602083016116c7565b91015163ffffffff8116036101575790926020611743565b3d915061198e565b90506020813d602011611a0d575b816119f660209383610ebd565b8101031261015757611a0790610f65565b5f61170e565b3d91506119e9565b5f546004805460055460405163e6a4390560e01b81526001600160a01b0392831693810184905290821660248201819052949293909160209183916044918391165afa90811561045e575f91611b65575b506001600160a01b0316158015611b52575b611b4d57611a8792309261135a565b6005546040516370a0823160e01b8152306004820152906001600160a01b0316602082602481845afa91821561045e575f92611b17575b50600854611ad79183916001600160a01b0316906115f8565b6008546001600160a01b031690813b15610157575f9160248392604051948593849263cc430ced60e01b845260048401525af1801561045e5761149c5750565b9091506020813d602011611b45575b81611b3360209383610ebd565b81010312610157575190611ad7611abe565b3d9150611b26565b505050565b506008546001600160a01b031615611a78565b90506020813d602011611b97575b81611b8060209383610ebd565b8101031261015757611b9190610f65565b5f611a66565b3d9150611b73565b5f516020611c8a5f395f51905f52546001600160a01b03163303611bbf57565b63118cdaa760e01b5f523360045260245ffd5b60ff5f516020611cca5f395f51905f525460401c1615611bee57565b631afcd79f60e31b5f5260045ffd5b905f8091602081519101845af48080611c76575b15611c315750506040513d81523d5f602083013e60203d82010160405290565b15611c5657639996b31560e01b5f9081526001600160a01b0391909116600452602490fd5b3d15611c67576040513d5f823e3d90fd5b63d6bda27560e01b5f5260045ffd5b503d151580611c115750813b1515611c1156fe9016d09d72d40fdae2fd8ceac6b6234c7706214fd39c1cd1e609a0528c199300360894a13ba1a3210667c828492db98dca3e2076cc3735a920a3ca505d382bbcf0c57e16840df040f15088dc2f81fe391c3923bec73e23a9662efc9c229c6a00a26469706673582212200466e3e93e43338f1adb0270c39f047b2699fb5b3554209003b11a0c671896e064736f6c634300081e0033","linkReferences":{}},"methodIdentifiers":{"UPGRADE_INTERFACE_VERSION()":"ad3cb1cc","USDT()":"c54e44eb","addLiquidity(uint256)":"51c6590a","admin()":"f851a440","claimWallet()":"43ec53fb","emergencyWithdraw(address,uint256,address)":"551512de","initialize(address,address,address,address,address,address,address,address,address)":"f5e95acb","issueAward(address,uint256)":"579d40a3","leo()":"42728ffd","nodeDividends()":"c7fb372f","owner()":"8da5cb5b","pancakeFactory()":"e0f1c9c5","pancakeRouter()":"c21ebd07","payback()":"854bec87","proxiableUUID()":"52d1902d","referrals()":"d3dc7539","remainingWallet()":"144c49dc","renounceOwnership()":"715018a6","setAddrConfig(address,address,address)":"98eb0574","setPaybackAddr(address)":"779193ea","swapTokenToUsdt(address,uint256)":"cfab164d","token()":"fc0c546a","transferOwnership(address)":"f2fde38b","treasury()":"61d027b3","upgradeToAndCall(address,bytes)":"4f1ef286"},"id":58}