{"abi":[{"type":"function","name":"UPGRADE_INTERFACE_VERSION","inputs":[],"outputs":[{"name":"","type":"string","internalType":"string"}],"stateMutability":"view"},{"type":"function","name":"USDT","inputs":[],"outputs":[{"name":"","type":"address","internalType":"address"}],"stateMutability":"view"},{"type":"function","name":"addLiquidity","inputs":[{"name":"amountUSDT","type":"uint256","internalType":"uint256"}],"outputs":[],"stateMutability":"nonpayable"},{"type":"function","name":"admin","inputs":[],"outputs":[{"name":"","type":"address","internalType":"address"}],"stateMutability":"view"},{"type":"function","name":"initialize","inputs":[{"name":"_admin","type":"address","internalType":"address"},{"name":"_treasury","type":"address","internalType":"address"},{"name":"_token","type":"address","internalType":"address"},{"name":"_usdt","type":"address","internalType":"address"},{"name":"_wallet","type":"address","internalType":"address"},{"name":"_referrals","type":"address","internalType":"address"},{"name":"_nodeDividends","type":"address","internalType":"address"}],"outputs":[],"stateMutability":"nonpayable"},{"type":"function","name":"issueAward","inputs":[{"name":"user","type":"address","internalType":"address"},{"name":"reward","type":"uint256","internalType":"uint256"}],"outputs":[],"stateMutability":"nonpayable"},{"type":"function","name":"nodeDividends","inputs":[],"outputs":[{"name":"","type":"address","internalType":"address"}],"stateMutability":"view"},{"type":"function","name":"owner","inputs":[],"outputs":[{"name":"","type":"address","internalType":"address"}],"stateMutability":"view"},{"type":"function","name":"pancakeRouter","inputs":[],"outputs":[{"name":"","type":"address","internalType":"contract IUniswapV2Router02"}],"stateMutability":"view"},{"type":"function","name":"proxiableUUID","inputs":[],"outputs":[{"name":"","type":"bytes32","internalType":"bytes32"}],"stateMutability":"view"},{"type":"function","name":"referrals","inputs":[],"outputs":[{"name":"","type":"address","internalType":"address"}],"stateMutability":"view"},{"type":"function","name":"renounceOwnership","inputs":[],"outputs":[],"stateMutability":"nonpayable"},{"type":"function","name":"setAddrConfig","inputs":[{"name":"_treasury","type":"address","internalType":"address"},{"name":"_referrals","type":"address","internalType":"address"},{"name":"_nodeDividends","type":"address","internalType":"address"}],"outputs":[],"stateMutability":"nonpayable"},{"type":"function","name":"swapTokenToUsdt","inputs":[{"name":"to","type":"address","internalType":"address"},{"name":"usdtAmount","type":"uint256","internalType":"uint256"}],"outputs":[],"stateMutability":"nonpayable"},{"type":"function","name":"token","inputs":[],"outputs":[{"name":"","type":"address","internalType":"address"}],"stateMutability":"view"},{"type":"function","name":"transferOwnership","inputs":[{"name":"newOwner","type":"address","internalType":"address"}],"outputs":[],"stateMutability":"nonpayable"},{"type":"function","name":"treasury","inputs":[],"outputs":[{"name":"","type":"address","internalType":"address"}],"stateMutability":"view"},{"type":"function","name":"upgradeToAndCall","inputs":[{"name":"newImplementation","type":"address","internalType":"address"},{"name":"data","type":"bytes","internalType":"bytes"}],"outputs":[],"stateMutability":"payable"},{"type":"function","name":"wallet","inputs":[],"outputs":[{"name":"","type":"address","internalType":"address"}],"stateMutability":"view"},{"type":"event","name":"Initialized","inputs":[{"name":"version","type":"uint64","indexed":false,"internalType":"uint64"}],"anonymous":false},{"type":"event","name":"OwnershipTransferred","inputs":[{"name":"previousOwner","type":"address","indexed":true,"internalType":"address"},{"name":"newOwner","type":"address","indexed":true,"internalType":"address"}],"anonymous":false},{"type":"event","name":"Upgraded","inputs":[{"name":"implementation","type":"address","indexed":true,"internalType":"address"}],"anonymous":false},{"type":"error","name":"AddressEmptyCode","inputs":[{"name":"target","type":"address","internalType":"address"}]},{"type":"error","name":"ERC1967InvalidImplementation","inputs":[{"name":"implementation","type":"address","internalType":"address"}]},{"type":"error","name":"ERC1967NonPayable","inputs":[]},{"type":"error","name":"FailedCall","inputs":[]},{"type":"error","name":"InvalidInitialization","inputs":[]},{"type":"error","name":"NotInitializing","inputs":[]},{"type":"error","name":"OwnableInvalidOwner","inputs":[{"name":"owner","type":"address","internalType":"address"}]},{"type":"error","name":"OwnableUnauthorizedAccount","inputs":[{"name":"account","type":"address","internalType":"address"}]},{"type":"error","name":"UUPSUnauthorizedCallContext","inputs":[]},{"type":"error","name":"UUPSUnsupportedProxiableUUID","inputs":[{"name":"slot","type":"bytes32","internalType":"bytes32"}]}],"bytecode":{"object":"0x60a0604052306080523480156012575f5ffd5b50608051611cc06100395f395f8181610b9f01528181610bc80152610f8d0152611cc05ff3fe608060405260043610610110575f3560e01c806398eb05741161009d578063cfab164d11610062578063cfab164d14610314578063d3dc753914610333578063f2fde38b14610352578063f851a44014610371578063fc0c546a1461038f575f5ffd5b806398eb057414610253578063ad3cb1cc14610272578063c21ebd07146102af578063c54e44eb146102d6578063c7fb372f146102f5575f5ffd5b806352d1902d116100e357806352d1902d146101a3578063579d40a3146101c557806361d027b3146101e4578063715018a6146102035780638da5cb5b14610217575f5ffd5b806335876476146101145780634f1ef2861461013557806351c6590a14610148578063521eb27314610167575b5f5ffd5b34801561011f575f5ffd5b5061013361012e3660046116d7565b6103ae565b005b6101336101433660046117d6565b61051a565b348015610153575f5ffd5b5061013361016236600461187d565b610539565b348015610172575f5ffd5b50600454610186906001600160a01b031681565b6040516001600160a01b0390911681526020015b60405180910390f35b3480156101ae575f5ffd5b506101b76107cc565b60405190815260200161019a565b3480156101d0575f5ffd5b506101336101df366004611894565b6107e7565b3480156101ef575f5ffd5b50600154610186906001600160a01b031681565b34801561020e575f5ffd5b50610133610a69565b348015610222575f5ffd5b507f9016d09d72d40fdae2fd8ceac6b6234c7706214fd39c1cd1e609a0528c199300546001600160a01b0316610186565b34801561025e575f5ffd5b5061013361026d3660046118be565b610a7c565b34801561027d575f5ffd5b506102a2604051806040016040528060058152602001640352e302e360dc1b81525081565b60405161019a9190611906565b3480156102ba575f5ffd5b506101867310ed43c718714eb63d5aa57b78b54704e256024e81565b3480156102e1575f5ffd5b50600354610186906001600160a01b031681565b348015610300575f5ffd5b50600654610186906001600160a01b031681565b34801561031f575f5ffd5b5061013361032e366004611894565b610ac3565b34801561033e575f5ffd5b50600554610186906001600160a01b031681565b34801561035d575f5ffd5b5061013361036c36600461193b565b610b1c565b34801561037c575f5ffd5b505f54610186906001600160a01b031681565b34801561039a575f5ffd5b50600254610186906001600160a01b031681565b5f6103b7610b59565b805490915060ff600160401b820416159067ffffffffffffffff165f811580156103de5750825b90505f8267ffffffffffffffff1660011480156103fa5750303b155b905081158015610408575080155b156104265760405163f92ee8a960e01b815260040160405180910390fd5b845467ffffffffffffffff19166001178555831561045057845460ff60401b1916600160401b1785555b61045933610b83565b5f80546001600160a01b03199081166001600160a01b038f8116919091179092556001805482168e84161790556002805482168d84161790556003805482168c84161790556004805482168b84161790556005805482168a841617905560068054909116918816919091179055831561050c57845460ff60401b19168555604051600181527fc7f505b2f371ae2175ee4913f4499e1f2633a7b5936321eed1cdaeb6115181d29060200160405180910390a15b505050505050505050505050565b610522610b94565b61052b82610c38565b6105358282610c40565b5050565b6001546001600160a01b0316331461056c5760405162461bcd60e51b81526004016105639061195d565b60405180910390fd5b5f610578600283611998565b6002546040516370a0823160e01b81523060048201529192505f916001600160a01b03909116906370a0823190602401602060405180830381865afa1580156105c3573d5f5f3e3d5ffd5b505050506040513d601f19601f820116820180604052508101906105e791906119b7565b600354600254919250610608916001600160a01b0391821691168430610d01565b6002546040516370a0823160e01b81523060048201525f916001600160a01b0316906370a0823190602401602060405180830381865afa15801561064e573d5f5f3e3d5ffd5b505050506040513d601f19601f8201168201806040525081019061067291906119b7565b90505f61067f84866119ce565b90505f61068c84846119ce565b6003549091506106ba906001600160a01b03167310ed43c718714eb63d5aa57b78b54704e256024e84610e6c565b6002546106e5906001600160a01b03167310ed43c718714eb63d5aa57b78b54704e256024e83610e6c565b6003546002547310ed43c718714eb63d5aa57b78b54704e256024e9163e8e33700916001600160a01b03918216911685855f803061072442601e6119e1565b60405160e08a901b6001600160e01b03191681526001600160a01b039889166004820152968816602488015260448701959095526064860193909352608485019190915260a484015290921660c482015260e4810191909152610104016060604051808303815f875af115801561079d573d5f5f3e3d5ffd5b505050506040513d601f19601f820116820180604052508101906107c191906119f4565b505050505050505050565b5f6107d5610f82565b505f516020611c6b5f395f51905f5290565b6001546001600160a01b031633146108115760405162461bcd60e51b81526004016105639061195d565b8015610535575f606461082583603c611a1f565b61082f9190611998565b90505f606461083f846023611a1f565b6108499190611998565b90505f6103e861085a85600f611a1f565b6108649190611998565b90505f818361087386886119ce565b61087d91906119ce565b61088791906119ce565b905061089285610fcb565b83156108af576003546108af906001600160a01b031687866112f5565b82156109ba57600554604051637ab0437360e01b81526001600160a01b038881166004830152602482018690525f921690637ab04373906044015f60405180830381865afa158015610903573d5f5f3e3d5ffd5b505050506040513d5f823e601f3d908101601f1916820160405261092a9190810190611a36565b90505f5b81518110156109b7575f82828151811061094a5761094a611b10565b60200260200101516020015111156109af5760035482516109af916001600160a01b03169084908490811061098157610981611b10565b60200260200101515f015184848151811061099e5761099e611b10565b6020026020010151602001516112f5565b60010161092e565b50505b8115610a3e576003546006546109dd916001600160a01b039081169116846112f5565b6006546040516315f5e8d760e31b81526001600160a01b039091169063afaf46b890610a10906003908690600401611b24565b5f604051808303815f87803b158015610a27575f5ffd5b505af1158015610a39573d5f5f3e3d5ffd5b505050505b8015610a6157600354600454610a61916001600160a01b039081169116836112f5565b505050505050565b610a71611404565b610a7a5f61145f565b565b610a84611404565b600180546001600160a01b039485166001600160a01b031991821617909155600580549385169382169390931790925560068054919093169116179055565b6001546001600160a01b03163314610aed5760405162461bcd60e51b81526004016105639061195d565b610af681610fcb565b6001600160a01b0382161561053557600354610535906001600160a01b031683836112f5565b610b24611404565b6001600160a01b038116610b4d57604051631e4fbdf760e01b81525f6004820152602401610563565b610b568161145f565b50565b5f807ff0c57e16840df040f15088dc2f81fe391c3923bec73e23a9662efc9c229c6a005b92915050565b610b8b6114cf565b610b56816114f4565b306001600160a01b037f0000000000000000000000000000000000000000000000000000000000000000161480610c1a57507f00000000000000000000000000000000000000000000000000000000000000006001600160a01b0316610c0e5f516020611c6b5f395f51905f52546001600160a01b031690565b6001600160a01b031614155b15610a7a5760405163703e46dd60e11b815260040160405180910390fd5b610b56611404565b816001600160a01b03166352d1902d6040518163ffffffff1660e01b8152600401602060405180830381865afa925050508015610c9a575060408051601f3d908101601f19168201909252610c97918101906119b7565b60015b610cc257604051634c9c8ce360e01b81526001600160a01b0383166004820152602401610563565b5f516020611c6b5f395f51905f528114610cf257604051632a87526960e21b815260048101829052602401610563565b610cfc83836114fc565b505050565b6040805160028082526060820183525f9260208301908036833701905050905084815f81518110610d3457610d34611b10565b60200260200101906001600160a01b031690816001600160a01b0316815250508381600181518110610d6857610d68611b10565b6001600160a01b03928316602091820292909201015260405163095ea7b360e01b81527310ed43c718714eb63d5aa57b78b54704e256024e6004820152602481018590529086169063095ea7b3906044016020604051808303815f875af1158015610dd5573d5f5f3e3d5ffd5b505050506040513d601f19601f82011682018060405250810190610df99190611b4e565b507310ed43c718714eb63d5aa57b78b54704e256024e635c11d795845f8486610e2342601e6119e1565b6040518663ffffffff1660e01b8152600401610e43959493929190611b6d565b5f604051808303815f87803b158015610e5a575f5ffd5b505af11580156107c1573d5f5f3e3d5ffd5b604080516001600160a01b038481166024830152604480830185905283518084039091018152606490920183526020820180516001600160e01b031663095ea7b360e01b17905291515f92839290871691610ec79190611bdd565b5f604051808303815f865af19150503d805f8114610f00576040519150601f19603f3d011682016040523d82523d5f602084013e610f05565b606091505b5091509150818015610f2f575080511580610f2f575080806020019051810190610f2f9190611b4e565b610f7b5760405162461bcd60e51b815260206004820152601e60248201527f5472616e7366657248656c7065723a20415050524f56455f4641494c454400006044820152606401610563565b5050505050565b306001600160a01b037f00000000000000000000000000000000000000000000000000000000000000001614610a7a5760405163703e46dd60e11b815260040160405180910390fd5b60025460408051632e32749760e21b815290515f926001600160a01b03169163b8c9d25c9160048083019260209291908290030181865afa158015611012573d5f5f3e3d5ffd5b505050506040513d601f19601f820116820180604052508101906110369190611bf3565b90505f5f826001600160a01b0316630902f1ac6040518163ffffffff1660e01b8152600401606060405180830381865afa158015611076573d5f5f3e3d5ffd5b505050506040513d601f19601f8201168201806040525081019061109a9190611c29565b50915091505f5f60035f9054906101000a90046001600160a01b03166001600160a01b0316856001600160a01b0316630dfe16816040518163ffffffff1660e01b8152600401602060405180830381865afa1580156110fb573d5f5f3e3d5ffd5b505050506040513d601f19601f8201168201806040525081019061111f9190611bf3565b6001600160a01b0316036111425750506001600160701b03818116908316611153565b50506001600160701b038083169082165b60015f6111608885611a1f565b61116c906103e8611a1f565b90505f61117989856119ce565b611185906103e5611a1f565b90505f6111928284611998565b90506103e86111a18583611a1f565b6111ab9190611998565b6111b590826119e1565b6002546003549192506111d6916001600160a01b0391821691168330610d01565b600254604051631be4ed5760e21b8152600481018390526001600160a01b0390911690636f93b55c906024015f604051808303815f87803b158015611219575f5ffd5b505af115801561122b573d5f5f3e3d5ffd5b50506003546040516370a0823160e01b81523060048201528d93506001600160a01b0390911691506370a0823190602401602060405180830381865afa158015611277573d5f5f3e3d5ffd5b505050506040513d601f19601f8201168201806040525081019061129b91906119b7565b10156112e95760405162461bcd60e51b815260206004820152601a60248201527f5553445420496e73756666696369656e742042616c616e63652e0000000000006044820152606401610563565b50505050505050505050565b604080516001600160a01b038481166024830152604480830185905283518084039091018152606490920183526020820180516001600160e01b031663a9059cbb60e01b17905291515f928392908716916113509190611bdd565b5f604051808303815f865af19150503d805f8114611389576040519150601f19603f3d011682016040523d82523d5f602084013e61138e565b606091505b50915091508180156113b85750805115806113b85750808060200190518101906113b89190611b4e565b610f7b5760405162461bcd60e51b815260206004820152601f60248201527f5472616e7366657248656c7065723a205452414e534645525f4641494c4544006044820152606401610563565b336114367f9016d09d72d40fdae2fd8ceac6b6234c7706214fd39c1cd1e609a0528c199300546001600160a01b031690565b6001600160a01b031614610a7a5760405163118cdaa760e01b8152336004820152602401610563565b7f9016d09d72d40fdae2fd8ceac6b6234c7706214fd39c1cd1e609a0528c19930080546001600160a01b031981166001600160a01b03848116918217845560405192169182907f8be0079c531659141344cd1fd0a4f28419497f9722a3daafe3b4186f6b6457e0905f90a3505050565b6114d7611551565b610a7a57604051631afcd79f60e31b815260040160405180910390fd5b610b246114cf565b6115058261156a565b6040516001600160a01b038316907fbc7cd75a20ee27fd9adebab32041f755214dbc6bffa90cc0225b39da2e5c2d3b905f90a280511561154957610cfc82826115cd565b61053561166d565b5f61155a610b59565b54600160401b900460ff16919050565b806001600160a01b03163b5f0361159f57604051634c9c8ce360e01b81526001600160a01b0382166004820152602401610563565b5f516020611c6b5f395f51905f5280546001600160a01b0319166001600160a01b0392909216919091179055565b60605f6115da848461168c565b90508080156115fb57505f3d11806115fb57505f846001600160a01b03163b115b156116105761160861169f565b915050610b7d565b801561163a57604051639996b31560e01b81526001600160a01b0385166004820152602401610563565b3d1561164d576116486116b8565b611666565b60405163d6bda27560e01b815260040160405180910390fd5b5092915050565b3415610a7a5760405163b398979f60e01b815260040160405180910390fd5b5f5f5f835160208501865af49392505050565b6040513d81523d5f602083013e3d602001810160405290565b6040513d5f823e3d81fd5b6001600160a01b0381168114610b56575f5ffd5b5f5f5f5f5f5f5f60e0888a0312156116ed575f5ffd5b87356116f8816116c3565b96506020880135611708816116c3565b95506040880135611718816116c3565b94506060880135611728816116c3565b93506080880135611738816116c3565b925060a0880135611748816116c3565b915060c0880135611758816116c3565b8091505092959891949750929550565b634e487b7160e01b5f52604160045260245ffd5b6040805190810167ffffffffffffffff8111828210171561179f5761179f611768565b60405290565b604051601f8201601f1916810167ffffffffffffffff811182821017156117ce576117ce611768565b604052919050565b5f5f604083850312156117e7575f5ffd5b82356117f2816116c3565b9150602083013567ffffffffffffffff81111561180d575f5ffd5b8301601f8101851361181d575f5ffd5b803567ffffffffffffffff81111561183757611837611768565b61184a601f8201601f19166020016117a5565b81815286602083850101111561185e575f5ffd5b816020840160208301375f602083830101528093505050509250929050565b5f6020828403121561188d575f5ffd5b5035919050565b5f5f604083850312156118a5575f5ffd5b82356118b0816116c3565b946020939093013593505050565b5f5f5f606084860312156118d0575f5ffd5b83356118db816116c3565b925060208401356118eb816116c3565b915060408401356118fb816116c3565b809150509250925092565b602081525f82518060208401528060208501604085015e5f604082850101526040601f19601f83011684010191505092915050565b5f6020828403121561194b575f5ffd5b8135611956816116c3565b9392505050565b6020808252600d908201526c4f6e6c7920547265617375727960981b604082015260600190565b634e487b7160e01b5f52601160045260245ffd5b5f826119b257634e487b7160e01b5f52601260045260245ffd5b500490565b5f602082840312156119c7575f5ffd5b5051919050565b81810381811115610b7d57610b7d611984565b80820180821115610b7d57610b7d611984565b5f5f5f60608486031215611a06575f5ffd5b5050815160208301516040909301519094929350919050565b8082028115828204841417610b7d57610b7d611984565b5f60208284031215611a46575f5ffd5b815167ffffffffffffffff811115611a5c575f5ffd5b8201601f81018413611a6c575f5ffd5b805167ffffffffffffffff811115611a8657611a86611768565b611a9560208260051b016117a5565b8082825260208201915060208360061b850101925086831115611ab6575f5ffd5b6020840193505b82841015611b065760408488031215611ad4575f5ffd5b611adc61177c565b8451611ae7816116c3565b8152602085810151818301529083526040909401939190910190611abd565b9695505050505050565b634e487b7160e01b5f52603260045260245ffd5b6040810160048410611b4457634e487b7160e01b5f52602160045260245ffd5b9281526020015290565b5f60208284031215611b5e575f5ffd5b81518015158114611956575f5ffd5b5f60a0820187835286602084015260a0604084015280865180835260c0850191506020880192505f5b81811015611bbd5783516001600160a01b0316835260209384019390920191600101611b96565b50506001600160a01b039590951660608401525050608001529392505050565b5f82518060208501845e5f920191825250919050565b5f60208284031215611c03575f5ffd5b8151611956816116c3565b80516001600160701b0381168114611c24575f5ffd5b919050565b5f5f5f60608486031215611c3b575f5ffd5b611c4484611c0e565b9250611c5260208501611c0e565b9150604084015163ffffffff811681146118fb575f5ffdfe360894a13ba1a3210667c828492db98dca3e2076cc3735a920a3ca505d382bbca2646970667358221220b8dec3ff6a17803345d4af507b7eb4987a44d7573f306920c015e7189a12546d64736f6c634300081e0033","linkReferences":{}},"methodIdentifiers":{"UPGRADE_INTERFACE_VERSION()":"ad3cb1cc","USDT()":"c54e44eb","addLiquidity(uint256)":"51c6590a","admin()":"f851a440","initialize(address,address,address,address,address,address,address)":"35876476","issueAward(address,uint256)":"579d40a3","nodeDividends()":"c7fb372f","owner()":"8da5cb5b","pancakeRouter()":"c21ebd07","proxiableUUID()":"52d1902d","referrals()":"d3dc7539","renounceOwnership()":"715018a6","setAddrConfig(address,address,address)":"98eb0574","swapTokenToUsdt(address,uint256)":"cfab164d","token()":"fc0c546a","transferOwnership(address)":"f2fde38b","treasury()":"61d027b3","upgradeToAndCall(address,bytes)":"4f1ef286","wallet()":"521eb273"},"id":51}