{"abi":[{"type":"function","name":"UPGRADE_INTERFACE_VERSION","inputs":[],"outputs":[{"name":"","type":"string","internalType":"string"}],"stateMutability":"view"},{"type":"function","name":"claim","inputs":[{"name":"user","type":"address","internalType":"address"},{"name":"orderIndex","type":"uint256","internalType":"uint256"}],"outputs":[],"stateMutability":"nonpayable"},{"type":"function","name":"getOrderInfo","inputs":[{"name":"user","type":"address","internalType":"address"},{"name":"orderIndex","type":"uint256","internalType":"uint256"}],"outputs":[{"name":"amount","type":"uint256","internalType":"uint256"},{"name":"stakeIndex","type":"uint8","internalType":"uint8"}],"stateMutability":"view"},{"type":"function","name":"getUserOrders","inputs":[{"name":"user","type":"address","internalType":"address"}],"outputs":[{"name":"","type":"tuple[]","internalType":"struct Models.Order[]","components":[{"name":"amount","type":"uint128","internalType":"uint128"},{"name":"claimed","type":"uint128","internalType":"uint128"},{"name":"claimedPeriods","type":"uint32","internalType":"uint32"},{"name":"startTime","type":"uint32","internalType":"uint32"},{"name":"stakeIndex","type":"uint8","internalType":"uint8"},{"name":"status","type":"uint8","internalType":"uint8"},{"name":"createdAt","type":"uint32","internalType":"uint32"},{"name":"frozenReward","type":"uint128","internalType":"uint128"},{"name":"frozenClaimed","type":"uint128","internalType":"uint128"},{"name":"freezeStart","type":"uint32","internalType":"uint32"},{"name":"freezeRound","type":"uint32","internalType":"uint32"}]}],"stateMutability":"view"},{"type":"function","name":"initialize","inputs":[{"name":"_wallet","type":"address","internalType":"address"}],"outputs":[],"stateMutability":"nonpayable"},{"type":"function","name":"owner","inputs":[],"outputs":[{"name":"","type":"address","internalType":"address"}],"stateMutability":"view"},{"type":"function","name":"pause","inputs":[],"outputs":[],"stateMutability":"nonpayable"},{"type":"function","name":"pauseTime","inputs":[],"outputs":[{"name":"","type":"uint32","internalType":"uint32"}],"stateMutability":"view"},{"type":"function","name":"paused","inputs":[],"outputs":[{"name":"","type":"bool","internalType":"bool"}],"stateMutability":"view"},{"type":"function","name":"proxiableUUID","inputs":[],"outputs":[{"name":"","type":"bytes32","internalType":"bytes32"}],"stateMutability":"view"},{"type":"function","name":"releaseRatePerDay","inputs":[],"outputs":[{"name":"","type":"uint64","internalType":"uint64"}],"stateMutability":"view"},{"type":"function","name":"renounceOwnership","inputs":[],"outputs":[],"stateMutability":"nonpayable"},{"type":"function","name":"restake","inputs":[{"name":"user","type":"address","internalType":"address"},{"name":"orderIndex","type":"uint256","internalType":"uint256"},{"name":"newStakeIndex","type":"uint8","internalType":"uint8"}],"outputs":[],"stateMutability":"nonpayable"},{"type":"function","name":"resume","inputs":[],"outputs":[],"stateMutability":"nonpayable"},{"type":"function","name":"setAddrConfig","inputs":[{"name":"_queue","type":"address","internalType":"address"},{"name":"_treasuryLiquidity","type":"address","internalType":"address"}],"outputs":[],"stateMutability":"nonpayable"},{"type":"function","name":"stake","inputs":[{"name":"user","type":"address","internalType":"address"},{"name":"amount","type":"uint256","internalType":"uint256"},{"name":"stakeIndex","type":"uint8","internalType":"uint8"}],"outputs":[],"stateMutability":"nonpayable"},{"type":"function","name":"stakePlans","inputs":[{"name":"","type":"uint8","internalType":"uint8"}],"outputs":[{"name":"duration","type":"uint32","internalType":"uint32"},{"name":"claimInterval","type":"uint32","internalType":"uint32"},{"name":"window","type":"uint32","internalType":"uint32"},{"name":"rate","type":"uint64","internalType":"uint64"}],"stateMutability":"view"},{"type":"function","name":"transferOwnership","inputs":[{"name":"newOwner","type":"address","internalType":"address"}],"outputs":[],"stateMutability":"nonpayable"},{"type":"function","name":"unstake","inputs":[{"name":"user","type":"address","internalType":"address"},{"name":"orderIndex","type":"uint256","internalType":"uint256"}],"outputs":[],"stateMutability":"nonpayable"},{"type":"function","name":"upgradeToAndCall","inputs":[{"name":"newImplementation","type":"address","internalType":"address"},{"name":"data","type":"bytes","internalType":"bytes"}],"outputs":[],"stateMutability":"payable"},{"type":"event","name":"Initialized","inputs":[{"name":"version","type":"uint64","indexed":false,"internalType":"uint64"}],"anonymous":false},{"type":"event","name":"OwnershipTransferred","inputs":[{"name":"previousOwner","type":"address","indexed":true,"internalType":"address"},{"name":"newOwner","type":"address","indexed":true,"internalType":"address"}],"anonymous":false},{"type":"event","name":"Upgraded","inputs":[{"name":"implementation","type":"address","indexed":true,"internalType":"address"}],"anonymous":false},{"type":"error","name":"AddressEmptyCode","inputs":[{"name":"target","type":"address","internalType":"address"}]},{"type":"error","name":"ERC1967InvalidImplementation","inputs":[{"name":"implementation","type":"address","internalType":"address"}]},{"type":"error","name":"ERC1967NonPayable","inputs":[]},{"type":"error","name":"FailedCall","inputs":[]},{"type":"error","name":"InvalidInitialization","inputs":[]},{"type":"error","name":"NotInitializing","inputs":[]},{"type":"error","name":"OwnableInvalidOwner","inputs":[{"name":"owner","type":"address","internalType":"address"}]},{"type":"error","name":"OwnableUnauthorizedAccount","inputs":[{"name":"account","type":"address","internalType":"address"}]},{"type":"error","name":"UUPSUnauthorizedCallContext","inputs":[]},{"type":"error","name":"UUPSUnsupportedProxiableUUID","inputs":[{"name":"slot","type":"bytes32","internalType":"bytes32"}]}],"bytecode":{"object":"0x60a0604052306080523480156012575f5ffd5b506080516134b06100395f395f8181611dbe01528181611de70152611f2b01526134b05ff3fe60806040526004361061011b575f3560e01c80638456cb591161009d578063ad3cb1cc11610062578063ad3cb1cc146103c8578063c2a672e014610405578063c4d66de814610424578063ddae84cc14610443578063f2fde38b14610462575f5ffd5b80638456cb59146102a357806385cf4f9d146102b75780638c81dabe146102d65780638da5cb5b14610363578063aad3ec96146103a9575f5ffd5b80635c975abb116100e35780635c975abb146101de5780636341c0601461020e57806363c69f081461022d578063715018a61461025957806382510bcf1461026d575f5ffd5b8063015cb3ff1461011f578063046f7da21461015c57806311d72f1c146101725780634f1ef286146101a957806352d1902d146101bc575b5f5ffd5b34801561012a575f5ffd5b5060045461014290600160a81b900463ffffffff1681565b60405163ffffffff90911681526020015b60405180910390f35b348015610167575f5ffd5b50610170610481565b005b34801561017d575f5ffd5b50600554610191906001600160401b031681565b6040516001600160401b039091168152602001610153565b6101706101b7366004612fb1565b610509565b3480156101c7575f5ffd5b506101d0610528565b604051908152602001610153565b3480156101e9575f5ffd5b506004546101fe90600160a01b900460ff1681565b6040519015158152602001610153565b348015610219575f5ffd5b50610170610228366004613082565b610543565b348015610238575f5ffd5b5061024c6102473660046130bb565b61071c565b60405161015391906130d4565b348015610264575f5ffd5b50610170610833565b348015610278575f5ffd5b5061028c610287366004613221565b610846565b6040805192835260ff909116602083015201610153565b3480156102ae575f5ffd5b5061017061094c565b3480156102c2575f5ffd5b506101706102d1366004613082565b610a27565b3480156102e1575f5ffd5b5061032d6102f0366004613249565b5f6020819052908152604090205463ffffffff80821691600160201b8104821691600160401b82041690600160601b90046001600160401b031684565b6040805163ffffffff9586168152938516602085015291909316908201526001600160401b039091166060820152608001610153565b34801561036e575f5ffd5b507f9016d09d72d40fdae2fd8ceac6b6234c7706214fd39c1cd1e609a0528c199300546040516001600160a01b039091168152602001610153565b3480156103b4575f5ffd5b506101706103c3366004613221565b610f64565b3480156103d3575f5ffd5b506103f8604051806040016040528060058152602001640352e302e360dc1b81525081565b6040516101539190613262565b348015610410575f5ffd5b5061017061041f366004613221565b611461565b34801561042f575f5ffd5b5061017061043e3660046130bb565b611886565b34801561044e575f5ffd5b5061017061045d366004613297565b611d40565b34801561046d575f5ffd5b5061017061047c3660046130bb565b611d76565b6003546001600160a01b031633146104b45760405162461bcd60e51b81526004016104ab906132c8565b60405180910390fd5b600454600160a01b900460ff166104fa5760405162461bcd60e51b815260206004820152600a602482015269139bdd081c185d5cd95960b21b60448201526064016104ab565b6004805460ff60a01b19169055565b610511611db3565b61051a82611e57565b6105248282611e5f565b5050565b5f610531611f20565b505f51602061345b5f395f51905f5290565b6003546001600160a01b0316331461056d5760405162461bcd60e51b81526004016104ab906132c8565b600480546040516328e32c8560e11b81529182018490526001600160a01b0316906351c6590a906024015f604051808303815f87803b1580156105ae575f5ffd5b505af11580156105c0573d5f5f3e3d5ffd5b505050506001600160a01b0383165f9081526001602052604090206105e58383611f69565b8154600180820184555f9384526020938490208351948401516001600160801b03958616600160801b9187168202176003909402909101928355604084015191830180546060860151608087015160a088015160c089015160e08a015163ffffffff98891667ffffffffffffffff1990961695909517600160201b948916949094029390931761ffff60401b1916600160401b60ff9384160260ff60481b191617600160481b929091169190910217600160501b600160f01b031916600160501b91861691909102600160701b600160f01b03191617600160701b918816919091021790556101008401516002909301805461012086015161014090960151949096166001600160a01b031990961695909517938216029290921763ffffffff60a01b1916600160a01b9190921602179055505050565b6001600160a01b0381165f908152600160209081526040808320805482518185028101850190935280835260609492939192909184015b82821015610828575f84815260209081902060408051610160810182526003860290920180546001600160801b038082168552600160801b9182900481168587015260018084015463ffffffff80821696880196909652600160201b81048616606088015260ff600160401b820481166080890152600160481b82041660a0880152600160501b8104861660c0880152600160701b9004821660e08701526002909301549081166101008601529081048316610120850152600160a01b90049091166101408301529083529092019101610753565b505050509050919050565b61083b612031565b6108445f61208c565b565b6001600160a01b0382165f90815260016020526040812080548291829185908110610873576108736132ed565b5f9182526020918290206040805161016081018252600390930290910180546001600160801b03808216808652600160801b92839004821696860196909652600183015463ffffffff80821695870195909552600160201b81048516606087015260ff600160401b8204811660808801819052600160481b830490911660a0880152600160501b8204861660c0880152600160701b909104821660e08701526002909301549081166101008601529081048316610120850152600160a01b90049091166101409092019190915290969095509350505050565b6003546001600160a01b031633146109765760405162461bcd60e51b81526004016104ab906132c8565b600454600160a01b900460ff16156109c15760405162461bcd60e51b815260206004820152600e60248201526d105b1c9958591e481c185d5cd95960921b60448201526064016104ab565b6004805463ffffffff428116600160a81b0264ffffffffff60a01b1990921691909117600160a01b1780835560019291601991610a07918591600160c81b900416613315565b92506101000a81548163ffffffff021916908363ffffffff160217905550565b6003546001600160a01b03163314610a515760405162461bcd60e51b81526004016104ab906132c8565b6001600160a01b0383165f908152600160205260408120805484908110610a7a57610a7a6132ed565b5f91825260208083206003929092029091016001810154600160401b80820460ff908116808752868652604096879020875160808082018a52915463ffffffff8082168352600160201b8083048216848c01529682048116838c0152600160601b9091046001600160401b03166060808401919091528a5161016081018c5289546001600160801b038082168352600160801b9182900481169c83019c909c52838a169c82019c909c5296880482169087015291850192909252600160481b850490921660a0840152600160501b8404821660c0840152600160701b909304851660e083015260028401549485166101008301529484048516610120820152600160a01b9093049093166101408301529250610b95906120fc565b600454610bcb908390839063ffffffff600160a81b8204811691600160c81b81049091169060ff600160a01b9091041642612142565b604080516101608101825283546001600160801b038082168352600160801b9182900481166020840152600186015463ffffffff80821695850195909552600160201b81048516606085015260ff600160401b820481166080860152600160481b8204811660a0860152600160501b8204861660c0860152600160701b909104821660e085015260028701549182166101008501529181048416610120840152600160a01b908190048416610140840152600454610c99948693429383041691600160a81b900416886122f0565b604080516101608101825283546001600160801b038082168352600160801b9182900481166020840152600186015463ffffffff80821695850195909552600160201b81048516606085015260ff600160401b820481166080860152600160481b8204811660a0860152600160501b8204861660c0860152600160701b909104821660e085015260028701549182166101008501529181048416610120840152600160a01b9081900484166101408401526005546004545f95610d7b9594889442946001600160401b03169390810490911691600160a81b909104168a6123a8565b90508015610de7576004805460405163579d40a360e01b81526001600160a01b03898116938201939093526024810184905291169063579d40a3906044015f604051808303815f87803b158015610dd0575f5ffd5b505af1158015610de2573d5f5f3e3d5ffd5b505050505b6001838101805460ff60481b1916600160481b1790556001600160a01b0387165f908152602091909152604090208354610e2a906001600160801b031686611f69565b8154600180820184555f9384526020938490208351948401516001600160801b03958616600160801b9187168202176003909402909101928355604084015191830180546060860151608087015160a088015160c089015160e08a015163ffffffff98891667ffffffffffffffff1990961695909517600160201b948916949094029390931761ffff60401b1916600160401b60ff9384160260ff60481b191617600160481b929091169190910217600160501b600160f01b031916600160501b91861691909102600160701b600160f01b03191617600160701b918816919091021790556101008401516002909301805461012086015161014090960151949096166001600160a01b031990961695909517938216029290921763ffffffff60a01b1916600160a01b9190921602179055505050505050565b6003546001600160a01b03163314610f8e5760405162461bcd60e51b81526004016104ab906132c8565b6001600160a01b0382165f908152600160205260408120805483908110610fb757610fb76132ed565b5f91825260208083206003929092029091016001810154600160401b9081900460ff90811685528484526040948590208551608081018752905463ffffffff8082168352600160201b8204811696830196909652928304851695810195909552600160601b9091046001600160401b0316606085015260045491945061105c9285928592600160a81b8204831692600160c81b83041691600160a01b90041642612142565b604080516101608101825283546001600160801b038082168352600160801b9182900481166020840152600186015463ffffffff80821695850195909552600160201b81048516606085015260ff600160401b820481166080860152600160481b8204811660a0860152600160501b8204861660c0860152600160701b909104821660e085015260028701549182166101008501529181048416610120840152600160a01b9081900484166101408401526004545f9461112b9493600160a81b83049091169290910416612404565b604080516101608101825285546001600160801b038082168352600160801b9182900481166020840152600188015463ffffffff80821695850195909552600160201b81048516606085015260ff600160401b820481166080860152600160481b82041660a0850152600160501b8104851660c0850152600160701b9004811660e084015260028801549081166101008401529081048316610120830152600160a01b90049091166101408201529091506111e89083834261242b565b604080516101608101825284546001600160801b038082168352600160801b9182900481166020840152600187015463ffffffff80821695850195909552600160201b81048516606085015260ff600160401b820481166080860152600160481b82041660a0850152600160501b8104851660c0850152600160701b9004811660e084015260028701549081166101008401529081048316610120830152600160a01b90049091166101408201525f906112d5908442856112a9575f6112ba565b600454600160a81b900463ffffffff165b60055463ffffffff91909116906001600160401b0316612522565b90505f81116113135760405162461bcd60e51b815260206004820152600a6024820152692737903932bbb0b9321760b11b60448201526064016104ab565b8115611361576002840180548291905f906113389084906001600160801b0316613331565b92506101000a8154816001600160801b0302191690836001600160801b031602179055506113aa565b835481908590601090611385908490600160801b90046001600160801b0316613331565b92506101000a8154816001600160801b0302191690836001600160801b031602179055505b602083015160018501545f9163ffffffff908116916113d291600160201b9091041642613350565b6113dc9190613377565b60018601805463ffffffff191663ffffffff83161790556004805460405163579d40a360e01b81526001600160a01b038b81169382019390935260248101869052929350169063579d40a3906044015f604051808303815f87803b158015611442575f5ffd5b505af1158015611454573d5f5f3e3d5ffd5b5050505050505050505050565b6003546001600160a01b0316331461148b5760405162461bcd60e51b81526004016104ab906132c8565b6001600160a01b0382165f9081526001602052604081208054839081106114b4576114b46132ed565b5f91825260208083206003929092029091016001810154600160401b80820460ff908116808752868652604096879020875160808082018a52915463ffffffff8082168352600160201b8083048216848c01529682048116838c0152600160601b9091046001600160401b03166060808401919091528a5161016081018c5289546001600160801b038082168352600160801b9182900481169c83019c909c52838a169c82019c909c5296880482169087015291850192909252600160481b850490921660a0840152600160501b8404821660c0840152600160701b909304851660e083015260028401549485166101008301529484048516610120820152600160a01b90930490931661014083015292506115cf906120fc565b600454611605908390839063ffffffff600160a81b8204811691600160c81b81049091169060ff600160a01b9091041642612142565b604080516101608101825283546001600160801b038082168352600160801b9182900481166020840152600186015463ffffffff80821695850195909552600160201b81048516606085015260ff600160401b820481166080860152600160481b8204811660a0860152600160501b8204861660c0860152600160701b909104821660e085015260028701549182166101008501529181048416610120840152600160a01b9081900484166101408401526004546116d2948693429383041691600160a81b9004166125a4565b604080516101608101825283546001600160801b038082168352600160801b9182900481166020840152600186015463ffffffff80821695850195909552600160201b81048516606085015260ff600160401b820481166080860152600160481b82041660a0850152600160501b8104851660c0850152600160701b9004811660e084015260028601549081166101008401529081048316610120830152600160a01b90049091166101408201525f90819061178f908442612654565b50909250905081156117ff576004805460405163cfab164d60e01b81526001600160a01b03898116938201939093526024810185905291169063cfab164d906044015f604051808303815f87803b1580156117e8575f5ffd5b505af11580156117fa573d5f5f3e3d5ffd5b505050505b801561186b576004805460025460405163cfab164d60e01b81526001600160a01b039182169381019390935260248301849052169063cfab164d906044015f604051808303815f87803b158015611854575f5ffd5b505af1158015611866573d5f5f3e3d5ffd5b505050505b505050600101805460ff60481b1916600160481b1790555050565b5f61188f6127df565b805490915060ff600160401b82041615906001600160401b03165f811580156118b55750825b90505f826001600160401b031660011480156118d05750303b155b9050811580156118de575080155b156118fc5760405163f92ee8a960e01b815260040160405180910390fd5b845467ffffffffffffffff19166001178555831561192657845460ff60401b1916600160401b1785555b61192f33612807565b600280546001600160a01b0388166001600160a01b03199091161790556005805467ffffffffffffffff191666038d7ea4c680001790556040805160808101825262015180808252612a306020830152610e10928201929092526060810161199e83660aa87bee538000613377565b6001600160401b039081169091525f808052602090815282517fad3228b676f7d3cd4284a5443f17f1962b36e491b30a40b2405849e597ba5fb5805485840151604087810151606098890151909716600160601b0267ffffffffffffffff60601b1963ffffffff988916600160401b0216600160401b600160a01b0319938916600160201b0267ffffffffffffffff1990951698909616979097179290921716929092179390931790925581516080810183526202a3008152612a3091810191909152610e1091810191909152908101611a7f83661550f7dca70000613377565b6001600160401b0390811690915260015f908152602090815282517fada5013122d395ba3c54772283fb069b10426056ef8ca54750cb9bb552a59e7d805485840151604087810151606098890151909716600160601b0267ffffffffffffffff60601b1963ffffffff988916600160401b0216600160401b600160a01b0319938916600160201b0267ffffffffffffffff1990951698909616979097179290921716929092179390931790925581516080810183526203f4808152612a3091810191909152610e1091810191909152908101611b6283662aa1efb94e0000613377565b6001600160401b0390811690915260025f908152602090815282517fabbb5caa7dda850e60932de0934eb1f9d0f59695050f761dc64e443e5030a569805485840151604087810151606098890151909716600160601b0267ffffffffffffffff60601b1963ffffffff988916600160401b0216600160401b600160a01b0319938916600160201b0267ffffffffffffffff199095169890961697909717929092171692909217939093179092558151608081018352620546008152612a3091810191909152610e1091810191909152908101611c4583662e2f6e5e148000613377565b6001600160401b0390811690915260035f908152602090815282517f101e368776582e57ab3d116ffe2517c0a585cd5b23174b01e275c2d8329c3d83805492850151604086015160609096015163ffffffff93841667ffffffffffffffff1990951694909417600160201b9184169190910217600160401b600160a01b031916600160401b929095169190910267ffffffffffffffff60601b191693909317600160601b9190921602179055508315611d3857845460ff60401b19168555604051600181527fc7f505b2f371ae2175ee4913f4499e1f2633a7b5936321eed1cdaeb6115181d29060200160405180910390a15b505050505050565b611d48612031565b600380546001600160a01b039384166001600160a01b03199182161790915560048054929093169116179055565b611d7e612031565b6001600160a01b038116611da757604051631e4fbdf760e01b81525f60048201526024016104ab565b611db08161208c565b50565b306001600160a01b037f0000000000000000000000000000000000000000000000000000000000000000161480611e3957507f00000000000000000000000000000000000000000000000000000000000000006001600160a01b0316611e2d5f51602061345b5f395f51905f52546001600160a01b031690565b6001600160a01b031614155b156108445760405163703e46dd60e11b815260040160405180910390fd5b611db0612031565b816001600160a01b03166352d1902d6040518163ffffffff1660e01b8152600401602060405180830381865afa925050508015611eb9575060408051601f3d908101601f19168201909252611eb69181019061338a565b60015b611ee157604051634c9c8ce360e01b81526001600160a01b03831660048201526024016104ab565b5f51602061345b5f395f51905f528114611f1157604051632a87526960e21b8152600481018290526024016104ab565b611f1b8383612818565b505050565b306001600160a01b037f000000000000000000000000000000000000000000000000000000000000000016146108445760405163703e46dd60e11b815260040160405180910390fd5b60408051610160810182525f80825260208201819052918101829052606081018290526080810182905260a0810182905260c0810182905260e08101829052610100810182905261012081018290526101408101919091525060408051610160810182526001600160801b03841681525f602082018190529181018290524263ffffffff166060820181905260ff8416608083015260a0820183905260c082015260e08101829052610100810182905261012081018290526101408101919091525b92915050565b336120637f9016d09d72d40fdae2fd8ceac6b6234c7706214fd39c1cd1e609a0528c199300546001600160a01b031690565b6001600160a01b0316146108445760405163118cdaa760e01b81523360048201526024016104ab565b7f9016d09d72d40fdae2fd8ceac6b6234c7706214fd39c1cd1e609a0528c19930080546001600160a01b031981166001600160a01b03848116918217845560405192169182907f8be0079c531659141344cd1fd0a4f28419497f9722a3daafe3b4186f6b6457e0905f90a3505050565b60a081015160ff1615611db05760405162461bcd60e51b815260206004820152600e60248201526d4f7264657220696e61637469766560901b60448201526064016104ab565b8115611d3857600186015463ffffffff808616600160501b909204161015611d38576002860154600160801b900463ffffffff165f03611d3857604080516101608101825287546001600160801b038082168352600160801b918290048116602084015260018a015463ffffffff80821695850195909552600160201b81048516606085015260ff600160401b820481166080860152600160481b82041660a0850152600160501b8104851660c0850152600160701b9004811660e084015260028a01549081166101008401529081048316610120830152600160a01b900482166101408201525f9161223b919088908590891661286d565b87549091505f90600160801b90046001600160801b0316821161225e575f61227a565b875461227a90600160801b90046001600160801b031683613350565b600189018054600160701b600160f01b031916600160701b6001600160801b0393909316929092029190911790555050506002909401805467ffffffffffffffff60801b1916600160801b63ffffffff9485160263ffffffff60a01b191617600160a01b92909316919091029190911790555050565b5f6122ff878787878787612948565b90508061233f5760405162461bcd60e51b815260206004820152600e60248201526d43616e6e6f742072657374616b6560901b60448201526064016104ab565b5f61234d88888888886129b4565b805190915061239e5760405162461bcd60e51b815260206004820152601c60248201527f4f72646572206e6f74206d617475726564206f7220657870697265640000000060448201526064016104ab565b5050505050505050565b5f5f6123b98989898888888c612ab0565b9050806040015115806123ce57508060800151155b806123da575080515f19145b156123e8575f9150506123f9565b6123f58989895f8a612522565b9150505b979650505050505050565b5f81801561242157508263ffffffff168460c0015163ffffffff16105b90505b9392505050565b60a084015160ff16156124715760405162461bcd60e51b815260206004820152600e60248201526d4f7264657220696e61637469766560901b60448201526064016104ab565b6060840151612484906301e13380613315565b63ffffffff168111156124c95760405162461bcd60e51b815260206004820152600d60248201526c13dc99195c88195e1c1a5c9959609a1b60448201526064016104ab565b8161251c576124da84848385612c0a565b61251c5760405162461bcd60e51b81526020600482015260136024820152724e6f7420696e20636c61696d2077696e646f7760681b60448201526064016104ab565b50505050565b5f5f6125308787878761286d565b90505f61253e888786612d4d565b90505f61254b82846133a1565b90505f8961010001516001600160801b03168a602001516001600160801b031661257591906133a1565b905080821161258a575f94505050505061259b565b6125948183613350565b9450505050505b95945050505050565b5f6125b286868686866129b4565b90508060400151156126065760405162461bcd60e51b815260206004820152601f60248201527f46726f7a656e207072652d6f726465722063616e6e6f7420756e7374616b650060448201526064016104ab565b8051611d385760405162461bcd60e51b815260206004820152601c60248201527f4f72646572206e6f74206d617475726564206f7220657870697265640000000060448201526064016104ab565b5f5f5f5f865f01516001600160801b031690505f6064886101000151896020015161267f9190613331565b61268a90605a6133b4565b61269491906133d6565b6001600160801b03169050818111156126ef5760405162461bcd60e51b815260206004820152601960248201527f436c61696d65642065786365656473207072696e636970616c0000000000000060448201526064016104ab565b5f6126fa8284613350565b9050606461270984600a613403565b6127139190613377565b945080851115612721578094505b61272b8582613350565b90505f885f01518a606001516127419190613315565b63ffffffff1690505f896040015163ffffffff168261276091906133a1565b90505f9550808911156127ce5760408a01515f9063ffffffff16612784838c613350565b61278e9190613377565b905080606461279e88600a613403565b6127a89190613377565b6127b29190613403565b9650838711156127c0578396505b6127ca8785613350565b9350505b829750505050505093509350939050565b5f807ff0c57e16840df040f15088dc2f81fe391c3923bec73e23a9662efc9c229c6a0061202b565b61280f612de3565b611db081612e08565b61282182612e10565b6040516001600160a01b038316907fbc7cd75a20ee27fd9adebab32041f755214dbc6bffa90cc0225b39da2e5c2d3b905f90a280511561286557611f1b8282612e73565b610524612f13565b5f8460a0015160ff165f1461288357505f612940565b8351606086015184915f916128989190613315565b63ffffffff169050808211156128ac578091505b5f841180156128ba57508382115b156128c3578391505b866060015163ffffffff1682116128de575f92505050612940565b5f876060015163ffffffff16836128f59190613350565b9050670de0b6b3a764000087606001516001600160401b0316828a5f01516001600160801b03166129269190613403565b6129309190613403565b61293a9190613377565b93505050505b949350505050565b5f5f61295788888888886129b4565b8051909150612969575f9150506129aa565b608088015160ff161561297c575f61297f565b60015b886080015161298e919061341a565b60ff168360ff1610156129a4575f9150506129aa565b60019150505b9695505050505050565b604080516060810182525f80825260208201819052918101919091528280156129ec57508163ffffffff168660c0015163ffffffff16105b1515604082015260a086015160ff1615612a15575f8082525f196020830152604082015261259b565b806040015115612a2e575f81525f19602082015261259b565b845160608701515f91612a4091613315565b63ffffffff1690505f87606001516301e13380612a5d9190613315565b63ffffffff16905081861015612a84575f8352612a7a8683613350565b6020840152612aa5565b808611612a9a57600183525f6020840152612aa5565b5f83525f1960208401525b505095945050505050565b60408051610100810182525f80825260208201819052918101829052606081018290526080810182905260a0810182905260c0810182905260e08101919091526060880151875163ffffffff918216915f91612b0d9116836133a1565b90505f612b1e836301e133806133a1565b9050878015612b3c57508663ffffffff168b60c0015163ffffffff16105b151560a085018190525f90612b56908d908d908d90612c0a565b90505f612b7c8d8d8d8960a00151612b6e575f612b70565b8c5b63ffffffff168b612522565b90508c60a0015160ff165f148015612b915750815b8015612b9c57505f81115b151560408701819052612bb0575f19612bb2565b5f5b86525f612bc28e8e8e8e8e6129b4565b805115156060890152602080820151908901529050612be58e8e8e8e8e8e612948565b15156080880152505050881160c08401529096101560e0820152979650505050505050565b5f8115612c1957506001612940565b6060850151845163ffffffff918216915f91612c369116836133a1565b9050856040015163ffffffff1681612c4e91906133a1565b851115612c5f575f92505050612940565b6020860151612c749063ffffffff16836133a1565b851015612c85575f92505050612940565b5f612c908387613350565b90505f876020015163ffffffff1682612ca99190613377565b90505f8860200151895f0151612cbf9190613433565b63ffffffff16905080821115612cd3578091505b896040015163ffffffff168211612cf1575f95505050505050612940565b5f896020015163ffffffff1683612d089190613403565b612d1290876133a1565b90505f8a6040015163ffffffff1682612d2b91906133a1565b9050818a10158015612d3d5750808a11155b9c9b505050505050505050505050565b5f83610120015163ffffffff165f03612d6757505f612424565b5f6201518085610120015163ffffffff1685612d839190613350565b612d8d9190613377565b90505f612d9a8483613403565b9050670de0b6b3a7640000811115612db75750670de0b6b3a76400005b670de0b6b3a7640000818760e001516001600160801b0316612dd99190613403565b6129aa9190613377565b612deb612f32565b61084457604051631afcd79f60e31b815260040160405180910390fd5b611d7e612de3565b806001600160a01b03163b5f03612e4557604051634c9c8ce360e01b81526001600160a01b03821660048201526024016104ab565b5f51602061345b5f395f51905f5280546001600160a01b0319166001600160a01b0392909216919091179055565b60605f612e808484612f4b565b9050808015612ea157505f3d1180612ea157505f846001600160a01b03163b115b15612eb657612eae612f5e565b91505061202b565b8015612ee057604051639996b31560e01b81526001600160a01b03851660048201526024016104ab565b3d15612ef357612eee612f77565b612f0c565b60405163d6bda27560e01b815260040160405180910390fd5b5092915050565b34156108445760405163b398979f60e01b815260040160405180910390fd5b5f612f3b6127df565b54600160401b900460ff16919050565b5f5f5f835160208501865af49392505050565b6040513d81523d5f602083013e3d602001810160405290565b6040513d5f823e3d81fd5b80356001600160a01b0381168114612f98575f5ffd5b919050565b634e487b7160e01b5f52604160045260245ffd5b5f5f60408385031215612fc2575f5ffd5b612fcb83612f82565b915060208301356001600160401b03811115612fe5575f5ffd5b8301601f81018513612ff5575f5ffd5b80356001600160401b0381111561300e5761300e612f9d565b604051601f8201601f19908116603f011681016001600160401b038111828210171561303c5761303c612f9d565b604052818152828201602001871015613053575f5ffd5b816020840160208301375f602083830101528093505050509250929050565b803560ff81168114612f98575f5ffd5b5f5f5f60608486031215613094575f5ffd5b61309d84612f82565b9250602084013591506130b260408501613072565b90509250925092565b5f602082840312156130cb575f5ffd5b61242482612f82565b602080825282518282018190525f918401906040840190835b8181101561321657835180516001600160801b03168452602081015161311e60208601826001600160801b03169052565b506040810151613136604086018263ffffffff169052565b50606081015161314e606086018263ffffffff169052565b506080810151613163608086018260ff169052565b5060a081015161317860a086018260ff169052565b5060c081015161319060c086018263ffffffff169052565b5060e08101516131ab60e08601826001600160801b03169052565b506101008101516131c86101008601826001600160801b03169052565b506101208101516131e261012086018263ffffffff169052565b5061014081015190506131fe61014085018263ffffffff169052565b506020939093019261016092909201916001016130ed565b509095945050505050565b5f5f60408385031215613232575f5ffd5b61323b83612f82565b946020939093013593505050565b5f60208284031215613259575f5ffd5b61242482613072565b602081525f82518060208401528060208501604085015e5f604082850101526040601f19601f83011684010191505092915050565b5f5f604083850312156132a8575f5ffd5b6132b183612f82565b91506132bf60208401612f82565b90509250929050565b6020808252600b908201526a2737ba103832b936b4ba1760a91b604082015260600190565b634e487b7160e01b5f52603260045260245ffd5b634e487b7160e01b5f52601160045260245ffd5b63ffffffff818116838216019081111561202b5761202b613301565b6001600160801b03818116838216019081111561202b5761202b613301565b8181038181111561202b5761202b613301565b634e487b7160e01b5f52601260045260245ffd5b5f8261338557613385613363565b500490565b5f6020828403121561339a575f5ffd5b5051919050565b8082018082111561202b5761202b613301565b6001600160801b038181168382160290811690818114612f0c57612f0c613301565b5f6001600160801b038316806133ee576133ee613363565b806001600160801b0384160491505092915050565b808202811582820484141761202b5761202b613301565b60ff818116838216019081111561202b5761202b613301565b5f63ffffffff83168061344857613448613363565b8063ffffffff8416049150509291505056fe360894a13ba1a3210667c828492db98dca3e2076cc3735a920a3ca505d382bbca264697066735822122014ff9182a13ebb92706769214ffe02a6d52e1633bbd1724985eecc4e06eea21e64736f6c634300081e0033","linkReferences":{}},"methodIdentifiers":{"UPGRADE_INTERFACE_VERSION()":"ad3cb1cc","claim(address,uint256)":"aad3ec96","getOrderInfo(address,uint256)":"82510bcf","getUserOrders(address)":"63c69f08","initialize(address)":"c4d66de8","owner()":"8da5cb5b","pause()":"8456cb59","pauseTime()":"015cb3ff","paused()":"5c975abb","proxiableUUID()":"52d1902d","releaseRatePerDay()":"11d72f1c","renounceOwnership()":"715018a6","restake(address,uint256,uint8)":"85cf4f9d","resume()":"046f7da2","setAddrConfig(address,address)":"ddae84cc","stake(address,uint256,uint8)":"6341c060","stakePlans(uint8)":"8c81dabe","transferOwnership(address)":"f2fde38b","unstake(address,uint256)":"c2a672e0","upgradeToAndCall(address,bytes)":"4f1ef286"},"id":56}