{"abi":[{"type":"function","name":"UPGRADE_INTERFACE_VERSION","inputs":[],"outputs":[{"name":"","type":"string","internalType":"string"}],"stateMutability":"view"},{"type":"function","name":"initialize","inputs":[],"outputs":[],"stateMutability":"nonpayable"},{"type":"function","name":"owner","inputs":[],"outputs":[{"name":"","type":"address","internalType":"address"}],"stateMutability":"view"},{"type":"function","name":"proxiableUUID","inputs":[],"outputs":[{"name":"","type":"bytes32","internalType":"bytes32"}],"stateMutability":"view"},{"type":"function","name":"renounceOwnership","inputs":[],"outputs":[],"stateMutability":"nonpayable"},{"type":"function","name":"transferOwnership","inputs":[{"name":"newOwner","type":"address","internalType":"address"}],"outputs":[],"stateMutability":"nonpayable"},{"type":"function","name":"upgradeToAndCall","inputs":[{"name":"newImplementation","type":"address","internalType":"address"},{"name":"data","type":"bytes","internalType":"bytes"}],"outputs":[],"stateMutability":"payable"},{"type":"event","name":"Initialized","inputs":[{"name":"version","type":"uint64","indexed":false,"internalType":"uint64"}],"anonymous":false},{"type":"event","name":"OwnershipTransferred","inputs":[{"name":"previousOwner","type":"address","indexed":true,"internalType":"address"},{"name":"newOwner","type":"address","indexed":true,"internalType":"address"}],"anonymous":false},{"type":"event","name":"Upgraded","inputs":[{"name":"implementation","type":"address","indexed":true,"internalType":"address"}],"anonymous":false},{"type":"error","name":"AddressEmptyCode","inputs":[{"name":"target","type":"address","internalType":"address"}]},{"type":"error","name":"ERC1967InvalidImplementation","inputs":[{"name":"implementation","type":"address","internalType":"address"}]},{"type":"error","name":"ERC1967NonPayable","inputs":[]},{"type":"error","name":"FailedCall","inputs":[]},{"type":"error","name":"InvalidInitialization","inputs":[]},{"type":"error","name":"NotInitializing","inputs":[]},{"type":"error","name":"OwnableInvalidOwner","inputs":[{"name":"owner","type":"address","internalType":"address"}]},{"type":"error","name":"OwnableUnauthorizedAccount","inputs":[{"name":"account","type":"address","internalType":"address"}]},{"type":"error","name":"UUPSUnauthorizedCallContext","inputs":[]},{"type":"error","name":"UUPSUnsupportedProxiableUUID","inputs":[{"name":"slot","type":"bytes32","internalType":"bytes32"}]}],"bytecode":{"object":"0x60a0604052306080523480156012575f5ffd5b506080516109646100395f395f818161030a01528181610333015261047701526109645ff3fe60806040526004361061006e575f3560e01c80638129fc1c1161004c5780638129fc1c146100c25780638da5cb5b146100d6578063ad3cb1cc1461011c578063f2fde38b14610159575f5ffd5b80634f1ef2861461007257806352d1902d14610087578063715018a6146100ae575b5f5ffd5b6100856100803660046107de565b610178565b005b348015610092575f5ffd5b5061009b610197565b6040519081526020015b60405180910390f35b3480156100b9575f5ffd5b506100856101b2565b3480156100cd575f5ffd5b506100856101c5565b3480156100e1575f5ffd5b507f9016d09d72d40fdae2fd8ceac6b6234c7706214fd39c1cd1e609a0528c199300546040516001600160a01b0390911681526020016100a5565b348015610127575f5ffd5b5061014c604051806040016040528060058152602001640352e302e360dc1b81525081565b6040516100a591906108a2565b348015610164575f5ffd5b506100856101733660046108d7565b6102bd565b6101806102ff565b610189826103a3565b61019382826103ab565b5050565b5f6101a061046c565b505f51602061090f5f395f51905f5290565b6101ba6104b5565b6101c35f610510565b565b5f6101ce610580565b805490915060ff600160401b820416159067ffffffffffffffff165f811580156101f55750825b90505f8267ffffffffffffffff1660011480156102115750303b155b90508115801561021f575080155b1561023d5760405163f92ee8a960e01b815260040160405180910390fd5b845467ffffffffffffffff19166001178555831561026757845460ff60401b1916600160401b1785555b610270336105aa565b83156102b657845460ff60401b19168555604051600181527fc7f505b2f371ae2175ee4913f4499e1f2633a7b5936321eed1cdaeb6115181d29060200160405180910390a15b5050505050565b6102c56104b5565b6001600160a01b0381166102f357604051631e4fbdf760e01b81525f60048201526024015b60405180910390fd5b6102fc81610510565b50565b306001600160a01b037f000000000000000000000000000000000000000000000000000000000000000016148061038557507f00000000000000000000000000000000000000000000000000000000000000006001600160a01b03166103795f51602061090f5f395f51905f52546001600160a01b031690565b6001600160a01b031614155b156101c35760405163703e46dd60e11b815260040160405180910390fd5b6102fc6104b5565b816001600160a01b03166352d1902d6040518163ffffffff1660e01b8152600401602060405180830381865afa925050508015610405575060408051601f3d908101601f19168201909252610402918101906108f7565b60015b61042d57604051634c9c8ce360e01b81526001600160a01b03831660048201526024016102ea565b5f51602061090f5f395f51905f52811461045d57604051632a87526960e21b8152600481018290526024016102ea565b61046783836105bb565b505050565b306001600160a01b037f000000000000000000000000000000000000000000000000000000000000000016146101c35760405163703e46dd60e11b815260040160405180910390fd5b336104e77f9016d09d72d40fdae2fd8ceac6b6234c7706214fd39c1cd1e609a0528c199300546001600160a01b031690565b6001600160a01b0316146101c35760405163118cdaa760e01b81523360048201526024016102ea565b7f9016d09d72d40fdae2fd8ceac6b6234c7706214fd39c1cd1e609a0528c19930080546001600160a01b031981166001600160a01b03848116918217845560405192169182907f8be0079c531659141344cd1fd0a4f28419497f9722a3daafe3b4186f6b6457e0905f90a3505050565b5f807ff0c57e16840df040f15088dc2f81fe391c3923bec73e23a9662efc9c229c6a005b92915050565b6105b2610610565b6102fc81610635565b6105c48261063d565b6040516001600160a01b038316907fbc7cd75a20ee27fd9adebab32041f755214dbc6bffa90cc0225b39da2e5c2d3b905f90a28051156106085761046782826106a0565b610193610740565b61061861075f565b6101c357604051631afcd79f60e31b815260040160405180910390fd5b6102c5610610565b806001600160a01b03163b5f0361067257604051634c9c8ce360e01b81526001600160a01b03821660048201526024016102ea565b5f51602061090f5f395f51905f5280546001600160a01b0319166001600160a01b0392909216919091179055565b60605f6106ad8484610778565b90508080156106ce57505f3d11806106ce57505f846001600160a01b03163b115b156106e3576106db61078b565b9150506105a4565b801561070d57604051639996b31560e01b81526001600160a01b03851660048201526024016102ea565b3d156107205761071b6107a4565b610739565b60405163d6bda27560e01b815260040160405180910390fd5b5092915050565b34156101c35760405163b398979f60e01b815260040160405180910390fd5b5f610768610580565b54600160401b900460ff16919050565b5f5f5f835160208501865af49392505050565b6040513d81523d5f602083013e3d602001810160405290565b6040513d5f823e3d81fd5b80356001600160a01b03811681146107c5575f5ffd5b919050565b634e487b7160e01b5f52604160045260245ffd5b5f5f604083850312156107ef575f5ffd5b6107f8836107af565b9150602083013567ffffffffffffffff811115610813575f5ffd5b8301601f81018513610823575f5ffd5b803567ffffffffffffffff81111561083d5761083d6107ca565b604051601f8201601f19908116603f0116810167ffffffffffffffff8111828210171561086c5761086c6107ca565b604052818152828201602001871015610883575f5ffd5b816020840160208301375f602083830101528093505050509250929050565b602081525f82518060208401528060208501604085015e5f604082850101526040601f19601f83011684010191505092915050565b5f602082840312156108e7575f5ffd5b6108f0826107af565b9392505050565b5f60208284031215610907575f5ffd5b505191905056fe360894a13ba1a3210667c828492db98dca3e2076cc3735a920a3ca505d382bbca264697066735822122032c7a9378632d3954fde47334c1a508548624e57685c5f70fe0379885906b3b364736f6c634300081e0033","linkReferences":{}},"methodIdentifiers":{"UPGRADE_INTERFACE_VERSION()":"ad3cb1cc","initialize()":"8129fc1c","owner()":"8da5cb5b","proxiableUUID()":"52d1902d","renounceOwnership()":"715018a6","transferOwnership(address)":"f2fde38b","upgradeToAndCall(address,bytes)":"4f1ef286"},"id":50}