{"abi":[{"type":"function","name":"UPGRADE_INTERFACE_VERSION","inputs":[],"outputs":[{"name":"","type":"string","internalType":"string"}],"stateMutability":"view"},{"type":"function","name":"USDT","inputs":[],"outputs":[{"name":"","type":"address","internalType":"address"}],"stateMutability":"view"},{"type":"function","name":"accRewardPerShare","inputs":[],"outputs":[{"name":"","type":"uint256","internalType":"uint256"}],"stateMutability":"view"},{"type":"function","name":"add","inputs":[{"name":"user","type":"address","internalType":"address"},{"name":"amount","type":"uint256","internalType":"uint256"}],"outputs":[],"stateMutability":"nonpayable"},{"type":"function","name":"admin","inputs":[],"outputs":[{"name":"","type":"address","internalType":"address"}],"stateMutability":"view"},{"type":"function","name":"claim","inputs":[],"outputs":[],"stateMutability":"nonpayable"},{"type":"function","name":"getAmountsOut","inputs":[{"name":"amountLeo","type":"uint256","internalType":"uint256"}],"outputs":[{"name":"","type":"uint256","internalType":"uint256"}],"stateMutability":"view"},{"type":"function","name":"getUserAward","inputs":[{"name":"user","type":"address","internalType":"address"}],"outputs":[{"name":"","type":"uint256","internalType":"uint256"}],"stateMutability":"view"},{"type":"function","name":"getUserInfo","inputs":[{"name":"user","type":"address","internalType":"address"}],"outputs":[{"name":"staking","type":"uint256","internalType":"uint256"},{"name":"usdtValue","type":"uint256","internalType":"uint256"},{"name":"truthAward","type":"uint256","internalType":"uint256"}],"stateMutability":"view"},{"type":"function","name":"initialize","inputs":[{"name":"_USDT","type":"address","internalType":"address"},{"name":"_treasuryLiquidity","type":"address","internalType":"address"},{"name":"_lex","type":"address","internalType":"address"},{"name":"_leo","type":"address","internalType":"address"},{"name":"_admin","type":"address","internalType":"address"}],"outputs":[],"stateMutability":"nonpayable"},{"type":"function","name":"leo","inputs":[],"outputs":[{"name":"","type":"address","internalType":"address"}],"stateMutability":"view"},{"type":"function","name":"lex","inputs":[],"outputs":[{"name":"","type":"address","internalType":"address"}],"stateMutability":"view"},{"type":"function","name":"owner","inputs":[],"outputs":[{"name":"","type":"address","internalType":"address"}],"stateMutability":"view"},{"type":"function","name":"pancakeRouter","inputs":[],"outputs":[{"name":"","type":"address","internalType":"contract IUniswapV2Router02"}],"stateMutability":"view"},{"type":"function","name":"proxiableUUID","inputs":[],"outputs":[{"name":"","type":"bytes32","internalType":"bytes32"}],"stateMutability":"view"},{"type":"function","name":"reduce","inputs":[{"name":"user","type":"address","internalType":"address"},{"name":"amount","type":"uint256","internalType":"uint256"}],"outputs":[],"stateMutability":"nonpayable"},{"type":"function","name":"renounceOwnership","inputs":[],"outputs":[],"stateMutability":"nonpayable"},{"type":"function","name":"totalStaking","inputs":[],"outputs":[{"name":"","type":"uint256","internalType":"uint256"}],"stateMutability":"view"},{"type":"function","name":"transferOwnership","inputs":[{"name":"newOwner","type":"address","internalType":"address"}],"outputs":[],"stateMutability":"nonpayable"},{"type":"function","name":"treasuryLiquidity","inputs":[],"outputs":[{"name":"","type":"address","internalType":"address"}],"stateMutability":"view"},{"type":"function","name":"updateFarm","inputs":[{"name":"amount","type":"uint256","internalType":"uint256"}],"outputs":[],"stateMutability":"nonpayable"},{"type":"function","name":"upgradeToAndCall","inputs":[{"name":"newImplementation","type":"address","internalType":"address"},{"name":"data","type":"bytes","internalType":"bytes"}],"outputs":[],"stateMutability":"payable"},{"type":"function","name":"userInfo","inputs":[{"name":"","type":"address","internalType":"address"}],"outputs":[{"name":"staking","type":"uint256","internalType":"uint256"},{"name":"pending","type":"uint256","internalType":"uint256"},{"name":"debt","type":"uint256","internalType":"uint256"},{"name":"usdtValue","type":"uint256","internalType":"uint256"}],"stateMutability":"view"},{"type":"event","name":"Initialized","inputs":[{"name":"version","type":"uint64","indexed":false,"internalType":"uint64"}],"anonymous":false},{"type":"event","name":"OwnershipTransferred","inputs":[{"name":"previousOwner","type":"address","indexed":true,"internalType":"address"},{"name":"newOwner","type":"address","indexed":true,"internalType":"address"}],"anonymous":false},{"type":"event","name":"Upgraded","inputs":[{"name":"implementation","type":"address","indexed":true,"internalType":"address"}],"anonymous":false},{"type":"error","name":"AddressEmptyCode","inputs":[{"name":"target","type":"address","internalType":"address"}]},{"type":"error","name":"ERC1967InvalidImplementation","inputs":[{"name":"implementation","type":"address","internalType":"address"}]},{"type":"error","name":"ERC1967NonPayable","inputs":[]},{"type":"error","name":"FailedCall","inputs":[]},{"type":"error","name":"InvalidInitialization","inputs":[]},{"type":"error","name":"NotInitializing","inputs":[]},{"type":"error","name":"OwnableInvalidOwner","inputs":[{"name":"owner","type":"address","internalType":"address"}]},{"type":"error","name":"OwnableUnauthorizedAccount","inputs":[{"name":"account","type":"address","internalType":"address"}]},{"type":"error","name":"UUPSUnauthorizedCallContext","inputs":[]},{"type":"error","name":"UUPSUnsupportedProxiableUUID","inputs":[{"name":"slot","type":"bytes32","internalType":"bytes32"}]}],"bytecode":{"object":"0x60a0604052306080523480156012575f5ffd5b5060805161169f6100395f395f8181610df701528181610e200152610f5f015261169f5ff3fe60806040526004361061013c575f3560e01c8063715018a6116100b3578063c21ebd071161006d578063c21ebd07146103d2578063c54e44eb146103f9578063cc430ced14610417578063f2fde38b14610436578063f5d82b6b14610455578063f851a44014610474575f5ffd5b8063715018a6146102f25780637d0a1518146103065780638da5cb5b14610325578063939d623714610361578063ad3cb1cc14610376578063c1153aaa146103b3575f5ffd5b80633e4ff6f2116101045780633e4ff6f21461023f57806342728ffd1461025e5780634e71d92d1461027d5780634f1ef2861461029157806352d1902d146102a45780636386c1c7146102b8575f5ffd5b806309fb6698146101405780631395e6401461017c5780631459457a1461019d578063165defa4146101bc5780631959a002146101df575b5f5ffd5b34801561014b575f5ffd5b5060015461015f906001600160a01b031681565b6040516001600160a01b0390911681526020015b60405180910390f35b348015610187575f5ffd5b5061019b610196366004611277565b610493565b005b3480156101a8575f5ffd5b5061019b6101b736600461129f565b6105c5565b3480156101c7575f5ffd5b506101d160065481565b604051908152602001610173565b3480156101ea575f5ffd5b5061021f6101f9366004611300565b60056020525f908152604090208054600182015460028301546003909301549192909184565b604080519485526020850193909352918301526060820152608001610173565b34801561024a575f5ffd5b506101d1610259366004611300565b610717565b348015610269575f5ffd5b5060035461015f906001600160a01b031681565b348015610288575f5ffd5b5061019b6107aa565b61019b61029f366004611365565b610915565b3480156102af575f5ffd5b506101d1610934565b3480156102c3575f5ffd5b506102d76102d2366004611300565b61094f565b60408051938452602084019290925290820152606001610173565b3480156102fd575f5ffd5b5061019b6109ae565b348015610311575f5ffd5b5060025461015f906001600160a01b031681565b348015610330575f5ffd5b507f9016d09d72d40fdae2fd8ceac6b6234c7706214fd39c1cd1e609a0528c199300546001600160a01b031661015f565b34801561036c575f5ffd5b506101d160075481565b348015610381575f5ffd5b506103a6604051806040016040528060058152602001640352e302e360dc1b81525081565b604051610173919061140a565b3480156103be575f5ffd5b506101d16103cd36600461143f565b6109c1565b3480156103dd575f5ffd5b5061015f7310ed43c718714eb63d5aa57b78b54704e256024e81565b348015610404575f5ffd5b505f5461015f906001600160a01b031681565b348015610422575f5ffd5b5061019b61043136600461143f565b6109d1565b348015610441575f5ffd5b5061019b610450366004611300565b610a50565b348015610460575f5ffd5b5061019b61046f366004611277565b610a8a565b34801561047f575f5ffd5b5060045461015f906001600160a01b031681565b6004546001600160a01b031633146104c65760405162461bcd60e51b81526004016104bd90611456565b60405180910390fd5b6001600160a01b0382165f90815260056020526040902080548211156105175760405162461bcd60e51b8152602060048201526006602482015265195e18d9595960d21b60448201526064016104bd565b5f8160020154670de0b6b3a7640000600754845f0154610537919061148f565b61054191906114a6565b61054b91906114c5565b905080826001015f82825461056091906114d8565b90915550508154839083905f906105789084906114c5565b925050819055508260065f82825461059091906114c5565b90915550506007548254670de0b6b3a7640000916105ad9161148f565b6105b791906114a6565b826002018190555050505050565b5f6105ce610b7d565b805490915060ff600160401b820416159067ffffffffffffffff165f811580156105f55750825b90505f8267ffffffffffffffff1660011480156106115750303b155b90508115801561061f575080155b1561063d5760405163f92ee8a960e01b815260040160405180910390fd5b845467ffffffffffffffff19166001178555831561066757845460ff60401b1916600160401b1785555b61067033610ba5565b5f80546001600160a01b03199081166001600160a01b038d8116919091179092556001805482168c84161790556002805482168b84161790556003805482168a841617905560048054909116918816919091179055831561070b57845460ff60401b19168555604051600181527fc7f505b2f371ae2175ee4913f4499e1f2633a7b5936321eed1cdaeb6115181d29060200160405180910390a15b50505050505050505050565b6001600160a01b0381165f90815260056020908152604080832081516080810183528154808252600183015494820194909452600282015492810183905260039091015460608201526007549092849291670de0b6b3a76400009161077c919061148f565b61078691906114a6565b61079091906114c5565b90508082602001516107a291906114d8565b949350505050565b335f90815260056020526040812060028101546007548254929392670de0b6b3a7640000916107d89161148f565b6107e291906114a6565b6107ec91906114c5565b90508160010154816107fe91906114d8565b90505f811161083b5760405162461bcd60e51b81526020600482015260096024820152681b9bc81c995dd85c9960ba1b60448201526064016104bd565b5f60018301556007548254670de0b6b3a7640000916108599161148f565b61086391906114a6565b60028301555f61087282610bb6565b9050825f015481846003015461088891906114d8565b106108e157600383015483545f9161089f916114c5565b90505f826108ad838661148f565b6108b791906114a6565b8554600380880191909155549091506108da906001600160a01b03163383610cdd565b5050505050565b80836003015f8282546108f491906114d8565b9091555050600354610910906001600160a01b03163384610cdd565b505050565b61091d610dec565b61092682610e90565b6109308282610e98565b5050565b5f61093d610f54565b505f51602061164a5f395f51905f5290565b6001600160a01b0381165f9081526005602090815260408083208151608081018352815480825260018301549482019490945260028201549281019290925260030154606082018190529192906109a585610717565b93959294505050565b6109b6610f9d565b6109bf5f610ff8565b565b5f6109cb82610bb6565b92915050565b6001546001600160a01b03163314806109f457506002546001600160a01b031633145b610a105760405162461bcd60e51b81526004016104bd90611456565b60065415610a4d57600654610a2d670de0b6b3a76400008361148f565b610a3791906114a6565b60075f828254610a4791906114d8565b90915550505b50565b610a58610f9d565b6001600160a01b038116610a8157604051631e4fbdf760e01b81525f60048201526024016104bd565b610a4d81610ff8565b6004546001600160a01b03163314610ab45760405162461bcd60e51b81526004016104bd90611456565b6001600160a01b0382165f908152600560205260409020805415610b22575f8160020154670de0b6b3a7640000600754845f0154610af2919061148f565b610afc91906114a6565b610b0691906114c5565b905080826001015f828254610b1b91906114d8565b9091555050505b81815f015f828254610b3491906114d8565b925050819055508160065f828254610b4c91906114d8565b90915550506007548154670de0b6b3a764000091610b699161148f565b610b7391906114a6565b6002909101555050565b5f807ff0c57e16840df040f15088dc2f81fe391c3923bec73e23a9662efc9c229c6a006109cb565b610bad611068565b610a4d8161108d565b6040805160028082526060820183525f9283929190602083019080368337505060035482519293506001600160a01b0316918391505f90610bf957610bf96114eb565b6001600160a01b0392831660209182029290920101525f54825191169082906001908110610c2957610c296114eb565b6001600160a01b039092166020928302919091019091015260405163d06ca61f60e01b81527310ed43c718714eb63d5aa57b78b54704e256024e9063d06ca61f90610c7a90869085906004016114ff565b5f60405180830381865afa158015610c94573d5f5f3e3d5ffd5b505050506040513d5f823e601f3d908101601f19168201604052610cbb9190810190611555565b600181518110610ccd57610ccd6114eb565b6020026020010151915050919050565b604080516001600160a01b038481166024830152604480830185905283518084039091018152606490920183526020820180516001600160e01b031663a9059cbb60e01b17905291515f92839290871691610d3891906115fd565b5f604051808303815f865af19150503d805f8114610d71576040519150601f19603f3d011682016040523d82523d5f602084013e610d76565b606091505b5091509150818015610da0575080511580610da0575080806020019051810190610da09190611613565b6108da5760405162461bcd60e51b815260206004820152601f60248201527f5472616e7366657248656c7065723a205452414e534645525f4641494c45440060448201526064016104bd565b306001600160a01b037f0000000000000000000000000000000000000000000000000000000000000000161480610e7257507f00000000000000000000000000000000000000000000000000000000000000006001600160a01b0316610e665f51602061164a5f395f51905f52546001600160a01b031690565b6001600160a01b031614155b156109bf5760405163703e46dd60e11b815260040160405180910390fd5b610a4d610f9d565b816001600160a01b03166352d1902d6040518163ffffffff1660e01b8152600401602060405180830381865afa925050508015610ef2575060408051601f3d908101601f19168201909252610eef91810190611632565b60015b610f1a57604051634c9c8ce360e01b81526001600160a01b03831660048201526024016104bd565b5f51602061164a5f395f51905f528114610f4a57604051632a87526960e21b8152600481018290526024016104bd565b6109108383611095565b306001600160a01b037f000000000000000000000000000000000000000000000000000000000000000016146109bf5760405163703e46dd60e11b815260040160405180910390fd5b33610fcf7f9016d09d72d40fdae2fd8ceac6b6234c7706214fd39c1cd1e609a0528c199300546001600160a01b031690565b6001600160a01b0316146109bf5760405163118cdaa760e01b81523360048201526024016104bd565b7f9016d09d72d40fdae2fd8ceac6b6234c7706214fd39c1cd1e609a0528c19930080546001600160a01b031981166001600160a01b03848116918217845560405192169182907f8be0079c531659141344cd1fd0a4f28419497f9722a3daafe3b4186f6b6457e0905f90a3505050565b6110706110ea565b6109bf57604051631afcd79f60e31b815260040160405180910390fd5b610a58611068565b61109e82611103565b6040516001600160a01b038316907fbc7cd75a20ee27fd9adebab32041f755214dbc6bffa90cc0225b39da2e5c2d3b905f90a28051156110e2576109108282611166565b610930611206565b5f6110f3610b7d565b54600160401b900460ff16919050565b806001600160a01b03163b5f0361113857604051634c9c8ce360e01b81526001600160a01b03821660048201526024016104bd565b5f51602061164a5f395f51905f5280546001600160a01b0319166001600160a01b0392909216919091179055565b60605f6111738484611225565b905080801561119457505f3d118061119457505f846001600160a01b03163b115b156111a9576111a1611238565b9150506109cb565b80156111d357604051639996b31560e01b81526001600160a01b03851660048201526024016104bd565b3d156111e6576111e1611251565b6111ff565b60405163d6bda27560e01b815260040160405180910390fd5b5092915050565b34156109bf5760405163b398979f60e01b815260040160405180910390fd5b5f5f5f835160208501865af49392505050565b6040513d81523d5f602083013e3d602001810160405290565b6040513d5f823e3d81fd5b80356001600160a01b0381168114611272575f5ffd5b919050565b5f5f60408385031215611288575f5ffd5b6112918361125c565b946020939093013593505050565b5f5f5f5f5f60a086880312156112b3575f5ffd5b6112bc8661125c565b94506112ca6020870161125c565b93506112d86040870161125c565b92506112e66060870161125c565b91506112f46080870161125c565b90509295509295909350565b5f60208284031215611310575f5ffd5b6113198261125c565b9392505050565b634e487b7160e01b5f52604160045260245ffd5b604051601f8201601f1916810167ffffffffffffffff8111828210171561135d5761135d611320565b604052919050565b5f5f60408385031215611376575f5ffd5b61137f8361125c565b9150602083013567ffffffffffffffff81111561139a575f5ffd5b8301601f810185136113aa575f5ffd5b803567ffffffffffffffff8111156113c4576113c4611320565b6113d7601f8201601f1916602001611334565b8181528660208385010111156113eb575f5ffd5b816020840160208301375f602083830101528093505050509250929050565b602081525f82518060208401528060208501604085015e5f604082850101526040601f19601f83011684010191505092915050565b5f6020828403121561144f575f5ffd5b5035919050565b6020808252600b908201526a2737ba103832b936b4ba1760a91b604082015260600190565b634e487b7160e01b5f52601160045260245ffd5b80820281158282048414176109cb576109cb61147b565b5f826114c057634e487b7160e01b5f52601260045260245ffd5b500490565b818103818111156109cb576109cb61147b565b808201808211156109cb576109cb61147b565b634e487b7160e01b5f52603260045260245ffd5b5f60408201848352604060208401528084518083526060850191506020860192505f5b818110156115495783516001600160a01b0316835260209384019390920191600101611522565b50909695505050505050565b5f60208284031215611565575f5ffd5b815167ffffffffffffffff81111561157b575f5ffd5b8201601f8101841361158b575f5ffd5b805167ffffffffffffffff8111156115a5576115a5611320565b8060051b6115b560208201611334565b918252602081840181019290810190878411156115d0575f5ffd5b6020850194505b838510156115f25784518252602094850194909101906115d7565b979650505050505050565b5f82518060208501845e5f920191825250919050565b5f60208284031215611623575f5ffd5b81518015158114611319575f5ffd5b5f60208284031215611642575f5ffd5b505191905056fe360894a13ba1a3210667c828492db98dca3e2076cc3735a920a3ca505d382bbca264697066735822122050b1f0086b58b6203188775191d76ade0c90bc1967eddf021d7f28c317f0296364736f6c634300081e0033","linkReferences":{}},"methodIdentifiers":{"UPGRADE_INTERFACE_VERSION()":"ad3cb1cc","USDT()":"c54e44eb","accRewardPerShare()":"939d6237","add(address,uint256)":"f5d82b6b","admin()":"f851a440","claim()":"4e71d92d","getAmountsOut(uint256)":"c1153aaa","getUserAward(address)":"3e4ff6f2","getUserInfo(address)":"6386c1c7","initialize(address,address,address,address,address)":"1459457a","leo()":"42728ffd","lex()":"7d0a1518","owner()":"8da5cb5b","pancakeRouter()":"c21ebd07","proxiableUUID()":"52d1902d","reduce(address,uint256)":"1395e640","renounceOwnership()":"715018a6","totalStaking()":"165defa4","transferOwnership(address)":"f2fde38b","treasuryLiquidity()":"09fb6698","updateFarm(uint256)":"cc430ced","upgradeToAndCall(address,bytes)":"4f1ef286","userInfo(address)":"1959a002"},"id":33}