{"abi":[{"type":"function","name":"UPGRADE_INTERFACE_VERSION","inputs":[],"outputs":[{"name":"","type":"string","internalType":"string"}],"stateMutability":"view"},{"type":"function","name":"USDT","inputs":[],"outputs":[{"name":"","type":"address","internalType":"address"}],"stateMutability":"view"},{"type":"function","name":"_getAmountsOut","inputs":[{"name":"fromToken","type":"address","internalType":"address"},{"name":"toToken","type":"address","internalType":"address"},{"name":"fromAmount","type":"uint256","internalType":"uint256"}],"outputs":[{"name":"","type":"uint256","internalType":"uint256"}],"stateMutability":"view"},{"type":"function","name":"accRewardPerShare","inputs":[],"outputs":[{"name":"","type":"uint256","internalType":"uint256"}],"stateMutability":"view"},{"type":"function","name":"add","inputs":[{"name":"user","type":"address","internalType":"address"},{"name":"amount","type":"uint256","internalType":"uint256"}],"outputs":[],"stateMutability":"nonpayable"},{"type":"function","name":"admin","inputs":[],"outputs":[{"name":"","type":"address","internalType":"address"}],"stateMutability":"view"},{"type":"function","name":"claim","inputs":[],"outputs":[],"stateMutability":"nonpayable"},{"type":"function","name":"dividendsRate","inputs":[],"outputs":[{"name":"","type":"uint256","internalType":"uint256"}],"stateMutability":"view"},{"type":"function","name":"emergencyWithdraw","inputs":[{"name":"_token","type":"address","internalType":"address"},{"name":"_amount","type":"uint256","internalType":"uint256"},{"name":"_to","type":"address","internalType":"address"}],"outputs":[],"stateMutability":"nonpayable"},{"type":"function","name":"getUserAward","inputs":[{"name":"user","type":"address","internalType":"address"}],"outputs":[{"name":"","type":"uint256","internalType":"uint256"}],"stateMutability":"view"},{"type":"function","name":"getUserInfo","inputs":[{"name":"user","type":"address","internalType":"address"}],"outputs":[{"name":"staking","type":"uint256","internalType":"uint256"},{"name":"usdtValue","type":"uint256","internalType":"uint256"},{"name":"extracted","type":"uint256","internalType":"uint256"},{"name":"truthAward","type":"uint256","internalType":"uint256"}],"stateMutability":"view"},{"type":"function","name":"initialize","inputs":[{"name":"_USDT","type":"address","internalType":"address"},{"name":"_treasuryLiquidity","type":"address","internalType":"address"},{"name":"_lex","type":"address","internalType":"address"},{"name":"_leo","type":"address","internalType":"address"},{"name":"_admin","type":"address","internalType":"address"}],"outputs":[],"stateMutability":"nonpayable"},{"type":"function","name":"isDividends","inputs":[],"outputs":[{"name":"","type":"bool","internalType":"bool"}],"stateMutability":"view"},{"type":"function","name":"leo","inputs":[],"outputs":[{"name":"","type":"address","internalType":"address"}],"stateMutability":"view"},{"type":"function","name":"lex","inputs":[],"outputs":[{"name":"","type":"address","internalType":"address"}],"stateMutability":"view"},{"type":"function","name":"owner","inputs":[],"outputs":[{"name":"","type":"address","internalType":"address"}],"stateMutability":"view"},{"type":"function","name":"pancakeRouter","inputs":[],"outputs":[{"name":"","type":"address","internalType":"contract IUniswapV2Router02"}],"stateMutability":"view"},{"type":"function","name":"proxiableUUID","inputs":[],"outputs":[{"name":"","type":"bytes32","internalType":"bytes32"}],"stateMutability":"view"},{"type":"function","name":"reduce","inputs":[{"name":"user","type":"address","internalType":"address"},{"name":"amount","type":"uint256","internalType":"uint256"}],"outputs":[],"stateMutability":"nonpayable"},{"type":"function","name":"renounceOwnership","inputs":[],"outputs":[],"stateMutability":"nonpayable"},{"type":"function","name":"setDividendsRate","inputs":[{"name":"_dividendsRate","type":"uint256","internalType":"uint256"}],"outputs":[],"stateMutability":"nonpayable"},{"type":"function","name":"setIsDividends","inputs":[{"name":"_isDividends","type":"bool","internalType":"bool"}],"outputs":[],"stateMutability":"nonpayable"},{"type":"function","name":"totalStaking","inputs":[],"outputs":[{"name":"","type":"uint256","internalType":"uint256"}],"stateMutability":"view"},{"type":"function","name":"transferOwnership","inputs":[{"name":"newOwner","type":"address","internalType":"address"}],"outputs":[],"stateMutability":"nonpayable"},{"type":"function","name":"treasuryLiquidity","inputs":[],"outputs":[{"name":"","type":"address","internalType":"address"}],"stateMutability":"view"},{"type":"function","name":"updateFarm","inputs":[{"name":"amount","type":"uint256","internalType":"uint256"}],"outputs":[],"stateMutability":"nonpayable"},{"type":"function","name":"upgradeToAndCall","inputs":[{"name":"newImplementation","type":"address","internalType":"address"},{"name":"data","type":"bytes","internalType":"bytes"}],"outputs":[],"stateMutability":"payable"},{"type":"function","name":"userInfo","inputs":[{"name":"","type":"address","internalType":"address"}],"outputs":[{"name":"staking","type":"uint256","internalType":"uint256"},{"name":"pending","type":"uint256","internalType":"uint256"},{"name":"debt","type":"uint256","internalType":"uint256"},{"name":"usdtValue","type":"uint256","internalType":"uint256"},{"name":"extracted","type":"uint256","internalType":"uint256"}],"stateMutability":"view"},{"type":"event","name":"Initialized","inputs":[{"name":"version","type":"uint64","indexed":false,"internalType":"uint64"}],"anonymous":false},{"type":"event","name":"OwnershipTransferred","inputs":[{"name":"previousOwner","type":"address","indexed":true,"internalType":"address"},{"name":"newOwner","type":"address","indexed":true,"internalType":"address"}],"anonymous":false},{"type":"event","name":"Upgraded","inputs":[{"name":"implementation","type":"address","indexed":true,"internalType":"address"}],"anonymous":false},{"type":"error","name":"AddressEmptyCode","inputs":[{"name":"target","type":"address","internalType":"address"}]},{"type":"error","name":"ERC1967InvalidImplementation","inputs":[{"name":"implementation","type":"address","internalType":"address"}]},{"type":"error","name":"ERC1967NonPayable","inputs":[]},{"type":"error","name":"FailedCall","inputs":[]},{"type":"error","name":"InvalidInitialization","inputs":[]},{"type":"error","name":"NotInitializing","inputs":[]},{"type":"error","name":"OwnableInvalidOwner","inputs":[{"name":"owner","type":"address","internalType":"address"}]},{"type":"error","name":"OwnableUnauthorizedAccount","inputs":[{"name":"account","type":"address","internalType":"address"}]},{"type":"error","name":"UUPSUnauthorizedCallContext","inputs":[]},{"type":"error","name":"UUPSUnsupportedProxiableUUID","inputs":[{"name":"slot","type":"bytes32","internalType":"bytes32"}]}],"bytecode":{"object":"0x60a08060405234602957306080526114d1908161002e82396080518181816105da01526106d40152f35b5f80fdfe6080806040526004361015610012575f80fd5b5f3560e01c90816309fb669814610d32575080631395e64014610c945780631459457a14610a90578063165defa414610a735780631959a00214610a0f5780633e4ff6f2146109ec57806342728ffd146109c45780634e71d92d146108505780634f1ef2861461065c578063510131811461062e57806352d1902d146105c8578063551512de146105865780636386c1c7146104fa578063715018a6146104935780637b51246f146104765780637d0a15181461044e5780638da5cb5b1461041a578063939d6237146103fd578063ad3cb1cc1461039f578063bb78a2981461037a578063c21ebd071461034c578063c54e44eb14610325578063c6e6cc22146102ee578063cc430ced14610285578063e4649c4414610234578063f2fde38b14610209578063f5d82b6b1461017c5763f851a44014610150575f80fd5b34610178575f366003190112610178576004546040516001600160a01b039091168152602090f35b5f80fd5b3461017857604036600319011261017857610195610d55565b602435906101ae60018060a01b03600454163314610e05565b6001600160a01b03165f908152600560205260409020906101e7906101d28361120f565b6101dd818454610e73565b8355600654610e73565b6006556002670de0b6b3a7640000610203835460075490610e60565b04910155005b3461017857602036600319011261017857610232610225610d55565b61022d611351565b61119e565b005b3461017857602036600319011261017857600435801515809103610178576004549061026a6001600160a01b0383163314610e05565b60ff60a01b1990911660a09190911b60ff60a01b1617600455005b34610178576020366003190112610178576001546001600160a01b0316331480156102da575b80156102c6575b6102bb90610e05565b610232600435611140565b506002546001600160a01b031633146102b2565b506003546001600160a01b031633146102ab565b3461017857606036600319011261017857602061031d61030c610d55565b610314610d6b565b60443591610fba565b604051908152f35b34610178575f366003190112610178575f546040516001600160a01b039091168152602090f35b34610178575f3660031901126101785760206040517310ed43c718714eb63d5aa57b78b54704e256024e8152f35b34610178575f36600319011261017857602060ff60045460a01c166040519015158152f35b34610178575f3660031901126101785760408051906103be8183610dc7565b600582526020820191640352e302e360dc1b83528151928391602083525180918160208501528484015e5f828201840152601f01601f19168101030190f35b34610178575f366003190112610178576020600754604051908152f35b34610178575f366003190112610178575f51602061143c5f395f51905f52546040516001600160a01b039091168152602090f35b34610178575f366003190112610178576002546040516001600160a01b039091168152602090f35b34610178575f366003190112610178576020600854604051908152f35b34610178575f366003190112610178576104ab611351565b5f51602061143c5f395f51905f5280546001600160a01b031981169091555f906001600160a01b03167f8be0079c531659141344cd1fd0a4f28419497f9722a3daafe3b4186f6b6457e08280a3005b34610178576020366003190112610178576080610515610d55565b60018060a01b0381165f52600560205260405f208261056e6040519361053a85610d97565b8354948581526001850154602082015260028501546040820152600460038601549586606084015201549384910152610e80565b91604051938452602084015260408301526060820152f35b34610178576060366003190112610178576102326105a2610d55565b6105aa610d81565b6105bf60018060a01b03600454163314610e05565b60243591611259565b34610178575f366003190112610178577f00000000000000000000000000000000000000000000000000000000000000006001600160a01b0316300361061f5760206040515f51602061145c5f395f51905f528152f35b63703e46dd60e11b5f5260045ffd5b346101785760203660031901126101785761065460018060a01b03600454163314610e05565b600435600855005b604036600319011261017857610670610d55565b6024359067ffffffffffffffff8211610178573660238301121561017857816004013561069c81610de9565b926106aa6040519485610dc7565b818452366024838301011161017857815f9260246020930183870137840101526001600160a01b037f00000000000000000000000000000000000000000000000000000000000000001630811490811561082e575b5061061f5761070c611351565b6040516352d1902d60e01b81526001600160a01b0382169290602081600481875afa5f91816107fa575b5061074e5783634c9c8ce360e01b5f5260045260245ffd5b805f51602061145c5f395f51905f528592036107e85750823b156107d6575f51602061145c5f395f51905f5280546001600160a01b031916821790557fbc7cd75a20ee27fd9adebab32041f755214dbc6bffa90cc0225b39da2e5c2d3b5f80a28051156107be57610232916113af565b5050346107c757005b63b398979f60e01b5f5260045ffd5b634c9c8ce360e01b5f5260045260245ffd5b632a87526960e21b5f5260045260245ffd5b9091506020813d602011610826575b8161081660209383610dc7565b8101031261017857519085610736565b3d9150610809565b5f51602061145c5f395f51905f52546001600160a01b031614159050836106ff565b34610178575f36600319011261017857335f52600560205260405f208054156109995761087c8161120f565b6001810180548015610968576003545f5461023294916108aa9184916001600160a01b039182169116610fba565b60038201928354916108bc8184610e73565b84549290831161093357505050505f600492936109048354806108fa6108e3895483610e3f565b86546003546001600160a01b039081169116610fba565b9755600654610e3f565b600655818355816002840155555b0161091e828254610e73565b905560035433906001600160a01b0316611259565b670de0b6b3a7640000939660049661095161095d95945f949a610e73565b90555560075490610e60565b046002820155610912565b60405162461bcd60e51b81526020600482015260096024820152681b9bc81c995dd85c9960ba1b6044820152606490fd5b60405162461bcd60e51b81526020600482015260036024820152621bdd5d60ea1b6044820152606490fd5b34610178575f366003190112610178576003546040516001600160a01b039091168152602090f35b3461017857602036600319011261017857602061031d610a0a610d55565b610e80565b34610178576020366003190112610178576001600160a01b03610a30610d55565b165f52600560205260a060405f20805490600181015490600281015460046003830154920154926040519485526020850152604084015260608301526080820152f35b34610178575f366003190112610178576020600654604051908152f35b346101785760a036600319011261017857610aa9610d55565b610ab1610d6b565b610ab9610d81565b6064356001600160a01b0381169190829003610178576084356001600160a01b0381169390849003610178575f51602061147c5f395f51905f52549460ff8660401c16159567ffffffffffffffff811680159081610c8c575b6001149081610c82575b159081610c79575b50610c6a5767ffffffffffffffff1981166001175f51602061147c5f395f51905f525586610c3e575b50610b56611384565b610b5e611384565b610b673361119e565b60018060a01b03166001600160601b0360a01b5f5416175f5560018060a01b03166001600160601b0360a01b600154161760015560018060a01b03166001600160601b0360a01b60025416176002556001600160601b0360a01b60035416176003556001600160601b0360a01b60045416176004556046600855610be757005b68ff0000000000000000195f51602061147c5f395f51905f5254165f51602061147c5f395f51905f52557fc7f505b2f371ae2175ee4913f4499e1f2633a7b5936321eed1cdaeb6115181d2602060405160018152a1005b68ffffffffffffffffff191668010000000000000001175f51602061147c5f395f51905f525586610b4d565b63f92ee8a960e01b5f5260045ffd5b90501588610b24565b303b159150610b1c565b889150610b12565b3461017857604036600319011261017857610cad610d55565b60243590610cc660018060a01b03600454163314610e05565b60018060a01b03165f52600560205260405f209080825410610d04576101e790610cef8361120f565b610cfa818454610e3f565b8355600654610e3f565b60405162461bcd60e51b8152602060048201526006602482015265195e18d9595960d21b6044820152606490fd5b34610178575f366003190112610178576001546001600160a01b03168152602090f35b600435906001600160a01b038216820361017857565b602435906001600160a01b038216820361017857565b604435906001600160a01b038216820361017857565b60a0810190811067ffffffffffffffff821117610db357604052565b634e487b7160e01b5f52604160045260245ffd5b90601f8019910116810190811067ffffffffffffffff821117610db357604052565b67ffffffffffffffff8111610db357601f01601f191660200190565b15610e0c57565b60405162461bcd60e51b815260206004820152600b60248201526a2737ba103832b936b4ba1760a91b6044820152606490fd5b91908203918211610e4c57565b634e487b7160e01b5f52601160045260245ffd5b81810292918115918404141715610e4c57565b91908201809211610e4c57565b60018060a01b03165f52600560205260405f20604051610e9f81610d97565b815480825260018301546020830190815260028401549160408401928352600460038601549560608601968752015460808501528015610f8d57610f0692670de0b6b3a7640000610ef6610eff9360075490610e60565b04905190610e3f565b9051610e73565b918215610f86576003545f546001600160a01b0391821692911690610f2c858385610fba565b938415610f7c5751905180821115610f7257610f4791610e3f565b80935b101580610f69575b610f5c5750505090565b610f669350610fba565b90565b50821515610f52565b50505f8093610f4a565b5050505050505f90565b5050505f90565b50505050505f90565b805160011015610fa65760400190565b634e487b7160e01b5f52603260045260245ffd5b909160405192610fcb606085610dc7565b6002845260208401926040368537845115610fa6576001600160a01b0316835290929190610ff883610f96565b6001600160a01b0390911690526040805163d06ca61f60e01b815260048101949094526024840152905160448301819052829160648301915f5b81811061111e5750505090805f9203817310ed43c718714eb63d5aa57b78b54704e256024e5afa8015611113575f90611074575b6110709150610f96565b5190565b503d805f833e6110848183610dc7565b8101906020818303126101785780519067ffffffffffffffff821161017857019080601f830112156101785781519167ffffffffffffffff8311610db3578260051b9060208201936110d96040519586610dc7565b845260208085019282010192831161017857602001905b8282106111035750505061107090611066565b81518152602091820191016110f0565b6040513d5f823e3d90fd5b82516001600160a01b0316845285945060209384019390920191600101611032565b61114f60649160085490610e60565b04600654801561119a5760ff60045460a01c161561119a57670de0b6b3a7640000820291808304670de0b6b3a76400001490151715610e4c576111959104600754610e73565b600755565b5050565b6001600160a01b031680156111fc575f51602061143c5f395f51905f5280546001600160a01b0319811683179091556001600160a01b03167f8be0079c531659141344cd1fd0a4f28419497f9722a3daafe3b4186f6b6457e05f80a3565b631e4fbdf760e01b5f525f60045260245ffd5b8054801561119a57670de0b6b3a764000061123061123c9260075490610e60565b04600283015490610e3f565b9081611246575050565b60016112559101918254610e73565b9055565b5f929183809360405190602082019363a9059cbb60e01b855260018060a01b03166024830152604482015260448152611293606482610dc7565b51925af13d1561134a573d6112a781610de9565b906112b56040519283610dc7565b81523d5f602083013e5b81611312575b50156112cd57565b60405162461bcd60e51b815260206004820152601f60248201527f5472616e7366657248656c7065723a205452414e534645525f4641494c4544006044820152606490fd5b8051801592508215611327575b50505f6112c5565b819250906020918101031261017857602001518015158103610178575f8061131f565b60606112bf565b5f51602061143c5f395f51905f52546001600160a01b0316330361137157565b63118cdaa760e01b5f523360045260245ffd5b60ff5f51602061147c5f395f51905f525460401c16156113a057565b631afcd79f60e31b5f5260045ffd5b905f8091602081519101845af48080611428575b156113e35750506040513d81523d5f602083013e60203d82010160405290565b1561140857639996b31560e01b5f9081526001600160a01b0391909116600452602490fd5b3d15611419576040513d5f823e3d90fd5b63d6bda27560e01b5f5260045ffd5b503d1515806113c35750813b15156113c356fe9016d09d72d40fdae2fd8ceac6b6234c7706214fd39c1cd1e609a0528c199300360894a13ba1a3210667c828492db98dca3e2076cc3735a920a3ca505d382bbcf0c57e16840df040f15088dc2f81fe391c3923bec73e23a9662efc9c229c6a00a26469706673582212207884e2e3751249da7230ceb393a70450e6596c0cb6f852724287a74947d6ae5a64736f6c634300081e0033","linkReferences":{}},"methodIdentifiers":{"UPGRADE_INTERFACE_VERSION()":"ad3cb1cc","USDT()":"c54e44eb","_getAmountsOut(address,address,uint256)":"c6e6cc22","accRewardPerShare()":"939d6237","add(address,uint256)":"f5d82b6b","admin()":"f851a440","claim()":"4e71d92d","dividendsRate()":"7b51246f","emergencyWithdraw(address,uint256,address)":"551512de","getUserAward(address)":"3e4ff6f2","getUserInfo(address)":"6386c1c7","initialize(address,address,address,address,address)":"1459457a","isDividends()":"bb78a298","leo()":"42728ffd","lex()":"7d0a1518","owner()":"8da5cb5b","pancakeRouter()":"c21ebd07","proxiableUUID()":"52d1902d","reduce(address,uint256)":"1395e640","renounceOwnership()":"715018a6","setDividendsRate(uint256)":"51013181","setIsDividends(bool)":"e4649c44","totalStaking()":"165defa4","transferOwnership(address)":"f2fde38b","treasuryLiquidity()":"09fb6698","updateFarm(uint256)":"cc430ced","upgradeToAndCall(address,bytes)":"4f1ef286","userInfo(address)":"1959a002"},"id":53}