{"abi":[{"type":"function","name":"UPGRADE_INTERFACE_VERSION","inputs":[],"outputs":[{"name":"","type":"string","internalType":"string"}],"stateMutability":"view"},{"type":"function","name":"USDT","inputs":[],"outputs":[{"name":"","type":"address","internalType":"address"}],"stateMutability":"view"},{"type":"function","name":"_getAmountsOut","inputs":[{"name":"fromToken","type":"address","internalType":"address"},{"name":"toToken","type":"address","internalType":"address"},{"name":"fromAmount","type":"uint256","internalType":"uint256"}],"outputs":[{"name":"","type":"uint256","internalType":"uint256"}],"stateMutability":"view"},{"type":"function","name":"accRewardPerShare","inputs":[],"outputs":[{"name":"","type":"uint256","internalType":"uint256"}],"stateMutability":"view"},{"type":"function","name":"add","inputs":[{"name":"user","type":"address","internalType":"address"},{"name":"amount","type":"uint256","internalType":"uint256"}],"outputs":[],"stateMutability":"nonpayable"},{"type":"function","name":"admin","inputs":[],"outputs":[{"name":"","type":"address","internalType":"address"}],"stateMutability":"view"},{"type":"function","name":"claim","inputs":[],"outputs":[],"stateMutability":"nonpayable"},{"type":"function","name":"dividendsRate","inputs":[],"outputs":[{"name":"","type":"uint256","internalType":"uint256"}],"stateMutability":"view"},{"type":"function","name":"emergencyWithdraw","inputs":[{"name":"_token","type":"address","internalType":"address"},{"name":"_amount","type":"uint256","internalType":"uint256"},{"name":"_to","type":"address","internalType":"address"}],"outputs":[],"stateMutability":"nonpayable"},{"type":"function","name":"getUserAward","inputs":[{"name":"user","type":"address","internalType":"address"}],"outputs":[{"name":"","type":"uint256","internalType":"uint256"}],"stateMutability":"view"},{"type":"function","name":"getUserInfo","inputs":[{"name":"user","type":"address","internalType":"address"}],"outputs":[{"name":"staking","type":"uint256","internalType":"uint256"},{"name":"extracted","type":"uint256","internalType":"uint256"},{"name":"truthAward","type":"uint256","internalType":"uint256"}],"stateMutability":"view"},{"type":"function","name":"initialize","inputs":[{"name":"_USDT","type":"address","internalType":"address"},{"name":"_treasuryLiquidity","type":"address","internalType":"address"},{"name":"_lex","type":"address","internalType":"address"},{"name":"_leo","type":"address","internalType":"address"},{"name":"_admin","type":"address","internalType":"address"}],"outputs":[],"stateMutability":"nonpayable"},{"type":"function","name":"isDividends","inputs":[],"outputs":[{"name":"","type":"bool","internalType":"bool"}],"stateMutability":"view"},{"type":"function","name":"leo","inputs":[],"outputs":[{"name":"","type":"address","internalType":"address"}],"stateMutability":"view"},{"type":"function","name":"lex","inputs":[],"outputs":[{"name":"","type":"address","internalType":"address"}],"stateMutability":"view"},{"type":"function","name":"owner","inputs":[],"outputs":[{"name":"","type":"address","internalType":"address"}],"stateMutability":"view"},{"type":"function","name":"pancakeRouter","inputs":[],"outputs":[{"name":"","type":"address","internalType":"contract IUniswapV2Router02"}],"stateMutability":"view"},{"type":"function","name":"proxiableUUID","inputs":[],"outputs":[{"name":"","type":"bytes32","internalType":"bytes32"}],"stateMutability":"view"},{"type":"function","name":"reduce","inputs":[{"name":"user","type":"address","internalType":"address"},{"name":"amount","type":"uint256","internalType":"uint256"}],"outputs":[],"stateMutability":"nonpayable"},{"type":"function","name":"renounceOwnership","inputs":[],"outputs":[],"stateMutability":"nonpayable"},{"type":"function","name":"setDividendsRate","inputs":[{"name":"_dividendsRate","type":"uint256","internalType":"uint256"}],"outputs":[],"stateMutability":"nonpayable"},{"type":"function","name":"setIsDividends","inputs":[{"name":"_isDividends","type":"bool","internalType":"bool"}],"outputs":[],"stateMutability":"nonpayable"},{"type":"function","name":"totalStaking","inputs":[],"outputs":[{"name":"","type":"uint256","internalType":"uint256"}],"stateMutability":"view"},{"type":"function","name":"transferOwnership","inputs":[{"name":"newOwner","type":"address","internalType":"address"}],"outputs":[],"stateMutability":"nonpayable"},{"type":"function","name":"treasuryLiquidity","inputs":[],"outputs":[{"name":"","type":"address","internalType":"address"}],"stateMutability":"view"},{"type":"function","name":"updateFarm","inputs":[{"name":"amount","type":"uint256","internalType":"uint256"}],"outputs":[],"stateMutability":"nonpayable"},{"type":"function","name":"upgradeToAndCall","inputs":[{"name":"newImplementation","type":"address","internalType":"address"},{"name":"data","type":"bytes","internalType":"bytes"}],"outputs":[],"stateMutability":"payable"},{"type":"function","name":"userInfo","inputs":[{"name":"","type":"address","internalType":"address"}],"outputs":[{"name":"staking","type":"uint256","internalType":"uint256"},{"name":"pending","type":"uint256","internalType":"uint256"},{"name":"debt","type":"uint256","internalType":"uint256"},{"name":"usdtValue","type":"uint256","internalType":"uint256"}],"stateMutability":"view"},{"type":"event","name":"Initialized","inputs":[{"name":"version","type":"uint64","indexed":false,"internalType":"uint64"}],"anonymous":false},{"type":"event","name":"OwnershipTransferred","inputs":[{"name":"previousOwner","type":"address","indexed":true,"internalType":"address"},{"name":"newOwner","type":"address","indexed":true,"internalType":"address"}],"anonymous":false},{"type":"event","name":"Upgraded","inputs":[{"name":"implementation","type":"address","indexed":true,"internalType":"address"}],"anonymous":false},{"type":"error","name":"AddressEmptyCode","inputs":[{"name":"target","type":"address","internalType":"address"}]},{"type":"error","name":"ERC1967InvalidImplementation","inputs":[{"name":"implementation","type":"address","internalType":"address"}]},{"type":"error","name":"ERC1967NonPayable","inputs":[]},{"type":"error","name":"FailedCall","inputs":[]},{"type":"error","name":"InvalidInitialization","inputs":[]},{"type":"error","name":"NotInitializing","inputs":[]},{"type":"error","name":"OwnableInvalidOwner","inputs":[{"name":"owner","type":"address","internalType":"address"}]},{"type":"error","name":"OwnableUnauthorizedAccount","inputs":[{"name":"account","type":"address","internalType":"address"}]},{"type":"error","name":"UUPSUnauthorizedCallContext","inputs":[]},{"type":"error","name":"UUPSUnsupportedProxiableUUID","inputs":[{"name":"slot","type":"bytes32","internalType":"bytes32"}]}],"bytecode":{"object":"0x60a080604052346029573060805261149c908161002e82396080518181816105c901526106c30152f35b5f80fdfe6080806040526004361015610012575f80fd5b5f3560e01c90816309fb669814610d06575080631395e64014610c685780631459457a14610a64578063165defa414610a475780631959a002146109ed5780633e4ff6f2146109ca57806342728ffd146109a25780634e71d92d1461083f5780634f1ef2861461064b578063510131811461061d57806352d1902d146105b7578063551512de146105755780636386c1c7146104fa578063715018a6146104935780637b51246f146104765780637d0a15181461044e5780638da5cb5b1461041a578063939d6237146103fd578063ad3cb1cc1461039f578063bb78a2981461037a578063c21ebd071461034c578063c54e44eb14610325578063c6e6cc22146102ee578063cc430ced14610285578063e4649c4414610234578063f2fde38b14610209578063f5d82b6b1461017c5763f851a44014610150575f80fd5b34610178575f366003190112610178576004546040516001600160a01b039091168152602090f35b5f80fd5b3461017857604036600319011261017857610195610d29565b602435906101ae60018060a01b03600454163314610dd9565b6001600160a01b03165f908152600560205260409020906101e7906101d2836111da565b6101dd818454610e47565b8355600654610e47565b6006556002670de0b6b3a7640000610203835460075490610e34565b04910155005b3461017857602036600319011261017857610232610225610d29565b61022d61131c565b611169565b005b3461017857602036600319011261017857600435801515809103610178576004549061026a6001600160a01b0383163314610dd9565b60ff60a01b1990911660a09190911b60ff60a01b1617600455005b34610178576020366003190112610178576001546001600160a01b0316331480156102da575b80156102c6575b6102bb90610dd9565b61023260043561110b565b506002546001600160a01b031633146102b2565b506003546001600160a01b031633146102ab565b3461017857606036600319011261017857602061031d61030c610d29565b610314610d3f565b60443591610f85565b604051908152f35b34610178575f366003190112610178575f546040516001600160a01b039091168152602090f35b34610178575f3660031901126101785760206040517310ed43c718714eb63d5aa57b78b54704e256024e8152f35b34610178575f36600319011261017857602060ff60045460a01c166040519015158152f35b34610178575f3660031901126101785760408051906103be8183610d9b565b600582526020820191640352e302e360dc1b83528151928391602083525180918160208501528484015e5f828201840152601f01601f19168101030190f35b34610178575f366003190112610178576020600754604051908152f35b34610178575f366003190112610178575f5160206114075f395f51905f52546040516001600160a01b039091168152602090f35b34610178575f366003190112610178576002546040516001600160a01b039091168152602090f35b34610178575f366003190112610178576020600854604051908152f35b34610178575f366003190112610178576104ab61131c565b5f5160206114075f395f51905f5280546001600160a01b031981169091555f906001600160a01b03167f8be0079c531659141344cd1fd0a4f28419497f9722a3daafe3b4186f6b6457e08280a3005b34610178576020366003190112610178576060610515610d29565b60018060a01b0381165f5260056020528161056260405f209260405161053a81610d6b565b6003855495868352600181015460208401526002810154604084015201549384910152610e54565b9060405192835260208301526040820152f35b3461017857606036600319011261017857610232610591610d29565b610599610d55565b6105ae60018060a01b03600454163314610dd9565b60243591611224565b34610178575f366003190112610178577f00000000000000000000000000000000000000000000000000000000000000006001600160a01b0316300361060e5760206040515f5160206114275f395f51905f528152f35b63703e46dd60e11b5f5260045ffd5b346101785760203660031901126101785761064360018060a01b03600454163314610dd9565b600435600855005b60403660031901126101785761065f610d29565b6024359067ffffffffffffffff8211610178573660238301121561017857816004013561068b81610dbd565b926106996040519485610d9b565b818452366024838301011161017857815f9260246020930183870137840101526001600160a01b037f00000000000000000000000000000000000000000000000000000000000000001630811490811561081d575b5061060e576106fb61131c565b6040516352d1902d60e01b81526001600160a01b0382169290602081600481875afa5f91816107e9575b5061073d5783634c9c8ce360e01b5f5260045260245ffd5b805f5160206114275f395f51905f528592036107d75750823b156107c5575f5160206114275f395f51905f5280546001600160a01b031916821790557fbc7cd75a20ee27fd9adebab32041f755214dbc6bffa90cc0225b39da2e5c2d3b5f80a28051156107ad576102329161137a565b5050346107b657005b63b398979f60e01b5f5260045ffd5b634c9c8ce360e01b5f5260045260245ffd5b632a87526960e21b5f5260045260245ffd5b9091506020813d602011610815575b8161080560209383610d9b565b8101031261017857519085610725565b3d91506107f8565b5f5160206114275f395f51905f52546001600160a01b031614159050836106ee565b34610178575f36600319011261017857335f52600560205260405f208054156109775761086b816111da565b600181018054908115610946576003545f54610232949161089a9185916001600160a01b039182169116610f85565b60038201938454916108ac8184610e47565b8454929083116109125750505050905f6002836108f5839554806108eb6108d48a5483610e13565b87546003546001600160a01b039081169116610f85565b9855600654610e13565b6006558281550155555b60035433906001600160a01b0316611224565b60029495670de0b6b3a7640000949761093161093d95945f949a610e47565b90555560075490610e34565b049101556108ff565b60405162461bcd60e51b81526020600482015260096024820152681b9bc81c995dd85c9960ba1b6044820152606490fd5b60405162461bcd60e51b81526020600482015260036024820152621bdd5d60ea1b6044820152606490fd5b34610178575f366003190112610178576003546040516001600160a01b039091168152602090f35b3461017857602036600319011261017857602061031d6109e8610d29565b610e54565b34610178576020366003190112610178576001600160a01b03610a0e610d29565b165f526005602052608060405f208054906001810154906003600282015491015491604051938452602084015260408301526060820152f35b34610178575f366003190112610178576020600654604051908152f35b346101785760a036600319011261017857610a7d610d29565b610a85610d3f565b610a8d610d55565b6064356001600160a01b0381169190829003610178576084356001600160a01b0381169390849003610178575f5160206114475f395f51905f52549460ff8660401c16159567ffffffffffffffff811680159081610c60575b6001149081610c56575b159081610c4d575b50610c3e5767ffffffffffffffff1981166001175f5160206114475f395f51905f525586610c12575b50610b2a61134f565b610b3261134f565b610b3b33611169565b60018060a01b03166001600160601b0360a01b5f5416175f5560018060a01b03166001600160601b0360a01b600154161760015560018060a01b03166001600160601b0360a01b60025416176002556001600160601b0360a01b60035416176003556001600160601b0360a01b60045416176004556046600855610bbb57005b68ff0000000000000000195f5160206114475f395f51905f5254165f5160206114475f395f51905f52557fc7f505b2f371ae2175ee4913f4499e1f2633a7b5936321eed1cdaeb6115181d2602060405160018152a1005b68ffffffffffffffffff191668010000000000000001175f5160206114475f395f51905f525586610b21565b63f92ee8a960e01b5f5260045ffd5b90501588610af8565b303b159150610af0565b889150610ae6565b3461017857604036600319011261017857610c81610d29565b60243590610c9a60018060a01b03600454163314610dd9565b60018060a01b03165f52600560205260405f209080825410610cd8576101e790610cc3836111da565b610cce818454610e13565b8355600654610e13565b60405162461bcd60e51b8152602060048201526006602482015265195e18d9595960d21b6044820152606490fd5b34610178575f366003190112610178576001546001600160a01b03168152602090f35b600435906001600160a01b038216820361017857565b602435906001600160a01b038216820361017857565b604435906001600160a01b038216820361017857565b6080810190811067ffffffffffffffff821117610d8757604052565b634e487b7160e01b5f52604160045260245ffd5b90601f8019910116810190811067ffffffffffffffff821117610d8757604052565b67ffffffffffffffff8111610d8757601f01601f191660200190565b15610de057565b60405162461bcd60e51b815260206004820152600b60248201526a2737ba103832b936b4ba1760a91b6044820152606490fd5b91908203918211610e2057565b634e487b7160e01b5f52601160045260245ffd5b81810292918115918404141715610e2057565b91908201809211610e2057565b60018060a01b03165f52600560205260405f20604051610e7381610d6b565b815491828252600181015460208301908152600360028301549260408501938452015493606084019485528015610f5857610ed192670de0b6b3a7640000610ec1610eca9360075490610e34565b04905190610e13565b9051610e47565b918215610f51576003545f546001600160a01b0391821692911690610ef7858385610f85565b938415610f475751905180821115610f3d57610f1291610e13565b80935b101580610f34575b610f275750505090565b610f319350610f85565b90565b50821515610f1d565b50505f8093610f15565b5050505050505f90565b5050505f90565b50505050505f90565b805160011015610f715760400190565b634e487b7160e01b5f52603260045260245ffd5b909160405192610f96606085610d9b565b6002845260208401926040368537845115610f71576001600160a01b0316835290929190610fc383610f61565b6001600160a01b0390911690526040805163d06ca61f60e01b815260048101949094526024840152905160448301819052829160648301915f5b8181106110e95750505090805f9203817310ed43c718714eb63d5aa57b78b54704e256024e5afa80156110de575f9061103f575b61103b9150610f61565b5190565b503d805f833e61104f8183610d9b565b8101906020818303126101785780519067ffffffffffffffff821161017857019080601f830112156101785781519167ffffffffffffffff8311610d87578260051b9060208201936110a46040519586610d9b565b845260208085019282010192831161017857602001905b8282106110ce5750505061103b90611031565b81518152602091820191016110bb565b6040513d5f823e3d90fd5b82516001600160a01b0316845285945060209384019390920191600101610ffd565b61111a60649160085490610e34565b0460065480156111655760ff60045460a01c161561116557670de0b6b3a7640000820291808304670de0b6b3a76400001490151715610e20576111609104600754610e47565b600755565b5050565b6001600160a01b031680156111c7575f5160206114075f395f51905f5280546001600160a01b0319811683179091556001600160a01b03167f8be0079c531659141344cd1fd0a4f28419497f9722a3daafe3b4186f6b6457e05f80a3565b631e4fbdf760e01b5f525f60045260245ffd5b8054801561116557670de0b6b3a76400006111fb6112079260075490610e34565b04600283015490610e13565b9081611211575050565b60016112209101918254610e47565b9055565b5f929183809360405190602082019363a9059cbb60e01b855260018060a01b0316602483015260448201526044815261125e606482610d9b565b51925af13d15611315573d61127281610dbd565b906112806040519283610d9b565b81523d5f602083013e5b816112dd575b501561129857565b60405162461bcd60e51b815260206004820152601f60248201527f5472616e7366657248656c7065723a205452414e534645525f4641494c4544006044820152606490fd5b80518015925082156112f2575b50505f611290565b819250906020918101031261017857602001518015158103610178575f806112ea565b606061128a565b5f5160206114075f395f51905f52546001600160a01b0316330361133c57565b63118cdaa760e01b5f523360045260245ffd5b60ff5f5160206114475f395f51905f525460401c161561136b57565b631afcd79f60e31b5f5260045ffd5b905f8091602081519101845af480806113f3575b156113ae5750506040513d81523d5f602083013e60203d82010160405290565b156113d357639996b31560e01b5f9081526001600160a01b0391909116600452602490fd5b3d156113e4576040513d5f823e3d90fd5b63d6bda27560e01b5f5260045ffd5b503d15158061138e5750813b151561138e56fe9016d09d72d40fdae2fd8ceac6b6234c7706214fd39c1cd1e609a0528c199300360894a13ba1a3210667c828492db98dca3e2076cc3735a920a3ca505d382bbcf0c57e16840df040f15088dc2f81fe391c3923bec73e23a9662efc9c229c6a00a2646970667358221220889169d3c24fd4cf0d34238e0c6aa88a8a30aeca79a51834c8588208f7ddb5aa64736f6c634300081e0033","linkReferences":{}},"methodIdentifiers":{"UPGRADE_INTERFACE_VERSION()":"ad3cb1cc","USDT()":"c54e44eb","_getAmountsOut(address,address,uint256)":"c6e6cc22","accRewardPerShare()":"939d6237","add(address,uint256)":"f5d82b6b","admin()":"f851a440","claim()":"4e71d92d","dividendsRate()":"7b51246f","emergencyWithdraw(address,uint256,address)":"551512de","getUserAward(address)":"3e4ff6f2","getUserInfo(address)":"6386c1c7","initialize(address,address,address,address,address)":"1459457a","isDividends()":"bb78a298","leo()":"42728ffd","lex()":"7d0a1518","owner()":"8da5cb5b","pancakeRouter()":"c21ebd07","proxiableUUID()":"52d1902d","reduce(address,uint256)":"1395e640","renounceOwnership()":"715018a6","setDividendsRate(uint256)":"51013181","setIsDividends(bool)":"e4649c44","totalStaking()":"165defa4","transferOwnership(address)":"f2fde38b","treasuryLiquidity()":"09fb6698","updateFarm(uint256)":"cc430ced","upgradeToAndCall(address,bytes)":"4f1ef286","userInfo(address)":"1959a002"},"id":42}