{"abi":[{"type":"function","name":"UPGRADE_INTERFACE_VERSION","inputs":[],"outputs":[{"name":"","type":"string","internalType":"string"}],"stateMutability":"view"},{"type":"function","name":"USDT","inputs":[],"outputs":[{"name":"","type":"address","internalType":"address"}],"stateMutability":"view"},{"type":"function","name":"_getAmountsOut","inputs":[{"name":"fromToken","type":"address","internalType":"address"},{"name":"toToken","type":"address","internalType":"address"},{"name":"fromAmount","type":"uint256","internalType":"uint256"}],"outputs":[{"name":"","type":"uint256","internalType":"uint256"}],"stateMutability":"view"},{"type":"function","name":"accRewardPerShare","inputs":[],"outputs":[{"name":"","type":"uint256","internalType":"uint256"}],"stateMutability":"view"},{"type":"function","name":"add","inputs":[{"name":"user","type":"address","internalType":"address"},{"name":"amount","type":"uint256","internalType":"uint256"}],"outputs":[],"stateMutability":"nonpayable"},{"type":"function","name":"admin","inputs":[],"outputs":[{"name":"","type":"address","internalType":"address"}],"stateMutability":"view"},{"type":"function","name":"claim","inputs":[],"outputs":[],"stateMutability":"nonpayable"},{"type":"function","name":"dividendsRate","inputs":[],"outputs":[{"name":"","type":"uint256","internalType":"uint256"}],"stateMutability":"view"},{"type":"function","name":"emergencyWithdraw","inputs":[{"name":"_token","type":"address","internalType":"address"},{"name":"_amount","type":"uint256","internalType":"uint256"},{"name":"_to","type":"address","internalType":"address"}],"outputs":[],"stateMutability":"nonpayable"},{"type":"function","name":"getUserAward","inputs":[{"name":"user","type":"address","internalType":"address"}],"outputs":[{"name":"","type":"uint256","internalType":"uint256"}],"stateMutability":"view"},{"type":"function","name":"getUserInfo","inputs":[{"name":"user","type":"address","internalType":"address"}],"outputs":[{"name":"staking","type":"uint256","internalType":"uint256"},{"name":"extracted","type":"uint256","internalType":"uint256"},{"name":"truthAward","type":"uint256","internalType":"uint256"}],"stateMutability":"view"},{"type":"function","name":"initialize","inputs":[{"name":"_USDT","type":"address","internalType":"address"},{"name":"_treasuryLiquidity","type":"address","internalType":"address"},{"name":"_lex","type":"address","internalType":"address"},{"name":"_leo","type":"address","internalType":"address"},{"name":"_admin","type":"address","internalType":"address"}],"outputs":[],"stateMutability":"nonpayable"},{"type":"function","name":"leo","inputs":[],"outputs":[{"name":"","type":"address","internalType":"address"}],"stateMutability":"view"},{"type":"function","name":"lex","inputs":[],"outputs":[{"name":"","type":"address","internalType":"address"}],"stateMutability":"view"},{"type":"function","name":"owner","inputs":[],"outputs":[{"name":"","type":"address","internalType":"address"}],"stateMutability":"view"},{"type":"function","name":"pancakeRouter","inputs":[],"outputs":[{"name":"","type":"address","internalType":"contract IUniswapV2Router02"}],"stateMutability":"view"},{"type":"function","name":"proxiableUUID","inputs":[],"outputs":[{"name":"","type":"bytes32","internalType":"bytes32"}],"stateMutability":"view"},{"type":"function","name":"reduce","inputs":[{"name":"user","type":"address","internalType":"address"},{"name":"amount","type":"uint256","internalType":"uint256"}],"outputs":[],"stateMutability":"nonpayable"},{"type":"function","name":"renounceOwnership","inputs":[],"outputs":[],"stateMutability":"nonpayable"},{"type":"function","name":"setDividendsRate","inputs":[{"name":"_dividendsRate","type":"uint256","internalType":"uint256"}],"outputs":[],"stateMutability":"nonpayable"},{"type":"function","name":"totalStaking","inputs":[],"outputs":[{"name":"","type":"uint256","internalType":"uint256"}],"stateMutability":"view"},{"type":"function","name":"transferOwnership","inputs":[{"name":"newOwner","type":"address","internalType":"address"}],"outputs":[],"stateMutability":"nonpayable"},{"type":"function","name":"treasuryLiquidity","inputs":[],"outputs":[{"name":"","type":"address","internalType":"address"}],"stateMutability":"view"},{"type":"function","name":"updateFarm","inputs":[{"name":"amount","type":"uint256","internalType":"uint256"}],"outputs":[],"stateMutability":"nonpayable"},{"type":"function","name":"upgradeToAndCall","inputs":[{"name":"newImplementation","type":"address","internalType":"address"},{"name":"data","type":"bytes","internalType":"bytes"}],"outputs":[],"stateMutability":"payable"},{"type":"function","name":"userInfo","inputs":[{"name":"","type":"address","internalType":"address"}],"outputs":[{"name":"staking","type":"uint256","internalType":"uint256"},{"name":"pending","type":"uint256","internalType":"uint256"},{"name":"debt","type":"uint256","internalType":"uint256"},{"name":"usdtValue","type":"uint256","internalType":"uint256"}],"stateMutability":"view"},{"type":"event","name":"Initialized","inputs":[{"name":"version","type":"uint64","indexed":false,"internalType":"uint64"}],"anonymous":false},{"type":"event","name":"OwnershipTransferred","inputs":[{"name":"previousOwner","type":"address","indexed":true,"internalType":"address"},{"name":"newOwner","type":"address","indexed":true,"internalType":"address"}],"anonymous":false},{"type":"event","name":"Upgraded","inputs":[{"name":"implementation","type":"address","indexed":true,"internalType":"address"}],"anonymous":false},{"type":"error","name":"AddressEmptyCode","inputs":[{"name":"target","type":"address","internalType":"address"}]},{"type":"error","name":"ERC1967InvalidImplementation","inputs":[{"name":"implementation","type":"address","internalType":"address"}]},{"type":"error","name":"ERC1967NonPayable","inputs":[]},{"type":"error","name":"FailedCall","inputs":[]},{"type":"error","name":"InvalidInitialization","inputs":[]},{"type":"error","name":"NotInitializing","inputs":[]},{"type":"error","name":"OwnableInvalidOwner","inputs":[{"name":"owner","type":"address","internalType":"address"}]},{"type":"error","name":"OwnableUnauthorizedAccount","inputs":[{"name":"account","type":"address","internalType":"address"}]},{"type":"error","name":"UUPSUnauthorizedCallContext","inputs":[]},{"type":"error","name":"UUPSUnsupportedProxiableUUID","inputs":[{"name":"slot","type":"bytes32","internalType":"bytes32"}]}],"bytecode":{"object":"0x60a0604052306080523480156012575f5ffd5b506080516118976100395f395f8181610f8701528181610fb001526110ef01526118975ff3fe60806040526004361061017b575f3560e01c8063715018a6116100cd578063c21ebd0711610087578063cc430ced11610062578063cc430ced146104a9578063f2fde38b146104c8578063f5d82b6b146104e7578063f851a44014610506575f5ffd5b8063c21ebd0714610445578063c54e44eb1461046c578063c6e6cc221461048a575f5ffd5b8063715018a61461036f5780637b51246f146103835780637d0a1518146103985780638da5cb5b146103b7578063939d6237146103f3578063ad3cb1cc14610408575f5ffd5b806342728ffd11610138578063510131811161011357806351013181146102e357806352d1902d14610302578063551512de146103165780636386c1c714610335575f5ffd5b806342728ffd1461029d5780634e71d92d146102bc5780634f1ef286146102d0575f5ffd5b806309fb66981461017f5780631395e640146101bb5780631459457a146101dc578063165defa4146101fb5780631959a0021461021e5780633e4ff6f21461027e575b5f5ffd5b34801561018a575f5ffd5b5060015461019e906001600160a01b031681565b6040516001600160a01b0390911681526020015b60405180910390f35b3480156101c6575f5ffd5b506101da6101d5366004611407565b610525565b005b3480156101e7575f5ffd5b506101da6101f636600461142f565b61060d565b348015610206575f5ffd5b5061021060065481565b6040519081526020016101b2565b348015610229575f5ffd5b5061025e610238366004611490565b60056020525f908152604090208054600182015460028301546003909301549192909184565b6040805194855260208501939093529183015260608201526080016101b2565b348015610289575f5ffd5b50610210610298366004611490565b610764565b3480156102a8575f5ffd5b5060035461019e906001600160a01b031681565b3480156102c7575f5ffd5b506101da6108b6565b6101da6102de3660046114f5565b610a4b565b3480156102ee575f5ffd5b506101da6102fd36600461159a565b610a6a565b34801561030d575f5ffd5b50610210610a99565b348015610321575f5ffd5b506101da6103303660046115b1565b610ab4565b348015610340575f5ffd5b5061035461034f366004611490565b610aee565b604080519384526020840192909252908201526060016101b2565b34801561037a575f5ffd5b506101da610b4d565b34801561038e575f5ffd5b5061021060085481565b3480156103a3575f5ffd5b5060025461019e906001600160a01b031681565b3480156103c2575f5ffd5b507f9016d09d72d40fdae2fd8ceac6b6234c7706214fd39c1cd1e609a0528c199300546001600160a01b031661019e565b3480156103fe575f5ffd5b5061021060075481565b348015610413575f5ffd5b50610438604051806040016040528060058152602001640352e302e360dc1b81525081565b6040516101b291906115ea565b348015610450575f5ffd5b5061019e7310ed43c718714eb63d5aa57b78b54704e256024e81565b348015610477575f5ffd5b505f5461019e906001600160a01b031681565b348015610495575f5ffd5b506102106104a436600461161f565b610b60565b3480156104b4575f5ffd5b506101da6104c336600461159a565b610c81565b3480156104d3575f5ffd5b506101da6104e2366004611490565b610d23565b3480156104f2575f5ffd5b506101da610501366004611407565b610d5d565b348015610511575f5ffd5b5060045461019e906001600160a01b031681565b6004546001600160a01b031633146105585760405162461bcd60e51b815260040161054f90611659565b60405180910390fd5b6001600160a01b0382165f90815260056020526040902080548211156105a95760405162461bcd60e51b8152602060048201526006602482015265195e18d9595960d21b604482015260640161054f565b6105b281610dd1565b81815f015f8282546105c49190611692565b925050819055508160065f8282546105dc9190611692565b90915550506007548154670de0b6b3a7640000916105f9916116a5565b61060391906116bc565b6002909101555050565b5f610616610e2b565b805490915060ff600160401b820416159067ffffffffffffffff165f8115801561063d5750825b90505f8267ffffffffffffffff1660011480156106595750303b155b905081158015610667575080155b156106855760405163f92ee8a960e01b815260040160405180910390fd5b845467ffffffffffffffff1916600117855583156106af57845460ff60401b1916600160401b1785555b6106b833610e55565b5f80546001600160a01b03199081166001600160a01b038d8116919091179092556001805482168c84161790556002805482168b84161790556003805482168a8416179055600480549091169188169190911790556046600855831561075857845460ff60401b19168555604051600181527fc7f505b2f371ae2175ee4913f4499e1f2633a7b5936321eed1cdaeb6115181d29060200160405180910390a15b50505050505050505050565b6001600160a01b0381165f908152600560209081526040808320815160808101835281548082526001830154948201949094526002820154928101929092526003015460608201529082036107bb57505f92915050565b5f8160400151670de0b6b3a7640000600754845f01516107db91906116a5565b6107e591906116bc565b6107ef9190611692565b90505f81836020015161080291906116db565b9050805f0361081557505f949350505050565b6003545f80549091610834916001600160a01b03918216911684610b60565b9050805f0361084857505f95945050505050565b5f8460600151855f01511161085d575f61086e565b6060850151855161086e9190611692565b905080821015801561087f57505f81115b156108ab575f546003546108a0916001600160a01b03908116911683610b60565b979650505050505050565b509095945050505050565b335f90815260056020526040902080546108f85760405162461bcd60e51b81526020600482015260036024820152621bdd5d60ea1b604482015260640161054f565b61090181610dd1565b60018101548061093f5760405162461bcd60e51b81526020600482015260096024820152681b9bc81c995dd85c9960ba1b604482015260640161054f565b6003545f8054909161095e916001600160a01b03918216911684610b60565b90505f835f015482856003015461097591906116db565b106109e557600384015484545f9161098c91611692565b5f546003549192506109ab916001600160a01b03918216911683610b60565b8554600387018190556006805492945090915f906109ca908490611692565b90915550505f80865560028601819055600186015550610a2e565b82905081846003015f8282546109fb91906116db565b90915550505f60018501556007548454670de0b6b3a764000091610a1e916116a5565b610a2891906116bc565b60028501555b600354610a45906001600160a01b03163383610e66565b50505050565b610a53610f7c565b610a5c82611020565b610a668282611028565b5050565b6004546001600160a01b03163314610a945760405162461bcd60e51b815260040161054f90611659565b600855565b5f610aa26110e4565b505f5160206118425f395f51905f5290565b6004546001600160a01b03163314610ade5760405162461bcd60e51b815260040161054f90611659565b610ae9838284610e66565b505050565b6001600160a01b0381165f908152600560209081526040808320815160808101835281548082526001830154948201949094526002820154928101929092526003015460608201819052919290610b4485610764565b93959294505050565b610b5561112d565b610b5e5f611188565b565b6040805160028082526060820183525f928392919060208301908036833701905050905084815f81518110610b9757610b976116ee565b60200260200101906001600160a01b031690816001600160a01b0316815250508381600181518110610bcb57610bcb6116ee565b6001600160a01b039092166020928302919091019091015260405163d06ca61f60e01b81527310ed43c718714eb63d5aa57b78b54704e256024e9063d06ca61f90610c1c9086908590600401611702565b5f60405180830381865afa158015610c36573d5f5f3e3d5ffd5b505050506040513d5f823e601f3d908101601f19168201604052610c5d9190810190611758565b600181518110610c6f57610c6f6116ee565b60200260200101519150509392505050565b6001546001600160a01b0316331480610ca457506002546001600160a01b031633145b610cc05760405162461bcd60e51b815260040161054f90611659565b5f606460085483610cd191906116a5565b610cdb91906116bc565b90506006545f03610cea575050565b600654610cff670de0b6b3a7640000836116a5565b610d0991906116bc565b60075f828254610d1991906116db565b9091555050505b50565b610d2b61112d565b6001600160a01b038116610d5457604051631e4fbdf760e01b81525f600482015260240161054f565b610d2081611188565b6004546001600160a01b03163314610d875760405162461bcd60e51b815260040161054f90611659565b6001600160a01b0382165f908152600560205260409020610da781610dd1565b81815f015f828254610db991906116db565b925050819055508160065f8282546105dc91906116db565b80545f03610ddc5750565b5f8160020154670de0b6b3a7640000600754845f0154610dfc91906116a5565b610e0691906116bc565b610e109190611692565b90508015610a665780826001015f828254610d1991906116db565b5f807ff0c57e16840df040f15088dc2f81fe391c3923bec73e23a9662efc9c229c6a005b92915050565b610e5d6111f8565b610d208161121d565b604080516001600160a01b038481166024830152604480830185905283518084039091018152606490920183526020820180516001600160e01b031663a9059cbb60e01b17905291515f92839290871691610ec191906117f5565b5f604051808303815f865af19150503d805f8114610efa576040519150601f19603f3d011682016040523d82523d5f602084013e610eff565b606091505b5091509150818015610f29575080511580610f29575080806020019051810190610f29919061180b565b610f755760405162461bcd60e51b815260206004820152601f60248201527f5472616e7366657248656c7065723a205452414e534645525f4641494c454400604482015260640161054f565b5050505050565b306001600160a01b037f000000000000000000000000000000000000000000000000000000000000000016148061100257507f00000000000000000000000000000000000000000000000000000000000000006001600160a01b0316610ff65f5160206118425f395f51905f52546001600160a01b031690565b6001600160a01b031614155b15610b5e5760405163703e46dd60e11b815260040160405180910390fd5b610d2061112d565b816001600160a01b03166352d1902d6040518163ffffffff1660e01b8152600401602060405180830381865afa925050508015611082575060408051601f3d908101601f1916820190925261107f9181019061182a565b60015b6110aa57604051634c9c8ce360e01b81526001600160a01b038316600482015260240161054f565b5f5160206118425f395f51905f5281146110da57604051632a87526960e21b81526004810182905260240161054f565b610ae98383611225565b306001600160a01b037f00000000000000000000000000000000000000000000000000000000000000001614610b5e5760405163703e46dd60e11b815260040160405180910390fd5b3361115f7f9016d09d72d40fdae2fd8ceac6b6234c7706214fd39c1cd1e609a0528c199300546001600160a01b031690565b6001600160a01b031614610b5e5760405163118cdaa760e01b815233600482015260240161054f565b7f9016d09d72d40fdae2fd8ceac6b6234c7706214fd39c1cd1e609a0528c19930080546001600160a01b031981166001600160a01b03848116918217845560405192169182907f8be0079c531659141344cd1fd0a4f28419497f9722a3daafe3b4186f6b6457e0905f90a3505050565b61120061127a565b610b5e57604051631afcd79f60e31b815260040160405180910390fd5b610d2b6111f8565b61122e82611293565b6040516001600160a01b038316907fbc7cd75a20ee27fd9adebab32041f755214dbc6bffa90cc0225b39da2e5c2d3b905f90a280511561127257610ae982826112f6565b610a66611396565b5f611283610e2b565b54600160401b900460ff16919050565b806001600160a01b03163b5f036112c857604051634c9c8ce360e01b81526001600160a01b038216600482015260240161054f565b5f5160206118425f395f51905f5280546001600160a01b0319166001600160a01b0392909216919091179055565b60605f61130384846113b5565b905080801561132457505f3d118061132457505f846001600160a01b03163b115b15611339576113316113c8565b915050610e4f565b801561136357604051639996b31560e01b81526001600160a01b038516600482015260240161054f565b3d15611376576113716113e1565b61138f565b60405163d6bda27560e01b815260040160405180910390fd5b5092915050565b3415610b5e5760405163b398979f60e01b815260040160405180910390fd5b5f5f5f835160208501865af49392505050565b6040513d81523d5f602083013e3d602001810160405290565b6040513d5f823e3d81fd5b80356001600160a01b0381168114611402575f5ffd5b919050565b5f5f60408385031215611418575f5ffd5b611421836113ec565b946020939093013593505050565b5f5f5f5f5f60a08688031215611443575f5ffd5b61144c866113ec565b945061145a602087016113ec565b9350611468604087016113ec565b9250611476606087016113ec565b9150611484608087016113ec565b90509295509295909350565b5f602082840312156114a0575f5ffd5b6114a9826113ec565b9392505050565b634e487b7160e01b5f52604160045260245ffd5b604051601f8201601f1916810167ffffffffffffffff811182821017156114ed576114ed6114b0565b604052919050565b5f5f60408385031215611506575f5ffd5b61150f836113ec565b9150602083013567ffffffffffffffff81111561152a575f5ffd5b8301601f8101851361153a575f5ffd5b803567ffffffffffffffff811115611554576115546114b0565b611567601f8201601f19166020016114c4565b81815286602083850101111561157b575f5ffd5b816020840160208301375f602083830101528093505050509250929050565b5f602082840312156115aa575f5ffd5b5035919050565b5f5f5f606084860312156115c3575f5ffd5b6115cc846113ec565b9250602084013591506115e1604085016113ec565b90509250925092565b602081525f82518060208401528060208501604085015e5f604082850101526040601f19601f83011684010191505092915050565b5f5f5f60608486031215611631575f5ffd5b61163a846113ec565b9250611648602085016113ec565b929592945050506040919091013590565b6020808252600b908201526a2737ba103832b936b4ba1760a91b604082015260600190565b634e487b7160e01b5f52601160045260245ffd5b81810381811115610e4f57610e4f61167e565b8082028115828204841417610e4f57610e4f61167e565b5f826116d657634e487b7160e01b5f52601260045260245ffd5b500490565b80820180821115610e4f57610e4f61167e565b634e487b7160e01b5f52603260045260245ffd5b5f60408201848352604060208401528084518083526060850191506020860192505f5b8181101561174c5783516001600160a01b0316835260209384019390920191600101611725565b50909695505050505050565b5f60208284031215611768575f5ffd5b815167ffffffffffffffff81111561177e575f5ffd5b8201601f8101841361178e575f5ffd5b805167ffffffffffffffff8111156117a8576117a86114b0565b8060051b6117b8602082016114c4565b918252602081840181019290810190878411156117d3575f5ffd5b6020850194505b838510156108a05784518252602094850194909101906117da565b5f82518060208501845e5f920191825250919050565b5f6020828403121561181b575f5ffd5b815180151581146114a9575f5ffd5b5f6020828403121561183a575f5ffd5b505191905056fe360894a13ba1a3210667c828492db98dca3e2076cc3735a920a3ca505d382bbca264697066735822122030d1ffe61eb96c8eda0f74f21169f1cb1664c38ee13042a0bf1b71fe9835ded664736f6c634300081e0033","linkReferences":{}},"methodIdentifiers":{"UPGRADE_INTERFACE_VERSION()":"ad3cb1cc","USDT()":"c54e44eb","_getAmountsOut(address,address,uint256)":"c6e6cc22","accRewardPerShare()":"939d6237","add(address,uint256)":"f5d82b6b","admin()":"f851a440","claim()":"4e71d92d","dividendsRate()":"7b51246f","emergencyWithdraw(address,uint256,address)":"551512de","getUserAward(address)":"3e4ff6f2","getUserInfo(address)":"6386c1c7","initialize(address,address,address,address,address)":"1459457a","leo()":"42728ffd","lex()":"7d0a1518","owner()":"8da5cb5b","pancakeRouter()":"c21ebd07","proxiableUUID()":"52d1902d","reduce(address,uint256)":"1395e640","renounceOwnership()":"715018a6","setDividendsRate(uint256)":"51013181","totalStaking()":"165defa4","transferOwnership(address)":"f2fde38b","treasuryLiquidity()":"09fb6698","updateFarm(uint256)":"cc430ced","upgradeToAndCall(address,bytes)":"4f1ef286","userInfo(address)":"1959a002"},"id":47}