{"abi":[{"type":"receive","stateMutability":"payable"},{"type":"function","name":"MAX_REFERRAL_DEPTH","inputs":[],"outputs":[{"name":"","type":"uint256","internalType":"uint256"}],"stateMutability":"view"},{"type":"function","name":"UPGRADE_INTERFACE_VERSION","inputs":[],"outputs":[{"name":"","type":"string","internalType":"string"}],"stateMutability":"view"},{"type":"function","name":"USDT","inputs":[],"outputs":[{"name":"","type":"address","internalType":"address"}],"stateMutability":"view"},{"type":"function","name":"VENUS","inputs":[],"outputs":[{"name":"","type":"address","internalType":"address"}],"stateMutability":"view"},{"type":"function","name":"admin","inputs":[],"outputs":[{"name":"","type":"address","internalType":"address"}],"stateMutability":"view"},{"type":"function","name":"claim","inputs":[],"outputs":[],"stateMutability":"nonpayable"},{"type":"function","name":"directReferrals","inputs":[{"name":"","type":"address","internalType":"address"},{"name":"","type":"uint256","internalType":"uint256"}],"outputs":[{"name":"","type":"address","internalType":"address"}],"stateMutability":"view"},{"type":"function","name":"emergencyWithdraw","inputs":[{"name":"token","type":"address","internalType":"address"},{"name":"amount","type":"uint256","internalType":"uint256"},{"name":"to","type":"address","internalType":"address"}],"outputs":[],"stateMutability":"nonpayable"},{"type":"function","name":"getAddrCollection","inputs":[],"outputs":[{"name":"","type":"address[]","internalType":"address[]"}],"stateMutability":"view"},{"type":"function","name":"getAddrCollectionLength","inputs":[],"outputs":[{"name":"","type":"uint256","internalType":"uint256"}],"stateMutability":"view"},{"type":"function","name":"getDirectReferralInfo","inputs":[{"name":"user","type":"address","internalType":"address"}],"outputs":[{"name":"infos","type":"tuple[]","internalType":"struct Enum.DirectInfo[]","components":[{"name":"user","type":"address","internalType":"address"},{"name":"nodeType","type":"uint8","internalType":"enum Enum.NodeType"},{"name":"performance","type":"uint256","internalType":"uint256"}]}],"stateMutability":"view"},{"type":"function","name":"getUserInfo","inputs":[{"name":"user","type":"address","internalType":"address"}],"outputs":[{"name":"recommender","type":"address","internalType":"address"},{"name":"nodeType","type":"uint8","internalType":"enum Enum.NodeType"},{"name":"referralNum","type":"uint256","internalType":"uint256"},{"name":"performance","type":"uint256","internalType":"uint256"},{"name":"award","type":"uint256","internalType":"uint256"},{"name":"awardRatio","type":"uint256","internalType":"uint256"},{"name":"recordAwards","type":"tuple[]","internalType":"struct Enum.RecordAward[]","components":[{"name":"user","type":"address","internalType":"address"},{"name":"amount","type":"uint256","internalType":"uint256"},{"name":"time","type":"uint256","internalType":"uint256"}]}],"stateMutability":"view"},{"type":"function","name":"initialCode","inputs":[],"outputs":[{"name":"","type":"address","internalType":"address"}],"stateMutability":"view"},{"type":"function","name":"initialize","inputs":[{"name":"_admin","type":"address","internalType":"address"},{"name":"_recipient","type":"address","internalType":"address"},{"name":"_initialCode","type":"address","internalType":"address"}],"outputs":[],"stateMutability":"nonpayable"},{"type":"function","name":"isAddCollection","inputs":[{"name":"","type":"address","internalType":"address"}],"outputs":[{"name":"","type":"bool","internalType":"bool"}],"stateMutability":"view"},{"type":"function","name":"nodePrice","inputs":[{"name":"","type":"uint8","internalType":"enum Enum.NodeType"}],"outputs":[{"name":"","type":"uint256","internalType":"uint256"}],"stateMutability":"view"},{"type":"function","name":"owner","inputs":[],"outputs":[{"name":"","type":"address","internalType":"address"}],"stateMutability":"view"},{"type":"function","name":"proxiableUUID","inputs":[],"outputs":[{"name":"","type":"bytes32","internalType":"bytes32"}],"stateMutability":"view"},{"type":"function","name":"recipient","inputs":[],"outputs":[{"name":"","type":"address","internalType":"address"}],"stateMutability":"view"},{"type":"function","name":"referral","inputs":[{"name":"recommender","type":"address","internalType":"address"}],"outputs":[],"stateMutability":"nonpayable"},{"type":"function","name":"renounceOwnership","inputs":[],"outputs":[],"stateMutability":"nonpayable"},{"type":"function","name":"setAwardRatio","inputs":[{"name":"user","type":"address","internalType":"address"},{"name":"_ratio","type":"uint256","internalType":"uint256"}],"outputs":[],"stateMutability":"nonpayable"},{"type":"function","name":"singleRecharge","inputs":[{"name":"nodeType","type":"uint8","internalType":"enum Enum.NodeType"}],"outputs":[],"stateMutability":"nonpayable"},{"type":"function","name":"totalPerformance","inputs":[],"outputs":[{"name":"","type":"uint256","internalType":"uint256"}],"stateMutability":"view"},{"type":"function","name":"transferOwnership","inputs":[{"name":"newOwner","type":"address","internalType":"address"}],"outputs":[],"stateMutability":"nonpayable"},{"type":"function","name":"upgradeToAndCall","inputs":[{"name":"newImplementation","type":"address","internalType":"address"},{"name":"data","type":"bytes","internalType":"bytes"}],"outputs":[],"stateMutability":"payable"},{"type":"function","name":"userInfo","inputs":[{"name":"","type":"address","internalType":"address"}],"outputs":[{"name":"recommender","type":"address","internalType":"address"},{"name":"nodeType","type":"uint8","internalType":"enum Enum.NodeType"},{"name":"referralNum","type":"uint256","internalType":"uint256"},{"name":"performance","type":"uint256","internalType":"uint256"},{"name":"award","type":"uint256","internalType":"uint256"},{"name":"awardRatio","type":"uint256","internalType":"uint256"}],"stateMutability":"view"},{"type":"function","name":"validInvitationCode","inputs":[{"name":"user","type":"address","internalType":"address"}],"outputs":[{"name":"","type":"bool","internalType":"bool"}],"stateMutability":"view"},{"type":"event","name":"Initialized","inputs":[{"name":"version","type":"uint64","indexed":false,"internalType":"uint64"}],"anonymous":false},{"type":"event","name":"OwnershipTransferred","inputs":[{"name":"previousOwner","type":"address","indexed":true,"internalType":"address"},{"name":"newOwner","type":"address","indexed":true,"internalType":"address"}],"anonymous":false},{"type":"event","name":"Referral","inputs":[{"name":"recommender","type":"address","indexed":false,"internalType":"address"},{"name":"referred","type":"address","indexed":false,"internalType":"address"}],"anonymous":false},{"type":"event","name":"Staked","inputs":[{"name":"user","type":"address","indexed":false,"internalType":"address"},{"name":"amount","type":"uint256","indexed":false,"internalType":"uint256"},{"name":"nodeType","type":"uint8","indexed":false,"internalType":"enum Enum.NodeType"}],"anonymous":false},{"type":"event","name":"Upgraded","inputs":[{"name":"implementation","type":"address","indexed":true,"internalType":"address"}],"anonymous":false},{"type":"error","name":"AddressEmptyCode","inputs":[{"name":"target","type":"address","internalType":"address"}]},{"type":"error","name":"ERC1967InvalidImplementation","inputs":[{"name":"implementation","type":"address","internalType":"address"}]},{"type":"error","name":"ERC1967NonPayable","inputs":[]},{"type":"error","name":"FailedCall","inputs":[]},{"type":"error","name":"InvalidInitialization","inputs":[]},{"type":"error","name":"NotInitializing","inputs":[]},{"type":"error","name":"OwnableInvalidOwner","inputs":[{"name":"owner","type":"address","internalType":"address"}]},{"type":"error","name":"OwnableUnauthorizedAccount","inputs":[{"name":"account","type":"address","internalType":"address"}]},{"type":"error","name":"ReentrancyGuardReentrantCall","inputs":[]},{"type":"error","name":"UUPSUnauthorizedCallContext","inputs":[]},{"type":"error","name":"UUPSUnsupportedProxiableUUID","inputs":[{"name":"slot","type":"bytes32","internalType":"bytes32"}]}],"bytecode":{"object":"0x60a06040523073ffffffffffffffffffffffffffffffffffffffff1660809073ffffffffffffffffffffffffffffffffffffffff168152503480156041575f5ffd5b5060015f8190555060805161464a61006f5f395f8181612255015281816122aa0152612464015261464a5ff3fe6080604052600436106101ba575f3560e01c806366d003ac116100eb578063ad3cb1cc11610089578063dcdcd08c11610063578063dcdcd08c14610627578063f2fde38b14610663578063f851a4401461068b578063fb7b09c5146106b5576101fa565b8063ad3cb1cc146105ab578063c0c53b8b146105d5578063c54e44eb146105fd576101fa565b806377e06a9e116100c557806377e06a9e1461050557806389e59ea01461052d5780638da5cb5b14610557578063a2b0332b14610581576101fa565b806366d003ac1461049d578063715018a6146104c75780637247959a146104dd576101fa565b80633c4e9d74116101585780634f1ef286116101325780634f1ef286146103ed57806352d1902d14610409578063551512de146104335780636386c1c71461045b576101fa565b80633c4e9d74146103715780634d38857c146103ad5780634e71d92d146103d7576101fa565b80631959a002116101945780631959a0021461028e5780631a78ccc1146102cf5780631f7bcc4b146102f957806339fe3b9914610335576101fa565b806305ad3935146101fe57806306876dbe1461023a57806310baf08914610264576101fa565b366101fa576040517f08c379a00000000000000000000000000000000000000000000000000000000081526004016101f1906132ec565b60405180910390fd5b5f5ffd5b348015610209575f5ffd5b50610224600480360381019061021f91906133a8565b6106dd565b60405161023191906133f5565b60405180910390f35b348015610245575f5ffd5b5061024e610725565b60405161025b919061341d565b60405180910390f35b34801561026f575f5ffd5b5061027861072b565b60405161028591906133f5565b60405180910390f35b348015610299575f5ffd5b506102b460048036038101906102af9190613436565b610750565b6040516102c6969594939291906134d4565b60405180910390f35b3480156102da575f5ffd5b506102e36107b3565b6040516102f091906133f5565b60405180910390f35b348015610304575f5ffd5b5061031f600480360381019061031a9190613556565b6107cb565b60405161032c919061341d565b60405180910390f35b348015610340575f5ffd5b5061035b60048036038101906103569190613436565b6107e0565b604051610368919061359b565b60405180910390f35b34801561037c575f5ffd5b5061039760048036038101906103929190613436565b6107fd565b6040516103a4919061359b565b60405180910390f35b3480156103b8575f5ffd5b506103c16108f1565b6040516103ce919061341d565b60405180910390f35b3480156103e2575f5ffd5b506103eb6108fd565b005b610407600480360381019061040291906136f0565b6109fa565b005b348015610414575f5ffd5b5061041d610a19565b60405161042a9190613762565b60405180910390f35b34801561043e575f5ffd5b506104596004803603810190610454919061377b565b610a4a565b005b348015610466575f5ffd5b50610481600480360381019061047c9190613436565b610ae9565b60405161049497969594939291906138d1565b60405180910390f35b3480156104a8575f5ffd5b506104b1610d21565b6040516104be91906133f5565b60405180910390f35b3480156104d2575f5ffd5b506104db610d46565b005b3480156104e8575f5ffd5b5061050360048036038101906104fe9190613436565b610d59565b005b348015610510575f5ffd5b5061052b600480360381019061052691906133a8565b6112d2565b005b348015610538575f5ffd5b506105416113ee565b60405161054e919061341d565b60405180910390f35b348015610562575f5ffd5b5061056b6113f3565b60405161057891906133f5565b60405180910390f35b34801561058c575f5ffd5b50610595611428565b6040516105a291906139ed565b60405180910390f35b3480156105b6575f5ffd5b506105bf6114b3565b6040516105cc9190613a5d565b60405180910390f35b3480156105e0575f5ffd5b506105fb60048036038101906105f69190613a7d565b6114ec565b005b348015610608575f5ffd5b50610611611802565b60405161061e91906133f5565b60405180910390f35b348015610632575f5ffd5b5061064d60048036038101906106489190613436565b61181a565b60405161065a9190613bc4565b60405180910390f35b34801561066e575f5ffd5b5061068960048036038101906106849190613436565b611a30565b005b348015610696575f5ffd5b5061069f611ab4565b6040516106ac91906133f5565b60405180910390f35b3480156106c0575f5ffd5b506106db60048036038101906106d69190613556565b611ad9565b005b6003602052815f5260405f2081815481106106f6575f80fd5b905f5260205f20015f915091509054906101000a900473ffffffffffffffffffffffffffffffffffffffff1681565b600a5481565b60065f9054906101000a900473ffffffffffffffffffffffffffffffffffffffff1681565b6001602052805f5260405f205f91509050805f015f9054906101000a900473ffffffffffffffffffffffffffffffffffffffff1690805f0160149054906101000a900460ff16908060010154908060020154908060030154908060040154905086565b73fd5840cd36d94d7229439859c0112a4185bc025581565b6004602052805f5260405f205f915090505481565b6009602052805f5260405f205f915054906101000a900460ff1681565b5f60065f9054906101000a900473ffffffffffffffffffffffffffffffffffffffff1673ffffffffffffffffffffffffffffffffffffffff168273ffffffffffffffffffffffffffffffffffffffff160361085b57600190506108ec565b5f73ffffffffffffffffffffffffffffffffffffffff1660015f8473ffffffffffffffffffffffffffffffffffffffff1673ffffffffffffffffffffffffffffffffffffffff1681526020019081526020015f205f015f9054906101000a900473ffffffffffffffffffffffffffffffffffffffff1673ffffffffffffffffffffffffffffffffffffffff16141590505b919050565b5f600880549050905090565b6109056120d6565b5f60015f3373ffffffffffffffffffffffffffffffffffffffff1673ffffffffffffffffffffffffffffffffffffffff1681526020019081526020015f206003015490505f811161098b576040517f08c379a000000000000000000000000000000000000000000000000000000000815260040161098290613c2e565b60405180910390fd5b5f60015f3373ffffffffffffffffffffffffffffffffffffffff1673ffffffffffffffffffffffffffffffffffffffff1681526020019081526020015f20600301819055506109ef7355d398326f99059ff775485246999027b3197955338361211a565b506109f861224a565b565b610a02612253565b610a0b82612339565b610a158282612344565b5050565b5f610a22612462565b7f360894a13ba1a3210667c828492db98dca3e2076cc3735a920a3ca505d382bbc5f1b905090565b3373ffffffffffffffffffffffffffffffffffffffff1660055f9054906101000a900473ffffffffffffffffffffffffffffffffffffffff1673ffffffffffffffffffffffffffffffffffffffff1614610ad9576040517f08c379a0000000000000000000000000000000000000000000000000000000008152600401610ad090613c96565b60405180910390fd5b610ae483828461211a565b505050565b5f5f5f5f5f5f60605f60015f8a73ffffffffffffffffffffffffffffffffffffffff1673ffffffffffffffffffffffffffffffffffffffff1681526020019081526020015f206040518060c00160405290815f82015f9054906101000a900473ffffffffffffffffffffffffffffffffffffffff1673ffffffffffffffffffffffffffffffffffffffff1673ffffffffffffffffffffffffffffffffffffffff1681526020015f820160149054906101000a900460ff166003811115610bb257610bb1613461565b5b6003811115610bc457610bc3613461565b5b81526020016001820154815260200160028201548152602001600382015481526020016004820154815250509050805f01519750806020015196508060400151955080606001519450806080015193508060a00151925060025f8a73ffffffffffffffffffffffffffffffffffffffff1673ffffffffffffffffffffffffffffffffffffffff1681526020019081526020015f20805480602002602001604051908101604052809291908181526020015f905b82821015610d0f578382905f5260205f2090600302016040518060600160405290815f82015f9054906101000a900473ffffffffffffffffffffffffffffffffffffffff1673ffffffffffffffffffffffffffffffffffffffff1673ffffffffffffffffffffffffffffffffffffffff1681526020016001820154815260200160028201548152505081526020019060010190610c77565b50505050915050919395979092949650565b60075f9054906101000a900473ffffffffffffffffffffffffffffffffffffffff1681565b610d4e6124e9565b610d575f612570565b565b600b5f9054906101000a900460ff1615610da8576040517f08c379a0000000000000000000000000000000000000000000000000000000008152600401610d9f90613cfe565b60405180910390fd5b5f73ffffffffffffffffffffffffffffffffffffffff168173ffffffffffffffffffffffffffffffffffffffff1603610e16576040517f08c379a0000000000000000000000000000000000000000000000000000000008152600401610e0d90613d66565b60405180910390fd5b3373ffffffffffffffffffffffffffffffffffffffff168173ffffffffffffffffffffffffffffffffffffffff1603610e84576040517f08c379a0000000000000000000000000000000000000000000000000000000008152600401610e7b90613dce565b60405180910390fd5b60065f9054906101000a900473ffffffffffffffffffffffffffffffffffffffff1673ffffffffffffffffffffffffffffffffffffffff168173ffffffffffffffffffffffffffffffffffffffff1614610fa5575f73ffffffffffffffffffffffffffffffffffffffff1660015f8373ffffffffffffffffffffffffffffffffffffffff1673ffffffffffffffffffffffffffffffffffffffff1681526020019081526020015f205f015f9054906101000a900473ffffffffffffffffffffffffffffffffffffffff1673ffffffffffffffffffffffffffffffffffffffff1603610fa4576040517f08c379a0000000000000000000000000000000000000000000000000000000008152600401610f9b90613e5c565b60405180910390fd5b5b5f73ffffffffffffffffffffffffffffffffffffffff1660015f3373ffffffffffffffffffffffffffffffffffffffff1673ffffffffffffffffffffffffffffffffffffffff1681526020019081526020015f205f015f9054906101000a900473ffffffffffffffffffffffffffffffffffffffff1673ffffffffffffffffffffffffffffffffffffffff1614611071576040517f08c379a000000000000000000000000000000000000000000000000000000000815260040161106890613ec4565b60405180910390fd5b8060015f3373ffffffffffffffffffffffffffffffffffffffff1673ffffffffffffffffffffffffffffffffffffffff1681526020019081526020015f205f015f6101000a81548173ffffffffffffffffffffffffffffffffffffffff021916908373ffffffffffffffffffffffffffffffffffffffff16021790555060035f8273ffffffffffffffffffffffffffffffffffffffff1673ffffffffffffffffffffffffffffffffffffffff1681526020019081526020015f2033908060018154018082558091505060019003905f5260205f20015f9091909190916101000a81548173ffffffffffffffffffffffffffffffffffffffff021916908373ffffffffffffffffffffffffffffffffffffffff16021790555060095f3373ffffffffffffffffffffffffffffffffffffffff1673ffffffffffffffffffffffffffffffffffffffff1681526020019081526020015f205f9054906101000a900460ff1661128d57600833908060018154018082558091505060019003905f5260205f20015f9091909190916101000a81548173ffffffffffffffffffffffffffffffffffffffff021916908373ffffffffffffffffffffffffffffffffffffffff160217905550600160095f3373ffffffffffffffffffffffffffffffffffffffff1673ffffffffffffffffffffffffffffffffffffffff1681526020019081526020015f205f6101000a81548160ff0219169083151502179055505b61129633612641565b7f9d05414fb79fac216c15606de5cc06664e91a254e4d5f57664d5f1beaf7fb7ef81336040516112c7929190613ee2565b60405180910390a150565b3373ffffffffffffffffffffffffffffffffffffffff1660055f9054906101000a900473ffffffffffffffffffffffffffffffffffffffff1673ffffffffffffffffffffffffffffffffffffffff1614611361576040517f08c379a000000000000000000000000000000000000000000000000000000000815260040161135890613c96565b60405180910390fd5b605a8111156113a5576040517f08c379a000000000000000000000000000000000000000000000000000000000815260040161139c90613f53565b60405180910390fd5b8060015f8473ffffffffffffffffffffffffffffffffffffffff1673ffffffffffffffffffffffffffffffffffffffff1681526020019081526020015f20600401819055505050565b603281565b5f5f6113fd6127ec565b9050805f015f9054906101000a900473ffffffffffffffffffffffffffffffffffffffff1691505090565b606060088054806020026020016040519081016040528092919081815260200182805480156114a957602002820191905f5260205f20905b815f9054906101000a900473ffffffffffffffffffffffffffffffffffffffff1673ffffffffffffffffffffffffffffffffffffffff1681526020019060010190808311611460575b5050505050905090565b6040518060400160405280600581526020017f352e302e3000000000000000000000000000000000000000000000000000000081525081565b5f6114f5612813565b90505f815f0160089054906101000a900460ff161590505f825f015f9054906101000a900467ffffffffffffffff1690505f5f8267ffffffffffffffff1614801561153d5750825b90505f60018367ffffffffffffffff1614801561157057505f3073ffffffffffffffffffffffffffffffffffffffff163b145b90508115801561157e575080155b156115b5576040517ff92ee8a900000000000000000000000000000000000000000000000000000000815260040160405180910390fd5b6001855f015f6101000a81548167ffffffffffffffff021916908367ffffffffffffffff1602179055508315611602576001855f0160086101000a81548160ff0219169083151502179055505b61161261160d612826565b61282d565b8760055f6101000a81548173ffffffffffffffffffffffffffffffffffffffff021916908373ffffffffffffffffffffffffffffffffffffffff1602179055508660075f6101000a81548173ffffffffffffffffffffffffffffffffffffffff021916908373ffffffffffffffffffffffffffffffffffffffff1602179055508560065f6101000a81548173ffffffffffffffffffffffffffffffffffffffff021916908373ffffffffffffffffffffffffffffffffffffffff160217905550681b1ae4d6e2ef50000060045f600160038111156116f3576116f2613461565b5b600381111561170557611704613461565b5b81526020019081526020015f2081905550686c6b935b8bbd40000060045f6002600381111561173757611736613461565b5b600381111561174957611748613461565b5b81526020019081526020015f208190555069010f0cf064dd5920000060045f60038081111561177b5761177a613461565b5b600381111561178d5761178c613461565b5b81526020019081526020015f208190555083156117f8575f855f0160086101000a81548160ff0219169083151502179055507fc7f505b2f371ae2175ee4913f4499e1f2633a7b5936321eed1cdaeb6115181d260016040516117ef9190613fc6565b60405180910390a15b5050505050505050565b7355d398326f99059ff775485246999027b319795581565b60605f60035f8473ffffffffffffffffffffffffffffffffffffffff1673ffffffffffffffffffffffffffffffffffffffff1681526020019081526020015f208054806020026020016040519081016040528092919081815260200182805480156118d757602002820191905f5260205f20905b815f9054906101000a900473ffffffffffffffffffffffffffffffffffffffff1673ffffffffffffffffffffffffffffffffffffffff168152602001906001019080831161188e575b505050505090505f815190508067ffffffffffffffff8111156118fd576118fc6135cc565b5b60405190808252806020026020018201604052801561193657816020015b61192361324c565b81526020019060019003908161191b5790505b5092505f5f90505b81811015611a28575f83828151811061195a57611959613fdf565b5b602002602001015190505f60015f8373ffffffffffffffffffffffffffffffffffffffff1673ffffffffffffffffffffffffffffffffffffffff1681526020019081526020015f20905060405180606001604052808373ffffffffffffffffffffffffffffffffffffffff168152602001825f0160149054906101000a900460ff1660038111156119ee576119ed613461565b5b81526020018260020154815250868481518110611a0e57611a0d613fdf565b5b60200260200101819052505050808060010191505061193e565b505050919050565b611a386124e9565b5f73ffffffffffffffffffffffffffffffffffffffff168173ffffffffffffffffffffffffffffffffffffffff1603611aa8575f6040517f1e4fbdf7000000000000000000000000000000000000000000000000000000008152600401611a9f91906133f5565b60405180910390fd5b611ab181612570565b50565b60055f9054906101000a900473ffffffffffffffffffffffffffffffffffffffff1681565b611ae16120d6565b600b5f9054906101000a900460ff1615611b30576040517f08c379a0000000000000000000000000000000000000000000000000000000008152600401611b2790613cfe565b60405180910390fd5b5f6003811115611b4357611b42613461565b5b816003811115611b5657611b55613461565b5b03611b96576040517f08c379a0000000000000000000000000000000000000000000000000000000008152600401611b8d90614056565b60405180910390fd5b5f60015f3373ffffffffffffffffffffffffffffffffffffffff1673ffffffffffffffffffffffffffffffffffffffff1681526020019081526020015f2090505f73ffffffffffffffffffffffffffffffffffffffff16815f015f9054906101000a900473ffffffffffffffffffffffffffffffffffffffff1673ffffffffffffffffffffffffffffffffffffffff1603611c66576040517f08c379a0000000000000000000000000000000000000000000000000000000008152600401611c5d906140e4565b60405180910390fd5b611cbb7355d398326f99059ff775485246999027b3197955333060045f876003811115611c9657611c95613461565b5b6003811115611ca857611ca7613461565b5b81526020019081526020015f2054612841565b5f6064605060045f866003811115611cd657611cd5613461565b5b6003811115611ce857611ce7613461565b5b81526020019081526020015f2054611d00919061412f565b611d0a919061419d565b9050611d3f7355d398326f99059ff775485246999027b319795573fd5840cd36d94d7229439859c0112a4185bc02555f612974565b611d727355d398326f99059ff775485246999027b319795573fd5840cd36d94d7229439859c0112a4185bc025583612974565b5f73fd5840cd36d94d7229439859c0112a4185bc025573ffffffffffffffffffffffffffffffffffffffff1663a0712d68836040518263ffffffff1660e01b8152600401611dc0919061341d565b6020604051808303815f875af1158015611ddc573d5f5f3e3d5ffd5b505050506040513d601f19601f82011682018060405250810190611e0091906141e1565b14611e40576040517f08c379a0000000000000000000000000000000000000000000000000000000008152600401611e3790614256565b60405180910390fd5b5f73fd5840cd36d94d7229439859c0112a4185bc025573ffffffffffffffffffffffffffffffffffffffff166370a08231306040518263ffffffff1660e01b8152600401611e8e91906133f5565b602060405180830381865afa158015611ea9573d5f5f3e3d5ffd5b505050506040513d601f19601f82011682018060405250810190611ecd91906141e1565b9050611f0f73fd5840cd36d94d7229439859c0112a4185bc025560075f9054906101000a900473ffffffffffffffffffffffffffffffffffffffff168361211a565b83835f0160146101000a81548160ff02191690836003811115611f3557611f34613461565b5b021790555060045f856003811115611f5057611f4f613461565b5b6003811115611f6257611f61613461565b5b81526020019081526020015f2054600a5f828254611f809190614274565b925050819055505f73ffffffffffffffffffffffffffffffffffffffff1660015f3373ffffffffffffffffffffffffffffffffffffffff1673ffffffffffffffffffffffffffffffffffffffff1681526020019081526020015f205f015f9054906101000a900473ffffffffffffffffffffffffffffffffffffffff1673ffffffffffffffffffffffffffffffffffffffff1614612058576120573360045f87600381111561203257612031613461565b5b600381111561204457612043613461565b5b81526020019081526020015f2054612aa4565b5b7f8acf475137e0cd74ca7f611d16b1e6383ec9a9c71a8e5b85967781b9c7214d113360045f8760038111156120905761208f613461565b5b60038111156120a2576120a1613461565b5b81526020019081526020015f2054866040516120c0939291906142a7565b60405180910390a15050506120d361224a565b50565b60025f5403612111576040517f3ee5aeb500000000000000000000000000000000000000000000000000000000815260040160405180910390fd5b60025f81905550565b5f5f8473ffffffffffffffffffffffffffffffffffffffff1663a9059cbb858560405160240161214b9291906142dc565b6040516020818303038152906040529060e01b6020820180517bffffffffffffffffffffffffffffffffffffffffffffffffffffffff83818316178352505050506040516121999190614347565b5f604051808303815f865af19150503d805f81146121d2576040519150601f19603f3d011682016040523d82523d5f602084013e6121d7565b606091505b509150915081801561220457505f815114806122035750808060200190518101906122029190614387565b5b5b612243576040517f08c379a000000000000000000000000000000000000000000000000000000000815260040161223a906143fc565b60405180910390fd5b5050505050565b60015f81905550565b7f000000000000000000000000000000000000000000000000000000000000000073ffffffffffffffffffffffffffffffffffffffff163073ffffffffffffffffffffffffffffffffffffffff16148061230057507f000000000000000000000000000000000000000000000000000000000000000073ffffffffffffffffffffffffffffffffffffffff166122e7612e3a565b73ffffffffffffffffffffffffffffffffffffffff1614155b15612337576040517fe07c8dba00000000000000000000000000000000000000000000000000000000815260040160405180910390fd5b565b6123416124e9565b50565b8173ffffffffffffffffffffffffffffffffffffffff166352d1902d6040518163ffffffff1660e01b8152600401602060405180830381865afa9250505080156123ac57506040513d601f19601f820116820180604052508101906123a99190614444565b60015b6123ed57816040517f4c9c8ce30000000000000000000000000000000000000000000000000000000081526004016123e491906133f5565b60405180910390fd5b7f360894a13ba1a3210667c828492db98dca3e2076cc3735a920a3ca505d382bbc5f1b811461245357806040517faa1d49a400000000000000000000000000000000000000000000000000000000815260040161244a9190613762565b60405180910390fd5b61245d8383612e8d565b505050565b7f000000000000000000000000000000000000000000000000000000000000000073ffffffffffffffffffffffffffffffffffffffff163073ffffffffffffffffffffffffffffffffffffffff16146124e7576040517fe07c8dba00000000000000000000000000000000000000000000000000000000815260040160405180910390fd5b565b6124f1612826565b73ffffffffffffffffffffffffffffffffffffffff1661250f6113f3565b73ffffffffffffffffffffffffffffffffffffffff161461256e57612532612826565b6040517f118cdaa700000000000000000000000000000000000000000000000000000000815260040161256591906133f5565b60405180910390fd5b565b5f6125796127ec565b90505f815f015f9054906101000a900473ffffffffffffffffffffffffffffffffffffffff16905082825f015f6101000a81548173ffffffffffffffffffffffffffffffffffffffff021916908373ffffffffffffffffffffffffffffffffffffffff1602179055508273ffffffffffffffffffffffffffffffffffffffff168173ffffffffffffffffffffffffffffffffffffffff167f8be0079c531659141344cd1fd0a4f28419497f9722a3daafe3b4186f6b6457e060405160405180910390a3505050565b5f60015f8373ffffffffffffffffffffffffffffffffffffffff1673ffffffffffffffffffffffffffffffffffffffff1681526020019081526020015f205f015f9054906101000a900473ffffffffffffffffffffffffffffffffffffffff1690505f5f90505b5f73ffffffffffffffffffffffffffffffffffffffff168273ffffffffffffffffffffffffffffffffffffffff16141580156126e45750603281105b156127e7578273ffffffffffffffffffffffffffffffffffffffff168273ffffffffffffffffffffffffffffffffffffffff1603156127e7576001805f8473ffffffffffffffffffffffffffffffffffffffff1673ffffffffffffffffffffffffffffffffffffffff1681526020019081526020015f206001015f82825461276c9190614274565b9250508190555060015f8373ffffffffffffffffffffffffffffffffffffffff1673ffffffffffffffffffffffffffffffffffffffff1681526020019081526020015f205f015f9054906101000a900473ffffffffffffffffffffffffffffffffffffffff16915080806127df9061446f565b9150506126a8565b505050565b5f7f9016d09d72d40fdae2fd8ceac6b6234c7706214fd39c1cd1e609a0528c199300905090565b5f5f61281d612eff565b90508091505090565b5f33905090565b612835612f28565b61283e81612f68565b50565b5f5f8573ffffffffffffffffffffffffffffffffffffffff166323b872dd868686604051602401612874939291906144b6565b6040516020818303038152906040529060e01b6020820180517bffffffffffffffffffffffffffffffffffffffffffffffffffffffff83818316178352505050506040516128c29190614347565b5f604051808303815f865af19150503d805f81146128fb576040519150601f19603f3d011682016040523d82523d5f602084013e612900565b606091505b509150915081801561292d57505f8151148061292c57508080602001905181019061292b9190614387565b5b5b61296c576040517f08c379a00000000000000000000000000000000000000000000000000000000081526004016129639061455b565b60405180910390fd5b505050505050565b5f5f8473ffffffffffffffffffffffffffffffffffffffff1663095ea7b385856040516024016129a59291906142dc565b6040516020818303038152906040529060e01b6020820180517bffffffffffffffffffffffffffffffffffffffffffffffffffffffff83818316178352505050506040516129f39190614347565b5f604051808303815f865af19150503d805f8114612a2c576040519150601f19603f3d011682016040523d82523d5f602084013e612a31565b606091505b5091509150818015612a5e57505f81511480612a5d575080806020019051810190612a5c9190614387565b5b5b612a9d576040517f08c379a0000000000000000000000000000000000000000000000000000000008152600401612a94906145c3565b60405180910390fd5b5050505050565b5f60015f8473ffffffffffffffffffffffffffffffffffffffff1673ffffffffffffffffffffffffffffffffffffffff1681526020019081526020015f205f015f9054906101000a900473ffffffffffffffffffffffffffffffffffffffff1690505f5f90505f5f90505b5f73ffffffffffffffffffffffffffffffffffffffff168373ffffffffffffffffffffffffffffffffffffffff1614158015612b4b5750603282105b15612e33578473ffffffffffffffffffffffffffffffffffffffff168373ffffffffffffffffffffffffffffffffffffffff160315612e33578360015f8573ffffffffffffffffffffffffffffffffffffffff1673ffffffffffffffffffffffffffffffffffffffff1681526020019081526020015f206002015f828254612bd39190614274565b925050819055505f60015f8573ffffffffffffffffffffffffffffffffffffffff1673ffffffffffffffffffffffffffffffffffffffff1681526020019081526020015f2060040154905081811115612dbe575f8282612c3391906145e1565b90505f60648288612c44919061412f565b612c4e919061419d565b90505f811115612d9d578060015f8873ffffffffffffffffffffffffffffffffffffffff1673ffffffffffffffffffffffffffffffffffffffff1681526020019081526020015f206003015f828254612ca79190614274565b9250508190555060025f8773ffffffffffffffffffffffffffffffffffffffff1673ffffffffffffffffffffffffffffffffffffffff1681526020019081526020015f2060405180606001604052808a73ffffffffffffffffffffffffffffffffffffffff16815260200183815260200142815250908060018154018082558091505060019003905f5260205f2090600302015f909190919091505f820151815f015f6101000a81548173ffffffffffffffffffffffffffffffffffffffff021916908373ffffffffffffffffffffffffffffffffffffffff160217905550602082015181600101556040820151816002015550505b8184612da99190614274565b935060648410612dbb57505050612e33565b50505b60015f8573ffffffffffffffffffffffffffffffffffffffff1673ffffffffffffffffffffffffffffffffffffffff1681526020019081526020015f205f015f9054906101000a900473ffffffffffffffffffffffffffffffffffffffff1693508280612e2a9061446f565b93505050612b0f565b5050505050565b5f612e667f360894a13ba1a3210667c828492db98dca3e2076cc3735a920a3ca505d382bbc5f1b612fec565b5f015f9054906101000a900473ffffffffffffffffffffffffffffffffffffffff16905090565b612e9682612ff5565b8173ffffffffffffffffffffffffffffffffffffffff167fbc7cd75a20ee27fd9adebab32041f755214dbc6bffa90cc0225b39da2e5c2d3b60405160405180910390a25f81511115612ef257612eec82826130be565b50612efb565b612efa6131af565b5b5050565b5f7ff0c57e16840df040f15088dc2f81fe391c3923bec73e23a9662efc9c229c6a005f1b905090565b612f306131eb565b612f66576040517fd7e6bcf800000000000000000000000000000000000000000000000000000000815260040160405180910390fd5b565b612f70612f28565b5f73ffffffffffffffffffffffffffffffffffffffff168173ffffffffffffffffffffffffffffffffffffffff1603612fe0575f6040517f1e4fbdf7000000000000000000000000000000000000000000000000000000008152600401612fd791906133f5565b60405180910390fd5b612fe981612570565b50565b5f819050919050565b5f8173ffffffffffffffffffffffffffffffffffffffff163b0361305057806040517f4c9c8ce300000000000000000000000000000000000000000000000000000000815260040161304791906133f5565b60405180910390fd5b8061307c7f360894a13ba1a3210667c828492db98dca3e2076cc3735a920a3ca505d382bbc5f1b612fec565b5f015f6101000a81548173ffffffffffffffffffffffffffffffffffffffff021916908373ffffffffffffffffffffffffffffffffffffffff16021790555050565b60605f6130cb8484613209565b905080801561310157505f6130de61321d565b118061310057505f8473ffffffffffffffffffffffffffffffffffffffff163b115b5b156131165761310e613224565b9150506131a9565b801561315957836040517f9996b31500000000000000000000000000000000000000000000000000000000815260040161315091906133f5565b60405180910390fd5b5f61316261321d565b111561317557613170613241565b6131a7565b6040517fd6bda27500000000000000000000000000000000000000000000000000000000815260040160405180910390fd5b505b92915050565b5f3411156131e9576040517fb398979f00000000000000000000000000000000000000000000000000000000815260040160405180910390fd5b565b5f6131f4612813565b5f0160089054906101000a900460ff16905090565b5f5f5f835160208501865af4905092915050565b5f3d905090565b606060405190503d81523d5f602083013e3d602001810160405290565b6040513d5f823e3d81fd5b60405180606001604052805f73ffffffffffffffffffffffffffffffffffffffff1681526020015f600381111561328657613285613461565b5b81526020015f81525090565b5f82825260208201905092915050565b7f4e4f5f4449524543545f53454e440000000000000000000000000000000000005f82015250565b5f6132d6600e83613292565b91506132e1826132a2565b602082019050919050565b5f6020820190508181035f830152613303816132ca565b9050919050565b5f604051905090565b5f5ffd5b5f5ffd5b5f73ffffffffffffffffffffffffffffffffffffffff82169050919050565b5f6133448261331b565b9050919050565b6133548161333a565b811461335e575f5ffd5b50565b5f8135905061336f8161334b565b92915050565b5f819050919050565b61338781613375565b8114613391575f5ffd5b50565b5f813590506133a28161337e565b92915050565b5f5f604083850312156133be576133bd613313565b5b5f6133cb85828601613361565b92505060206133dc85828601613394565b9150509250929050565b6133ef8161333a565b82525050565b5f6020820190506134085f8301846133e6565b92915050565b61341781613375565b82525050565b5f6020820190506134305f83018461340e565b92915050565b5f6020828403121561344b5761344a613313565b5b5f61345884828501613361565b91505092915050565b7f4e487b71000000000000000000000000000000000000000000000000000000005f52602160045260245ffd5b6004811061349f5761349e613461565b5b50565b5f8190506134af8261348e565b919050565b5f6134be826134a2565b9050919050565b6134ce816134b4565b82525050565b5f60c0820190506134e75f8301896133e6565b6134f460208301886134c5565b613501604083018761340e565b61350e606083018661340e565b61351b608083018561340e565b61352860a083018461340e565b979650505050505050565b6004811061353f575f5ffd5b50565b5f8135905061355081613533565b92915050565b5f6020828403121561356b5761356a613313565b5b5f61357884828501613542565b91505092915050565b5f8115159050919050565b61359581613581565b82525050565b5f6020820190506135ae5f83018461358c565b92915050565b5f5ffd5b5f5ffd5b5f601f19601f8301169050919050565b7f4e487b71000000000000000000000000000000000000000000000000000000005f52604160045260245ffd5b613602826135bc565b810181811067ffffffffffffffff82111715613621576136206135cc565b5b80604052505050565b5f61363361330a565b905061363f82826135f9565b919050565b5f67ffffffffffffffff82111561365e5761365d6135cc565b5b613667826135bc565b9050602081019050919050565b828183375f83830152505050565b5f61369461368f84613644565b61362a565b9050828152602081018484840111156136b0576136af6135b8565b5b6136bb848285613674565b509392505050565b5f82601f8301126136d7576136d66135b4565b5b81356136e7848260208601613682565b91505092915050565b5f5f6040838503121561370657613705613313565b5b5f61371385828601613361565b925050602083013567ffffffffffffffff81111561373457613733613317565b5b613740858286016136c3565b9150509250929050565b5f819050919050565b61375c8161374a565b82525050565b5f6020820190506137755f830184613753565b92915050565b5f5f5f6060848603121561379257613791613313565b5b5f61379f86828701613361565b93505060206137b086828701613394565b92505060406137c186828701613361565b9150509250925092565b5f81519050919050565b5f82825260208201905092915050565b5f819050602082019050919050565b6137fd8161333a565b82525050565b61380c81613375565b82525050565b606082015f8201516138265f8501826137f4565b5060208201516138396020850182613803565b50604082015161384c6040850182613803565b50505050565b5f61385d8383613812565b60608301905092915050565b5f602082019050919050565b5f61387f826137cb565b61388981856137d5565b9350613894836137e5565b805f5b838110156138c45781516138ab8882613852565b97506138b683613869565b925050600181019050613897565b5085935050505092915050565b5f60e0820190506138e45f83018a6133e6565b6138f160208301896134c5565b6138fe604083018861340e565b61390b606083018761340e565b613918608083018661340e565b61392560a083018561340e565b81810360c08301526139378184613875565b905098975050505050505050565b5f81519050919050565b5f82825260208201905092915050565b5f819050602082019050919050565b5f61397983836137f4565b60208301905092915050565b5f602082019050919050565b5f61399b82613945565b6139a5818561394f565b93506139b08361395f565b805f5b838110156139e05781516139c7888261396e565b97506139d283613985565b9250506001810190506139b3565b5085935050505092915050565b5f6020820190508181035f830152613a058184613991565b905092915050565b5f81519050919050565b8281835e5f83830152505050565b5f613a2f82613a0d565b613a398185613292565b9350613a49818560208601613a17565b613a52816135bc565b840191505092915050565b5f6020820190508181035f830152613a758184613a25565b905092915050565b5f5f5f60608486031215613a9457613a93613313565b5b5f613aa186828701613361565b9350506020613ab286828701613361565b9250506040613ac386828701613361565b9150509250925092565b5f81519050919050565b5f82825260208201905092915050565b5f819050602082019050919050565b613aff816134b4565b82525050565b606082015f820151613b195f8501826137f4565b506020820151613b2c6020850182613af6565b506040820151613b3f6040850182613803565b50505050565b5f613b508383613b05565b60608301905092915050565b5f602082019050919050565b5f613b7282613acd565b613b7c8185613ad7565b9350613b8783613ae7565b805f5b83811015613bb7578151613b9e8882613b45565b9750613ba983613b5c565b925050600181019050613b8a565b5085935050505092915050565b5f6020820190508181035f830152613bdc8184613b68565b905092915050565b7f4e4f5f41574152440000000000000000000000000000000000000000000000005f82015250565b5f613c18600883613292565b9150613c2382613be4565b602082019050919050565b5f6020820190508181035f830152613c4581613c0c565b9050919050565b7f4e6f74207065726d69742e0000000000000000000000000000000000000000005f82015250565b5f613c80600b83613292565b9150613c8b82613c4c565b602082019050919050565b5f6020820190508181035f830152613cad81613c74565b9050919050565b7f416c7265616479205061757365642e00000000000000000000000000000000005f82015250565b5f613ce8600f83613292565b9150613cf382613cb4565b602082019050919050565b5f6020820190508181035f830152613d1581613cdc565b9050919050565b7f5a45524f5f414444524553532e000000000000000000000000000000000000005f82015250565b5f613d50600d83613292565b9150613d5b82613d1c565b602082019050919050565b5f6020820190508181035f830152613d7d81613d44565b9050919050565b7f494e56414c49445f5245434f4d4d454e4445522e0000000000000000000000005f82015250565b5f613db8601483613292565b9150613dc382613d84565b602082019050919050565b5f6020820190508181035f830152613de581613dac565b9050919050565b7f5245434f4d4d454e444154494f4e5f49535f52455155495245445f52454645525f8201527f52414c2e00000000000000000000000000000000000000000000000000000000602082015250565b5f613e46602483613292565b9150613e5182613dec565b604082019050919050565b5f6020820190508181035f830152613e7381613e3a565b9050919050565b7f494e56495445525f414c52454144595f4558495354532e0000000000000000005f82015250565b5f613eae601783613292565b9150613eb982613e7a565b602082019050919050565b5f6020820190508181035f830152613edb81613ea2565b9050919050565b5f604082019050613ef55f8301856133e6565b613f0260208301846133e6565b9392505050565b7f4572726f7220726174696f2e00000000000000000000000000000000000000005f82015250565b5f613f3d600c83613292565b9150613f4882613f09565b602082019050919050565b5f6020820190508181035f830152613f6a81613f31565b9050919050565b5f819050919050565b5f67ffffffffffffffff82169050919050565b5f819050919050565b5f613fb0613fab613fa684613f71565b613f8d565b613f7a565b9050919050565b613fc081613f96565b82525050565b5f602082019050613fd95f830184613fb7565b92915050565b7f4e487b71000000000000000000000000000000000000000000000000000000005f52603260045260245ffd5b7f4552524f525f4e4f44455f545950452e000000000000000000000000000000005f82015250565b5f614040601083613292565b915061404b8261400c565b602082019050919050565b5f6020820190508181035f83015261406d81614034565b9050919050565b7f5245434f4d4d454e444154494f4e5f49535f52455155495245445f52454348415f8201527f5247452e00000000000000000000000000000000000000000000000000000000602082015250565b5f6140ce602483613292565b91506140d982614074565b604082019050919050565b5f6020820190508181035f8301526140fb816140c2565b9050919050565b7f4e487b71000000000000000000000000000000000000000000000000000000005f52601160045260245ffd5b5f61413982613375565b915061414483613375565b925082820261415281613375565b9150828204841483151761416957614168614102565b5b5092915050565b7f4e487b71000000000000000000000000000000000000000000000000000000005f52601260045260245ffd5b5f6141a782613375565b91506141b283613375565b9250826141c2576141c1614170565b5b828204905092915050565b5f815190506141db8161337e565b92915050565b5f602082840312156141f6576141f5613313565b5b5f614203848285016141cd565b91505092915050565b7f56454e55535f4d494e545f4641494c45440000000000000000000000000000005f82015250565b5f614240601183613292565b915061424b8261420c565b602082019050919050565b5f6020820190508181035f83015261426d81614234565b9050919050565b5f61427e82613375565b915061428983613375565b92508282019050808211156142a1576142a0614102565b5b92915050565b5f6060820190506142ba5f8301866133e6565b6142c7602083018561340e565b6142d460408301846134c5565b949350505050565b5f6040820190506142ef5f8301856133e6565b6142fc602083018461340e565b9392505050565b5f81519050919050565b5f81905092915050565b5f61432182614303565b61432b818561430d565b935061433b818560208601613a17565b80840191505092915050565b5f6143528284614317565b915081905092915050565b61436681613581565b8114614370575f5ffd5b50565b5f815190506143818161435d565b92915050565b5f6020828403121561439c5761439b613313565b5b5f6143a984828501614373565b91505092915050565b7f5472616e7366657248656c7065723a205452414e534645525f4641494c4544005f82015250565b5f6143e6601f83613292565b91506143f1826143b2565b602082019050919050565b5f6020820190508181035f830152614413816143da565b9050919050565b6144238161374a565b811461442d575f5ffd5b50565b5f8151905061443e8161441a565b92915050565b5f6020828403121561445957614458613313565b5b5f61446684828501614430565b91505092915050565b5f61447982613375565b91507fffffffffffffffffffffffffffffffffffffffffffffffffffffffffffffffff82036144ab576144aa614102565b5b600182019050919050565b5f6060820190506144c95f8301866133e6565b6144d660208301856133e6565b6144e3604083018461340e565b949350505050565b7f5472616e7366657248656c7065723a205452414e534645525f46524f4d5f46415f8201527f494c454400000000000000000000000000000000000000000000000000000000602082015250565b5f614545602483613292565b9150614550826144eb565b604082019050919050565b5f6020820190508181035f83015261457281614539565b9050919050565b7f5472616e7366657248656c7065723a20415050524f56455f4641494c454400005f82015250565b5f6145ad601e83613292565b91506145b882614579565b602082019050919050565b5f6020820190508181035f8301526145da816145a1565b9050919050565b5f6145eb82613375565b91506145f683613375565b925082820390508181111561460e5761460d614102565b5b9291505056fea2646970667358221220f8749fa4061d11a284cbe4d936e26205d089c081cda1dd29faffba23aeafbee164736f6c634300081e0033","linkReferences":{}},"methodIdentifiers":{"MAX_REFERRAL_DEPTH()":"89e59ea0","UPGRADE_INTERFACE_VERSION()":"ad3cb1cc","USDT()":"c54e44eb","VENUS()":"1a78ccc1","admin()":"f851a440","claim()":"4e71d92d","directReferrals(address,uint256)":"05ad3935","emergencyWithdraw(address,uint256,address)":"551512de","getAddrCollection()":"a2b0332b","getAddrCollectionLength()":"4d38857c","getDirectReferralInfo(address)":"dcdcd08c","getUserInfo(address)":"6386c1c7","initialCode()":"10baf089","initialize(address,address,address)":"c0c53b8b","isAddCollection(address)":"39fe3b99","nodePrice(uint8)":"1f7bcc4b","owner()":"8da5cb5b","proxiableUUID()":"52d1902d","recipient()":"66d003ac","referral(address)":"7247959a","renounceOwnership()":"715018a6","setAwardRatio(address,uint256)":"77e06a9e","singleRecharge(uint8)":"fb7b09c5","totalPerformance()":"06876dbe","transferOwnership(address)":"f2fde38b","upgradeToAndCall(address,bytes)":"4f1ef286","userInfo(address)":"1959a002","validInvitationCode(address)":"3c4e9d74"},"id":38}