{"abi":[{"type":"receive","stateMutability":"payable"},{"type":"function","name":"MAX_REFERRAL_DEPTH","inputs":[],"outputs":[{"name":"","type":"uint256","internalType":"uint256"}],"stateMutability":"view"},{"type":"function","name":"UPGRADE_INTERFACE_VERSION","inputs":[],"outputs":[{"name":"","type":"string","internalType":"string"}],"stateMutability":"view"},{"type":"function","name":"USDT","inputs":[],"outputs":[{"name":"","type":"address","internalType":"address"}],"stateMutability":"view"},{"type":"function","name":"VENUS","inputs":[],"outputs":[{"name":"","type":"address","internalType":"address"}],"stateMutability":"view"},{"type":"function","name":"admin","inputs":[],"outputs":[{"name":"","type":"address","internalType":"address"}],"stateMutability":"view"},{"type":"function","name":"claim","inputs":[],"outputs":[],"stateMutability":"nonpayable"},{"type":"function","name":"directReferrals","inputs":[{"name":"","type":"address","internalType":"address"},{"name":"","type":"uint256","internalType":"uint256"}],"outputs":[{"name":"","type":"address","internalType":"address"}],"stateMutability":"view"},{"type":"function","name":"emergencyWithdraw","inputs":[{"name":"token","type":"address","internalType":"address"},{"name":"amount","type":"uint256","internalType":"uint256"},{"name":"to","type":"address","internalType":"address"}],"outputs":[],"stateMutability":"nonpayable"},{"type":"function","name":"getAddrCollection","inputs":[],"outputs":[{"name":"","type":"address[]","internalType":"address[]"}],"stateMutability":"view"},{"type":"function","name":"getAddrCollectionLength","inputs":[],"outputs":[{"name":"","type":"uint256","internalType":"uint256"}],"stateMutability":"view"},{"type":"function","name":"getDirectReferralInfo","inputs":[{"name":"user","type":"address","internalType":"address"}],"outputs":[{"name":"infos","type":"tuple[]","internalType":"struct Enum.DirectInfo[]","components":[{"name":"user","type":"address","internalType":"address"},{"name":"nodeType","type":"uint8","internalType":"enum Enum.NodeType"},{"name":"performance","type":"uint256","internalType":"uint256"}]}],"stateMutability":"view"},{"type":"function","name":"getMigrateInfo","inputs":[{"name":"user","type":"address","internalType":"address"}],"outputs":[{"name":"recommender","type":"address","internalType":"address"},{"name":"nodeType","type":"uint8","internalType":"enum Enum.NodeType"},{"name":"amount","type":"uint256","internalType":"uint256"}],"stateMutability":"view"},{"type":"function","name":"getUserInfo","inputs":[{"name":"user","type":"address","internalType":"address"}],"outputs":[{"name":"recommender","type":"address","internalType":"address"},{"name":"nodeType","type":"uint8","internalType":"enum Enum.NodeType"},{"name":"referralNum","type":"uint256","internalType":"uint256"},{"name":"performance","type":"uint256","internalType":"uint256"},{"name":"award","type":"uint256","internalType":"uint256"},{"name":"awardRatio","type":"uint256","internalType":"uint256"},{"name":"recordAwards","type":"tuple[]","internalType":"struct Enum.RecordAward[]","components":[{"name":"user","type":"address","internalType":"address"},{"name":"amount","type":"uint256","internalType":"uint256"},{"name":"time","type":"uint256","internalType":"uint256"}]}],"stateMutability":"view"},{"type":"function","name":"initialCode","inputs":[],"outputs":[{"name":"","type":"address","internalType":"address"}],"stateMutability":"view"},{"type":"function","name":"initialize","inputs":[{"name":"_admin","type":"address","internalType":"address"},{"name":"_recipient","type":"address","internalType":"address"},{"name":"_initialCode","type":"address","internalType":"address"}],"outputs":[],"stateMutability":"nonpayable"},{"type":"function","name":"isAddCollection","inputs":[{"name":"","type":"address","internalType":"address"}],"outputs":[{"name":"","type":"bool","internalType":"bool"}],"stateMutability":"view"},{"type":"function","name":"nodePrice","inputs":[{"name":"","type":"uint8","internalType":"enum Enum.NodeType"}],"outputs":[{"name":"","type":"uint256","internalType":"uint256"}],"stateMutability":"view"},{"type":"function","name":"owner","inputs":[],"outputs":[{"name":"","type":"address","internalType":"address"}],"stateMutability":"view"},{"type":"function","name":"proxiableUUID","inputs":[],"outputs":[{"name":"","type":"bytes32","internalType":"bytes32"}],"stateMutability":"view"},{"type":"function","name":"recipient","inputs":[],"outputs":[{"name":"","type":"address","internalType":"address"}],"stateMutability":"view"},{"type":"function","name":"referral","inputs":[{"name":"recommender","type":"address","internalType":"address"}],"outputs":[],"stateMutability":"nonpayable"},{"type":"function","name":"renounceOwnership","inputs":[],"outputs":[],"stateMutability":"nonpayable"},{"type":"function","name":"setAwardRatio","inputs":[{"name":"user","type":"address","internalType":"address"},{"name":"_ratio","type":"uint256","internalType":"uint256"}],"outputs":[],"stateMutability":"nonpayable"},{"type":"function","name":"singleRecharge","inputs":[{"name":"nodeType","type":"uint8","internalType":"enum Enum.NodeType"}],"outputs":[],"stateMutability":"nonpayable"},{"type":"function","name":"totalPerformance","inputs":[],"outputs":[{"name":"","type":"uint256","internalType":"uint256"}],"stateMutability":"view"},{"type":"function","name":"transferOwnership","inputs":[{"name":"newOwner","type":"address","internalType":"address"}],"outputs":[],"stateMutability":"nonpayable"},{"type":"function","name":"upgradeToAndCall","inputs":[{"name":"newImplementation","type":"address","internalType":"address"},{"name":"data","type":"bytes","internalType":"bytes"}],"outputs":[],"stateMutability":"payable"},{"type":"function","name":"userInfo","inputs":[{"name":"","type":"address","internalType":"address"}],"outputs":[{"name":"recommender","type":"address","internalType":"address"},{"name":"nodeType","type":"uint8","internalType":"enum Enum.NodeType"},{"name":"referralNum","type":"uint256","internalType":"uint256"},{"name":"performance","type":"uint256","internalType":"uint256"},{"name":"award","type":"uint256","internalType":"uint256"},{"name":"awardRatio","type":"uint256","internalType":"uint256"}],"stateMutability":"view"},{"type":"function","name":"validInvitationCode","inputs":[{"name":"user","type":"address","internalType":"address"}],"outputs":[{"name":"","type":"bool","internalType":"bool"}],"stateMutability":"view"},{"type":"event","name":"Initialized","inputs":[{"name":"version","type":"uint64","indexed":false,"internalType":"uint64"}],"anonymous":false},{"type":"event","name":"OwnershipTransferred","inputs":[{"name":"previousOwner","type":"address","indexed":true,"internalType":"address"},{"name":"newOwner","type":"address","indexed":true,"internalType":"address"}],"anonymous":false},{"type":"event","name":"Referral","inputs":[{"name":"recommender","type":"address","indexed":false,"internalType":"address"},{"name":"referred","type":"address","indexed":false,"internalType":"address"}],"anonymous":false},{"type":"event","name":"Staked","inputs":[{"name":"user","type":"address","indexed":false,"internalType":"address"},{"name":"amount","type":"uint256","indexed":false,"internalType":"uint256"},{"name":"nodeType","type":"uint8","indexed":false,"internalType":"enum Enum.NodeType"}],"anonymous":false},{"type":"event","name":"Upgraded","inputs":[{"name":"implementation","type":"address","indexed":true,"internalType":"address"}],"anonymous":false},{"type":"error","name":"AddressEmptyCode","inputs":[{"name":"target","type":"address","internalType":"address"}]},{"type":"error","name":"ERC1967InvalidImplementation","inputs":[{"name":"implementation","type":"address","internalType":"address"}]},{"type":"error","name":"ERC1967NonPayable","inputs":[]},{"type":"error","name":"FailedCall","inputs":[]},{"type":"error","name":"InvalidInitialization","inputs":[]},{"type":"error","name":"NotInitializing","inputs":[]},{"type":"error","name":"OwnableInvalidOwner","inputs":[{"name":"owner","type":"address","internalType":"address"}]},{"type":"error","name":"OwnableUnauthorizedAccount","inputs":[{"name":"account","type":"address","internalType":"address"}]},{"type":"error","name":"ReentrancyGuardReentrantCall","inputs":[]},{"type":"error","name":"UUPSUnauthorizedCallContext","inputs":[]},{"type":"error","name":"UUPSUnsupportedProxiableUUID","inputs":[{"name":"slot","type":"bytes32","internalType":"bytes32"}]}],"bytecode":{"object":"0x60a06040523073ffffffffffffffffffffffffffffffffffffffff1660809073ffffffffffffffffffffffffffffffffffffffff168152503480156041575f5ffd5b5060015f8190555060805161490861006f5f395f8181612476015281816124cb015261268501526149085ff3fe6080604052600436106101c5575f3560e01c806366d003ac116100f6578063ad3cb1cc11610094578063dcdcd08c11610063578063dcdcd08c14610670578063f2fde38b146106ac578063f851a440146106d4578063fb7b09c5146106fe57610205565b8063ad3cb1cc146105b6578063b3a48366146105e0578063c0c53b8b1461061e578063c54e44eb1461064657610205565b806377e06a9e116100d057806377e06a9e1461051057806389e59ea0146105385780638da5cb5b14610562578063a2b0332b1461058c57610205565b806366d003ac146104a8578063715018a6146104d25780637247959a146104e857610205565b80633c4e9d74116101635780634f1ef2861161013d5780634f1ef286146103f857806352d1902d14610414578063551512de1461043e5780636386c1c71461046657610205565b80633c4e9d741461037c5780634d38857c146103b85780634e71d92d146103e257610205565b80631959a0021161019f5780631959a002146102995780631a78ccc1146102da5780631f7bcc4b1461030457806339fe3b991461034057610205565b806305ad39351461020957806306876dbe1461024557806310baf0891461026f57610205565b36610205576040517f08c379a00000000000000000000000000000000000000000000000000000000081526004016101fc9061350d565b60405180910390fd5b5f5ffd5b348015610214575f5ffd5b5061022f600480360381019061022a91906135c9565b610726565b60405161023c9190613616565b60405180910390f35b348015610250575f5ffd5b5061025961076e565b604051610266919061363e565b60405180910390f35b34801561027a575f5ffd5b50610283610774565b6040516102909190613616565b60405180910390f35b3480156102a4575f5ffd5b506102bf60048036038101906102ba9190613657565b610799565b6040516102d1969594939291906136f5565b60405180910390f35b3480156102e5575f5ffd5b506102ee6107fc565b6040516102fb9190613616565b60405180910390f35b34801561030f575f5ffd5b5061032a60048036038101906103259190613777565b610814565b604051610337919061363e565b60405180910390f35b34801561034b575f5ffd5b5061036660048036038101906103619190613657565b610829565b60405161037391906137bc565b60405180910390f35b348015610387575f5ffd5b506103a2600480360381019061039d9190613657565b610846565b6040516103af91906137bc565b60405180910390f35b3480156103c3575f5ffd5b506103cc61093a565b6040516103d9919061363e565b60405180910390f35b3480156103ed575f5ffd5b506103f6610946565b005b610412600480360381019061040d9190613911565b610a43565b005b34801561041f575f5ffd5b50610428610a62565b6040516104359190613983565b60405180910390f35b348015610449575f5ffd5b50610464600480360381019061045f919061399c565b610a93565b005b348015610471575f5ffd5b5061048c60048036038101906104879190613657565b610b32565b60405161049f9796959493929190613af2565b60405180910390f35b3480156104b3575f5ffd5b506104bc610d6a565b6040516104c99190613616565b60405180910390f35b3480156104dd575f5ffd5b506104e6610d8f565b005b3480156104f3575f5ffd5b5061050e60048036038101906105099190613657565b610da2565b005b34801561051b575f5ffd5b50610536600480360381019061053191906135c9565b61131b565b005b348015610543575f5ffd5b5061054c611437565b604051610559919061363e565b60405180910390f35b34801561056d575f5ffd5b5061057661143c565b6040516105839190613616565b60405180910390f35b348015610597575f5ffd5b506105a0611471565b6040516105ad9190613c0e565b60405180910390f35b3480156105c1575f5ffd5b506105ca6114fc565b6040516105d79190613c7e565b60405180910390f35b3480156105eb575f5ffd5b5061060660048036038101906106019190613657565b611535565b60405161061593929190613c9e565b60405180910390f35b348015610629575f5ffd5b50610644600480360381019061063f9190613cd3565b61168a565b005b348015610651575f5ffd5b5061065a61199c565b6040516106679190613616565b60405180910390f35b34801561067b575f5ffd5b5061069660048036038101906106919190613657565b6119b4565b6040516106a39190613e1a565b60405180910390f35b3480156106b7575f5ffd5b506106d260048036038101906106cd9190613657565b611bca565b005b3480156106df575f5ffd5b506106e8611c4e565b6040516106f59190613616565b60405180910390f35b348015610709575f5ffd5b50610724600480360381019061071f9190613777565b611c73565b005b6003602052815f5260405f20818154811061073f575f80fd5b905f5260205f20015f915091509054906101000a900473ffffffffffffffffffffffffffffffffffffffff1681565b600a5481565b60065f9054906101000a900473ffffffffffffffffffffffffffffffffffffffff1681565b6001602052805f5260405f205f91509050805f015f9054906101000a900473ffffffffffffffffffffffffffffffffffffffff1690805f0160149054906101000a900460ff16908060010154908060020154908060030154908060040154905086565b73fd5840cd36d94d7229439859c0112a4185bc025581565b6004602052805f5260405f205f915090505481565b6009602052805f5260405f205f915054906101000a900460ff1681565b5f60065f9054906101000a900473ffffffffffffffffffffffffffffffffffffffff1673ffffffffffffffffffffffffffffffffffffffff168273ffffffffffffffffffffffffffffffffffffffff16036108a45760019050610935565b5f73ffffffffffffffffffffffffffffffffffffffff1660015f8473ffffffffffffffffffffffffffffffffffffffff1673ffffffffffffffffffffffffffffffffffffffff1681526020019081526020015f205f015f9054906101000a900473ffffffffffffffffffffffffffffffffffffffff1673ffffffffffffffffffffffffffffffffffffffff16141590505b919050565b5f600880549050905090565b61094e6122f7565b5f60015f3373ffffffffffffffffffffffffffffffffffffffff1673ffffffffffffffffffffffffffffffffffffffff1681526020019081526020015f206003015490505f81116109d4576040517f08c379a00000000000000000000000000000000000000000000000000000000081526004016109cb90613e84565b60405180910390fd5b5f60015f3373ffffffffffffffffffffffffffffffffffffffff1673ffffffffffffffffffffffffffffffffffffffff1681526020019081526020015f2060030181905550610a387355d398326f99059ff775485246999027b3197955338361233b565b50610a4161246b565b565b610a4b612474565b610a548261255a565b610a5e8282612565565b5050565b5f610a6b612683565b7f360894a13ba1a3210667c828492db98dca3e2076cc3735a920a3ca505d382bbc5f1b905090565b3373ffffffffffffffffffffffffffffffffffffffff1660055f9054906101000a900473ffffffffffffffffffffffffffffffffffffffff1673ffffffffffffffffffffffffffffffffffffffff1614610b22576040517f08c379a0000000000000000000000000000000000000000000000000000000008152600401610b1990613eec565b60405180910390fd5b610b2d83828461233b565b505050565b5f5f5f5f5f5f60605f60015f8a73ffffffffffffffffffffffffffffffffffffffff1673ffffffffffffffffffffffffffffffffffffffff1681526020019081526020015f206040518060c00160405290815f82015f9054906101000a900473ffffffffffffffffffffffffffffffffffffffff1673ffffffffffffffffffffffffffffffffffffffff1673ffffffffffffffffffffffffffffffffffffffff1681526020015f820160149054906101000a900460ff166003811115610bfb57610bfa613682565b5b6003811115610c0d57610c0c613682565b5b81526020016001820154815260200160028201548152602001600382015481526020016004820154815250509050805f01519750806020015196508060400151955080606001519450806080015193508060a00151925060025f8a73ffffffffffffffffffffffffffffffffffffffff1673ffffffffffffffffffffffffffffffffffffffff1681526020019081526020015f20805480602002602001604051908101604052809291908181526020015f905b82821015610d58578382905f5260205f2090600302016040518060600160405290815f82015f9054906101000a900473ffffffffffffffffffffffffffffffffffffffff1673ffffffffffffffffffffffffffffffffffffffff1673ffffffffffffffffffffffffffffffffffffffff1681526020016001820154815260200160028201548152505081526020019060010190610cc0565b50505050915050919395979092949650565b60075f9054906101000a900473ffffffffffffffffffffffffffffffffffffffff1681565b610d9761270a565b610da05f612791565b565b600b5f9054906101000a900460ff1615610df1576040517f08c379a0000000000000000000000000000000000000000000000000000000008152600401610de890613f54565b60405180910390fd5b5f73ffffffffffffffffffffffffffffffffffffffff168173ffffffffffffffffffffffffffffffffffffffff1603610e5f576040517f08c379a0000000000000000000000000000000000000000000000000000000008152600401610e5690613fbc565b60405180910390fd5b3373ffffffffffffffffffffffffffffffffffffffff168173ffffffffffffffffffffffffffffffffffffffff1603610ecd576040517f08c379a0000000000000000000000000000000000000000000000000000000008152600401610ec490614024565b60405180910390fd5b60065f9054906101000a900473ffffffffffffffffffffffffffffffffffffffff1673ffffffffffffffffffffffffffffffffffffffff168173ffffffffffffffffffffffffffffffffffffffff1614610fee575f73ffffffffffffffffffffffffffffffffffffffff1660015f8373ffffffffffffffffffffffffffffffffffffffff1673ffffffffffffffffffffffffffffffffffffffff1681526020019081526020015f205f015f9054906101000a900473ffffffffffffffffffffffffffffffffffffffff1673ffffffffffffffffffffffffffffffffffffffff1603610fed576040517f08c379a0000000000000000000000000000000000000000000000000000000008152600401610fe4906140b2565b60405180910390fd5b5b5f73ffffffffffffffffffffffffffffffffffffffff1660015f3373ffffffffffffffffffffffffffffffffffffffff1673ffffffffffffffffffffffffffffffffffffffff1681526020019081526020015f205f015f9054906101000a900473ffffffffffffffffffffffffffffffffffffffff1673ffffffffffffffffffffffffffffffffffffffff16146110ba576040517f08c379a00000000000000000000000000000000000000000000000000000000081526004016110b19061411a565b60405180910390fd5b8060015f3373ffffffffffffffffffffffffffffffffffffffff1673ffffffffffffffffffffffffffffffffffffffff1681526020019081526020015f205f015f6101000a81548173ffffffffffffffffffffffffffffffffffffffff021916908373ffffffffffffffffffffffffffffffffffffffff16021790555060035f8273ffffffffffffffffffffffffffffffffffffffff1673ffffffffffffffffffffffffffffffffffffffff1681526020019081526020015f2033908060018154018082558091505060019003905f5260205f20015f9091909190916101000a81548173ffffffffffffffffffffffffffffffffffffffff021916908373ffffffffffffffffffffffffffffffffffffffff16021790555060095f3373ffffffffffffffffffffffffffffffffffffffff1673ffffffffffffffffffffffffffffffffffffffff1681526020019081526020015f205f9054906101000a900460ff166112d657600833908060018154018082558091505060019003905f5260205f20015f9091909190916101000a81548173ffffffffffffffffffffffffffffffffffffffff021916908373ffffffffffffffffffffffffffffffffffffffff160217905550600160095f3373ffffffffffffffffffffffffffffffffffffffff1673ffffffffffffffffffffffffffffffffffffffff1681526020019081526020015f205f6101000a81548160ff0219169083151502179055505b6112df33612862565b7f9d05414fb79fac216c15606de5cc06664e91a254e4d5f57664d5f1beaf7fb7ef8133604051611310929190614138565b60405180910390a150565b3373ffffffffffffffffffffffffffffffffffffffff1660055f9054906101000a900473ffffffffffffffffffffffffffffffffffffffff1673ffffffffffffffffffffffffffffffffffffffff16146113aa576040517f08c379a00000000000000000000000000000000000000000000000000000000081526004016113a190613eec565b60405180910390fd5b605a8111156113ee576040517f08c379a00000000000000000000000000000000000000000000000000000000081526004016113e5906141a9565b60405180910390fd5b8060015f8473ffffffffffffffffffffffffffffffffffffffff1673ffffffffffffffffffffffffffffffffffffffff1681526020019081526020015f20600401819055505050565b603281565b5f5f611446612a0d565b9050805f015f9054906101000a900473ffffffffffffffffffffffffffffffffffffffff1691505090565b606060088054806020026020016040519081016040528092919081815260200182805480156114f257602002820191905f5260205f20905b815f9054906101000a900473ffffffffffffffffffffffffffffffffffffffff1673ffffffffffffffffffffffffffffffffffffffff16815260200190600101908083116114a9575b5050505050905090565b6040518060400160405280600581526020017f352e302e3000000000000000000000000000000000000000000000000000000081525081565b5f5f5f5f60015f8673ffffffffffffffffffffffffffffffffffffffff1673ffffffffffffffffffffffffffffffffffffffff1681526020019081526020015f206040518060c00160405290815f82015f9054906101000a900473ffffffffffffffffffffffffffffffffffffffff1673ffffffffffffffffffffffffffffffffffffffff1673ffffffffffffffffffffffffffffffffffffffff1681526020015f820160149054906101000a900460ff1660038111156115f9576115f8613682565b5b600381111561160b5761160a613682565b5b81526020016001820154815260200160028201548152602001600382015481526020016004820154815250509050805f015193508060200151925060045f826020015160038111156116605761165f613682565b5b600381111561167257611671613682565b5b81526020019081526020015f20549150509193909250565b5f611693612a34565b90505f815f0160089054906101000a900460ff161590505f825f015f9054906101000a900467ffffffffffffffff1690505f5f8267ffffffffffffffff161480156116db5750825b90505f60018367ffffffffffffffff1614801561170e57505f3073ffffffffffffffffffffffffffffffffffffffff163b145b90508115801561171c575080155b15611753576040517ff92ee8a900000000000000000000000000000000000000000000000000000000815260040160405180910390fd5b6001855f015f6101000a81548167ffffffffffffffff021916908367ffffffffffffffff16021790555083156117a0576001855f0160086101000a81548160ff0219169083151502179055505b6117b06117ab612a47565b612a4e565b8760055f6101000a81548173ffffffffffffffffffffffffffffffffffffffff021916908373ffffffffffffffffffffffffffffffffffffffff1602179055508660075f6101000a81548173ffffffffffffffffffffffffffffffffffffffff021916908373ffffffffffffffffffffffffffffffffffffffff1602179055508560065f6101000a81548173ffffffffffffffffffffffffffffffffffffffff021916908373ffffffffffffffffffffffffffffffffffffffff16021790555067016345785d8a000060045f600160038111156118905761188f613682565b5b60038111156118a2576118a1613682565b5b81526020019081526020015f20819055506702c68af0bb14000060045f600260038111156118d3576118d2613682565b5b60038111156118e5576118e4613682565b5b81526020019081526020015f2081905550670429d069189e000060045f60038081111561191557611914613682565b5b600381111561192757611926613682565b5b81526020019081526020015f20819055508315611992575f855f0160086101000a81548160ff0219169083151502179055507fc7f505b2f371ae2175ee4913f4499e1f2633a7b5936321eed1cdaeb6115181d26001604051611989919061421c565b60405180910390a15b5050505050505050565b7355d398326f99059ff775485246999027b319795581565b60605f60035f8473ffffffffffffffffffffffffffffffffffffffff1673ffffffffffffffffffffffffffffffffffffffff1681526020019081526020015f20805480602002602001604051908101604052809291908181526020018280548015611a7157602002820191905f5260205f20905b815f9054906101000a900473ffffffffffffffffffffffffffffffffffffffff1673ffffffffffffffffffffffffffffffffffffffff1681526020019060010190808311611a28575b505050505090505f815190508067ffffffffffffffff811115611a9757611a966137ed565b5b604051908082528060200260200182016040528015611ad057816020015b611abd61346d565b815260200190600190039081611ab55790505b5092505f5f90505b81811015611bc2575f838281518110611af457611af3614235565b5b602002602001015190505f60015f8373ffffffffffffffffffffffffffffffffffffffff1673ffffffffffffffffffffffffffffffffffffffff1681526020019081526020015f20905060405180606001604052808373ffffffffffffffffffffffffffffffffffffffff168152602001825f0160149054906101000a900460ff166003811115611b8857611b87613682565b5b81526020018260020154815250868481518110611ba857611ba7614235565b5b602002602001018190525050508080600101915050611ad8565b505050919050565b611bd261270a565b5f73ffffffffffffffffffffffffffffffffffffffff168173ffffffffffffffffffffffffffffffffffffffff1603611c42575f6040517f1e4fbdf7000000000000000000000000000000000000000000000000000000008152600401611c399190613616565b60405180910390fd5b611c4b81612791565b50565b60055f9054906101000a900473ffffffffffffffffffffffffffffffffffffffff1681565b611c7b6122f7565b600b5f9054906101000a900460ff1615611cca576040517f08c379a0000000000000000000000000000000000000000000000000000000008152600401611cc190613f54565b60405180910390fd5b5f60045f836003811115611ce157611ce0613682565b5b6003811115611cf357611cf2613682565b5b81526020019081526020015f205411611d41576040517f08c379a0000000000000000000000000000000000000000000000000000000008152600401611d38906142ac565b60405180910390fd5b5f60015f3373ffffffffffffffffffffffffffffffffffffffff1673ffffffffffffffffffffffffffffffffffffffff1681526020019081526020015f2090505f6003811115611d9457611d93613682565b5b815f0160149054906101000a900460ff166003811115611db757611db6613682565b5b14611df7576040517f08c379a0000000000000000000000000000000000000000000000000000000008152600401611dee90614314565b60405180910390fd5b5f73ffffffffffffffffffffffffffffffffffffffff16815f015f9054906101000a900473ffffffffffffffffffffffffffffffffffffffff1673ffffffffffffffffffffffffffffffffffffffff1603611e87576040517f08c379a0000000000000000000000000000000000000000000000000000000008152600401611e7e906143a2565b60405180910390fd5b611edc7355d398326f99059ff775485246999027b3197955333060045f876003811115611eb757611eb6613682565b5b6003811115611ec957611ec8613682565b5b81526020019081526020015f2054612a62565b5f6064605060045f866003811115611ef757611ef6613682565b5b6003811115611f0957611f08613682565b5b81526020019081526020015f2054611f2191906143ed565b611f2b919061445b565b9050611f607355d398326f99059ff775485246999027b319795573fd5840cd36d94d7229439859c0112a4185bc02555f612b95565b611f937355d398326f99059ff775485246999027b319795573fd5840cd36d94d7229439859c0112a4185bc025583612b95565b5f73fd5840cd36d94d7229439859c0112a4185bc025573ffffffffffffffffffffffffffffffffffffffff1663a0712d68836040518263ffffffff1660e01b8152600401611fe1919061363e565b6020604051808303815f875af1158015611ffd573d5f5f3e3d5ffd5b505050506040513d601f19601f82011682018060405250810190612021919061449f565b14612061576040517f08c379a000000000000000000000000000000000000000000000000000000000815260040161205890614514565b60405180910390fd5b5f73fd5840cd36d94d7229439859c0112a4185bc025573ffffffffffffffffffffffffffffffffffffffff166370a08231306040518263ffffffff1660e01b81526004016120af9190613616565b602060405180830381865afa1580156120ca573d5f5f3e3d5ffd5b505050506040513d601f19601f820116820180604052508101906120ee919061449f565b905061213073fd5840cd36d94d7229439859c0112a4185bc025560075f9054906101000a900473ffffffffffffffffffffffffffffffffffffffff168361233b565b83835f0160146101000a81548160ff0219169083600381111561215657612155613682565b5b021790555060045f85600381111561217157612170613682565b5b600381111561218357612182613682565b5b81526020019081526020015f2054600a5f8282546121a19190614532565b925050819055505f73ffffffffffffffffffffffffffffffffffffffff1660015f3373ffffffffffffffffffffffffffffffffffffffff1673ffffffffffffffffffffffffffffffffffffffff1681526020019081526020015f205f015f9054906101000a900473ffffffffffffffffffffffffffffffffffffffff1673ffffffffffffffffffffffffffffffffffffffff1614612279576122783360045f87600381111561225357612252613682565b5b600381111561226557612264613682565b5b81526020019081526020015f2054612cc5565b5b7f8acf475137e0cd74ca7f611d16b1e6383ec9a9c71a8e5b85967781b9c7214d113360045f8760038111156122b1576122b0613682565b5b60038111156122c3576122c2613682565b5b81526020019081526020015f2054866040516122e193929190614565565b60405180910390a15050506122f461246b565b50565b60025f5403612332576040517f3ee5aeb500000000000000000000000000000000000000000000000000000000815260040160405180910390fd5b60025f81905550565b5f5f8473ffffffffffffffffffffffffffffffffffffffff1663a9059cbb858560405160240161236c92919061459a565b6040516020818303038152906040529060e01b6020820180517bffffffffffffffffffffffffffffffffffffffffffffffffffffffff83818316178352505050506040516123ba9190614605565b5f604051808303815f865af19150503d805f81146123f3576040519150601f19603f3d011682016040523d82523d5f602084013e6123f8565b606091505b509150915081801561242557505f815114806124245750808060200190518101906124239190614645565b5b5b612464576040517f08c379a000000000000000000000000000000000000000000000000000000000815260040161245b906146ba565b60405180910390fd5b5050505050565b60015f81905550565b7f000000000000000000000000000000000000000000000000000000000000000073ffffffffffffffffffffffffffffffffffffffff163073ffffffffffffffffffffffffffffffffffffffff16148061252157507f000000000000000000000000000000000000000000000000000000000000000073ffffffffffffffffffffffffffffffffffffffff1661250861305b565b73ffffffffffffffffffffffffffffffffffffffff1614155b15612558576040517fe07c8dba00000000000000000000000000000000000000000000000000000000815260040160405180910390fd5b565b61256261270a565b50565b8173ffffffffffffffffffffffffffffffffffffffff166352d1902d6040518163ffffffff1660e01b8152600401602060405180830381865afa9250505080156125cd57506040513d601f19601f820116820180604052508101906125ca9190614702565b60015b61260e57816040517f4c9c8ce30000000000000000000000000000000000000000000000000000000081526004016126059190613616565b60405180910390fd5b7f360894a13ba1a3210667c828492db98dca3e2076cc3735a920a3ca505d382bbc5f1b811461267457806040517faa1d49a400000000000000000000000000000000000000000000000000000000815260040161266b9190613983565b60405180910390fd5b61267e83836130ae565b505050565b7f000000000000000000000000000000000000000000000000000000000000000073ffffffffffffffffffffffffffffffffffffffff163073ffffffffffffffffffffffffffffffffffffffff1614612708576040517fe07c8dba00000000000000000000000000000000000000000000000000000000815260040160405180910390fd5b565b612712612a47565b73ffffffffffffffffffffffffffffffffffffffff1661273061143c565b73ffffffffffffffffffffffffffffffffffffffff161461278f57612753612a47565b6040517f118cdaa70000000000000000000000000000000000000000000000000000000081526004016127869190613616565b60405180910390fd5b565b5f61279a612a0d565b90505f815f015f9054906101000a900473ffffffffffffffffffffffffffffffffffffffff16905082825f015f6101000a81548173ffffffffffffffffffffffffffffffffffffffff021916908373ffffffffffffffffffffffffffffffffffffffff1602179055508273ffffffffffffffffffffffffffffffffffffffff168173ffffffffffffffffffffffffffffffffffffffff167f8be0079c531659141344cd1fd0a4f28419497f9722a3daafe3b4186f6b6457e060405160405180910390a3505050565b5f60015f8373ffffffffffffffffffffffffffffffffffffffff1673ffffffffffffffffffffffffffffffffffffffff1681526020019081526020015f205f015f9054906101000a900473ffffffffffffffffffffffffffffffffffffffff1690505f5f90505b5f73ffffffffffffffffffffffffffffffffffffffff168273ffffffffffffffffffffffffffffffffffffffff16141580156129055750603281105b15612a08578273ffffffffffffffffffffffffffffffffffffffff168273ffffffffffffffffffffffffffffffffffffffff160315612a08576001805f8473ffffffffffffffffffffffffffffffffffffffff1673ffffffffffffffffffffffffffffffffffffffff1681526020019081526020015f206001015f82825461298d9190614532565b9250508190555060015f8373ffffffffffffffffffffffffffffffffffffffff1673ffffffffffffffffffffffffffffffffffffffff1681526020019081526020015f205f015f9054906101000a900473ffffffffffffffffffffffffffffffffffffffff1691508080612a009061472d565b9150506128c9565b505050565b5f7f9016d09d72d40fdae2fd8ceac6b6234c7706214fd39c1cd1e609a0528c199300905090565b5f5f612a3e613120565b90508091505090565b5f33905090565b612a56613149565b612a5f81613189565b50565b5f5f8573ffffffffffffffffffffffffffffffffffffffff166323b872dd868686604051602401612a9593929190614774565b6040516020818303038152906040529060e01b6020820180517bffffffffffffffffffffffffffffffffffffffffffffffffffffffff8381831617835250505050604051612ae39190614605565b5f604051808303815f865af19150503d805f8114612b1c576040519150601f19603f3d011682016040523d82523d5f602084013e612b21565b606091505b5091509150818015612b4e57505f81511480612b4d575080806020019051810190612b4c9190614645565b5b5b612b8d576040517f08c379a0000000000000000000000000000000000000000000000000000000008152600401612b8490614819565b60405180910390fd5b505050505050565b5f5f8473ffffffffffffffffffffffffffffffffffffffff1663095ea7b38585604051602401612bc692919061459a565b6040516020818303038152906040529060e01b6020820180517bffffffffffffffffffffffffffffffffffffffffffffffffffffffff8381831617835250505050604051612c149190614605565b5f604051808303815f865af19150503d805f8114612c4d576040519150601f19603f3d011682016040523d82523d5f602084013e612c52565b606091505b5091509150818015612c7f57505f81511480612c7e575080806020019051810190612c7d9190614645565b5b5b612cbe576040517f08c379a0000000000000000000000000000000000000000000000000000000008152600401612cb590614881565b60405180910390fd5b5050505050565b5f60015f8473ffffffffffffffffffffffffffffffffffffffff1673ffffffffffffffffffffffffffffffffffffffff1681526020019081526020015f205f015f9054906101000a900473ffffffffffffffffffffffffffffffffffffffff1690505f5f90505f5f90505b5f73ffffffffffffffffffffffffffffffffffffffff168373ffffffffffffffffffffffffffffffffffffffff1614158015612d6c5750603282105b15613054578473ffffffffffffffffffffffffffffffffffffffff168373ffffffffffffffffffffffffffffffffffffffff160315613054578360015f8573ffffffffffffffffffffffffffffffffffffffff1673ffffffffffffffffffffffffffffffffffffffff1681526020019081526020015f206002015f828254612df49190614532565b925050819055505f60015f8573ffffffffffffffffffffffffffffffffffffffff1673ffffffffffffffffffffffffffffffffffffffff1681526020019081526020015f2060040154905081811115612fdf575f8282612e54919061489f565b90505f60648288612e6591906143ed565b612e6f919061445b565b90505f811115612fbe578060015f8873ffffffffffffffffffffffffffffffffffffffff1673ffffffffffffffffffffffffffffffffffffffff1681526020019081526020015f206003015f828254612ec89190614532565b9250508190555060025f8773ffffffffffffffffffffffffffffffffffffffff1673ffffffffffffffffffffffffffffffffffffffff1681526020019081526020015f2060405180606001604052808a73ffffffffffffffffffffffffffffffffffffffff16815260200183815260200142815250908060018154018082558091505060019003905f5260205f2090600302015f909190919091505f820151815f015f6101000a81548173ffffffffffffffffffffffffffffffffffffffff021916908373ffffffffffffffffffffffffffffffffffffffff160217905550602082015181600101556040820151816002015550505b8184612fca9190614532565b935060648410612fdc57505050613054565b50505b60015f8573ffffffffffffffffffffffffffffffffffffffff1673ffffffffffffffffffffffffffffffffffffffff1681526020019081526020015f205f015f9054906101000a900473ffffffffffffffffffffffffffffffffffffffff169350828061304b9061472d565b93505050612d30565b5050505050565b5f6130877f360894a13ba1a3210667c828492db98dca3e2076cc3735a920a3ca505d382bbc5f1b61320d565b5f015f9054906101000a900473ffffffffffffffffffffffffffffffffffffffff16905090565b6130b782613216565b8173ffffffffffffffffffffffffffffffffffffffff167fbc7cd75a20ee27fd9adebab32041f755214dbc6bffa90cc0225b39da2e5c2d3b60405160405180910390a25f815111156131135761310d82826132df565b5061311c565b61311b6133d0565b5b5050565b5f7ff0c57e16840df040f15088dc2f81fe391c3923bec73e23a9662efc9c229c6a005f1b905090565b61315161340c565b613187576040517fd7e6bcf800000000000000000000000000000000000000000000000000000000815260040160405180910390fd5b565b613191613149565b5f73ffffffffffffffffffffffffffffffffffffffff168173ffffffffffffffffffffffffffffffffffffffff1603613201575f6040517f1e4fbdf70000000000000000000000000000000000000000000000000000000081526004016131f89190613616565b60405180910390fd5b61320a81612791565b50565b5f819050919050565b5f8173ffffffffffffffffffffffffffffffffffffffff163b0361327157806040517f4c9c8ce30000000000000000000000000000000000000000000000000000000081526004016132689190613616565b60405180910390fd5b8061329d7f360894a13ba1a3210667c828492db98dca3e2076cc3735a920a3ca505d382bbc5f1b61320d565b5f015f6101000a81548173ffffffffffffffffffffffffffffffffffffffff021916908373ffffffffffffffffffffffffffffffffffffffff16021790555050565b60605f6132ec848461342a565b905080801561332257505f6132ff61343e565b118061332157505f8473ffffffffffffffffffffffffffffffffffffffff163b115b5b156133375761332f613445565b9150506133ca565b801561337a57836040517f9996b3150000000000000000000000000000000000000000000000000000000081526004016133719190613616565b60405180910390fd5b5f61338361343e565b111561339657613391613462565b6133c8565b6040517fd6bda27500000000000000000000000000000000000000000000000000000000815260040160405180910390fd5b505b92915050565b5f34111561340a576040517fb398979f00000000000000000000000000000000000000000000000000000000815260040160405180910390fd5b565b5f613415612a34565b5f0160089054906101000a900460ff16905090565b5f5f5f835160208501865af4905092915050565b5f3d905090565b606060405190503d81523d5f602083013e3d602001810160405290565b6040513d5f823e3d81fd5b60405180606001604052805f73ffffffffffffffffffffffffffffffffffffffff1681526020015f60038111156134a7576134a6613682565b5b81526020015f81525090565b5f82825260208201905092915050565b7f4e4f5f4449524543545f53454e440000000000000000000000000000000000005f82015250565b5f6134f7600e836134b3565b9150613502826134c3565b602082019050919050565b5f6020820190508181035f830152613524816134eb565b9050919050565b5f604051905090565b5f5ffd5b5f5ffd5b5f73ffffffffffffffffffffffffffffffffffffffff82169050919050565b5f6135658261353c565b9050919050565b6135758161355b565b811461357f575f5ffd5b50565b5f813590506135908161356c565b92915050565b5f819050919050565b6135a881613596565b81146135b2575f5ffd5b50565b5f813590506135c38161359f565b92915050565b5f5f604083850312156135df576135de613534565b5b5f6135ec85828601613582565b92505060206135fd858286016135b5565b9150509250929050565b6136108161355b565b82525050565b5f6020820190506136295f830184613607565b92915050565b61363881613596565b82525050565b5f6020820190506136515f83018461362f565b92915050565b5f6020828403121561366c5761366b613534565b5b5f61367984828501613582565b91505092915050565b7f4e487b71000000000000000000000000000000000000000000000000000000005f52602160045260245ffd5b600481106136c0576136bf613682565b5b50565b5f8190506136d0826136af565b919050565b5f6136df826136c3565b9050919050565b6136ef816136d5565b82525050565b5f60c0820190506137085f830189613607565b61371560208301886136e6565b613722604083018761362f565b61372f606083018661362f565b61373c608083018561362f565b61374960a083018461362f565b979650505050505050565b60048110613760575f5ffd5b50565b5f8135905061377181613754565b92915050565b5f6020828403121561378c5761378b613534565b5b5f61379984828501613763565b91505092915050565b5f8115159050919050565b6137b6816137a2565b82525050565b5f6020820190506137cf5f8301846137ad565b92915050565b5f5ffd5b5f5ffd5b5f601f19601f8301169050919050565b7f4e487b71000000000000000000000000000000000000000000000000000000005f52604160045260245ffd5b613823826137dd565b810181811067ffffffffffffffff82111715613842576138416137ed565b5b80604052505050565b5f61385461352b565b9050613860828261381a565b919050565b5f67ffffffffffffffff82111561387f5761387e6137ed565b5b613888826137dd565b9050602081019050919050565b828183375f83830152505050565b5f6138b56138b084613865565b61384b565b9050828152602081018484840111156138d1576138d06137d9565b5b6138dc848285613895565b509392505050565b5f82601f8301126138f8576138f76137d5565b5b81356139088482602086016138a3565b91505092915050565b5f5f6040838503121561392757613926613534565b5b5f61393485828601613582565b925050602083013567ffffffffffffffff81111561395557613954613538565b5b613961858286016138e4565b9150509250929050565b5f819050919050565b61397d8161396b565b82525050565b5f6020820190506139965f830184613974565b92915050565b5f5f5f606084860312156139b3576139b2613534565b5b5f6139c086828701613582565b93505060206139d1868287016135b5565b92505060406139e286828701613582565b9150509250925092565b5f81519050919050565b5f82825260208201905092915050565b5f819050602082019050919050565b613a1e8161355b565b82525050565b613a2d81613596565b82525050565b606082015f820151613a475f850182613a15565b506020820151613a5a6020850182613a24565b506040820151613a6d6040850182613a24565b50505050565b5f613a7e8383613a33565b60608301905092915050565b5f602082019050919050565b5f613aa0826139ec565b613aaa81856139f6565b9350613ab583613a06565b805f5b83811015613ae5578151613acc8882613a73565b9750613ad783613a8a565b925050600181019050613ab8565b5085935050505092915050565b5f60e082019050613b055f83018a613607565b613b1260208301896136e6565b613b1f604083018861362f565b613b2c606083018761362f565b613b39608083018661362f565b613b4660a083018561362f565b81810360c0830152613b588184613a96565b905098975050505050505050565b5f81519050919050565b5f82825260208201905092915050565b5f819050602082019050919050565b5f613b9a8383613a15565b60208301905092915050565b5f602082019050919050565b5f613bbc82613b66565b613bc68185613b70565b9350613bd183613b80565b805f5b83811015613c01578151613be88882613b8f565b9750613bf383613ba6565b925050600181019050613bd4565b5085935050505092915050565b5f6020820190508181035f830152613c268184613bb2565b905092915050565b5f81519050919050565b8281835e5f83830152505050565b5f613c5082613c2e565b613c5a81856134b3565b9350613c6a818560208601613c38565b613c73816137dd565b840191505092915050565b5f6020820190508181035f830152613c968184613c46565b905092915050565b5f606082019050613cb15f830186613607565b613cbe60208301856136e6565b613ccb604083018461362f565b949350505050565b5f5f5f60608486031215613cea57613ce9613534565b5b5f613cf786828701613582565b9350506020613d0886828701613582565b9250506040613d1986828701613582565b9150509250925092565b5f81519050919050565b5f82825260208201905092915050565b5f819050602082019050919050565b613d55816136d5565b82525050565b606082015f820151613d6f5f850182613a15565b506020820151613d826020850182613d4c565b506040820151613d956040850182613a24565b50505050565b5f613da68383613d5b565b60608301905092915050565b5f602082019050919050565b5f613dc882613d23565b613dd28185613d2d565b9350613ddd83613d3d565b805f5b83811015613e0d578151613df48882613d9b565b9750613dff83613db2565b925050600181019050613de0565b5085935050505092915050565b5f6020820190508181035f830152613e328184613dbe565b905092915050565b7f4e4f5f41574152440000000000000000000000000000000000000000000000005f82015250565b5f613e6e6008836134b3565b9150613e7982613e3a565b602082019050919050565b5f6020820190508181035f830152613e9b81613e62565b9050919050565b7f4e6f74207065726d69742e0000000000000000000000000000000000000000005f82015250565b5f613ed6600b836134b3565b9150613ee182613ea2565b602082019050919050565b5f6020820190508181035f830152613f0381613eca565b9050919050565b7f416c7265616479205061757365642e00000000000000000000000000000000005f82015250565b5f613f3e600f836134b3565b9150613f4982613f0a565b602082019050919050565b5f6020820190508181035f830152613f6b81613f32565b9050919050565b7f5a45524f5f414444524553532e000000000000000000000000000000000000005f82015250565b5f613fa6600d836134b3565b9150613fb182613f72565b602082019050919050565b5f6020820190508181035f830152613fd381613f9a565b9050919050565b7f494e56414c49445f5245434f4d4d454e4445522e0000000000000000000000005f82015250565b5f61400e6014836134b3565b915061401982613fda565b602082019050919050565b5f6020820190508181035f83015261403b81614002565b9050919050565b7f5245434f4d4d454e444154494f4e5f49535f52455155495245445f52454645525f8201527f52414c2e00000000000000000000000000000000000000000000000000000000602082015250565b5f61409c6024836134b3565b91506140a782614042565b604082019050919050565b5f6020820190508181035f8301526140c981614090565b9050919050565b7f494e56495445525f414c52454144595f4558495354532e0000000000000000005f82015250565b5f6141046017836134b3565b915061410f826140d0565b602082019050919050565b5f6020820190508181035f830152614131816140f8565b9050919050565b5f60408201905061414b5f830185613607565b6141586020830184613607565b9392505050565b7f4572726f7220726174696f2e00000000000000000000000000000000000000005f82015250565b5f614193600c836134b3565b915061419e8261415f565b602082019050919050565b5f6020820190508181035f8301526141c081614187565b9050919050565b5f819050919050565b5f67ffffffffffffffff82169050919050565b5f819050919050565b5f6142066142016141fc846141c7565b6141e3565b6141d0565b9050919050565b614216816141ec565b82525050565b5f60208201905061422f5f83018461420d565b92915050565b7f4e487b71000000000000000000000000000000000000000000000000000000005f52603260045260245ffd5b7f4552524f525f4e4f44455f545950452e000000000000000000000000000000005f82015250565b5f6142966010836134b3565b91506142a182614262565b602082019050919050565b5f6020820190508181035f8301526142c38161428a565b9050919050565b7f414c52454144595f52454348415247452e0000000000000000000000000000005f82015250565b5f6142fe6011836134b3565b9150614309826142ca565b602082019050919050565b5f6020820190508181035f83015261432b816142f2565b9050919050565b7f5245434f4d4d454e444154494f4e5f49535f52455155495245445f52454348415f8201527f5247452e00000000000000000000000000000000000000000000000000000000602082015250565b5f61438c6024836134b3565b915061439782614332565b604082019050919050565b5f6020820190508181035f8301526143b981614380565b9050919050565b7f4e487b71000000000000000000000000000000000000000000000000000000005f52601160045260245ffd5b5f6143f782613596565b915061440283613596565b925082820261441081613596565b91508282048414831517614427576144266143c0565b5b5092915050565b7f4e487b71000000000000000000000000000000000000000000000000000000005f52601260045260245ffd5b5f61446582613596565b915061447083613596565b9250826144805761447f61442e565b5b828204905092915050565b5f815190506144998161359f565b92915050565b5f602082840312156144b4576144b3613534565b5b5f6144c18482850161448b565b91505092915050565b7f56454e55535f4d494e545f4641494c45440000000000000000000000000000005f82015250565b5f6144fe6011836134b3565b9150614509826144ca565b602082019050919050565b5f6020820190508181035f83015261452b816144f2565b9050919050565b5f61453c82613596565b915061454783613596565b925082820190508082111561455f5761455e6143c0565b5b92915050565b5f6060820190506145785f830186613607565b614585602083018561362f565b61459260408301846136e6565b949350505050565b5f6040820190506145ad5f830185613607565b6145ba602083018461362f565b9392505050565b5f81519050919050565b5f81905092915050565b5f6145df826145c1565b6145e981856145cb565b93506145f9818560208601613c38565b80840191505092915050565b5f61461082846145d5565b915081905092915050565b614624816137a2565b811461462e575f5ffd5b50565b5f8151905061463f8161461b565b92915050565b5f6020828403121561465a57614659613534565b5b5f61466784828501614631565b91505092915050565b7f5472616e7366657248656c7065723a205452414e534645525f4641494c4544005f82015250565b5f6146a4601f836134b3565b91506146af82614670565b602082019050919050565b5f6020820190508181035f8301526146d181614698565b9050919050565b6146e18161396b565b81146146eb575f5ffd5b50565b5f815190506146fc816146d8565b92915050565b5f6020828403121561471757614716613534565b5b5f614724848285016146ee565b91505092915050565b5f61473782613596565b91507fffffffffffffffffffffffffffffffffffffffffffffffffffffffffffffffff8203614769576147686143c0565b5b600182019050919050565b5f6060820190506147875f830186613607565b6147946020830185613607565b6147a1604083018461362f565b949350505050565b7f5472616e7366657248656c7065723a205452414e534645525f46524f4d5f46415f8201527f494c454400000000000000000000000000000000000000000000000000000000602082015250565b5f6148036024836134b3565b915061480e826147a9565b604082019050919050565b5f6020820190508181035f830152614830816147f7565b9050919050565b7f5472616e7366657248656c7065723a20415050524f56455f4641494c454400005f82015250565b5f61486b601e836134b3565b915061487682614837565b602082019050919050565b5f6020820190508181035f8301526148988161485f565b9050919050565b5f6148a982613596565b91506148b483613596565b92508282039050818111156148cc576148cb6143c0565b5b9291505056fea26469706673582212203944a317d528ec358785b2465741207204c737383899bd2d4187a56aaa82508e64736f6c634300081e0033","linkReferences":{}},"methodIdentifiers":{"MAX_REFERRAL_DEPTH()":"89e59ea0","UPGRADE_INTERFACE_VERSION()":"ad3cb1cc","USDT()":"c54e44eb","VENUS()":"1a78ccc1","admin()":"f851a440","claim()":"4e71d92d","directReferrals(address,uint256)":"05ad3935","emergencyWithdraw(address,uint256,address)":"551512de","getAddrCollection()":"a2b0332b","getAddrCollectionLength()":"4d38857c","getDirectReferralInfo(address)":"dcdcd08c","getMigrateInfo(address)":"b3a48366","getUserInfo(address)":"6386c1c7","initialCode()":"10baf089","initialize(address,address,address)":"c0c53b8b","isAddCollection(address)":"39fe3b99","nodePrice(uint8)":"1f7bcc4b","owner()":"8da5cb5b","proxiableUUID()":"52d1902d","recipient()":"66d003ac","referral(address)":"7247959a","renounceOwnership()":"715018a6","setAwardRatio(address,uint256)":"77e06a9e","singleRecharge(uint8)":"fb7b09c5","totalPerformance()":"06876dbe","transferOwnership(address)":"f2fde38b","upgradeToAndCall(address,bytes)":"4f1ef286","userInfo(address)":"1959a002","validInvitationCode(address)":"3c4e9d74"},"id":33}