{"abi":[{"type":"receive","stateMutability":"payable"},{"type":"function","name":"MAX_REFERRAL_DEPTH","inputs":[],"outputs":[{"name":"","type":"uint256","internalType":"uint256"}],"stateMutability":"view"},{"type":"function","name":"UPGRADE_INTERFACE_VERSION","inputs":[],"outputs":[{"name":"","type":"string","internalType":"string"}],"stateMutability":"view"},{"type":"function","name":"USDT","inputs":[],"outputs":[{"name":"","type":"address","internalType":"address"}],"stateMutability":"view"},{"type":"function","name":"VENUS","inputs":[],"outputs":[{"name":"","type":"address","internalType":"address"}],"stateMutability":"view"},{"type":"function","name":"admin","inputs":[],"outputs":[{"name":"","type":"address","internalType":"address"}],"stateMutability":"view"},{"type":"function","name":"batchImport","inputs":[{"name":"users","type":"address[]","internalType":"address[]"},{"name":"nodeType","type":"uint8","internalType":"enum Enum.NodeType"}],"outputs":[],"stateMutability":"nonpayable"},{"type":"function","name":"claim","inputs":[],"outputs":[],"stateMutability":"nonpayable"},{"type":"function","name":"directReferrals","inputs":[{"name":"","type":"address","internalType":"address"},{"name":"","type":"uint256","internalType":"uint256"}],"outputs":[{"name":"","type":"address","internalType":"address"}],"stateMutability":"view"},{"type":"function","name":"eligibility","inputs":[{"name":"","type":"address","internalType":"address"}],"outputs":[{"name":"","type":"bool","internalType":"bool"}],"stateMutability":"view"},{"type":"function","name":"emergencyWithdraw","inputs":[{"name":"token","type":"address","internalType":"address"},{"name":"amount","type":"uint256","internalType":"uint256"},{"name":"to","type":"address","internalType":"address"}],"outputs":[],"stateMutability":"nonpayable"},{"type":"function","name":"generateCode","inputs":[],"outputs":[],"stateMutability":"nonpayable"},{"type":"function","name":"getAddrCollection","inputs":[],"outputs":[{"name":"","type":"address[]","internalType":"address[]"}],"stateMutability":"view"},{"type":"function","name":"getAddrCollectionLength","inputs":[],"outputs":[{"name":"","type":"uint256","internalType":"uint256"}],"stateMutability":"view"},{"type":"function","name":"getDirectReferralInfo","inputs":[{"name":"user","type":"address","internalType":"address"}],"outputs":[{"name":"infos","type":"tuple[]","internalType":"struct Enum.DirectInfo[]","components":[{"name":"user","type":"address","internalType":"address"},{"name":"nodeType","type":"uint8","internalType":"enum Enum.NodeType"},{"name":"performance","type":"uint256","internalType":"uint256"}]}],"stateMutability":"view"},{"type":"function","name":"getMigrateInfo","inputs":[{"name":"user","type":"address","internalType":"address"}],"outputs":[{"name":"recommender","type":"address","internalType":"address"},{"name":"nodeType","type":"uint8","internalType":"enum Enum.NodeType"},{"name":"amount","type":"uint256","internalType":"uint256"}],"stateMutability":"view"},{"type":"function","name":"getUserInfo","inputs":[{"name":"user","type":"address","internalType":"address"}],"outputs":[{"name":"recommender","type":"address","internalType":"address"},{"name":"nodeType","type":"uint8","internalType":"enum Enum.NodeType"},{"name":"referralNum","type":"uint256","internalType":"uint256"},{"name":"performance","type":"uint256","internalType":"uint256"},{"name":"award","type":"uint256","internalType":"uint256"},{"name":"awardRatio","type":"uint256","internalType":"uint256"},{"name":"totalAward","type":"uint256","internalType":"uint256"},{"name":"recordAwards","type":"tuple[]","internalType":"struct Enum.RecordAward[]","components":[{"name":"user","type":"address","internalType":"address"},{"name":"amount","type":"uint256","internalType":"uint256"},{"name":"time","type":"uint256","internalType":"uint256"}]}],"stateMutability":"view"},{"type":"function","name":"initialCode","inputs":[],"outputs":[{"name":"","type":"address","internalType":"address"}],"stateMutability":"view"},{"type":"function","name":"initialize","inputs":[{"name":"_admin","type":"address","internalType":"address"},{"name":"_recipient","type":"address","internalType":"address"},{"name":"_initialCode","type":"address","internalType":"address"}],"outputs":[],"stateMutability":"nonpayable"},{"type":"function","name":"isAddCollection","inputs":[{"name":"","type":"address","internalType":"address"}],"outputs":[{"name":"","type":"bool","internalType":"bool"}],"stateMutability":"view"},{"type":"function","name":"nodePrice","inputs":[{"name":"","type":"uint8","internalType":"enum Enum.NodeType"}],"outputs":[{"name":"","type":"uint256","internalType":"uint256"}],"stateMutability":"view"},{"type":"function","name":"owner","inputs":[],"outputs":[{"name":"","type":"address","internalType":"address"}],"stateMutability":"view"},{"type":"function","name":"proxiableUUID","inputs":[],"outputs":[{"name":"","type":"bytes32","internalType":"bytes32"}],"stateMutability":"view"},{"type":"function","name":"recipient","inputs":[],"outputs":[{"name":"","type":"address","internalType":"address"}],"stateMutability":"view"},{"type":"function","name":"referral","inputs":[{"name":"recommender","type":"address","internalType":"address"}],"outputs":[],"stateMutability":"nonpayable"},{"type":"function","name":"renounceOwnership","inputs":[],"outputs":[],"stateMutability":"nonpayable"},{"type":"function","name":"setAwardRatio","inputs":[{"name":"user","type":"address","internalType":"address"},{"name":"_ratio","type":"uint256","internalType":"uint256"}],"outputs":[],"stateMutability":"nonpayable"},{"type":"function","name":"singleRecharge","inputs":[{"name":"nodeType","type":"uint8","internalType":"enum Enum.NodeType"}],"outputs":[],"stateMutability":"nonpayable"},{"type":"function","name":"totalPerformance","inputs":[],"outputs":[{"name":"","type":"uint256","internalType":"uint256"}],"stateMutability":"view"},{"type":"function","name":"transferOwnership","inputs":[{"name":"newOwner","type":"address","internalType":"address"}],"outputs":[],"stateMutability":"nonpayable"},{"type":"function","name":"upgradeToAndCall","inputs":[{"name":"newImplementation","type":"address","internalType":"address"},{"name":"data","type":"bytes","internalType":"bytes"}],"outputs":[],"stateMutability":"payable"},{"type":"function","name":"userInfo","inputs":[{"name":"","type":"address","internalType":"address"}],"outputs":[{"name":"recommender","type":"address","internalType":"address"},{"name":"nodeType","type":"uint8","internalType":"enum Enum.NodeType"},{"name":"referralNum","type":"uint256","internalType":"uint256"},{"name":"performance","type":"uint256","internalType":"uint256"},{"name":"award","type":"uint256","internalType":"uint256"},{"name":"awardRatio","type":"uint256","internalType":"uint256"},{"name":"extracted","type":"uint256","internalType":"uint256"}],"stateMutability":"view"},{"type":"function","name":"validInvitationCode","inputs":[{"name":"user","type":"address","internalType":"address"}],"outputs":[{"name":"","type":"bool","internalType":"bool"}],"stateMutability":"view"},{"type":"event","name":"Initialized","inputs":[{"name":"version","type":"uint64","indexed":false,"internalType":"uint64"}],"anonymous":false},{"type":"event","name":"OwnershipTransferred","inputs":[{"name":"previousOwner","type":"address","indexed":true,"internalType":"address"},{"name":"newOwner","type":"address","indexed":true,"internalType":"address"}],"anonymous":false},{"type":"event","name":"Referral","inputs":[{"name":"recommender","type":"address","indexed":false,"internalType":"address"},{"name":"referred","type":"address","indexed":false,"internalType":"address"}],"anonymous":false},{"type":"event","name":"Staked","inputs":[{"name":"user","type":"address","indexed":false,"internalType":"address"},{"name":"amount","type":"uint256","indexed":false,"internalType":"uint256"},{"name":"nodeType","type":"uint8","indexed":false,"internalType":"enum Enum.NodeType"}],"anonymous":false},{"type":"event","name":"Upgraded","inputs":[{"name":"implementation","type":"address","indexed":true,"internalType":"address"}],"anonymous":false},{"type":"error","name":"AddressEmptyCode","inputs":[{"name":"target","type":"address","internalType":"address"}]},{"type":"error","name":"ERC1967InvalidImplementation","inputs":[{"name":"implementation","type":"address","internalType":"address"}]},{"type":"error","name":"ERC1967NonPayable","inputs":[]},{"type":"error","name":"FailedCall","inputs":[]},{"type":"error","name":"InvalidInitialization","inputs":[]},{"type":"error","name":"NotInitializing","inputs":[]},{"type":"error","name":"OwnableInvalidOwner","inputs":[{"name":"owner","type":"address","internalType":"address"}]},{"type":"error","name":"OwnableUnauthorizedAccount","inputs":[{"name":"account","type":"address","internalType":"address"}]},{"type":"error","name":"ReentrancyGuardReentrantCall","inputs":[]},{"type":"error","name":"UUPSUnauthorizedCallContext","inputs":[]},{"type":"error","name":"UUPSUnsupportedProxiableUUID","inputs":[{"name":"slot","type":"bytes32","internalType":"bytes32"}]}],"bytecode":{"object":"0x60a06040523073ffffffffffffffffffffffffffffffffffffffff1660809073ffffffffffffffffffffffffffffffffffffffff168152503480156041575f5ffd5b5060015f8190555060805161501761006f5f395f81816128d0015281816129250152612adf01526150175ff3fe6080604052600436106101e6575f3560e01c80636e8dbfd011610101578063b3a4836611610094578063dcdcd08c11610063578063dcdcd08c1461070d578063f2fde38b14610749578063f851a44014610771578063fb7b09c51461079b57610226565b8063b3a4836614610655578063c0c53b8b14610693578063c528755d146106bb578063c54e44eb146106e357610226565b806389e59ea0116100d057806389e59ea0146105ad5780638da5cb5b146105d7578063a2b0332b14610601578063ad3cb1cc1461062b57610226565b80636e8dbfd014610531578063715018a6146105475780637247959a1461055d57806377e06a9e1461058557610226565b80634d38857c11610179578063551512de11610148578063551512de146104605780636386c1c71461048857806363c36dec146104cb57806366d003ac1461050757610226565b80634d38857c146103da5780634e71d92d146104045780634f1ef2861461041a57806352d1902d1461043657610226565b80631a78ccc1116101b55780631a78ccc1146102fc5780631f7bcc4b1461032657806339fe3b99146103625780633c4e9d741461039e57610226565b806305ad39351461022a57806306876dbe1461026657806310baf089146102905780631959a002146102ba57610226565b36610226576040517f08c379a000000000000000000000000000000000000000000000000000000000815260040161021d90613967565b60405180910390fd5b5f5ffd5b348015610235575f5ffd5b50610250600480360381019061024b9190613a23565b6107c3565b60405161025d9190613a70565b60405180910390f35b348015610271575f5ffd5b5061027a61080b565b6040516102879190613a98565b60405180910390f35b34801561029b575f5ffd5b506102a4610811565b6040516102b19190613a70565b60405180910390f35b3480156102c5575f5ffd5b506102e060048036038101906102db9190613ab1565b610836565b6040516102f39796959493929190613b4f565b60405180910390f35b348015610307575f5ffd5b5061031061089f565b60405161031d9190613a70565b60405180910390f35b348015610331575f5ffd5b5061034c60048036038101906103479190613bdf565b6108b7565b6040516103599190613a98565b60405180910390f35b34801561036d575f5ffd5b5061038860048036038101906103839190613ab1565b6108cc565b6040516103959190613c24565b60405180910390f35b3480156103a9575f5ffd5b506103c460048036038101906103bf9190613ab1565b6108e9565b6040516103d19190613c24565b60405180910390f35b3480156103e5575f5ffd5b506103ee610999565b6040516103fb9190613a98565b60405180910390f35b34801561040f575f5ffd5b506104186109a5565b005b610434600480360381019061042f9190613d79565b610ac7565b005b348015610441575f5ffd5b5061044a610ae6565b6040516104579190613deb565b60405180910390f35b34801561046b575f5ffd5b5061048660048036038101906104819190613e04565b610b17565b005b348015610493575f5ffd5b506104ae60048036038101906104a99190613ab1565b610bb6565b6040516104c2989796959493929190613f5a565b60405180910390f35b3480156104d6575f5ffd5b506104f160048036038101906104ec9190613ab1565b610e0f565b6040516104fe9190613c24565b60405180910390f35b348015610512575f5ffd5b5061051b610e2c565b6040516105289190613a70565b60405180910390f35b34801561053c575f5ffd5b50610545610e51565b005b348015610552575f5ffd5b5061055b611026565b005b348015610568575f5ffd5b50610583600480360381019061057e9190613ab1565b611039565b005b348015610590575f5ffd5b506105ab60048036038101906105a69190613a23565b6115fe565b005b3480156105b8575f5ffd5b506105c161171a565b6040516105ce9190613a98565b60405180910390f35b3480156105e2575f5ffd5b506105eb61171f565b6040516105f89190613a70565b60405180910390f35b34801561060c575f5ffd5b50610615611754565b6040516106229190614085565b60405180910390f35b348015610636575f5ffd5b5061063f6117df565b60405161064c91906140f5565b60405180910390f35b348015610660575f5ffd5b5061067b60048036038101906106769190613ab1565b611818565b60405161068a93929190614115565b60405180910390f35b34801561069e575f5ffd5b506106b960048036038101906106b4919061414a565b611977565b005b3480156106c6575f5ffd5b506106e160048036038101906106dc919061425e565b611c8d565b005b3480156106ee575f5ffd5b506106f7611da1565b6040516107049190613a70565b60405180910390f35b348015610718575f5ffd5b50610733600480360381019061072e9190613ab1565b611db9565b60405161074091906143af565b60405180910390f35b348015610754575f5ffd5b5061076f600480360381019061076a9190613ab1565b611fcf565b005b34801561077c575f5ffd5b50610785612053565b6040516107929190613a70565b60405180910390f35b3480156107a6575f5ffd5b506107c160048036038101906107bc9190613bdf565b612078565b005b6003602052815f5260405f2081815481106107dc575f80fd5b905f5260205f20015f915091509054906101000a900473ffffffffffffffffffffffffffffffffffffffff1681565b600b5481565b60065f9054906101000a900473ffffffffffffffffffffffffffffffffffffffff1681565b6001602052805f5260405f205f91509050805f015f9054906101000a900473ffffffffffffffffffffffffffffffffffffffff1690805f0160149054906101000a900460ff16908060010154908060020154908060030154908060040154908060050154905087565b73fd5840cd36d94d7229439859c0112a4185bc025581565b6004602052805f5260405f205f915090505481565b6009602052805f5260405f205f915054906101000a900460ff1681565b5f60065f9054906101000a900473ffffffffffffffffffffffffffffffffffffffff1673ffffffffffffffffffffffffffffffffffffffff168273ffffffffffffffffffffffffffffffffffffffff16036109475760019050610994565b600a5f8373ffffffffffffffffffffffffffffffffffffffff1673ffffffffffffffffffffffffffffffffffffffff1681526020019081526020015f205f9054906101000a900460ff1690505b919050565b5f600880549050905090565b6109ad612751565b5f60015f3373ffffffffffffffffffffffffffffffffffffffff1673ffffffffffffffffffffffffffffffffffffffff1681526020019081526020015f2090505f81600501548260030154610a0291906143fc565b90505f8111610a46576040517f08c379a0000000000000000000000000000000000000000000000000000000008152600401610a3d90614479565b60405180910390fd5b8060015f3373ffffffffffffffffffffffffffffffffffffffff1673ffffffffffffffffffffffffffffffffffffffff1681526020019081526020015f206005015f828254610a959190614497565b92505081905550610abb7355d398326f99059ff775485246999027b31979553383612795565b5050610ac56128c5565b565b610acf6128ce565b610ad8826129b4565b610ae282826129bf565b5050565b5f610aef612add565b7f360894a13ba1a3210667c828492db98dca3e2076cc3735a920a3ca505d382bbc5f1b905090565b3373ffffffffffffffffffffffffffffffffffffffff1660055f9054906101000a900473ffffffffffffffffffffffffffffffffffffffff1673ffffffffffffffffffffffffffffffffffffffff1614610ba6576040517f08c379a0000000000000000000000000000000000000000000000000000000008152600401610b9d90614514565b60405180910390fd5b610bb1838284612795565b505050565b5f5f5f5f5f5f5f60605f60015f8b73ffffffffffffffffffffffffffffffffffffffff1673ffffffffffffffffffffffffffffffffffffffff1681526020019081526020015f206040518060e00160405290815f82015f9054906101000a900473ffffffffffffffffffffffffffffffffffffffff1673ffffffffffffffffffffffffffffffffffffffff1673ffffffffffffffffffffffffffffffffffffffff1681526020015f820160149054906101000a900460ff166003811115610c8057610c7f613adc565b5b6003811115610c9257610c91613adc565b5b8152602001600182015481526020016002820154815260200160038201548152602001600482015481526020016005820154815250509050805f015198508060200151975080604001519650806060015195508060c001518160800151610cf991906143fc565b9450806080015192508060a00151935060025f8b73ffffffffffffffffffffffffffffffffffffffff1673ffffffffffffffffffffffffffffffffffffffff1681526020019081526020015f20805480602002602001604051908101604052809291908181526020015f905b82821015610dfd578382905f5260205f2090600302016040518060600160405290815f82015f9054906101000a900473ffffffffffffffffffffffffffffffffffffffff1673ffffffffffffffffffffffffffffffffffffffff1673ffffffffffffffffffffffffffffffffffffffff1681526020016001820154815260200160028201548152505081526020019060010190610d65565b50505050915050919395975091939597565b600a602052805f5260405f205f915054906101000a900460ff1681565b60075f9054906101000a900473ffffffffffffffffffffffffffffffffffffffff1681565b5f73ffffffffffffffffffffffffffffffffffffffff1660015f3373ffffffffffffffffffffffffffffffffffffffff1673ffffffffffffffffffffffffffffffffffffffff1681526020019081526020015f205f015f9054906101000a900473ffffffffffffffffffffffffffffffffffffffff1673ffffffffffffffffffffffffffffffffffffffff1603610f1d576040517f08c379a0000000000000000000000000000000000000000000000000000000008152600401610f149061457c565b60405180910390fd5b600a5f3373ffffffffffffffffffffffffffffffffffffffff1673ffffffffffffffffffffffffffffffffffffffff1681526020019081526020015f205f9054906101000a900460ff1615610fa7576040517f08c379a0000000000000000000000000000000000000000000000000000000008152600401610f9e906145e4565b60405180910390fd5b6001600a5f3373ffffffffffffffffffffffffffffffffffffffff1673ffffffffffffffffffffffffffffffffffffffff1681526020019081526020015f205f6101000a81548160ff0219169083151502179055506110247355d398326f99059ff775485246999027b31979553330670de0b6b3a7640000612b64565b565b61102e612c97565b6110375f612d1e565b565b600c5f9054906101000a900460ff1615611088576040517f08c379a000000000000000000000000000000000000000000000000000000000815260040161107f9061464c565b60405180910390fd5b3373ffffffffffffffffffffffffffffffffffffffff1660065f9054906101000a900473ffffffffffffffffffffffffffffffffffffffff1673ffffffffffffffffffffffffffffffffffffffff1603611117576040517f08c379a000000000000000000000000000000000000000000000000000000000815260040161110e906146b4565b60405180910390fd5b5f73ffffffffffffffffffffffffffffffffffffffff168173ffffffffffffffffffffffffffffffffffffffff1603611185576040517f08c379a000000000000000000000000000000000000000000000000000000000815260040161117c9061471c565b60405180910390fd5b3373ffffffffffffffffffffffffffffffffffffffff168173ffffffffffffffffffffffffffffffffffffffff16036111f3576040517f08c379a00000000000000000000000000000000000000000000000000000000081526004016111ea90614784565b60405180910390fd5b60065f9054906101000a900473ffffffffffffffffffffffffffffffffffffffff1673ffffffffffffffffffffffffffffffffffffffff168173ffffffffffffffffffffffffffffffffffffffff16146112d157600a5f8273ffffffffffffffffffffffffffffffffffffffff1673ffffffffffffffffffffffffffffffffffffffff1681526020019081526020015f205f9054906101000a900460ff166112d0576040517f08c379a00000000000000000000000000000000000000000000000000000000081526004016112c7906147ec565b60405180910390fd5b5b5f73ffffffffffffffffffffffffffffffffffffffff1660015f3373ffffffffffffffffffffffffffffffffffffffff1673ffffffffffffffffffffffffffffffffffffffff1681526020019081526020015f205f015f9054906101000a900473ffffffffffffffffffffffffffffffffffffffff1673ffffffffffffffffffffffffffffffffffffffff161461139d576040517f08c379a000000000000000000000000000000000000000000000000000000000815260040161139490614854565b60405180910390fd5b8060015f3373ffffffffffffffffffffffffffffffffffffffff1673ffffffffffffffffffffffffffffffffffffffff1681526020019081526020015f205f015f6101000a81548173ffffffffffffffffffffffffffffffffffffffff021916908373ffffffffffffffffffffffffffffffffffffffff16021790555060035f8273ffffffffffffffffffffffffffffffffffffffff1673ffffffffffffffffffffffffffffffffffffffff1681526020019081526020015f2033908060018154018082558091505060019003905f5260205f20015f9091909190916101000a81548173ffffffffffffffffffffffffffffffffffffffff021916908373ffffffffffffffffffffffffffffffffffffffff16021790555060095f3373ffffffffffffffffffffffffffffffffffffffff1673ffffffffffffffffffffffffffffffffffffffff1681526020019081526020015f205f9054906101000a900460ff166115b957600833908060018154018082558091505060019003905f5260205f20015f9091909190916101000a81548173ffffffffffffffffffffffffffffffffffffffff021916908373ffffffffffffffffffffffffffffffffffffffff160217905550600160095f3373ffffffffffffffffffffffffffffffffffffffff1673ffffffffffffffffffffffffffffffffffffffff1681526020019081526020015f205f6101000a81548160ff0219169083151502179055505b6115c233612def565b7f9d05414fb79fac216c15606de5cc06664e91a254e4d5f57664d5f1beaf7fb7ef81336040516115f3929190614872565b60405180910390a150565b3373ffffffffffffffffffffffffffffffffffffffff1660055f9054906101000a900473ffffffffffffffffffffffffffffffffffffffff1673ffffffffffffffffffffffffffffffffffffffff161461168d576040517f08c379a000000000000000000000000000000000000000000000000000000000815260040161168490614514565b60405180910390fd5b605a8111156116d1576040517f08c379a00000000000000000000000000000000000000000000000000000000081526004016116c8906148e3565b60405180910390fd5b8060015f8473ffffffffffffffffffffffffffffffffffffffff1673ffffffffffffffffffffffffffffffffffffffff1681526020019081526020015f20600401819055505050565b603281565b5f5f611729612f9a565b9050805f015f9054906101000a900473ffffffffffffffffffffffffffffffffffffffff1691505090565b606060088054806020026020016040519081016040528092919081815260200182805480156117d557602002820191905f5260205f20905b815f9054906101000a900473ffffffffffffffffffffffffffffffffffffffff1673ffffffffffffffffffffffffffffffffffffffff168152602001906001019080831161178c575b5050505050905090565b6040518060400160405280600581526020017f352e302e3000000000000000000000000000000000000000000000000000000081525081565b5f5f5f5f60015f8673ffffffffffffffffffffffffffffffffffffffff1673ffffffffffffffffffffffffffffffffffffffff1681526020019081526020015f206040518060e00160405290815f82015f9054906101000a900473ffffffffffffffffffffffffffffffffffffffff1673ffffffffffffffffffffffffffffffffffffffff1673ffffffffffffffffffffffffffffffffffffffff1681526020015f820160149054906101000a900460ff1660038111156118dc576118db613adc565b5b60038111156118ee576118ed613adc565b5b8152602001600182015481526020016002820154815260200160038201548152602001600482015481526020016005820154815250509050805f015193508060200151925060045f8260200151600381111561194d5761194c613adc565b5b600381111561195f5761195e613adc565b5b81526020019081526020015f20549150509193909250565b5f611980612fc1565b90505f815f0160089054906101000a900460ff161590505f825f015f9054906101000a900467ffffffffffffffff1690505f5f8267ffffffffffffffff161480156119c85750825b90505f60018367ffffffffffffffff161480156119fb57505f3073ffffffffffffffffffffffffffffffffffffffff163b145b905081158015611a09575080155b15611a40576040517ff92ee8a900000000000000000000000000000000000000000000000000000000815260040160405180910390fd5b6001855f015f6101000a81548167ffffffffffffffff021916908367ffffffffffffffff1602179055508315611a8d576001855f0160086101000a81548160ff0219169083151502179055505b611a9d611a98612fd4565b612fdb565b8760055f6101000a81548173ffffffffffffffffffffffffffffffffffffffff021916908373ffffffffffffffffffffffffffffffffffffffff1602179055508660075f6101000a81548173ffffffffffffffffffffffffffffffffffffffff021916908373ffffffffffffffffffffffffffffffffffffffff1602179055508560065f6101000a81548173ffffffffffffffffffffffffffffffffffffffff021916908373ffffffffffffffffffffffffffffffffffffffff160217905550681b1ae4d6e2ef50000060045f60016003811115611b7e57611b7d613adc565b5b6003811115611b9057611b8f613adc565b5b81526020019081526020015f2081905550686c6b935b8bbd40000060045f60026003811115611bc257611bc1613adc565b5b6003811115611bd457611bd3613adc565b5b81526020019081526020015f208190555069010f0cf064dd5920000060045f600380811115611c0657611c05613adc565b5b6003811115611c1857611c17613adc565b5b81526020019081526020015f20819055508315611c83575f855f0160086101000a81548160ff0219169083151502179055507fc7f505b2f371ae2175ee4913f4499e1f2633a7b5936321eed1cdaeb6115181d26001604051611c7a9190614956565b60405180910390a15b5050505050505050565b611c95612c97565b5f6003811115611ca857611ca7613adc565b5b816003811115611cbb57611cba613adc565b5b03611cfb576040517f08c379a0000000000000000000000000000000000000000000000000000000008152600401611cf2906149b9565b60405180910390fd5b5f5f90505b8251811015611d9c575f60015f858481518110611d2057611d1f6149d7565b5b602002602001015173ffffffffffffffffffffffffffffffffffffffff1673ffffffffffffffffffffffffffffffffffffffff1681526020019081526020015f20905082815f0160146101000a81548160ff02191690836003811115611d8957611d88613adc565b5b0217905550508080600101915050611d00565b505050565b7355d398326f99059ff775485246999027b319795581565b60605f60035f8473ffffffffffffffffffffffffffffffffffffffff1673ffffffffffffffffffffffffffffffffffffffff1681526020019081526020015f20805480602002602001604051908101604052809291908181526020018280548015611e7657602002820191905f5260205f20905b815f9054906101000a900473ffffffffffffffffffffffffffffffffffffffff1673ffffffffffffffffffffffffffffffffffffffff1681526020019060010190808311611e2d575b505050505090505f815190508067ffffffffffffffff811115611e9c57611e9b613c55565b5b604051908082528060200260200182016040528015611ed557816020015b611ec26138c7565b815260200190600190039081611eba5790505b5092505f5f90505b81811015611fc7575f838281518110611ef957611ef86149d7565b5b602002602001015190505f60015f8373ffffffffffffffffffffffffffffffffffffffff1673ffffffffffffffffffffffffffffffffffffffff1681526020019081526020015f20905060405180606001604052808373ffffffffffffffffffffffffffffffffffffffff168152602001825f0160149054906101000a900460ff166003811115611f8d57611f8c613adc565b5b81526020018260020154815250868481518110611fad57611fac6149d7565b5b602002602001018190525050508080600101915050611edd565b505050919050565b611fd7612c97565b5f73ffffffffffffffffffffffffffffffffffffffff168173ffffffffffffffffffffffffffffffffffffffff1603612047575f6040517f1e4fbdf700000000000000000000000000000000000000000000000000000000815260040161203e9190613a70565b60405180910390fd5b61205081612d1e565b50565b60055f9054906101000a900473ffffffffffffffffffffffffffffffffffffffff1681565b612080612751565b600c5f9054906101000a900460ff16156120cf576040517f08c379a00000000000000000000000000000000000000000000000000000000081526004016120c69061464c565b60405180910390fd5b5f60045f8360038111156120e6576120e5613adc565b5b60038111156120f8576120f7613adc565b5b81526020019081526020015f205411612146576040517f08c379a000000000000000000000000000000000000000000000000000000000815260040161213d90614a4e565b60405180910390fd5b5f60015f3373ffffffffffffffffffffffffffffffffffffffff1673ffffffffffffffffffffffffffffffffffffffff1681526020019081526020015f2090505f600381111561219957612198613adc565b5b815f0160149054906101000a900460ff1660038111156121bc576121bb613adc565b5b146121fc576040517f08c379a00000000000000000000000000000000000000000000000000000000081526004016121f390614ab6565b60405180910390fd5b5f73ffffffffffffffffffffffffffffffffffffffff16815f015f9054906101000a900473ffffffffffffffffffffffffffffffffffffffff1673ffffffffffffffffffffffffffffffffffffffff160361228c576040517f08c379a000000000000000000000000000000000000000000000000000000000815260040161228390614b44565b60405180910390fd5b6122e17355d398326f99059ff775485246999027b3197955333060045f8760038111156122bc576122bb613adc565b5b60038111156122ce576122cd613adc565b5b81526020019081526020015f2054612b64565b5f6064605060045f8660038111156122fc576122fb613adc565b5b600381111561230e5761230d613adc565b5b81526020019081526020015f20546123269190614b62565b6123309190614bd0565b90506123657355d398326f99059ff775485246999027b319795573fd5840cd36d94d7229439859c0112a4185bc02555f612fef565b6123987355d398326f99059ff775485246999027b319795573fd5840cd36d94d7229439859c0112a4185bc025583612fef565b5f73fd5840cd36d94d7229439859c0112a4185bc025573ffffffffffffffffffffffffffffffffffffffff1663a0712d68836040518263ffffffff1660e01b81526004016123e69190613a98565b6020604051808303815f875af1158015612402573d5f5f3e3d5ffd5b505050506040513d601f19601f820116820180604052508101906124269190614c14565b14612466576040517f08c379a000000000000000000000000000000000000000000000000000000000815260040161245d90614c89565b60405180910390fd5b5f73fd5840cd36d94d7229439859c0112a4185bc025573ffffffffffffffffffffffffffffffffffffffff166370a08231306040518263ffffffff1660e01b81526004016124b49190613a70565b602060405180830381865afa1580156124cf573d5f5f3e3d5ffd5b505050506040513d601f19601f820116820180604052508101906124f39190614c14565b905061253573fd5840cd36d94d7229439859c0112a4185bc025560075f9054906101000a900473ffffffffffffffffffffffffffffffffffffffff1683612795565b83835f0160146101000a81548160ff0219169083600381111561255b5761255a613adc565b5b021790555060045f85600381111561257657612575613adc565b5b600381111561258857612587613adc565b5b81526020019081526020015f2054600b5f8282546125a69190614497565b925050819055506001600a5f3373ffffffffffffffffffffffffffffffffffffffff1673ffffffffffffffffffffffffffffffffffffffff1681526020019081526020015f205f6101000a81548160ff0219169083151502179055505f73ffffffffffffffffffffffffffffffffffffffff1660015f3373ffffffffffffffffffffffffffffffffffffffff1673ffffffffffffffffffffffffffffffffffffffff1681526020019081526020015f205f015f9054906101000a900473ffffffffffffffffffffffffffffffffffffffff1673ffffffffffffffffffffffffffffffffffffffff16146126d3576126d23360045f8760038111156126ad576126ac613adc565b5b60038111156126bf576126be613adc565b5b81526020019081526020015f205461311f565b5b7f8acf475137e0cd74ca7f611d16b1e6383ec9a9c71a8e5b85967781b9c7214d113360045f87600381111561270b5761270a613adc565b5b600381111561271d5761271c613adc565b5b81526020019081526020015f20548660405161273b93929190614ca7565b60405180910390a150505061274e6128c5565b50565b60025f540361278c576040517f3ee5aeb500000000000000000000000000000000000000000000000000000000815260040160405180910390fd5b60025f81905550565b5f5f8473ffffffffffffffffffffffffffffffffffffffff1663a9059cbb85856040516024016127c6929190614cdc565b6040516020818303038152906040529060e01b6020820180517bffffffffffffffffffffffffffffffffffffffffffffffffffffffff83818316178352505050506040516128149190614d47565b5f604051808303815f865af19150503d805f811461284d576040519150601f19603f3d011682016040523d82523d5f602084013e612852565b606091505b509150915081801561287f57505f8151148061287e57508080602001905181019061287d9190614d87565b5b5b6128be576040517f08c379a00000000000000000000000000000000000000000000000000000000081526004016128b590614dfc565b60405180910390fd5b5050505050565b60015f81905550565b7f000000000000000000000000000000000000000000000000000000000000000073ffffffffffffffffffffffffffffffffffffffff163073ffffffffffffffffffffffffffffffffffffffff16148061297b57507f000000000000000000000000000000000000000000000000000000000000000073ffffffffffffffffffffffffffffffffffffffff166129626134b5565b73ffffffffffffffffffffffffffffffffffffffff1614155b156129b2576040517fe07c8dba00000000000000000000000000000000000000000000000000000000815260040160405180910390fd5b565b6129bc612c97565b50565b8173ffffffffffffffffffffffffffffffffffffffff166352d1902d6040518163ffffffff1660e01b8152600401602060405180830381865afa925050508015612a2757506040513d601f19601f82011682018060405250810190612a249190614e44565b60015b612a6857816040517f4c9c8ce3000000000000000000000000000000000000000000000000000000008152600401612a5f9190613a70565b60405180910390fd5b7f360894a13ba1a3210667c828492db98dca3e2076cc3735a920a3ca505d382bbc5f1b8114612ace57806040517faa1d49a4000000000000000000000000000000000000000000000000000000008152600401612ac59190613deb565b60405180910390fd5b612ad88383613508565b505050565b7f000000000000000000000000000000000000000000000000000000000000000073ffffffffffffffffffffffffffffffffffffffff163073ffffffffffffffffffffffffffffffffffffffff1614612b62576040517fe07c8dba00000000000000000000000000000000000000000000000000000000815260040160405180910390fd5b565b5f5f8573ffffffffffffffffffffffffffffffffffffffff166323b872dd868686604051602401612b9793929190614e6f565b6040516020818303038152906040529060e01b6020820180517bffffffffffffffffffffffffffffffffffffffffffffffffffffffff8381831617835250505050604051612be59190614d47565b5f604051808303815f865af19150503d805f8114612c1e576040519150601f19603f3d011682016040523d82523d5f602084013e612c23565b606091505b5091509150818015612c5057505f81511480612c4f575080806020019051810190612c4e9190614d87565b5b5b612c8f576040517f08c379a0000000000000000000000000000000000000000000000000000000008152600401612c8690614f14565b60405180910390fd5b505050505050565b612c9f612fd4565b73ffffffffffffffffffffffffffffffffffffffff16612cbd61171f565b73ffffffffffffffffffffffffffffffffffffffff1614612d1c57612ce0612fd4565b6040517f118cdaa7000000000000000000000000000000000000000000000000000000008152600401612d139190613a70565b60405180910390fd5b565b5f612d27612f9a565b90505f815f015f9054906101000a900473ffffffffffffffffffffffffffffffffffffffff16905082825f015f6101000a81548173ffffffffffffffffffffffffffffffffffffffff021916908373ffffffffffffffffffffffffffffffffffffffff1602179055508273ffffffffffffffffffffffffffffffffffffffff168173ffffffffffffffffffffffffffffffffffffffff167f8be0079c531659141344cd1fd0a4f28419497f9722a3daafe3b4186f6b6457e060405160405180910390a3505050565b5f60015f8373ffffffffffffffffffffffffffffffffffffffff1673ffffffffffffffffffffffffffffffffffffffff1681526020019081526020015f205f015f9054906101000a900473ffffffffffffffffffffffffffffffffffffffff1690505f5f90505b5f73ffffffffffffffffffffffffffffffffffffffff168273ffffffffffffffffffffffffffffffffffffffff1614158015612e925750603281105b15612f95578273ffffffffffffffffffffffffffffffffffffffff168273ffffffffffffffffffffffffffffffffffffffff160315612f95576001805f8473ffffffffffffffffffffffffffffffffffffffff1673ffffffffffffffffffffffffffffffffffffffff1681526020019081526020015f206001015f828254612f1a9190614497565b9250508190555060015f8373ffffffffffffffffffffffffffffffffffffffff1673ffffffffffffffffffffffffffffffffffffffff1681526020019081526020015f205f015f9054906101000a900473ffffffffffffffffffffffffffffffffffffffff1691508080612f8d90614f32565b915050612e56565b505050565b5f7f9016d09d72d40fdae2fd8ceac6b6234c7706214fd39c1cd1e609a0528c199300905090565b5f5f612fcb61357a565b90508091505090565b5f33905090565b612fe36135a3565b612fec816135e3565b50565b5f5f8473ffffffffffffffffffffffffffffffffffffffff1663095ea7b38585604051602401613020929190614cdc565b6040516020818303038152906040529060e01b6020820180517bffffffffffffffffffffffffffffffffffffffffffffffffffffffff838183161783525050505060405161306e9190614d47565b5f604051808303815f865af19150503d805f81146130a7576040519150601f19603f3d011682016040523d82523d5f602084013e6130ac565b606091505b50915091508180156130d957505f815114806130d85750808060200190518101906130d79190614d87565b5b5b613118576040517f08c379a000000000000000000000000000000000000000000000000000000000815260040161310f90614fc3565b60405180910390fd5b5050505050565b5f60015f8473ffffffffffffffffffffffffffffffffffffffff1673ffffffffffffffffffffffffffffffffffffffff1681526020019081526020015f205f015f9054906101000a900473ffffffffffffffffffffffffffffffffffffffff1690505f5f90505f5f90505b5f73ffffffffffffffffffffffffffffffffffffffff168373ffffffffffffffffffffffffffffffffffffffff16141580156131c65750603282105b156134ae578473ffffffffffffffffffffffffffffffffffffffff168373ffffffffffffffffffffffffffffffffffffffff1603156134ae578360015f8573ffffffffffffffffffffffffffffffffffffffff1673ffffffffffffffffffffffffffffffffffffffff1681526020019081526020015f206002015f82825461324e9190614497565b925050819055505f60015f8573ffffffffffffffffffffffffffffffffffffffff1673ffffffffffffffffffffffffffffffffffffffff1681526020019081526020015f2060040154905081811115613439575f82826132ae91906143fc565b90505f606482886132bf9190614b62565b6132c99190614bd0565b90505f811115613418578060015f8873ffffffffffffffffffffffffffffffffffffffff1673ffffffffffffffffffffffffffffffffffffffff1681526020019081526020015f206003015f8282546133229190614497565b9250508190555060025f8773ffffffffffffffffffffffffffffffffffffffff1673ffffffffffffffffffffffffffffffffffffffff1681526020019081526020015f2060405180606001604052808a73ffffffffffffffffffffffffffffffffffffffff16815260200183815260200142815250908060018154018082558091505060019003905f5260205f2090600302015f909190919091505f820151815f015f6101000a81548173ffffffffffffffffffffffffffffffffffffffff021916908373ffffffffffffffffffffffffffffffffffffffff160217905550602082015181600101556040820151816002015550505b81846134249190614497565b935060648410613436575050506134ae565b50505b60015f8573ffffffffffffffffffffffffffffffffffffffff1673ffffffffffffffffffffffffffffffffffffffff1681526020019081526020015f205f015f9054906101000a900473ffffffffffffffffffffffffffffffffffffffff16935082806134a590614f32565b9350505061318a565b5050505050565b5f6134e17f360894a13ba1a3210667c828492db98dca3e2076cc3735a920a3ca505d382bbc5f1b613667565b5f015f9054906101000a900473ffffffffffffffffffffffffffffffffffffffff16905090565b61351182613670565b8173ffffffffffffffffffffffffffffffffffffffff167fbc7cd75a20ee27fd9adebab32041f755214dbc6bffa90cc0225b39da2e5c2d3b60405160405180910390a25f8151111561356d576135678282613739565b50613576565b61357561382a565b5b5050565b5f7ff0c57e16840df040f15088dc2f81fe391c3923bec73e23a9662efc9c229c6a005f1b905090565b6135ab613866565b6135e1576040517fd7e6bcf800000000000000000000000000000000000000000000000000000000815260040160405180910390fd5b565b6135eb6135a3565b5f73ffffffffffffffffffffffffffffffffffffffff168173ffffffffffffffffffffffffffffffffffffffff160361365b575f6040517f1e4fbdf70000000000000000000000000000000000000000000000000000000081526004016136529190613a70565b60405180910390fd5b61366481612d1e565b50565b5f819050919050565b5f8173ffffffffffffffffffffffffffffffffffffffff163b036136cb57806040517f4c9c8ce30000000000000000000000000000000000000000000000000000000081526004016136c29190613a70565b60405180910390fd5b806136f77f360894a13ba1a3210667c828492db98dca3e2076cc3735a920a3ca505d382bbc5f1b613667565b5f015f6101000a81548173ffffffffffffffffffffffffffffffffffffffff021916908373ffffffffffffffffffffffffffffffffffffffff16021790555050565b60605f6137468484613884565b905080801561377c57505f613759613898565b118061377b57505f8473ffffffffffffffffffffffffffffffffffffffff163b115b5b156137915761378961389f565b915050613824565b80156137d457836040517f9996b3150000000000000000000000000000000000000000000000000000000081526004016137cb9190613a70565b60405180910390fd5b5f6137dd613898565b11156137f0576137eb6138bc565b613822565b6040517fd6bda27500000000000000000000000000000000000000000000000000000000815260040160405180910390fd5b505b92915050565b5f341115613864576040517fb398979f00000000000000000000000000000000000000000000000000000000815260040160405180910390fd5b565b5f61386f612fc1565b5f0160089054906101000a900460ff16905090565b5f5f5f835160208501865af4905092915050565b5f3d905090565b606060405190503d81523d5f602083013e3d602001810160405290565b6040513d5f823e3d81fd5b60405180606001604052805f73ffffffffffffffffffffffffffffffffffffffff1681526020015f600381111561390157613900613adc565b5b81526020015f81525090565b5f82825260208201905092915050565b7f4e4f5f4449524543545f53454e440000000000000000000000000000000000005f82015250565b5f613951600e8361390d565b915061395c8261391d565b602082019050919050565b5f6020820190508181035f83015261397e81613945565b9050919050565b5f604051905090565b5f5ffd5b5f5ffd5b5f73ffffffffffffffffffffffffffffffffffffffff82169050919050565b5f6139bf82613996565b9050919050565b6139cf816139b5565b81146139d9575f5ffd5b50565b5f813590506139ea816139c6565b92915050565b5f819050919050565b613a02816139f0565b8114613a0c575f5ffd5b50565b5f81359050613a1d816139f9565b92915050565b5f5f60408385031215613a3957613a3861398e565b5b5f613a46858286016139dc565b9250506020613a5785828601613a0f565b9150509250929050565b613a6a816139b5565b82525050565b5f602082019050613a835f830184613a61565b92915050565b613a92816139f0565b82525050565b5f602082019050613aab5f830184613a89565b92915050565b5f60208284031215613ac657613ac561398e565b5b5f613ad3848285016139dc565b91505092915050565b7f4e487b71000000000000000000000000000000000000000000000000000000005f52602160045260245ffd5b60048110613b1a57613b19613adc565b5b50565b5f819050613b2a82613b09565b919050565b5f613b3982613b1d565b9050919050565b613b4981613b2f565b82525050565b5f60e082019050613b625f83018a613a61565b613b6f6020830189613b40565b613b7c6040830188613a89565b613b896060830187613a89565b613b966080830186613a89565b613ba360a0830185613a89565b613bb060c0830184613a89565b98975050505050505050565b60048110613bc8575f5ffd5b50565b5f81359050613bd981613bbc565b92915050565b5f60208284031215613bf457613bf361398e565b5b5f613c0184828501613bcb565b91505092915050565b5f8115159050919050565b613c1e81613c0a565b82525050565b5f602082019050613c375f830184613c15565b92915050565b5f5ffd5b5f5ffd5b5f601f19601f8301169050919050565b7f4e487b71000000000000000000000000000000000000000000000000000000005f52604160045260245ffd5b613c8b82613c45565b810181811067ffffffffffffffff82111715613caa57613ca9613c55565b5b80604052505050565b5f613cbc613985565b9050613cc88282613c82565b919050565b5f67ffffffffffffffff821115613ce757613ce6613c55565b5b613cf082613c45565b9050602081019050919050565b828183375f83830152505050565b5f613d1d613d1884613ccd565b613cb3565b905082815260208101848484011115613d3957613d38613c41565b5b613d44848285613cfd565b509392505050565b5f82601f830112613d6057613d5f613c3d565b5b8135613d70848260208601613d0b565b91505092915050565b5f5f60408385031215613d8f57613d8e61398e565b5b5f613d9c858286016139dc565b925050602083013567ffffffffffffffff811115613dbd57613dbc613992565b5b613dc985828601613d4c565b9150509250929050565b5f819050919050565b613de581613dd3565b82525050565b5f602082019050613dfe5f830184613ddc565b92915050565b5f5f5f60608486031215613e1b57613e1a61398e565b5b5f613e28868287016139dc565b9350506020613e3986828701613a0f565b9250506040613e4a868287016139dc565b9150509250925092565b5f81519050919050565b5f82825260208201905092915050565b5f819050602082019050919050565b613e86816139b5565b82525050565b613e95816139f0565b82525050565b606082015f820151613eaf5f850182613e7d565b506020820151613ec26020850182613e8c565b506040820151613ed56040850182613e8c565b50505050565b5f613ee68383613e9b565b60608301905092915050565b5f602082019050919050565b5f613f0882613e54565b613f128185613e5e565b9350613f1d83613e6e565b805f5b83811015613f4d578151613f348882613edb565b9750613f3f83613ef2565b925050600181019050613f20565b5085935050505092915050565b5f61010082019050613f6e5f83018b613a61565b613f7b602083018a613b40565b613f886040830189613a89565b613f956060830188613a89565b613fa26080830187613a89565b613faf60a0830186613a89565b613fbc60c0830185613a89565b81810360e0830152613fce8184613efe565b90509998505050505050505050565b5f81519050919050565b5f82825260208201905092915050565b5f819050602082019050919050565b5f6140118383613e7d565b60208301905092915050565b5f602082019050919050565b5f61403382613fdd565b61403d8185613fe7565b935061404883613ff7565b805f5b8381101561407857815161405f8882614006565b975061406a8361401d565b92505060018101905061404b565b5085935050505092915050565b5f6020820190508181035f83015261409d8184614029565b905092915050565b5f81519050919050565b8281835e5f83830152505050565b5f6140c7826140a5565b6140d1818561390d565b93506140e18185602086016140af565b6140ea81613c45565b840191505092915050565b5f6020820190508181035f83015261410d81846140bd565b905092915050565b5f6060820190506141285f830186613a61565b6141356020830185613b40565b6141426040830184613a89565b949350505050565b5f5f5f606084860312156141615761416061398e565b5b5f61416e868287016139dc565b935050602061417f868287016139dc565b9250506040614190868287016139dc565b9150509250925092565b5f67ffffffffffffffff8211156141b4576141b3613c55565b5b602082029050602081019050919050565b5f5ffd5b5f6141db6141d68461419a565b613cb3565b905080838252602082019050602084028301858111156141fe576141fd6141c5565b5b835b81811015614227578061421388826139dc565b845260208401935050602081019050614200565b5050509392505050565b5f82601f83011261424557614244613c3d565b5b81356142558482602086016141c9565b91505092915050565b5f5f604083850312156142745761427361398e565b5b5f83013567ffffffffffffffff81111561429157614290613992565b5b61429d85828601614231565b92505060206142ae85828601613bcb565b9150509250929050565b5f81519050919050565b5f82825260208201905092915050565b5f819050602082019050919050565b6142ea81613b2f565b82525050565b606082015f8201516143045f850182613e7d565b50602082015161431760208501826142e1565b50604082015161432a6040850182613e8c565b50505050565b5f61433b83836142f0565b60608301905092915050565b5f602082019050919050565b5f61435d826142b8565b61436781856142c2565b9350614372836142d2565b805f5b838110156143a25781516143898882614330565b975061439483614347565b925050600181019050614375565b5085935050505092915050565b5f6020820190508181035f8301526143c78184614353565b905092915050565b7f4e487b71000000000000000000000000000000000000000000000000000000005f52601160045260245ffd5b5f614406826139f0565b9150614411836139f0565b9250828203905081811115614429576144286143cf565b5b92915050565b7f4e4f5f41574152440000000000000000000000000000000000000000000000005f82015250565b5f61446360088361390d565b915061446e8261442f565b602082019050919050565b5f6020820190508181035f83015261449081614457565b9050919050565b5f6144a1826139f0565b91506144ac836139f0565b92508282019050808211156144c4576144c36143cf565b5b92915050565b7f4e6f74207065726d69742e0000000000000000000000000000000000000000005f82015250565b5f6144fe600b8361390d565b9150614509826144ca565b602082019050919050565b5f6020820190508181035f83015261452b816144f2565b9050919050565b7f4e6f74207065726d69742067656e65726174652e0000000000000000000000005f82015250565b5f61456660148361390d565b915061457182614532565b602082019050919050565b5f6020820190508181035f8301526145938161455a565b9050919050565b7f414c52454144595f4558495354535f454c49474942494c4954592e00000000005f82015250565b5f6145ce601b8361390d565b91506145d98261459a565b602082019050919050565b5f6020820190508181035f8301526145fb816145c2565b9050919050565b7f416c7265616479205061757365642e00000000000000000000000000000000005f82015250565b5f614636600f8361390d565b915061464182614602565b602082019050919050565b5f6020820190508181035f8301526146638161462a565b9050919050565b7f496e697469616c20636f64652063616e6e6f742072656769737465722e0000005f82015250565b5f61469e601d8361390d565b91506146a98261466a565b602082019050919050565b5f6020820190508181035f8301526146cb81614692565b9050919050565b7f5a45524f5f414444524553532e000000000000000000000000000000000000005f82015250565b5f614706600d8361390d565b9150614711826146d2565b602082019050919050565b5f6020820190508181035f830152614733816146fa565b9050919050565b7f494e56414c49445f5245434f4d4d454e4445522e0000000000000000000000005f82015250565b5f61476e60148361390d565b91506147798261473a565b602082019050919050565b5f6020820190508181035f83015261479b81614762565b9050919050565b7f4e6f20656c69676962696c6974792e00000000000000000000000000000000005f82015250565b5f6147d6600f8361390d565b91506147e1826147a2565b602082019050919050565b5f6020820190508181035f830152614803816147ca565b9050919050565b7f494e56495445525f414c52454144595f4558495354532e0000000000000000005f82015250565b5f61483e60178361390d565b91506148498261480a565b602082019050919050565b5f6020820190508181035f83015261486b81614832565b9050919050565b5f6040820190506148855f830185613a61565b6148926020830184613a61565b9392505050565b7f4572726f7220726174696f2e00000000000000000000000000000000000000005f82015250565b5f6148cd600c8361390d565b91506148d882614899565b602082019050919050565b5f6020820190508181035f8301526148fa816148c1565b9050919050565b5f819050919050565b5f67ffffffffffffffff82169050919050565b5f819050919050565b5f61494061493b61493684614901565b61491d565b61490a565b9050919050565b61495081614926565b82525050565b5f6020820190506149695f830184614947565b92915050565b7f494e56414c49445f4e4f44455f545950450000000000000000000000000000005f82015250565b5f6149a360118361390d565b91506149ae8261496f565b602082019050919050565b5f6020820190508181035f8301526149d081614997565b9050919050565b7f4e487b71000000000000000000000000000000000000000000000000000000005f52603260045260245ffd5b7f4552524f525f4e4f44455f545950452e000000000000000000000000000000005f82015250565b5f614a3860108361390d565b9150614a4382614a04565b602082019050919050565b5f6020820190508181035f830152614a6581614a2c565b9050919050565b7f414c52454144595f52454348415247452e0000000000000000000000000000005f82015250565b5f614aa060118361390d565b9150614aab82614a6c565b602082019050919050565b5f6020820190508181035f830152614acd81614a94565b9050919050565b7f5245434f4d4d454e444154494f4e5f49535f52455155495245445f52454348415f8201527f5247452e00000000000000000000000000000000000000000000000000000000602082015250565b5f614b2e60248361390d565b9150614b3982614ad4565b604082019050919050565b5f6020820190508181035f830152614b5b81614b22565b9050919050565b5f614b6c826139f0565b9150614b77836139f0565b9250828202614b85816139f0565b91508282048414831517614b9c57614b9b6143cf565b5b5092915050565b7f4e487b71000000000000000000000000000000000000000000000000000000005f52601260045260245ffd5b5f614bda826139f0565b9150614be5836139f0565b925082614bf557614bf4614ba3565b5b828204905092915050565b5f81519050614c0e816139f9565b92915050565b5f60208284031215614c2957614c2861398e565b5b5f614c3684828501614c00565b91505092915050565b7f56454e55535f4d494e545f4641494c45440000000000000000000000000000005f82015250565b5f614c7360118361390d565b9150614c7e82614c3f565b602082019050919050565b5f6020820190508181035f830152614ca081614c67565b9050919050565b5f606082019050614cba5f830186613a61565b614cc76020830185613a89565b614cd46040830184613b40565b949350505050565b5f604082019050614cef5f830185613a61565b614cfc6020830184613a89565b9392505050565b5f81519050919050565b5f81905092915050565b5f614d2182614d03565b614d2b8185614d0d565b9350614d3b8185602086016140af565b80840191505092915050565b5f614d528284614d17565b915081905092915050565b614d6681613c0a565b8114614d70575f5ffd5b50565b5f81519050614d8181614d5d565b92915050565b5f60208284031215614d9c57614d9b61398e565b5b5f614da984828501614d73565b91505092915050565b7f5472616e7366657248656c7065723a205452414e534645525f4641494c4544005f82015250565b5f614de6601f8361390d565b9150614df182614db2565b602082019050919050565b5f6020820190508181035f830152614e1381614dda565b9050919050565b614e2381613dd3565b8114614e2d575f5ffd5b50565b5f81519050614e3e81614e1a565b92915050565b5f60208284031215614e5957614e5861398e565b5b5f614e6684828501614e30565b91505092915050565b5f606082019050614e825f830186613a61565b614e8f6020830185613a61565b614e9c6040830184613a89565b949350505050565b7f5472616e7366657248656c7065723a205452414e534645525f46524f4d5f46415f8201527f494c454400000000000000000000000000000000000000000000000000000000602082015250565b5f614efe60248361390d565b9150614f0982614ea4565b604082019050919050565b5f6020820190508181035f830152614f2b81614ef2565b9050919050565b5f614f3c826139f0565b91507fffffffffffffffffffffffffffffffffffffffffffffffffffffffffffffffff8203614f6e57614f6d6143cf565b5b600182019050919050565b7f5472616e7366657248656c7065723a20415050524f56455f4641494c454400005f82015250565b5f614fad601e8361390d565b9150614fb882614f79565b602082019050919050565b5f6020820190508181035f830152614fda81614fa1565b905091905056fea264697066735822122094d5738d74a5221c66cd7db1bc8c609e5bd924b43f6adff25184d29881108fc264736f6c634300081e0033","linkReferences":{}},"methodIdentifiers":{"MAX_REFERRAL_DEPTH()":"89e59ea0","UPGRADE_INTERFACE_VERSION()":"ad3cb1cc","USDT()":"c54e44eb","VENUS()":"1a78ccc1","admin()":"f851a440","batchImport(address[],uint8)":"c528755d","claim()":"4e71d92d","directReferrals(address,uint256)":"05ad3935","eligibility(address)":"63c36dec","emergencyWithdraw(address,uint256,address)":"551512de","generateCode()":"6e8dbfd0","getAddrCollection()":"a2b0332b","getAddrCollectionLength()":"4d38857c","getDirectReferralInfo(address)":"dcdcd08c","getMigrateInfo(address)":"b3a48366","getUserInfo(address)":"6386c1c7","initialCode()":"10baf089","initialize(address,address,address)":"c0c53b8b","isAddCollection(address)":"39fe3b99","nodePrice(uint8)":"1f7bcc4b","owner()":"8da5cb5b","proxiableUUID()":"52d1902d","recipient()":"66d003ac","referral(address)":"7247959a","renounceOwnership()":"715018a6","setAwardRatio(address,uint256)":"77e06a9e","singleRecharge(uint8)":"fb7b09c5","totalPerformance()":"06876dbe","transferOwnership(address)":"f2fde38b","upgradeToAndCall(address,bytes)":"4f1ef286","userInfo(address)":"1959a002","validInvitationCode(address)":"3c4e9d74"},"id":33}