{"abi":[{"type":"receive","stateMutability":"payable"},{"type":"function","name":"MAX_REFERRAL_DEPTH","inputs":[],"outputs":[{"name":"","type":"uint256","internalType":"uint256"}],"stateMutability":"view"},{"type":"function","name":"UPGRADE_INTERFACE_VERSION","inputs":[],"outputs":[{"name":"","type":"string","internalType":"string"}],"stateMutability":"view"},{"type":"function","name":"USDT","inputs":[],"outputs":[{"name":"","type":"address","internalType":"address"}],"stateMutability":"view"},{"type":"function","name":"VENUS","inputs":[],"outputs":[{"name":"","type":"address","internalType":"address"}],"stateMutability":"view"},{"type":"function","name":"admin","inputs":[],"outputs":[{"name":"","type":"address","internalType":"address"}],"stateMutability":"view"},{"type":"function","name":"batchImport","inputs":[{"name":"users","type":"address[]","internalType":"address[]"}],"outputs":[],"stateMutability":"nonpayable"},{"type":"function","name":"claim","inputs":[],"outputs":[],"stateMutability":"nonpayable"},{"type":"function","name":"directReferrals","inputs":[{"name":"","type":"address","internalType":"address"},{"name":"","type":"uint256","internalType":"uint256"}],"outputs":[{"name":"","type":"address","internalType":"address"}],"stateMutability":"view"},{"type":"function","name":"eligibility","inputs":[{"name":"","type":"address","internalType":"address"}],"outputs":[{"name":"","type":"bool","internalType":"bool"}],"stateMutability":"view"},{"type":"function","name":"emergencyWithdraw","inputs":[{"name":"token","type":"address","internalType":"address"},{"name":"amount","type":"uint256","internalType":"uint256"},{"name":"to","type":"address","internalType":"address"}],"outputs":[],"stateMutability":"nonpayable"},{"type":"function","name":"generateCode","inputs":[],"outputs":[],"stateMutability":"nonpayable"},{"type":"function","name":"getAddrCollection","inputs":[],"outputs":[{"name":"","type":"address[]","internalType":"address[]"}],"stateMutability":"view"},{"type":"function","name":"getAddrCollectionLength","inputs":[],"outputs":[{"name":"","type":"uint256","internalType":"uint256"}],"stateMutability":"view"},{"type":"function","name":"getDirectReferralInfo","inputs":[{"name":"user","type":"address","internalType":"address"}],"outputs":[{"name":"infos","type":"tuple[]","internalType":"struct Enum.DirectInfo[]","components":[{"name":"user","type":"address","internalType":"address"},{"name":"nodeType","type":"uint8","internalType":"enum Enum.NodeType"},{"name":"performance","type":"uint256","internalType":"uint256"}]}],"stateMutability":"view"},{"type":"function","name":"getMigrateInfo","inputs":[{"name":"user","type":"address","internalType":"address"}],"outputs":[{"name":"recommender","type":"address","internalType":"address"},{"name":"nodeType","type":"uint8","internalType":"enum Enum.NodeType"},{"name":"amount","type":"uint256","internalType":"uint256"}],"stateMutability":"view"},{"type":"function","name":"getUserInfo","inputs":[{"name":"user","type":"address","internalType":"address"}],"outputs":[{"name":"recommender","type":"address","internalType":"address"},{"name":"nodeType","type":"uint8","internalType":"enum Enum.NodeType"},{"name":"referralNum","type":"uint256","internalType":"uint256"},{"name":"performance","type":"uint256","internalType":"uint256"},{"name":"award","type":"uint256","internalType":"uint256"},{"name":"awardRatio","type":"uint256","internalType":"uint256"},{"name":"totalAward","type":"uint256","internalType":"uint256"},{"name":"recordAwards","type":"tuple[]","internalType":"struct Enum.RecordAward[]","components":[{"name":"user","type":"address","internalType":"address"},{"name":"amount","type":"uint256","internalType":"uint256"},{"name":"time","type":"uint256","internalType":"uint256"}]}],"stateMutability":"view"},{"type":"function","name":"initialCode","inputs":[],"outputs":[{"name":"","type":"address","internalType":"address"}],"stateMutability":"view"},{"type":"function","name":"initialize","inputs":[{"name":"_admin","type":"address","internalType":"address"},{"name":"_recipient","type":"address","internalType":"address"},{"name":"_initialCode","type":"address","internalType":"address"}],"outputs":[],"stateMutability":"nonpayable"},{"type":"function","name":"isAddCollection","inputs":[{"name":"","type":"address","internalType":"address"}],"outputs":[{"name":"","type":"bool","internalType":"bool"}],"stateMutability":"view"},{"type":"function","name":"nodePrice","inputs":[{"name":"","type":"uint8","internalType":"enum Enum.NodeType"}],"outputs":[{"name":"","type":"uint256","internalType":"uint256"}],"stateMutability":"view"},{"type":"function","name":"owner","inputs":[],"outputs":[{"name":"","type":"address","internalType":"address"}],"stateMutability":"view"},{"type":"function","name":"proxiableUUID","inputs":[],"outputs":[{"name":"","type":"bytes32","internalType":"bytes32"}],"stateMutability":"view"},{"type":"function","name":"recipient","inputs":[],"outputs":[{"name":"","type":"address","internalType":"address"}],"stateMutability":"view"},{"type":"function","name":"referral","inputs":[{"name":"recommender","type":"address","internalType":"address"}],"outputs":[],"stateMutability":"nonpayable"},{"type":"function","name":"renounceOwnership","inputs":[],"outputs":[],"stateMutability":"nonpayable"},{"type":"function","name":"setAwardRatio","inputs":[{"name":"user","type":"address","internalType":"address"},{"name":"_ratio","type":"uint256","internalType":"uint256"}],"outputs":[],"stateMutability":"nonpayable"},{"type":"function","name":"singleRecharge","inputs":[{"name":"nodeType","type":"uint8","internalType":"enum Enum.NodeType"}],"outputs":[],"stateMutability":"nonpayable"},{"type":"function","name":"totalPerformance","inputs":[],"outputs":[{"name":"","type":"uint256","internalType":"uint256"}],"stateMutability":"view"},{"type":"function","name":"transferOwnership","inputs":[{"name":"newOwner","type":"address","internalType":"address"}],"outputs":[],"stateMutability":"nonpayable"},{"type":"function","name":"upgradeToAndCall","inputs":[{"name":"newImplementation","type":"address","internalType":"address"},{"name":"data","type":"bytes","internalType":"bytes"}],"outputs":[],"stateMutability":"payable"},{"type":"function","name":"userInfo","inputs":[{"name":"","type":"address","internalType":"address"}],"outputs":[{"name":"recommender","type":"address","internalType":"address"},{"name":"nodeType","type":"uint8","internalType":"enum Enum.NodeType"},{"name":"referralNum","type":"uint256","internalType":"uint256"},{"name":"performance","type":"uint256","internalType":"uint256"},{"name":"award","type":"uint256","internalType":"uint256"},{"name":"awardRatio","type":"uint256","internalType":"uint256"},{"name":"extracted","type":"uint256","internalType":"uint256"}],"stateMutability":"view"},{"type":"function","name":"validInvitationCode","inputs":[{"name":"user","type":"address","internalType":"address"}],"outputs":[{"name":"","type":"bool","internalType":"bool"}],"stateMutability":"view"},{"type":"event","name":"Initialized","inputs":[{"name":"version","type":"uint64","indexed":false,"internalType":"uint64"}],"anonymous":false},{"type":"event","name":"OwnershipTransferred","inputs":[{"name":"previousOwner","type":"address","indexed":true,"internalType":"address"},{"name":"newOwner","type":"address","indexed":true,"internalType":"address"}],"anonymous":false},{"type":"event","name":"Referral","inputs":[{"name":"recommender","type":"address","indexed":false,"internalType":"address"},{"name":"referred","type":"address","indexed":false,"internalType":"address"}],"anonymous":false},{"type":"event","name":"Staked","inputs":[{"name":"user","type":"address","indexed":false,"internalType":"address"},{"name":"amount","type":"uint256","indexed":false,"internalType":"uint256"},{"name":"nodeType","type":"uint8","indexed":false,"internalType":"enum Enum.NodeType"}],"anonymous":false},{"type":"event","name":"Upgraded","inputs":[{"name":"implementation","type":"address","indexed":true,"internalType":"address"}],"anonymous":false},{"type":"error","name":"AddressEmptyCode","inputs":[{"name":"target","type":"address","internalType":"address"}]},{"type":"error","name":"ERC1967InvalidImplementation","inputs":[{"name":"implementation","type":"address","internalType":"address"}]},{"type":"error","name":"ERC1967NonPayable","inputs":[]},{"type":"error","name":"FailedCall","inputs":[]},{"type":"error","name":"InvalidInitialization","inputs":[]},{"type":"error","name":"NotInitializing","inputs":[]},{"type":"error","name":"OwnableInvalidOwner","inputs":[{"name":"owner","type":"address","internalType":"address"}]},{"type":"error","name":"OwnableUnauthorizedAccount","inputs":[{"name":"account","type":"address","internalType":"address"}]},{"type":"error","name":"ReentrancyGuardReentrantCall","inputs":[]},{"type":"error","name":"UUPSUnauthorizedCallContext","inputs":[]},{"type":"error","name":"UUPSUnsupportedProxiableUUID","inputs":[{"name":"slot","type":"bytes32","internalType":"bytes32"}]}],"bytecode":{"object":"0x60a06040523073ffffffffffffffffffffffffffffffffffffffff1660809073ffffffffffffffffffffffffffffffffffffffff168152503480156041575f5ffd5b5060015f8190555060805161513a61006f5f395f81816128060152818161285b0152612a15015261513a5ff3fe6080604052600436106101e6575f3560e01c8063680caf2a11610101578063ad3cb1cc11610094578063dcdcd08c11610063578063dcdcd08c1461070d578063f2fde38b14610749578063f851a44014610771578063fb7b09c51461079b57610226565b8063ad3cb1cc14610653578063b3a483661461067d578063c0c53b8b146106bb578063c54e44eb146106e357610226565b806377e06a9e116100d057806377e06a9e146105ad57806389e59ea0146105d55780638da5cb5b146105ff578063a2b0332b1461062957610226565b8063680caf2a146105315780636e8dbfd014610559578063715018a61461056f5780637247959a1461058557610226565b80634d38857c11610179578063551512de11610148578063551512de146104605780636386c1c71461048857806363c36dec146104cb57806366d003ac1461050757610226565b80634d38857c146103da5780634e71d92d146104045780634f1ef2861461041a57806352d1902d1461043657610226565b80631a78ccc1116101b55780631a78ccc1146102fc5780631f7bcc4b1461032657806339fe3b99146103625780633c4e9d741461039e57610226565b806305ad39351461022a57806306876dbe1461026657806310baf089146102905780631959a002146102ba57610226565b36610226576040517f08c379a000000000000000000000000000000000000000000000000000000000815260040161021d90613b05565b60405180910390fd5b5f5ffd5b348015610235575f5ffd5b50610250600480360381019061024b9190613bc1565b6107c3565b60405161025d9190613c0e565b60405180910390f35b348015610271575f5ffd5b5061027a61080b565b6040516102879190613c36565b60405180910390f35b34801561029b575f5ffd5b506102a4610811565b6040516102b19190613c0e565b60405180910390f35b3480156102c5575f5ffd5b506102e060048036038101906102db9190613c4f565b610836565b6040516102f39796959493929190613ced565b60405180910390f35b348015610307575f5ffd5b5061031061089f565b60405161031d9190613c0e565b60405180910390f35b348015610331575f5ffd5b5061034c60048036038101906103479190613d7d565b6108b7565b6040516103599190613c36565b60405180910390f35b34801561036d575f5ffd5b5061038860048036038101906103839190613c4f565b6108cc565b6040516103959190613dc2565b60405180910390f35b3480156103a9575f5ffd5b506103c460048036038101906103bf9190613c4f565b6108e9565b6040516103d19190613dc2565b60405180910390f35b3480156103e5575f5ffd5b506103ee610999565b6040516103fb9190613c36565b60405180910390f35b34801561040f575f5ffd5b506104186109a5565b005b610434600480360381019061042f9190613f17565b610ac7565b005b348015610441575f5ffd5b5061044a610ae6565b6040516104579190613f89565b60405180910390f35b34801561046b575f5ffd5b5061048660048036038101906104819190613fa2565b610b17565b005b348015610493575f5ffd5b506104ae60048036038101906104a99190613c4f565b610bb6565b6040516104c29897969594939291906140f8565b60405180910390f35b3480156104d6575f5ffd5b506104f160048036038101906104ec9190613c4f565b610e0f565b6040516104fe9190613dc2565b60405180910390f35b348015610512575f5ffd5b5061051b610e2c565b6040516105289190613c0e565b60405180910390f35b34801561053c575f5ffd5b506105576004803603810190610552919061423f565b610e51565b005b348015610564575f5ffd5b5061056d610e9b565b005b34801561057a575f5ffd5b50610583611070565b005b348015610590575f5ffd5b506105ab60048036038101906105a69190613c4f565b611083565b005b3480156105b8575f5ffd5b506105d360048036038101906105ce9190613bc1565b611648565b005b3480156105e0575f5ffd5b506105e9611764565b6040516105f69190613c36565b60405180910390f35b34801561060a575f5ffd5b50610613611769565b6040516106209190613c0e565b60405180910390f35b348015610634575f5ffd5b5061063d61179e565b60405161064a919061432e565b60405180910390f35b34801561065e575f5ffd5b50610667611829565b604051610674919061439e565b60405180910390f35b348015610688575f5ffd5b506106a3600480360381019061069e9190613c4f565b611862565b6040516106b2939291906143be565b60405180910390f35b3480156106c6575f5ffd5b506106e160048036038101906106dc91906143f3565b6119c1565b005b3480156106ee575f5ffd5b506106f7611cd7565b6040516107049190613c0e565b60405180910390f35b348015610718575f5ffd5b50610733600480360381019061072e9190613c4f565b611cef565b604051610740919061453a565b60405180910390f35b348015610754575f5ffd5b5061076f600480360381019061076a9190613c4f565b611f05565b005b34801561077c575f5ffd5b50610785611f89565b6040516107929190613c0e565b60405180910390f35b3480156107a6575f5ffd5b506107c160048036038101906107bc9190613d7d565b611fae565b005b6003602052815f5260405f2081815481106107dc575f80fd5b905f5260205f20015f915091509054906101000a900473ffffffffffffffffffffffffffffffffffffffff1681565b600b5481565b60065f9054906101000a900473ffffffffffffffffffffffffffffffffffffffff1681565b6001602052805f5260405f205f91509050805f015f9054906101000a900473ffffffffffffffffffffffffffffffffffffffff1690805f0160149054906101000a900460ff16908060010154908060020154908060030154908060040154908060050154905087565b73fd5840cd36d94d7229439859c0112a4185bc025581565b6004602052805f5260405f205f915090505481565b6009602052805f5260405f205f915054906101000a900460ff1681565b5f60065f9054906101000a900473ffffffffffffffffffffffffffffffffffffffff1673ffffffffffffffffffffffffffffffffffffffff168273ffffffffffffffffffffffffffffffffffffffff16036109475760019050610994565b600a5f8373ffffffffffffffffffffffffffffffffffffffff1673ffffffffffffffffffffffffffffffffffffffff1681526020019081526020015f205f9054906101000a900460ff1690505b919050565b5f600880549050905090565b6109ad612687565b5f60015f3373ffffffffffffffffffffffffffffffffffffffff1673ffffffffffffffffffffffffffffffffffffffff1681526020019081526020015f2090505f81600501548260030154610a029190614587565b90505f8111610a46576040517f08c379a0000000000000000000000000000000000000000000000000000000008152600401610a3d90614604565b60405180910390fd5b8060015f3373ffffffffffffffffffffffffffffffffffffffff1673ffffffffffffffffffffffffffffffffffffffff1681526020019081526020015f206005015f828254610a959190614622565b92505081905550610abb7355d398326f99059ff775485246999027b319795533836126cb565b5050610ac56127fb565b565b610acf612804565b610ad8826128ea565b610ae282826128f5565b5050565b5f610aef612a13565b7f360894a13ba1a3210667c828492db98dca3e2076cc3735a920a3ca505d382bbc5f1b905090565b3373ffffffffffffffffffffffffffffffffffffffff1660055f9054906101000a900473ffffffffffffffffffffffffffffffffffffffff1673ffffffffffffffffffffffffffffffffffffffff1614610ba6576040517f08c379a0000000000000000000000000000000000000000000000000000000008152600401610b9d9061469f565b60405180910390fd5b610bb18382846126cb565b505050565b5f5f5f5f5f5f5f60605f60015f8b73ffffffffffffffffffffffffffffffffffffffff1673ffffffffffffffffffffffffffffffffffffffff1681526020019081526020015f206040518060e00160405290815f82015f9054906101000a900473ffffffffffffffffffffffffffffffffffffffff1673ffffffffffffffffffffffffffffffffffffffff1673ffffffffffffffffffffffffffffffffffffffff1681526020015f820160149054906101000a900460ff166003811115610c8057610c7f613c7a565b5b6003811115610c9257610c91613c7a565b5b8152602001600182015481526020016002820154815260200160038201548152602001600482015481526020016005820154815250509050805f015198508060200151975080604001519650806060015195508060c001518160800151610cf99190614587565b9450806080015192508060a00151935060025f8b73ffffffffffffffffffffffffffffffffffffffff1673ffffffffffffffffffffffffffffffffffffffff1681526020019081526020015f20805480602002602001604051908101604052809291908181526020015f905b82821015610dfd578382905f5260205f2090600302016040518060600160405290815f82015f9054906101000a900473ffffffffffffffffffffffffffffffffffffffff1673ffffffffffffffffffffffffffffffffffffffff1673ffffffffffffffffffffffffffffffffffffffff1681526020016001820154815260200160028201548152505081526020019060010190610d65565b50505050915050919395975091939597565b600a602052805f5260405f205f915054906101000a900460ff1681565b60075f9054906101000a900473ffffffffffffffffffffffffffffffffffffffff1681565b610e59612a9a565b5f5f90505b8151811015610e9757610e8a828281518110610e7d57610e7c6146bd565b5b6020026020010151612b21565b8080600101915050610e5e565b5050565b5f73ffffffffffffffffffffffffffffffffffffffff1660015f3373ffffffffffffffffffffffffffffffffffffffff1673ffffffffffffffffffffffffffffffffffffffff1681526020019081526020015f205f015f9054906101000a900473ffffffffffffffffffffffffffffffffffffffff1673ffffffffffffffffffffffffffffffffffffffff1603610f67576040517f08c379a0000000000000000000000000000000000000000000000000000000008152600401610f5e90614734565b60405180910390fd5b600a5f3373ffffffffffffffffffffffffffffffffffffffff1673ffffffffffffffffffffffffffffffffffffffff1681526020019081526020015f205f9054906101000a900460ff1615610ff1576040517f08c379a0000000000000000000000000000000000000000000000000000000008152600401610fe89061479c565b60405180910390fd5b6001600a5f3373ffffffffffffffffffffffffffffffffffffffff1673ffffffffffffffffffffffffffffffffffffffff1681526020019081526020015f205f6101000a81548160ff02191690831515021790555061106e7355d398326f99059ff775485246999027b31979553330670de0b6b3a7640000612d1e565b565b611078612a9a565b6110815f612e51565b565b600c5f9054906101000a900460ff16156110d2576040517f08c379a00000000000000000000000000000000000000000000000000000000081526004016110c990614804565b60405180910390fd5b3373ffffffffffffffffffffffffffffffffffffffff1660065f9054906101000a900473ffffffffffffffffffffffffffffffffffffffff1673ffffffffffffffffffffffffffffffffffffffff1603611161576040517f08c379a00000000000000000000000000000000000000000000000000000000081526004016111589061486c565b60405180910390fd5b5f73ffffffffffffffffffffffffffffffffffffffff168173ffffffffffffffffffffffffffffffffffffffff16036111cf576040517f08c379a00000000000000000000000000000000000000000000000000000000081526004016111c6906148d4565b60405180910390fd5b3373ffffffffffffffffffffffffffffffffffffffff168173ffffffffffffffffffffffffffffffffffffffff160361123d576040517f08c379a00000000000000000000000000000000000000000000000000000000081526004016112349061493c565b60405180910390fd5b60065f9054906101000a900473ffffffffffffffffffffffffffffffffffffffff1673ffffffffffffffffffffffffffffffffffffffff168173ffffffffffffffffffffffffffffffffffffffff161461131b57600a5f8273ffffffffffffffffffffffffffffffffffffffff1673ffffffffffffffffffffffffffffffffffffffff1681526020019081526020015f205f9054906101000a900460ff1661131a576040517f08c379a0000000000000000000000000000000000000000000000000000000008152600401611311906149a4565b60405180910390fd5b5b5f73ffffffffffffffffffffffffffffffffffffffff1660015f3373ffffffffffffffffffffffffffffffffffffffff1673ffffffffffffffffffffffffffffffffffffffff1681526020019081526020015f205f015f9054906101000a900473ffffffffffffffffffffffffffffffffffffffff1673ffffffffffffffffffffffffffffffffffffffff16146113e7576040517f08c379a00000000000000000000000000000000000000000000000000000000081526004016113de90614a0c565b60405180910390fd5b8060015f3373ffffffffffffffffffffffffffffffffffffffff1673ffffffffffffffffffffffffffffffffffffffff1681526020019081526020015f205f015f6101000a81548173ffffffffffffffffffffffffffffffffffffffff021916908373ffffffffffffffffffffffffffffffffffffffff16021790555060035f8273ffffffffffffffffffffffffffffffffffffffff1673ffffffffffffffffffffffffffffffffffffffff1681526020019081526020015f2033908060018154018082558091505060019003905f5260205f20015f9091909190916101000a81548173ffffffffffffffffffffffffffffffffffffffff021916908373ffffffffffffffffffffffffffffffffffffffff16021790555060095f3373ffffffffffffffffffffffffffffffffffffffff1673ffffffffffffffffffffffffffffffffffffffff1681526020019081526020015f205f9054906101000a900460ff1661160357600833908060018154018082558091505060019003905f5260205f20015f9091909190916101000a81548173ffffffffffffffffffffffffffffffffffffffff021916908373ffffffffffffffffffffffffffffffffffffffff160217905550600160095f3373ffffffffffffffffffffffffffffffffffffffff1673ffffffffffffffffffffffffffffffffffffffff1681526020019081526020015f205f6101000a81548160ff0219169083151502179055505b61160c33612f22565b7f9d05414fb79fac216c15606de5cc06664e91a254e4d5f57664d5f1beaf7fb7ef813360405161163d929190614a2a565b60405180910390a150565b3373ffffffffffffffffffffffffffffffffffffffff1660055f9054906101000a900473ffffffffffffffffffffffffffffffffffffffff1673ffffffffffffffffffffffffffffffffffffffff16146116d7576040517f08c379a00000000000000000000000000000000000000000000000000000000081526004016116ce9061469f565b60405180910390fd5b605a81111561171b576040517f08c379a000000000000000000000000000000000000000000000000000000000815260040161171290614a9b565b60405180910390fd5b8060015f8473ffffffffffffffffffffffffffffffffffffffff1673ffffffffffffffffffffffffffffffffffffffff1681526020019081526020015f20600401819055505050565b603281565b5f5f6117736130cd565b9050805f015f9054906101000a900473ffffffffffffffffffffffffffffffffffffffff1691505090565b6060600880548060200260200160405190810160405280929190818152602001828054801561181f57602002820191905f5260205f20905b815f9054906101000a900473ffffffffffffffffffffffffffffffffffffffff1673ffffffffffffffffffffffffffffffffffffffff16815260200190600101908083116117d6575b5050505050905090565b6040518060400160405280600581526020017f352e302e3000000000000000000000000000000000000000000000000000000081525081565b5f5f5f5f60015f8673ffffffffffffffffffffffffffffffffffffffff1673ffffffffffffffffffffffffffffffffffffffff1681526020019081526020015f206040518060e00160405290815f82015f9054906101000a900473ffffffffffffffffffffffffffffffffffffffff1673ffffffffffffffffffffffffffffffffffffffff1673ffffffffffffffffffffffffffffffffffffffff1681526020015f820160149054906101000a900460ff16600381111561192657611925613c7a565b5b600381111561193857611937613c7a565b5b8152602001600182015481526020016002820154815260200160038201548152602001600482015481526020016005820154815250509050805f015193508060200151925060045f8260200151600381111561199757611996613c7a565b5b60038111156119a9576119a8613c7a565b5b81526020019081526020015f20549150509193909250565b5f6119ca6130f4565b90505f815f0160089054906101000a900460ff161590505f825f015f9054906101000a900467ffffffffffffffff1690505f5f8267ffffffffffffffff16148015611a125750825b90505f60018367ffffffffffffffff16148015611a4557505f3073ffffffffffffffffffffffffffffffffffffffff163b145b905081158015611a53575080155b15611a8a576040517ff92ee8a900000000000000000000000000000000000000000000000000000000815260040160405180910390fd5b6001855f015f6101000a81548167ffffffffffffffff021916908367ffffffffffffffff1602179055508315611ad7576001855f0160086101000a81548160ff0219169083151502179055505b611ae7611ae2613107565b61310e565b8760055f6101000a81548173ffffffffffffffffffffffffffffffffffffffff021916908373ffffffffffffffffffffffffffffffffffffffff1602179055508660075f6101000a81548173ffffffffffffffffffffffffffffffffffffffff021916908373ffffffffffffffffffffffffffffffffffffffff1602179055508560065f6101000a81548173ffffffffffffffffffffffffffffffffffffffff021916908373ffffffffffffffffffffffffffffffffffffffff160217905550681b1ae4d6e2ef50000060045f60016003811115611bc857611bc7613c7a565b5b6003811115611bda57611bd9613c7a565b5b81526020019081526020015f2081905550686c6b935b8bbd40000060045f60026003811115611c0c57611c0b613c7a565b5b6003811115611c1e57611c1d613c7a565b5b81526020019081526020015f208190555069010f0cf064dd5920000060045f600380811115611c5057611c4f613c7a565b5b6003811115611c6257611c61613c7a565b5b81526020019081526020015f20819055508315611ccd575f855f0160086101000a81548160ff0219169083151502179055507fc7f505b2f371ae2175ee4913f4499e1f2633a7b5936321eed1cdaeb6115181d26001604051611cc49190614b0e565b60405180910390a15b5050505050505050565b7355d398326f99059ff775485246999027b319795581565b60605f60035f8473ffffffffffffffffffffffffffffffffffffffff1673ffffffffffffffffffffffffffffffffffffffff1681526020019081526020015f20805480602002602001604051908101604052809291908181526020018280548015611dac57602002820191905f5260205f20905b815f9054906101000a900473ffffffffffffffffffffffffffffffffffffffff1673ffffffffffffffffffffffffffffffffffffffff1681526020019060010190808311611d63575b505050505090505f815190508067ffffffffffffffff811115611dd257611dd1613df3565b5b604051908082528060200260200182016040528015611e0b57816020015b611df86139fa565b815260200190600190039081611df05790505b5092505f5f90505b81811015611efd575f838281518110611e2f57611e2e6146bd565b5b602002602001015190505f60015f8373ffffffffffffffffffffffffffffffffffffffff1673ffffffffffffffffffffffffffffffffffffffff1681526020019081526020015f20905060405180606001604052808373ffffffffffffffffffffffffffffffffffffffff168152602001825f0160149054906101000a900460ff166003811115611ec357611ec2613c7a565b5b81526020018260020154815250868481518110611ee357611ee26146bd565b5b602002602001018190525050508080600101915050611e13565b505050919050565b611f0d612a9a565b5f73ffffffffffffffffffffffffffffffffffffffff168173ffffffffffffffffffffffffffffffffffffffff1603611f7d575f6040517f1e4fbdf7000000000000000000000000000000000000000000000000000000008152600401611f749190613c0e565b60405180910390fd5b611f8681612e51565b50565b60055f9054906101000a900473ffffffffffffffffffffffffffffffffffffffff1681565b611fb6612687565b600c5f9054906101000a900460ff1615612005576040517f08c379a0000000000000000000000000000000000000000000000000000000008152600401611ffc90614804565b60405180910390fd5b5f60045f83600381111561201c5761201b613c7a565b5b600381111561202e5761202d613c7a565b5b81526020019081526020015f20541161207c576040517f08c379a000000000000000000000000000000000000000000000000000000000815260040161207390614b71565b60405180910390fd5b5f60015f3373ffffffffffffffffffffffffffffffffffffffff1673ffffffffffffffffffffffffffffffffffffffff1681526020019081526020015f2090505f60038111156120cf576120ce613c7a565b5b815f0160149054906101000a900460ff1660038111156120f2576120f1613c7a565b5b14612132576040517f08c379a000000000000000000000000000000000000000000000000000000000815260040161212990614bd9565b60405180910390fd5b5f73ffffffffffffffffffffffffffffffffffffffff16815f015f9054906101000a900473ffffffffffffffffffffffffffffffffffffffff1673ffffffffffffffffffffffffffffffffffffffff16036121c2576040517f08c379a00000000000000000000000000000000000000000000000000000000081526004016121b990614c67565b60405180910390fd5b6122177355d398326f99059ff775485246999027b3197955333060045f8760038111156121f2576121f1613c7a565b5b600381111561220457612203613c7a565b5b81526020019081526020015f2054612d1e565b5f6064605060045f86600381111561223257612231613c7a565b5b600381111561224457612243613c7a565b5b81526020019081526020015f205461225c9190614c85565b6122669190614cf3565b905061229b7355d398326f99059ff775485246999027b319795573fd5840cd36d94d7229439859c0112a4185bc02555f613122565b6122ce7355d398326f99059ff775485246999027b319795573fd5840cd36d94d7229439859c0112a4185bc025583613122565b5f73fd5840cd36d94d7229439859c0112a4185bc025573ffffffffffffffffffffffffffffffffffffffff1663a0712d68836040518263ffffffff1660e01b815260040161231c9190613c36565b6020604051808303815f875af1158015612338573d5f5f3e3d5ffd5b505050506040513d601f19601f8201168201806040525081019061235c9190614d37565b1461239c576040517f08c379a000000000000000000000000000000000000000000000000000000000815260040161239390614dac565b60405180910390fd5b5f73fd5840cd36d94d7229439859c0112a4185bc025573ffffffffffffffffffffffffffffffffffffffff166370a08231306040518263ffffffff1660e01b81526004016123ea9190613c0e565b602060405180830381865afa158015612405573d5f5f3e3d5ffd5b505050506040513d601f19601f820116820180604052508101906124299190614d37565b905061246b73fd5840cd36d94d7229439859c0112a4185bc025560075f9054906101000a900473ffffffffffffffffffffffffffffffffffffffff16836126cb565b83835f0160146101000a81548160ff0219169083600381111561249157612490613c7a565b5b021790555060045f8560038111156124ac576124ab613c7a565b5b60038111156124be576124bd613c7a565b5b81526020019081526020015f2054600b5f8282546124dc9190614622565b925050819055506001600a5f3373ffffffffffffffffffffffffffffffffffffffff1673ffffffffffffffffffffffffffffffffffffffff1681526020019081526020015f205f6101000a81548160ff0219169083151502179055505f73ffffffffffffffffffffffffffffffffffffffff1660015f3373ffffffffffffffffffffffffffffffffffffffff1673ffffffffffffffffffffffffffffffffffffffff1681526020019081526020015f205f015f9054906101000a900473ffffffffffffffffffffffffffffffffffffffff1673ffffffffffffffffffffffffffffffffffffffff1614612609576126083360045f8760038111156125e3576125e2613c7a565b5b60038111156125f5576125f4613c7a565b5b81526020019081526020015f2054613252565b5b7f8acf475137e0cd74ca7f611d16b1e6383ec9a9c71a8e5b85967781b9c7214d113360045f87600381111561264157612640613c7a565b5b600381111561265357612652613c7a565b5b81526020019081526020015f20548660405161267193929190614dca565b60405180910390a15050506126846127fb565b50565b60025f54036126c2576040517f3ee5aeb500000000000000000000000000000000000000000000000000000000815260040160405180910390fd5b60025f81905550565b5f5f8473ffffffffffffffffffffffffffffffffffffffff1663a9059cbb85856040516024016126fc929190614dff565b6040516020818303038152906040529060e01b6020820180517bffffffffffffffffffffffffffffffffffffffffffffffffffffffff838183161783525050505060405161274a9190614e6a565b5f604051808303815f865af19150503d805f8114612783576040519150601f19603f3d011682016040523d82523d5f602084013e612788565b606091505b50915091508180156127b557505f815114806127b45750808060200190518101906127b39190614eaa565b5b5b6127f4576040517f08c379a00000000000000000000000000000000000000000000000000000000081526004016127eb90614f1f565b60405180910390fd5b5050505050565b60015f81905550565b7f000000000000000000000000000000000000000000000000000000000000000073ffffffffffffffffffffffffffffffffffffffff163073ffffffffffffffffffffffffffffffffffffffff1614806128b157507f000000000000000000000000000000000000000000000000000000000000000073ffffffffffffffffffffffffffffffffffffffff166128986135e8565b73ffffffffffffffffffffffffffffffffffffffff1614155b156128e8576040517fe07c8dba00000000000000000000000000000000000000000000000000000000815260040160405180910390fd5b565b6128f2612a9a565b50565b8173ffffffffffffffffffffffffffffffffffffffff166352d1902d6040518163ffffffff1660e01b8152600401602060405180830381865afa92505050801561295d57506040513d601f19601f8201168201806040525081019061295a9190614f67565b60015b61299e57816040517f4c9c8ce30000000000000000000000000000000000000000000000000000000081526004016129959190613c0e565b60405180910390fd5b7f360894a13ba1a3210667c828492db98dca3e2076cc3735a920a3ca505d382bbc5f1b8114612a0457806040517faa1d49a40000000000000000000000000000000000000000000000000000000081526004016129fb9190613f89565b60405180910390fd5b612a0e838361363b565b505050565b7f000000000000000000000000000000000000000000000000000000000000000073ffffffffffffffffffffffffffffffffffffffff163073ffffffffffffffffffffffffffffffffffffffff1614612a98576040517fe07c8dba00000000000000000000000000000000000000000000000000000000815260040160405180910390fd5b565b612aa2613107565b73ffffffffffffffffffffffffffffffffffffffff16612ac0611769565b73ffffffffffffffffffffffffffffffffffffffff1614612b1f57612ae3613107565b6040517f118cdaa7000000000000000000000000000000000000000000000000000000008152600401612b169190613c0e565b60405180910390fd5b565b5f60015f8373ffffffffffffffffffffffffffffffffffffffff1673ffffffffffffffffffffffffffffffffffffffff1681526020019081526020015f205f015f9054906101000a900473ffffffffffffffffffffffffffffffffffffffff1690505f5f90505b5f73ffffffffffffffffffffffffffffffffffffffff168273ffffffffffffffffffffffffffffffffffffffff1614158015612bc45750603281105b15612d19578273ffffffffffffffffffffffffffffffffffffffff168273ffffffffffffffffffffffffffffffffffffffff160315612d19575f60015f8473ffffffffffffffffffffffffffffffffffffffff1673ffffffffffffffffffffffffffffffffffffffff1681526020019081526020015f2090505f81600301541115612ca4575f81600301819055505f816005018190555060025f8473ffffffffffffffffffffffffffffffffffffffff1673ffffffffffffffffffffffffffffffffffffffff1681526020019081526020015f205f612ca39190613a40565b5b60015f8473ffffffffffffffffffffffffffffffffffffffff1673ffffffffffffffffffffffffffffffffffffffff1681526020019081526020015f205f015f9054906101000a900473ffffffffffffffffffffffffffffffffffffffff1692508180612d1090614f92565b92505050612b88565b505050565b5f5f8573ffffffffffffffffffffffffffffffffffffffff166323b872dd868686604051602401612d5193929190614fd9565b6040516020818303038152906040529060e01b6020820180517bffffffffffffffffffffffffffffffffffffffffffffffffffffffff8381831617835250505050604051612d9f9190614e6a565b5f604051808303815f865af19150503d805f8114612dd8576040519150601f19603f3d011682016040523d82523d5f602084013e612ddd565b606091505b5091509150818015612e0a57505f81511480612e09575080806020019051810190612e089190614eaa565b5b5b612e49576040517f08c379a0000000000000000000000000000000000000000000000000000000008152600401612e409061507e565b60405180910390fd5b505050505050565b5f612e5a6130cd565b90505f815f015f9054906101000a900473ffffffffffffffffffffffffffffffffffffffff16905082825f015f6101000a81548173ffffffffffffffffffffffffffffffffffffffff021916908373ffffffffffffffffffffffffffffffffffffffff1602179055508273ffffffffffffffffffffffffffffffffffffffff168173ffffffffffffffffffffffffffffffffffffffff167f8be0079c531659141344cd1fd0a4f28419497f9722a3daafe3b4186f6b6457e060405160405180910390a3505050565b5f60015f8373ffffffffffffffffffffffffffffffffffffffff1673ffffffffffffffffffffffffffffffffffffffff1681526020019081526020015f205f015f9054906101000a900473ffffffffffffffffffffffffffffffffffffffff1690505f5f90505b5f73ffffffffffffffffffffffffffffffffffffffff168273ffffffffffffffffffffffffffffffffffffffff1614158015612fc55750603281105b156130c8578273ffffffffffffffffffffffffffffffffffffffff168273ffffffffffffffffffffffffffffffffffffffff1603156130c8576001805f8473ffffffffffffffffffffffffffffffffffffffff1673ffffffffffffffffffffffffffffffffffffffff1681526020019081526020015f206001015f82825461304d9190614622565b9250508190555060015f8373ffffffffffffffffffffffffffffffffffffffff1673ffffffffffffffffffffffffffffffffffffffff1681526020019081526020015f205f015f9054906101000a900473ffffffffffffffffffffffffffffffffffffffff16915080806130c090614f92565b915050612f89565b505050565b5f7f9016d09d72d40fdae2fd8ceac6b6234c7706214fd39c1cd1e609a0528c199300905090565b5f5f6130fe6136ad565b90508091505090565b5f33905090565b6131166136d6565b61311f81613716565b50565b5f5f8473ffffffffffffffffffffffffffffffffffffffff1663095ea7b38585604051602401613153929190614dff565b6040516020818303038152906040529060e01b6020820180517bffffffffffffffffffffffffffffffffffffffffffffffffffffffff83818316178352505050506040516131a19190614e6a565b5f604051808303815f865af19150503d805f81146131da576040519150601f19603f3d011682016040523d82523d5f602084013e6131df565b606091505b509150915081801561320c57505f8151148061320b57508080602001905181019061320a9190614eaa565b5b5b61324b576040517f08c379a0000000000000000000000000000000000000000000000000000000008152600401613242906150e6565b60405180910390fd5b5050505050565b5f60015f8473ffffffffffffffffffffffffffffffffffffffff1673ffffffffffffffffffffffffffffffffffffffff1681526020019081526020015f205f015f9054906101000a900473ffffffffffffffffffffffffffffffffffffffff1690505f5f90505f5f90505b5f73ffffffffffffffffffffffffffffffffffffffff168373ffffffffffffffffffffffffffffffffffffffff16141580156132f95750603282105b156135e1578473ffffffffffffffffffffffffffffffffffffffff168373ffffffffffffffffffffffffffffffffffffffff1603156135e1578360015f8573ffffffffffffffffffffffffffffffffffffffff1673ffffffffffffffffffffffffffffffffffffffff1681526020019081526020015f206002015f8282546133819190614622565b925050819055505f60015f8573ffffffffffffffffffffffffffffffffffffffff1673ffffffffffffffffffffffffffffffffffffffff1681526020019081526020015f206004015490508181111561356c575f82826133e19190614587565b90505f606482886133f29190614c85565b6133fc9190614cf3565b90505f81111561354b578060015f8873ffffffffffffffffffffffffffffffffffffffff1673ffffffffffffffffffffffffffffffffffffffff1681526020019081526020015f206003015f8282546134559190614622565b9250508190555060025f8773ffffffffffffffffffffffffffffffffffffffff1673ffffffffffffffffffffffffffffffffffffffff1681526020019081526020015f2060405180606001604052808a73ffffffffffffffffffffffffffffffffffffffff16815260200183815260200142815250908060018154018082558091505060019003905f5260205f2090600302015f909190919091505f820151815f015f6101000a81548173ffffffffffffffffffffffffffffffffffffffff021916908373ffffffffffffffffffffffffffffffffffffffff160217905550602082015181600101556040820151816002015550505b81846135579190614622565b935060648410613569575050506135e1565b50505b60015f8573ffffffffffffffffffffffffffffffffffffffff1673ffffffffffffffffffffffffffffffffffffffff1681526020019081526020015f205f015f9054906101000a900473ffffffffffffffffffffffffffffffffffffffff16935082806135d890614f92565b935050506132bd565b5050505050565b5f6136147f360894a13ba1a3210667c828492db98dca3e2076cc3735a920a3ca505d382bbc5f1b61379a565b5f015f9054906101000a900473ffffffffffffffffffffffffffffffffffffffff16905090565b613644826137a3565b8173ffffffffffffffffffffffffffffffffffffffff167fbc7cd75a20ee27fd9adebab32041f755214dbc6bffa90cc0225b39da2e5c2d3b60405160405180910390a25f815111156136a05761369a828261386c565b506136a9565b6136a861395d565b5b5050565b5f7ff0c57e16840df040f15088dc2f81fe391c3923bec73e23a9662efc9c229c6a005f1b905090565b6136de613999565b613714576040517fd7e6bcf800000000000000000000000000000000000000000000000000000000815260040160405180910390fd5b565b61371e6136d6565b5f73ffffffffffffffffffffffffffffffffffffffff168173ffffffffffffffffffffffffffffffffffffffff160361378e575f6040517f1e4fbdf70000000000000000000000000000000000000000000000000000000081526004016137859190613c0e565b60405180910390fd5b61379781612e51565b50565b5f819050919050565b5f8173ffffffffffffffffffffffffffffffffffffffff163b036137fe57806040517f4c9c8ce30000000000000000000000000000000000000000000000000000000081526004016137f59190613c0e565b60405180910390fd5b8061382a7f360894a13ba1a3210667c828492db98dca3e2076cc3735a920a3ca505d382bbc5f1b61379a565b5f015f6101000a81548173ffffffffffffffffffffffffffffffffffffffff021916908373ffffffffffffffffffffffffffffffffffffffff16021790555050565b60605f61387984846139b7565b90508080156138af57505f61388c6139cb565b11806138ae57505f8473ffffffffffffffffffffffffffffffffffffffff163b115b5b156138c4576138bc6139d2565b915050613957565b801561390757836040517f9996b3150000000000000000000000000000000000000000000000000000000081526004016138fe9190613c0e565b60405180910390fd5b5f6139106139cb565b11156139235761391e6139ef565b613955565b6040517fd6bda27500000000000000000000000000000000000000000000000000000000815260040160405180910390fd5b505b92915050565b5f341115613997576040517fb398979f00000000000000000000000000000000000000000000000000000000815260040160405180910390fd5b565b5f6139a26130f4565b5f0160089054906101000a900460ff16905090565b5f5f5f835160208501865af4905092915050565b5f3d905090565b606060405190503d81523d5f602083013e3d602001810160405290565b6040513d5f823e3d81fd5b60405180606001604052805f73ffffffffffffffffffffffffffffffffffffffff1681526020015f6003811115613a3457613a33613c7a565b5b81526020015f81525090565b5080545f8255600302905f5260205f2090810190613a5e9190613a61565b50565b5b80821115613aa7575f5f82015f6101000a81549073ffffffffffffffffffffffffffffffffffffffff0219169055600182015f9055600282015f905550600301613a62565b5090565b5f82825260208201905092915050565b7f4e4f5f4449524543545f53454e440000000000000000000000000000000000005f82015250565b5f613aef600e83613aab565b9150613afa82613abb565b602082019050919050565b5f6020820190508181035f830152613b1c81613ae3565b9050919050565b5f604051905090565b5f5ffd5b5f5ffd5b5f73ffffffffffffffffffffffffffffffffffffffff82169050919050565b5f613b5d82613b34565b9050919050565b613b6d81613b53565b8114613b77575f5ffd5b50565b5f81359050613b8881613b64565b92915050565b5f819050919050565b613ba081613b8e565b8114613baa575f5ffd5b50565b5f81359050613bbb81613b97565b92915050565b5f5f60408385031215613bd757613bd6613b2c565b5b5f613be485828601613b7a565b9250506020613bf585828601613bad565b9150509250929050565b613c0881613b53565b82525050565b5f602082019050613c215f830184613bff565b92915050565b613c3081613b8e565b82525050565b5f602082019050613c495f830184613c27565b92915050565b5f60208284031215613c6457613c63613b2c565b5b5f613c7184828501613b7a565b91505092915050565b7f4e487b71000000000000000000000000000000000000000000000000000000005f52602160045260245ffd5b60048110613cb857613cb7613c7a565b5b50565b5f819050613cc882613ca7565b919050565b5f613cd782613cbb565b9050919050565b613ce781613ccd565b82525050565b5f60e082019050613d005f83018a613bff565b613d0d6020830189613cde565b613d1a6040830188613c27565b613d276060830187613c27565b613d346080830186613c27565b613d4160a0830185613c27565b613d4e60c0830184613c27565b98975050505050505050565b60048110613d66575f5ffd5b50565b5f81359050613d7781613d5a565b92915050565b5f60208284031215613d9257613d91613b2c565b5b5f613d9f84828501613d69565b91505092915050565b5f8115159050919050565b613dbc81613da8565b82525050565b5f602082019050613dd55f830184613db3565b92915050565b5f5ffd5b5f5ffd5b5f601f19601f8301169050919050565b7f4e487b71000000000000000000000000000000000000000000000000000000005f52604160045260245ffd5b613e2982613de3565b810181811067ffffffffffffffff82111715613e4857613e47613df3565b5b80604052505050565b5f613e5a613b23565b9050613e668282613e20565b919050565b5f67ffffffffffffffff821115613e8557613e84613df3565b5b613e8e82613de3565b9050602081019050919050565b828183375f83830152505050565b5f613ebb613eb684613e6b565b613e51565b905082815260208101848484011115613ed757613ed6613ddf565b5b613ee2848285613e9b565b509392505050565b5f82601f830112613efe57613efd613ddb565b5b8135613f0e848260208601613ea9565b91505092915050565b5f5f60408385031215613f2d57613f2c613b2c565b5b5f613f3a85828601613b7a565b925050602083013567ffffffffffffffff811115613f5b57613f5a613b30565b5b613f6785828601613eea565b9150509250929050565b5f819050919050565b613f8381613f71565b82525050565b5f602082019050613f9c5f830184613f7a565b92915050565b5f5f5f60608486031215613fb957613fb8613b2c565b5b5f613fc686828701613b7a565b9350506020613fd786828701613bad565b9250506040613fe886828701613b7a565b9150509250925092565b5f81519050919050565b5f82825260208201905092915050565b5f819050602082019050919050565b61402481613b53565b82525050565b61403381613b8e565b82525050565b606082015f82015161404d5f85018261401b565b506020820151614060602085018261402a565b506040820151614073604085018261402a565b50505050565b5f6140848383614039565b60608301905092915050565b5f602082019050919050565b5f6140a682613ff2565b6140b08185613ffc565b93506140bb8361400c565b805f5b838110156140eb5781516140d28882614079565b97506140dd83614090565b9250506001810190506140be565b5085935050505092915050565b5f6101008201905061410c5f83018b613bff565b614119602083018a613cde565b6141266040830189613c27565b6141336060830188613c27565b6141406080830187613c27565b61414d60a0830186613c27565b61415a60c0830185613c27565b81810360e083015261416c818461409c565b90509998505050505050505050565b5f67ffffffffffffffff82111561419557614194613df3565b5b602082029050602081019050919050565b5f5ffd5b5f6141bc6141b78461417b565b613e51565b905080838252602082019050602084028301858111156141df576141de6141a6565b5b835b8181101561420857806141f48882613b7a565b8452602084019350506020810190506141e1565b5050509392505050565b5f82601f83011261422657614225613ddb565b5b81356142368482602086016141aa565b91505092915050565b5f6020828403121561425457614253613b2c565b5b5f82013567ffffffffffffffff81111561427157614270613b30565b5b61427d84828501614212565b91505092915050565b5f81519050919050565b5f82825260208201905092915050565b5f819050602082019050919050565b5f6142ba838361401b565b60208301905092915050565b5f602082019050919050565b5f6142dc82614286565b6142e68185614290565b93506142f1836142a0565b805f5b8381101561432157815161430888826142af565b9750614313836142c6565b9250506001810190506142f4565b5085935050505092915050565b5f6020820190508181035f83015261434681846142d2565b905092915050565b5f81519050919050565b8281835e5f83830152505050565b5f6143708261434e565b61437a8185613aab565b935061438a818560208601614358565b61439381613de3565b840191505092915050565b5f6020820190508181035f8301526143b68184614366565b905092915050565b5f6060820190506143d15f830186613bff565b6143de6020830185613cde565b6143eb6040830184613c27565b949350505050565b5f5f5f6060848603121561440a57614409613b2c565b5b5f61441786828701613b7a565b935050602061442886828701613b7a565b925050604061443986828701613b7a565b9150509250925092565b5f81519050919050565b5f82825260208201905092915050565b5f819050602082019050919050565b61447581613ccd565b82525050565b606082015f82015161448f5f85018261401b565b5060208201516144a2602085018261446c565b5060408201516144b5604085018261402a565b50505050565b5f6144c6838361447b565b60608301905092915050565b5f602082019050919050565b5f6144e882614443565b6144f2818561444d565b93506144fd8361445d565b805f5b8381101561452d57815161451488826144bb565b975061451f836144d2565b925050600181019050614500565b5085935050505092915050565b5f6020820190508181035f83015261455281846144de565b905092915050565b7f4e487b71000000000000000000000000000000000000000000000000000000005f52601160045260245ffd5b5f61459182613b8e565b915061459c83613b8e565b92508282039050818111156145b4576145b361455a565b5b92915050565b7f4e4f5f41574152440000000000000000000000000000000000000000000000005f82015250565b5f6145ee600883613aab565b91506145f9826145ba565b602082019050919050565b5f6020820190508181035f83015261461b816145e2565b9050919050565b5f61462c82613b8e565b915061463783613b8e565b925082820190508082111561464f5761464e61455a565b5b92915050565b7f4e6f74207065726d69742e0000000000000000000000000000000000000000005f82015250565b5f614689600b83613aab565b915061469482614655565b602082019050919050565b5f6020820190508181035f8301526146b68161467d565b9050919050565b7f4e487b71000000000000000000000000000000000000000000000000000000005f52603260045260245ffd5b7f4e6f74207065726d69742067656e65726174652e0000000000000000000000005f82015250565b5f61471e601483613aab565b9150614729826146ea565b602082019050919050565b5f6020820190508181035f83015261474b81614712565b9050919050565b7f414c52454144595f4558495354535f454c49474942494c4954592e00000000005f82015250565b5f614786601b83613aab565b915061479182614752565b602082019050919050565b5f6020820190508181035f8301526147b38161477a565b9050919050565b7f416c7265616479205061757365642e00000000000000000000000000000000005f82015250565b5f6147ee600f83613aab565b91506147f9826147ba565b602082019050919050565b5f6020820190508181035f83015261481b816147e2565b9050919050565b7f496e697469616c20636f64652063616e6e6f742072656769737465722e0000005f82015250565b5f614856601d83613aab565b915061486182614822565b602082019050919050565b5f6020820190508181035f8301526148838161484a565b9050919050565b7f5a45524f5f414444524553532e000000000000000000000000000000000000005f82015250565b5f6148be600d83613aab565b91506148c98261488a565b602082019050919050565b5f6020820190508181035f8301526148eb816148b2565b9050919050565b7f494e56414c49445f5245434f4d4d454e4445522e0000000000000000000000005f82015250565b5f614926601483613aab565b9150614931826148f2565b602082019050919050565b5f6020820190508181035f8301526149538161491a565b9050919050565b7f4e6f20656c69676962696c6974792e00000000000000000000000000000000005f82015250565b5f61498e600f83613aab565b91506149998261495a565b602082019050919050565b5f6020820190508181035f8301526149bb81614982565b9050919050565b7f494e56495445525f414c52454144595f4558495354532e0000000000000000005f82015250565b5f6149f6601783613aab565b9150614a01826149c2565b602082019050919050565b5f6020820190508181035f830152614a23816149ea565b9050919050565b5f604082019050614a3d5f830185613bff565b614a4a6020830184613bff565b9392505050565b7f4572726f7220726174696f2e00000000000000000000000000000000000000005f82015250565b5f614a85600c83613aab565b9150614a9082614a51565b602082019050919050565b5f6020820190508181035f830152614ab281614a79565b9050919050565b5f819050919050565b5f67ffffffffffffffff82169050919050565b5f819050919050565b5f614af8614af3614aee84614ab9565b614ad5565b614ac2565b9050919050565b614b0881614ade565b82525050565b5f602082019050614b215f830184614aff565b92915050565b7f4552524f525f4e4f44455f545950452e000000000000000000000000000000005f82015250565b5f614b5b601083613aab565b9150614b6682614b27565b602082019050919050565b5f6020820190508181035f830152614b8881614b4f565b9050919050565b7f414c52454144595f52454348415247452e0000000000000000000000000000005f82015250565b5f614bc3601183613aab565b9150614bce82614b8f565b602082019050919050565b5f6020820190508181035f830152614bf081614bb7565b9050919050565b7f5245434f4d4d454e444154494f4e5f49535f52455155495245445f52454348415f8201527f5247452e00000000000000000000000000000000000000000000000000000000602082015250565b5f614c51602483613aab565b9150614c5c82614bf7565b604082019050919050565b5f6020820190508181035f830152614c7e81614c45565b9050919050565b5f614c8f82613b8e565b9150614c9a83613b8e565b9250828202614ca881613b8e565b91508282048414831517614cbf57614cbe61455a565b5b5092915050565b7f4e487b71000000000000000000000000000000000000000000000000000000005f52601260045260245ffd5b5f614cfd82613b8e565b9150614d0883613b8e565b925082614d1857614d17614cc6565b5b828204905092915050565b5f81519050614d3181613b97565b92915050565b5f60208284031215614d4c57614d4b613b2c565b5b5f614d5984828501614d23565b91505092915050565b7f56454e55535f4d494e545f4641494c45440000000000000000000000000000005f82015250565b5f614d96601183613aab565b9150614da182614d62565b602082019050919050565b5f6020820190508181035f830152614dc381614d8a565b9050919050565b5f606082019050614ddd5f830186613bff565b614dea6020830185613c27565b614df76040830184613cde565b949350505050565b5f604082019050614e125f830185613bff565b614e1f6020830184613c27565b9392505050565b5f81519050919050565b5f81905092915050565b5f614e4482614e26565b614e4e8185614e30565b9350614e5e818560208601614358565b80840191505092915050565b5f614e758284614e3a565b915081905092915050565b614e8981613da8565b8114614e93575f5ffd5b50565b5f81519050614ea481614e80565b92915050565b5f60208284031215614ebf57614ebe613b2c565b5b5f614ecc84828501614e96565b91505092915050565b7f5472616e7366657248656c7065723a205452414e534645525f4641494c4544005f82015250565b5f614f09601f83613aab565b9150614f1482614ed5565b602082019050919050565b5f6020820190508181035f830152614f3681614efd565b9050919050565b614f4681613f71565b8114614f50575f5ffd5b50565b5f81519050614f6181614f3d565b92915050565b5f60208284031215614f7c57614f7b613b2c565b5b5f614f8984828501614f53565b91505092915050565b5f614f9c82613b8e565b91507fffffffffffffffffffffffffffffffffffffffffffffffffffffffffffffffff8203614fce57614fcd61455a565b5b600182019050919050565b5f606082019050614fec5f830186613bff565b614ff96020830185613bff565b6150066040830184613c27565b949350505050565b7f5472616e7366657248656c7065723a205452414e534645525f46524f4d5f46415f8201527f494c454400000000000000000000000000000000000000000000000000000000602082015250565b5f615068602483613aab565b91506150738261500e565b604082019050919050565b5f6020820190508181035f8301526150958161505c565b9050919050565b7f5472616e7366657248656c7065723a20415050524f56455f4641494c454400005f82015250565b5f6150d0601e83613aab565b91506150db8261509c565b602082019050919050565b5f6020820190508181035f8301526150fd816150c4565b905091905056fea2646970667358221220acc99c291e9e9665e8ae8e92cfa8e75dac018bf4eb78058160c22beec5de9e6b64736f6c634300081e0033","linkReferences":{}},"methodIdentifiers":{"MAX_REFERRAL_DEPTH()":"89e59ea0","UPGRADE_INTERFACE_VERSION()":"ad3cb1cc","USDT()":"c54e44eb","VENUS()":"1a78ccc1","admin()":"f851a440","batchImport(address[])":"680caf2a","claim()":"4e71d92d","directReferrals(address,uint256)":"05ad3935","eligibility(address)":"63c36dec","emergencyWithdraw(address,uint256,address)":"551512de","generateCode()":"6e8dbfd0","getAddrCollection()":"a2b0332b","getAddrCollectionLength()":"4d38857c","getDirectReferralInfo(address)":"dcdcd08c","getMigrateInfo(address)":"b3a48366","getUserInfo(address)":"6386c1c7","initialCode()":"10baf089","initialize(address,address,address)":"c0c53b8b","isAddCollection(address)":"39fe3b99","nodePrice(uint8)":"1f7bcc4b","owner()":"8da5cb5b","proxiableUUID()":"52d1902d","recipient()":"66d003ac","referral(address)":"7247959a","renounceOwnership()":"715018a6","setAwardRatio(address,uint256)":"77e06a9e","singleRecharge(uint8)":"fb7b09c5","totalPerformance()":"06876dbe","transferOwnership(address)":"f2fde38b","upgradeToAndCall(address,bytes)":"4f1ef286","userInfo(address)":"1959a002","validInvitationCode(address)":"3c4e9d74"},"id":33}