{"abi":[{"type":"receive","stateMutability":"payable"},{"type":"function","name":"MAX_REFERRAL_DEPTH","inputs":[],"outputs":[{"name":"","type":"uint256","internalType":"uint256"}],"stateMutability":"view"},{"type":"function","name":"UPGRADE_INTERFACE_VERSION","inputs":[],"outputs":[{"name":"","type":"string","internalType":"string"}],"stateMutability":"view"},{"type":"function","name":"USDT","inputs":[],"outputs":[{"name":"","type":"address","internalType":"address"}],"stateMutability":"view"},{"type":"function","name":"VENUS","inputs":[],"outputs":[{"name":"","type":"address","internalType":"address"}],"stateMutability":"view"},{"type":"function","name":"admin","inputs":[],"outputs":[{"name":"","type":"address","internalType":"address"}],"stateMutability":"view"},{"type":"function","name":"claim","inputs":[],"outputs":[],"stateMutability":"nonpayable"},{"type":"function","name":"directReferrals","inputs":[{"name":"","type":"address","internalType":"address"},{"name":"","type":"uint256","internalType":"uint256"}],"outputs":[{"name":"","type":"address","internalType":"address"}],"stateMutability":"view"},{"type":"function","name":"eligibility","inputs":[{"name":"","type":"address","internalType":"address"}],"outputs":[{"name":"","type":"bool","internalType":"bool"}],"stateMutability":"view"},{"type":"function","name":"emergencyWithdraw","inputs":[{"name":"token","type":"address","internalType":"address"},{"name":"amount","type":"uint256","internalType":"uint256"},{"name":"to","type":"address","internalType":"address"}],"outputs":[],"stateMutability":"nonpayable"},{"type":"function","name":"generateCode","inputs":[],"outputs":[],"stateMutability":"nonpayable"},{"type":"function","name":"getAddrCollection","inputs":[],"outputs":[{"name":"","type":"address[]","internalType":"address[]"}],"stateMutability":"view"},{"type":"function","name":"getAddrCollectionLength","inputs":[],"outputs":[{"name":"","type":"uint256","internalType":"uint256"}],"stateMutability":"view"},{"type":"function","name":"getDirectReferralInfo","inputs":[{"name":"user","type":"address","internalType":"address"}],"outputs":[{"name":"infos","type":"tuple[]","internalType":"struct Enum.DirectInfo[]","components":[{"name":"user","type":"address","internalType":"address"},{"name":"nodeType","type":"uint8","internalType":"enum Enum.NodeType"},{"name":"performance","type":"uint256","internalType":"uint256"}]}],"stateMutability":"view"},{"type":"function","name":"getMigrateInfo","inputs":[{"name":"user","type":"address","internalType":"address"}],"outputs":[{"name":"recommender","type":"address","internalType":"address"},{"name":"nodeType","type":"uint8","internalType":"enum Enum.NodeType"},{"name":"amount","type":"uint256","internalType":"uint256"}],"stateMutability":"view"},{"type":"function","name":"getUserInfo","inputs":[{"name":"user","type":"address","internalType":"address"}],"outputs":[{"name":"recommender","type":"address","internalType":"address"},{"name":"nodeType","type":"uint8","internalType":"enum Enum.NodeType"},{"name":"referralNum","type":"uint256","internalType":"uint256"},{"name":"performance","type":"uint256","internalType":"uint256"},{"name":"award","type":"uint256","internalType":"uint256"},{"name":"awardRatio","type":"uint256","internalType":"uint256"},{"name":"totalAward","type":"uint256","internalType":"uint256"},{"name":"recordAwards","type":"tuple[]","internalType":"struct Enum.RecordAward[]","components":[{"name":"user","type":"address","internalType":"address"},{"name":"amount","type":"uint256","internalType":"uint256"},{"name":"time","type":"uint256","internalType":"uint256"}]}],"stateMutability":"view"},{"type":"function","name":"initialCode","inputs":[],"outputs":[{"name":"","type":"address","internalType":"address"}],"stateMutability":"view"},{"type":"function","name":"initialize","inputs":[{"name":"_admin","type":"address","internalType":"address"},{"name":"_recipient","type":"address","internalType":"address"},{"name":"_initialCode","type":"address","internalType":"address"}],"outputs":[],"stateMutability":"nonpayable"},{"type":"function","name":"isAddCollection","inputs":[{"name":"","type":"address","internalType":"address"}],"outputs":[{"name":"","type":"bool","internalType":"bool"}],"stateMutability":"view"},{"type":"function","name":"nodePrice","inputs":[{"name":"","type":"uint8","internalType":"enum Enum.NodeType"}],"outputs":[{"name":"","type":"uint256","internalType":"uint256"}],"stateMutability":"view"},{"type":"function","name":"owner","inputs":[],"outputs":[{"name":"","type":"address","internalType":"address"}],"stateMutability":"view"},{"type":"function","name":"proxiableUUID","inputs":[],"outputs":[{"name":"","type":"bytes32","internalType":"bytes32"}],"stateMutability":"view"},{"type":"function","name":"recipient","inputs":[],"outputs":[{"name":"","type":"address","internalType":"address"}],"stateMutability":"view"},{"type":"function","name":"referral","inputs":[{"name":"recommender","type":"address","internalType":"address"}],"outputs":[],"stateMutability":"nonpayable"},{"type":"function","name":"renounceOwnership","inputs":[],"outputs":[],"stateMutability":"nonpayable"},{"type":"function","name":"setAwardRatio","inputs":[{"name":"user","type":"address","internalType":"address"},{"name":"_ratio","type":"uint256","internalType":"uint256"}],"outputs":[],"stateMutability":"nonpayable"},{"type":"function","name":"singleRecharge","inputs":[{"name":"nodeType","type":"uint8","internalType":"enum Enum.NodeType"}],"outputs":[],"stateMutability":"nonpayable"},{"type":"function","name":"totalPerformance","inputs":[],"outputs":[{"name":"","type":"uint256","internalType":"uint256"}],"stateMutability":"view"},{"type":"function","name":"transferOwnership","inputs":[{"name":"newOwner","type":"address","internalType":"address"}],"outputs":[],"stateMutability":"nonpayable"},{"type":"function","name":"upgradeToAndCall","inputs":[{"name":"newImplementation","type":"address","internalType":"address"},{"name":"data","type":"bytes","internalType":"bytes"}],"outputs":[],"stateMutability":"payable"},{"type":"function","name":"userInfo","inputs":[{"name":"","type":"address","internalType":"address"}],"outputs":[{"name":"recommender","type":"address","internalType":"address"},{"name":"nodeType","type":"uint8","internalType":"enum Enum.NodeType"},{"name":"referralNum","type":"uint256","internalType":"uint256"},{"name":"performance","type":"uint256","internalType":"uint256"},{"name":"award","type":"uint256","internalType":"uint256"},{"name":"awardRatio","type":"uint256","internalType":"uint256"},{"name":"extracted","type":"uint256","internalType":"uint256"}],"stateMutability":"view"},{"type":"function","name":"validInvitationCode","inputs":[{"name":"user","type":"address","internalType":"address"}],"outputs":[{"name":"","type":"bool","internalType":"bool"}],"stateMutability":"view"},{"type":"event","name":"Initialized","inputs":[{"name":"version","type":"uint64","indexed":false,"internalType":"uint64"}],"anonymous":false},{"type":"event","name":"OwnershipTransferred","inputs":[{"name":"previousOwner","type":"address","indexed":true,"internalType":"address"},{"name":"newOwner","type":"address","indexed":true,"internalType":"address"}],"anonymous":false},{"type":"event","name":"Referral","inputs":[{"name":"recommender","type":"address","indexed":false,"internalType":"address"},{"name":"referred","type":"address","indexed":false,"internalType":"address"}],"anonymous":false},{"type":"event","name":"Staked","inputs":[{"name":"user","type":"address","indexed":false,"internalType":"address"},{"name":"amount","type":"uint256","indexed":false,"internalType":"uint256"},{"name":"nodeType","type":"uint8","indexed":false,"internalType":"enum Enum.NodeType"}],"anonymous":false},{"type":"event","name":"Upgraded","inputs":[{"name":"implementation","type":"address","indexed":true,"internalType":"address"}],"anonymous":false},{"type":"error","name":"AddressEmptyCode","inputs":[{"name":"target","type":"address","internalType":"address"}]},{"type":"error","name":"ERC1967InvalidImplementation","inputs":[{"name":"implementation","type":"address","internalType":"address"}]},{"type":"error","name":"ERC1967NonPayable","inputs":[]},{"type":"error","name":"FailedCall","inputs":[]},{"type":"error","name":"InvalidInitialization","inputs":[]},{"type":"error","name":"NotInitializing","inputs":[]},{"type":"error","name":"OwnableInvalidOwner","inputs":[{"name":"owner","type":"address","internalType":"address"}]},{"type":"error","name":"OwnableUnauthorizedAccount","inputs":[{"name":"account","type":"address","internalType":"address"}]},{"type":"error","name":"ReentrancyGuardReentrantCall","inputs":[]},{"type":"error","name":"UUPSUnauthorizedCallContext","inputs":[]},{"type":"error","name":"UUPSUnsupportedProxiableUUID","inputs":[{"name":"slot","type":"bytes32","internalType":"bytes32"}]}],"bytecode":{"object":"0x60a06040523073ffffffffffffffffffffffffffffffffffffffff1660809073ffffffffffffffffffffffffffffffffffffffff168152503480156041575f5ffd5b5060015f81905550608051614d4a61006f5f395f8181612789015281816127de01526129980152614d4a5ff3fe6080604052600436106101db575f3560e01c806366d003ac11610101578063ad3cb1cc11610094578063dcdcd08c11610063578063dcdcd08c146106da578063f2fde38b14610716578063f851a4401461073e578063fb7b09c5146107685761021b565b8063ad3cb1cc14610620578063b3a483661461064a578063c0c53b8b14610688578063c54e44eb146106b05761021b565b806377e06a9e116100d057806377e06a9e1461057a57806389e59ea0146105a25780638da5cb5b146105cc578063a2b0332b146105f65761021b565b806366d003ac146104fc5780636e8dbfd014610526578063715018a61461053c5780637247959a146105525761021b565b80633c4e9d741161017957806352d1902d1161014857806352d1902d1461042b578063551512de146104555780636386c1c71461047d57806363c36dec146104c05761021b565b80633c4e9d74146103935780634d38857c146103cf5780634e71d92d146103f95780634f1ef2861461040f5761021b565b80631959a002116101b55780631959a002146102af5780631a78ccc1146102f15780631f7bcc4b1461031b57806339fe3b99146103575761021b565b806305ad39351461021f57806306876dbe1461025b57806310baf089146102855761021b565b3661021b576040517f08c379a000000000000000000000000000000000000000000000000000000000815260040161021290613820565b60405180910390fd5b5f5ffd5b34801561022a575f5ffd5b50610245600480360381019061024091906138dc565b610790565b6040516102529190613929565b60405180910390f35b348015610266575f5ffd5b5061026f6107d8565b60405161027c9190613951565b60405180910390f35b348015610290575f5ffd5b506102996107de565b6040516102a69190613929565b60405180910390f35b3480156102ba575f5ffd5b506102d560048036038101906102d0919061396a565b610803565b6040516102e89796959493929190613a08565b60405180910390f35b3480156102fc575f5ffd5b5061030561086c565b6040516103129190613929565b60405180910390f35b348015610326575f5ffd5b50610341600480360381019061033c9190613a98565b610884565b60405161034e9190613951565b60405180910390f35b348015610362575f5ffd5b5061037d6004803603810190610378919061396a565b610899565b60405161038a9190613add565b60405180910390f35b34801561039e575f5ffd5b506103b960048036038101906103b4919061396a565b6108b6565b6040516103c69190613add565b60405180910390f35b3480156103da575f5ffd5b506103e3610966565b6040516103f09190613951565b60405180910390f35b348015610404575f5ffd5b5061040d610972565b005b61042960048036038101906104249190613c32565b610a94565b005b348015610436575f5ffd5b5061043f610ab3565b60405161044c9190613ca4565b60405180910390f35b348015610460575f5ffd5b5061047b60048036038101906104769190613cbd565b610ae4565b005b348015610488575f5ffd5b506104a3600480360381019061049e919061396a565b610b83565b6040516104b7989796959493929190613e13565b60405180910390f35b3480156104cb575f5ffd5b506104e660048036038101906104e1919061396a565b610ddc565b6040516104f39190613add565b60405180910390f35b348015610507575f5ffd5b50610510610df9565b60405161051d9190613929565b60405180910390f35b348015610531575f5ffd5b5061053a610e1e565b005b348015610547575f5ffd5b50610550610ff3565b005b34801561055d575f5ffd5b506105786004803603810190610573919061396a565b611006565b005b348015610585575f5ffd5b506105a0600480360381019061059b91906138dc565b6115cb565b005b3480156105ad575f5ffd5b506105b66116e7565b6040516105c39190613951565b60405180910390f35b3480156105d7575f5ffd5b506105e06116ec565b6040516105ed9190613929565b60405180910390f35b348015610601575f5ffd5b5061060a611721565b6040516106179190613f3e565b60405180910390f35b34801561062b575f5ffd5b506106346117ac565b6040516106419190613fae565b60405180910390f35b348015610655575f5ffd5b50610670600480360381019061066b919061396a565b6117e5565b60405161067f93929190613fce565b60405180910390f35b348015610693575f5ffd5b506106ae60048036038101906106a99190614003565b611944565b005b3480156106bb575f5ffd5b506106c4611c5a565b6040516106d19190613929565b60405180910390f35b3480156106e5575f5ffd5b5061070060048036038101906106fb919061396a565b611c72565b60405161070d919061414a565b60405180910390f35b348015610721575f5ffd5b5061073c6004803603810190610737919061396a565b611e88565b005b348015610749575f5ffd5b50610752611f0c565b60405161075f9190613929565b60405180910390f35b348015610773575f5ffd5b5061078e60048036038101906107899190613a98565b611f31565b005b6003602052815f5260405f2081815481106107a9575f80fd5b905f5260205f20015f915091509054906101000a900473ffffffffffffffffffffffffffffffffffffffff1681565b600b5481565b60065f9054906101000a900473ffffffffffffffffffffffffffffffffffffffff1681565b6001602052805f5260405f205f91509050805f015f9054906101000a900473ffffffffffffffffffffffffffffffffffffffff1690805f0160149054906101000a900460ff16908060010154908060020154908060030154908060040154908060050154905087565b73fd5840cd36d94d7229439859c0112a4185bc025581565b6004602052805f5260405f205f915090505481565b6009602052805f5260405f205f915054906101000a900460ff1681565b5f60065f9054906101000a900473ffffffffffffffffffffffffffffffffffffffff1673ffffffffffffffffffffffffffffffffffffffff168273ffffffffffffffffffffffffffffffffffffffff16036109145760019050610961565b600a5f8373ffffffffffffffffffffffffffffffffffffffff1673ffffffffffffffffffffffffffffffffffffffff1681526020019081526020015f205f9054906101000a900460ff1690505b919050565b5f600880549050905090565b61097a61260a565b5f60015f3373ffffffffffffffffffffffffffffffffffffffff1673ffffffffffffffffffffffffffffffffffffffff1681526020019081526020015f2090505f816005015482600301546109cf9190614197565b90505f8111610a13576040517f08c379a0000000000000000000000000000000000000000000000000000000008152600401610a0a90614214565b60405180910390fd5b8060015f3373ffffffffffffffffffffffffffffffffffffffff1673ffffffffffffffffffffffffffffffffffffffff1681526020019081526020015f206005015f828254610a629190614232565b92505081905550610a887355d398326f99059ff775485246999027b3197955338361264e565b5050610a9261277e565b565b610a9c612787565b610aa58261286d565b610aaf8282612878565b5050565b5f610abc612996565b7f360894a13ba1a3210667c828492db98dca3e2076cc3735a920a3ca505d382bbc5f1b905090565b3373ffffffffffffffffffffffffffffffffffffffff1660055f9054906101000a900473ffffffffffffffffffffffffffffffffffffffff1673ffffffffffffffffffffffffffffffffffffffff1614610b73576040517f08c379a0000000000000000000000000000000000000000000000000000000008152600401610b6a906142af565b60405180910390fd5b610b7e83828461264e565b505050565b5f5f5f5f5f5f5f60605f60015f8b73ffffffffffffffffffffffffffffffffffffffff1673ffffffffffffffffffffffffffffffffffffffff1681526020019081526020015f206040518060e00160405290815f82015f9054906101000a900473ffffffffffffffffffffffffffffffffffffffff1673ffffffffffffffffffffffffffffffffffffffff1673ffffffffffffffffffffffffffffffffffffffff1681526020015f820160149054906101000a900460ff166003811115610c4d57610c4c613995565b5b6003811115610c5f57610c5e613995565b5b8152602001600182015481526020016002820154815260200160038201548152602001600482015481526020016005820154815250509050805f015198508060200151975080604001519650806060015195508060c001518160800151610cc69190614197565b9450806080015192508060a00151935060025f8b73ffffffffffffffffffffffffffffffffffffffff1673ffffffffffffffffffffffffffffffffffffffff1681526020019081526020015f20805480602002602001604051908101604052809291908181526020015f905b82821015610dca578382905f5260205f2090600302016040518060600160405290815f82015f9054906101000a900473ffffffffffffffffffffffffffffffffffffffff1673ffffffffffffffffffffffffffffffffffffffff1673ffffffffffffffffffffffffffffffffffffffff1681526020016001820154815260200160028201548152505081526020019060010190610d32565b50505050915050919395975091939597565b600a602052805f5260405f205f915054906101000a900460ff1681565b60075f9054906101000a900473ffffffffffffffffffffffffffffffffffffffff1681565b5f73ffffffffffffffffffffffffffffffffffffffff1660015f3373ffffffffffffffffffffffffffffffffffffffff1673ffffffffffffffffffffffffffffffffffffffff1681526020019081526020015f205f015f9054906101000a900473ffffffffffffffffffffffffffffffffffffffff1673ffffffffffffffffffffffffffffffffffffffff1603610eea576040517f08c379a0000000000000000000000000000000000000000000000000000000008152600401610ee190614317565b60405180910390fd5b600a5f3373ffffffffffffffffffffffffffffffffffffffff1673ffffffffffffffffffffffffffffffffffffffff1681526020019081526020015f205f9054906101000a900460ff1615610f74576040517f08c379a0000000000000000000000000000000000000000000000000000000008152600401610f6b9061437f565b60405180910390fd5b6001600a5f3373ffffffffffffffffffffffffffffffffffffffff1673ffffffffffffffffffffffffffffffffffffffff1681526020019081526020015f205f6101000a81548160ff021916908315150217905550610ff17355d398326f99059ff775485246999027b31979553330670de0b6b3a7640000612a1d565b565b610ffb612b50565b6110045f612bd7565b565b600c5f9054906101000a900460ff1615611055576040517f08c379a000000000000000000000000000000000000000000000000000000000815260040161104c906143e7565b60405180910390fd5b3373ffffffffffffffffffffffffffffffffffffffff1660065f9054906101000a900473ffffffffffffffffffffffffffffffffffffffff1673ffffffffffffffffffffffffffffffffffffffff16036110e4576040517f08c379a00000000000000000000000000000000000000000000000000000000081526004016110db9061444f565b60405180910390fd5b5f73ffffffffffffffffffffffffffffffffffffffff168173ffffffffffffffffffffffffffffffffffffffff1603611152576040517f08c379a0000000000000000000000000000000000000000000000000000000008152600401611149906144b7565b60405180910390fd5b3373ffffffffffffffffffffffffffffffffffffffff168173ffffffffffffffffffffffffffffffffffffffff16036111c0576040517f08c379a00000000000000000000000000000000000000000000000000000000081526004016111b79061451f565b60405180910390fd5b60065f9054906101000a900473ffffffffffffffffffffffffffffffffffffffff1673ffffffffffffffffffffffffffffffffffffffff168173ffffffffffffffffffffffffffffffffffffffff161461129e57600a5f8273ffffffffffffffffffffffffffffffffffffffff1673ffffffffffffffffffffffffffffffffffffffff1681526020019081526020015f205f9054906101000a900460ff1661129d576040517f08c379a000000000000000000000000000000000000000000000000000000000815260040161129490614587565b60405180910390fd5b5b5f73ffffffffffffffffffffffffffffffffffffffff1660015f3373ffffffffffffffffffffffffffffffffffffffff1673ffffffffffffffffffffffffffffffffffffffff1681526020019081526020015f205f015f9054906101000a900473ffffffffffffffffffffffffffffffffffffffff1673ffffffffffffffffffffffffffffffffffffffff161461136a576040517f08c379a0000000000000000000000000000000000000000000000000000000008152600401611361906145ef565b60405180910390fd5b8060015f3373ffffffffffffffffffffffffffffffffffffffff1673ffffffffffffffffffffffffffffffffffffffff1681526020019081526020015f205f015f6101000a81548173ffffffffffffffffffffffffffffffffffffffff021916908373ffffffffffffffffffffffffffffffffffffffff16021790555060035f8273ffffffffffffffffffffffffffffffffffffffff1673ffffffffffffffffffffffffffffffffffffffff1681526020019081526020015f2033908060018154018082558091505060019003905f5260205f20015f9091909190916101000a81548173ffffffffffffffffffffffffffffffffffffffff021916908373ffffffffffffffffffffffffffffffffffffffff16021790555060095f3373ffffffffffffffffffffffffffffffffffffffff1673ffffffffffffffffffffffffffffffffffffffff1681526020019081526020015f205f9054906101000a900460ff1661158657600833908060018154018082558091505060019003905f5260205f20015f9091909190916101000a81548173ffffffffffffffffffffffffffffffffffffffff021916908373ffffffffffffffffffffffffffffffffffffffff160217905550600160095f3373ffffffffffffffffffffffffffffffffffffffff1673ffffffffffffffffffffffffffffffffffffffff1681526020019081526020015f205f6101000a81548160ff0219169083151502179055505b61158f33612ca8565b7f9d05414fb79fac216c15606de5cc06664e91a254e4d5f57664d5f1beaf7fb7ef81336040516115c092919061460d565b60405180910390a150565b3373ffffffffffffffffffffffffffffffffffffffff1660055f9054906101000a900473ffffffffffffffffffffffffffffffffffffffff1673ffffffffffffffffffffffffffffffffffffffff161461165a576040517f08c379a0000000000000000000000000000000000000000000000000000000008152600401611651906142af565b60405180910390fd5b605a81111561169e576040517f08c379a00000000000000000000000000000000000000000000000000000000081526004016116959061467e565b60405180910390fd5b8060015f8473ffffffffffffffffffffffffffffffffffffffff1673ffffffffffffffffffffffffffffffffffffffff1681526020019081526020015f20600401819055505050565b603281565b5f5f6116f6612e53565b9050805f015f9054906101000a900473ffffffffffffffffffffffffffffffffffffffff1691505090565b606060088054806020026020016040519081016040528092919081815260200182805480156117a257602002820191905f5260205f20905b815f9054906101000a900473ffffffffffffffffffffffffffffffffffffffff1673ffffffffffffffffffffffffffffffffffffffff1681526020019060010190808311611759575b5050505050905090565b6040518060400160405280600581526020017f352e302e3000000000000000000000000000000000000000000000000000000081525081565b5f5f5f5f60015f8673ffffffffffffffffffffffffffffffffffffffff1673ffffffffffffffffffffffffffffffffffffffff1681526020019081526020015f206040518060e00160405290815f82015f9054906101000a900473ffffffffffffffffffffffffffffffffffffffff1673ffffffffffffffffffffffffffffffffffffffff1673ffffffffffffffffffffffffffffffffffffffff1681526020015f820160149054906101000a900460ff1660038111156118a9576118a8613995565b5b60038111156118bb576118ba613995565b5b8152602001600182015481526020016002820154815260200160038201548152602001600482015481526020016005820154815250509050805f015193508060200151925060045f8260200151600381111561191a57611919613995565b5b600381111561192c5761192b613995565b5b81526020019081526020015f20549150509193909250565b5f61194d612e7a565b90505f815f0160089054906101000a900460ff161590505f825f015f9054906101000a900467ffffffffffffffff1690505f5f8267ffffffffffffffff161480156119955750825b90505f60018367ffffffffffffffff161480156119c857505f3073ffffffffffffffffffffffffffffffffffffffff163b145b9050811580156119d6575080155b15611a0d576040517ff92ee8a900000000000000000000000000000000000000000000000000000000815260040160405180910390fd5b6001855f015f6101000a81548167ffffffffffffffff021916908367ffffffffffffffff1602179055508315611a5a576001855f0160086101000a81548160ff0219169083151502179055505b611a6a611a65612e8d565b612e94565b8760055f6101000a81548173ffffffffffffffffffffffffffffffffffffffff021916908373ffffffffffffffffffffffffffffffffffffffff1602179055508660075f6101000a81548173ffffffffffffffffffffffffffffffffffffffff021916908373ffffffffffffffffffffffffffffffffffffffff1602179055508560065f6101000a81548173ffffffffffffffffffffffffffffffffffffffff021916908373ffffffffffffffffffffffffffffffffffffffff160217905550681b1ae4d6e2ef50000060045f60016003811115611b4b57611b4a613995565b5b6003811115611b5d57611b5c613995565b5b81526020019081526020015f2081905550686c6b935b8bbd40000060045f60026003811115611b8f57611b8e613995565b5b6003811115611ba157611ba0613995565b5b81526020019081526020015f208190555069010f0cf064dd5920000060045f600380811115611bd357611bd2613995565b5b6003811115611be557611be4613995565b5b81526020019081526020015f20819055508315611c50575f855f0160086101000a81548160ff0219169083151502179055507fc7f505b2f371ae2175ee4913f4499e1f2633a7b5936321eed1cdaeb6115181d26001604051611c4791906146f1565b60405180910390a15b5050505050505050565b7355d398326f99059ff775485246999027b319795581565b60605f60035f8473ffffffffffffffffffffffffffffffffffffffff1673ffffffffffffffffffffffffffffffffffffffff1681526020019081526020015f20805480602002602001604051908101604052809291908181526020018280548015611d2f57602002820191905f5260205f20905b815f9054906101000a900473ffffffffffffffffffffffffffffffffffffffff1673ffffffffffffffffffffffffffffffffffffffff1681526020019060010190808311611ce6575b505050505090505f815190508067ffffffffffffffff811115611d5557611d54613b0e565b5b604051908082528060200260200182016040528015611d8e57816020015b611d7b613780565b815260200190600190039081611d735790505b5092505f5f90505b81811015611e80575f838281518110611db257611db161470a565b5b602002602001015190505f60015f8373ffffffffffffffffffffffffffffffffffffffff1673ffffffffffffffffffffffffffffffffffffffff1681526020019081526020015f20905060405180606001604052808373ffffffffffffffffffffffffffffffffffffffff168152602001825f0160149054906101000a900460ff166003811115611e4657611e45613995565b5b81526020018260020154815250868481518110611e6657611e6561470a565b5b602002602001018190525050508080600101915050611d96565b505050919050565b611e90612b50565b5f73ffffffffffffffffffffffffffffffffffffffff168173ffffffffffffffffffffffffffffffffffffffff1603611f00575f6040517f1e4fbdf7000000000000000000000000000000000000000000000000000000008152600401611ef79190613929565b60405180910390fd5b611f0981612bd7565b50565b60055f9054906101000a900473ffffffffffffffffffffffffffffffffffffffff1681565b611f3961260a565b600c5f9054906101000a900460ff1615611f88576040517f08c379a0000000000000000000000000000000000000000000000000000000008152600401611f7f906143e7565b60405180910390fd5b5f60045f836003811115611f9f57611f9e613995565b5b6003811115611fb157611fb0613995565b5b81526020019081526020015f205411611fff576040517f08c379a0000000000000000000000000000000000000000000000000000000008152600401611ff690614781565b60405180910390fd5b5f60015f3373ffffffffffffffffffffffffffffffffffffffff1673ffffffffffffffffffffffffffffffffffffffff1681526020019081526020015f2090505f600381111561205257612051613995565b5b815f0160149054906101000a900460ff16600381111561207557612074613995565b5b146120b5576040517f08c379a00000000000000000000000000000000000000000000000000000000081526004016120ac906147e9565b60405180910390fd5b5f73ffffffffffffffffffffffffffffffffffffffff16815f015f9054906101000a900473ffffffffffffffffffffffffffffffffffffffff1673ffffffffffffffffffffffffffffffffffffffff1603612145576040517f08c379a000000000000000000000000000000000000000000000000000000000815260040161213c90614877565b60405180910390fd5b61219a7355d398326f99059ff775485246999027b3197955333060045f87600381111561217557612174613995565b5b600381111561218757612186613995565b5b81526020019081526020015f2054612a1d565b5f6064605060045f8660038111156121b5576121b4613995565b5b60038111156121c7576121c6613995565b5b81526020019081526020015f20546121df9190614895565b6121e99190614903565b905061221e7355d398326f99059ff775485246999027b319795573fd5840cd36d94d7229439859c0112a4185bc02555f612ea8565b6122517355d398326f99059ff775485246999027b319795573fd5840cd36d94d7229439859c0112a4185bc025583612ea8565b5f73fd5840cd36d94d7229439859c0112a4185bc025573ffffffffffffffffffffffffffffffffffffffff1663a0712d68836040518263ffffffff1660e01b815260040161229f9190613951565b6020604051808303815f875af11580156122bb573d5f5f3e3d5ffd5b505050506040513d601f19601f820116820180604052508101906122df9190614947565b1461231f576040517f08c379a0000000000000000000000000000000000000000000000000000000008152600401612316906149bc565b60405180910390fd5b5f73fd5840cd36d94d7229439859c0112a4185bc025573ffffffffffffffffffffffffffffffffffffffff166370a08231306040518263ffffffff1660e01b815260040161236d9190613929565b602060405180830381865afa158015612388573d5f5f3e3d5ffd5b505050506040513d601f19601f820116820180604052508101906123ac9190614947565b90506123ee73fd5840cd36d94d7229439859c0112a4185bc025560075f9054906101000a900473ffffffffffffffffffffffffffffffffffffffff168361264e565b83835f0160146101000a81548160ff0219169083600381111561241457612413613995565b5b021790555060045f85600381111561242f5761242e613995565b5b600381111561244157612440613995565b5b81526020019081526020015f2054600b5f82825461245f9190614232565b925050819055506001600a5f3373ffffffffffffffffffffffffffffffffffffffff1673ffffffffffffffffffffffffffffffffffffffff1681526020019081526020015f205f6101000a81548160ff0219169083151502179055505f73ffffffffffffffffffffffffffffffffffffffff1660015f3373ffffffffffffffffffffffffffffffffffffffff1673ffffffffffffffffffffffffffffffffffffffff1681526020019081526020015f205f015f9054906101000a900473ffffffffffffffffffffffffffffffffffffffff1673ffffffffffffffffffffffffffffffffffffffff161461258c5761258b3360045f87600381111561256657612565613995565b5b600381111561257857612577613995565b5b81526020019081526020015f2054612fd8565b5b7f8acf475137e0cd74ca7f611d16b1e6383ec9a9c71a8e5b85967781b9c7214d113360045f8760038111156125c4576125c3613995565b5b60038111156125d6576125d5613995565b5b81526020019081526020015f2054866040516125f4939291906149da565b60405180910390a150505061260761277e565b50565b60025f5403612645576040517f3ee5aeb500000000000000000000000000000000000000000000000000000000815260040160405180910390fd5b60025f81905550565b5f5f8473ffffffffffffffffffffffffffffffffffffffff1663a9059cbb858560405160240161267f929190614a0f565b6040516020818303038152906040529060e01b6020820180517bffffffffffffffffffffffffffffffffffffffffffffffffffffffff83818316178352505050506040516126cd9190614a7a565b5f604051808303815f865af19150503d805f8114612706576040519150601f19603f3d011682016040523d82523d5f602084013e61270b565b606091505b509150915081801561273857505f815114806127375750808060200190518101906127369190614aba565b5b5b612777576040517f08c379a000000000000000000000000000000000000000000000000000000000815260040161276e90614b2f565b60405180910390fd5b5050505050565b60015f81905550565b7f000000000000000000000000000000000000000000000000000000000000000073ffffffffffffffffffffffffffffffffffffffff163073ffffffffffffffffffffffffffffffffffffffff16148061283457507f000000000000000000000000000000000000000000000000000000000000000073ffffffffffffffffffffffffffffffffffffffff1661281b61336e565b73ffffffffffffffffffffffffffffffffffffffff1614155b1561286b576040517fe07c8dba00000000000000000000000000000000000000000000000000000000815260040160405180910390fd5b565b612875612b50565b50565b8173ffffffffffffffffffffffffffffffffffffffff166352d1902d6040518163ffffffff1660e01b8152600401602060405180830381865afa9250505080156128e057506040513d601f19601f820116820180604052508101906128dd9190614b77565b60015b61292157816040517f4c9c8ce30000000000000000000000000000000000000000000000000000000081526004016129189190613929565b60405180910390fd5b7f360894a13ba1a3210667c828492db98dca3e2076cc3735a920a3ca505d382bbc5f1b811461298757806040517faa1d49a400000000000000000000000000000000000000000000000000000000815260040161297e9190613ca4565b60405180910390fd5b61299183836133c1565b505050565b7f000000000000000000000000000000000000000000000000000000000000000073ffffffffffffffffffffffffffffffffffffffff163073ffffffffffffffffffffffffffffffffffffffff1614612a1b576040517fe07c8dba00000000000000000000000000000000000000000000000000000000815260040160405180910390fd5b565b5f5f8573ffffffffffffffffffffffffffffffffffffffff166323b872dd868686604051602401612a5093929190614ba2565b6040516020818303038152906040529060e01b6020820180517bffffffffffffffffffffffffffffffffffffffffffffffffffffffff8381831617835250505050604051612a9e9190614a7a565b5f604051808303815f865af19150503d805f8114612ad7576040519150601f19603f3d011682016040523d82523d5f602084013e612adc565b606091505b5091509150818015612b0957505f81511480612b08575080806020019051810190612b079190614aba565b5b5b612b48576040517f08c379a0000000000000000000000000000000000000000000000000000000008152600401612b3f90614c47565b60405180910390fd5b505050505050565b612b58612e8d565b73ffffffffffffffffffffffffffffffffffffffff16612b766116ec565b73ffffffffffffffffffffffffffffffffffffffff1614612bd557612b99612e8d565b6040517f118cdaa7000000000000000000000000000000000000000000000000000000008152600401612bcc9190613929565b60405180910390fd5b565b5f612be0612e53565b90505f815f015f9054906101000a900473ffffffffffffffffffffffffffffffffffffffff16905082825f015f6101000a81548173ffffffffffffffffffffffffffffffffffffffff021916908373ffffffffffffffffffffffffffffffffffffffff1602179055508273ffffffffffffffffffffffffffffffffffffffff168173ffffffffffffffffffffffffffffffffffffffff167f8be0079c531659141344cd1fd0a4f28419497f9722a3daafe3b4186f6b6457e060405160405180910390a3505050565b5f60015f8373ffffffffffffffffffffffffffffffffffffffff1673ffffffffffffffffffffffffffffffffffffffff1681526020019081526020015f205f015f9054906101000a900473ffffffffffffffffffffffffffffffffffffffff1690505f5f90505b5f73ffffffffffffffffffffffffffffffffffffffff168273ffffffffffffffffffffffffffffffffffffffff1614158015612d4b5750603281105b15612e4e578273ffffffffffffffffffffffffffffffffffffffff168273ffffffffffffffffffffffffffffffffffffffff160315612e4e576001805f8473ffffffffffffffffffffffffffffffffffffffff1673ffffffffffffffffffffffffffffffffffffffff1681526020019081526020015f206001015f828254612dd39190614232565b9250508190555060015f8373ffffffffffffffffffffffffffffffffffffffff1673ffffffffffffffffffffffffffffffffffffffff1681526020019081526020015f205f015f9054906101000a900473ffffffffffffffffffffffffffffffffffffffff1691508080612e4690614c65565b915050612d0f565b505050565b5f7f9016d09d72d40fdae2fd8ceac6b6234c7706214fd39c1cd1e609a0528c199300905090565b5f5f612e84613433565b90508091505090565b5f33905090565b612e9c61345c565b612ea58161349c565b50565b5f5f8473ffffffffffffffffffffffffffffffffffffffff1663095ea7b38585604051602401612ed9929190614a0f565b6040516020818303038152906040529060e01b6020820180517bffffffffffffffffffffffffffffffffffffffffffffffffffffffff8381831617835250505050604051612f279190614a7a565b5f604051808303815f865af19150503d805f8114612f60576040519150601f19603f3d011682016040523d82523d5f602084013e612f65565b606091505b5091509150818015612f9257505f81511480612f91575080806020019051810190612f909190614aba565b5b5b612fd1576040517f08c379a0000000000000000000000000000000000000000000000000000000008152600401612fc890614cf6565b60405180910390fd5b5050505050565b5f60015f8473ffffffffffffffffffffffffffffffffffffffff1673ffffffffffffffffffffffffffffffffffffffff1681526020019081526020015f205f015f9054906101000a900473ffffffffffffffffffffffffffffffffffffffff1690505f5f90505f5f90505b5f73ffffffffffffffffffffffffffffffffffffffff168373ffffffffffffffffffffffffffffffffffffffff161415801561307f5750603282105b15613367578473ffffffffffffffffffffffffffffffffffffffff168373ffffffffffffffffffffffffffffffffffffffff160315613367578360015f8573ffffffffffffffffffffffffffffffffffffffff1673ffffffffffffffffffffffffffffffffffffffff1681526020019081526020015f206002015f8282546131079190614232565b925050819055505f60015f8573ffffffffffffffffffffffffffffffffffffffff1673ffffffffffffffffffffffffffffffffffffffff1681526020019081526020015f20600401549050818111156132f2575f82826131679190614197565b90505f606482886131789190614895565b6131829190614903565b90505f8111156132d1578060015f8873ffffffffffffffffffffffffffffffffffffffff1673ffffffffffffffffffffffffffffffffffffffff1681526020019081526020015f206003015f8282546131db9190614232565b9250508190555060025f8773ffffffffffffffffffffffffffffffffffffffff1673ffffffffffffffffffffffffffffffffffffffff1681526020019081526020015f2060405180606001604052808a73ffffffffffffffffffffffffffffffffffffffff16815260200183815260200142815250908060018154018082558091505060019003905f5260205f2090600302015f909190919091505f820151815f015f6101000a81548173ffffffffffffffffffffffffffffffffffffffff021916908373ffffffffffffffffffffffffffffffffffffffff160217905550602082015181600101556040820151816002015550505b81846132dd9190614232565b9350606484106132ef57505050613367565b50505b60015f8573ffffffffffffffffffffffffffffffffffffffff1673ffffffffffffffffffffffffffffffffffffffff1681526020019081526020015f205f015f9054906101000a900473ffffffffffffffffffffffffffffffffffffffff169350828061335e90614c65565b93505050613043565b5050505050565b5f61339a7f360894a13ba1a3210667c828492db98dca3e2076cc3735a920a3ca505d382bbc5f1b613520565b5f015f9054906101000a900473ffffffffffffffffffffffffffffffffffffffff16905090565b6133ca82613529565b8173ffffffffffffffffffffffffffffffffffffffff167fbc7cd75a20ee27fd9adebab32041f755214dbc6bffa90cc0225b39da2e5c2d3b60405160405180910390a25f815111156134265761342082826135f2565b5061342f565b61342e6136e3565b5b5050565b5f7ff0c57e16840df040f15088dc2f81fe391c3923bec73e23a9662efc9c229c6a005f1b905090565b61346461371f565b61349a576040517fd7e6bcf800000000000000000000000000000000000000000000000000000000815260040160405180910390fd5b565b6134a461345c565b5f73ffffffffffffffffffffffffffffffffffffffff168173ffffffffffffffffffffffffffffffffffffffff1603613514575f6040517f1e4fbdf700000000000000000000000000000000000000000000000000000000815260040161350b9190613929565b60405180910390fd5b61351d81612bd7565b50565b5f819050919050565b5f8173ffffffffffffffffffffffffffffffffffffffff163b0361358457806040517f4c9c8ce300000000000000000000000000000000000000000000000000000000815260040161357b9190613929565b60405180910390fd5b806135b07f360894a13ba1a3210667c828492db98dca3e2076cc3735a920a3ca505d382bbc5f1b613520565b5f015f6101000a81548173ffffffffffffffffffffffffffffffffffffffff021916908373ffffffffffffffffffffffffffffffffffffffff16021790555050565b60605f6135ff848461373d565b905080801561363557505f613612613751565b118061363457505f8473ffffffffffffffffffffffffffffffffffffffff163b115b5b1561364a57613642613758565b9150506136dd565b801561368d57836040517f9996b3150000000000000000000000000000000000000000000000000000000081526004016136849190613929565b60405180910390fd5b5f613696613751565b11156136a9576136a4613775565b6136db565b6040517fd6bda27500000000000000000000000000000000000000000000000000000000815260040160405180910390fd5b505b92915050565b5f34111561371d576040517fb398979f00000000000000000000000000000000000000000000000000000000815260040160405180910390fd5b565b5f613728612e7a565b5f0160089054906101000a900460ff16905090565b5f5f5f835160208501865af4905092915050565b5f3d905090565b606060405190503d81523d5f602083013e3d602001810160405290565b6040513d5f823e3d81fd5b60405180606001604052805f73ffffffffffffffffffffffffffffffffffffffff1681526020015f60038111156137ba576137b9613995565b5b81526020015f81525090565b5f82825260208201905092915050565b7f4e4f5f4449524543545f53454e440000000000000000000000000000000000005f82015250565b5f61380a600e836137c6565b9150613815826137d6565b602082019050919050565b5f6020820190508181035f830152613837816137fe565b9050919050565b5f604051905090565b5f5ffd5b5f5ffd5b5f73ffffffffffffffffffffffffffffffffffffffff82169050919050565b5f6138788261384f565b9050919050565b6138888161386e565b8114613892575f5ffd5b50565b5f813590506138a38161387f565b92915050565b5f819050919050565b6138bb816138a9565b81146138c5575f5ffd5b50565b5f813590506138d6816138b2565b92915050565b5f5f604083850312156138f2576138f1613847565b5b5f6138ff85828601613895565b9250506020613910858286016138c8565b9150509250929050565b6139238161386e565b82525050565b5f60208201905061393c5f83018461391a565b92915050565b61394b816138a9565b82525050565b5f6020820190506139645f830184613942565b92915050565b5f6020828403121561397f5761397e613847565b5b5f61398c84828501613895565b91505092915050565b7f4e487b71000000000000000000000000000000000000000000000000000000005f52602160045260245ffd5b600481106139d3576139d2613995565b5b50565b5f8190506139e3826139c2565b919050565b5f6139f2826139d6565b9050919050565b613a02816139e8565b82525050565b5f60e082019050613a1b5f83018a61391a565b613a2860208301896139f9565b613a356040830188613942565b613a426060830187613942565b613a4f6080830186613942565b613a5c60a0830185613942565b613a6960c0830184613942565b98975050505050505050565b60048110613a81575f5ffd5b50565b5f81359050613a9281613a75565b92915050565b5f60208284031215613aad57613aac613847565b5b5f613aba84828501613a84565b91505092915050565b5f8115159050919050565b613ad781613ac3565b82525050565b5f602082019050613af05f830184613ace565b92915050565b5f5ffd5b5f5ffd5b5f601f19601f8301169050919050565b7f4e487b71000000000000000000000000000000000000000000000000000000005f52604160045260245ffd5b613b4482613afe565b810181811067ffffffffffffffff82111715613b6357613b62613b0e565b5b80604052505050565b5f613b7561383e565b9050613b818282613b3b565b919050565b5f67ffffffffffffffff821115613ba057613b9f613b0e565b5b613ba982613afe565b9050602081019050919050565b828183375f83830152505050565b5f613bd6613bd184613b86565b613b6c565b905082815260208101848484011115613bf257613bf1613afa565b5b613bfd848285613bb6565b509392505050565b5f82601f830112613c1957613c18613af6565b5b8135613c29848260208601613bc4565b91505092915050565b5f5f60408385031215613c4857613c47613847565b5b5f613c5585828601613895565b925050602083013567ffffffffffffffff811115613c7657613c7561384b565b5b613c8285828601613c05565b9150509250929050565b5f819050919050565b613c9e81613c8c565b82525050565b5f602082019050613cb75f830184613c95565b92915050565b5f5f5f60608486031215613cd457613cd3613847565b5b5f613ce186828701613895565b9350506020613cf2868287016138c8565b9250506040613d0386828701613895565b9150509250925092565b5f81519050919050565b5f82825260208201905092915050565b5f819050602082019050919050565b613d3f8161386e565b82525050565b613d4e816138a9565b82525050565b606082015f820151613d685f850182613d36565b506020820151613d7b6020850182613d45565b506040820151613d8e6040850182613d45565b50505050565b5f613d9f8383613d54565b60608301905092915050565b5f602082019050919050565b5f613dc182613d0d565b613dcb8185613d17565b9350613dd683613d27565b805f5b83811015613e06578151613ded8882613d94565b9750613df883613dab565b925050600181019050613dd9565b5085935050505092915050565b5f61010082019050613e275f83018b61391a565b613e34602083018a6139f9565b613e416040830189613942565b613e4e6060830188613942565b613e5b6080830187613942565b613e6860a0830186613942565b613e7560c0830185613942565b81810360e0830152613e878184613db7565b90509998505050505050505050565b5f81519050919050565b5f82825260208201905092915050565b5f819050602082019050919050565b5f613eca8383613d36565b60208301905092915050565b5f602082019050919050565b5f613eec82613e96565b613ef68185613ea0565b9350613f0183613eb0565b805f5b83811015613f31578151613f188882613ebf565b9750613f2383613ed6565b925050600181019050613f04565b5085935050505092915050565b5f6020820190508181035f830152613f568184613ee2565b905092915050565b5f81519050919050565b8281835e5f83830152505050565b5f613f8082613f5e565b613f8a81856137c6565b9350613f9a818560208601613f68565b613fa381613afe565b840191505092915050565b5f6020820190508181035f830152613fc68184613f76565b905092915050565b5f606082019050613fe15f83018661391a565b613fee60208301856139f9565b613ffb6040830184613942565b949350505050565b5f5f5f6060848603121561401a57614019613847565b5b5f61402786828701613895565b935050602061403886828701613895565b925050604061404986828701613895565b9150509250925092565b5f81519050919050565b5f82825260208201905092915050565b5f819050602082019050919050565b614085816139e8565b82525050565b606082015f82015161409f5f850182613d36565b5060208201516140b2602085018261407c565b5060408201516140c56040850182613d45565b50505050565b5f6140d6838361408b565b60608301905092915050565b5f602082019050919050565b5f6140f882614053565b614102818561405d565b935061410d8361406d565b805f5b8381101561413d57815161412488826140cb565b975061412f836140e2565b925050600181019050614110565b5085935050505092915050565b5f6020820190508181035f83015261416281846140ee565b905092915050565b7f4e487b71000000000000000000000000000000000000000000000000000000005f52601160045260245ffd5b5f6141a1826138a9565b91506141ac836138a9565b92508282039050818111156141c4576141c361416a565b5b92915050565b7f4e4f5f41574152440000000000000000000000000000000000000000000000005f82015250565b5f6141fe6008836137c6565b9150614209826141ca565b602082019050919050565b5f6020820190508181035f83015261422b816141f2565b9050919050565b5f61423c826138a9565b9150614247836138a9565b925082820190508082111561425f5761425e61416a565b5b92915050565b7f4e6f74207065726d69742e0000000000000000000000000000000000000000005f82015250565b5f614299600b836137c6565b91506142a482614265565b602082019050919050565b5f6020820190508181035f8301526142c68161428d565b9050919050565b7f4e6f74207065726d69742067656e65726174652e0000000000000000000000005f82015250565b5f6143016014836137c6565b915061430c826142cd565b602082019050919050565b5f6020820190508181035f83015261432e816142f5565b9050919050565b7f414c52454144595f4558495354535f454c49474942494c4954592e00000000005f82015250565b5f614369601b836137c6565b915061437482614335565b602082019050919050565b5f6020820190508181035f8301526143968161435d565b9050919050565b7f416c7265616479205061757365642e00000000000000000000000000000000005f82015250565b5f6143d1600f836137c6565b91506143dc8261439d565b602082019050919050565b5f6020820190508181035f8301526143fe816143c5565b9050919050565b7f496e697469616c20636f64652063616e6e6f742072656769737465722e0000005f82015250565b5f614439601d836137c6565b915061444482614405565b602082019050919050565b5f6020820190508181035f8301526144668161442d565b9050919050565b7f5a45524f5f414444524553532e000000000000000000000000000000000000005f82015250565b5f6144a1600d836137c6565b91506144ac8261446d565b602082019050919050565b5f6020820190508181035f8301526144ce81614495565b9050919050565b7f494e56414c49445f5245434f4d4d454e4445522e0000000000000000000000005f82015250565b5f6145096014836137c6565b9150614514826144d5565b602082019050919050565b5f6020820190508181035f830152614536816144fd565b9050919050565b7f4e6f20656c69676962696c6974792e00000000000000000000000000000000005f82015250565b5f614571600f836137c6565b915061457c8261453d565b602082019050919050565b5f6020820190508181035f83015261459e81614565565b9050919050565b7f494e56495445525f414c52454144595f4558495354532e0000000000000000005f82015250565b5f6145d96017836137c6565b91506145e4826145a5565b602082019050919050565b5f6020820190508181035f830152614606816145cd565b9050919050565b5f6040820190506146205f83018561391a565b61462d602083018461391a565b9392505050565b7f4572726f7220726174696f2e00000000000000000000000000000000000000005f82015250565b5f614668600c836137c6565b915061467382614634565b602082019050919050565b5f6020820190508181035f8301526146958161465c565b9050919050565b5f819050919050565b5f67ffffffffffffffff82169050919050565b5f819050919050565b5f6146db6146d66146d18461469c565b6146b8565b6146a5565b9050919050565b6146eb816146c1565b82525050565b5f6020820190506147045f8301846146e2565b92915050565b7f4e487b71000000000000000000000000000000000000000000000000000000005f52603260045260245ffd5b7f4552524f525f4e4f44455f545950452e000000000000000000000000000000005f82015250565b5f61476b6010836137c6565b915061477682614737565b602082019050919050565b5f6020820190508181035f8301526147988161475f565b9050919050565b7f414c52454144595f52454348415247452e0000000000000000000000000000005f82015250565b5f6147d36011836137c6565b91506147de8261479f565b602082019050919050565b5f6020820190508181035f830152614800816147c7565b9050919050565b7f5245434f4d4d454e444154494f4e5f49535f52455155495245445f52454348415f8201527f5247452e00000000000000000000000000000000000000000000000000000000602082015250565b5f6148616024836137c6565b915061486c82614807565b604082019050919050565b5f6020820190508181035f83015261488e81614855565b9050919050565b5f61489f826138a9565b91506148aa836138a9565b92508282026148b8816138a9565b915082820484148315176148cf576148ce61416a565b5b5092915050565b7f4e487b71000000000000000000000000000000000000000000000000000000005f52601260045260245ffd5b5f61490d826138a9565b9150614918836138a9565b925082614928576149276148d6565b5b828204905092915050565b5f81519050614941816138b2565b92915050565b5f6020828403121561495c5761495b613847565b5b5f61496984828501614933565b91505092915050565b7f56454e55535f4d494e545f4641494c45440000000000000000000000000000005f82015250565b5f6149a66011836137c6565b91506149b182614972565b602082019050919050565b5f6020820190508181035f8301526149d38161499a565b9050919050565b5f6060820190506149ed5f83018661391a565b6149fa6020830185613942565b614a0760408301846139f9565b949350505050565b5f604082019050614a225f83018561391a565b614a2f6020830184613942565b9392505050565b5f81519050919050565b5f81905092915050565b5f614a5482614a36565b614a5e8185614a40565b9350614a6e818560208601613f68565b80840191505092915050565b5f614a858284614a4a565b915081905092915050565b614a9981613ac3565b8114614aa3575f5ffd5b50565b5f81519050614ab481614a90565b92915050565b5f60208284031215614acf57614ace613847565b5b5f614adc84828501614aa6565b91505092915050565b7f5472616e7366657248656c7065723a205452414e534645525f4641494c4544005f82015250565b5f614b19601f836137c6565b9150614b2482614ae5565b602082019050919050565b5f6020820190508181035f830152614b4681614b0d565b9050919050565b614b5681613c8c565b8114614b60575f5ffd5b50565b5f81519050614b7181614b4d565b92915050565b5f60208284031215614b8c57614b8b613847565b5b5f614b9984828501614b63565b91505092915050565b5f606082019050614bb55f83018661391a565b614bc2602083018561391a565b614bcf6040830184613942565b949350505050565b7f5472616e7366657248656c7065723a205452414e534645525f46524f4d5f46415f8201527f494c454400000000000000000000000000000000000000000000000000000000602082015250565b5f614c316024836137c6565b9150614c3c82614bd7565b604082019050919050565b5f6020820190508181035f830152614c5e81614c25565b9050919050565b5f614c6f826138a9565b91507fffffffffffffffffffffffffffffffffffffffffffffffffffffffffffffffff8203614ca157614ca061416a565b5b600182019050919050565b7f5472616e7366657248656c7065723a20415050524f56455f4641494c454400005f82015250565b5f614ce0601e836137c6565b9150614ceb82614cac565b602082019050919050565b5f6020820190508181035f830152614d0d81614cd4565b905091905056fea26469706673582212209f86d3278d051ab4eabfc03ba377792c48a63b51af601efa7f02705c7c6d801764736f6c634300081e0033","linkReferences":{}},"methodIdentifiers":{"MAX_REFERRAL_DEPTH()":"89e59ea0","UPGRADE_INTERFACE_VERSION()":"ad3cb1cc","USDT()":"c54e44eb","VENUS()":"1a78ccc1","admin()":"f851a440","claim()":"4e71d92d","directReferrals(address,uint256)":"05ad3935","eligibility(address)":"63c36dec","emergencyWithdraw(address,uint256,address)":"551512de","generateCode()":"6e8dbfd0","getAddrCollection()":"a2b0332b","getAddrCollectionLength()":"4d38857c","getDirectReferralInfo(address)":"dcdcd08c","getMigrateInfo(address)":"b3a48366","getUserInfo(address)":"6386c1c7","initialCode()":"10baf089","initialize(address,address,address)":"c0c53b8b","isAddCollection(address)":"39fe3b99","nodePrice(uint8)":"1f7bcc4b","owner()":"8da5cb5b","proxiableUUID()":"52d1902d","recipient()":"66d003ac","referral(address)":"7247959a","renounceOwnership()":"715018a6","setAwardRatio(address,uint256)":"77e06a9e","singleRecharge(uint8)":"fb7b09c5","totalPerformance()":"06876dbe","transferOwnership(address)":"f2fde38b","upgradeToAndCall(address,bytes)":"4f1ef286","userInfo(address)":"1959a002","validInvitationCode(address)":"3c4e9d74"},"id":33}