{"abi":[{"type":"receive","stateMutability":"payable"},{"type":"function","name":"MAX_REFERRAL_DEPTH","inputs":[],"outputs":[{"name":"","type":"uint256","internalType":"uint256"}],"stateMutability":"view"},{"type":"function","name":"UPGRADE_INTERFACE_VERSION","inputs":[],"outputs":[{"name":"","type":"string","internalType":"string"}],"stateMutability":"view"},{"type":"function","name":"USDT","inputs":[],"outputs":[{"name":"","type":"address","internalType":"address"}],"stateMutability":"view"},{"type":"function","name":"VENUS","inputs":[],"outputs":[{"name":"","type":"address","internalType":"address"}],"stateMutability":"view"},{"type":"function","name":"admin","inputs":[],"outputs":[{"name":"","type":"address","internalType":"address"}],"stateMutability":"view"},{"type":"function","name":"claim","inputs":[],"outputs":[],"stateMutability":"nonpayable"},{"type":"function","name":"directReferrals","inputs":[{"name":"","type":"address","internalType":"address"},{"name":"","type":"uint256","internalType":"uint256"}],"outputs":[{"name":"","type":"address","internalType":"address"}],"stateMutability":"view"},{"type":"function","name":"emergencyWithdraw","inputs":[{"name":"token","type":"address","internalType":"address"},{"name":"amount","type":"uint256","internalType":"uint256"},{"name":"to","type":"address","internalType":"address"}],"outputs":[],"stateMutability":"nonpayable"},{"type":"function","name":"getAddrCollection","inputs":[],"outputs":[{"name":"","type":"address[]","internalType":"address[]"}],"stateMutability":"view"},{"type":"function","name":"getAddrCollectionLength","inputs":[],"outputs":[{"name":"","type":"uint256","internalType":"uint256"}],"stateMutability":"view"},{"type":"function","name":"getDirectReferralInfo","inputs":[{"name":"user","type":"address","internalType":"address"}],"outputs":[{"name":"infos","type":"tuple[]","internalType":"struct Enum.DirectInfo[]","components":[{"name":"user","type":"address","internalType":"address"},{"name":"nodeType","type":"uint8","internalType":"enum Enum.NodeType"},{"name":"performance","type":"uint256","internalType":"uint256"}]}],"stateMutability":"view"},{"type":"function","name":"getMigrateInfo","inputs":[{"name":"user","type":"address","internalType":"address"}],"outputs":[{"name":"recommender","type":"address","internalType":"address"},{"name":"nodeType","type":"uint8","internalType":"enum Enum.NodeType"},{"name":"amount","type":"uint256","internalType":"uint256"}],"stateMutability":"view"},{"type":"function","name":"getUserInfo","inputs":[{"name":"user","type":"address","internalType":"address"}],"outputs":[{"name":"recommender","type":"address","internalType":"address"},{"name":"nodeType","type":"uint8","internalType":"enum Enum.NodeType"},{"name":"referralNum","type":"uint256","internalType":"uint256"},{"name":"performance","type":"uint256","internalType":"uint256"},{"name":"award","type":"uint256","internalType":"uint256"},{"name":"awardRatio","type":"uint256","internalType":"uint256"},{"name":"recordAwards","type":"tuple[]","internalType":"struct Enum.RecordAward[]","components":[{"name":"user","type":"address","internalType":"address"},{"name":"amount","type":"uint256","internalType":"uint256"},{"name":"time","type":"uint256","internalType":"uint256"}]}],"stateMutability":"view"},{"type":"function","name":"initialCode","inputs":[],"outputs":[{"name":"","type":"address","internalType":"address"}],"stateMutability":"view"},{"type":"function","name":"initialize","inputs":[{"name":"_admin","type":"address","internalType":"address"},{"name":"_recipient","type":"address","internalType":"address"},{"name":"_initialCode","type":"address","internalType":"address"}],"outputs":[],"stateMutability":"nonpayable"},{"type":"function","name":"isAddCollection","inputs":[{"name":"","type":"address","internalType":"address"}],"outputs":[{"name":"","type":"bool","internalType":"bool"}],"stateMutability":"view"},{"type":"function","name":"nodePrice","inputs":[{"name":"","type":"uint8","internalType":"enum Enum.NodeType"}],"outputs":[{"name":"","type":"uint256","internalType":"uint256"}],"stateMutability":"view"},{"type":"function","name":"owner","inputs":[],"outputs":[{"name":"","type":"address","internalType":"address"}],"stateMutability":"view"},{"type":"function","name":"proxiableUUID","inputs":[],"outputs":[{"name":"","type":"bytes32","internalType":"bytes32"}],"stateMutability":"view"},{"type":"function","name":"recipient","inputs":[],"outputs":[{"name":"","type":"address","internalType":"address"}],"stateMutability":"view"},{"type":"function","name":"referral","inputs":[{"name":"recommender","type":"address","internalType":"address"}],"outputs":[],"stateMutability":"nonpayable"},{"type":"function","name":"renounceOwnership","inputs":[],"outputs":[],"stateMutability":"nonpayable"},{"type":"function","name":"setAwardRatio","inputs":[{"name":"user","type":"address","internalType":"address"},{"name":"_ratio","type":"uint256","internalType":"uint256"}],"outputs":[],"stateMutability":"nonpayable"},{"type":"function","name":"singleRecharge","inputs":[{"name":"nodeType","type":"uint8","internalType":"enum Enum.NodeType"}],"outputs":[],"stateMutability":"nonpayable"},{"type":"function","name":"totalPerformance","inputs":[],"outputs":[{"name":"","type":"uint256","internalType":"uint256"}],"stateMutability":"view"},{"type":"function","name":"transferOwnership","inputs":[{"name":"newOwner","type":"address","internalType":"address"}],"outputs":[],"stateMutability":"nonpayable"},{"type":"function","name":"upgradeToAndCall","inputs":[{"name":"newImplementation","type":"address","internalType":"address"},{"name":"data","type":"bytes","internalType":"bytes"}],"outputs":[],"stateMutability":"payable"},{"type":"function","name":"userInfo","inputs":[{"name":"","type":"address","internalType":"address"}],"outputs":[{"name":"recommender","type":"address","internalType":"address"},{"name":"nodeType","type":"uint8","internalType":"enum Enum.NodeType"},{"name":"referralNum","type":"uint256","internalType":"uint256"},{"name":"performance","type":"uint256","internalType":"uint256"},{"name":"award","type":"uint256","internalType":"uint256"},{"name":"awardRatio","type":"uint256","internalType":"uint256"}],"stateMutability":"view"},{"type":"function","name":"validInvitationCode","inputs":[{"name":"user","type":"address","internalType":"address"}],"outputs":[{"name":"","type":"bool","internalType":"bool"}],"stateMutability":"view"},{"type":"event","name":"Initialized","inputs":[{"name":"version","type":"uint64","indexed":false,"internalType":"uint64"}],"anonymous":false},{"type":"event","name":"OwnershipTransferred","inputs":[{"name":"previousOwner","type":"address","indexed":true,"internalType":"address"},{"name":"newOwner","type":"address","indexed":true,"internalType":"address"}],"anonymous":false},{"type":"event","name":"Referral","inputs":[{"name":"recommender","type":"address","indexed":false,"internalType":"address"},{"name":"referred","type":"address","indexed":false,"internalType":"address"}],"anonymous":false},{"type":"event","name":"Staked","inputs":[{"name":"user","type":"address","indexed":false,"internalType":"address"},{"name":"amount","type":"uint256","indexed":false,"internalType":"uint256"},{"name":"nodeType","type":"uint8","indexed":false,"internalType":"enum Enum.NodeType"}],"anonymous":false},{"type":"event","name":"Upgraded","inputs":[{"name":"implementation","type":"address","indexed":true,"internalType":"address"}],"anonymous":false},{"type":"error","name":"AddressEmptyCode","inputs":[{"name":"target","type":"address","internalType":"address"}]},{"type":"error","name":"ERC1967InvalidImplementation","inputs":[{"name":"implementation","type":"address","internalType":"address"}]},{"type":"error","name":"ERC1967NonPayable","inputs":[]},{"type":"error","name":"FailedCall","inputs":[]},{"type":"error","name":"InvalidInitialization","inputs":[]},{"type":"error","name":"NotInitializing","inputs":[]},{"type":"error","name":"OwnableInvalidOwner","inputs":[{"name":"owner","type":"address","internalType":"address"}]},{"type":"error","name":"OwnableUnauthorizedAccount","inputs":[{"name":"account","type":"address","internalType":"address"}]},{"type":"error","name":"ReentrancyGuardReentrantCall","inputs":[]},{"type":"error","name":"UUPSUnauthorizedCallContext","inputs":[]},{"type":"error","name":"UUPSUnsupportedProxiableUUID","inputs":[{"name":"slot","type":"bytes32","internalType":"bytes32"}]}],"bytecode":{"object":"0x60a06040523073ffffffffffffffffffffffffffffffffffffffff1660809073ffffffffffffffffffffffffffffffffffffffff168152503480156041575f5ffd5b5060015f8190555060805161490c61006f5f395f818161247a015281816124cf0152612689015261490c5ff3fe6080604052600436106101c5575f3560e01c806366d003ac116100f6578063ad3cb1cc11610094578063dcdcd08c11610063578063dcdcd08c14610670578063f2fde38b146106ac578063f851a440146106d4578063fb7b09c5146106fe57610205565b8063ad3cb1cc146105b6578063b3a48366146105e0578063c0c53b8b1461061e578063c54e44eb1461064657610205565b806377e06a9e116100d057806377e06a9e1461051057806389e59ea0146105385780638da5cb5b14610562578063a2b0332b1461058c57610205565b806366d003ac146104a8578063715018a6146104d25780637247959a146104e857610205565b80633c4e9d74116101635780634f1ef2861161013d5780634f1ef286146103f857806352d1902d14610414578063551512de1461043e5780636386c1c71461046657610205565b80633c4e9d741461037c5780634d38857c146103b85780634e71d92d146103e257610205565b80631959a0021161019f5780631959a002146102995780631a78ccc1146102da5780631f7bcc4b1461030457806339fe3b991461034057610205565b806305ad39351461020957806306876dbe1461024557806310baf0891461026f57610205565b36610205576040517f08c379a00000000000000000000000000000000000000000000000000000000081526004016101fc90613511565b60405180910390fd5b5f5ffd5b348015610214575f5ffd5b5061022f600480360381019061022a91906135cd565b610726565b60405161023c919061361a565b60405180910390f35b348015610250575f5ffd5b5061025961076e565b6040516102669190613642565b60405180910390f35b34801561027a575f5ffd5b50610283610774565b604051610290919061361a565b60405180910390f35b3480156102a4575f5ffd5b506102bf60048036038101906102ba919061365b565b610799565b6040516102d1969594939291906136f9565b60405180910390f35b3480156102e5575f5ffd5b506102ee6107fc565b6040516102fb919061361a565b60405180910390f35b34801561030f575f5ffd5b5061032a6004803603810190610325919061377b565b610814565b6040516103379190613642565b60405180910390f35b34801561034b575f5ffd5b506103666004803603810190610361919061365b565b610829565b60405161037391906137c0565b60405180910390f35b348015610387575f5ffd5b506103a2600480360381019061039d919061365b565b610846565b6040516103af91906137c0565b60405180910390f35b3480156103c3575f5ffd5b506103cc61093a565b6040516103d99190613642565b60405180910390f35b3480156103ed575f5ffd5b506103f6610946565b005b610412600480360381019061040d9190613915565b610a43565b005b34801561041f575f5ffd5b50610428610a62565b6040516104359190613987565b60405180910390f35b348015610449575f5ffd5b50610464600480360381019061045f91906139a0565b610a93565b005b348015610471575f5ffd5b5061048c6004803603810190610487919061365b565b610b32565b60405161049f9796959493929190613af6565b60405180910390f35b3480156104b3575f5ffd5b506104bc610d6a565b6040516104c9919061361a565b60405180910390f35b3480156104dd575f5ffd5b506104e6610d8f565b005b3480156104f3575f5ffd5b5061050e6004803603810190610509919061365b565b610da2565b005b34801561051b575f5ffd5b50610536600480360381019061053191906135cd565b61131b565b005b348015610543575f5ffd5b5061054c611437565b6040516105599190613642565b60405180910390f35b34801561056d575f5ffd5b5061057661143c565b604051610583919061361a565b60405180910390f35b348015610597575f5ffd5b506105a0611471565b6040516105ad9190613c12565b60405180910390f35b3480156105c1575f5ffd5b506105ca6114fc565b6040516105d79190613c82565b60405180910390f35b3480156105eb575f5ffd5b506106066004803603810190610601919061365b565b611535565b60405161061593929190613ca2565b60405180910390f35b348015610629575f5ffd5b50610644600480360381019061063f9190613cd7565b61168a565b005b348015610651575f5ffd5b5061065a6119a0565b604051610667919061361a565b60405180910390f35b34801561067b575f5ffd5b506106966004803603810190610691919061365b565b6119b8565b6040516106a39190613e1e565b60405180910390f35b3480156106b7575f5ffd5b506106d260048036038101906106cd919061365b565b611bce565b005b3480156106df575f5ffd5b506106e8611c52565b6040516106f5919061361a565b60405180910390f35b348015610709575f5ffd5b50610724600480360381019061071f919061377b565b611c77565b005b6003602052815f5260405f20818154811061073f575f80fd5b905f5260205f20015f915091509054906101000a900473ffffffffffffffffffffffffffffffffffffffff1681565b600a5481565b60065f9054906101000a900473ffffffffffffffffffffffffffffffffffffffff1681565b6001602052805f5260405f205f91509050805f015f9054906101000a900473ffffffffffffffffffffffffffffffffffffffff1690805f0160149054906101000a900460ff16908060010154908060020154908060030154908060040154905086565b73fd5840cd36d94d7229439859c0112a4185bc025581565b6004602052805f5260405f205f915090505481565b6009602052805f5260405f205f915054906101000a900460ff1681565b5f60065f9054906101000a900473ffffffffffffffffffffffffffffffffffffffff1673ffffffffffffffffffffffffffffffffffffffff168273ffffffffffffffffffffffffffffffffffffffff16036108a45760019050610935565b5f73ffffffffffffffffffffffffffffffffffffffff1660015f8473ffffffffffffffffffffffffffffffffffffffff1673ffffffffffffffffffffffffffffffffffffffff1681526020019081526020015f205f015f9054906101000a900473ffffffffffffffffffffffffffffffffffffffff1673ffffffffffffffffffffffffffffffffffffffff16141590505b919050565b5f600880549050905090565b61094e6122fb565b5f60015f3373ffffffffffffffffffffffffffffffffffffffff1673ffffffffffffffffffffffffffffffffffffffff1681526020019081526020015f206003015490505f81116109d4576040517f08c379a00000000000000000000000000000000000000000000000000000000081526004016109cb90613e88565b60405180910390fd5b5f60015f3373ffffffffffffffffffffffffffffffffffffffff1673ffffffffffffffffffffffffffffffffffffffff1681526020019081526020015f2060030181905550610a387355d398326f99059ff775485246999027b3197955338361233f565b50610a4161246f565b565b610a4b612478565b610a548261255e565b610a5e8282612569565b5050565b5f610a6b612687565b7f360894a13ba1a3210667c828492db98dca3e2076cc3735a920a3ca505d382bbc5f1b905090565b3373ffffffffffffffffffffffffffffffffffffffff1660055f9054906101000a900473ffffffffffffffffffffffffffffffffffffffff1673ffffffffffffffffffffffffffffffffffffffff1614610b22576040517f08c379a0000000000000000000000000000000000000000000000000000000008152600401610b1990613ef0565b60405180910390fd5b610b2d83828461233f565b505050565b5f5f5f5f5f5f60605f60015f8a73ffffffffffffffffffffffffffffffffffffffff1673ffffffffffffffffffffffffffffffffffffffff1681526020019081526020015f206040518060c00160405290815f82015f9054906101000a900473ffffffffffffffffffffffffffffffffffffffff1673ffffffffffffffffffffffffffffffffffffffff1673ffffffffffffffffffffffffffffffffffffffff1681526020015f820160149054906101000a900460ff166003811115610bfb57610bfa613686565b5b6003811115610c0d57610c0c613686565b5b81526020016001820154815260200160028201548152602001600382015481526020016004820154815250509050805f01519750806020015196508060400151955080606001519450806080015193508060a00151925060025f8a73ffffffffffffffffffffffffffffffffffffffff1673ffffffffffffffffffffffffffffffffffffffff1681526020019081526020015f20805480602002602001604051908101604052809291908181526020015f905b82821015610d58578382905f5260205f2090600302016040518060600160405290815f82015f9054906101000a900473ffffffffffffffffffffffffffffffffffffffff1673ffffffffffffffffffffffffffffffffffffffff1673ffffffffffffffffffffffffffffffffffffffff1681526020016001820154815260200160028201548152505081526020019060010190610cc0565b50505050915050919395979092949650565b60075f9054906101000a900473ffffffffffffffffffffffffffffffffffffffff1681565b610d9761270e565b610da05f612795565b565b600b5f9054906101000a900460ff1615610df1576040517f08c379a0000000000000000000000000000000000000000000000000000000008152600401610de890613f58565b60405180910390fd5b5f73ffffffffffffffffffffffffffffffffffffffff168173ffffffffffffffffffffffffffffffffffffffff1603610e5f576040517f08c379a0000000000000000000000000000000000000000000000000000000008152600401610e5690613fc0565b60405180910390fd5b3373ffffffffffffffffffffffffffffffffffffffff168173ffffffffffffffffffffffffffffffffffffffff1603610ecd576040517f08c379a0000000000000000000000000000000000000000000000000000000008152600401610ec490614028565b60405180910390fd5b60065f9054906101000a900473ffffffffffffffffffffffffffffffffffffffff1673ffffffffffffffffffffffffffffffffffffffff168173ffffffffffffffffffffffffffffffffffffffff1614610fee575f73ffffffffffffffffffffffffffffffffffffffff1660015f8373ffffffffffffffffffffffffffffffffffffffff1673ffffffffffffffffffffffffffffffffffffffff1681526020019081526020015f205f015f9054906101000a900473ffffffffffffffffffffffffffffffffffffffff1673ffffffffffffffffffffffffffffffffffffffff1603610fed576040517f08c379a0000000000000000000000000000000000000000000000000000000008152600401610fe4906140b6565b60405180910390fd5b5b5f73ffffffffffffffffffffffffffffffffffffffff1660015f3373ffffffffffffffffffffffffffffffffffffffff1673ffffffffffffffffffffffffffffffffffffffff1681526020019081526020015f205f015f9054906101000a900473ffffffffffffffffffffffffffffffffffffffff1673ffffffffffffffffffffffffffffffffffffffff16146110ba576040517f08c379a00000000000000000000000000000000000000000000000000000000081526004016110b19061411e565b60405180910390fd5b8060015f3373ffffffffffffffffffffffffffffffffffffffff1673ffffffffffffffffffffffffffffffffffffffff1681526020019081526020015f205f015f6101000a81548173ffffffffffffffffffffffffffffffffffffffff021916908373ffffffffffffffffffffffffffffffffffffffff16021790555060035f8273ffffffffffffffffffffffffffffffffffffffff1673ffffffffffffffffffffffffffffffffffffffff1681526020019081526020015f2033908060018154018082558091505060019003905f5260205f20015f9091909190916101000a81548173ffffffffffffffffffffffffffffffffffffffff021916908373ffffffffffffffffffffffffffffffffffffffff16021790555060095f3373ffffffffffffffffffffffffffffffffffffffff1673ffffffffffffffffffffffffffffffffffffffff1681526020019081526020015f205f9054906101000a900460ff166112d657600833908060018154018082558091505060019003905f5260205f20015f9091909190916101000a81548173ffffffffffffffffffffffffffffffffffffffff021916908373ffffffffffffffffffffffffffffffffffffffff160217905550600160095f3373ffffffffffffffffffffffffffffffffffffffff1673ffffffffffffffffffffffffffffffffffffffff1681526020019081526020015f205f6101000a81548160ff0219169083151502179055505b6112df33612866565b7f9d05414fb79fac216c15606de5cc06664e91a254e4d5f57664d5f1beaf7fb7ef813360405161131092919061413c565b60405180910390a150565b3373ffffffffffffffffffffffffffffffffffffffff1660055f9054906101000a900473ffffffffffffffffffffffffffffffffffffffff1673ffffffffffffffffffffffffffffffffffffffff16146113aa576040517f08c379a00000000000000000000000000000000000000000000000000000000081526004016113a190613ef0565b60405180910390fd5b605a8111156113ee576040517f08c379a00000000000000000000000000000000000000000000000000000000081526004016113e5906141ad565b60405180910390fd5b8060015f8473ffffffffffffffffffffffffffffffffffffffff1673ffffffffffffffffffffffffffffffffffffffff1681526020019081526020015f20600401819055505050565b603281565b5f5f611446612a11565b9050805f015f9054906101000a900473ffffffffffffffffffffffffffffffffffffffff1691505090565b606060088054806020026020016040519081016040528092919081815260200182805480156114f257602002820191905f5260205f20905b815f9054906101000a900473ffffffffffffffffffffffffffffffffffffffff1673ffffffffffffffffffffffffffffffffffffffff16815260200190600101908083116114a9575b5050505050905090565b6040518060400160405280600581526020017f352e302e3000000000000000000000000000000000000000000000000000000081525081565b5f5f5f5f60015f8673ffffffffffffffffffffffffffffffffffffffff1673ffffffffffffffffffffffffffffffffffffffff1681526020019081526020015f206040518060c00160405290815f82015f9054906101000a900473ffffffffffffffffffffffffffffffffffffffff1673ffffffffffffffffffffffffffffffffffffffff1673ffffffffffffffffffffffffffffffffffffffff1681526020015f820160149054906101000a900460ff1660038111156115f9576115f8613686565b5b600381111561160b5761160a613686565b5b81526020016001820154815260200160028201548152602001600382015481526020016004820154815250509050805f015193508060200151925060045f826020015160038111156116605761165f613686565b5b600381111561167257611671613686565b5b81526020019081526020015f20549150509193909250565b5f611693612a38565b90505f815f0160089054906101000a900460ff161590505f825f015f9054906101000a900467ffffffffffffffff1690505f5f8267ffffffffffffffff161480156116db5750825b90505f60018367ffffffffffffffff1614801561170e57505f3073ffffffffffffffffffffffffffffffffffffffff163b145b90508115801561171c575080155b15611753576040517ff92ee8a900000000000000000000000000000000000000000000000000000000815260040160405180910390fd5b6001855f015f6101000a81548167ffffffffffffffff021916908367ffffffffffffffff16021790555083156117a0576001855f0160086101000a81548160ff0219169083151502179055505b6117b06117ab612a4b565b612a52565b8760055f6101000a81548173ffffffffffffffffffffffffffffffffffffffff021916908373ffffffffffffffffffffffffffffffffffffffff1602179055508660075f6101000a81548173ffffffffffffffffffffffffffffffffffffffff021916908373ffffffffffffffffffffffffffffffffffffffff1602179055508560065f6101000a81548173ffffffffffffffffffffffffffffffffffffffff021916908373ffffffffffffffffffffffffffffffffffffffff160217905550681b1ae4d6e2ef50000060045f6001600381111561189157611890613686565b5b60038111156118a3576118a2613686565b5b81526020019081526020015f2081905550686c6b935b8bbd40000060045f600260038111156118d5576118d4613686565b5b60038111156118e7576118e6613686565b5b81526020019081526020015f208190555069010f0cf064dd5920000060045f60038081111561191957611918613686565b5b600381111561192b5761192a613686565b5b81526020019081526020015f20819055508315611996575f855f0160086101000a81548160ff0219169083151502179055507fc7f505b2f371ae2175ee4913f4499e1f2633a7b5936321eed1cdaeb6115181d2600160405161198d9190614220565b60405180910390a15b5050505050505050565b7355d398326f99059ff775485246999027b319795581565b60605f60035f8473ffffffffffffffffffffffffffffffffffffffff1673ffffffffffffffffffffffffffffffffffffffff1681526020019081526020015f20805480602002602001604051908101604052809291908181526020018280548015611a7557602002820191905f5260205f20905b815f9054906101000a900473ffffffffffffffffffffffffffffffffffffffff1673ffffffffffffffffffffffffffffffffffffffff1681526020019060010190808311611a2c575b505050505090505f815190508067ffffffffffffffff811115611a9b57611a9a6137f1565b5b604051908082528060200260200182016040528015611ad457816020015b611ac1613471565b815260200190600190039081611ab95790505b5092505f5f90505b81811015611bc6575f838281518110611af857611af7614239565b5b602002602001015190505f60015f8373ffffffffffffffffffffffffffffffffffffffff1673ffffffffffffffffffffffffffffffffffffffff1681526020019081526020015f20905060405180606001604052808373ffffffffffffffffffffffffffffffffffffffff168152602001825f0160149054906101000a900460ff166003811115611b8c57611b8b613686565b5b81526020018260020154815250868481518110611bac57611bab614239565b5b602002602001018190525050508080600101915050611adc565b505050919050565b611bd661270e565b5f73ffffffffffffffffffffffffffffffffffffffff168173ffffffffffffffffffffffffffffffffffffffff1603611c46575f6040517f1e4fbdf7000000000000000000000000000000000000000000000000000000008152600401611c3d919061361a565b60405180910390fd5b611c4f81612795565b50565b60055f9054906101000a900473ffffffffffffffffffffffffffffffffffffffff1681565b611c7f6122fb565b600b5f9054906101000a900460ff1615611cce576040517f08c379a0000000000000000000000000000000000000000000000000000000008152600401611cc590613f58565b60405180910390fd5b5f60045f836003811115611ce557611ce4613686565b5b6003811115611cf757611cf6613686565b5b81526020019081526020015f205411611d45576040517f08c379a0000000000000000000000000000000000000000000000000000000008152600401611d3c906142b0565b60405180910390fd5b5f60015f3373ffffffffffffffffffffffffffffffffffffffff1673ffffffffffffffffffffffffffffffffffffffff1681526020019081526020015f2090505f6003811115611d9857611d97613686565b5b815f0160149054906101000a900460ff166003811115611dbb57611dba613686565b5b14611dfb576040517f08c379a0000000000000000000000000000000000000000000000000000000008152600401611df290614318565b60405180910390fd5b5f73ffffffffffffffffffffffffffffffffffffffff16815f015f9054906101000a900473ffffffffffffffffffffffffffffffffffffffff1673ffffffffffffffffffffffffffffffffffffffff1603611e8b576040517f08c379a0000000000000000000000000000000000000000000000000000000008152600401611e82906143a6565b60405180910390fd5b611ee07355d398326f99059ff775485246999027b3197955333060045f876003811115611ebb57611eba613686565b5b6003811115611ecd57611ecc613686565b5b81526020019081526020015f2054612a66565b5f6064605060045f866003811115611efb57611efa613686565b5b6003811115611f0d57611f0c613686565b5b81526020019081526020015f2054611f2591906143f1565b611f2f919061445f565b9050611f647355d398326f99059ff775485246999027b319795573fd5840cd36d94d7229439859c0112a4185bc02555f612b99565b611f977355d398326f99059ff775485246999027b319795573fd5840cd36d94d7229439859c0112a4185bc025583612b99565b5f73fd5840cd36d94d7229439859c0112a4185bc025573ffffffffffffffffffffffffffffffffffffffff1663a0712d68836040518263ffffffff1660e01b8152600401611fe59190613642565b6020604051808303815f875af1158015612001573d5f5f3e3d5ffd5b505050506040513d601f19601f8201168201806040525081019061202591906144a3565b14612065576040517f08c379a000000000000000000000000000000000000000000000000000000000815260040161205c90614518565b60405180910390fd5b5f73fd5840cd36d94d7229439859c0112a4185bc025573ffffffffffffffffffffffffffffffffffffffff166370a08231306040518263ffffffff1660e01b81526004016120b3919061361a565b602060405180830381865afa1580156120ce573d5f5f3e3d5ffd5b505050506040513d601f19601f820116820180604052508101906120f291906144a3565b905061213473fd5840cd36d94d7229439859c0112a4185bc025560075f9054906101000a900473ffffffffffffffffffffffffffffffffffffffff168361233f565b83835f0160146101000a81548160ff0219169083600381111561215a57612159613686565b5b021790555060045f85600381111561217557612174613686565b5b600381111561218757612186613686565b5b81526020019081526020015f2054600a5f8282546121a59190614536565b925050819055505f73ffffffffffffffffffffffffffffffffffffffff1660015f3373ffffffffffffffffffffffffffffffffffffffff1673ffffffffffffffffffffffffffffffffffffffff1681526020019081526020015f205f015f9054906101000a900473ffffffffffffffffffffffffffffffffffffffff1673ffffffffffffffffffffffffffffffffffffffff161461227d5761227c3360045f87600381111561225757612256613686565b5b600381111561226957612268613686565b5b81526020019081526020015f2054612cc9565b5b7f8acf475137e0cd74ca7f611d16b1e6383ec9a9c71a8e5b85967781b9c7214d113360045f8760038111156122b5576122b4613686565b5b60038111156122c7576122c6613686565b5b81526020019081526020015f2054866040516122e593929190614569565b60405180910390a15050506122f861246f565b50565b60025f5403612336576040517f3ee5aeb500000000000000000000000000000000000000000000000000000000815260040160405180910390fd5b60025f81905550565b5f5f8473ffffffffffffffffffffffffffffffffffffffff1663a9059cbb858560405160240161237092919061459e565b6040516020818303038152906040529060e01b6020820180517bffffffffffffffffffffffffffffffffffffffffffffffffffffffff83818316178352505050506040516123be9190614609565b5f604051808303815f865af19150503d805f81146123f7576040519150601f19603f3d011682016040523d82523d5f602084013e6123fc565b606091505b509150915081801561242957505f815114806124285750808060200190518101906124279190614649565b5b5b612468576040517f08c379a000000000000000000000000000000000000000000000000000000000815260040161245f906146be565b60405180910390fd5b5050505050565b60015f81905550565b7f000000000000000000000000000000000000000000000000000000000000000073ffffffffffffffffffffffffffffffffffffffff163073ffffffffffffffffffffffffffffffffffffffff16148061252557507f000000000000000000000000000000000000000000000000000000000000000073ffffffffffffffffffffffffffffffffffffffff1661250c61305f565b73ffffffffffffffffffffffffffffffffffffffff1614155b1561255c576040517fe07c8dba00000000000000000000000000000000000000000000000000000000815260040160405180910390fd5b565b61256661270e565b50565b8173ffffffffffffffffffffffffffffffffffffffff166352d1902d6040518163ffffffff1660e01b8152600401602060405180830381865afa9250505080156125d157506040513d601f19601f820116820180604052508101906125ce9190614706565b60015b61261257816040517f4c9c8ce3000000000000000000000000000000000000000000000000000000008152600401612609919061361a565b60405180910390fd5b7f360894a13ba1a3210667c828492db98dca3e2076cc3735a920a3ca505d382bbc5f1b811461267857806040517faa1d49a400000000000000000000000000000000000000000000000000000000815260040161266f9190613987565b60405180910390fd5b61268283836130b2565b505050565b7f000000000000000000000000000000000000000000000000000000000000000073ffffffffffffffffffffffffffffffffffffffff163073ffffffffffffffffffffffffffffffffffffffff161461270c576040517fe07c8dba00000000000000000000000000000000000000000000000000000000815260040160405180910390fd5b565b612716612a4b565b73ffffffffffffffffffffffffffffffffffffffff1661273461143c565b73ffffffffffffffffffffffffffffffffffffffff161461279357612757612a4b565b6040517f118cdaa700000000000000000000000000000000000000000000000000000000815260040161278a919061361a565b60405180910390fd5b565b5f61279e612a11565b90505f815f015f9054906101000a900473ffffffffffffffffffffffffffffffffffffffff16905082825f015f6101000a81548173ffffffffffffffffffffffffffffffffffffffff021916908373ffffffffffffffffffffffffffffffffffffffff1602179055508273ffffffffffffffffffffffffffffffffffffffff168173ffffffffffffffffffffffffffffffffffffffff167f8be0079c531659141344cd1fd0a4f28419497f9722a3daafe3b4186f6b6457e060405160405180910390a3505050565b5f60015f8373ffffffffffffffffffffffffffffffffffffffff1673ffffffffffffffffffffffffffffffffffffffff1681526020019081526020015f205f015f9054906101000a900473ffffffffffffffffffffffffffffffffffffffff1690505f5f90505b5f73ffffffffffffffffffffffffffffffffffffffff168273ffffffffffffffffffffffffffffffffffffffff16141580156129095750603281105b15612a0c578273ffffffffffffffffffffffffffffffffffffffff168273ffffffffffffffffffffffffffffffffffffffff160315612a0c576001805f8473ffffffffffffffffffffffffffffffffffffffff1673ffffffffffffffffffffffffffffffffffffffff1681526020019081526020015f206001015f8282546129919190614536565b9250508190555060015f8373ffffffffffffffffffffffffffffffffffffffff1673ffffffffffffffffffffffffffffffffffffffff1681526020019081526020015f205f015f9054906101000a900473ffffffffffffffffffffffffffffffffffffffff1691508080612a0490614731565b9150506128cd565b505050565b5f7f9016d09d72d40fdae2fd8ceac6b6234c7706214fd39c1cd1e609a0528c199300905090565b5f5f612a42613124565b90508091505090565b5f33905090565b612a5a61314d565b612a638161318d565b50565b5f5f8573ffffffffffffffffffffffffffffffffffffffff166323b872dd868686604051602401612a9993929190614778565b6040516020818303038152906040529060e01b6020820180517bffffffffffffffffffffffffffffffffffffffffffffffffffffffff8381831617835250505050604051612ae79190614609565b5f604051808303815f865af19150503d805f8114612b20576040519150601f19603f3d011682016040523d82523d5f602084013e612b25565b606091505b5091509150818015612b5257505f81511480612b51575080806020019051810190612b509190614649565b5b5b612b91576040517f08c379a0000000000000000000000000000000000000000000000000000000008152600401612b889061481d565b60405180910390fd5b505050505050565b5f5f8473ffffffffffffffffffffffffffffffffffffffff1663095ea7b38585604051602401612bca92919061459e565b6040516020818303038152906040529060e01b6020820180517bffffffffffffffffffffffffffffffffffffffffffffffffffffffff8381831617835250505050604051612c189190614609565b5f604051808303815f865af19150503d805f8114612c51576040519150601f19603f3d011682016040523d82523d5f602084013e612c56565b606091505b5091509150818015612c8357505f81511480612c82575080806020019051810190612c819190614649565b5b5b612cc2576040517f08c379a0000000000000000000000000000000000000000000000000000000008152600401612cb990614885565b60405180910390fd5b5050505050565b5f60015f8473ffffffffffffffffffffffffffffffffffffffff1673ffffffffffffffffffffffffffffffffffffffff1681526020019081526020015f205f015f9054906101000a900473ffffffffffffffffffffffffffffffffffffffff1690505f5f90505f5f90505b5f73ffffffffffffffffffffffffffffffffffffffff168373ffffffffffffffffffffffffffffffffffffffff1614158015612d705750603282105b15613058578473ffffffffffffffffffffffffffffffffffffffff168373ffffffffffffffffffffffffffffffffffffffff160315613058578360015f8573ffffffffffffffffffffffffffffffffffffffff1673ffffffffffffffffffffffffffffffffffffffff1681526020019081526020015f206002015f828254612df89190614536565b925050819055505f60015f8573ffffffffffffffffffffffffffffffffffffffff1673ffffffffffffffffffffffffffffffffffffffff1681526020019081526020015f2060040154905081811115612fe3575f8282612e5891906148a3565b90505f60648288612e6991906143f1565b612e73919061445f565b90505f811115612fc2578060015f8873ffffffffffffffffffffffffffffffffffffffff1673ffffffffffffffffffffffffffffffffffffffff1681526020019081526020015f206003015f828254612ecc9190614536565b9250508190555060025f8773ffffffffffffffffffffffffffffffffffffffff1673ffffffffffffffffffffffffffffffffffffffff1681526020019081526020015f2060405180606001604052808a73ffffffffffffffffffffffffffffffffffffffff16815260200183815260200142815250908060018154018082558091505060019003905f5260205f2090600302015f909190919091505f820151815f015f6101000a81548173ffffffffffffffffffffffffffffffffffffffff021916908373ffffffffffffffffffffffffffffffffffffffff160217905550602082015181600101556040820151816002015550505b8184612fce9190614536565b935060648410612fe057505050613058565b50505b60015f8573ffffffffffffffffffffffffffffffffffffffff1673ffffffffffffffffffffffffffffffffffffffff1681526020019081526020015f205f015f9054906101000a900473ffffffffffffffffffffffffffffffffffffffff169350828061304f90614731565b93505050612d34565b5050505050565b5f61308b7f360894a13ba1a3210667c828492db98dca3e2076cc3735a920a3ca505d382bbc5f1b613211565b5f015f9054906101000a900473ffffffffffffffffffffffffffffffffffffffff16905090565b6130bb8261321a565b8173ffffffffffffffffffffffffffffffffffffffff167fbc7cd75a20ee27fd9adebab32041f755214dbc6bffa90cc0225b39da2e5c2d3b60405160405180910390a25f815111156131175761311182826132e3565b50613120565b61311f6133d4565b5b5050565b5f7ff0c57e16840df040f15088dc2f81fe391c3923bec73e23a9662efc9c229c6a005f1b905090565b613155613410565b61318b576040517fd7e6bcf800000000000000000000000000000000000000000000000000000000815260040160405180910390fd5b565b61319561314d565b5f73ffffffffffffffffffffffffffffffffffffffff168173ffffffffffffffffffffffffffffffffffffffff1603613205575f6040517f1e4fbdf70000000000000000000000000000000000000000000000000000000081526004016131fc919061361a565b60405180910390fd5b61320e81612795565b50565b5f819050919050565b5f8173ffffffffffffffffffffffffffffffffffffffff163b0361327557806040517f4c9c8ce300000000000000000000000000000000000000000000000000000000815260040161326c919061361a565b60405180910390fd5b806132a17f360894a13ba1a3210667c828492db98dca3e2076cc3735a920a3ca505d382bbc5f1b613211565b5f015f6101000a81548173ffffffffffffffffffffffffffffffffffffffff021916908373ffffffffffffffffffffffffffffffffffffffff16021790555050565b60605f6132f0848461342e565b905080801561332657505f613303613442565b118061332557505f8473ffffffffffffffffffffffffffffffffffffffff163b115b5b1561333b57613333613449565b9150506133ce565b801561337e57836040517f9996b315000000000000000000000000000000000000000000000000000000008152600401613375919061361a565b60405180910390fd5b5f613387613442565b111561339a57613395613466565b6133cc565b6040517fd6bda27500000000000000000000000000000000000000000000000000000000815260040160405180910390fd5b505b92915050565b5f34111561340e576040517fb398979f00000000000000000000000000000000000000000000000000000000815260040160405180910390fd5b565b5f613419612a38565b5f0160089054906101000a900460ff16905090565b5f5f5f835160208501865af4905092915050565b5f3d905090565b606060405190503d81523d5f602083013e3d602001810160405290565b6040513d5f823e3d81fd5b60405180606001604052805f73ffffffffffffffffffffffffffffffffffffffff1681526020015f60038111156134ab576134aa613686565b5b81526020015f81525090565b5f82825260208201905092915050565b7f4e4f5f4449524543545f53454e440000000000000000000000000000000000005f82015250565b5f6134fb600e836134b7565b9150613506826134c7565b602082019050919050565b5f6020820190508181035f830152613528816134ef565b9050919050565b5f604051905090565b5f5ffd5b5f5ffd5b5f73ffffffffffffffffffffffffffffffffffffffff82169050919050565b5f61356982613540565b9050919050565b6135798161355f565b8114613583575f5ffd5b50565b5f8135905061359481613570565b92915050565b5f819050919050565b6135ac8161359a565b81146135b6575f5ffd5b50565b5f813590506135c7816135a3565b92915050565b5f5f604083850312156135e3576135e2613538565b5b5f6135f085828601613586565b9250506020613601858286016135b9565b9150509250929050565b6136148161355f565b82525050565b5f60208201905061362d5f83018461360b565b92915050565b61363c8161359a565b82525050565b5f6020820190506136555f830184613633565b92915050565b5f602082840312156136705761366f613538565b5b5f61367d84828501613586565b91505092915050565b7f4e487b71000000000000000000000000000000000000000000000000000000005f52602160045260245ffd5b600481106136c4576136c3613686565b5b50565b5f8190506136d4826136b3565b919050565b5f6136e3826136c7565b9050919050565b6136f3816136d9565b82525050565b5f60c08201905061370c5f83018961360b565b61371960208301886136ea565b6137266040830187613633565b6137336060830186613633565b6137406080830185613633565b61374d60a0830184613633565b979650505050505050565b60048110613764575f5ffd5b50565b5f8135905061377581613758565b92915050565b5f602082840312156137905761378f613538565b5b5f61379d84828501613767565b91505092915050565b5f8115159050919050565b6137ba816137a6565b82525050565b5f6020820190506137d35f8301846137b1565b92915050565b5f5ffd5b5f5ffd5b5f601f19601f8301169050919050565b7f4e487b71000000000000000000000000000000000000000000000000000000005f52604160045260245ffd5b613827826137e1565b810181811067ffffffffffffffff82111715613846576138456137f1565b5b80604052505050565b5f61385861352f565b9050613864828261381e565b919050565b5f67ffffffffffffffff821115613883576138826137f1565b5b61388c826137e1565b9050602081019050919050565b828183375f83830152505050565b5f6138b96138b484613869565b61384f565b9050828152602081018484840111156138d5576138d46137dd565b5b6138e0848285613899565b509392505050565b5f82601f8301126138fc576138fb6137d9565b5b813561390c8482602086016138a7565b91505092915050565b5f5f6040838503121561392b5761392a613538565b5b5f61393885828601613586565b925050602083013567ffffffffffffffff8111156139595761395861353c565b5b613965858286016138e8565b9150509250929050565b5f819050919050565b6139818161396f565b82525050565b5f60208201905061399a5f830184613978565b92915050565b5f5f5f606084860312156139b7576139b6613538565b5b5f6139c486828701613586565b93505060206139d5868287016135b9565b92505060406139e686828701613586565b9150509250925092565b5f81519050919050565b5f82825260208201905092915050565b5f819050602082019050919050565b613a228161355f565b82525050565b613a318161359a565b82525050565b606082015f820151613a4b5f850182613a19565b506020820151613a5e6020850182613a28565b506040820151613a716040850182613a28565b50505050565b5f613a828383613a37565b60608301905092915050565b5f602082019050919050565b5f613aa4826139f0565b613aae81856139fa565b9350613ab983613a0a565b805f5b83811015613ae9578151613ad08882613a77565b9750613adb83613a8e565b925050600181019050613abc565b5085935050505092915050565b5f60e082019050613b095f83018a61360b565b613b1660208301896136ea565b613b236040830188613633565b613b306060830187613633565b613b3d6080830186613633565b613b4a60a0830185613633565b81810360c0830152613b5c8184613a9a565b905098975050505050505050565b5f81519050919050565b5f82825260208201905092915050565b5f819050602082019050919050565b5f613b9e8383613a19565b60208301905092915050565b5f602082019050919050565b5f613bc082613b6a565b613bca8185613b74565b9350613bd583613b84565b805f5b83811015613c05578151613bec8882613b93565b9750613bf783613baa565b925050600181019050613bd8565b5085935050505092915050565b5f6020820190508181035f830152613c2a8184613bb6565b905092915050565b5f81519050919050565b8281835e5f83830152505050565b5f613c5482613c32565b613c5e81856134b7565b9350613c6e818560208601613c3c565b613c77816137e1565b840191505092915050565b5f6020820190508181035f830152613c9a8184613c4a565b905092915050565b5f606082019050613cb55f83018661360b565b613cc260208301856136ea565b613ccf6040830184613633565b949350505050565b5f5f5f60608486031215613cee57613ced613538565b5b5f613cfb86828701613586565b9350506020613d0c86828701613586565b9250506040613d1d86828701613586565b9150509250925092565b5f81519050919050565b5f82825260208201905092915050565b5f819050602082019050919050565b613d59816136d9565b82525050565b606082015f820151613d735f850182613a19565b506020820151613d866020850182613d50565b506040820151613d996040850182613a28565b50505050565b5f613daa8383613d5f565b60608301905092915050565b5f602082019050919050565b5f613dcc82613d27565b613dd68185613d31565b9350613de183613d41565b805f5b83811015613e11578151613df88882613d9f565b9750613e0383613db6565b925050600181019050613de4565b5085935050505092915050565b5f6020820190508181035f830152613e368184613dc2565b905092915050565b7f4e4f5f41574152440000000000000000000000000000000000000000000000005f82015250565b5f613e726008836134b7565b9150613e7d82613e3e565b602082019050919050565b5f6020820190508181035f830152613e9f81613e66565b9050919050565b7f4e6f74207065726d69742e0000000000000000000000000000000000000000005f82015250565b5f613eda600b836134b7565b9150613ee582613ea6565b602082019050919050565b5f6020820190508181035f830152613f0781613ece565b9050919050565b7f416c7265616479205061757365642e00000000000000000000000000000000005f82015250565b5f613f42600f836134b7565b9150613f4d82613f0e565b602082019050919050565b5f6020820190508181035f830152613f6f81613f36565b9050919050565b7f5a45524f5f414444524553532e000000000000000000000000000000000000005f82015250565b5f613faa600d836134b7565b9150613fb582613f76565b602082019050919050565b5f6020820190508181035f830152613fd781613f9e565b9050919050565b7f494e56414c49445f5245434f4d4d454e4445522e0000000000000000000000005f82015250565b5f6140126014836134b7565b915061401d82613fde565b602082019050919050565b5f6020820190508181035f83015261403f81614006565b9050919050565b7f5245434f4d4d454e444154494f4e5f49535f52455155495245445f52454645525f8201527f52414c2e00000000000000000000000000000000000000000000000000000000602082015250565b5f6140a06024836134b7565b91506140ab82614046565b604082019050919050565b5f6020820190508181035f8301526140cd81614094565b9050919050565b7f494e56495445525f414c52454144595f4558495354532e0000000000000000005f82015250565b5f6141086017836134b7565b9150614113826140d4565b602082019050919050565b5f6020820190508181035f830152614135816140fc565b9050919050565b5f60408201905061414f5f83018561360b565b61415c602083018461360b565b9392505050565b7f4572726f7220726174696f2e00000000000000000000000000000000000000005f82015250565b5f614197600c836134b7565b91506141a282614163565b602082019050919050565b5f6020820190508181035f8301526141c48161418b565b9050919050565b5f819050919050565b5f67ffffffffffffffff82169050919050565b5f819050919050565b5f61420a614205614200846141cb565b6141e7565b6141d4565b9050919050565b61421a816141f0565b82525050565b5f6020820190506142335f830184614211565b92915050565b7f4e487b71000000000000000000000000000000000000000000000000000000005f52603260045260245ffd5b7f4552524f525f4e4f44455f545950452e000000000000000000000000000000005f82015250565b5f61429a6010836134b7565b91506142a582614266565b602082019050919050565b5f6020820190508181035f8301526142c78161428e565b9050919050565b7f414c52454144595f52454348415247452e0000000000000000000000000000005f82015250565b5f6143026011836134b7565b915061430d826142ce565b602082019050919050565b5f6020820190508181035f83015261432f816142f6565b9050919050565b7f5245434f4d4d454e444154494f4e5f49535f52455155495245445f52454348415f8201527f5247452e00000000000000000000000000000000000000000000000000000000602082015250565b5f6143906024836134b7565b915061439b82614336565b604082019050919050565b5f6020820190508181035f8301526143bd81614384565b9050919050565b7f4e487b71000000000000000000000000000000000000000000000000000000005f52601160045260245ffd5b5f6143fb8261359a565b91506144068361359a565b92508282026144148161359a565b9150828204841483151761442b5761442a6143c4565b5b5092915050565b7f4e487b71000000000000000000000000000000000000000000000000000000005f52601260045260245ffd5b5f6144698261359a565b91506144748361359a565b92508261448457614483614432565b5b828204905092915050565b5f8151905061449d816135a3565b92915050565b5f602082840312156144b8576144b7613538565b5b5f6144c58482850161448f565b91505092915050565b7f56454e55535f4d494e545f4641494c45440000000000000000000000000000005f82015250565b5f6145026011836134b7565b915061450d826144ce565b602082019050919050565b5f6020820190508181035f83015261452f816144f6565b9050919050565b5f6145408261359a565b915061454b8361359a565b9250828201905080821115614563576145626143c4565b5b92915050565b5f60608201905061457c5f83018661360b565b6145896020830185613633565b61459660408301846136ea565b949350505050565b5f6040820190506145b15f83018561360b565b6145be6020830184613633565b9392505050565b5f81519050919050565b5f81905092915050565b5f6145e3826145c5565b6145ed81856145cf565b93506145fd818560208601613c3c565b80840191505092915050565b5f61461482846145d9565b915081905092915050565b614628816137a6565b8114614632575f5ffd5b50565b5f815190506146438161461f565b92915050565b5f6020828403121561465e5761465d613538565b5b5f61466b84828501614635565b91505092915050565b7f5472616e7366657248656c7065723a205452414e534645525f4641494c4544005f82015250565b5f6146a8601f836134b7565b91506146b382614674565b602082019050919050565b5f6020820190508181035f8301526146d58161469c565b9050919050565b6146e58161396f565b81146146ef575f5ffd5b50565b5f81519050614700816146dc565b92915050565b5f6020828403121561471b5761471a613538565b5b5f614728848285016146f2565b91505092915050565b5f61473b8261359a565b91507fffffffffffffffffffffffffffffffffffffffffffffffffffffffffffffffff820361476d5761476c6143c4565b5b600182019050919050565b5f60608201905061478b5f83018661360b565b614798602083018561360b565b6147a56040830184613633565b949350505050565b7f5472616e7366657248656c7065723a205452414e534645525f46524f4d5f46415f8201527f494c454400000000000000000000000000000000000000000000000000000000602082015250565b5f6148076024836134b7565b9150614812826147ad565b604082019050919050565b5f6020820190508181035f830152614834816147fb565b9050919050565b7f5472616e7366657248656c7065723a20415050524f56455f4641494c454400005f82015250565b5f61486f601e836134b7565b915061487a8261483b565b602082019050919050565b5f6020820190508181035f83015261489c81614863565b9050919050565b5f6148ad8261359a565b91506148b88361359a565b92508282039050818111156148d0576148cf6143c4565b5b9291505056fea26469706673582212208496a69c5a0f154c74e1d87f2970f718c3b6732dc87b9287f049a66025ca56c264736f6c634300081e0033","linkReferences":{}},"methodIdentifiers":{"MAX_REFERRAL_DEPTH()":"89e59ea0","UPGRADE_INTERFACE_VERSION()":"ad3cb1cc","USDT()":"c54e44eb","VENUS()":"1a78ccc1","admin()":"f851a440","claim()":"4e71d92d","directReferrals(address,uint256)":"05ad3935","emergencyWithdraw(address,uint256,address)":"551512de","getAddrCollection()":"a2b0332b","getAddrCollectionLength()":"4d38857c","getDirectReferralInfo(address)":"dcdcd08c","getMigrateInfo(address)":"b3a48366","getUserInfo(address)":"6386c1c7","initialCode()":"10baf089","initialize(address,address,address)":"c0c53b8b","isAddCollection(address)":"39fe3b99","nodePrice(uint8)":"1f7bcc4b","owner()":"8da5cb5b","proxiableUUID()":"52d1902d","recipient()":"66d003ac","referral(address)":"7247959a","renounceOwnership()":"715018a6","setAwardRatio(address,uint256)":"77e06a9e","singleRecharge(uint8)":"fb7b09c5","totalPerformance()":"06876dbe","transferOwnership(address)":"f2fde38b","upgradeToAndCall(address,bytes)":"4f1ef286","userInfo(address)":"1959a002","validInvitationCode(address)":"3c4e9d74"},"id":36}