{"abi":[{"type":"receive","stateMutability":"payable"},{"type":"function","name":"MAX_REFERRAL_DEPTH","inputs":[],"outputs":[{"name":"","type":"uint256","internalType":"uint256"}],"stateMutability":"view"},{"type":"function","name":"UPGRADE_INTERFACE_VERSION","inputs":[],"outputs":[{"name":"","type":"string","internalType":"string"}],"stateMutability":"view"},{"type":"function","name":"USDT","inputs":[],"outputs":[{"name":"","type":"address","internalType":"address"}],"stateMutability":"view"},{"type":"function","name":"VENUS","inputs":[],"outputs":[{"name":"","type":"address","internalType":"address"}],"stateMutability":"view"},{"type":"function","name":"admin","inputs":[],"outputs":[{"name":"","type":"address","internalType":"address"}],"stateMutability":"view"},{"type":"function","name":"batchImport","inputs":[{"name":"users","type":"address[]","internalType":"address[]"},{"name":"nodeType","type":"uint8","internalType":"enum Enum.NodeType"}],"outputs":[],"stateMutability":"nonpayable"},{"type":"function","name":"claim","inputs":[],"outputs":[],"stateMutability":"nonpayable"},{"type":"function","name":"directReferrals","inputs":[{"name":"","type":"address","internalType":"address"},{"name":"","type":"uint256","internalType":"uint256"}],"outputs":[{"name":"","type":"address","internalType":"address"}],"stateMutability":"view"},{"type":"function","name":"eligibility","inputs":[{"name":"","type":"address","internalType":"address"}],"outputs":[{"name":"","type":"bool","internalType":"bool"}],"stateMutability":"view"},{"type":"function","name":"emergencyWithdraw","inputs":[{"name":"token","type":"address","internalType":"address"},{"name":"amount","type":"uint256","internalType":"uint256"},{"name":"to","type":"address","internalType":"address"}],"outputs":[],"stateMutability":"nonpayable"},{"type":"function","name":"generateCode","inputs":[],"outputs":[],"stateMutability":"nonpayable"},{"type":"function","name":"getAddrCollection","inputs":[],"outputs":[{"name":"","type":"address[]","internalType":"address[]"}],"stateMutability":"view"},{"type":"function","name":"getAddrCollectionLength","inputs":[],"outputs":[{"name":"","type":"uint256","internalType":"uint256"}],"stateMutability":"view"},{"type":"function","name":"getDirectReferralInfo","inputs":[{"name":"user","type":"address","internalType":"address"}],"outputs":[{"name":"infos","type":"tuple[]","internalType":"struct Enum.DirectInfo[]","components":[{"name":"user","type":"address","internalType":"address"},{"name":"nodeType","type":"uint8","internalType":"enum Enum.NodeType"},{"name":"performance","type":"uint256","internalType":"uint256"}]}],"stateMutability":"view"},{"type":"function","name":"getMigrateInfo","inputs":[{"name":"user","type":"address","internalType":"address"}],"outputs":[{"name":"recommender","type":"address","internalType":"address"},{"name":"nodeType","type":"uint8","internalType":"enum Enum.NodeType"},{"name":"amount","type":"uint256","internalType":"uint256"}],"stateMutability":"view"},{"type":"function","name":"getUserInfo","inputs":[{"name":"user","type":"address","internalType":"address"}],"outputs":[{"name":"recommender","type":"address","internalType":"address"},{"name":"nodeType","type":"uint8","internalType":"enum Enum.NodeType"},{"name":"referralNum","type":"uint256","internalType":"uint256"},{"name":"performance","type":"uint256","internalType":"uint256"},{"name":"award","type":"uint256","internalType":"uint256"},{"name":"awardRatio","type":"uint256","internalType":"uint256"},{"name":"totalAward","type":"uint256","internalType":"uint256"},{"name":"recordAwards","type":"tuple[]","internalType":"struct Enum.RecordAward[]","components":[{"name":"user","type":"address","internalType":"address"},{"name":"amount","type":"uint256","internalType":"uint256"},{"name":"time","type":"uint256","internalType":"uint256"}]}],"stateMutability":"view"},{"type":"function","name":"initialCode","inputs":[],"outputs":[{"name":"","type":"address","internalType":"address"}],"stateMutability":"view"},{"type":"function","name":"initialize","inputs":[{"name":"_admin","type":"address","internalType":"address"},{"name":"_recipient","type":"address","internalType":"address"},{"name":"_initialCode","type":"address","internalType":"address"}],"outputs":[],"stateMutability":"nonpayable"},{"type":"function","name":"isAddCollection","inputs":[{"name":"","type":"address","internalType":"address"}],"outputs":[{"name":"","type":"bool","internalType":"bool"}],"stateMutability":"view"},{"type":"function","name":"nodePrice","inputs":[{"name":"","type":"uint8","internalType":"enum Enum.NodeType"}],"outputs":[{"name":"","type":"uint256","internalType":"uint256"}],"stateMutability":"view"},{"type":"function","name":"owner","inputs":[],"outputs":[{"name":"","type":"address","internalType":"address"}],"stateMutability":"view"},{"type":"function","name":"proxiableUUID","inputs":[],"outputs":[{"name":"","type":"bytes32","internalType":"bytes32"}],"stateMutability":"view"},{"type":"function","name":"recipient","inputs":[],"outputs":[{"name":"","type":"address","internalType":"address"}],"stateMutability":"view"},{"type":"function","name":"referral","inputs":[{"name":"recommender","type":"address","internalType":"address"}],"outputs":[],"stateMutability":"nonpayable"},{"type":"function","name":"renounceOwnership","inputs":[],"outputs":[],"stateMutability":"nonpayable"},{"type":"function","name":"setAwardRatio","inputs":[{"name":"user","type":"address","internalType":"address"},{"name":"_ratio","type":"uint256","internalType":"uint256"}],"outputs":[],"stateMutability":"nonpayable"},{"type":"function","name":"singleRecharge","inputs":[{"name":"nodeType","type":"uint8","internalType":"enum Enum.NodeType"}],"outputs":[],"stateMutability":"nonpayable"},{"type":"function","name":"totalPerformance","inputs":[],"outputs":[{"name":"","type":"uint256","internalType":"uint256"}],"stateMutability":"view"},{"type":"function","name":"transferOwnership","inputs":[{"name":"newOwner","type":"address","internalType":"address"}],"outputs":[],"stateMutability":"nonpayable"},{"type":"function","name":"upgradeToAndCall","inputs":[{"name":"newImplementation","type":"address","internalType":"address"},{"name":"data","type":"bytes","internalType":"bytes"}],"outputs":[],"stateMutability":"payable"},{"type":"function","name":"userInfo","inputs":[{"name":"","type":"address","internalType":"address"}],"outputs":[{"name":"recommender","type":"address","internalType":"address"},{"name":"nodeType","type":"uint8","internalType":"enum Enum.NodeType"},{"name":"referralNum","type":"uint256","internalType":"uint256"},{"name":"performance","type":"uint256","internalType":"uint256"},{"name":"award","type":"uint256","internalType":"uint256"},{"name":"awardRatio","type":"uint256","internalType":"uint256"},{"name":"extracted","type":"uint256","internalType":"uint256"}],"stateMutability":"view"},{"type":"function","name":"validInvitationCode","inputs":[{"name":"user","type":"address","internalType":"address"}],"outputs":[{"name":"","type":"bool","internalType":"bool"}],"stateMutability":"view"},{"type":"event","name":"Initialized","inputs":[{"name":"version","type":"uint64","indexed":false,"internalType":"uint64"}],"anonymous":false},{"type":"event","name":"OwnershipTransferred","inputs":[{"name":"previousOwner","type":"address","indexed":true,"internalType":"address"},{"name":"newOwner","type":"address","indexed":true,"internalType":"address"}],"anonymous":false},{"type":"event","name":"Referral","inputs":[{"name":"recommender","type":"address","indexed":false,"internalType":"address"},{"name":"referred","type":"address","indexed":false,"internalType":"address"}],"anonymous":false},{"type":"event","name":"Staked","inputs":[{"name":"user","type":"address","indexed":false,"internalType":"address"},{"name":"amount","type":"uint256","indexed":false,"internalType":"uint256"},{"name":"nodeType","type":"uint8","indexed":false,"internalType":"enum Enum.NodeType"}],"anonymous":false},{"type":"event","name":"Upgraded","inputs":[{"name":"implementation","type":"address","indexed":true,"internalType":"address"}],"anonymous":false},{"type":"error","name":"AddressEmptyCode","inputs":[{"name":"target","type":"address","internalType":"address"}]},{"type":"error","name":"ERC1967InvalidImplementation","inputs":[{"name":"implementation","type":"address","internalType":"address"}]},{"type":"error","name":"ERC1967NonPayable","inputs":[]},{"type":"error","name":"FailedCall","inputs":[]},{"type":"error","name":"InvalidInitialization","inputs":[]},{"type":"error","name":"NotInitializing","inputs":[]},{"type":"error","name":"OwnableInvalidOwner","inputs":[{"name":"owner","type":"address","internalType":"address"}]},{"type":"error","name":"OwnableUnauthorizedAccount","inputs":[{"name":"account","type":"address","internalType":"address"}]},{"type":"error","name":"ReentrancyGuardReentrantCall","inputs":[]},{"type":"error","name":"UUPSUnauthorizedCallContext","inputs":[]},{"type":"error","name":"UUPSUnsupportedProxiableUUID","inputs":[{"name":"slot","type":"bytes32","internalType":"bytes32"}]}],"bytecode":{"object":"0x60a06040523073ffffffffffffffffffffffffffffffffffffffff1660809073ffffffffffffffffffffffffffffffffffffffff168152503480156041575f5ffd5b5060015f8190555060805161522161006f5f395f8181612ada01528181612b2f0152612ce901526152215ff3fe6080604052600436106101e6575f3560e01c80636e8dbfd011610101578063b3a4836611610094578063dcdcd08c11610063578063dcdcd08c1461070d578063f2fde38b14610749578063f851a44014610771578063fb7b09c51461079b57610226565b8063b3a4836614610655578063c0c53b8b14610693578063c528755d146106bb578063c54e44eb146106e357610226565b806389e59ea0116100d057806389e59ea0146105ad5780638da5cb5b146105d7578063a2b0332b14610601578063ad3cb1cc1461062b57610226565b80636e8dbfd014610531578063715018a6146105475780637247959a1461055d57806377e06a9e1461058557610226565b80634d38857c11610179578063551512de11610148578063551512de146104605780636386c1c71461048857806363c36dec146104cb57806366d003ac1461050757610226565b80634d38857c146103da5780634e71d92d146104045780634f1ef2861461041a57806352d1902d1461043657610226565b80631a78ccc1116101b55780631a78ccc1146102fc5780631f7bcc4b1461032657806339fe3b99146103625780633c4e9d741461039e57610226565b806305ad39351461022a57806306876dbe1461026657806310baf089146102905780631959a002146102ba57610226565b36610226576040517f08c379a000000000000000000000000000000000000000000000000000000000815260040161021d90613b71565b60405180910390fd5b5f5ffd5b348015610235575f5ffd5b50610250600480360381019061024b9190613c2d565b6107c3565b60405161025d9190613c7a565b60405180910390f35b348015610271575f5ffd5b5061027a61080b565b6040516102879190613ca2565b60405180910390f35b34801561029b575f5ffd5b506102a4610811565b6040516102b19190613c7a565b60405180910390f35b3480156102c5575f5ffd5b506102e060048036038101906102db9190613cbb565b610836565b6040516102f39796959493929190613d59565b60405180910390f35b348015610307575f5ffd5b5061031061089f565b60405161031d9190613c7a565b60405180910390f35b348015610331575f5ffd5b5061034c60048036038101906103479190613de9565b6108b7565b6040516103599190613ca2565b60405180910390f35b34801561036d575f5ffd5b5061038860048036038101906103839190613cbb565b6108cc565b6040516103959190613e2e565b60405180910390f35b3480156103a9575f5ffd5b506103c460048036038101906103bf9190613cbb565b6108e9565b6040516103d19190613e2e565b60405180910390f35b3480156103e5575f5ffd5b506103ee610999565b6040516103fb9190613ca2565b60405180910390f35b34801561040f575f5ffd5b506104186109a5565b005b610434600480360381019061042f9190613f83565b610ac7565b005b348015610441575f5ffd5b5061044a610ae6565b6040516104579190613ff5565b60405180910390f35b34801561046b575f5ffd5b506104866004803603810190610481919061400e565b610b17565b005b348015610493575f5ffd5b506104ae60048036038101906104a99190613cbb565b610bb6565b6040516104c2989796959493929190614164565b60405180910390f35b3480156104d6575f5ffd5b506104f160048036038101906104ec9190613cbb565b610e0f565b6040516104fe9190613e2e565b60405180910390f35b348015610512575f5ffd5b5061051b610e2c565b6040516105289190613c7a565b60405180910390f35b34801561053c575f5ffd5b50610545610e51565b005b348015610552575f5ffd5b5061055b611026565b005b348015610568575f5ffd5b50610583600480360381019061057e9190613cbb565b611039565b005b348015610590575f5ffd5b506105ab60048036038101906105a69190613c2d565b6115fe565b005b3480156105b8575f5ffd5b506105c161171a565b6040516105ce9190613ca2565b60405180910390f35b3480156105e2575f5ffd5b506105eb61171f565b6040516105f89190613c7a565b60405180910390f35b34801561060c575f5ffd5b50610615611754565b604051610622919061428f565b60405180910390f35b348015610636575f5ffd5b5061063f6117df565b60405161064c91906142ff565b60405180910390f35b348015610660575f5ffd5b5061067b60048036038101906106769190613cbb565b611818565b60405161068a9392919061431f565b60405180910390f35b34801561069e575f5ffd5b506106b960048036038101906106b49190614354565b611977565b005b3480156106c6575f5ffd5b506106e160048036038101906106dc9190614468565b611c8d565b005b3480156106ee575f5ffd5b506106f7611fab565b6040516107049190613c7a565b60405180910390f35b348015610718575f5ffd5b50610733600480360381019061072e9190613cbb565b611fc3565b60405161074091906145b9565b60405180910390f35b348015610754575f5ffd5b5061076f600480360381019061076a9190613cbb565b6121d9565b005b34801561077c575f5ffd5b5061078561225d565b6040516107929190613c7a565b60405180910390f35b3480156107a6575f5ffd5b506107c160048036038101906107bc9190613de9565b612282565b005b6003602052815f5260405f2081815481106107dc575f80fd5b905f5260205f20015f915091509054906101000a900473ffffffffffffffffffffffffffffffffffffffff1681565b600b5481565b60065f9054906101000a900473ffffffffffffffffffffffffffffffffffffffff1681565b6001602052805f5260405f205f91509050805f015f9054906101000a900473ffffffffffffffffffffffffffffffffffffffff1690805f0160149054906101000a900460ff16908060010154908060020154908060030154908060040154908060050154905087565b73fd5840cd36d94d7229439859c0112a4185bc025581565b6004602052805f5260405f205f915090505481565b6009602052805f5260405f205f915054906101000a900460ff1681565b5f60065f9054906101000a900473ffffffffffffffffffffffffffffffffffffffff1673ffffffffffffffffffffffffffffffffffffffff168273ffffffffffffffffffffffffffffffffffffffff16036109475760019050610994565b600a5f8373ffffffffffffffffffffffffffffffffffffffff1673ffffffffffffffffffffffffffffffffffffffff1681526020019081526020015f205f9054906101000a900460ff1690505b919050565b5f600880549050905090565b6109ad61295b565b5f60015f3373ffffffffffffffffffffffffffffffffffffffff1673ffffffffffffffffffffffffffffffffffffffff1681526020019081526020015f2090505f81600501548260030154610a029190614606565b90505f8111610a46576040517f08c379a0000000000000000000000000000000000000000000000000000000008152600401610a3d90614683565b60405180910390fd5b8060015f3373ffffffffffffffffffffffffffffffffffffffff1673ffffffffffffffffffffffffffffffffffffffff1681526020019081526020015f206005015f828254610a9591906146a1565b92505081905550610abb7355d398326f99059ff775485246999027b3197955338361299f565b5050610ac5612acf565b565b610acf612ad8565b610ad882612bbe565b610ae28282612bc9565b5050565b5f610aef612ce7565b7f360894a13ba1a3210667c828492db98dca3e2076cc3735a920a3ca505d382bbc5f1b905090565b3373ffffffffffffffffffffffffffffffffffffffff1660055f9054906101000a900473ffffffffffffffffffffffffffffffffffffffff1673ffffffffffffffffffffffffffffffffffffffff1614610ba6576040517f08c379a0000000000000000000000000000000000000000000000000000000008152600401610b9d9061471e565b60405180910390fd5b610bb183828461299f565b505050565b5f5f5f5f5f5f5f60605f60015f8b73ffffffffffffffffffffffffffffffffffffffff1673ffffffffffffffffffffffffffffffffffffffff1681526020019081526020015f206040518060e00160405290815f82015f9054906101000a900473ffffffffffffffffffffffffffffffffffffffff1673ffffffffffffffffffffffffffffffffffffffff1673ffffffffffffffffffffffffffffffffffffffff1681526020015f820160149054906101000a900460ff166003811115610c8057610c7f613ce6565b5b6003811115610c9257610c91613ce6565b5b8152602001600182015481526020016002820154815260200160038201548152602001600482015481526020016005820154815250509050805f015198508060200151975080604001519650806060015195508060c001518160800151610cf99190614606565b9450806080015192508060a00151935060025f8b73ffffffffffffffffffffffffffffffffffffffff1673ffffffffffffffffffffffffffffffffffffffff1681526020019081526020015f20805480602002602001604051908101604052809291908181526020015f905b82821015610dfd578382905f5260205f2090600302016040518060600160405290815f82015f9054906101000a900473ffffffffffffffffffffffffffffffffffffffff1673ffffffffffffffffffffffffffffffffffffffff1673ffffffffffffffffffffffffffffffffffffffff1681526020016001820154815260200160028201548152505081526020019060010190610d65565b50505050915050919395975091939597565b600a602052805f5260405f205f915054906101000a900460ff1681565b60075f9054906101000a900473ffffffffffffffffffffffffffffffffffffffff1681565b5f73ffffffffffffffffffffffffffffffffffffffff1660015f3373ffffffffffffffffffffffffffffffffffffffff1673ffffffffffffffffffffffffffffffffffffffff1681526020019081526020015f205f015f9054906101000a900473ffffffffffffffffffffffffffffffffffffffff1673ffffffffffffffffffffffffffffffffffffffff1603610f1d576040517f08c379a0000000000000000000000000000000000000000000000000000000008152600401610f1490614786565b60405180910390fd5b600a5f3373ffffffffffffffffffffffffffffffffffffffff1673ffffffffffffffffffffffffffffffffffffffff1681526020019081526020015f205f9054906101000a900460ff1615610fa7576040517f08c379a0000000000000000000000000000000000000000000000000000000008152600401610f9e906147ee565b60405180910390fd5b6001600a5f3373ffffffffffffffffffffffffffffffffffffffff1673ffffffffffffffffffffffffffffffffffffffff1681526020019081526020015f205f6101000a81548160ff0219169083151502179055506110247355d398326f99059ff775485246999027b31979553330670de0b6b3a7640000612d6e565b565b61102e612ea1565b6110375f612f28565b565b600c5f9054906101000a900460ff1615611088576040517f08c379a000000000000000000000000000000000000000000000000000000000815260040161107f90614856565b60405180910390fd5b3373ffffffffffffffffffffffffffffffffffffffff1660065f9054906101000a900473ffffffffffffffffffffffffffffffffffffffff1673ffffffffffffffffffffffffffffffffffffffff1603611117576040517f08c379a000000000000000000000000000000000000000000000000000000000815260040161110e906148be565b60405180910390fd5b5f73ffffffffffffffffffffffffffffffffffffffff168173ffffffffffffffffffffffffffffffffffffffff1603611185576040517f08c379a000000000000000000000000000000000000000000000000000000000815260040161117c90614926565b60405180910390fd5b3373ffffffffffffffffffffffffffffffffffffffff168173ffffffffffffffffffffffffffffffffffffffff16036111f3576040517f08c379a00000000000000000000000000000000000000000000000000000000081526004016111ea9061498e565b60405180910390fd5b60065f9054906101000a900473ffffffffffffffffffffffffffffffffffffffff1673ffffffffffffffffffffffffffffffffffffffff168173ffffffffffffffffffffffffffffffffffffffff16146112d157600a5f8273ffffffffffffffffffffffffffffffffffffffff1673ffffffffffffffffffffffffffffffffffffffff1681526020019081526020015f205f9054906101000a900460ff166112d0576040517f08c379a00000000000000000000000000000000000000000000000000000000081526004016112c7906149f6565b60405180910390fd5b5b5f73ffffffffffffffffffffffffffffffffffffffff1660015f3373ffffffffffffffffffffffffffffffffffffffff1673ffffffffffffffffffffffffffffffffffffffff1681526020019081526020015f205f015f9054906101000a900473ffffffffffffffffffffffffffffffffffffffff1673ffffffffffffffffffffffffffffffffffffffff161461139d576040517f08c379a000000000000000000000000000000000000000000000000000000000815260040161139490614a5e565b60405180910390fd5b8060015f3373ffffffffffffffffffffffffffffffffffffffff1673ffffffffffffffffffffffffffffffffffffffff1681526020019081526020015f205f015f6101000a81548173ffffffffffffffffffffffffffffffffffffffff021916908373ffffffffffffffffffffffffffffffffffffffff16021790555060035f8273ffffffffffffffffffffffffffffffffffffffff1673ffffffffffffffffffffffffffffffffffffffff1681526020019081526020015f2033908060018154018082558091505060019003905f5260205f20015f9091909190916101000a81548173ffffffffffffffffffffffffffffffffffffffff021916908373ffffffffffffffffffffffffffffffffffffffff16021790555060095f3373ffffffffffffffffffffffffffffffffffffffff1673ffffffffffffffffffffffffffffffffffffffff1681526020019081526020015f205f9054906101000a900460ff166115b957600833908060018154018082558091505060019003905f5260205f20015f9091909190916101000a81548173ffffffffffffffffffffffffffffffffffffffff021916908373ffffffffffffffffffffffffffffffffffffffff160217905550600160095f3373ffffffffffffffffffffffffffffffffffffffff1673ffffffffffffffffffffffffffffffffffffffff1681526020019081526020015f205f6101000a81548160ff0219169083151502179055505b6115c233612ff9565b7f9d05414fb79fac216c15606de5cc06664e91a254e4d5f57664d5f1beaf7fb7ef81336040516115f3929190614a7c565b60405180910390a150565b3373ffffffffffffffffffffffffffffffffffffffff1660055f9054906101000a900473ffffffffffffffffffffffffffffffffffffffff1673ffffffffffffffffffffffffffffffffffffffff161461168d576040517f08c379a00000000000000000000000000000000000000000000000000000000081526004016116849061471e565b60405180910390fd5b605a8111156116d1576040517f08c379a00000000000000000000000000000000000000000000000000000000081526004016116c890614aed565b60405180910390fd5b8060015f8473ffffffffffffffffffffffffffffffffffffffff1673ffffffffffffffffffffffffffffffffffffffff1681526020019081526020015f20600401819055505050565b603281565b5f5f6117296131a4565b9050805f015f9054906101000a900473ffffffffffffffffffffffffffffffffffffffff1691505090565b606060088054806020026020016040519081016040528092919081815260200182805480156117d557602002820191905f5260205f20905b815f9054906101000a900473ffffffffffffffffffffffffffffffffffffffff1673ffffffffffffffffffffffffffffffffffffffff168152602001906001019080831161178c575b5050505050905090565b6040518060400160405280600581526020017f352e302e3000000000000000000000000000000000000000000000000000000081525081565b5f5f5f5f60015f8673ffffffffffffffffffffffffffffffffffffffff1673ffffffffffffffffffffffffffffffffffffffff1681526020019081526020015f206040518060e00160405290815f82015f9054906101000a900473ffffffffffffffffffffffffffffffffffffffff1673ffffffffffffffffffffffffffffffffffffffff1673ffffffffffffffffffffffffffffffffffffffff1681526020015f820160149054906101000a900460ff1660038111156118dc576118db613ce6565b5b60038111156118ee576118ed613ce6565b5b8152602001600182015481526020016002820154815260200160038201548152602001600482015481526020016005820154815250509050805f015193508060200151925060045f8260200151600381111561194d5761194c613ce6565b5b600381111561195f5761195e613ce6565b5b81526020019081526020015f20549150509193909250565b5f6119806131cb565b90505f815f0160089054906101000a900460ff161590505f825f015f9054906101000a900467ffffffffffffffff1690505f5f8267ffffffffffffffff161480156119c85750825b90505f60018367ffffffffffffffff161480156119fb57505f3073ffffffffffffffffffffffffffffffffffffffff163b145b905081158015611a09575080155b15611a40576040517ff92ee8a900000000000000000000000000000000000000000000000000000000815260040160405180910390fd5b6001855f015f6101000a81548167ffffffffffffffff021916908367ffffffffffffffff1602179055508315611a8d576001855f0160086101000a81548160ff0219169083151502179055505b611a9d611a986131de565b6131e5565b8760055f6101000a81548173ffffffffffffffffffffffffffffffffffffffff021916908373ffffffffffffffffffffffffffffffffffffffff1602179055508660075f6101000a81548173ffffffffffffffffffffffffffffffffffffffff021916908373ffffffffffffffffffffffffffffffffffffffff1602179055508560065f6101000a81548173ffffffffffffffffffffffffffffffffffffffff021916908373ffffffffffffffffffffffffffffffffffffffff160217905550681b1ae4d6e2ef50000060045f60016003811115611b7e57611b7d613ce6565b5b6003811115611b9057611b8f613ce6565b5b81526020019081526020015f2081905550686c6b935b8bbd40000060045f60026003811115611bc257611bc1613ce6565b5b6003811115611bd457611bd3613ce6565b5b81526020019081526020015f208190555069010f0cf064dd5920000060045f600380811115611c0657611c05613ce6565b5b6003811115611c1857611c17613ce6565b5b81526020019081526020015f20819055508315611c83575f855f0160086101000a81548160ff0219169083151502179055507fc7f505b2f371ae2175ee4913f4499e1f2633a7b5936321eed1cdaeb6115181d26001604051611c7a9190614b60565b60405180910390a15b5050505050505050565b611c95612ea1565b5f6003811115611ca857611ca7613ce6565b5b816003811115611cbb57611cba613ce6565b5b03611cfb576040517f08c379a0000000000000000000000000000000000000000000000000000000008152600401611cf290614bc3565b60405180910390fd5b5f5f90505b8251811015611fa6575f60015f858481518110611d2057611d1f614be1565b5b602002602001015173ffffffffffffffffffffffffffffffffffffffff1673ffffffffffffffffffffffffffffffffffffffff1681526020019081526020015f2090505f73ffffffffffffffffffffffffffffffffffffffff16815f015f9054906101000a900473ffffffffffffffffffffffffffffffffffffffff1673ffffffffffffffffffffffffffffffffffffffff1603611f985760065f9054906101000a900473ffffffffffffffffffffffffffffffffffffffff16815f015f6101000a81548173ffffffffffffffffffffffffffffffffffffffff021916908373ffffffffffffffffffffffffffffffffffffffff16021790555082815f0160146101000a81548160ff02191690836003811115611e4057611e3f613ce6565b5b021790555060095f858481518110611e5b57611e5a614be1565b5b602002602001015173ffffffffffffffffffffffffffffffffffffffff1673ffffffffffffffffffffffffffffffffffffffff1681526020019081526020015f205f9054906101000a900460ff16611f97576008848381518110611ec257611ec1614be1565b5b6020026020010151908060018154018082558091505060019003905f5260205f20015f9091909190916101000a81548173ffffffffffffffffffffffffffffffffffffffff021916908373ffffffffffffffffffffffffffffffffffffffff160217905550600160095f868581518110611f3f57611f3e614be1565b5b602002602001015173ffffffffffffffffffffffffffffffffffffffff1673ffffffffffffffffffffffffffffffffffffffff1681526020019081526020015f205f6101000a81548160ff0219169083151502179055505b5b508080600101915050611d00565b505050565b7355d398326f99059ff775485246999027b319795581565b60605f60035f8473ffffffffffffffffffffffffffffffffffffffff1673ffffffffffffffffffffffffffffffffffffffff1681526020019081526020015f2080548060200260200160405190810160405280929190818152602001828054801561208057602002820191905f5260205f20905b815f9054906101000a900473ffffffffffffffffffffffffffffffffffffffff1673ffffffffffffffffffffffffffffffffffffffff1681526020019060010190808311612037575b505050505090505f815190508067ffffffffffffffff8111156120a6576120a5613e5f565b5b6040519080825280602002602001820160405280156120df57816020015b6120cc613ad1565b8152602001906001900390816120c45790505b5092505f5f90505b818110156121d1575f83828151811061210357612102614be1565b5b602002602001015190505f60015f8373ffffffffffffffffffffffffffffffffffffffff1673ffffffffffffffffffffffffffffffffffffffff1681526020019081526020015f20905060405180606001604052808373ffffffffffffffffffffffffffffffffffffffff168152602001825f0160149054906101000a900460ff16600381111561219757612196613ce6565b5b815260200182600201548152508684815181106121b7576121b6614be1565b5b6020026020010181905250505080806001019150506120e7565b505050919050565b6121e1612ea1565b5f73ffffffffffffffffffffffffffffffffffffffff168173ffffffffffffffffffffffffffffffffffffffff1603612251575f6040517f1e4fbdf70000000000000000000000000000000000000000000000000000000081526004016122489190613c7a565b60405180910390fd5b61225a81612f28565b50565b60055f9054906101000a900473ffffffffffffffffffffffffffffffffffffffff1681565b61228a61295b565b600c5f9054906101000a900460ff16156122d9576040517f08c379a00000000000000000000000000000000000000000000000000000000081526004016122d090614856565b60405180910390fd5b5f60045f8360038111156122f0576122ef613ce6565b5b600381111561230257612301613ce6565b5b81526020019081526020015f205411612350576040517f08c379a000000000000000000000000000000000000000000000000000000000815260040161234790614c58565b60405180910390fd5b5f60015f3373ffffffffffffffffffffffffffffffffffffffff1673ffffffffffffffffffffffffffffffffffffffff1681526020019081526020015f2090505f60038111156123a3576123a2613ce6565b5b815f0160149054906101000a900460ff1660038111156123c6576123c5613ce6565b5b14612406576040517f08c379a00000000000000000000000000000000000000000000000000000000081526004016123fd90614cc0565b60405180910390fd5b5f73ffffffffffffffffffffffffffffffffffffffff16815f015f9054906101000a900473ffffffffffffffffffffffffffffffffffffffff1673ffffffffffffffffffffffffffffffffffffffff1603612496576040517f08c379a000000000000000000000000000000000000000000000000000000000815260040161248d90614d4e565b60405180910390fd5b6124eb7355d398326f99059ff775485246999027b3197955333060045f8760038111156124c6576124c5613ce6565b5b60038111156124d8576124d7613ce6565b5b81526020019081526020015f2054612d6e565b5f6064605060045f86600381111561250657612505613ce6565b5b600381111561251857612517613ce6565b5b81526020019081526020015f20546125309190614d6c565b61253a9190614dda565b905061256f7355d398326f99059ff775485246999027b319795573fd5840cd36d94d7229439859c0112a4185bc02555f6131f9565b6125a27355d398326f99059ff775485246999027b319795573fd5840cd36d94d7229439859c0112a4185bc0255836131f9565b5f73fd5840cd36d94d7229439859c0112a4185bc025573ffffffffffffffffffffffffffffffffffffffff1663a0712d68836040518263ffffffff1660e01b81526004016125f09190613ca2565b6020604051808303815f875af115801561260c573d5f5f3e3d5ffd5b505050506040513d601f19601f820116820180604052508101906126309190614e1e565b14612670576040517f08c379a000000000000000000000000000000000000000000000000000000000815260040161266790614e93565b60405180910390fd5b5f73fd5840cd36d94d7229439859c0112a4185bc025573ffffffffffffffffffffffffffffffffffffffff166370a08231306040518263ffffffff1660e01b81526004016126be9190613c7a565b602060405180830381865afa1580156126d9573d5f5f3e3d5ffd5b505050506040513d601f19601f820116820180604052508101906126fd9190614e1e565b905061273f73fd5840cd36d94d7229439859c0112a4185bc025560075f9054906101000a900473ffffffffffffffffffffffffffffffffffffffff168361299f565b83835f0160146101000a81548160ff0219169083600381111561276557612764613ce6565b5b021790555060045f8560038111156127805761277f613ce6565b5b600381111561279257612791613ce6565b5b81526020019081526020015f2054600b5f8282546127b091906146a1565b925050819055506001600a5f3373ffffffffffffffffffffffffffffffffffffffff1673ffffffffffffffffffffffffffffffffffffffff1681526020019081526020015f205f6101000a81548160ff0219169083151502179055505f73ffffffffffffffffffffffffffffffffffffffff1660015f3373ffffffffffffffffffffffffffffffffffffffff1673ffffffffffffffffffffffffffffffffffffffff1681526020019081526020015f205f015f9054906101000a900473ffffffffffffffffffffffffffffffffffffffff1673ffffffffffffffffffffffffffffffffffffffff16146128dd576128dc3360045f8760038111156128b7576128b6613ce6565b5b60038111156128c9576128c8613ce6565b5b81526020019081526020015f2054613329565b5b7f8acf475137e0cd74ca7f611d16b1e6383ec9a9c71a8e5b85967781b9c7214d113360045f87600381111561291557612914613ce6565b5b600381111561292757612926613ce6565b5b81526020019081526020015f20548660405161294593929190614eb1565b60405180910390a1505050612958612acf565b50565b60025f5403612996576040517f3ee5aeb500000000000000000000000000000000000000000000000000000000815260040160405180910390fd5b60025f81905550565b5f5f8473ffffffffffffffffffffffffffffffffffffffff1663a9059cbb85856040516024016129d0929190614ee6565b6040516020818303038152906040529060e01b6020820180517bffffffffffffffffffffffffffffffffffffffffffffffffffffffff8381831617835250505050604051612a1e9190614f51565b5f604051808303815f865af19150503d805f8114612a57576040519150601f19603f3d011682016040523d82523d5f602084013e612a5c565b606091505b5091509150818015612a8957505f81511480612a88575080806020019051810190612a879190614f91565b5b5b612ac8576040517f08c379a0000000000000000000000000000000000000000000000000000000008152600401612abf90615006565b60405180910390fd5b5050505050565b60015f81905550565b7f000000000000000000000000000000000000000000000000000000000000000073ffffffffffffffffffffffffffffffffffffffff163073ffffffffffffffffffffffffffffffffffffffff161480612b8557507f000000000000000000000000000000000000000000000000000000000000000073ffffffffffffffffffffffffffffffffffffffff16612b6c6136bf565b73ffffffffffffffffffffffffffffffffffffffff1614155b15612bbc576040517fe07c8dba00000000000000000000000000000000000000000000000000000000815260040160405180910390fd5b565b612bc6612ea1565b50565b8173ffffffffffffffffffffffffffffffffffffffff166352d1902d6040518163ffffffff1660e01b8152600401602060405180830381865afa925050508015612c3157506040513d601f19601f82011682018060405250810190612c2e919061504e565b60015b612c7257816040517f4c9c8ce3000000000000000000000000000000000000000000000000000000008152600401612c699190613c7a565b60405180910390fd5b7f360894a13ba1a3210667c828492db98dca3e2076cc3735a920a3ca505d382bbc5f1b8114612cd857806040517faa1d49a4000000000000000000000000000000000000000000000000000000008152600401612ccf9190613ff5565b60405180910390fd5b612ce28383613712565b505050565b7f000000000000000000000000000000000000000000000000000000000000000073ffffffffffffffffffffffffffffffffffffffff163073ffffffffffffffffffffffffffffffffffffffff1614612d6c576040517fe07c8dba00000000000000000000000000000000000000000000000000000000815260040160405180910390fd5b565b5f5f8573ffffffffffffffffffffffffffffffffffffffff166323b872dd868686604051602401612da193929190615079565b6040516020818303038152906040529060e01b6020820180517bffffffffffffffffffffffffffffffffffffffffffffffffffffffff8381831617835250505050604051612def9190614f51565b5f604051808303815f865af19150503d805f8114612e28576040519150601f19603f3d011682016040523d82523d5f602084013e612e2d565b606091505b5091509150818015612e5a57505f81511480612e59575080806020019051810190612e589190614f91565b5b5b612e99576040517f08c379a0000000000000000000000000000000000000000000000000000000008152600401612e909061511e565b60405180910390fd5b505050505050565b612ea96131de565b73ffffffffffffffffffffffffffffffffffffffff16612ec761171f565b73ffffffffffffffffffffffffffffffffffffffff1614612f2657612eea6131de565b6040517f118cdaa7000000000000000000000000000000000000000000000000000000008152600401612f1d9190613c7a565b60405180910390fd5b565b5f612f316131a4565b90505f815f015f9054906101000a900473ffffffffffffffffffffffffffffffffffffffff16905082825f015f6101000a81548173ffffffffffffffffffffffffffffffffffffffff021916908373ffffffffffffffffffffffffffffffffffffffff1602179055508273ffffffffffffffffffffffffffffffffffffffff168173ffffffffffffffffffffffffffffffffffffffff167f8be0079c531659141344cd1fd0a4f28419497f9722a3daafe3b4186f6b6457e060405160405180910390a3505050565b5f60015f8373ffffffffffffffffffffffffffffffffffffffff1673ffffffffffffffffffffffffffffffffffffffff1681526020019081526020015f205f015f9054906101000a900473ffffffffffffffffffffffffffffffffffffffff1690505f5f90505b5f73ffffffffffffffffffffffffffffffffffffffff168273ffffffffffffffffffffffffffffffffffffffff161415801561309c5750603281105b1561319f578273ffffffffffffffffffffffffffffffffffffffff168273ffffffffffffffffffffffffffffffffffffffff16031561319f576001805f8473ffffffffffffffffffffffffffffffffffffffff1673ffffffffffffffffffffffffffffffffffffffff1681526020019081526020015f206001015f82825461312491906146a1565b9250508190555060015f8373ffffffffffffffffffffffffffffffffffffffff1673ffffffffffffffffffffffffffffffffffffffff1681526020019081526020015f205f015f9054906101000a900473ffffffffffffffffffffffffffffffffffffffff16915080806131979061513c565b915050613060565b505050565b5f7f9016d09d72d40fdae2fd8ceac6b6234c7706214fd39c1cd1e609a0528c199300905090565b5f5f6131d5613784565b90508091505090565b5f33905090565b6131ed6137ad565b6131f6816137ed565b50565b5f5f8473ffffffffffffffffffffffffffffffffffffffff1663095ea7b3858560405160240161322a929190614ee6565b6040516020818303038152906040529060e01b6020820180517bffffffffffffffffffffffffffffffffffffffffffffffffffffffff83818316178352505050506040516132789190614f51565b5f604051808303815f865af19150503d805f81146132b1576040519150601f19603f3d011682016040523d82523d5f602084013e6132b6565b606091505b50915091508180156132e357505f815114806132e25750808060200190518101906132e19190614f91565b5b5b613322576040517f08c379a0000000000000000000000000000000000000000000000000000000008152600401613319906151cd565b60405180910390fd5b5050505050565b5f60015f8473ffffffffffffffffffffffffffffffffffffffff1673ffffffffffffffffffffffffffffffffffffffff1681526020019081526020015f205f015f9054906101000a900473ffffffffffffffffffffffffffffffffffffffff1690505f5f90505f5f90505b5f73ffffffffffffffffffffffffffffffffffffffff168373ffffffffffffffffffffffffffffffffffffffff16141580156133d05750603282105b156136b8578473ffffffffffffffffffffffffffffffffffffffff168373ffffffffffffffffffffffffffffffffffffffff1603156136b8578360015f8573ffffffffffffffffffffffffffffffffffffffff1673ffffffffffffffffffffffffffffffffffffffff1681526020019081526020015f206002015f82825461345891906146a1565b925050819055505f60015f8573ffffffffffffffffffffffffffffffffffffffff1673ffffffffffffffffffffffffffffffffffffffff1681526020019081526020015f2060040154905081811115613643575f82826134b89190614606565b90505f606482886134c99190614d6c565b6134d39190614dda565b90505f811115613622578060015f8873ffffffffffffffffffffffffffffffffffffffff1673ffffffffffffffffffffffffffffffffffffffff1681526020019081526020015f206003015f82825461352c91906146a1565b9250508190555060025f8773ffffffffffffffffffffffffffffffffffffffff1673ffffffffffffffffffffffffffffffffffffffff1681526020019081526020015f2060405180606001604052808a73ffffffffffffffffffffffffffffffffffffffff16815260200183815260200142815250908060018154018082558091505060019003905f5260205f2090600302015f909190919091505f820151815f015f6101000a81548173ffffffffffffffffffffffffffffffffffffffff021916908373ffffffffffffffffffffffffffffffffffffffff160217905550602082015181600101556040820151816002015550505b818461362e91906146a1565b935060648410613640575050506136b8565b50505b60015f8573ffffffffffffffffffffffffffffffffffffffff1673ffffffffffffffffffffffffffffffffffffffff1681526020019081526020015f205f015f9054906101000a900473ffffffffffffffffffffffffffffffffffffffff16935082806136af9061513c565b93505050613394565b5050505050565b5f6136eb7f360894a13ba1a3210667c828492db98dca3e2076cc3735a920a3ca505d382bbc5f1b613871565b5f015f9054906101000a900473ffffffffffffffffffffffffffffffffffffffff16905090565b61371b8261387a565b8173ffffffffffffffffffffffffffffffffffffffff167fbc7cd75a20ee27fd9adebab32041f755214dbc6bffa90cc0225b39da2e5c2d3b60405160405180910390a25f81511115613777576137718282613943565b50613780565b61377f613a34565b5b5050565b5f7ff0c57e16840df040f15088dc2f81fe391c3923bec73e23a9662efc9c229c6a005f1b905090565b6137b5613a70565b6137eb576040517fd7e6bcf800000000000000000000000000000000000000000000000000000000815260040160405180910390fd5b565b6137f56137ad565b5f73ffffffffffffffffffffffffffffffffffffffff168173ffffffffffffffffffffffffffffffffffffffff1603613865575f6040517f1e4fbdf700000000000000000000000000000000000000000000000000000000815260040161385c9190613c7a565b60405180910390fd5b61386e81612f28565b50565b5f819050919050565b5f8173ffffffffffffffffffffffffffffffffffffffff163b036138d557806040517f4c9c8ce30000000000000000000000000000000000000000000000000000000081526004016138cc9190613c7a565b60405180910390fd5b806139017f360894a13ba1a3210667c828492db98dca3e2076cc3735a920a3ca505d382bbc5f1b613871565b5f015f6101000a81548173ffffffffffffffffffffffffffffffffffffffff021916908373ffffffffffffffffffffffffffffffffffffffff16021790555050565b60605f6139508484613a8e565b905080801561398657505f613963613aa2565b118061398557505f8473ffffffffffffffffffffffffffffffffffffffff163b115b5b1561399b57613993613aa9565b915050613a2e565b80156139de57836040517f9996b3150000000000000000000000000000000000000000000000000000000081526004016139d59190613c7a565b60405180910390fd5b5f6139e7613aa2565b11156139fa576139f5613ac6565b613a2c565b6040517fd6bda27500000000000000000000000000000000000000000000000000000000815260040160405180910390fd5b505b92915050565b5f341115613a6e576040517fb398979f00000000000000000000000000000000000000000000000000000000815260040160405180910390fd5b565b5f613a796131cb565b5f0160089054906101000a900460ff16905090565b5f5f5f835160208501865af4905092915050565b5f3d905090565b606060405190503d81523d5f602083013e3d602001810160405290565b6040513d5f823e3d81fd5b60405180606001604052805f73ffffffffffffffffffffffffffffffffffffffff1681526020015f6003811115613b0b57613b0a613ce6565b5b81526020015f81525090565b5f82825260208201905092915050565b7f4e4f5f4449524543545f53454e440000000000000000000000000000000000005f82015250565b5f613b5b600e83613b17565b9150613b6682613b27565b602082019050919050565b5f6020820190508181035f830152613b8881613b4f565b9050919050565b5f604051905090565b5f5ffd5b5f5ffd5b5f73ffffffffffffffffffffffffffffffffffffffff82169050919050565b5f613bc982613ba0565b9050919050565b613bd981613bbf565b8114613be3575f5ffd5b50565b5f81359050613bf481613bd0565b92915050565b5f819050919050565b613c0c81613bfa565b8114613c16575f5ffd5b50565b5f81359050613c2781613c03565b92915050565b5f5f60408385031215613c4357613c42613b98565b5b5f613c5085828601613be6565b9250506020613c6185828601613c19565b9150509250929050565b613c7481613bbf565b82525050565b5f602082019050613c8d5f830184613c6b565b92915050565b613c9c81613bfa565b82525050565b5f602082019050613cb55f830184613c93565b92915050565b5f60208284031215613cd057613ccf613b98565b5b5f613cdd84828501613be6565b91505092915050565b7f4e487b71000000000000000000000000000000000000000000000000000000005f52602160045260245ffd5b60048110613d2457613d23613ce6565b5b50565b5f819050613d3482613d13565b919050565b5f613d4382613d27565b9050919050565b613d5381613d39565b82525050565b5f60e082019050613d6c5f83018a613c6b565b613d796020830189613d4a565b613d866040830188613c93565b613d936060830187613c93565b613da06080830186613c93565b613dad60a0830185613c93565b613dba60c0830184613c93565b98975050505050505050565b60048110613dd2575f5ffd5b50565b5f81359050613de381613dc6565b92915050565b5f60208284031215613dfe57613dfd613b98565b5b5f613e0b84828501613dd5565b91505092915050565b5f8115159050919050565b613e2881613e14565b82525050565b5f602082019050613e415f830184613e1f565b92915050565b5f5ffd5b5f5ffd5b5f601f19601f8301169050919050565b7f4e487b71000000000000000000000000000000000000000000000000000000005f52604160045260245ffd5b613e9582613e4f565b810181811067ffffffffffffffff82111715613eb457613eb3613e5f565b5b80604052505050565b5f613ec6613b8f565b9050613ed28282613e8c565b919050565b5f67ffffffffffffffff821115613ef157613ef0613e5f565b5b613efa82613e4f565b9050602081019050919050565b828183375f83830152505050565b5f613f27613f2284613ed7565b613ebd565b905082815260208101848484011115613f4357613f42613e4b565b5b613f4e848285613f07565b509392505050565b5f82601f830112613f6a57613f69613e47565b5b8135613f7a848260208601613f15565b91505092915050565b5f5f60408385031215613f9957613f98613b98565b5b5f613fa685828601613be6565b925050602083013567ffffffffffffffff811115613fc757613fc6613b9c565b5b613fd385828601613f56565b9150509250929050565b5f819050919050565b613fef81613fdd565b82525050565b5f6020820190506140085f830184613fe6565b92915050565b5f5f5f6060848603121561402557614024613b98565b5b5f61403286828701613be6565b935050602061404386828701613c19565b925050604061405486828701613be6565b9150509250925092565b5f81519050919050565b5f82825260208201905092915050565b5f819050602082019050919050565b61409081613bbf565b82525050565b61409f81613bfa565b82525050565b606082015f8201516140b95f850182614087565b5060208201516140cc6020850182614096565b5060408201516140df6040850182614096565b50505050565b5f6140f083836140a5565b60608301905092915050565b5f602082019050919050565b5f6141128261405e565b61411c8185614068565b935061412783614078565b805f5b8381101561415757815161413e88826140e5565b9750614149836140fc565b92505060018101905061412a565b5085935050505092915050565b5f610100820190506141785f83018b613c6b565b614185602083018a613d4a565b6141926040830189613c93565b61419f6060830188613c93565b6141ac6080830187613c93565b6141b960a0830186613c93565b6141c660c0830185613c93565b81810360e08301526141d88184614108565b90509998505050505050505050565b5f81519050919050565b5f82825260208201905092915050565b5f819050602082019050919050565b5f61421b8383614087565b60208301905092915050565b5f602082019050919050565b5f61423d826141e7565b61424781856141f1565b935061425283614201565b805f5b838110156142825781516142698882614210565b975061427483614227565b925050600181019050614255565b5085935050505092915050565b5f6020820190508181035f8301526142a78184614233565b905092915050565b5f81519050919050565b8281835e5f83830152505050565b5f6142d1826142af565b6142db8185613b17565b93506142eb8185602086016142b9565b6142f481613e4f565b840191505092915050565b5f6020820190508181035f83015261431781846142c7565b905092915050565b5f6060820190506143325f830186613c6b565b61433f6020830185613d4a565b61434c6040830184613c93565b949350505050565b5f5f5f6060848603121561436b5761436a613b98565b5b5f61437886828701613be6565b935050602061438986828701613be6565b925050604061439a86828701613be6565b9150509250925092565b5f67ffffffffffffffff8211156143be576143bd613e5f565b5b602082029050602081019050919050565b5f5ffd5b5f6143e56143e0846143a4565b613ebd565b90508083825260208201905060208402830185811115614408576144076143cf565b5b835b81811015614431578061441d8882613be6565b84526020840193505060208101905061440a565b5050509392505050565b5f82601f83011261444f5761444e613e47565b5b813561445f8482602086016143d3565b91505092915050565b5f5f6040838503121561447e5761447d613b98565b5b5f83013567ffffffffffffffff81111561449b5761449a613b9c565b5b6144a78582860161443b565b92505060206144b885828601613dd5565b9150509250929050565b5f81519050919050565b5f82825260208201905092915050565b5f819050602082019050919050565b6144f481613d39565b82525050565b606082015f82015161450e5f850182614087565b50602082015161452160208501826144eb565b5060408201516145346040850182614096565b50505050565b5f61454583836144fa565b60608301905092915050565b5f602082019050919050565b5f614567826144c2565b61457181856144cc565b935061457c836144dc565b805f5b838110156145ac578151614593888261453a565b975061459e83614551565b92505060018101905061457f565b5085935050505092915050565b5f6020820190508181035f8301526145d1818461455d565b905092915050565b7f4e487b71000000000000000000000000000000000000000000000000000000005f52601160045260245ffd5b5f61461082613bfa565b915061461b83613bfa565b9250828203905081811115614633576146326145d9565b5b92915050565b7f4e4f5f41574152440000000000000000000000000000000000000000000000005f82015250565b5f61466d600883613b17565b915061467882614639565b602082019050919050565b5f6020820190508181035f83015261469a81614661565b9050919050565b5f6146ab82613bfa565b91506146b683613bfa565b92508282019050808211156146ce576146cd6145d9565b5b92915050565b7f4e6f74207065726d69742e0000000000000000000000000000000000000000005f82015250565b5f614708600b83613b17565b9150614713826146d4565b602082019050919050565b5f6020820190508181035f830152614735816146fc565b9050919050565b7f4e6f74207065726d69742067656e65726174652e0000000000000000000000005f82015250565b5f614770601483613b17565b915061477b8261473c565b602082019050919050565b5f6020820190508181035f83015261479d81614764565b9050919050565b7f414c52454144595f4558495354535f454c49474942494c4954592e00000000005f82015250565b5f6147d8601b83613b17565b91506147e3826147a4565b602082019050919050565b5f6020820190508181035f830152614805816147cc565b9050919050565b7f416c7265616479205061757365642e00000000000000000000000000000000005f82015250565b5f614840600f83613b17565b915061484b8261480c565b602082019050919050565b5f6020820190508181035f83015261486d81614834565b9050919050565b7f496e697469616c20636f64652063616e6e6f742072656769737465722e0000005f82015250565b5f6148a8601d83613b17565b91506148b382614874565b602082019050919050565b5f6020820190508181035f8301526148d58161489c565b9050919050565b7f5a45524f5f414444524553532e000000000000000000000000000000000000005f82015250565b5f614910600d83613b17565b915061491b826148dc565b602082019050919050565b5f6020820190508181035f83015261493d81614904565b9050919050565b7f494e56414c49445f5245434f4d4d454e4445522e0000000000000000000000005f82015250565b5f614978601483613b17565b915061498382614944565b602082019050919050565b5f6020820190508181035f8301526149a58161496c565b9050919050565b7f4e6f20656c69676962696c6974792e00000000000000000000000000000000005f82015250565b5f6149e0600f83613b17565b91506149eb826149ac565b602082019050919050565b5f6020820190508181035f830152614a0d816149d4565b9050919050565b7f494e56495445525f414c52454144595f4558495354532e0000000000000000005f82015250565b5f614a48601783613b17565b9150614a5382614a14565b602082019050919050565b5f6020820190508181035f830152614a7581614a3c565b9050919050565b5f604082019050614a8f5f830185613c6b565b614a9c6020830184613c6b565b9392505050565b7f4572726f7220726174696f2e00000000000000000000000000000000000000005f82015250565b5f614ad7600c83613b17565b9150614ae282614aa3565b602082019050919050565b5f6020820190508181035f830152614b0481614acb565b9050919050565b5f819050919050565b5f67ffffffffffffffff82169050919050565b5f819050919050565b5f614b4a614b45614b4084614b0b565b614b27565b614b14565b9050919050565b614b5a81614b30565b82525050565b5f602082019050614b735f830184614b51565b92915050565b7f494e56414c49445f4e4f44455f545950450000000000000000000000000000005f82015250565b5f614bad601183613b17565b9150614bb882614b79565b602082019050919050565b5f6020820190508181035f830152614bda81614ba1565b9050919050565b7f4e487b71000000000000000000000000000000000000000000000000000000005f52603260045260245ffd5b7f4552524f525f4e4f44455f545950452e000000000000000000000000000000005f82015250565b5f614c42601083613b17565b9150614c4d82614c0e565b602082019050919050565b5f6020820190508181035f830152614c6f81614c36565b9050919050565b7f414c52454144595f52454348415247452e0000000000000000000000000000005f82015250565b5f614caa601183613b17565b9150614cb582614c76565b602082019050919050565b5f6020820190508181035f830152614cd781614c9e565b9050919050565b7f5245434f4d4d454e444154494f4e5f49535f52455155495245445f52454348415f8201527f5247452e00000000000000000000000000000000000000000000000000000000602082015250565b5f614d38602483613b17565b9150614d4382614cde565b604082019050919050565b5f6020820190508181035f830152614d6581614d2c565b9050919050565b5f614d7682613bfa565b9150614d8183613bfa565b9250828202614d8f81613bfa565b91508282048414831517614da657614da56145d9565b5b5092915050565b7f4e487b71000000000000000000000000000000000000000000000000000000005f52601260045260245ffd5b5f614de482613bfa565b9150614def83613bfa565b925082614dff57614dfe614dad565b5b828204905092915050565b5f81519050614e1881613c03565b92915050565b5f60208284031215614e3357614e32613b98565b5b5f614e4084828501614e0a565b91505092915050565b7f56454e55535f4d494e545f4641494c45440000000000000000000000000000005f82015250565b5f614e7d601183613b17565b9150614e8882614e49565b602082019050919050565b5f6020820190508181035f830152614eaa81614e71565b9050919050565b5f606082019050614ec45f830186613c6b565b614ed16020830185613c93565b614ede6040830184613d4a565b949350505050565b5f604082019050614ef95f830185613c6b565b614f066020830184613c93565b9392505050565b5f81519050919050565b5f81905092915050565b5f614f2b82614f0d565b614f358185614f17565b9350614f458185602086016142b9565b80840191505092915050565b5f614f5c8284614f21565b915081905092915050565b614f7081613e14565b8114614f7a575f5ffd5b50565b5f81519050614f8b81614f67565b92915050565b5f60208284031215614fa657614fa5613b98565b5b5f614fb384828501614f7d565b91505092915050565b7f5472616e7366657248656c7065723a205452414e534645525f4641494c4544005f82015250565b5f614ff0601f83613b17565b9150614ffb82614fbc565b602082019050919050565b5f6020820190508181035f83015261501d81614fe4565b9050919050565b61502d81613fdd565b8114615037575f5ffd5b50565b5f8151905061504881615024565b92915050565b5f6020828403121561506357615062613b98565b5b5f6150708482850161503a565b91505092915050565b5f60608201905061508c5f830186613c6b565b6150996020830185613c6b565b6150a66040830184613c93565b949350505050565b7f5472616e7366657248656c7065723a205452414e534645525f46524f4d5f46415f8201527f494c454400000000000000000000000000000000000000000000000000000000602082015250565b5f615108602483613b17565b9150615113826150ae565b604082019050919050565b5f6020820190508181035f830152615135816150fc565b9050919050565b5f61514682613bfa565b91507fffffffffffffffffffffffffffffffffffffffffffffffffffffffffffffffff8203615178576151776145d9565b5b600182019050919050565b7f5472616e7366657248656c7065723a20415050524f56455f4641494c454400005f82015250565b5f6151b7601e83613b17565b91506151c282615183565b602082019050919050565b5f6020820190508181035f8301526151e4816151ab565b905091905056fea26469706673582212201deca7708ec5fd67dcaaf2ba3ebc92d4a8e9cb73050b2b9460fc92e7496e7f6664736f6c634300081e0033","linkReferences":{}},"methodIdentifiers":{"MAX_REFERRAL_DEPTH()":"89e59ea0","UPGRADE_INTERFACE_VERSION()":"ad3cb1cc","USDT()":"c54e44eb","VENUS()":"1a78ccc1","admin()":"f851a440","batchImport(address[],uint8)":"c528755d","claim()":"4e71d92d","directReferrals(address,uint256)":"05ad3935","eligibility(address)":"63c36dec","emergencyWithdraw(address,uint256,address)":"551512de","generateCode()":"6e8dbfd0","getAddrCollection()":"a2b0332b","getAddrCollectionLength()":"4d38857c","getDirectReferralInfo(address)":"dcdcd08c","getMigrateInfo(address)":"b3a48366","getUserInfo(address)":"6386c1c7","initialCode()":"10baf089","initialize(address,address,address)":"c0c53b8b","isAddCollection(address)":"39fe3b99","nodePrice(uint8)":"1f7bcc4b","owner()":"8da5cb5b","proxiableUUID()":"52d1902d","recipient()":"66d003ac","referral(address)":"7247959a","renounceOwnership()":"715018a6","setAwardRatio(address,uint256)":"77e06a9e","singleRecharge(uint8)":"fb7b09c5","totalPerformance()":"06876dbe","transferOwnership(address)":"f2fde38b","upgradeToAndCall(address,bytes)":"4f1ef286","userInfo(address)":"1959a002","validInvitationCode(address)":"3c4e9d74"},"id":33}